S0110000656D3236302D756172742E73333790
S3150000000040E50320A9A10200E55702008DA10200E8
S31500000010A70A02020002000004180FAC0061540097
S3150000002000000000000000000000000000000000CA
S3150000003000000000A4B6020000000000000000005E
S315000000400000000000000000FFFFFFFFFFFFFFFFB2
S31500000050FFFFFFFFFFFFFFFFFFFFFFFFFFFFFFFFAA
S3150000006000700F000000000000000000FFFFFFFF0F
S31500000070FFFFFFFF1C000000000000000000000062
S31500000080000000000000000062FF032062FF032062
S3150000009040E5032044C30200DEA40200E0DB0320A7
S311000000A0B40F002000001000000000005B
S3150000020040E50320A9A10200E55702008DA10200E6
S3150000021095A1020091A1020099A10200A5A10200E8
S31500000220A5A10200A5A10200A5A10200A5A10200A8
S315000002309DA10200A5A10200A5A1020015B301001F
S31500000240AB300200556602003DD50100A5A10200B3
S315000002507D620200956602005B6602005D66020032
S3150000026057660200819702001BAB0100DFCE01003A
S31500000270E3BE0100A5A10200A5A102008B9F02001A
S31500000280A5A10200A5A1020039AB0100A5A10200AB
S31500000290A5A10200A5A10200A5A10200A5A1020038
S315000002A0A5A10200A5A10200A5A10200A5A1020028
S315000002B09766020059660200472B0200CB660200D1
S315000002C0A5A102009DA40200A5A10200A5A102000D
S315000002D0A5A10200A5A10200A5A10200A5A10200F8
S315000002E0A5A10200A5A10200A5A10200A5A10200E8
S315000002F0A5A10200A5A10200A5A10200A5A10200D8
S31500000300A5A10200A5A10200A5A102006F49704A9D
S3150000031001E021B1491E1369DB07FAD401B9B0E047
S31500000320506001201060106910F0060F05D04107DB
S3150000033000D5A9E0800700D5A9E000207047F0B5F8
S3150000034013460022002936D0604C614D8BB98B4292
S3150000035031D250F8046BEE605B1C08262E602646F0
S3150000036001E036B3761E2F69FF07FAD4002EEED1D0
S315000003701FE0EFF3108672B600230EE02F6907F038
S315000003801907102F08BF2F602F693F07F6D550F8C1
S31500000390047BEF605B1C10272F608B42F4D306B9F9
S315000003A062B6264601E026B1761E2869C007FAD451
S315000003B00EB96FF002021046F0BD2DE9F0479A46DD
S315000003C0444B454F1C681B683B688046002043F041
S315000003D001033B60950881460C4602E0B14404EBFC
S315000003E08604A94517D208EB89063046FFF78EFF2B
S315000003F0010014D1C6F30A00C0F500608608A5EB1B
S315000004000900B04238BF0646524631462046FFF73D
S3150000041096FF0100E2D03968490849003960BDE815
S31500000420F0872C49294A0B6809682B490B6843F069
S3150000043001030B608860012048604869400704D5C5
S3150000044008684008400008601EE04869800704D537
S31500000450086840084000086019E00220486001E092
S3150000046022B1521E4869C007FAD422B9086840086A
S315000004704000086005E00868400840000860002069
S3150000048070476FF0020070474FF0FF3070476FF013
S3150000049001007047002390E70F48016841F0010111
S315000004A0016046F21A31C1644FF4807141604169BE
S315000004B0C907FCD44FF4007141604169C907FCD4F7
S315000004C00021C1640020704700000000809698005B
S315000004D00C000E4004300E4008000E4010B50446D5
S315000004E000F0A2FD204601F07CFD204602F052FA03
S315000004F02046BDE8104002F003BC01F0BABD10B5BD
S31500000500044600F0DEFD204601F0E5FD204602F03F
S3150000051069FA204602F059FC2046BDE8104002F078
S31500000520F1BB10B500E010B5044600F03AFE2046D7
S3150000053001F0BCFE204602F071FA204602F0AFFC44
S315000005402046BDE8104002F0EABE10B5044600F0B1
S3150000055055FE204601F0D8FE204602F08EFA09E04C
S3150000056010B5044600F06FFE204601F00FFF20464E
S3150000057002F0A0FA204602F0AAFC204602F0E7FEAE
S315000005802046BDE8104002F054BC80B503F042F9A5
S31500000590BDE8014002F082B910B5044602F080FDC4
S315000005A02046BDE8104002F058BC0198704703F0A1
S315000005B0A0B970472DE9F04701241028A4B00FF622
S315000005C0D415DFF84879DAA3DAA60FF26C39DBA185
S315000005D00FF26C380FF26C3A00F02F8118281CBF0E
S315000005E01D2820286FD0212800F0028122286AD0F9
S315000005F0282800F0A580292800F0C8802A2862D083
S315000006002B2800F047812D2800F065812E285AD02E
S31500000610302826D0332800F06381342800F0638127
S31500000620352800F0EC82362800F08E81372800F05D
S315000006301982382800F0B381392800F047823A2819
S3150000064000F0D981422800F055824A2800F0B28095
S315000006504C2800F0DE825A2800F05E825B2832D0F9
S315000006605D2800F0D183632800F0A282642800F0A0
S31500000670AC826A2803D06F2800F01383712800F03B
S31500000680E082732818BF772800F0CC837A281AD026
S31500000690822800F05B82832800F09183842818BFAB
S315000006A0852810D086281CBF872888280BD0892843
S315000006B000F08C838A281CBF8B288D2803D09028B5
S315000006C000F0F483952800F08D83962800F08F8241
S315000006D09A281CBFA128A428F5D0A62800F05E837E
S315000006E0A82800F0FA82A92800F01383AF2800F0AA
S315000006F02D83B128E7D0B22800F0A283B92800F0F4
S31500000700BB83BA2800F0BD83BC2800F0BD83BD289A
S3150000071000F0C583C12877D0C22800F08B80C3289B
S3150000072000F08580CE2800F01E83E828CBD0ED2887
S3150000073000F04183EE28C6D0FE2800F05182D4E3B3
S3150000074001A9684601F000FC00F00DFC31460020CE
S3150000075003F0B8FA00F0F7FBBDF80C0003F0EFF871
S315000007609DF80E0003F0DFF89DF80F0003F0DBF8AC
S315000007709DF8100003F0D7F8BDF8120003F0DFF87B
S315000007809DF8140003F0CFF8069804E308208DF8CE
S3150000079009000DF10A0103A801F0FCFB8DF8080021
S315000007A003AB0DF10A00019002AA0DF109000090B9
S315000007B0E2A142E200F0E4FB9DF8010001A901F08C
S315000007C0FAFB00F0D6FB00F0BEFB9DF80C0003F030
S315000007D0AAF8BDF80E0003F0B2F89DF8100003F079
S315000007E0A2F89DF8110003F09EF89DF8120079E337
S315000007F001AB0DF10102D2A100F0B2FB01999DF807
S31500000800010001F0DAFB2CE30DF1060200F084FB97
S315000008109DF8060001AA02A901F045FB8DF8050026
S3150000082002AB01A800900DF10502C6A105E201F098
S315000008303CFB57E301F03BFB54E30DF1150004903C
S315000008400DF11E030DF11600039006AA0DF1170017
S3150000085002900DF11A00019007A8009001200FF2F6
S315000008602C7103F02FFA9DF81500BDF81A30BDF86B
S315000008701C20BDF81E1002909DF8160001909DF8F0
S31500000880170000909DF8180003F0FAFA8DF814008E
S3150000089005AAE9E203F02EF8054603F02BF88DF8D9
S315000008A0000003F027F88DF8010003F04FF8ADF8CB
S315000008B0020003F01FF88DF804000DF10501082071
S315000008C003F01FF803F016F88DF80D006946284668
S315000008D002F022FD06E303F00DF802F01EFD01E32F
S315000008E003F03BFFBDE20DF1120304AA96A100F04E
S315000008F037FB06A803F076F803A8019003AB05A81A
S3150000090000900DF10F02494600F00CFB0DF10D00B1
S31500000910029006AA05989DF80F30BDF812100190B6
S315000009209DF80C0000909DF8100001F004FA2FE0ED
S315000009307600000075750000757570006200000095
S3150000094075700000750000000DF1120219460120B5
S3150000095003F0B8F906A803F045F803A802900DF1D4
S315000009600F0305A8019004AA03A800F0D9FA0DF117
S315000009700D00029006A905989DF80F309DF81020ED
S3150000098001909DF80C000090BDF8120001F0DCF912
S315000009908DF80E000DF10D030DF10E0234E107A8DE
S315000009A003F020F804A8039005AB06A802900DF109
S315000009B0150204A801900DF11300009001200FF21A
S315000009C0DC5103F07FF90DF11100029006989DF8B5
S315000009D013309DF814209DF8151001909DF8100015
S315000009E0009007A801F0BCF98DF812000DF1110373
S315000009F00DF1120208E10AA802F0F4FF06A805901C
S31500000A000DF11D0309A804900DF11E0206A803901E
S31500000A100DF11B00029007A8019008A80090012084
S31500000A200FF2805103F04EF90DF119000490099868
S31500000A30BDF820309DF81D209DF81E1003909DF8EE
S31500000A40180002909DF81B0001909DF81C00009074
S31500000A500AA801F0A0F98DF81A000DF119030DF19D
S31500000A601A02D1E00DF1190000900DF11A0307AA40
S31500000A70B5A100F057FA09A802F0B4FF05A8029044
S31500000A800DF1170308A8019006AA05A800F048FA78
S31500000A900DF11500049009AB08989DF81920BDF8D2
S31500000AA01A1003909DF8140002909DF8170001900B
S31500000AB09DF818000090BDF81C0001F091F98DF822
S31500000AC016000DF115030DF116029DE00DF106025B
S31500000AD01946012003F0F6F803A802F083FF00F0A0
S31500000AE024FA029B9DF80420BDF8060003A901F034
S31500000AF0ACF972E10DF1050000900DF1060302AAB2
S31500000B00DBA100F00FFA9DF805209DF80610BDF850
S31500000B10080003F05AFF12E100F019FAD5A100F01F
S31500000B2001FA039A9DF80810BDF80A0004F0C9F806
S31500000B308DF809000DF1090296E100BF7562760095
S31500000B4075770000757675007576000008208DF8BB
S31500000B5011008DF810000DF10E00029005A801900D
S31500000B600DF11100009008AB0FF240450DF10F0298
S31500000B7000F0D7F903A802900DF11200019006A823
S31500000B8000909DF80E30BDF814209DF80F0008A9BE
S31500000B9001F08FF98DF80D0006AB03A802900DF158
S31500000BA00D020DF112000190294604A8009044E0C0
S31500000BB000F0E6F99DF8010001A901F09FF900F0A7
S31500000BC0D8F901A802F025FF92E100F0D9F901A8B1
S31500000BD002F024FF9DF8010001A901F0A2F940E10D
S31500000BE000F0CEF99DF8010005F054F839E100F067
S31500000BF09CF902999DF8040001F0C2F8EDE0684600
S31500000C0005F02EFD00F0AFF93146002003F05AF84A
S31500000C106EE186208DF806000DF1050200F07CF9E4
S31500000C209DF8050002A901F0CBF98DF8040002AB8E
S31500000C300DF10600009001AAAFA1002003F042F8D2
S31500000C4056E16A4600F068F938786A289DF800008F
S31500000C5001A902D105F00EFD01E006F06EF88DF84F
S31500000C6001000DF1010200F087F9BDF8040002F061
S31500000C7066FE9DF8060002F056FE0DF107011020F3
S31500000C8002F07CFE069802F06AFE079802F067FE04
S31500000C909DF8200002F047FE0DF1210100F054F905
S31500000CA026E109A802F0EAFE00F051F9494600F0F3
S31500000CB039F904A80090039B9DF808209DF80A10B6
S31500000CC009A801F03DFE8DF809000DF1090200F0BA
S31500000CD053F904A802F0C9FE0AE108208DF80E00B7
S31500000CE08DF80D0007AB0DF10D00029004AA05A8C2
S31500000CF0019082A10DF10E00009000F013F9BDF8ED
S31500000D00100005AA07A906F0FEF98DF80C0003AA43
S31500000D10AAE008208DF8050002AB0DF10500009051
S31500000D200DF1060276A100F0FDF804A9102002F0EC
S31500000D30E8FDBDF8060004AA02A906F024FA8DF81B
S31500000D40040001AA90E000BF7676750000F0F5F881
S31500000D5000F005F903A9102002F0D3FD03A901A8AC
S31500000D6001F008FE7DE000F0E8F802208DF80000B2
S31500000D7000F0F5F803A901A801F004FE00F0F9F867
S31500000D8003A900F0E1F805A9102002F0F7FD099883
S31500000D9002F0E5FD0A9802F0E2FDA9E000F0C5F8D0
S31500000DA002999DF8040001F0AFFF8DF805000DF1E2
S31500000DB0050200F0E1F801F0C2FF02F0B4FD02F016
S31500000DC099FD00B1012001F066FF8BE000F0ADF85F
S31500000DD002999DF8040001F067FF8DF805000DF1FA
S31500000DE0050241E03A780FF2CC10002500E06D1CB8
S31500000DF0EDB2415D9142FAD102F07CFD0FF2CC11C9
S31500000E0051F8251088476DE002F074FD054602F0A2
S31500000E109DFD0146387830280CBF3D4A3D4A28469C
S31500000E20904765E06946102002F06BFD3878772818
S31500000E30684602D106F096FC54E006F09BF951E0B4
S31500000E4001A802F02BFE0DF101030DF102022DA106
S31500000E5000F086F89DF901209DF8021001A802F025
S31500000E6013F88DF800006A4600F086F840E000BFEF
S31500000E70767575007675700002F03CFD07F038F95E
S31500000E8030E007F040F92DE004A9684607F007F9BD
S31500000E90684602F032FE04A802F05DFE28E06846CD
S31500000EA002F041FE684607F002F921E008208DF8BD
S31500000EB0120006AB04A803900DF1110205A80290DA
S31500000EC011A104A801900DF11200009000F02AF87B
S31500000ED09DF8110000B10120059B9DF8102006A980
S31500000EE001F0D6FA02F01FFD02E007F04DF90446C4
S31500000EF0204624B0BDE8F087756200007662620085
S31500000F007662000075730000756270003FFF032073
S31500000F1037350000D7D900005146012002F0D2BE75
S31500000F2000902946012002F0CDBE01A8009002AB38
S31500000F3001AA4146012002F0C5BE08208DF8010035
S31500000F400DF10103704701A9082002F017BD02A8A0
S31500000F50019002AB03A800900DF10A02704701AAA6
S31500000F60012002F0AFBE8DF801006B460DF10102C3
S31500000F7070478DF800006A465146002002F0A2BE76
S31500000F800DF101025146012002F09CBE757676767F
S31500000F907575750075757570000000007575757549
S31500000FA070000000757576757575700075627675DA
S31500000FB000000000181D207A2A84858687888B8A7F
S31500000FC08D959A2E5BB1A4A122E8EE00FFC5000024
S31500000FD0C9550100CDF800001B6A01005D3800000C
S31500000FE0613D0100E13D0100F73D01000B3E0100BE
S31500000FF0273E0100AF3E0100993E0100DD3E0100A3
S31500001000DD8E00004D6400003148010035480100C6
S31500001010836F000025940100339401007550000091
S315000010203D3F01004B3F010038B5044620780028BB
S3150000103046D16070012020722070A078032832D03B
S31500001040072834D0112808D0152833D0302818D0D6
S31500001050312819D032281AD030E00720DFF8645B37
S31500001060207204F10900298807F01EFCA878E072B6
S31500001070E8782073287960736879A073A879E0739B
S3150000108031BD07F037FC17E007F014FD14E004202B
S31500001090207207F037FC04F10901BDE8384002462A
S315000010A0012007F005BCDFF8200B007804E007F00C
S315000010B0D5FD01E008F090FC607231BD0020207083
S315000010C031BD38B504462078002869D1012020704A
S315000010D0A078042814D007281FD00E2825D0112860
S315000010E059D0152841D0172844D018284CD0192893
S315000010F04DD0302833D031281FD0322823D04DE0B0
S31500001100207A01282FD1607A00B10120DFF8BC1ABD
S315000011100870002009F09AF83BE0607A10B107F0F9
S315000011206BFD39E007F07AFD36E0607A00B1012008
S3150000113007F0C3FC00282FD015E0607A00B101202B
S3150000114007F091FC0EE0207A04280CD104F1090185
S31500001150012007F0BBFB07F0D8FBE8B103E0607A9B
S3150000116007F0CAFBC0B1362016E094F9090008F072
S3150000117000FC0EE0657A04F10A0007F08EFB0146DA
S31500001180284609F038F904E009F030F901E009F0E1
S3150000119020F9002000E03720607031BD002020706B
S315000011A031BD10B50446DFF8280A007921785628A3
S315000011B00CBF0120002001BBA1706178072910D166
S315000011C030B109F071F9012814BF632062200EE0E6
S315000011D0E07862280CBF0120002009F068F9A070B1
S315000011E009E0042909D1DFF8EC1910B10878E0709C
S315000011F001E0E07808700120207010BD017809BB7D
S31500001200817001210170417801290ED00C2909D085
S3150000121017290DD02D2902D034290CD010E0DFF883
S31500001220B8190AE0DFF8B41907E0DFF8B41904E0EA
S31500001230DFF8B01901E0DFF8B0190978818070474E
S3150000124000210170704738B50446207800285AD12D
S31500001250012020700020A0706078012815D00C288D
S315000012600FD017283DD02D2802D0342844D048E08E
S31500001270A18803293DDAC9B2DFF85C0909F086FACC
S3150000128038E0A088DFF8541939E0DFF860090088F3
S3150000129028BBA08818B3DFF85859287809F0B2FCA3
S315000012A008F0DCFE80B1A188DFF83409C9B209F084
S315000012B06DFAA07008F0DCFEDFF83809DFF838199F
S315000012C00068401D086001E03820A070012009F088
S315000012D02EFC28700020DFF82419088031BD382044
S315000012E008E0A08807F04BFD18B9A088DFF8F418CD
S315000012F005E03620A07031BDA088DFF8EC18087034
S3150000130031BD0020207031BD80B501208DF8000070
S315000013106846FFF741F99DF8000002BD2DE9F04F40
S31500001320A7B008F0E2FE08F0FDFEDFF8C888044624
S31500001330D8F80000817800270225FF294FF003091D
S315000013402DD1C1780679042511F03F004FF005092B
S3150000135018BF492723D108060AD509F08FFF28B1FF
S3150000136009F090FF123C0746E4B218E0482716E061
S3150000137009F08BFF002818BFCB2E0AD0CA2E18BF43
S31500001380CC2E06D0CD2E18BF002E02D0AA2E18BF06
S31500001390482709F073FF00281CBFCC2E4A27D8F82F
S315000013A00000465D90F801A0DFF824580AF003011A
S315000013B08DF808102E71017869704844DFF84018DE
S315000013C00860DFF8341808604FEA5A1000F003008E
S315000013D068710AF020F8380018BF582604D15FEA71
S315000013E00A6002D5582632208AE2A87820B92879E0
S315000013F010B15826302083E20AF0F0FA10B95826C8
S3150000140042207DE2FFF780FF002800F07B822879EA
S31500001410A978DFF8F0B7020095A70FF2582A4FF621
S31500001420FF7975D0012800F0FA81022800F0AD801E
S31500001430032800F0FF80052834D0062800F04D81EF
S31500001440092818BF0A2800F050810B2818BF0C285D
S3150000145000F052810E2800F06681122800F0AB8160
S31500001460132800F0E181172800F0F181262800F00A
S31500001470E181272800F0E681472800F0D881492835
S3150000148000F041814E2800F07581522855D053282E
S315000014906AD0552800F09180562800F0A58065286E
S315000014A02AD0812800F00E818F2800F0FD81912836
S315000014B000F01582942800F004829D2800F0AA818D
S315000014C0AA2800F0AD80AB2800F0D680AC2800F04A
S315000014D0E880AD2800F0E880AE2800F0E880CA2851
S315000014E000F0BF81CB2800F0C581CC2800F0D08168
S315000014F0CD2800F0D081F12800F07981F52800F0A0
S31500001500D980F62800F0DB80FC2800F0A781F2E104
S3150000151002F0F0F90446062002F005FA022002F075
S3150000152002FA4FF4C24002F00AFAA878002808BF6F
S31500001530062C01D10120A870E4E100F013FA02F0B4
S31500001540D9F98DF801006846FEF7FFFF9DF8000007
S3150000155028B937208DF802000020ADF8040001AB51
S315000015600DF10202B6A157E0012918BF382023D198
S3150000157000F0F8F901AB0DF10102B1A1012002F072
S31500001580A1FB6846FEF7ECFF25E03827012912D1BA
S31500001590611FC9B2052008F0B1FD0446FF2C08BF43
S315000015A0352708D00AF02CFA002814BF0027362762
S315000015B0204609F027FB3846A2E1042200F0D3F9C1
S315000015C00DF103030DF101023946012002F07AFB09
S315000015D06846FEF7A8FF9DF8000010B937208DF881
S315000015E002009DF802008BE1042200F0BCF902F033
S315000015F081F98DF801006846FEF793FF9DF800001B
S3150000160028B937208DF8020000208DF803000DF16F
S3150000161003030DF102023946002002F053FB71E18B
S3150000162000F09BF902F066F98DF80E0003A8FEF7AC
S3150000163055FF0BE000F091F904AB0DF10E02C0A1CD
S31500001640012002F03FFB03A8FEF757FF9DF80C00B0
S3150000165028B937208DF80D0000208DF8140000F011
S3150000166075F90DF10D025146002002F02BFB49E100
S31500001670757500007575620000F06FF900F066F987
S315000016800DF10E025146012002F01CFB03A8FEF7E5
S3150000169036FF9DF80C0000280CBF37209DF80D0082
S315000016A02EE10AF0C1FA2DE10AF0BFFA2AE10AF0AA
S315000016B0C0FA27E102F04AF90AF0BFFA22E10AF07D
S315000016C0E3FAC1E0062CF9DBDFF82C05DFF8281574
S315000016D000680019401F086014E1012000F047F976
S315000016E0002840F02A8107260CE109280CBF0120BA
S315000016F0002002F0D7F805E10C280CBF01200020DD
S3150000170000F0E4F9FEE00121684607F0CFFA28B1BF
S31500001710002002F008F9BDF8000095E0362002F03E
S3150000172002F9002090E002F0E5F8824602F00EF998
S31500001730814602F0DFF8074602F0DCF80446B9F508
S31500001740004FB4BF042F702011DABAF1020F0FDA7E
S315000017500BEBCA0A3A46DAF8000049460AF0C0FA24
S31500001760AAF8049004B900278AF806700020C7E09A
S315000017707020C5E002F0BEF8814600240020B9F1D1
S31500001780020FADF802008DF800000BDA5BF83900A5
S315000017906A460DF102010AF0B3FA0BEBC900807933
S315000017A000B10124BDF8020002F0C9F89DF800005E
S315000017B002F0B9F883E002F09DF8040018BF012496
S315000017C000200AF0CFFA07463A46FF2A08BF18203B
S315000017D029D0002C14BF48460220BBA10AF010FBFA
S315000017E0002002F0A0F8384609F00CFA8AE04FF023
S315000017F00009DFF8144434F8190002F0A0F809F1E2
S315000018000109B9F1280FF6DB287965287AD108F0A5
S31500001810E0FD77E002F09AF808F0FBFC72E002F0D7
S3150000182069F80AF03DFC6BE00AF0E7F86AE00AF0B6
S31500001830DBF867E0DFF8D413082002F09FF861E0D8
S31500001840757600000AF0C4FD02F079F85AE06846A1
S3150000185002F01DF9684603F02DFD51E00AF054FF31
S315000018604EE000F06FF802F081F8014603A80AF096
S3150000187065FF45E002F03EF8044607A900F063F86C
S3150000188003AA07A920460AF05BFF02F04CF821E004
S315000018900AF058FF34E068460AF056FF02F043F8B3
S315000018A0009802F05CF82DE00AF05FFF012448453D
S315000018B005D002F01FF8DFF8581300240870204600
S315000018C01EE000F03FF807A900F03DF807A903A8BD
S315000018D00AF0A7FF03A9102002F050F812E00AF060
S315000018E044FF02F02CF8042002F01DF8182002F044
S315000018F01AF80F2004E0FEF75DFE18B958263120CD
S3150000190002F011F8D8F8001068780870D8F80000CE
S315000019108178002902BF29780029867004D0FF212A
S315000019208170D8F800000671072E0CBF0122002234
S315000019309DF80800012100F02AF827B0BDE8F08FD5
S315000019407577000003A9102001F0DBBF05A8019000
S3150000195005AB0DF11500009070478C22002103A8FD
S315000019600AF0D3BF0622002168460AF0CEBF10B5A2
S3150000197004469E48008848B108F0DFFB30B1A54810
S3150000198000780122214600F002F8012010BD2DE961
S31500001990F84F984F04463868884681789346022562
S315000019A04FF00309FF299449096804BF04254FF045
S315000019B005090E1A09F062FC0028B6B21EBF386887
S315000019C0405DCC281CBF1236B6B25FEA0B0004D0CD
S315000019D038684078C0F3411A02E009F018FD8246E3
S315000019E07D4909788A4505D340F229410FF2302016
S315000019F00AF0B4FF4FEA4A1040F08000DD2E5FFA8D
S31500001A0080FA05DBDC2008F093FB4AF0020A02E0CC
S31500001A10F0B208F08DFB6E48C17819B100214AF08A
S31500001A20020AC1707C490A781AB100224AF0010AFA
S31500001A300A706E4E318809B14AF0040ABBF1000FF4
S31500001A4006D05FEA080114BF4AF0080A4AF0100AF5
S31500001A50396881F801A03968897811B901210170C6
S31500001A600FE009F00BFC00281EBF3868415DCC2949
S31500001A7004D08021C17009F003FC02E0396800201F
S31500001A80C87009F002FC48B13868415DCB2901BF36
S31500001A9010F809000028022009F0F6FB012C308816
S31500001AA05C4A18BF022C05D108B9147004E0002066
S31500001AB0107004E0147010B9002008F0C7FB40460F
S31500001AC0BDE8F24F08F002BB620000002DE9F041CC
S31500001AD098B0044601F00EFF0546062D12D1DCB97A
S31500001AE0282001F020FF4D4801880223224668463F
S31500001AF00BF045F8BDF8000001F021FF641C142C22
S31500001B00F1DB5BE0082D01D00B2D01D124B952E0A9
S31500001B10200003D0092D01D170204DE000260FF2E0
S31500001B20141000EBC6073878854230D197F801804B
S31500001B30200004BF404601F0F6FE7868018843465F
S31500001B40002201A80BF01BF8200027D001F0D2FEDE
S31500001B5097F80180404501D002202DE0002000E0EA
S31500001B60401CC1B2414501A905D2C0B2095CFF299A
S31500001B70F6D0462020E0404601F0C3FE7868008893
S31500001B80424601A90BF0D3F8002001F0CCFE761CEA
S31500001B90F6B20B2EC3D374B1B1200DE0092D05D1D9
S31500001BA0152200210DF14A000AF0AFFE787801A94E
S31500001BB001F0E4FE02E0002001F0B5FE18B0BDE839
S31500001BC0F081000060BB0200B6EB032042FF032059
S31500001BD03BFF0320D2EB0320BDEB032037FF03209E
S31500001BE0B5EB032041FF0320BFEB03200EFF0320CC
S31500001BF0E7EB0320D4ED0320E4F5032076FA032077
S31500001C00E0F50320F8EA0320B8F80320B0F8032033
S31500001C10E9EB03204FFF03200CFF03203CBE02002C
S31500001C20636F6D6D616E642D68616E646C65727351
S31500001C302E6300000110000034BE020002100000F6
S31500001C4036BE02000302000038BE02000510000086
S31500001C5046BE02000708000042BE02000002000065
S31500001C6030BE0200040200003ABE0200095C000019
S31500001C7048BE02000A1400004ABE02000D0200001F
S31500001C8044BE02000C08000032BE02002DE9F84FE7
S31500001C9080460D46DFF8900B0A99067801247E29C6
S31500001CA091469A46A8BF742043DA080003D00B98E1
S31500001CB009F02BF801E000F0C5F883460C9FBBF154
S31500001CC0FF0F03D100201824387031E0342E06D0DF
S31500001CD0362E0ED0382E13D0962E18D01AE05B462C
S31500001CE04A462946404602F05FFA044602F09EFF45
S31500001CF010E05B4642464946284602F0B5FA08E03F
S31500001D005B46EAB24146484602F029FB01E00BF089
S31500001D10CDFC0446962E1CBF99F80A00387024B9EB
S31500001D20DFF8080B006800F80BA0584608F06AFFB9
S31500001D302046BDE8F28F10B584B0089C0294079C3B
S31500001D400194069C009407E010B584B00446104642
S31500001D5000F00FF80A462146FFF798FF04B010BDC1
S31500001D6010B5044684B00846114600F002F8224633
S31500001D70F2E7089A0292079A0192069A0092704731
S31500001D80E0B500220191009002920023002100207C
S31500001D90FFF77CFF0EBD2DE9F04683B00D460C998A
S31500001DA00746080091469A4603D00D9808F0ADFF05
S31500001DB001E000F047F804460E9EFF2C03D10020F8
S31500001DC0182530700BE00A980190CDF800A0234644
S31500001DD04A462946384602F0A7FA00F027F822E0DC
S31500001DE02DE9F04683B089460C99054608009246CF
S31500001DF01F4603D00D9808F088FF01E000F022F896
S31500001E0004460E9EFF2C03D10020182530700AE0F0
S31500001E100A98009001943B4652464946284602F0ED
S31500001E2045FA00F003F82846BDE8FE860500B87AB4
S31500001E30307004D1DFF8F41909680B98085520466C
S31500001E4008F0E0BE002008F03FBF38B5DFF8E049F3
S31500001E502080C888440606D5DFF8D8492478202C87
S31500001E6003D1000401D4702032BDDFF8CC49100044
S31500001E70216004D01146184608F047FF01E0FFF73D
S31500001E80E1FF0546FF2D08BF18240AD020684088C8
S31500001E90294602F069FC044602F0C8FE284608F00E
S31500001EA0B1FE204632BD02F041BE0BF03DBD0BF047
S31500001EB037BD2DE9F041069F0D4604461646984665
S31500001EC039460BF0B4FD20460BF0C9FD0799088092
S31500001ED038460BF0D3FE08990870294620460BF0C9
S31500001EE03CFD074638B9314620460BF074FD4146A5
S31500001EF028460BF0E1FE3846BDE8F081DFF83C39B4
S31500001F001B78984201D370207047DFF83429126895
S31500001F1032F820300B8002EB800080788870002039
S31500001F207047DFF818391B78984201D37020704744
S31500001F30DFF80C2912680B8822F8203002EB8000AB
S31500001F40897881700020704730B585B00C4604F062
S31500001F50A3FA0546002020731023072269460120B4
S31500001F6006F0D1FD082202A920460AF08BFCBDF836
S31500001F700000208104F114019DF80200A0729DF872
S31500001F800300E07204F110000BF0F0FEE08105B0F2
S31500001F90284630BD38B504460D460AF0EFFA01462C
S31500001FA0082220460AF06EFC0AF0E4FA2880DFF8E0
S31500001FB09408007832BD0CF0A4BAFF2203F0F6B9FB
S31500001FC070B588B00D460446694604F04FFB06001E
S31500001FD004D12A466946204601F059FE304608B02B
S31500001FE070BD10B504462078002841D1012020722A
S31500001FF02070A078401E0BD0401E07D0801F07D04F
S31500002000401F05D0401F022802D903E0022020729B
S3150000201000206070A07801280CD0022814D008286F
S315000020200CD00D280DD0122817D0132817D014283D
S3150000203018D01BE0DFF81008007815E002F014FF56
S3150000204012E00DF0E6F80FE0DFF80008018804F171
S315000020500900BDE8104006F027BCFF2004E003F0AD
S315000020609FF901E00DF05EFA607210BD002020704D
S3150000207010BD10B5044682B0207858BB01202070F0
S3150000208000206070A07818B1022819D00BD31FE089
S3150000209061686A46C9B209F019FD607002202072B3
S315000020A004F1090007E00320207268460DF005FCE4
S315000020B0607204F10A00BDF8001006F0F5FB13BDCE
S315000020C001202072606880B202F040FD607213BD8C
S315000020D00020207013BDF0B5044685B02078002896
S315000020E040F0DE8001202070A078010026D0012873
S315000020F048D002284DD0052818BF062851D00828F8
S3150000210000F0BF8009285AD00A287DD00B2800F09D
S3150000211080800C2800F089800F2800F08A80232810
S3150000212018BF242800F09280252800F0A0802928D6
S3150000213000F0A980342800F0A880AFE0207A1028AB
S3150000214060D100F0AFF8ADF80400082294F90B0056
S315000021508DF8060004F11001207B8DF80700607BE6
S315000021608DF80800A07B8DF80900E07BADF80A0029
S3150000217003A80AF087FB1023072201A9002006F016
S31500002180C2FC88E0207A01283CD1607ADFF8B816D4
S3150000219080E0207A022835D100F084F8DFF8AC160A
S315000021A00BE0207A02282DD100F07CF8A1780529D1
S315000021B00CBFDFF89C16DFF89C1608806BE0DFF892
S315000021C098060568207A46080DB9DEB963E0DFF89F
S315000021D08C060078B04215DB002707E004EB4700C9
S315000021E0093006F05AFB25F817007F1CB742F5DBCD
S315000021F04FF4004725F8167028460DF09EFD00287E
S315000022004AD02F80362047E000F04CF80DF07DFFD5
S3150000221041E0DFF84C060068407B20B900F042F848
S315000022200AF0DAF837E0382036E0607ADFF834165C
S3150000223030E0657A04F10A0006F02FFBADF80000E5
S315000022406A462946012009F041FC25E0217A042945
S3150000225012D123280CBF0325012504F10901012011
S3150000226006F034FB014628460EF0CEFD14E0607AF7
S31500002270032818BF042801D002200DE003F0DCFF7C
S3150000228009E0372008E0702006E0607A00B10120FE
S31500002290DFF8D41508700020607001E0002020707F
S315000022A005B0F0BD04F1090006F0F7BA10B5044612
S315000022B0DFF874050078217856280CBF012000202D
S315000022C009BBA170DFF86C256178032905D108B137
S315000022D050780FE0E078507013E0022905D108B17C
S315000022E0107807E0E07810700BE009290BD118B1DF
S315000022F004F07AF9E07004E0E07800B1012004F01F
S3150000230065F90120207010BD017801B1704730B524
S315000023108170012101704178052908D0122915D054
S3150000232018290CD01F2914D0382915D018E0DFF849
S315000023303C15DFF83C2509781278891A24E0DFF885
S3150000234034150A78511E8941C90F1DE0DFF828159A
S3150000235004E0DFF8281501E0DFF82415098813E00A
S3150000236000220FF2585300E0521CD2B214461D5DF3
S31500002370FF2D02D10021017030BD8D42F4D10FF244
S31500002380585151F824100978818030BD70B5044643
S31500002390207800287BD10120207000206278A07070
S315000023A0052A0AD0122A2CD0182A1FD0192A04D09E
S315000023B01F2A22D0382A2FD033E0DFF8B40405785C
S315000023C0DFF8A80401784E1BA188052A0CBF0E462B
S315000023D00D46A919C9B208F0D9F90028A07056D13E
S315000023E0E9B2F0B2BDE870400EF076BFA188481E93
S315000023F08041C00FDFF87C143FE0A088DFF87C1432
S315000024000DE0A18847F231508142A8BF36203BDA61
S31500002410DFF86404018070BDA088DFF864140880CA
S3150000242070BD0FF2984100E0401CC0B20346CD5C7F
S31500002430FF2D02D10020207070BD9542F4D1A188F5
S31500002440022B08DADFF83C0450F8230000788842B3
S3150000245038BF362018D30FF2804050F82300092BDE
S315000024600DDAC9B208F092F9A070002804BF6078AE
S3150000247011280CD1A088DFF81014087070BD342A1A
S3150000248004D1C9B208F082F9A07070BD017070BDA8
S31500002490F8B504460D461146184608F036FC1826CF
S315000024A00746FF2F08D03A46294620460FF068FA1D
S315000024B00646384608F0A6FB3046F2BD38B5044657
S315000024C00D462188284606F0EFF96188A81C06F01B
S315000024D0EBF92079287160796871A81DE18806F00A
S315000024E0E3F9218905F1080006F0DEF9A07AA87261
S315000024F031BD10B586B004461B208DF80000A078CB
S315000025008DF801000DF10200218806F0CDF90822B0
S31500002510211D01A80AF0B6F9E1788DF80C10217B8F
S315000025208DF80D10607B8DF80E000DF10F0000F098
S31500002530BCF9112100F01FF906B010BD80B51C22B0
S315000025408DF801008DF802108DF80020D9E02DE9F4
S31500002550F04788B007460D4614460FF087FA8246C4
S3150000256022462946384609F03DFA002863D10DF186
S3150000257009000FF083FA30B962208DF808000921AE
S3150000258002A80FF0E4FAFF2C0FBF0026BF49096826
S315000025900E5D45208DF808008DF809700DF10A01D1
S315000025A02846FFF78BFF0DF1150000F07EF9514626
S315000025B00DF1170006F078F902F0FBF88DF8190016
S315000025C00027B348DFF8A8820568DFF8A09201E08B
S315000025D07F1C0C3599F8000098F80010FFB2401ADD
S315000025E087420ADA28885045F2D108F038FFA97ADE
S315000025F0C1F342018142EBD100E0FF278DF81A704A
S315000026008DF81B60504602F0A1FA8DF8040000B167
S315000026100120009001AB2246142102A80FF09FFA78
S3150000262000281EBF83480078212804D199480178E4
S3150000263041F00401017008B0BDE8F0872DE9F043D0
S315000026400746924800681D4687B0465D0E9C884640
S3150000265091462146384601F0F2FB3F208DF80400F2
S315000026608DF8057041460DF1060006F01DF902A928
S315000026704846FFF723FF6D480068405D8DF813005C
S315000026808DF8144084480078402804BF0026FF25B2
S31500002690002000908DF8156000232A46122101A81B
S315000026A00FF05DFA07B0BDE8F08330B589B00D468E
S315000026B0044604A90BF025FF23208DF800008DF8B1
S315000026C001408DF802500DF10300BDF81A1006F016
S315000026D0EBF8082204A90DF105000AF0D3F89DF8DD
S315000026E018008DF80D000E2100F045F809B030BD38
S315000026F080B57C218DF8001001460DF1010006F031
S31500002700D3F8032168460FF022FA01BD70B586B0F2
S3150000271004467D208DF800000D46164621460DF133
S31500002720010006F0C1F8082229460DF103000AF05F
S31500002730A9F88DF80B600C2100F01DF803A80FF026
S315000027409DF918B903A920460EF0CCFD06B070BD60
S3150000275038B504460D4601F051FB80208DF8000087
S315000027608DF8014029460DF1020006F09DF804217E
S3150000277000F001F831BD68460FF0E9B910B584B034
S31500002780044646208DF8040001A82178417061783E
S3150000279081700DF1070000F088F83C48A1780068C8
S315000027A0405C8DF809000023002000900621A278E5
S315000027B001A80FF0D4F91FBD80B598208DF8000050
S315000027C08DF80110684602219DE71FB50C4692213F
S315000027D08DF80410082201460DF105000AF052F8A2
S315000027E00DF10D0000F061F828480068005D8DF8D5
S315000027F00F0000230020009022460C21D8E7234A30
S3150000280000B5126883B0125C8DF8051093238DF81D
S31500002810062000218DF80430009102460023032192
S3150000282001A80FF09CF907BD3FFF032054FA0320CF
S3150000283016FB0320D9EB032018FB0320BBEB032078
S31500002840F4E8032010FF032057FF0320AEEB03201C
S31500002850A6EB0320A8EB03203CFB032050FA032041
S315000028603CFA032004FF0320F2EB0320C3EB032012
S31500002870B5FE0320B7EB032094EB032090EB032077
S31500002880A0EB032088EA0320C8EB0320C4E803205A
S3150000289028E9032014FB0320D2EB032080B50BF0BC
S315000028A04FF8BDE801400FF091BA10B504460FF09D
S315000028B0D6F8601CBDE810400FF0D3B8110203062D
S315000028C007081A2B2C1910131B14151C1D20212266
S315000028D02A2E33343537FF00B8EB0320BEEB032036
S315000028E0C4EB0320BBEB0320B9EB0320BAEB0320B8
S315000028F030FF0320BCEB032050FA0320B5FE032073
S31500002900C9EB0320CBEB0320CCEB0320CAEB03205F
S3150000291038FF0320C5EB032032FF0320E9EA03203A
S31500002920CDEB0320CEEB032036FF03203AFF032036
S31500002930F3EB0320BFEB03205FFA0320F0EB032049
S3150000294038B504460029104601461A46204602D0EC
S3150000295010F07DFE01E010F04BFE0546002C1EBF78
S3150000296004980028A04203D02146142210F0DCFE71
S31500002970284632BD0246022000291CBF104610F030
S31500002980FFBE70470246022000291CBF104610F009
S315000029908ABF70471CB504460020ADF800002078B9
S315000029A0F8B902202072A0780A280AD0102810D17F
S315000029B001A811F060F96070BDF80400ADF80000E0
S315000029C004E00020607068460DF0B8FB012020701E
S315000029D001E0207828B1BDF8001004F1090005F0E7
S315000029E063FF13BD38B504462078002804BFA078DD
S315000029F0102812D104F10901012005F067FF0546F0
S31500002A0004F10D0005F049FFADF8000069462846BF
S31500002A1011F006F960700120207031BD7449097803
S31500002A20027856290CBF012100212ABB827001229F
S31500002A3002704278130006D16E4A09B1117811E08E
S31500002A40C07810707047052A05D16B4A61B11178BC
S31500002A5041F0500106E0062A0CD1684A21B11178EE
S31500002A6041F06001C1707047C17801F00F01C1707B
S31500002A701170704700210170704710B50446207828
S31500002A80B8B900F045F806D01E2807D0242807D08C
S31500002A90362808D00BE009F075FD06E0584800E03E
S31500002AA05848007801E058480088A08010BD0020F2
S31500002AB0207010BD10B50446207840BB00F028F801
S31500002AC006D01E280AD0242812D0362819D01CE099
S31500002AD0A088BDE81040C0B209F058BD4B48A18897
S31500002AE0007888420AD3C9B2454807F04FFE06E08F
S31500002AF0A1880B2902DA4348017010BD3620A07068
S31500002B0010BDA0884049088010BD0020207010BD6F
S31500002B10012020700020A07060780D28704700000A
S31500002B202DE9F04F1646012E89B0804689469A4611
S31500002B3012D10124002506A80DF00AFB022755EA4A
S31500002B400401DFF8B0B005D058B9BDF81800800709
S31500002B5007D535B1032715E00024032EEAD1012558
S31500002B60E9E79BF8000005280AD8DFE800F003062D
S31500002B700509083D012705E065B1002702E0274663
S31500002B80022F07D009F024FC824503D05146404667
S31500002B900AF09DFE019753469BF8000000903246CE
S31500002BA049464046FDF701FD044624208DF80800FD
S31500002BB041460DF1090005F077FE082249460DF160
S31500002BC00B0009F05FFE8DF813608DF81440514636
S31500002BD00DF1150005F068FE0F2102A80EF0B7FFF3
S31500002BE0204609B0BDE8F08F002DC6D0B2E7000040
S31500002BF03FFF0320D6EB032034FF0320C6EB032060
S31500002C0033FF032039FF032092EB032052BE02005C
S31500002C1080B56E218DF800108DF8010002216846FE
S31500002C200EF095FF01BD10B584B00C469B218DF8C2
S31500002C300010082201460DF1010009F023FE8DF86F
S31500002C4009400A2168460EF082FF1FBDF0B583B029
S31500002C5010F8014B0E461746214608F056F8054671
S31500002C60FF2D03D10E4901200870F7BD8E208DF887
S31500002C7004008DF80560002000908DF806708DF830
S31500002C80074000232A46042101A80EF068FF2846C3
S31500002C9007F0B8FFF7BD00B1024811F02DB80000EB
S31500002CA00CFF03204D2C000000B58028A1B0A8BF62
S31500002CB002200ADA8DF8000002460DF1010009F043
S31500002CC0E1FD0021684611F0BBF821B000BD10B54A
S31500002CD004462078002804BFA07833280FD10120AD
S31500002CE0207009B1002004E0607A11F0F9F800B113
S31500002CF0362060700120207211F002F9607210BD5A
S31500002D000121E4E70021E2E730B58BB004460D4629
S31500002D102A22FF21684609F0F8FD2146284607F0D9
S31500002D20F4FF0446FF2C08BF182505D011F0FEF865
S31500002D300546204607F066FF28460BB030BD10B5A5
S31500002D404E4C2178FF29A8B008BF702020D0002063
S31500002D5000904A2300220AA807F0F3FF0020009003
S31500002D60252321784A221DA807F0EBFF00200090BA
S31500002D70242321786F2201A807F0E3FF207807F0CB
S31500002D8041FFFF20207001AA0AA91DA811F0DBF857
S31500002D9028B010BDF8B5394F04463878FF280D46DF
S31500002DA0164608D19321002007F0AFFFFF283870A0
S31500002DB001D13520F2BD01200090334639782A46EC
S31500002DC0204607F0BEFF0020F2BD10B50446A6B0AF
S31500002DD0207860BB01202070A0781A2804D024D364
S31500002DE01C2815D00AD320E04A2204F1090113A8B1
S31500002DF009F048FD4A22002113A812E0252204F119
S31500002E00090109A809F03EFD25224A2109A808E082
S31500002E10242204F10901684609F034FD24226F21B9
S31500002E206846FFF7B7FF607001E00020207026B00B
S31500002E3010BD0178002904BF417829290CD1104919
S31500002E400978522904D10F4909788180002100E0D0
S31500002E503821817001210170704710B5074C207828
S31500002E60FF281FBF06490978AB29ED2903D007F0D3
S31500002E70C9FEFF20207010BD00000000D8EB032023
S31500002E803FFF032035FF032011B1012903D004E0E1
S31500002E90114604F0F0BC04F039BD0220704710B5AD
S31500002EA004462078002804BF607808280ED114480C
S31500002EB00078562803D105F03DF9E07002E0E0788D
S31500002EC005F03BF90020A0700120207010BD0178AC
S31500002ED0A1B941782F2908BF0A4902D030290DD15E
S31500002EE0094959B1064A1278522A07BF09788180E2
S31500002EF082880A70002181700121017070470000EC
S31500002F003FFF0320D0EB0320D1EB032030B58FB079
S31500002F1005460C463B220021684609F0F6FCB62021
S31500002F208DF800000DF10101284600F076F8DCB1BD
S31500002F3000218DF82910082221460DF12A0009F0FA
S31500002F40A1FC0DF12905207A68720DF13300618923
S31500002F5005F0AAFCA1890DF1350005F0A5FCA07BC2
S31500002F60A873E07BE87302E001218DF829100DF1CA
S31500002F703900FFF79AFC3B2100F00CF80FB030BD8A
S31500002F8080B5B7218DF800108DF80100022100F000
S31500002F9001F801BD68460EF0DABD10B586B00446EC
S31500002FA0B8208DF800000DF10100218805F07CFCA9
S31500002FB061880DF1030005F077FCA1880DF105008D
S31500002FC005F072FCE1880DF1070005F06DFC218922
S31500002FD00DF1090005F068FC61890DF10B0005F0A3
S31500002FE063FCA1890DF10D0005F05EFC0DF10F00EB
S31500002FF0FFF75BFC1121FFF7CDFF06B010BD00B552
S315000030008BB0BB218DF800100DF1010100F005F821
S315000030102921FFF7BFFF0BB000BD38B504460D46AA
S31500003020A0782870681C218805F03EFC0822211D26
S31500003030E81C09F027FCE078E87205F10E01207B18
S315000030402873607B68730120226905F031FC626990
S3150000305005F11201012005F02BFC218B05F116006C
S3150000306005F022FC082204F11C0105F1180009F004
S3150000307009FCA18C05F1200005F016FCE18C05F198
S31500003080220005F011FC04F1280105F124000A785C
S3150000309002704A7842708A788270C978C17031BDF0
S315000030A0F8B5BA4D0446286800792B38022801D9AC
S315000030B00D382ED100F01EFC06462868B449401D86
S315000030C00860002131200EF00AFE05464FF6FF7714
S315000030D00BE005F10D0080B20EF02EFDB04213D0CC
S315000030E0294631200EF0FBFD0546BD42F1D10021F7
S315000030F000E0294632200EF0F2FD0546BD4208D01A
S315000031000EF01AFDB042F4D1A42000F00CFC002011
S315000031102070F1BD38B50446002100E029463F2065
S315000031200EF0DDFD05464FF6FF7085420CD02846B1
S315000031300EF002FD0228F1D1681C80B20EF0FCFCF4
S31500003140A042EBD1012032BD002032BD2DE9F8436B
S315000031508046002145200EF0C2FD4FF000090446CE
S315000031608C4D4FF6FF7609E0FF21B8B20EF0E9FC70
S31500003170A1B245200EF0B3FDA1460446B44224D0C8
S3150000318004F11007B8B20EF0D7FC4045F0D1204646
S315000031900EF0D2FC022818BF0328E5D1A41FA0B266
S315000031A00EF0CAFC01462888401A32187A482A804E
S315000031B00919121B92B2007800924B1C9BB2024670
S315000031C0A1B207F0B6FF4C46D2E7BDE8F183F0B5F1
S315000031D0724F3D788BB0064608F041F908F01BF9AE
S315000031E000F079F806D012282FD17188707808F08F
S315000031F0B0FC50B3707804A908F04AFC88B1BDF859
S31500003200100040F20911884204BF7088B0F5006FC3
S3150000321007D1701D10F0A2FEB52802D0A8B900246F
S3150000322013E00124002500E06D1C3978E8B28842DD
S315000032300BD206A900F097F99DF818000028F3D1E3
S315000032403146E8B200F09AF9044631208DF80000C4
S3150000325030788DF8010070788DF802000DF10300CA
S31500003260718805F021FB30798DF805000822711D63
S315000032700DF1060009F006FB8DF80E508DF80F4093
S31500003280102168460EF063FC20460BB0F0BD38B541
S31500003290054608F0E4F808F0BEF800F01CF80DD179
S315000032A02846FFF737FF08B1752407E0284600F0E7
S315000032B0B0F9040004BF2846FFF748FF32208DF816
S315000032C000008DF801508DF80240032168460EF08B
S315000032D03EFC204632BD324800786C2411287047E7
S315000032E038B504460D46FFF715FF08B1752511E000
S315000032F03DB108F08CF868732946204600F03EF987
S3150000330002E0204600F085F90546280004BF204665
S31500003310FFF71CFF284632BDE2E70021E0E721491E
S315000033200978027856290CBF01210021002A04BF22
S315000033304278012A0AD11A4A002919BF1178C170A8
S31500003340C17811700021817001210170704710B59C
S3150000335004462078002804BF6078042814D1114957
S315000033600E480978522903D10078A080002008E091
S315000033700D4AA18812788A4232BF3620C9B207F0B8
S3150000338005FAA0700120207010BD0000D4ED0320C6
S31500003390E0F503200EFF0320E7EB032031FF0320B7
S315000033A0D7EB03203FFF032050BE02001FB50C469B
S315000033B002460D231521684609F0E1FB0D226946F8
S315000033C0204609F05FFA207840096073207800F003
S315000033D01F0020701FBD30B585B004460D460D2276
S315000033E0684609F04FFA9DF80000697B40EA4110F3
S315000033F08DF800000D236A462146152009F000FCD1
S3150000340005B030BD2DE9FF41044600F05FF814E039
S315000034103068EDB2A84630F81800A0420CD16946D3
S31500003420284600F0A0F89DF80000022804D0316874
S315000034304FF6FD7021F818006D1CE8B23978884205
S31500003440E6D3BDE8FF812DE9F04588464FF6FF7AC1
S31500003450D04585B0044605D100F0D8F910B908F07A
S31500003460B7FF30E000F032F80CE0D04508D0306805
S3150000347030F81510414504BF4FF6FD7120F81510C0
S315000034806D1CEDB2387885421CDA306830F81500CC
S3150000349000F018F9F4DA69462846FFF787FF082294
S315000034A021460DF1050009F037FA0028DDD1306814
S315000034B0D04502D130F8150005E020F8158010F04F
S315000034C088FDDDE7504605B0BDE8F0850025DFF84C
S315000034D0C463DFF8C47370472DE9FF478046894609
S315000034E00026DFF8B873DFF8AC43DFF8AC5316E01C
S315000034F02068F6B2B24630F81A0000F0E3F80DDAAA
S3150000350069463046FFF752FF082241460DF1050095
S3150000351009F002FA10B9386800F80A90761CF0B281
S3150000352029788842E4D3BDE8FF87DFF86813096885
S3150000353031F8100070471FB5DFF85C23127890420F
S315000035400C460FD2D349096831F810104FF6FE72B7
S31500003550914207DA694600F006F821460DF10500AA
S31500003560FFF771FF1FBD80B5CB4B1B78984201D387
S31500003570692002BDFFF71AFF002002BD70B50446A0
S315000035800D4623460022B4A1032011F0A1F92878A4
S315000035900028204602D1BDE870403AE0BE490978CD
S315000035A0884201D3692070BD11F042F908B1752037
S315000035B070BD07F00BFF6873681D0AF05FFB0646D7
S315000035C04FF6FF71681DFFF73EFF02462978334626
S315000035D0204600F006F829462046FFF7FCFE0020AC
S315000035E070BD30B54FF6FF740D0008BF224608D0F7
S315000035F0032908BF4FF6FE7203D0A24208BF4FF65A
S31500003600FD72A449096821F81020A44909680B54E1
S3150000361030BD30B505462C4685B0234601228EA125
S31500003620032011F055F99C4909782846884228BF9D
S31500003630692019D211F0FCF808B1752014E069462A
S315000036402846FFF7B3FE9DF8000030B100208DF844
S31500003650000069462846FFF7BEFE8E4909684FF608
S31500003660FF7021F81400002005B030BDF0B585B01C
S3150000367007460C46874D884E00E07F1C3178F8B22D
S3150000368088421CD22868FFB230F8170000F01AF8FA
S31500003690F3D169463846FFF789FE9DF80500E1B289
S315000036A0884204BF9DF80610B1EB142FE5D107F050
S315000036B08DFE9DF80D108142DFD1384600E0FF20D7
S315000036C005B0F0BD4FF6FE71884270472DE9F14F07
S315000036D084B00D460E9C6F4FDFF8BCA1904699460C
S315000036E0002607E03868BDF8101030F81B00884245
S315000036F02CD0761C9AF80010F0B2884228D238688E
S31500003700F6B2B34630F81B00FFF7DCFFF1DA694684
S315000037103046FFF74BFE5FEA080007D19DF801002F
S31500003720484504BF9DF80400A042E2D107F04EFED2
S315000037309DF80D108142DCD1002DD3D008220DF169
S315000037400501284609F0E8F80028D2D1304600E005
S31500003750FF2005B0BDE8F08F10B51446FFF726FE32
S315000037602046BDE8104008224D4909F08BB82DE9E6
S31500003770FF470446084615461E4600F047F808B1BE
S31500003780002040E00027DFF80C81DFF80C9100E014
S315000037907F1C99F80010F8B2884223D2D8F80000AE
S315000037A0FFB2BA4630F81A004FF6FF718842EFD0E2
S315000037B069463846FFF7FAFD0C220DF10101601C3F
S315000037C009F0AAF80028E3D1BAF1FF0F0CD10020C6
S315000037D0307007F01AFE307855B138B92046FFF739
S315000037E0F6FC09E0FF27F2E70120F1E7012006E0F9
S315000037F028B13846FFF74BFD401E8041C00F3070A0
S3150000380007F0C0FD012004B0BDE8F0870822244976
S3150000381009F082B830B585B000241F4D16E0694620
S31500003820FFF7C4FD9DF80000042806DB00208DF894
S3150000383000006946E0B2FFF7CEFD9DF800100023B8
S315000038404FF6FF72E0B2FFF7CCFE641C2978E0B2B7
S315000038508842E4D305B030BD4242000030B585B0A1
S3150000386002220BA1032011F033F800208DF800008E
S315000038700024094D03E06946FFF7ADFD641C297875
S31500003880E0B28842F7D3FFF7C5FF002005B030BD90
S31500003890420000001CE9032031FF032020E9032039
S315000038A0B0F8032030B583B0044600F023F805468F
S315000038B0202D1ADA5CB16946082000F022F80823A8
S315000038C06A462946202009F09BF900200EE00823CD
S315000038D02A462021684609F052F9002000F023F814
S315000038E06946082000F04AF837BD702000F01BF842
S315000038F037BD70472A480168491C016011F8010D5F
S31500003900704738B50446264D08462968224608F011
S31500003910B9FF28682044286031BD214A116808444F
S315000039201060084670471F491F4B0A681B68D31A68
S31500003930DC2BB8BF10700868401C0860704710B5D3
S315000039400446C0B2FFF7EFFF200A48E010B5FFF7C4
S31500003950D1FF00F042F904EB002080B210BD10B593
S31500003960044680B2FFF7EBFF200CB7E010B5FFF777
S31500003970EDFF00F05EF804EB004010BD38B5094CD1
S31500003980094A2368126805469A1AAA18DD2A03DA34
S315000039900246184608F076FF20682844206031BDAC
S315000039A0E0F50320E4F50320D4ED032010B500F084
S315000039B042F8FFF7CBFF2081FFF79CFFA072FFF7CD
S315000039C099FFE072FFF796FF2073FFF7BFFFE081D4
S315000039D0FFF790FF2074FFF7C9FF606110BDBDE8D7
S315000039E01040A0E710B500F024F82080FFF7AEFFE6
S315000039F06080FFF77FFF2071FFF77CFF6071FFF7A4
S31500003A00A5FFE080FFF7A2FF2081FFF773FFA072FA
S31500003A1010BD10B500F00AF8A078E0E710B500F088
S31500003A2008F82080FFF766FFA07010BD04462088C6
S31500003A3085E704468AE704462146082061E710B573
S31500003A4000F0CBF8A070FFF781FF2080211D00F069
S31500003A50C2F8FFF74FFF00B10120E070FFF74AFF01
S31500003A602073FFF747FF607310BD10B5044621466B
S31500003A7000F07FF82069BDE8104070E710B50446F5
S31500003A80214600F078F8FFF771FF206110BD10B5F0
S31500003A90FFF7CFFF208010BD207944E710B504461C
S31500003AA0FFF7CDFF04F1100000F01BF804F11C0134
S31500003AB000F091F8FFF74AFF24F8240FFFF746FFBE
S31500003AC06080FFF717FF2071FFF714FF6071FFF7A3
S31500003AD011FFA071FFF70EFFE07110BDBDE81040A9
S31500003AE02DE710B50446FFF741FF2060FFF73EFFC4
S31500003AF06060FFF72BFF208110BD10B500F010F8B5
S31500003B0000F08CF8E088FFF71AFF2089FFF717FF0F
S31500003B106089FFF714FFA089FFF711FFA07B5EE71E
S31500003B20044620681BE710B50446FFF71FFF206018
S31500003B30FFF70CFFA080FFF709FFE080FFF706FF05
S31500003B402081FFF703FF6081FFF700FFA081FFF7E9
S31500003B50D1FEA07310BD10B5FFF7E2FFFFF79CFF83
S31500003B60611D00F006F804F11501BDE810401020B3
S31500003B7004E7102002E71020C3E610B50446207AB9
S31500003B80FFF7D1FE207A010006D12068FFF7E7FE95
S31500003B902068FFF7E4FE04E0022802D1214600F087
S31500003BA002F8607A1BE70820E8E610B500F015F881
S31500003BB00100207206D1FFF7D9FE2060FFF7D6FE7E
S31500003BC0206004E0022802D1214600F004F8FFF745
S31500003BD091FE607210BD082093E604468AE638B569
S31500003BE0044602252078FFF79EFE2078401E012815
S31500003BF006D96089FFF7A3FEA11CFFF7D4FF09E0F1
S31500003C0000F00CF800F00CF800F008F800F008F8E6
S31500003C1000F004F80C346D1EE4D131BDA0888EE6A8
S31500003C2060888CE610B504462078FFF77CFE606855
S31500003C30FFF795FE04F10800FFF79FFFA08AFFF744
S31500003C407EFEA07DFFF76FFEA069FFF788FE04F1F8
S31500003C501C01FFF78EFF04F12C00FFF7C0FF14F8DC
S31500003C60440FFFF760FE6078B9E610B5FFF7DEFE99
S31500003C70FFF7D6FFA08831E710B5FFF7DAFE208000
S31500003C80FFF764FE6080FFF761FEA08010BD30B5CF
S31500003C9002F8010B002312E031F8234002F8014B31
S31500003CA031F82340240A02F8014B01EB83045B1C24
S31500003CB0658802F8015B6488240A02F8014B834296
S31500003CC0EADB30BD0CB4F8B505460C4606AE08E096
S31500003CD056F8040B290003D00078FFF71EFE386063
S31500003CE0641C2078010037D056F8047B622827D060
S31500003CF07028EDD0732818BF752804D076280CD00C
S31500003D00772814D0ECE7280003D0FFF7F3FD3870CE
S31500003D10E6E73878FFF707FEE2E7280003D0FFF76B
S31500003D2015FE3880DCE73888FFF709FED8E728005B
S31500003D3002D0FFF71BFED2E73868FFF710FECFE789
S31500003D4056F8040B00782900394602D0FFF7D9FD52
S31500003D50C6E7FFF713FEC3E7F1BC5DF80CFB0000F6
S31500003D6070B55D4D6E8A044605F1080010F0DFFD62
S31500003D70012C08BFAE8A02D0022C08BF022618B159
S31500003D80FA217143884206D3310205F10800BDE8E5
S31500003D90704010F0BFBD70BD7CB54F4C0020E07088
S31500003DA020714FF6F972208A90421CBF4FF6F872C6
S31500003DB0904202D00020207273BD6179474E4FF6C3
S31500003DC0FD7589B14FF6FC7001900023002000902C
S31500003DD00022308800210BF004F800206071358045
S31500003DE00120BDE87640BBE7A1780EF0D9F930880E
S31500003DF0A842F5D0012060710220F2E710B500F06C
S31500003E0039F81CBF4FF6F874A34217D1A92818BF7A
S31500003E10AA2813D1D0781378401CD070C0B298422B
S31500003E200CD32E4803884FF6FD74A34202D10180BD
S31500003E30002050710020BDE8104091E710BD10B57C
S31500003E4000F018F81CBF4FF6F874A34211D1030016
S31500003E501CBF012802280CD166290AD11079517895
S31500003E60401C1071C0B2884203D3BDE81040002048
S31500003E7076E710BD184A138A4FF6F974A3427047C5
S31500003E8010B5154C21829200029921709B0003996E
S31500003E906282A38261709BB20499A17092B293422E
S31500003EA00AD301001EBF218A4FF6F87291421CBF49
S31500003EB04FF6F972914201D0702010BD0021617158
S31500003EC04FF6FD71054A118018B10120FFF748FF32
S31500003ED000E02072002010BD10F7032098EB0320AD
S31500003EE02DE9F54F8BB08B460C98169C1799ADF8BB
S31500003EF004B00026C0889A460746B046B14649B97E
S31500003F00F90607D50C9A9DF82C000094594610F036
S31500003F100FF816E1790548BF4FF48058390548BFB8
S31500003F2048F40068B90548BF48F0800803D4F9058D
S31500003F3048BF48F040089DF82C1002915D469DF858
S31500003F402C1003910A2966D8DFE801F0082F1B3CE4
S31500003F5065653C06083C18004FF00209BDF80420D0
S31500003F60CDF800A0334648F4027120460BF030FA33
S31500003F708246BAF1FF0F50D11820E2E04FF0030954
S31500003F80ECE706A95FFA8BF0FFF7EDFA08220DF1D0
S31500003F901D0104A808F076FCDFF81009006830F867
S31500003FA0150004AEADF80400D8E704A95FFA8BF05B
S31500003FB009F03DFDDFF8F80800680C21694304AEFE
S31500003FC0405AEFE74FF6F8718D4224DB4FF4026159
S31500003FD0084220D100F042F918BF91201CD1FF2CD5
S31500003FE00FD000F0BAFB029903290CBF0121002172
S31500003FF0401ADFF8C0180968095D8842B8BF742006
S315000040000ADB029803280CBF4FF00C094FF0080991
S3150000401028F4C078A2E7012093E0DFF89C582888AE
S315000040204FF6FF71884218D0504610F0A4FD00905C
S31500004030001D298804F038FCDFF880080099007814
S31500004040C8714FF6FF7028805FEAC84005D5009812
S315000040500822291D083008F015FC0C9A49465046DE
S315000040600BF08AFB08B9182667E0DFF854080068E9
S31500004070C07E70B1B8060CD5F8074CBF20200020D2
S3150000408040F001033246002150460DF057F8060075
S3150000409053D1FF2C15D0504610F063FDDFF82018E1
S315000040A00968C97E01B11221DFF808281268135D7C
S315000040B012F80A20D218743089188842B8BF7426BC
S315000040C03BDBB80407D5504610F065FD40F480612F
S315000040D0504610F062FD0298082812BF0928504683
S315000040E010F068FD179848B1BDF80410504610F05E
S315000040F07AFD179880F800A0002022E00398C01EE1
S3150000410005D0C01E012884BFC01E012807D850460E
S315000041100DF0ABFE00280CBFA12600260DE0B8046A
S3150000412044BF4FF6BF7007409DF82C103B465FFA20
S315000041308BF250460FF04EFF0646504606F062FDE3
S3150000414030460DB0BDE8F08FF0B587B00E46044698
S315000041500C991746184606F0D8FD0546FF2D21D0C6
S31500004160FF208DF810008DF81100ADF80E704CF29E
S315000041700E00ADF80C00ADF812600020ADF814008A
S31500004180009502A80190FF2303AA21460020FFF70D
S31500004190A7FE0446284606F035FD002C0CBF9DF808
S315000041A00800FF2007B0F0BD2DE9F043164685B0A4
S315000041B00446F08804900D4670790FF24071039022
S315000041C01F4630790290A846708801904346308891
S315000041D00090082200F099F800F040F818BF9120EE
S315000041E01AD1FF2F09D000F0B8FADFF8C81609680F
S315000041F0C95D884238BF74200ED320000FD14FF618
S31500004200F870804528DA002001900097FF23324697
S3150000421029462046FFF764FE05B0BDE8F083022C70
S315000042204FF6FE790CD1DFF89C1609788D4213D231
S31500004230DFF87806006830F818004845E3DB0BE045
S31500004240012C09D1DFF8801609788D4204D2E8B234
S3150000425009F005FC4845D6DB0120DDE7DFF86006FE
S315000042600068407B02287047F0B587B00D461646B9
S31500004270044605961F46E8880FF288610490234697
S315000042806879039009222879029068880190288825
S31500004290009000F03AF800200190009733462A4635
S315000042A021460620FFF71CFE07B0F0BD2DE9F041C0
S315000042B088B01E460E9C07948046F08806901746E6
S315000042C0707905900D4630790FF2446104904346AB
S315000042D0708803900A22308802900197009500F0BA
S315000042E014F8DFF8D405A0F800802346DFF8CC05E3
S315000042F007700020019032460F980090294606204C
S31500004300FFF7EEFD08B0BDE8F081032010F0E0BA3B
S3150000431080B538B101460822DFF8B00508F0B2FAD8
S31500004320002002BD022002BD70B588B000F02EF854
S315000043300C98DFF88415009608802B460D98DFF858
S315000043407C1508702246DFF888050078002814BF1F
S315000043504FF6FF714FF6FD710020019011E070B528
S3150000436088B000F013F8DFF868050078009600289A
S3150000437014BF4FF6FF714FF6FD71002001902B46DA
S3150000438022460320FFF7ACFD08B070BD04460D467B
S31500004390069205951E46E0880FF28051049006228B
S315000043A060790390207902906088019020880090BF
S315000043B00320238910F08CBA10B5DFF8180506F033
S315000043C001FF0446FF2C0DD02146042006F081F99A
S315000043D018B10121204600F006F82046BDE810403D
S315000043E006F010BC10BD2DE9F04F89B082468B4611
S315000043F010F0C1FB0646B01C04F04FFADFF8D844B3
S31500004400DFF8D854074650460BF093F8014650465D
S3150000441006F09FFD8046504610F0C7FB06F080FF71
S31500004420301D04F03AFA2080009707F0D1FF00997A
S3150000443089B2814208F0030912D04FF6F87087421C
S315000044400EDA7078C0070BD438460AF096F80028C2
S3150000445005D0208801235246394600F0B2F97AE0A9
S3150000446005A950460BF0F4F805A8286030460BF075
S315000044707DF8DFF86C1408600321504610F06BFBE2
S31500004480DFF8601408700421504610F064FBDFF872
S31500004490581408705FEA0B002BD09DF81A008006AE
S315000044A027D507F095FFDFF8186440B13068007D26
S315000044B0800704D4B9F1010F08BF182300D00823E0
S315000044C00022002150460CF039FE90B108F003009E
S315000044D0012802BF3068407B112805D102F0B3FAEB
S315000044E010B9AF2000F049FC06F04CFF0020286010
S315000044F048E018F0030003D0022806D00AD32AE0C9
S315000045005946504600F041F825E0514640460FF026
S3150000451090FD20E007F05CFF218881421BD05146C8
S31500004520052006F0D6F8B0B12968887940060DD581
S315000045300C2202A808F0A6F900200190FF23FF2014
S31500004540009002AA21880A20FFF7CAFC21885A4651
S3150000455050460BF03DFE07F03BFF218881420DD10E
S3150000456050460AF0E6FF0146504606F0F2FC0C21E2
S31500004570084203D1002150460FF094FF0020286026
S3150000458006F000FF09B0BDE8F08F2DE9FE4F80462A
S3150000459010F0F1FA054640460AF0CBFF01464046C8
S315000045A006F0D7FC81466878DFF83073DFF82843D9
S315000045B000F001000290A81C04F06FF94FF6F871A4
S315000045C08842ACBF4FF0010A4FF0000A07F000FF27
S315000045D0218881423868B0F802B00CBF0126002657
S315000045E0A81C04F05AF90146029840EA0A008DF820
S315000045F004009DF80400002814BF062008200022AD
S3150000460007F092F838680188002904BF407900282D
S315000046101DD1694640460AF025FB421E9DF8001052
S315000046203B46D2B2042010F0AAFB3868408848F214
S315000046300201884203D12088414602F0D4FA20883C
S31500004640BBF5004F19DB5A4641460AF01FFB386896
S3150000465001884CF20E0291423CD144F2010AD34544
S3150000466018BFBBF5804F35D140460AF0E5FF01463D
S31500004670D3450CBF0120002023E09C4A0221117083
S315000046805346002241460AF069F9386880794006A7
S3150000469003D5FF21584600F067F8BBF1130FD6D0BB
S315000046A03868C0884004D2D4914990480978007887
S315000046B0CA0701D50228CAD0890740D50128C6D025
S315000046C03DE0491EC9B200912B464246012100F049
S315000046D070FF34E0029919B909F00C010C290DD1CB
S315000046E0008909F0FAFA50B338680189002E14BF20
S315000046F0032502250020FEF7B9FF11E0017900919C
S315000047000022437920880021FEF7E0FF09F00C0122
S31500004710082904D1002E0CBF0425052500E000253C
S31500004720744908709DF8040010B9BBF1380F01D127
S31500004730012200E00022294640460DF037F9BDE887
S31500004740F78F10B5044600F008F8610548BF083831
S31500004750210548BF0838C0B210BD59490968C97E4D
S31500004760642001B15220704770B55C4E0C4686B08D
S31500004770054631680C2202A808F084F830680179F1
S315000047808DF80D10FF2341798DF80C10ADF80A5005
S315000047904FF6BF71C08800940840ADF80E0002AA1B
S315000047A0002001904C4801880720FFF799FB06B0CE
S315000047B070BD5148007808B9FF2070474D48007811
S315000047C070472DE9FB47914685B01C4648460AF0DE
S315000047D0B0FE0146484606F0BCFB032108428DF8B0
S315000047E000005ED13D4805683B48068801A9484659
S315000047F00AF02EFF394901A808604FF0000ABDF8FB
S315000048001400354908809DF80900002804BFBDF84A
S31500004810040000283FD1484610F0ADF9801C04F092
S315000048203CF84FF6F8718842ACBF4FF00108D0460D
S31500004830002C14BF02240124012729E0BDF814002E
S3150000484043463A4649460AF089F85FEA000A1ED00E
S31500004850022C08BF012F1AD1BDF81800164908808E
S3150000486017480068417E491C4176A1F18000134932
S3150000487008700C219DF80000084208D19DF80A0036
S31500004880400604D5BDF80600FF21FFF76DFF7F1C2B
S31500004890FFB2BC42D2DA114805600F480680504686
S315000048A000E0002008B0BDE8F08700001CE9032006
S315000048B028E90320C4E80320C0EA032047FF0320B9
S315000048C03CFA032031FF0320C3EB0320C4EA032094
S315000048D03AFF0320F4EA032016FB032018FB03200B
S315000048E01CFB0320DDFB0320DEFB032046FF032029
S315000048F036FF032052FF032014FB0320425757576D
S315000049004242570042575757424257420000000062
S315000049104257574257574242574200004257574262
S31500004920424257424200000010B5044606F073FDAD
S315000049300EF0CDF9010018BF00F014F80C21304834
S3150000494011FB04F10844827981880068BDE81040B3
S3150000495007F0C6B90020E7E70120E5E70220E3E714
S315000049600320E1E710B582B0044606F078FD0C217D
S31500004970484323490844210017BF312C0021017AFE
S31500004980491C0172C279017A91420AD3002101724F
S3150000499043208DF800008DF80140022168460DF095
S315000049A0D6F813BD17490978312900D0704780B56C
S315000049B044218DF8001001460DF1010003F074FF4B
S315000049C0032168460DF0C3F801BD38B50E4C0C4BFB
S315000049D024780C256C43B0F5004FB8BF0429234456
S315000049E001DB702032BDDA71988099719A799988C5
S315000049F0186807F075F9BDE831400EF068B9000097
S31500004A0090EA0320DAEB032040FF032070B516007E
S31500004A1004460D4602D108F05AFF02E0FF2108F0D5
S31500004A2005FF324629462046BDE87040A1E02DE943
S31500004A30F04782B005468A46174698460CF052FC67
S31500004A40C0480A9C0078B0B10C2F14DAFF21284622
S31500004A5008F0ECFE814600260AE004EB4601C9B2E6
S31500004A60404606F031FB494608F0E0FE8146761CDA
S31500004A70F0B2B842F1D3009443463A46514628462E
S31500004A8000F08FF8BDE8F3872DE9F04704468A4623
S31500004A9000F0D6F8012847D1204608F0B1FEAA4A10
S31500004AA0126812F80A700025FF281AD081464C4673
S31500004AB0DFF8988200E06D1CD8F8000000EB840057
S31500004AC08478FF2CF7D1EDB20C2D0ADA6800861C2B
S31500004AD0BAF1FF0F27D0F119C9B2504606F0F2F924
S31500004AE008B1002020E02A463946504606F036FA3C
S31500004AF07C1C002D14BF6A1E0022D2B2E1B25046C1
S31500004B0006F02CFA671C4C4606E030F82420F9B271
S31500004B10504606F0E5FABF1CD8F8000000EB840109
S31500004B208C78FF2CF1D1F0B2BDE8F08710B5FF28E4
S31500004B300AD0864B1B6833F820400C8003EB8000BC
S31500004B4080781070002010BD032010BD10B508F04D
S31500004B5057FE0024FF280AD0022401E0A41CE4B278
S31500004B607A49096801EB80008078FF28F6D1204653
S31500004B7010BD30B583B00C46C4218DF80010154623
S31500004B8001460DF1010003F08FFE21460DF10300F1
S31500004B9003F08AFE8DF80550062168460CF0D7FF13
S31500004BA037BD2DE9F04186B0074688461D460DF112
S31500004BB0050014460CF053FF01A80CF052FF5920D3
S31500004BC08DF8080039460DF1090003F06DFE082244
S31500004BD041460DF10B0007F055FE9DF805000C9BB4
S31500004BE08DF8130066009DF804008DF81400F6B2E7
S31500004BF08DF8154000962A460021284606F099FAB7
S31500004C003146284606F05EF90020009000232A4629
S31500004C100E2102A80CF0A3FF06B0BDE8F08110B586
S31500004C20044600F003F84A48047010BD10B5484C1D
S31500004C302078FF2803D005F0E5FFFF20207010BD87
S31500004C402DE9F041DFF80881074698F80000FF28B3
S31500004C5082B00C4619D03C4D2A68115C8E1EF6B205
S31500004C60314606F031FAB8420FD12868075DF505DE
S31500004C702D0EFF2C02D1A81CC0B220E0F019811C19
S31500004C80C9B2204606F01EF908B1012017E02A46EF
S31500004C903946204606F062F96A1E791CD2B2C9B2BC
S31500004CA0204606F05BF998F800200096B91C002310
S31500004CB089B2204606F03DFAFFF7B8FF0020BDE8AE
S31500004CC0F6812DE9F04180461E480078002688428C
S31500004CD00F46154638BF742032D3012005F027FF52
S31500004CE00446380010D07900C9B2204606F0EAF82A
S31500004CF050B907E035F816207100C9B2204606F013
S31500004D00EFF9761CBE42F5DB2046FF2811D00E498E
S31500004D1009680D5CA91CC9B206F0D4F828B9424648
S31500004D202946204606F0DCF903E0204605F06AFF36
S31500004D30FF242046FFF773FFFF2C0CBF182000202E
S31500004D40BDE8F08130FF0320C4E8032018E9032002
S31500004D50DBEB0320DFF8482B1268127882420AD078
S31500004D6019B1012A03D1022805D000207047022A72
S31500004D7008BF0128F9D101207047DFF8281B887584
S31500004D80704710B5DFF8184B2068407B112805D016
S31500004D904FF480710FF20C0007F0E0FD216841200E
S31500004DA0487310BD6173736F63696174696F6E2EAA
S31500004DB06300000080B5022006F08EFC06F0B0FA13
S31500004DC000F0B9FC001F022805D2DFF8D80A417DA1
S31500004DD0491D417505E04FF47A71DFF8CC0A0FF0F2
S31500004DE099FDBDE8014006F0CDBA10B5DFF8B44A2A
S31500004DF00020E0742078FF2803D005F003FFFF2091
S31500004E00207010BD70B582B004460D4605F084FED4
S31500004E100646B01D03F041FD00F44040B0F5404F9A
S31500004E200CBF062000203118097C4A00490802F010
S31500004E300E0201F038018918401800F11106DFF85A
S31500004E40240D0068005DF6B286420BDA831BDBB2E6
S31500004E500F2BA8BF0F23002000903246214628467C
S31500004E6005F06FFF304676BDDFF8340A0068407BF8
S31500004E7033281CBF4328532801D101207047002046
S31500004E8070471FB501200FF083FF0FF086FF0CF06F
S31500004E90DFFFF0B1DFF80C4AA07910B104F10A0087
S31500004EA005E020786946FFF7ADFF0DF10300DFF856
S31500004EB0F82900211170617901F018FAFFF795FFC2
S31500004EC000F008F80AF012F80FF0B5FF012001F023
S31500004ED043FB1FBD10B501F098F800F0E8FC05D2C1
S31500004EE0408801F010FB08BF032008D007F042FB02
S31500004EF0044607F043FB2146FEF7A5FA022007F019
S31500004F0049FB08F029FF00F0AFFEBDE810400AF0AB
S31500004F1019B838B5DFF88C49DFF8085DA075FFF7DA
S31500004F2064FF00214FF6FF7001F0DFFA2868417B2D
S31500004F30032918BF00291CD0332918BF432912D1D1
S31500004F4001F07BFA286800F0B2FC06D20321417317
S31500004F50A07DBDE8324006F0D2BBA07D06F0CFFBB7
S31500004F60BDE83140B6E721214173BDE831400AF082
S31500004F7006BD31BD10B5DFF82819DFF828490968E4
S31500004F80002048734FF6FE7007F026FA4FF6FF70C2
S31500004F9007F02AFA01F051FAA07DBDE8104006F0AC
S31500004FA0AEBB70B5044684B0E07A0FF2C001DFF8FC
S31500004FB0745C0290234694F90A0001901522208918
S31500004FC001F0EDF82868407B60B9208901F09BFA72
S31500004FD008D000F045F905D106F052FB10B906F0ED
S31500004FE063FB10B1702004B070BD2868007D800797
S31500004FF002D510F0D4F800E00020214601F039F97E
S3150000500006000DD12868007D80074CBF02200120D4
S3150000501001F012F9002101200BF0B9F8060001D0C9
S315000050203046E0E7DFF87C08007F08B109F063FB53
S3150000503000220821204607F030FB30B1042120462B
S3150000504003F034FE08B9A520CDE7DFF8340C00786C
S315000050502074DFF8300C60610020E081204600F00B
S3150000506004F9064606F08CFADAE700004238705773
S315000050704242000010B504462346182201F0DFF92B
S31500005080DFF8040C0021017114B1FF2C02D10121BB
S31500005090017007E0012100F8041BA100491C090268
S315000050A00FF038FC00F0E0FD002010BDDFF8D81B43
S315000050B000200871DEE730B50D4689B00446686900
S315000050C00FF2901107902346287C06901622E88955
S315000050D00590287B0490E87A039095F90A000290DF
S315000050E028890190009501F05BF8287B00280CBF09
S315000050F04FF6FE7007F06CF92B46224609B0BDE864
S315000051003040014601202DE9F041DFF8184B80467A
S315000051102068407B00280F4616461D4649D13000C0
S3150000512047D0062E45DA00F09BF842D106F0A8FAE1
S3150000513000283ED106F0B8FA08B1042E39DB287BE8
S31500005140032816D14FF6FE70874214D1012E08BFF0
S31500005150002710D0022E2CD107F03AF94FF6FC7139
S31500005160884202DA07F034F901E010F018F8074631
S3150000517001E0012E1DD0B8F1000F0CD0287B0328CA
S315000051800CBF01210021012E0CBF012000200AF0D6
S31500005190FEFF01005CD12946384601F06AF801009D
S315000051A056D106F013F906F024FA20B106F07CFA7F
S315000051B008B170204CE02068DFF8E876407B3328A1
S315000051C01EBF53280020F875304601F035F8387FA9
S315000051D020B106F069FA08B909F08DFA287B032890
S315000051E003D12846BDE8F0413FE00822294607F1F1
S315000051F00A0007F047FB287B0328A8BF0020B874E5
S31500005200FFF7F3FD9420B875B87C216800280CBF21
S315000052100120312048730123002038752068817BE6
S315000052204809020003D1BA7F03FA01F108E001F050
S315000052301F0140F0180003FA01F1052241EAC0619E
S31500005240032010F01FF9010002D0226800215173DB
S31500005250BDE8F0814242387057424242574244000C
S31500005260DFF8280A00780A28704710B5044600229D
S31500005270082107F012FA08B1012010BD07F0A8F8BE
S3150000528000224FF6FF7101F017F8217C204601F04D
S315000052902DF86269E189207C08F092FDDFF8840927
S315000052A00068007B012808BF0BF0FBFCFFF712FE2D
S315000052B0002010BD38B5DFF86C4901462068407BF8
S315000052C0002802BFDFF8C40900780A2801D0702040
S315000052D032BDDFF8D45521B1022205F1080007F0EE
S315000052E0D1FA684601F0D8F808B1932032BD9DF88E
S315000052F00030142201F0A3F801F044F801004ED169
S315000053009DF8000000F098FF2068007B012818BF78
S31500005310022806D0C01E032824D2002001F0F7F888
S3150000532000B301F046F82068007BC01E032838BF92
S3150000533010F07BFBFFF7CEFD012010F0A3FB010070
S315000053402DD12068007BC01E032827D2287A80072B
S3150000535024D50522DFF82C19012000F027F80100DA
S315000053601CD032BD2168132048730020DFF83415A5
S31500005370087501222068817B4809030008BF02FAEC
S3150000538001F107D001F01F0140F0180002FA01F107
S3150000539041EAC0610522052010F074F8002032BDF4
S315000053A0DFF80005C07D7047FF22FFE72DE9FC41CD
S315000053B0804600F02AFE0D46017B0129164627D0BD
S315000053C0407B022818BF032822D1332007F0E2F8D9
S315000053D02806DFF8D074400F14BF0522BA7F29468D
S315000053E0032010F04FF8044698B9FFF7FEFC06F0CC
S315000053F0F7FF38815FEA080014BF02200120B87465
S3150000540007F10A0001F060F800203875FE7500E02B
S3150000541070240194009543462C220FF2100100F0EF
S31500005420BFFE2046BDE8F68100000000424244422D
S315000054300000000038B5044605F06EFB0546204620
S315000054400FF08FFB2C18204603F027FA4FF6FF517A
S3150000545001402046BDE8344003F026BA70B584B05A
S3150000546006F0B6FFDFF83C44DFF8B8570646208B57
S31500005470002101F03AF807F028F960B1300003D0B6
S315000054804FF6F870864206DB0FF089FE29684988D8
S3150000549088420646F8D0304606F09EFF207809215D
S315000054A00FF03EFB06F0A0FF2E68307B052813D1D7
S315000054B001F015F88DF8080002ABA07C00280CBF9F
S315000054C04FF4804244F20102012000904FF48061C3
S315000054D07088FEF739FE0FE006208DF8080000F010
S315000054E0FEFF8DF80900022300200190009002AA19
S315000054F07088012109F0F7FF0646FF2E08BF00203D
S3150000550011D02868418830460FF06DFBA07C022838
S315000055101CBF3046FFF78EFF00F046F804463046C3
S3150000552005F070FB204604B070BD70B588B00C461F
S3150000553016461D4630B9204610F0A6FA03A908F013
S31500005540E0FF03A807218DF808100190310A8DF8B5
S315000055500A1001200C998DF80B1000908DF8096047
S31500005560042302AA0121204609F0BDFF0646FF2EAC
S3150000557018D021460FF037FB15B93046FFF75AFF12
S315000055800D9808B930460DE0204608F0F6FF18B130
S31500005590304610F0A7FA01E000F006F8304605F0B4
S315000055A031FBFF2008B070BD00220021304610F00C
S315000055B0D1BD2DE9F34F85B091461D4600274FF624
S315000055C0FF7455B1284609F0D1FF80466878400837
S315000055D04FF0010A00F0010605E048460FF06BFBAC
S315000055E0BA460026804600F0A6F8C01E0328C0F082
S315000055F09F801098411CC9B2484605F0AAFC834614
S31500005600400800F001008DF808009DF8180020B948
S315000056105FEA0B6058BF4BF0800B00F038FF06D1F5
S31500005620DFF864169DF814000978084301D10227B3
S315000056302CE0404606F07DFEADF80000032148460A
S315000056400FF089FA9DF8141004009DF8180008BFA1
S31500005650012481F001010840BAF1000F039003D044
