S02100007365637572652D657A73702D7370692D626F6F746C6F616465722E7333378C
S31508000000000400207500000881000008810000082F
S31508000010A70B0A01000000000401C16300200008C4
S31508000020041E0000C50A0008890F00080806000813
S3150800003000000000000000000000000000000000B2
S3150800004000000000000000000000000000000000A2
S31508000050FFFFFFFF05480068202100EA010020B1E4
S315080000600348016842688D46104770472C000040D7
S3150800007000200008FFF7EEFF00F00AF800F03EF84F
S3150800008002E00000854670474FF4017000F09AB808
S3150800009038B500F0C5F84FF20F043E4D28B140F2CE
S315080000A0052028806C80012032BD3B480068C006C8
S315080000B015D56888A0421ED1288840F202218842B8
S315080000C01CBF40F20621884215D040F20111884231
S315080000D01EBFB0F58A7F40F2111188420BD02F4C13
S315080000E0208A40F6A721884205D12068FFF7CAFF73
S315080000F06068804700BF002032BD000038B50400A4
S31508000100274872B6016849084900016000F0E8F816
S3150800011021480068000910F001000CBF2149224956
S3150800012002E0CD2201F8012B204A9142F9D3204959
S31508000130204A214B03E011F8015B02F8015B9A4261
S31508000140F9D31E491E4A002301E001F8013B9142FA
S31508000150FBD3104A53884FF20F05AB4240F20521F4
S315080001600AD113888B4205D030B1180A012818BF66
S31508000170022801D1194601E004B90021044801808A
S315080001804CF23C30508000F089F9BDE832407BE7FC
S31508000190840D0020000000202C00004000200008EC
S315080001A0FCED00E00000002098000020000400207C
S315080001B03819000800040020040400200404002064
S315080001C0970D00200E4A302111600E4A11600E4A22
S315080001D0116010210D4A1160010A00290C4908BF57
S315080001E0000208804FF20F004880BFF35F8F09486E
S315080001F0002101604160084808490860704700000E
S315080002003020004030C8004030C0004010D00040C8
S31508000210000000201C4000400400FA050CED00E038
S3150800022008210E2010B500F000FA2A484021816006
S3150800023000240A2100BF491EFCD1C82102685206C3
S3150800024001D4012401E0491EF8D104210E2000F052
S31508000250ECF9204610BD80B500F0DAF90121152029
S3150800026000F0E3F9152000F008FA0121072000F054
S31508000270DCF9072000F0F6F91748016821F01001AB
S31508000280016001BD052800D9704710B5DFE800F008
S315080002901721030F1C17114C2088411E2180C0B955
S315080002A0072000F0F5F942F21070208010BD0720F3
S315080002B000F0E3F9BDE81040152000F0E9B9BDE803
S315080002C01040152000F0CEB9BDE81040152000F00A
S315080002D0D4B910BD08B4004000BC0040900D002001
S315080002E0554951200860704738B55449C9780429DA
S315080002F0B4BF302460244FF4F071B1FBF4F1451A11
S315080003001E2DBCBF4FF40170FFF75CFF4C484D4AE9
S31508000310072101600021416081604FF00071116082
S3150800032005FB04F1C91C8908491E416031BD434AD1
S3150800033001215170D8E72DE9F041444F424D7888A4
S315080003403E4E4FF6FF78404540F2DC541CD14048FB
S31508000350018802237F22B81C00F0AAF97888404554
S3150800036004BF02207880A869800703D4A86940F0F2
S315080003700200A8610120B070788828602046FFF73F
S31508000380D6FF2046BDE8F081A8698007EED52C483F
S315080003900068C00348BF00F03BF8B0780028F0D1E9
S315080003A0A868A9687A8810F0010003D10F2A08D234
S315080003B0521C06E0890704D5397811B1032AA8BF6B
S315080003C0424492B2022A3870B8BF02227A8028685C
S315080003D079888842CED1A86900F00300032808D09E
S315080003E0A869154940F00100A8610120E86151207B
S315080003F008600020C6E710B5044601E000F08EF953
S315080004002046FFF798FF0100F8D110BD0220F2E759
S315080004100B480C4A002141608160016821F0020105
S3150800042001600021054841704FF000711160817824
S3150800043009B100218170704700800040920D0020AC
S3150800044010E000E004ED00E0044000400004002055
S31508000450341900080078704730B5DBB004462146E9
S3150800046036A800F06DF9002000904FF40263514A57
S3150800047036A901A800F026FB0FF280120FF28810A9
S3150800048001A900F081FD054600F0CBF828001CBF45
S31508000490214600F0A8F928465BB030BD80B5FFF7C5
S315080004A0B5FFFFF7D8FE00F09BFD00F0BAF800F0A4
S315080004B0C7FD0020FFF7E6FE07E01A2000F093FAD2
S315080004C001220021522000F023F800F0AAF80220A9
S315080004D0FFF7D8FE684600F085FD0028F5D19DF89F
S315080004E000005128E9D03449002008700120FFF7A0
S315080004F0B3FF20B90520FFF7C5FE012000E0042060
S31508000500FFF7C0FE40F20120FFF75CFE002002BDA7
S31508000510F8B506460F461546284C0FF2B8011D22B7
S31508000520204600F08EFD0A2204F13401201D00F059
S3150800053088FD2348018808237F2204F10E0000F075
S31508000540B7F8522EA6761BD13520207006220FF258
S31508000550A40104F12E0000F074FD0120E0760223C8
S31508000560184801887F2204F11C0000F0A1F81648FB
S31508000570018810237F2204F11E0000F099F802E09A
S315080005801D202070E776012D12D12078A0F11B05D9
S31508000590012000F0A4FD0D48FD2101704570EAB266
S315080005A004F11A01801C00F04CFD0949012008706D
S315080005B0F1BD0000640500208F0D002024050020F1
S315080005C0361900083219000830190008940400206A
S315080005D08E0D00200063CC00FFFF00000000000025
S315080005E00000FFFFFFFFFFFFFFFF7C656D010000B6
S315080005F00000000000041E0063C10000A7180008E0
S31508000600E31800085504000869090008A30900084A
S315080006101148012181604EF6BE2141600121016029
S3150800062070470E49012008607047F0B5C20892026B
S315080006300B4CA518830010F0040014BF6E68A6586A
S3150800064003F00C030F279F40BE439940314308B17E
S315080006506960F0BDA150F0BD006000400860004030
S3150800066000B000401149C20801EB8221012200F0C6
S31508000670070002FA00F0486170470C49C20801EB0E
S315080006808221012200F0070002FA00F00861704793
S31508000690C108064A02EB81210123CA6800F0070057
S315080006A003FA00F05040C8607047000000B00040F0
S315080006B030B5044610467F2808BF00204BF2346246
S315080006C0914283B01AD108237F2240F61201684668
S315080006D0FFF7EEFF08220FF23C01684600F0D1FC56
S315080006E030B908237F2240F2A2716846FFF7E0FF7F
S315080006F008226946204600F0A4FC37BD044D29436C
S3150800070000FB03111A46204600F09BFC37BD00008B
S3150800071000000408FFFFFFFFFFFFFFFF07490A6805
S31508000720032809D34B6D43F001034B650B689B1AED
S31508000730C3F313038342F9D37047000038200040FF
S315080007400170012201290CBF80214021818042705D
S3150800075000218270C1800181B14801600E21816249
S31508000760016821F010010160002141634162426184
S3150800077070472DE9F041AA4FAA4E044600F02EF81C
S3150800078090464FF0FF303060C7F82C800020786222
S315080007900D46386840F001003860FFF742FF012C2B
S315080007A00FD135B900F030FC00F0010080F00100EF
S315080007B002E0284600F016FC28B900F00FF80020E1
S315080007C00AE0012008E03068C007E6D55FEA0800BD
S315080007D0E3D000F003F81620BDE8F0813868400839
S315080007E040003860704780B50A4601461820FFF772
S315080007F08FFE012000F073FCBDE80140F7E070B5FC
S31508000800044682B0002020814AF6B4322078694630
S31508000810FFF7AFFF08B11C2076BD9DF8000003283E
S3150800082018BF182801D1182076BD042801D1172031
S3150800083076BD012801D0212076BD002500E06D1C7B
S31508000840A188EDB2091D8D420BDA601900F10A0183
S31508000850207840F2DD22FFF78CFF0028EFD0262013
S3150800086076BD0025002006E00146EDB260196D1C34
S31508000870007B00F03DFDA288E9B29142F4D3A37A49
S31508000880E17AC918FF2901D0222076BDA5182E7B4A
S31508000890B6EB102F01D0232076BD697BC0B281420A
S315080008A001D0242076BDA078834207D0401EC0B26E
S315080008B0834201D1272076BD252076BD901C208154
S315080008C00220E080002076BD38B50446607801280D
S315080008D004D02CD3032828D01FD328E00220607028
S315080008E02046FFF78CFF05462078012804BF2846D6
S315080008F000F079F80DB100F0A3FB272D19D1A078E7
S315080009002278411EC9B20620FFF702FE002DE7D164
S315080009100320FFF7B7FC002032BD00F091FB00F082
S315080009204AF8A078401CA070DAE7172032BD1820D4
S3150800093032BDA80603D52278A1781520E4E7680613
S3150800094003D4182D18BF1C2D07D121782846FFF788
S315080009504AFF04206070284632BD172DD6D100F014
S315080009602AF803206070E0E7F8B504460D461646F7
S31508000970002707E0E088411C2044E180BFB2807A66
S31508000980E8557F1CB8B2B04209D2E088218988426E
S31508000990F0D32046FFF798FF0100EBD0F2BD002008
S315080009A0F2BD10B50446FFF78FFF00F004F800F01B
S315080009B01EF8172010BD2278A1780620FFF7A8BDDB
S315080009C080B51949FD220A70887001224A700120F3
S315080009D000E0002000F058FC00F0ACFB0028F8D13D
S315080009E01249087001BD010008BF1920E8E710B5D3
S315080009F082B00F4C207860B1002000F045FC00283A
S31508000A00F8D0002000F06BFB012000F03DFC002030
S31508000A10207040F2DD2269460120FFF7AAFE13BDC9
S31508000A2000E0004000A80040940400208D0D00203E
S31508000A308E0D0020F8B504460D4616461F4607E0FB
S31508000A403046A047294600F066FC05467F1E761C00
S31508000A50B8B20028F4D12846F2BD38B50C4615467A
S31508000A6005E0014614F8010B00F055FC6D1EA9B20D
S31508000A700029F6D132BDF8B507460E4614461D467E
S31508000A8030683B682A4621469847070005D1F06832
S31508000A902A462146FFF7E1FFF060D6F8A800281895
S31508000AA0C6F8A80096F8A70050B1AC362A462146E3
S31508000AB0304600F005FD2A462146304600F080FC07
S31508000AC03846F2BD10B5029C84720381426001600B
S31508000AD000224FF0FF31C1600021017400F1A4012A
S31508000AE0AC300A8080228A700022CA704A602822A6
S31508000AF0BDE81040002100F0BDBA2DE9F84F8B463D
S31508000B0004469BF81B70D0689849802FA8BF802799
S31508000B1088421E4653D1002E4FD0B06800904FF041
S31508000B20FF384FF000090BEB490000F1480A9AF824
S31508000B3000500DE0FFF775FDE80240F000620098EE
S31508000B404FF400634146FFF775FF6D1C8046ADB252
S31508000B509AF80100A84205DA09F10109B9F1060F68
S31508000B6002DAE0E7FF2DE5D1DBF844006FEA080179
S31508000B70884224D1A068736800BA7A08594698470B
S31508000B80C8B9E06805BAA06802BAB0683B464FF033
S31508000B90FF31FFF74FFFC04385420CD140F6A7202F
S31508000BA0ABF810000122A068736800BA0BF11001B7
S31508000BB01030984708B1422002E0172000E0432091
S31508000BC0BDE8F28F2DE9F04F894609F1040783B095
S31508000BD08046D7F800B0B888ADF804001646042356
S31508000BE05A464046FFF747FF010077D1BBF8000099
S31508000BF040BA80B20090BBF8020044BAA4B2E0073B
S31508000C0006D500984FF20861884218BF462065D17C
S31508000C10B4F5026FC8BF4E2060DC002C5DD000988A
S31508000C20DFF84CA109F13C0540B14FF60441401AE2
S31508000C3053D0FF3856D0FE3854D095E0387B08B1EB
S31508000C4051204BE08D2C28BF4F2047D2234609F16F
S31508000C50180249464046FFF70EFF01003ED1EA78E2
S31508000C60802AA8BF802202F10C00844201BFB88AFC
S31508000C7040BA00F47F40B0F5007F31D1F88A40BA17
S31508000C804EF25031884202BF388E40F6A72188427C
S31508000C9026D1788E00F47F40B0F5807F01BFB86911
S31508000CA000BADAF81C1088421AD14FF6FF70388657
S31508000CB009F124014FF0FF30FFF7CFFEF96909BAB1
S31508000CC0C943884204BF2878042809D168781E28B1
S31508000CD018BF062804D1012038730020BDE8FE8F0E
S31508000CE04520FBE7387B08B94120F7E7042300F0E5
S31508000CF041F80100F2D1DBF8000007BADAF81C0067
S31508000D00241F8742A4B238BF4820E7D3E96BE0190D
S31508000D10884228BF4920E1D200984FF603518842FD
S31508000D200AD14EB1326839460220904720B14A208E
S31508000D30D4E7641BA4B2EF19002CCED0BDF804008A
S31508000D408442B4BF254605462B4600F013F8010039
S31508000D50C4D1002EEDD073686A08594638469847BC
S31508000D600028E6D04B20B9E74420B7E7E320BBDEEE
S31508000D70000000085A46494640467CE62DE9F047F9
S31508000D8015462E1D0446B6F804A0102C894638BF11
S31508000D904E2031D305F1AC080423424600F02EF864
S31508000DA0010029D10C2305F1B00200F027F8010053
S31508000DB022D1D5F8AC0000BA103CC5F8AC00A4B2F4
S31508000DC02146404600F0C4FA05E031683A464046F6
S31508000DD000F0F6FAE41BA0B250B1A7B2574588BF97
S31508000DE0574632683B4600F009F80100EDD003E0AB
S31508000DF0404600F008FB0020BDE8F0872946484633
S31508000E0039E62DE9FE4F8346884608F1A40608F11F
S31508000E100404B0782568832891464FF6071A05D149
S31508000E20B788822250465146B2700DE004232A46FE
S31508000E305846FFF720FE01006AD12888698840BA1B
S31508000E4080B24FBABFB20146FA0706D54FF6062258
S31508000E5091421CBF514546205AD14FF20972B178CA
S31508000E60801A56D04FF4FF72801A37D0FF382CD02C
S31508000E70FF3802D0FF3868D07FE0802967D1062F77
S31508000E8020D3062301AA41465846FFF7F4FD010080
S31508000E9019D1BDF8040040BA00F47F40B0F5007FD0
S31508000EA001BFBDF8080040BA4EF25031884209D158
S31508000EB0BDF8060041BA012903BF40BA30800020B8
S31508000EC0522000E04520812155E081293FD1424644
S31508000ED059463846FFF752FF82214CE0822936D11F
S31508000EE0042F2DD30120F0704A4600207060414639
S31508000EF05846FFF767FE010022D10021F17071689C
S31508000F008F421DD3B94239D28322791AB2707160E1
S31508000F1034E082291BD108F1AC09484600F073FA7F
S31508000F20A088B842B8BF4F2028DB3B4600F028F817
S31508000F30010023D1FAB22946484600F08AFA08B9D0
S31508000F4054201BE00020842115E0842901D051207B
S31508000F5014E0042F18BF4C2010D1042300F010F819
S31508000F6001000BD14B46424608F1240108F1140052
S31508000F70FFF7C3FD8521B17000E04420BDE8FE8F70
S31508000F802A464146584676E570B50D4604462889F0
S31508000F908028164601DA4F2070BD00F0CDF908B951
S31508000FA0532070BD324629462046FFF72AFF0028FF
S31508000FB018BF172803D08F2185F8A61070BD95F89D
S31508000FC0A600852806D1286861688847172805D1AC
S31508000FD0002070BDA87A0028E4D0502070BD00001B
S31508000FE000F068B810B5044600F00EF850B1124883
S31508000FF0124982781144897821708178491C817058
S31508001000002010BD012010BD10B50B4C207888B902
S3150800101000F03AF978B1607840B1002000F05FF846
S31508001020012000F031F90020607010BD0120207009
S315080010300020A070012010BD8D0D002004040020A2
S315080010407047814212D210441144401E491E93B281
S31508001050002B1EBF11F8013900F80139521EF6D1CE
S31508001060704711F8013B00F8013B521E93B2002B62
S31508001070F7D17047130003D00A46194600F04CBA58
S31508001080704710B500E0521E93B223B100F005F880
S31508001090F9D0181B10BD002010BD10F8013B11F83F
S315080010A0014BA342704700008B48002141718171B2
S315080010B000F066BA80B58848002181700121C170A8
S315080010C00171002101700921417000F088FAFFF7CB
S315080010D0EBFF00F085FABDE8014000F093BA58B17D
S315080010E07E480168C90705D50068C00602D57C494F
S315080010F080200860002000E001207749C87070470A
S3150800110075490A7922B90870012200200A714870C7
S31508001110704710B5044600F0ACFA72484078A72824
S3150800112007BF714804700320FFF7EAFFBDE81040C7
S315080011300120A9E0684880797047F8B5664C6B4D80
S315080011402179664E0A0004D03268D20644BF80224E
S315080011506A60A278A2B18020686001E0FFF761FAB0
S315080011603068C007FAD5802028600020A070E07893
S3150800117020B93220FFF7D2FA802068600020F2BD3D
S315080011806279594F104225D031B1002020710222D0
S3150800119021463846FFF755FFE07808B180202860D9
S315080011A03878052803DAA720B87003200DE0FE2852
S315080011B018BFFD2806D179783944A7208870787831
S315080011C0C01C02E0A72078700220A071A07900F068
S315080011D06BFAD1E7A0790028D0D100F076FA30B9B9
S315080011E03068C00603D500F077FA00F04BFA00F035
S315080011F083FA0028C2D0012060718020286000F0A0
S3150800120086FA384D00BB00F08AFA0028B6D028784E
S315080012100A2806D00B2808D0FD2818BFFE2806D0B5
S31508001220ACE78220FFF775FFA8E7C120FAE76878E0
S31508001230862805DBFFF738FF0120FFF761FF9DE7EA
S3150800124000F071FA002899D000F009FA00F011FAB6
S3150800125000F013FA207918B1012000F015F88DE78F
S31508001260687828448078A72803D00320FFF748FF2A
S31508001270F2E72878FE2803D10420FFF741FFEBE7C1
S31508001280FD2038700120F2BD70B5134E174D044687
S31508001290B07900F052FA18B18020286001207071E8
S315080012A000F052FA08B10120B07000F055FA70B19A
S315080012B080202860B07900F05AFA10B90220FFF7AA
S315080012C01FFFFFF7F1FEF07808B980206860204616
S315080012D0BDE8704031E70000860D002008B40040E4
S315080012E014B80040040400209404002010B80040FC
S315080012F00A46090241EA12214840C0F30311484050
S3150800130080EA003041010206C9B2D20E41EA022142
S31508001310484080B270470A0A484000F0FF0008219A
S315080013204308C00746BF034858401846491EF7D128
S31508001330504070472083B8ED00206049095CFF29BA
S3150800134001D001207047401C1028F6DB00207047AA
S3150800135012B5044683B02068039900BA00903A2073
S3150800136001B17A2020740C22211D04F11100FFF727
S3150800137068FE03220DF1010104F11D00FFF761FE6D
S3150800138000F03CF80398D0B1B0F57F4F05D200BA0B
S31508001390039002220DF10E010EE00FF2781000887C
S315080013A0ADF804000222039800BA039001A920466A
S315080013B000F006F8042203A9204600F001F81FBD34
S315080013C0F8B504460D461646002714E094F825009D
S315080013D0EA5D2044017C5140017494F82500401CC4
S315080013E084F82500C0B2102804D300F007F80020BE
S315080013F084F825007F1CB742E8D3F1BD2F4904F1D4
S31508001400100000F017BA1FB504466846102100F010
S315080014101BFA94F82500C0F11000C11000EB1171F9
S315080014200911A0EB011269462046FFF7C9FF1FBD47
S315080014301FB50C46011D6A46002000F027F800205B
S31508001440215C1DF8002051402154401C1028F7DB70
S315080014501FBD38B5102A04460D4607D1216A94F8EF
S315080014602420206802EB0111884201D0002032BDF9
S3150800147029462046FFF7DCFF102204F11001284612
S31508001480FFF7FFFD401E8041C00F32BD11B581B088
S3150800149000BA01901446022020700C22601CFFF747
S315080014A0D0FD03220DF1050104F10D00FFF7C9FD7A
S315080014B00249204600F0BEF913BD0000F8080408EA
S315080014C02DE9FF4104460D4690460020002704F109
S315080014D020061AE0010006D130686A46211D401C24
S315080014E0FFF7D4FF01203379E95D1DF80320514049
S315080014F0E9553179491CC9B2102904DB3068401C0A
S3150800150030600021002031717F1C4745E2D3BDE8D9
S31508001510FF810000FFFE000062F30F2262F31F4204
S31508001520401810F0030308D0C91A1FD3DB0748BFB9
S3150800153000F8012D28BF20F8022D130030B41446F8
S315080015401546103928BF20E93C00FAD8490728BFB4
S3150800155020E90C0048BF40F8042D890028BF20F870
S31508001560022D48BF00F8012D30BC7047C91818BFB6
S3150800157000F8012DCB0728BF00F8012D70470000A1
S315080015807F48016C4908490001641022016C21F466
S31508001590007101647B490A6320220A6300224A65B6
S315080015A00A664A668A6502224A65774A0A608D3261
S315080015B04A60764A0A618D324A61754A1268D206CD
S315080015C009D5026C42F001020264026C42F4007210
S315080015D0026401220A634FF6FF7101607047704783
S315080015E06C48016801F00F0141F4884141F090010F
S315080015F0016041680909090141F0040141601021AF
S315080016000161704710B5644964484FF480520A6016
S315080016100023C3645F4B1C682409240144F00804B2
S315080016201C6001241C6104605D4B5E4C1A604022FC
S31508001630C2644FF480420A60002141650C21216092
S31508001640042101601A602021416580215648C16045
S31508001650016821F4704141F48051016010BD53487E
S315080016600168490849000160016821F400710160B8
S3150800167070474F4910200860704741494FF4007081
S31508001680086070473E48012101604FF4007101600F
S31508001690016C41F001010164016C41F400710164BF
S315080016A00120434908607047384A42498018401E5D
S315080016B008600122FF208862314802600422CA615C
S315080016C0016C41F00101016470473B48006810F065
S315080016D0010018BF01207047384881B001688DF8AD
S315080016E0001001688DF8001001688DF80010006878
S315080016F08DF8000001B070473148006818B92048D5
S315080017000068800501D501207047002070471C48F5
S31508001710006810F4007018BF0120C0B2704728484E
S315080017200068022805E02648174900684978C91C58
S3150800173088428041C043C00F70471148006810F0C6
S31508001740010018BF0120704714480168C90701D570
S31508001750012109E00020704710480168490701D5B2
S31508001760042101E0002070470160012070471549F7
S315080017700968814201D000207047012070470000A7
S3150800178008A8004000C80040040400209404002073
S3150800179008B4004000B4004080E100E014A800400E
S315080017A080E200E014BC004004B8004048A80040AD
S315080017B030C8004014C800402CC800403CC800404F
S315080017C020C8004028C800400268174912BACA60F3
S315080017D0426812BA8A60826812BA4A60C06800BA59
S315080017E00860704710B5114980220A600623104A1E
S315080017F0136007230B6013689B07FCD5002350F87A
S3150800180023405B1C24BA042B8C62F8D313685B074D
S31508001810FCD500220B6B1BBA40F82230521C042A56
S31508001820F8D310BD000000003830004000300040FA
S3150800183010A0004010B504460846FFF7C5FF20462D
S31508001840BDE81040CEE70000002200F001B8000015
S3150800185000B500BF130096469446103928BFA0E885
S315080018600C50FAD85FEA417C28BF0CC048BF40F844
S31508001870042BC90728BF20F8022B48BF00F8012B04
S3150800188000BD00002748018A40F6A772914202BFB0
S31508001890408A4FF47F41084203D1022801DB012028
S315080018A0704700207047F8B504461D4E0120307079
S315080018B00D46FFF7E7FF18B94FF40170FEF782FCF3
S315080018C01848876A294644F48070B8470021317061
S315080018D00FF2540618B9294644F40070B847305C2C
S315080018E0F2BD2DE9F041044688465600FFF7CAFFC7
S315080018F018B94FF40170FEF765FC0A480FF228057F
S31508001900476A0023324641462046B84720B933463F
S31508001910002241462046B847285CBDE8F081000011
S31508001920960D002000000408000202024B4B4647B1
S311080019302A083A08EE0834B60100FFFF4A
S705080000757D
