S0110000656D3236302D756172742E73333790
S31508002000D821002061470208D9460208DD460208A1
S31508002010A70A0A0100210008041103AC0061540054
S3150800202000000000000000000000000000000000A2
S315080020300000000000000000000000000000000092
S315080020400000000000000000FFFFFFFFFFFFFFFF8A
S31508002050FFFFFFFF007002080000000000000000FC
S31508002060FFFFFFFFFFFFFFFFFF000000000000006B
S315080020700000000000000000000000000000000052
S31508002080F02F002000000000EC2F0020EC2F00208D
S31508002090D8210020245102085C4A0208781800203A
S311080020A0B40F00200000030800300020E8
S31508002100D821002061470208D9460208DD460208A0
S31508002110E5460208E1460208E94602086047020861
S3150800212060470208604702086047020860470208DD
S31508002130ED4602086047020860470208FBC9010825
S31508002140A34602086047020873E2010860470208CE
S3150800215071E1010895F50108604702086047020821
S3150800216029EC010815B0000841DC000839400208CE
S3150800217060470208604702086047020845AA000847
S3150800218027EE010860470208604702086047020810
S3150800219010B58C0801EB5474E408A1EBC40103687C
S315080021A0012409E010B54C0801EB9474A408A1EBCE
S315080021B08401036889000F2400F05EF8016010BDF1
S315080021C038B500F0D9F8044600F0D6F8054600F010
S315080021D0D3F800F00102182C05F00F0528BF3620A9
S315080021E038D24FF4F050E040C00748BF382031D409
S315080021F0E00803D0022807D003D309E021464F4858
S3150800220004E021464E4801E021464E48FFF7C0FF4C
S31508002210A00805281DD8DFE800F003070B0F1317E1
S315080022202A462146484812E02A46214647480EE0F3
S315080022302A46214646480AE02A462146454806E0F7
S315080022402A462146444802E02A4621464348FFF7E3
S31508002250A9FF0020BDE8324000F0A7B84B0810B52A
S3150800226001EB93739B08A1EB8301890003880F2474
S3150800227000F002F8018010BD8C40A34302FA01F178
S31508002280194370478B0810B501EB5373DB08A1EBB4
S31508002290C30103780124FFF7EFFF017010BD2DE994
S315080022A0F04100F069F8044600F066F8054600F0CB
S315080022B063F8064600F060F8074600F05DF805F09A
S315080022C00F0200F00108182C06F0010507F00F07A9
S315080022D028BF362022D24FF4F050E040C00748BF4E
S315080022E038201BD4600804EB907086081C4800F060
S315080022F019F81C483A4600F015F8A00804EB507087
S31508002300C70819482A4621463844FFF7BBFF17482D
S31508002310424621463844FFF7B5FF0020BDE8F041A4
S3150800232000F043B8214600EB460097E780B500F079
S315080023305FF80F4908400F49086001BD0CB000401E
S315080023400CB400400CB8004000B0004004B0004097
S3150800235000B4004004B4004000B8004004B800408F
S315080023603C2200204C22002038220020482200204F
S31508002370FFE1FF00702800202A480168491C016017
S3150800238011F8010D704738B50446264D08462968E8
S31508002390224600F026FA28682044286031BD214AE2
S315080023A0116808441060084670471F491F4B0A68A1
S315080023B01B68D31ADC2BB8BF10700868401C08606D
S315080023C0704710B50446C0B2FFF7EFFF200A48E091
S315080023D010B5FFF7D1FF00F042F904EB002080B2F8
S315080023E010BD10B5044680B2FFF7EBFF200CB7E02E
S315080023F010B5FFF7EDFF00F05EF804EB004010BDE6
S3150800240038B5094C094A2368126805469A1AAA1863
S31508002410DD2A03DA0246184600F0E3F92068284464
S31508002420206031BDC4280020C82800204C24002084
S3150800243010B500F042F8FFF7CBFF2081FFF79CFFAD
S31508002440A072FFF799FFE072FFF796FF2073FFF778
S31508002450BFFFE081FFF790FF2074FFF7C9FF6061B7
S3150800246010BDBDE81040A0E710B500F024F82080A4
S31508002470FFF7AEFF6080FFF77FFF2071FFF77CFF55
S315080024806071FFF7A5FFE080FFF7A2FF2081FFF745
S3150800249073FFA07210BD10B500F00AF8A078E0E747
S315080024A010B500F008F82080FFF766FFA07010BD91
S315080024B00446208885E704468AE70446214608201C
S315080024C061E710B500F0CBF8A070FFF781FF208018
S315080024D0211D00F0C2F8FFF74FFF00B10120E070A0
S315080024E0FFF74AFF2073FFF747FF607310BD10B56B
S315080024F00446214600F07FF82069BDE8104070E7E1
S3150800250010B50446214600F078F8FFF771FF206100
S3150800251010BD10B5FFF7CFFF208010BD207944E726
S3150800252010B50446FFF7CDFF04F1100000F01BF8C4
S3150800253004F11C0100F091F8FFF74AFF24F8240F74
S31508002540FFF746FF6080FFF717FF2071FFF714FFBC
S315080025506071FFF711FFA071FFF70EFFE07110BD64
S31508002560BDE810402DE710B50446FFF741FF20608F
S31508002570FFF73EFF6060FFF72BFF208110BD10B507
S3150800258000F010F800F08CF8E088FFF71AFF2089B1
S31508002590FFF717FF6089FFF714FFA089FFF711FF00
S315080025A0A07B5EE7044620681BE710B50446FFF7E4
S315080025B01FFF2060FFF70CFFA080FFF709FFE080F0
S315080025C0FFF706FF2081FFF703FF6081FFF700FF93
S315080025D0A081FFF7D1FEA07310BD10B5FFF7E2FF8B
S315080025E0FFF79CFF611D00F006F804F11501BDE830
S315080025F01040102004E7102002E71020C3E610B5AB
S315080026000446207AFFF7D1FE207A010006D1206819
S31508002610FFF7E7FE2068FFF7E4FE04E0022802D190
S31508002620214600F002F8607A1BE70820E8E610B5B4
S3150800263000F015F80100207206D1FFF7D9FE2060D8
S31508002640FFF7D6FE206004E0022802D1214600F0FA
S3150800265004F8FFF791FE607210BD082093E6044661
S315080026608AE638B5044602252078FFF79EFE2078CC
S31508002670401E012806D96089FFF7A3FEA11CFFF7B3
S31508002680D4FF09E000F00CF800F00CF800F008F8A8
S3150800269000F008F800F004F80C346D1EE4D131BDE2
S315080026A0A0888EE660888CE610B504462078FFF789
S315080026B07CFE6068FFF795FE04F10800FFF79FFFB0
S315080026C0A08AFFF77EFEA07DFFF76FFEA069FFF7E1
S315080026D088FE04F11C01FFF78EFF04F12C00FFF7BA
S315080026E0C0FF14F8440FFFF760FE6078B9E610B52E
S315080026F0FFF7DEFEFFF7D6FFA08831E710B5FFF734
S31508002700DAFE2080FFF764FE6080FFF761FEA08096
S3150800271010BD30B502F8010B002312E031F8234052
S3150800272002F8014B31F82340240A02F8014B01EB69
S3150800273083045B1C658802F8015B6488240A02F836
S31508002740014B8342EADB30BD0CB4F8B505460C46AE
S3150800275006AE08E056F8040B290003D00078FFF708
S315080027601EFE3860641C2078010037D056F8047BBA
S31508002770622827D07028EDD0732818BF752804D092
S3150800278076280CD0772814D0ECE7280003D0FFF77A
S31508002790F3FD3870E6E73878FFF707FEE2E728002A
S315080027A003D0FFF715FE3880DCE73888FFF709FE07
S315080027B0D8E7280002D0FFF71BFED2E73868FFF7F4
S315080027C010FECFE756F8040B00782900394602D0E8
S315080027D0FFF7D9FDC6E7FFF713FEC3E7F1BC5DF8BF
S315080027E00CFB814233D210441144401E491E10E0AE
S315080027F011F8013900F80139121F11F8013900F8EA
S31508002800013911F8013900F8013911F8013900F8D0
S31508002810013992B2042AEBDA93B2002B1EBF11F8E3
S31508002820013900F80139521EF6D1704711F8013BFB
S3150800283000F8013B121F11F8013B00F8013B11F8A3
S31508002840013B00F8013B11F8013B00F8013B92B24D
S31508002850042AEBDA93B2002B1EBF11F8013B00F8ED
S31508002860013B521EF6D17047130003D00A4619469B
S3150800287000F020B8704710B500E0521E93B223B19D
S3150800288000F012F8F9D0181B10BD002010BD10B5C5
S3150800289000E0521E93B22BB100F006F8F9D0181BCF
S315080028A040B210BD002010BD10F8013B11F8014BD5
S315080028B0A342704762F30F2262F31F42401810F0DA
S315080028C0030308D0C91A1FD3DB0748BF00F8012D38
S315080028D028BF20F8022D130030B4144615461039C7
S315080028E028BF20E93C00FAD8490728BF20E90C0090
S315080028F048BF40F8042D890028BF20F8022D48BF9C
S3150800290000F8012D30BC7047C91818BF00F8012D12
S31508002910CB0728BF00F8012D7047000010B5044604
S3150800292000F0A2FD204601F090FD204602F066FA6E
S315080029302046BDE8104002F017BC01F0CEBD10B528
S31508002940044600F0DEFD204601F0F9FD204602F0BF
S315080029507DFA204602F06DFC2046BDE8104002F0E4
S3150800296005BC10B500E010B5044600F03AFE204656
S3150800297001F0D0FE204602F085FA204602F0C3FC9C
S315080029802046BDE8104002F0FEBE10B5044600F031
S3150800299055FE204601F0ECFE204602F0A2FA09E0B8
S315080029A010B5044600F06FFE204601F023FF2046CE
S315080029B002F0B4FA204602F0BEFC204602F0FBFE06
S315080029C02046BDE8104002F068BC80B503F056F911
S315080029D0BDE8014002F096B910B5044602F094FD30
S315080029E02046BDE8104002F06CBC0198704703F021
S315080029F0B4B970472DE9F04701241028A4B00FF6A2
S31508002A00D415DFF84879DAA3DAA60FF26C39DBA118
S31508002A100FF26C380FF26C3A00F02F8118281CBFA1
S31508002A201D2820286FD0212800F0028122286AD08C
S31508002A30282800F0A580292800F0C8802A2862D016
S31508002A402B2800F047812D2800F065812E285AD0C2
S31508002A50302826D0332800F06381342800F06381BB
S31508002A60352800F0EC82362800F08E81372800F0F1
S31508002A701982382800F0B381392800F047823A28AD
S31508002A8000F0D981422800F055824A2800F0B28029
S31508002A904C2800F0DE825A2800F05E825B2832D08D
S31508002AA05D2800F0D183632800F0A282642800F034
S31508002AB0AC826A2803D06F2800F01383712800F0CF
S31508002AC0E082732818BF772800F0CC837A281AD0BA
S31508002AD0822800F05B82832800F09183842818BF3F
S31508002AE0852810D086281CBF872888280BD08928D7
S31508002AF000F08C838A281CBF8B288D2803D0902849
S31508002B0000F0F483952800F08D83962800F08F82D4
S31508002B109A281CBFA128A428F5D0A62800F05E8311
S31508002B20A82800F0FA82A92800F01383AF2800F03D
S31508002B302D83B128E7D0B22800F0A283B92800F087
S31508002B40BB83BA2800F0BD83BC2800F0BD83BD282E
S31508002B5000F0C583C12877D0C22800F08B80C3282F
S31508002B6000F08580CE2800F01E83E828CBD0ED281B
S31508002B7000F04183EE28C6D0FE2800F05182D4E347
S31508002B8001A9684601F014FC00F00DFC314600204E
S31508002B90FFF7DAFD00F0F7FBBDF80C00FFF711FCB4
S31508002BA09DF80E00FFF701FC9DF80F00FFF7FDFBEF
S31508002BB09DF81000FFF7F9FBBDF81200FFF701FCBE
S31508002BC09DF81400FFF7F1FB069804E308208DF83A
S31508002BD009000DF10A0103A801F010FC8DF80800A0
S31508002BE003AB0DF10A00019002AA0DF1090000904D
S31508002BF0E2A142E200F0E4FB9DF8010001A901F020
S31508002C000EFC00F0D6FB00F0BEFB9DF80C00FFF7AB
S31508002C10CCFBBDF80E00FFF7D4FB9DF81000FFF7BC
S31508002C20C4FB9DF81100FFF7C0FB9DF8120079E37D
S31508002C3001AB0DF10102D2A100F0B2FB01999DF89A
S31508002C40010001F0EEFB2CE30DF1060200F084FB17
S31508002C509DF8060001AA02A901F059FB8DF80500A6
S31508002C6002AB01A800900DF10502C6A105E201F02C
S31508002C7050FB57E301F04FFB54E30DF115000490A8
S31508002C800DF11E030DF11600039006AA0DF11700AB
S31508002C9002900DF11A00019007A8009001200FF28A
S31508002CA02C71FFF751FD9DF81500BDF81A30BDF8D7
S31508002CB01C20BDF81E1002909DF8160001909DF884
S31508002CC0170000909DF8180003F0D8F88DF8140046
S31508002CD005AAE9E2FFF750FB0546FFF74DFB8DF81D
S31508002CE00000FFF749FB8DF80100FFF771FBADF80F
S31508002CF00200FFF741FB8DF804000DF105010820DD
S31508002D00FFF741FBFFF738FB8DF80D0069462846AB
S31508002D1002F036FD06E3FFF72FFB02F032FD01E372
S31508002D2003F019FDBDE20DF1120304AA96A100F005
S31508002D3037FB06A8FFF798FB03A8019003AB05A885
S31508002D4000900DF10F02494600F00CFB0DF10D0045
S31508002D50029006AA05989DF80F30BDF8121001904A
S31508002D609DF80C0000909DF8100001F018FA2FE06D
S31508002D707600000075750000757570006200000029
S31508002D8075700000750000000DF112021946012049
S31508002D90FFF7DAFC06A8FFF767FB03A802900DF118
S31508002DA00F0305A8019004AA03A800F0D9FA0DF1AB
S31508002DB00D00029006A905989DF80F309DF8102081
S31508002DC001909DF80C000090BDF8120001F0F0F992
S31508002DD08DF80E000DF10D030DF10E0234E107A872
S31508002DE0FFF742FB04A8039005AB06A802900DF175
S31508002DF0150204A801900DF11300009001200FF2AE
S31508002E00DC51FFF7A1FC0DF11100029006989DF820
S31508002E1013309DF814209DF8151001909DF81000A8
S31508002E20009007A801F0D0F98DF812000DF11103F2
S31508002E300DF1120208E10AA8FFF716FB06A805908D
S31508002E400DF11D0309A804900DF11E0206A80390B2
S31508002E500DF11B00029007A8019008A80090012018
S31508002E600FF28051FFF770FC0DF1190004900998D4
S31508002E70BDF820309DF81D209DF81E1003909DF882
S31508002E80180002909DF81B0001909DF81C00009008
S31508002E900AA801F0B4F98DF81A000DF119030DF11D
S31508002EA01A02D1E00DF1190000900DF11A0307AAD4
S31508002EB0B5A100F057FA09A8FFF7D6FA05A80290B7
S31508002EC00DF1170308A8019006AA05A800F048FA0C
S31508002ED00DF11500049009AB08989DF81920BDF866
S31508002EE01A1003909DF8140002909DF8170001909F
S31508002EF09DF818000090BDF81C0001F0A5F98DF8A2
S31508002F0016000DF115030DF116029DE00DF10602EE
S31508002F1019460120FFF718FC03A8FFF7A5FA00F0E9
S31508002F2024FA029B9DF80420BDF8060003A901F0C7
S31508002F30C0F972E10DF1050000900DF1060302AA31
S31508002F40DBA100F00FFA9DF805209DF80610BDF8E4
S31508002F50080003F037FD12E100F019FAD5A100F0D8
S31508002F6001FA039A9DF80810BDF80A0003F0A5FEB9
S31508002F708DF809000DF1090296E100BF7562760029
S31508002F8075770000757675007576000008208DF84F
S31508002F9011008DF810000DF10E00029005A80190A1
S31508002FA00DF11100009008AB0FF240450DF10F022C
S31508002FB000F0D7F903A802900DF11200019006A8B7
S31508002FC000909DF80E30BDF814209DF80F0008A952
S31508002FD001F0A3F98DF80D0006AB03A802900DF1D8
S31508002FE00D020DF112000190294604A8009044E054
S31508002FF000F0E6F99DF8010001A901F0B3F900F027
S31508003000D8F901A8FFF747FA92E100F0D9F901A823
S31508003010FFF746FA9DF8010001A901F0B6F940E16B
S3150800302000F0CEF99DF8010004F012FE39E100F037
S315080030309CF902999DF8040001F0D6F8EDE068467F
S3150800304005F0ECFA00F0AFF931460020FFF77CFBFB
S315080030506EE186208DF806000DF1050200F07CF978
S315080030609DF8050002A901F0DFF98DF8040002AB0E
S315080030700DF10600009001AAAFA10020FFF764FB3E
S3150800308056E16A4600F068F938786A289DF8000023
S3150800309001A902D105F0CCFA01E005F02CFE8DF865
S315080030A001000DF1010200F087F9BDF80400FFF7F1
S315080030B088F99DF80600FFF778F90DF10701102049
S315080030C0FFF79EF90698FFF78CF90798FFF789F935
S315080030D09DF82000FFF769F90DF1210100F054F978
S315080030E026E109A8FFF70CFA00F051F9494600F065
S315080030F039F904A80090039B9DF808209DF80A104A
S3150800310009A801F051FE8DF809000DF1090200F039
S3150800311053F904A8FFF7EBF90AE108208DF80E0029
S315080031208DF80D0007AB0DF10D00029004AA05A855
S31508003130019082A10DF10E00009000F013F9BDF880
S31508003140100005AA07A905F0BBFF8DF80C0003AA15
S31508003150AAE008208DF8050002AB0DF105000090E5
S315080031600DF1060276A100F0FDF804A91020FFF77C
S315080031700AF9BDF8060004AA02A905F0E1FF8DF8D0
S31508003180040001AA90E000BF7676750000F0F5F815
S3150800319000F005F903A91020FFF7F5F803A901A81F
S315080031A001F01CFE7DE000F0E8F802208DF8000032
S315080031B000F0F5F803A901A801F018FE00F0F9F8E7
S315080031C003A900F0E1F805A91020FFF719F90998F5
S315080031D0FFF707F90A98FFF704F9A9E000F0C5F820
S315080031E002999DF8040001F0C3FF8DF805000DF162
S315080031F0050200F0E1F801F0D6FFFFF7D6F8FFF771
S31508003200BBF800B1012001F07AFF8BE000F0ADF8C1
S3150800321002999DF8040001F07BFF8DF805000DF179
S31508003220050241E03A780FF2CC10002500E06D1C4B
S31508003230EDB2415D9142FAD1FFF79EF80FF2CC113B
S3150800324051F8251088476DE0FFF796F80546FFF711
S31508003250BFF80146387830280CBF3D4A3D4A284613
S31508003260904765E069461020FFF78DF8387877288B
S31508003270684602D106F052FA54E005F058FF51E0CC
S3150800328001A8FFF74DF90DF101030DF102022DA179
S3150800329000F086F89DF901209DF8021001A802F0B9
S315080032A027F88DF800006A4600F086F840E000BF6F
S315080032B07675750076757000FFF75EF806F0F4FE11
S315080032C030E006F0FCFE2DE004A9684606F0C3FED1
S315080032D06846FFF754F904A8FFF77FF928E068461F
S315080032E0FFF763F9684606F0BEFE21E008208DF870
S315080032F0120006AB04A803900DF1110205A802906E
S3150800330011A104A801900DF11200009000F02AF80E
S315080033109DF8110000B10120059B9DF8102006A913
S3150800332001F0EAFAFFF741F802E006F009FF044661
S31508003330204624B0BDE8F087756200007662620018
S31508003340766200007573000075627000B22F002067
S315080033509F5900085DFB000851460120FFF7F4B9A4
S31508003360009029460120FFF7EFB901A8009002ABAB
S3150800337001AA41460120FFF7E7B908208DF80100A8
S315080033800DF10103704701A90820FFF739B802A813
S31508003390019002AB03A800900DF10A02704701AA3A
S315080033A00120FFF7D1B98DF801006B460DF1010236
S315080033B070478DF800006A4651460020FFF7C4B9E9
S315080033C00DF1010251460120FFF7BEB975767676F2
S315080033D075757500757575700000000075757575DD
S315080033E0700000007575767575757000756276756E
S315080033F000000000181D207A2A84858687888B8A13
S315080034008D959A2E5BB1A4A122E8EE0027E9000863
S3150800341029770108511A0108358B0108C55C00088F
S31508003420E55E0108655F01087B5F01088F5F01089B
S31508003430AB5F0108436001082D600108716001084F
S3150800344029CD00080D840008C9690108CD6901085D
S315080034503F8F0008B9B40108C7B401086D700008A9
S31508003460DD600108EB60010838B5044620780028BD
S3150800347046D16070012020722070A078032832D0CF
S31508003480072834D0112808D0152833D0302818D06A
S31508003490312819D032281AD030E00720DFF8945B9B
S315080034A0207204F10900298807F0DAF9A878E07291
S315080034B0E8782073287960736879A073A879E0732F
S315080034C031BD07F0F3F917E007F0B4FA14E0042069
S315080034D0207207F0FCF904F10901BDE838400246FC
S315080034E0012007F0C1B9DFF8500B007804E007F0B7
S315080034F053FC01E008F0B7F8607231BD0020207077
S3150800350031BD38B504462078002869D101202070DD
S31508003510A078042814D007281FD00E2825D01128F3
S3150800352059D0152841D0172844D018284CD0192826
S315080035304DD0302833D031281FD0322823D04DE043
S31508003540207A01282FD1607A00B10120DFF8EC1A21
S315080035500870002008F0F8F93BE0607A10B107F02F
S31508003560E9FB39E007F0F8FB36E0607A00B10120A4
S3150800357007F076FA00282FD015E0607A00B101200E
S3150800358007F040FA0EE0207A04280CD104F109016C
S31508003590012007F077F907F09EF9E8B103E0607AB1
S315080035A007F086F9C0B1362016E094F9090008F04C
S315080035B032F80EE0657A04F10A0007F04AF9014686
S315080035C0284608F084FA04E008F07CFA01E008F0DE
S315080035D06CFA002000E03720607031BD00202070B2
S315080035E031BD10B50446DFF8580A00792178562807
S315080035F00CBF0120002001BBA1706178072910D1FA
S3150800360030B108F0BBFA012814BF632062200EE02F
S31508003610E07862280CBF0120002008F0B2FAA070FA
S3150800362009E0042909D1DFF81C1A10B10878E070FE
S3150800363001E0E07808700120207010BD017809BB10
S31508003640817001210170417801290ED00C2909D019
S3150800365017290DD02D2902D034290CD010E0DFF817
S31508003660E8190AE0DFF8E41907E0DFF8E41904E0EE
S31508003670DFF8E01901E0DFF8E01909788180704782
S3150800368000210170704738B50446207800285AD1C1
S31508003690012020700020A0706078012815D00C2821
S315080036A00FD017283DD02D2802D0342844D048E022
S315080036B0A18803293DDAC9B2DFF88C0908F0D0FBE6
S315080036C038E0A088DFF8841939E0DFF89009008827
S315080036D028BBA08818B3DFF88859287808F0EAFDCF
S315080036E008F03AF880B1A188DFF86409C9B208F091
S315080036F0B7FBA07008F03AF8DFF86809DFF8681930
S315080037000068401D086001E03820A070012008F01C
S3150800371066FD28700020DFF85419088031BD38206E
S3150800372008E0A08809F04DF918B9A088DFF824192F
S3150800373005E03620A07031BDA088DFF81C19087096
S3150800374031BD0020207031BD80B501208DF8000004
S315080037506846FFF741F99DF8000002BD2DE9F04FD4
S31508003760A7B008F040F808F05BF8DFF8F8880446D8
S31508003770D8F80000817800270225FF294FF00309B1
S315080037802DD1C1780679042511F03F004FF00509BF
S3150800379018BF492723D108060AD509F0BDFB28B169
S315080037A009F0BEFB123C0746E4B218E0482716E0CB
S315080037B009F0B9FB002818BFCB2E0AD0CA2E18BFAD
S315080037C0CC2E06D0CD2E18BF002E02D0AA2E18BF9A
S315080037D0482709F0A1FB00281CBFCC2E4A27D8F899
S315080037E00000465D90F801A0DFF854580AF003017E
S315080037F08DF808102E71017869704844DFF8701842
S315080038000860DFF8641808604FEA5A1000F00300F1
S31508003810687109F04EFC380018BF582604D15FEAD3
S315080038200A6002D55826322082E2A87820B928797B
S3150800383010B1582630207BE209F014FF10B958263B
S31508003840422075E2FFF780FF002800F0738228798E
S31508003850A978DFF820B8020095A70FF2582A4FF684
S31508003860FF7974D0012800F0F281022800F0AC80BC
S31508003870032800F0FE80052834D0062800F045818C
S31508003880092818BF0A2800F048810B2818BF0C28F9
S3150800389000F04A810E2800F05E81122800F0A3810C
S315080038A0132800F0D981172800F0E981262800F0AE
S315080038B0D981272800F0DE81472800F0D0814928E1
S315080038C000F039814E2800F06D81522854D05328D3
S315080038D069D0552800F09080562800F0A480652805
S315080038E02AD0812800F006818F2800F0F5819128DA
S315080038F000F00D82942800F0FC819D2800F0A2813A
S31508003900AA2800F0AC80AB2800F0D680AC2800F0DE
S31508003910E880AD2800F0E880AE2800F0E880CA28E4
S3150800392000F0B781CB2800F0BD81CC2800F0C88113
S31508003930CD2800F0C881F12800F07181F5281AD049
S31508003940F62800F00681FC2800F0A081EBE1FEF7DE
S3150800395013FD04460620FEF728FD0220FEF725FD86
S315080039604FF4C240FEF72DFDA878002808BF062CA4
S3150800397001D10120A870DDE100F00AFAFEF7FCFC8F
S315080039808DF801006846FFF700F89DF8000028B991
S3150800399037208DF802000020ADF8040001AB0DF1C8
S315080039A00202B3A157E0012918BF382023D100F03D
S315080039B0EFF901AB0DF10102ADA10120FEF7C4FE3E
S315080039C06846FEF7EDFF25E03827012912D1611F69
S315080039D0C9B2052007F010FF0446FF2C08BF35279B
S315080039E008D009F051FE002814BF002736272046C4
S315080039F008F060FC38469BE1042200F0CAF90DF194
S31508003A0003030DF1010239460120FEF79DFE6846C3
S31508003A10FEF7A9FF9DF8000010B937208DF80200BF
S31508003A209DF8020084E1042200F0B3F9FEF7A4FC35
S31508003A308DF801006846FEF794FF9DF8000028B946
S31508003A4037208DF8020000208DF803000DF10303DE
S31508003A500DF1020239460020FEF776FE6AE100F013
S31508003A6092F9FEF789FC8DF80E0003A8FEF756FFBB
S31508003A700BE000F088F904AB0DF10E02CFA101208E
S31508003A80FEF762FE03A8FEF758FF9DF80C0028B95A
S31508003A9037208DF80D0000208DF8140000F06CF921
S31508003AA00DF10D0251460020FEF74EFE42E100BF21
S31508003AB0757500007575620000F065F900F05CF92F
S31508003AC00DF10E0251460120FEF73EFE03A8FEF751
S31508003AD036FF9DF80C0000280CBF37209DF80D0016
S31508003AE026E1FEF76DFB25E1FEF7D9FB22E1FEF79D
S31508003AF01DFC1FE1062CFCDBDFF86C05DFF86815FA
S31508003B0000680019401F086014E1012000F045F91B
S31508003B10002840F02A8107260CE109280CBF01205D
S31508003B20002002F0F3F805E10C280CBF0120002064
S31508003B3000F0E6F9FEE0012168460AF057F928B1D7
S31508003B400020FEF732FCBDF8000095E03620FEF7AF
S31508003B502CFC002090E0FEF70FFC8246FEF738FCAE
S31508003B608146FEF709FC0746FEF706FC0446B9F54A
S31508003B70004FB4BF042F702011DABAF1020F0FDA22
S31508003B800BEBCA0A3A46DAF8000049460AF002FA86
S31508003B90AAF8049004B900278AF806700020C7E03E
S31508003BA07020C5E0FEF7E8FB814600240020B9F145
S31508003BB0020FADF802008DF800000BDA5BF8390049
S31508003BC06A460DF102010AF0F5F90BEBC900807996
S31508003BD000B10124BDF80200FEF7F3FB9DF80000D2
S31508003BE0FEF7E3FB83E0FEF7C7FB040018BF0124DA
S31508003BF000200AF011FA07463A46FF2A08BF18209D
S31508003C0029D0002C14BF48460220BCA10AF052FA5B
S31508003C100020FEF7CAFB384608F04CFB8AE04FF056
S31508003C200009DFF8544434F81900FEF7CAFB09F115
S31508003C300109B9F1280FF6DB287965287AD107F04A
S31508003C4034FF77E0FEF7C4FB07F061FE72E0FEF78B
S31508003C5093FB0AF089FB6BE009F013FD6AE009F0B3
S31508003C6007FD67E0DFF814140820FEF7C9FB61E0DA
S31508003C70757600000AF039FDFEF7A3FB5AE06846A0
S31508003C80FEF747FC684603F005FB51E00AF0D4FE50
S31508003C904EE000F06DF8FEF7ABFB014603A80AF00C
S31508003CA0D7FE45E0FEF768FB044607A900F061F871
S31508003CB003AA07A920460AF0CDFEFEF776FB21E007
S31508003CC00AF0CAFE34E068460AF0C8FEFEF76DFB45
S31508003CD00098FEF786FB2DE00AF0EEFE0124484523
S31508003CE005D0FEF749FBDFF8981300240870204634
S31508003CF01EE000F03DF807A900F03BF807A903A865
S31508003D000AF020FF03A91020FEF77AFB12E00AF05A
S31508003D10D3FEFEF756FB0420FEF747FB1120FEF7FD
S31508003D2044FB032004E0FEF765FE18B95826312047
S31508003D30FEF73BFBD8F8001068780870D8F8000042
S31508003D408178002902BF29780029867004D0FF21CE
S31508003D508170D8F800000671072E0CBF01220022D8
S31508003D609DF80800012100F02BF827B0BDE8F08F78
S31508003D7003A91020FEF707BB05A8019005AB0DF1B6
S31508003D801500009070478C22002103A8FEF76CBD31
S31508003D90062200216846FEF767BD10B50446AF48FF
S31508003DA0008848B107F047FD30B1B64800780122CF
S31508003DB0214600F005F8012010BD000075770000C7
S31508003DC02DE9F84FA74F0446386888468178934608
S31508003DD002254FF00309FF29A349096804BF0425F2
S31508003DE04FF005090E1A09F097F80028B6B21EBF5B
S31508003DF03868405DCC281CBF1236B6B25FEA0B00A5
S31508003E0004D038684078C0F3411A02E009F04DF949
S31508003E1082468D4909788A4505D340F229410FF231
S31508003E2070200AF09BFE4FEA4A1040F08000DD2E13
S31508003E305FFA80FA05DBDC2007F0F8FC4AF0020A94
S31508003E4002E0F0B207F0F2FC7D48C17819B1002112
S31508003E504AF0020AC1708C490A781AB100224AF05F
S31508003E60010A0A707D4E318809B14AF0040ABBF18D
S31508003E70000F06D05FEA080114BF4AF0080A4AF0A4
S31508003E80100A396881F801A03968897811B90121C1
S31508003E9001700FE009F040F800281EBF3868415D40
S31508003EA0CC2904D08021C17009F038F802E03968BD
S31508003EB00020C87009F037F848B13868415DCB2949
S31508003EC001BF10F809000028022009F02BF8012C80
S31508003ED030886C4A18BF022C05D108B9147004E062
S31508003EE00020107004E0147010B9002007F02CFDB3
S31508003EF04046BDE8F24F07F067BC000062000000CC
S31508003F002DE9F0419AB00446FEF736FA0546062D25
S31508003F1013D1002C39D12820FEF747FA5B480188CF
S31508003F200223224601A80AF04DFFBDF80400FEF759
S31508003F3048FA641C142CF1DB79E0082D1DD124BB4A
S31508003F404020FEF732FA042322460D2168460AF07D
S31508003F5039FF9DF80000FEF728FA9DF80100FEF7E4
S31508003F6024FA9DF80200FEF720FA9DF80300FEF7F2
S31508003F701CFA641C102CE6DB59E00B2D01D124B980
S31508003F8052E0200003D0092D01D170204DE0002613
S31508003F900FF2101000EBC6073878854230D197F833
S31508003FA00180200004BF4046FEF7FFF978680188C3
S31508003FB04346002202A80AF005FF200027D0FEF794
S31508003FC0DBF997F80180404501D002202DE000205A
S31508003FD000E0401CC1B2414502A905D2C0B2095C45
S31508003FE0FF29F6D0462020E04046FEF7CCF978684F
S31508003FF00088424602A90AF076FF0020FEF7D5F9A6
S31508004000761CF6B20A2EC3D374B1B1200DE0092D81
S3150800401005D1152200210DF14E00FEF725FC787812
S3150800402002A9FEF7EDF902E00020FEF7BEF91AB084
S31508004030BDE8F081AC4E0208EA230020B52F002027
S31508004040AE2F002006240020F1230020AA2F0020EE
S31508004050E9230020B42F0020F32300206A2E002035
S315080040601C2400204C240020C828002036290020C3
S31508004070C42800205C230020C02A0020AC2A002087
S315080040801E240020D32F0020682E0020904E020800
S31508004090636F6D6D616E642D68616E646C657273B5
S315080040A02E63000001100000844E02080210000072
S315080040B0864E020803020000884E0208051000001A
S315080040C08C4E0208070800008E4E02080002000007
S315080040D0804E0208040200008A4E0208095C0000AD
S315080040E0924E02080A140000944E02080C080000BA
S315080040F0824E02082DE9F84F80460D46DFF8900BF0
S315080041000A99067801247E2991469A46A8BF742002
S3150800411043DA080003D00B9808F04FF901E000F0E5
S31508004120C5F883460C9FBBF1FF0F03D10020182466
S31508004130387031E0342E06D0362E0ED0382E13D0F5
S31508004140962E18D01AE05B464A462946404602F0A3
S3150800415029F8044602F066FD10E05B4642464946E9
S31508004160284602F07FF808E05B46EAB24146484630
S3150800417002F0F3F801E00BF05DFB0446962E1CBF37
S3150800418099F80A00387024B9DFF8080B006800F8B7
S315080041900BA0584608F08EF82046BDE8F28F10B5F9
S315080041A084B0089C0294079C0194069C009407E03E
S315080041B010B584B00446104600F00FF80A462146AA
S315080041C0FFF798FF04B010BD10B5044684B0084642
S315080041D0114600F002F82246F2E7089A0292079A78
S315080041E00192069A00927047E0B50022019100906C
S315080041F00292002300210020FFF77CFF0EBD2DE967
S31508004200F04683B00D460C990746080091469A4633
S3150800421003D00D9808F0D1F801E000F047F80446FD
S315080042200E9EFF2C03D10020182530700BE00A984B
S315080042300190CDF800A023464A462946384602F0A2
S3150800424071F800F027F822E02DE9F04683B0894698
S315080042500C990546080092461F4603D00D9808F0AB
S31508004260ACF801E000F022F804460E9EFF2C03D1BC
S315080042700020182530700AE00A98009001943B4601
S3150800428052464946284602F00FF800F003F8284639
S31508004290BDE8FE860500B87A307004D1DFF8F41957
S315080042A009680B980855204608F004B8002008F05D
S315080042B063B838B5DFF8E0492080C888440606D5D3
S315080042C0DFF8D8492478202C03D1000401D47020C3
S315080042D032BDDFF8CC491000216004D011461846DB
S315080042E008F06BF801E0FFF7E1FF0546FF2D08BF70
S315080042F018240AD020684088294602F033FA044672
S3150800430002F090FC284607F0D5FF204632BD02F0A1
S3150800431009BC0BF0CDBB0BF0C7BB2DE9F041069FDE
S315080043200D4604461646984639460BF043FC204689
S315080043300BF058FC0799088038460BF062FD08997F
S315080043400870294620460BF0CBFB074638B931469C
S3150800435020460BF003FC414628460BF070FD384614
S31508004360BDE8F081DFF83C391B78984201D370200C
S315080043707047DFF83429126832F820300B8002EBD8
S3150800438080008078887000207047DFF818391B781D
S31508004390984201D370207047DFF80C2912680B8801
S315080043A022F8203002EB800089788170002070475F
S315080043B030B585B00C4604F04FF80546002020734A
S315080043C0102307226946012006F03BFC082202A9B1
S315080043D02046FEF706FABDF80000208104F1140114
S315080043E09DF80200A0729DF80300E07204F1100027
S315080043F00BF07EFDE08105B0284630BD38B5044691
S315080044000D460AF04FFA014608222046FEF7E9F95A
S315080044100AF044FA2880DFF89408007832BD0CF0D8
S3150800442032B9FF2202F0A6BF70B588B00D46044621
S31508004430694604F0F9F8060004D12A46694620467A
S31508004440FEF767F9304608B070BD10B50446207807
S31508004450002841D1012020722070A078401E0BD080
S31508004460401E07D0801F07D0401F05D0401F0228D6
S3150800447002D903E00220207200206070A07801288B
S315080044800CD0022814D008280CD00D280DD01228DC
S3150800449017D0132817D0142818D01BE0DFF81008F7
S315080044A0007815E002F0DCFC12E00CF074FF0FE077
S315080044B0DFF80008018804F10900BDE8104006F09D
S315080044C0CFB9FF2004E002F04FFF01E00DF0ECF851
S315080044D0607210BD0020207010BD10B5044682B071
S315080044E0207858BB0120207000206070A07818B191
S315080044F0022819D00BD31FE061686A46C9B209F0D1
S3150800450029F960700220207204F1090007E00320EF
S31508004510207268460DF093FA607204F10A00BDF83D
S31508004520001006F09DF913BD01202072606880B264
S3150800453002F008FB607213BD0020207013BDF0B5B1
S31508004540044685B02078002840F0DE8001202070DF
S31508004550A078010026D0012848D002284DD0052889
S3150800456018BF062851D0082800F0BF8009285AD05D
S315080045700A287DD00B2800F080800C2800F089805E
S315080045800F2800F08A80232818BF242800F092807C
S31508004590252800F0A080292800F0A980342800F0FA
S315080045A0A880AFE0207A102860D100F0AFF8ADF807
S315080045B00400082294F90B008DF8060004F1100196
S315080045C0207B8DF80700607B8DF80800A07B8DF8AE
S315080045D00900E07BADF80A0003A8FEF702F91023EC
S315080045E0072201A9002006F02CFB88E0207A012882
S315080045F03CD1607ADFF8B81680E0207A022835D1F7
S3150800460000F084F8DFF8AC160BE0207A02282DD1EA
S3150800461000F07CF8A17805290CBFDFF89C16DFF8B6
S315080046209C1608806BE0DFF898060568207A46082D
S315080046300DB9DEB963E0DFF88C060078B04215DB09
S31508004640002707E004EB4700093006F002F925F8D1
S3150800465017007F1CB742F5DB4FF4004725F81670A4
S3150800466028460DF02CFC00284AD02F80362047E03B
S3150800467000F04CF80DF00BFE41E0DFF84C06006840
S31508004680407B20B900F042F80AF033F837E03820CA
S3150800469036E0607ADFF8341630E0657A04F10A000D
S315080046A006F0D7F8ADF800006A462946012009F059
S315080046B051F825E0217A042912D123280CBF0325B5
S315080046C0012504F10901012006F0DCF80146284617
S315080046D00EF05CFC14E0607A032818BF042801D0A9
S315080046E002200DE003F088FD09E0372008E070207D
S315080046F006E0607A00B10120DFF8D41508700020C2
S31508004700607001E00020207005B0F0BD04F10900DA
S3150800471006F09FB810B50446DFF8740500782178CE
S3150800472056280CBF0120002009BBA170DFF86C25B4
S315080047306178032905D108B150780FE0E078507008
S3150800474013E0022905D108B1107807E0E078107067
S315080047500BE009290BD118B103F024FFE07004E03F
S31508004760E07800B1012003F011FF0120207010BD90
S31508004770017801B1704730B5817001210170417827
S31508004780052908D0122915D018290CD01F2914D0AC
S31508004790382915D018E0DFF83C15DFF83C250978EC
S315080047A01278891A24E0DFF834150A78511E8941EF
S315080047B0C90F1DE0DFF8281504E0DFF8281501E029
S315080047C0DFF82415098813E000220FF2585300E099
S315080047D0521CD2B214461D5DFF2D02D10021017074
S315080047E030BD8D42F4D10FF2585151F82410097892
S315080047F0818030BD70B50446207800287BD1012021
S31508004800207000206278A070052A0AD0122A2CD0BF
S31508004810182A1FD0192A04D01F2A22D0382A2FD0A6
S3150800482033E0DFF8B4040578DFF8A80401784E1BF6
S31508004830A188052A0CBF0E460D46A919C9B207F06C
S315080048400FFB0028A07056D1E9B2F0B2BDE870405F
S315080048500EF004BEA188481E8041C00FDFF87C1404
S315080048603FE0A088DFF87C140DE0A18847F23150BC
S315080048708142A8BF36203BDADFF86404018070BDA8
S31508004880A088DFF86414088070BD0FF2984100E034
S31508004890401CC0B20346CD5CFF2D02D1002020701B
S315080048A070BD9542F4D1A188022B08DADFF83C04E2
S315080048B050F823000078884238BF362018D30FF204
S315080048C0804050F82300092B0DDAC9B207F0C8FA60
S315080048D0A070002804BF607811280CD1A088DFF8E2
S315080048E01014087070BD342A04D1C9B207F0B8FA9A
S315080048F0A07070BD017070BDF8B504460D4611462E
S31508004900184607F05AFD18260746FF2F08D03A46DC
S31508004910294620460FF0F6F80646384607F0CAFC40
S315080049203046F2BD38B504460D462188284605F0BE
S3150800493097FF6188A81C05F093FF20792871607994
S315080049406871A81DE18805F08BFF218905F108002B
S3150800495005F086FFA07AA87231BD10B586B0044668
S315080049601B208DF80000A0788DF801000DF10200DB
S31508004970218805F075FF0822211D01A8FDF731FFE2
S31508004980E1788DF80C10217B8DF80D10607B8DF881
S315080049900E000DF10F0000F0BCF9112100F01FF90F
S315080049A006B010BD80B51C228DF801008DF80210E6
S315080049B08DF80020D9E02DE9F04788B007460D4666
S315080049C014460FF015F9824622462946384608F05D
S315080049D04DFE002863D10DF109000FF011F930B929
S315080049E062208DF80800092102A80FF072F9FF2C41
S315080049F00FBF0026BF4909680E5D45208DF80800DF
S31508004A008DF809700DF10A012846FFF78BFF0DF1A5
S31508004A10150000F07EF951460DF1170005F020FF4C
S31508004A2001F0C5FE8DF819000027B348DFF8A88203
S31508004A300568DFF8A09201E07F1C0C3599F80000A4
S31508004A4098F80010FFB2401A87420ADA28885045BB
S31508004A50F2D108F051FBA97AC1F342018142EBD1A8
S31508004A6000E0FF278DF81A708DF81B60504602F09B
S31508004A7069F88DF8040000B10120009001AB2246C8
S31508004A80142102A80FF02DF900281EBF83480078CC
S31508004A90212804D19948017841F00401017008B031
S31508004AA0BDE8F0872DE9F0430746924800681D46A1
S31508004AB087B0465D0E9C884691462146384601F0E9
S31508004AC0BCF93F208DF804008DF8057041460DF1BC
S31508004AD0060005F0C5FE02A94846FFF723FF6D4804
S31508004AE00068405D8DF813008DF8144084480078FE
S31508004AF0402804BF0026FF25002000908DF8156089
S31508004B0000232A46122101A80FF0EBF807B0BDE8EA
S31508004B10F08330B589B00D46044604A90BF0B3FD01
S31508004B2023208DF800008DF801408DF802500DF114
S31508004B300300BDF81A1005F093FE082204A90DF12A
S31508004B400500FDF74EFE9DF818008DF80D000E21A4
S31508004B5000F045F809B030BD80B57C218DF800100D
S31508004B6001460DF1010005F07BFE032168460FF0B2
S31508004B70B0F801BD70B586B004467D208DF80000FA
S31508004B800D46164621460DF1010005F069FE08227C
S31508004B9029460DF10300FDF724FE8DF80B600C2164
S31508004BA000F01DF803A80FF02BF818B903A9204642
S31508004BB00EF05AFC06B070BD38B504460D4601F035
S31508004BC01BF980208DF800008DF8014029460DF16B
S31508004BD0020005F045FE042100F001F831BD6846E3
S31508004BE00FF077B810B584B0044646208DF8040057
S31508004BF001A821784170617881700DF1070000F0F5
S31508004C0088F83C48A1780068405C8DF809000023C4
S31508004C10002000900621A27801A80FF062F81FBDB7
S31508004C2080B598208DF800008DF80110684602219D
S31508004C309DE71FB50C4692218DF8041008220146FF
S31508004C400DF10500FDF7CDFD0DF10D0000F061F841
S31508004C5028480068005D8DF80F00002300200090AA
S31508004C6022460C21D8E7234A00B5126883B0125CA5
S31508004C708DF8051093238DF8062000218DF8043051
S31508004C80009102460023032101A80FF02AF807BD68
S31508004C90B22F00205C2C0020762C00200E24002049
S31508004CA0782C0020EF2300209C220020802F002053
S31508004CB0E32F0020DE230020C2230020C423002087
S31508004CC0AC2C0020582C0020442C0020602E0020FC
S31508004CD02B240020F7230020E02F0020EB230020C0
S31508004CE0B0230020AC230020BC230020EC220020A7
S31508004CF0FC2300206C220020D0220020742C0020E7
S31508004D000624002080B50AF0DFFEBDE801400FF05A
S31508004D101FB910B504460EF064FF601CBDE81040CC
S31508004D200EF061BF1102030607081A2B2C1910137F
S31508004D301B14151C1D2021222A2E33343537FF005B
S31508004D40EC230020F2230020F8230020EF23002084
S31508004D50ED230020EE230020A32F0020F0230020BF
S31508004D60582C0020E02F0020FD230020FF230020E0
S31508004D7000240020FE230020AB2F0020F92300206A
S31508004D80A52F00204D230020012400200224002006
S31508004D90A92F0020AD2F002027240020F323002070
S31508004DA0672C00202624002038B504460029104622
S31508004DB001461A46204602D010F00BFD01E010F01D
S31508004DC0D9FC0546002C1EBF04980028A04203D033
S31508004DD02146142210F06AFD284632BD02460220FA
S31508004DE000291CBF104610F08DBD704702460220F0
S31508004DF000291CBF104610F016BE70471CB50446A5
S31508004E000020ADF800002078F8B902202072A078BA
S31508004E100A280AD0102810D101A810F0ECFF6070FB
S31508004E20BDF80400ADF8000004E000206070684694
S31508004E300DF046FA0120207001E0207828B1BDF86F
S31508004E40001004F1090005F00BFD13BD38B5044642
S31508004E502078002804BFA078102812D104F109018F
S31508004E60012005F00FFD054604F10D0005F0F1FCE3
S31508004E70ADF800006946284610F092FF60700120E0
S31508004E80207031BD74490978027856290CBF012172
S31508004E9000212ABB8270012202704278130006D1D3
S31508004EA06E4A09B1117811E0C07810707047052A6A
S31508004EB005D16B4A61B1117841F0500106E0062A26
S31508004EC00CD1684A21B1117841F06001C170704770
S31508004ED0C17801F00F01C17011707047002101708F
S31508004EE0704710B504462078B8B900F045F806D0E2
S31508004EF01E2807D0242807D0362808D00BE009F04A
S31508004F00D5FC06E0584800E05848007801E05848C3
S31508004F100088A08010BD0020207010BD10B5044682
S31508004F20207840BB00F028F806D01E280AD024288E
S31508004F3012D0362819D01CE0A088BDE81040C0B2AF
S31508004F4009F0B8BC4B48A188007888420AD3C9B290
S31508004F50454806F085FF06E0A1880B2902DA434892
S31508004F60017010BD3620A07010BDA0884049088089
S31508004F7010BD0020207010BD012020700020A070F8
S31508004F8060780D28704700002DE9F04F1646012E6F
S31508004F9089B0804689469A4612D10124002506A87A
S31508004FA00DF098F9022755EA0401DFF8B0B005D0EC
S31508004FB058B9BDF81800800707D535B1032715E09D
S31508004FC00024032EEAD10125E9E79BF8000005280D
S31508004FD00AD8DFE800F003060509083D012705E0C1
S31508004FE065B1002702E02746022F07D009F07DFBAE
S31508004FF0824503D0514640460AF02DFD0197534697
S315080050009BF800000090324649464046FDF7EDFC05
S31508005010044624208DF8080041460DF1090005F0E4
S315080050201FFC082249460DF10B00FDF7DAFB8DF847
S3150800503013608DF8144051460DF1150005F010FC6B
S315080050400F2102A80EF045FE204609B0BDE8F08FF4
S31508005050002DC6D0B2E70000B22F00200B24002096
S31508005060A72F0020FA230020A62F0020AC2F00200F
S31508005070AE230020C24E020880B56E218DF80010BE
S315080050808DF80100022168460EF023FE01BD10B519
S3150800509084B00C469B218DF80010082201460DF1BC
S315080050A00100FDF79EFB8DF809400A2168460EF0BF
S315080050B010FE1FBDF0B583B010F8014B0E4617461B
S315080050C0214607F07AF90546FF2D03D10E4901203E
S315080050D00870F7BD8E208DF804008DF80560002055
S315080050E000908DF806708DF8074000232A460421A3
S315080050F001A80EF0F6FD284607F0DCF8F7BD00B16A
S31508005100024810F0B9BE0000682E0020B55000080D
S3150800511000B58028A1B0A8BF02200ADA8DF80000E1
S3150800512002460DF10100FDF75CFB0021684610F010
S3150800513049FF21B000BD10B504462078002804BFF9
S31508005140A07833280FD10120207009B1002004E08F
S31508005150607A10F08FFF00B136206070012020724F
S3150800516010F098FF607210BD0121E4E70021E2E724
S3150800517030B58BB004460D462A22FF216846FDF756
S3150800518073FB2146284607F018F90446FF2C08BF8A
S31508005190182505D010F09AFF0546204607F08AF82C
S315080051A028460BB030BD10B54E4C2178FF29A8B063
S315080051B008BF702020D0002000904A2300220AA8A9
S315080051C007F017F900200090252321784A221DA808
S315080051D007F00FF900200090242321786F2201A8F8
S315080051E007F007F9207807F065F8FF20207001AA74
S315080051F00AA91DA810F077FF28B010BDF8B5394FD9
S3150800520004463878FF280D46164608D19321002013
S3150800521007F0D3F8FF28387001D13520F2BD0120F8
S315080052200090334639782A46204607F0E2F80020EF
S31508005230F2BD10B50446A6B0207860BB01202070E8
S31508005240A0781A2804D024D31C2815D00AD320E025
S315080052504A2204F1090113A8FDF7C3FA4A220021DC
S3150800526013A812E0252204F1090109A8FDF7B9FAE5
S3150800527025224A2109A808E0242204F109016846E2
S31508005280FDF7AFFA24226F216846FFF7B7FF607073
S3150800529001E00020207026B010BD0178002904BF67
S315080052A0417829290CD110490978522904D10F4986
S315080052B009788180002100E0382181700121017080
S315080052C0704710B5074C2078FF281FBF0649097894
S315080052D0AB29ED2903D006F0EDFFFF20207010BDA5
S315080052E0000000000D240020B22F0020A82F002067
S315080052F011B1012903D004E0114604F098BA04F06C
S31508005300E1BA0220704710B504462078002804BF89
S31508005310607808280ED114480078562803D104F07E
S31508005320E5FEE07002E0E07804F0E3FE0020A070FD
S315080053300120207010BD0178A1B941782F2908BF36
S315080053400A4902D030290DD1094959B1064A1278BD
S31508005350522A07BF0978818082880A7000218170E5
S315080053600121017070470000B22F0020042400209C
S315080053700524002030B58FB005460C463B22002197
S315080053806846FDF771FAB6208DF800000DF10101A7
S31508005390284600F076F8DCB100218DF8291008229D
S315080053A021460DF12A00FDF71CFA0DF12905207A90
S315080053B068720DF13300618905F052FAA1890DF181
S315080053C0350005F04DFAA07BA873E07BE87302E090
S315080053D001218DF829100DF13900FFF79AFC3B21C0
S315080053E000F00CF80FB030BD80B5B7218DF800106D
S315080053F08DF80100022100F001F801BD68460EF0A3
S3150800540068BC10B586B00446B8208DF800000DF1CA
S315080054100100218805F024FA61880DF1030005F0E2
S315080054201FFAA1880DF1050005F01AFAE1880DF1B9
S31508005430070005F015FA21890DF1090005F010FAA3
S3150800544061890DF10B0005F00BFAA1890DF10D002C
S3150800545005F006FA0DF10F00FFF75BFC1121FFF7C7
S31508005460CDFF06B010BD00B58BB0BB218DF800107E
S315080054700DF1010100F005F82921FFF7BFFF0BB078
S3150800548000BD38B504460D46A0782870681C2188EA
S3150800549005F0E6F90822211DE81CFDF7A2F9E078D7
S315080054A0E87205F10E01207B2873607B6873012082
S315080054B0226905F0D9F9626905F11201012005F0A2
S315080054C0D3F9218B05F1160005F0CAF9082204F173
S315080054D01C0105F11800FDF784F9A18C05F12000DF
S315080054E005F0BEF9E18C05F1220005F0B9F904F1E1
S315080054F0280105F124000A7802704A7842708A78F1
S315080055008270C978C17031BDF8B5BA4D04462868AD
S3150800551000792B38022801D90D382ED1FCF72CFF3B
S3150800552006462868B449401D0860002131200EF05F
S3150800553098FC05464FF6FF770BE005F10D0080B2A3
S315080055400EF0BCFBB04213D0294631200EF089FC80
S315080055500546BD42F1D1002100E0294632200EF071
S3150800556080FC0546BD4208D00EF0A8FBB042F4D137
S31508005570A420FCF71AFF00202070F1BD38B50446B8
S31508005580002100E029463F200EF06BFC05464FF649
S31508005590FF7085420CD028460EF090FB0228F1D108
S315080055A0681C80B20EF08AFBA042EBD1012032BD06
S315080055B0002032BD2DE9F8438046002145200EF033
S315080055C050FC4FF0000904468C4D4FF6FF7609E073
S315080055D0FF21B8B20EF077FBA1B245200EF041FCD0
S315080055E0A1460446B44224D004F11007B8B20EF01E
S315080055F065FB4045F0D120460EF060FB022818BF37
S315080056000328E5D1A41FA0B20EF058FB014628884E
S31508005610401A32187A482A800919121B92B2007861
S3150800562000924B1C9BB20246A1B207F0DBF84C462F
S31508005630D2E7BDE8F183F0B5724F3D788BB00646E8
S3150800564007F05AFD07F035FD00F079F806D0122864
S315080056502FD17188707808F0C0F850B3707804A913
S3150800566008F05AF888B1BDF8100040F209118842CE
S3150800567004BF7088B0F5006F07D1701D10F03EFDAD
S31508005680B52802D0A8B9002413E00124002500E0BB
S315080056906D1C3978E8B288420BD206A900F097F952
S315080056A09DF818000028F3D13146E8B200F09AF9BF
S315080056B0044631208DF8000030788DF801007078A6
S315080056C08DF802000DF10300718805F0C9F83079EC
S315080056D08DF805000822711D0DF10600FDF781F809
S315080056E08DF80E508DF80F40102168460EF0F1FA2D
S315080056F020460BB0F0BD38B5054607F0FDFC07F0AF
S31508005700D8FC00F01CF80DD12846FFF737FF08B182
S31508005710752407E0284600F0B0F9040004BF2846BF
S31508005720FFF748FF32208DF800008DF801508DF8FC
S315080057300240032168460EF0CCFA204632BD3248B4
S3150800574000786C241128704738B504460D46FFF7D3
S3150800575015FF08B1752511E03DB107F0A6FC687381
S315080057602946204600F03EF902E0204600F085F979
S315080057700546280004BF2046FFF71CFF284632BD11
S31508005780E2E70021E0E721490978027856290CBFAB
S3150800579001210021002A04BF4278012A0AD11A4AA7
S315080057A0002919BF1178C170C17811700021817064
S315080057B001210170704710B504462078002804BFFF
S315080057C06078042814D111490E480978522903D162
S315080057D00078A080002008E00D4AA18812788A4245
S315080057E032BF3620C9B206F03BFBA07001202070FC
S315080057F010BD00004C240020C42800206A2E00207A
S315080058001C240020A42F00200C240020B22F0020E6
S31508005810C04E02081FB50C4602460D2316216846DF
S3150800582009F0D0FA0D2269462046FCF7DAFF2078FF
S3150800583040096073207800F01F0020701FBD30B546
S3150800584085B004460D460D226846FCF7CAFF9DF84A
S315080058500000697B40EA41108DF800000D236A4676
S315080058602146162009F0D5FA05B030BD2DE9FF41CD
S31508005870044600F05FF814E03068EDB2A84630F848
S315080058801800A0420CD16946284600F0A0F89DF8F9
S315080058900000022804D031684FF6FD7021F8180080
S315080058A06D1CE8B239788842E6D3BDE8FF812DE958
S315080058B0F04588464FF6FF7AD04585B0044605D1AF
S315080058C000F0D8F910B908F010FF30E000F032F80F
S315080058D00CE0D04508D0306830F81510414504BFB3
S315080058E04FF6FD7120F815106D1CEDB2387885421B
S315080058F01CDA306830F8150000F018F9F4DA694651
S315080059002846FFF787FF082221460DF10500FCF718
S31508005910B2FF0028DDD13068D04502D130F8150035
S3150800592005E020F8158010F023FCDDE7504605B0A9
S31508005930BDE8F0850025DFF8C463DFF8C473704757
S315080059402DE9FF47804689460026DFF8B873DFF859
S31508005950AC43DFF8AC5316E02068F6B2B24630F82E
S315080059601A0000F0E3F80DDA69463046FFF752FFF1
S31508005970082241460DF10500FCF77DFF10B938688D
S3150800598000F80A90761CF0B229788842E4D3BDE87C
S31508005990FF87DFF86813096831F8100070471FB5EC
S315080059A0DFF85C23127890420C460FD2D349096877
S315080059B031F810104FF6FE72914207DA694600F088
S315080059C006F821460DF10500FFF771FF1FBD80B5EA
S315080059D0CB4B1B78984201D3692002BDFFF71AFF0B
S315080059E0002002BD70B504460D4623460022B4A128
S315080059F0032011F039F828780028204602D1BDE89E
S31508005A0070403AE0BE490978884201D3692070BDE2
S31508005A1010F0DAFF08B1752070BD07F023FB687334
S31508005A20681D0AF0EEF906464FF6FF71681DFFF786
S31508005A303EFF024629783346204600F006F82946F6
S31508005A402046FFF7FCFE002070BD30B54FF6FF7408
S31508005A500D0008BF224608D0032908BF4FF6FE727C
S31508005A6003D0A24208BF4FF6FD72A449096821F87F
S31508005A701020A44909680B5430BD30B505462C469C
S31508005A8085B0234601228EA1032010F0EDFF9C4924
S31508005A9009782846884228BF692019D210F094FF51
S31508005AA008B1752014E069462846FFF7B3FE9DF84D
S31508005AB0000030B100208DF8000069462846FFF73F
S31508005AC0BEFE8E4909684FF6FF7021F814000020C3
S31508005AD005B030BDF0B585B007460C46874D884EF3
S31508005AE000E07F1C3178F8B288421CD22868FFB2E1
S31508005AF030F8170000F01AF8F3D169463846FFF770
S31508005B0089FE9DF80500E1B2884204BF9DF806109B
S31508005B10B1EB142FE5D107F0A5FA9DF80D108142D7
S31508005B20DFD1384600E0FF2005B0F0BD4FF6FE7124
S31508005B30884270472DE9F14F84B00D460E9C6F4F91
S31508005B40DFF8BCA190469946002607E03868BDF8FC
S31508005B50101030F81B0088422CD0761C9AF80010DA
S31508005B60F0B2884228D23868F6B2B34630F81B003D
S31508005B70FFF7DCFFF1DA69463046FFF74BFE5FEACE
S31508005B80080007D19DF80100484504BF9DF80400A8
S31508005B90A042E2D107F066FA9DF80D108142DCD1E9
S31508005BA0002DD3D008220DF105012846FCF763FE27
S31508005BB00028D2D1304600E0FF2005B0BDE8F08FBE
S31508005BC010B51446FFF726FE2046BDE81040082209
S31508005BD04D49FCF706BE2DE9FF470446084615461B
S31508005BE01E4600F047F808B1002040E00027DFF81D
S31508005BF00C81DFF80C9100E07F1C99F80010F8B2D0
S31508005C00884223D2D8F80000FFB2BA4630F81A0004
S31508005C104FF6FF718842EFD069463846FFF7FAFD1E
S31508005C200C220DF10101601CFCF725FE0028E3D1CA
S31508005C30BAF1FF0F0CD10020307007F034FA307833
S31508005C4055B138B92046FFF7F6FC09E0FF27F2E719
S31508005C500120F1E7012006E028B13846FFF74BFDA1
S31508005C60401E8041C00F307007F0D8F9012004B0FB
S31508005C70BDE8F08708222449FCF7FDBD30B585B09C
S31508005C8000241F4D16E06946FFF7C4FD9DF8000085
S31508005C90042806DB00208DF800006946E0B2FFF70D
S31508005CA0CEFD9DF8001000234FF6FF72E0B2FFF715
S31508005CB0CCFE641C2978E0B28842E4D305B030BD36
S31508005CC04242000030B585B002220BA1032010F035
S31508005CD0CBFE00208DF800000024094D03E069463C
S31508005CE0FFF7ADFD641C2978E0B28842F7D3FFF7C9
S31508005CF0C5FF002005B030BD42000000C4220020C8
S31508005D00A42F0020C8220020AC2A002030B583B07A
S31508005D100446FCF731FB0546202D1ADA5CB16946C4
S31508005D200820FCF730FB08236A462946212009F09B
S31508005D3070F800200EE008232A462121684609F05B
S31508005D4041F80020FCF731FB69460820FCF758FBB0
S31508005D5037BD7020FCF729FB37BD704770B55D4D20
S31508005D606E8A044605F1080010F0ADFE012C08BF46
S31508005D70AE8A02D0022C08BF022618B1FA21714356
S31508005D80884206D3310205F10800BDE8704010F0DC
S31508005D908DBE70BD7CB54F4C0020E07020714FF66B
S31508005DA0F972208A90421CBF4FF6F872904202D0D0
S31508005DB00020207273BD6179474E4FF6FD7589B193
S31508005DC04FF6FC70019000230020009000223088D6
S31508005DD000210BF0C8F80020607135800120BDE86D
S31508005DE07640BBE7A1780EF09DFA3088A842F5D038
S31508005DF0012060710220F2E710B500F039F81CBFE7
S31508005E004FF6F874A34217D1A92818BFAA2813D1A8
S31508005E10D0781378401CD070C0B298420CD32E4864
S31508005E2003884FF6FD74A34202D101800020507109
S31508005E300020BDE8104091E710BD10B500F018F835
S31508005E401CBF4FF6F874A34211D103001CBF0128EA
S31508005E5002280CD166290AD110795178401C107194
S31508005E60C0B2884203D3BDE81040002076E710BDD3
S31508005E70184A138A4FF6F974A342704710B5154CA1
S31508005E8021829200029921709B0003996282A38263
S31508005E9061709BB20499A17092B293420AD3010031
S31508005EA01EBF218A4FF6F87291421CBF4FF6F9724F
S31508005EB0914201D0702010BD002161714FF6FD712D
S31508005EC0054A118018B10120FFF748FF00E020724B
S31508005ED0002010BD20290020B42300202DE9F54F0D
S31508005EE08BB08B460C98169C1799ADF804B0002613
S31508005EF0C0889A460746B046B14649B9F90607D555
S31508005F000C9A9DF82C000094594610F0E1F816E119
S31508005F10790548BF4FF48058390548BF48F40068EA
S31508005F20B90548BF48F0800803D4F90548BF48F0CA
S31508005F3040089DF82C1002915D469DF82C1003919F
S31508005F400A2966D8DFE801F0082F1B3C65653C0680
S31508005F50083C18004FF00209BDF80420CDF800A04F
S31508005F60334648F4027120460BF0F4FA8246BAF139
S31508005F70FF0F50D11820E2E04FF00309ECE706A91D
S31508005F805FFA8BF0FFF723FD08220DF11D0104A827
S31508005F90FCF727FCDFF81009006830F8150004AE96
S31508005FA0ADF80400D8E704A95FFA8BF009F002FE01
S31508005FB0DFF8F80800680C21694304AE405AEFE799
S31508005FC04FF6F8718D4224DB4FF40261084220D166
S31508005FD000F042F918BF91201CD1FF2C0FD000F019
S31508005FE0BAFB029903290CBF01210021401ADFF8E8
S31508005FF0C0180968095D8842B8BF74200ADB029890
S3150800600003280CBF4FF00C094FF0080928F4C07894
S31508006010A2E7012093E0DFF89C5828884FF6FF7125
S31508006020884218D0504610F070FE0090001D29884E
S3150800603004F016FCDFF8800800990078C8714FF65E
S31508006040FF7028805FEAC84005D500980822291DF8
S315080060500830FCF7C6FB0C9A494650460BF04EFC36
S3150800606008B9182667E0DFF854080068C07E70B1E2
S31508006070B8060CD5F8074CBF2020002040F00103D5
S315080060803246002150460DF01BF9060053D1FF2C6D
S3150800609015D0504610F02FFEDFF820180968C97E83
S315080060A001B11221DFF808281268135D12F80A20D8
S315080060B0D218743089188842B8BF74263BDBB804F6
S315080060C007D5504610F031FE40F48061504610F076
S315080060D02EFE0298082812BF0928504610F034FEF2
S315080060E0179848B1BDF80410504610F046FE1798A8
S315080060F080F800A0002022E00398C01E05D0C01E2C
S31508006100012884BFC01E012807D850460DF06FFF2E
S3150800611000280CBFA12600260DE0B80444BF4FF6A0
S31508006120BF7007409DF82C103B465FFA8BF250462D
S3150800613010F01FF80646504606F0BCF830460DB07B
S31508006140BDE8F08FF0B587B00E4604460C991746A1
S31508006150184606F032F90546FF2D21D0FF208DF8A6
S3150800616010008DF81100ADF80E704CF20E00ADF867
S315080061700C00ADF812600020ADF81400009502A8D6
S315080061800190FF2303AA21460020FFF7A7FE044635
S31508006190284606F08FF8002C0CBF9DF80800FF2053
S315080061A007B0F0BD2DE9F043164685B00446F088E1
S315080061B004900D4670790FF2407103901F463079AE
S315080061C00290A846708801904346308800900822BD
S315080061D000F099F800F040F818BF91201AD1FF2F67
S315080061E009D000F0B8FADFF8C8160968C95D884210
S315080061F038BF74200ED320000FD14FF6F8708045B3
S3150800620028DA002001900097FF23324629462046C7
S31508006210FFF764FE05B0BDE8F083022C4FF6FE7961
S315080062200CD1DFF89C1609788D4213D2DFF8780670
S31508006230006830F818004845E3DB0BE0012C09D16B
S31508006240DFF8801609788D4204D2E8B209F0CAFC54
S315080062504845D6DB0120DDE7DFF860060068407BAD
S3150800626002287047F0B587B00D46164604460596CF
S315080062701F46E8880FF288610490234668790390E0
S31508006280092228790290688801902888009000F0F1
S315080062903AF800200190009733462A462146062000
S315080062A0FFF71CFE07B0F0BD2DE9F04188B01E4689
S315080062B00E9C07948046F0880690174670790590DC
S315080062C00D4630790FF24461049043467088039076
S315080062D00A22308802900197009500F014F8DFF83A
S315080062E0D405A0F800802346DFF8CC050770002007
S315080062F0019032460F98009029460620FFF7EEFDDA
S3150800630008B0BDE8F081032010F0AEBB80B538B107
S3150800631001460822DFF8B005FCF763FA002002BD43
S31508006320022002BD70B588B000F02EF80C98DFF890
S315080063308415009608802B460D98DFF87C150870A2
S315080063402246DFF888050078002814BF4FF6FF714B
S315080063504FF6FD710020019011E070B588B000F08D
S3150800636013F8DFF8680500780096002814BF4FF682
S31508006370FF714FF6FD71002001902B46224603203F
S31508006380FFF7ACFD08B070BD04460D4606920595AC
S315080063901E46E0880FF28051049006226079039029
S315080063A02079029060880190208800900320238934
S315080063B010F05ABB10B5DFF8180506F05CFA04466B
S315080063C0FF2C0DD02146042005F0EDFC18B1012163
S315080063D0204600F006F82046BDE8104005F06ABFE2
S315080063E010BD2DE9F04F89B082468B4610F08DFC22
S315080063F00646B01C04F02DFADFF8D844DFF8D85466
S31508006400074650460BF057F90146504606F0F8F88D
S315080064108046504610F093FC06F0CFFD301D04F080
S3150800642018FA2080009708F060F9009989B281422D
S3150800643008F0030912D04FF6F87087420EDA707822
S31508006440C0070BD438460AF05AF9002805D0208828
S3150800645001235246394600F0B2F97AE005A95046BA
S315080064600BF0B8F905A8286030460BF041F9DFF8BB
S315080064706C1408600321504610F037FCDFF86014EE
S3150800648008700421504610F030FCDFF858140870E4
S315080064905FEA0B002BD09DF81A00800627D508F076
S315080064A024F9DFF8186440B13068007D800704D409
S315080064B0B9F1010F08BF182300D0082300220021D4
S315080064C050460CF0FDFE90B108F00300012802BF0B
S315080064D03068407B112805D102F093FA10B9AF2035
S315080064E000F047FC06F09AFD0020286048E018F006
S315080064F0030003D0022806D00AD32AE0594650469C
S3150800650000F041F825E0514640460FF060FE20E0D5
S3150800651008F0EBF8218881421BD05146052005F08A
S3150800652042FCB0B12968887940060DD50C2202A82C
S31508006530FCF757F900200190FF23FF20009002AADC
S3150800654021880A20FFF7CAFC21885A4650460BF0D4
S3150800655001FF08F0CAF8218881420DD150460BF098
S31508006560AAF80146504606F04BF80C21084203D11A
S315080065700021504610F064F80020286006F04EFD11
S3150800658009B0BDE8F08F2DE9FE4F804610F0BDFB3F
S31508006590054640460BF08FF80146404606F030F8AF
S315080065A081466878DFF83073DFF8284300F0010089
S315080065B00290A81C04F04DF94FF6F8718842ACBF5A
S315080065C04FF0010A4FF0000A08F08FF8218881423F
S315080065D03868B0F802B00CBF01260026A81C04F0E3
S315080065E038F90146029840EA0A008DF804009DF839
S315080065F00400002814BF06200820002206F0DBFE4F
S3150800660038680188002904BF407900281DD16946E9
S3150800661040460AF0E9FB421E9DF800103B46D2B2FE
S31508006620042010F076FC3868408848F20201884257
S3150800663003D12088414602F0B4FA2088BBF5004F02
S3150800664019DB5A4641460AF0E3FB386801884CF2E2
S315080066500E0291423CD144F2010AD34518BFBBF55C
S31508006660804F35D140460BF0A9F80146D3450CBFFB
S315080066700120002023E09C4A022111705346002283
S3150800668041460AF02DFA38688079400603D5FF217D
S31508006690584600F067F8BBF1130FD6D03868C088A3
S315080066A04004D2D49149904809780078CA0701D5A0
S315080066B00228CAD0890740D50128C6D03DE0491E20
S315080066C0C9B200912B464246012100F052FF34E040
S315080066D0029919B909F00C010C290DD1008909F0A4
S315080066E0BFFB50B338680189002E14BF0325022565
S315080066F00020FFF7EFF911E00179009100224379B4
S3150800670020880021FFF716FA09F00C01082904D1A0
S31508006710002E0CBF0425052500E0002574490870E5
S315080067209DF8040010B9BBF1380F01D1012200E031
S315080067300022294640460DF0FBF9BDE8F78F10B553
S31508006740044600F008F8610548BF0838210548BF27
S315080067500838C0B210BD59490968C97E642001B11C
S315080067605220704770B55C4E0C4686B005463168B7
S315080067700C2202A8FCF735F8306801798DF80D105F
S31508006780FF2341798DF80C10ADF80A504FF6BF710A
S31508006790C08800940840ADF80E0002AA00200190B7
S315080067A04C4801880720FFF799FB06B070BD514891
S315080067B0007808B9FF2070474D48007870472DE9E2
S315080067C0FB47914685B01C4648460AF074FF0146C9
S315080067D0484605F015FF032108428DF800005ED1F2
S315080067E03D4805683B48068801A948460AF0F2FF75
S315080067F0394901A808604FF0000ABDF81400354968
S3150800680008809DF80900002804BFBDF80400002888
S315080068103FD1484610F079FA801C04F01AF84FF672
S31508006820F8718842ACBF4FF00108D046002C14BF5F
S3150800683002240124012729E0BDF8140043463A46FC
S3150800684049460AF04DF95FEA000A1ED0022C08BF35
S31508006850012F1AD1BDF81800164908801748006894
S31508006860417E491C4176A1F18000134908700C212C
S315080068709DF80000084208D19DF80A00400604D594
S31508006880BDF80600FF21FFF76DFF7F1CFFB2BC4273
S31508006890D2DA114805600F480680504600E000200D
S315080068A008B0BDE8F0870000C4220020D0220020EE
S315080068B06C22002024230020BD2F0020442C002019
S315080068C0A42F0020F723002028230020AD2F002026
S315080068D058230020762C0020782C00207C2C0020C1
S315080068E0DD2D0020DE2D0020BC2F0020A92F002042
S315080068F0DB2F0020742C002042575757424257007E
S3150800690042575757424257420000000042575742E3
S31508006910575742425742000042575742424257424F
S315080069204200000010B5044606F0C3FB0EF092FACA
S31508006930010018BF00F013F80C212F4861430844E2
S31508006940827981880068BDE8104007F023BB0020E3
S31508006950E8E70120E6E70220E4E70320E2E710B5CE
S3150800696082B0044606F0C8FB0C2148432249084475
S31508006970210017BF312C0021017A491C0172C27906
S31508006980017A91420AD30021017243208DF8000052
S315080069908DF80140022168460DF09BF913BD174991
S315080069A00978312900D0704780B544218DF8001048
S315080069B001460DF1010003F053FF032168460DF06F
S315080069C088F901BD38B50E4C0B4B24780C256C4361
S315080069D0B0F5004FB8BF0429234401DB702032BD4F
S315080069E0DA71988099719A799988186807F0D2FAB5
S315080069F0BDE831400EF02EBAF42200200F24002004
S31508006A00B32F002070B5160004460D4602D109F0D2
S31508006A1022F802E0FF2108F0CDFF3246294620463B
S31508006A20BDE87040A1E02DE9F04782B005468A46E8
S31508006A30174698460CF018FDC0480A9C0078B0B175
S31508006A400C2F14DAFF21284608F0B4FF81460026E9
S31508006A500AE004EB4601C9B2404605F08CFE4946F9
S31508006A6008F0A8FF8146761CF0B2B842F1D300942C
S31508006A7043463A465146284600F08FF8BDE8F38764
S31508006A802DE9F04704468A4600F0D6F8012847D192
S31508006A90204608F079FFAA4A126812F80A700025FB
S31508006AA0FF281AD081464C46DFF8988200E06D1C14
S31508006AB0D8F8000000EB84008478FF2CF7D1EDB2FB
S31508006AC00C2D0ADA6800861CBAF1FF0F27D0F119D7
S31508006AD0C9B2504605F04DFD08B1002020E02A460F
S31508006AE03946504605F091FD7C1C002D14BF6A1EE0
S31508006AF00022D2B2E1B2504605F087FD671C4C462B
S31508006B0006E030F82420F9B2504605F041FEBF1CD5
S31508006B10D8F8000000EB84018C78FF2CF1D1F0B294
S31508006B20BDE8F08710B5FF280AD0864B1B6833F8F6
S31508006B3020400C8003EB800080781070002010BD88
S31508006B40032010BD10B508F01FFF0024FF280AD047
S31508006B50022401E0A41CE4B27A49096801EB80002A
S31508006B608078FF28F6D1204610BD30B583B00C4694
S31508006B70C4218DF80010154601460DF1010003F0F9
S31508006B806FFE21460DF1030003F06AFE8DF80550ED
S31508006B90062168460DF09DF837BD2DE9F04186B00F
S31508006BA0074688461D460DF1050014460DF019F8EE
S31508006BB001A80DF018F859208DF8080039460DF18E
S31508006BC0090003F04DFE082241460DF10B00FBF7C4
S31508006BD008FE9DF805000C9B8DF8130066009DF8CD
S31508006BE004008DF81400F6B28DF8154000962A4672
S31508006BF00021284605F0F6FD3146284605F0B9FC81
S31508006C000020009000232A460E2102A80DF069F8FC
S31508006C1006B0BDE8F08110B5044600F003F84A480E
S31508006C20047010BD10B5484C2078FF2803D005F035
S31508006C3041FBFF20207010BD2DE9F041DFF80881E7
S31508006C40074698F80000FF2882B00C4619D03C4D3C
S31508006C502A68115C8E1EF6B2314605F08CFDB842E4
S31508006C600FD12868075DF5052D0EFF2C02D1A81C4B
S31508006C70C0B220E0F019811CC9B2204605F079FCA3
S31508006C8008B1012017E02A463946204605F0BDFC22
S31508006C906A1E791CD2B2C9B2204605F0B6FC98F82D
S31508006CA000200096B91C002389B2204605F09AFDFB
S31508006CB0FFF7B8FF0020BDE8F6812DE9F0418046D0
S31508006CC01E480078002688420F46154638BF7420AD
S31508006CD032D3012005F083FA0446380010D0790033
S31508006CE0C9B2204605F045FC50B907E035F816202C
S31508006CF07100C9B2204605F04BFD761CBE42F5DB95
S31508006D002046FF2811D00E4909680D5CA91CC9B296
S31508006D1005F02FFC28B942462946204605F038FDDD
S31508006D2003E0204605F0C6FAFF242046FFF773FF66
S31508006D30FF2C0CBF18200020BDE8F081A32F0020EF
S31508006D406C220020C022002010240020DFF80C2B23
S31508006D501268127882420AD019B1012A03D1022890
S31508006D6005D000207047022A08BF0128F9D1012062
S31508006D707047DFF8EC1A8875704710B5DFF8DC4AFB
S31508006D802068407B112805D04FF480710FF20C0063
S31508006D9007F0E4FE21684120487310BD6173736FE4
S31508006DA063696174696F6E2E6300000080B5022006
S31508006DB006F0D9FA06F001F900F09CFC001F02283B
S31508006DC005D2DFF89C0A417D491D417505E04FF45F
S31508006DD07A71DFF8900A0FF069FEBDE8014006F007
S31508006DE01DB910B5DFF8784A0020E0742078FF282E
S31508006DF003D005F05FFAFF20207010BD70B582B091
S31508006E0004460D4605F0E0F90646B01D03F021FDDF
S31508006E1000F44040B0F5404F0CBF06200020311862
S31508006E20097C4A00490802F00E0201F03801891867
S31508006E30401800F11106DFF8E80C0068005DF6B2AC
S31508006E4086420BDA831BDBB20F2BA8BF0F23002069
S31508006E50009032462146284605F0CBFA304676BDE4
S31508006E60DFF8F8090068407B33281CBF43285328FD
S31508006E7001D101207047002070471FB5012010F08E
S31508006E8051F810F053F80DF0A5F8F0B1DFF8D04935
S31508006E90A07910B104F10A0005E020786946FFF7E9
S31508006EA0ADFF0DF10300DFF8BC29002111706179EF
S31508006EB001F0FCF9FFF795FF00F008F80AF0D8F89A
S31508006EC010F082F8012001F027FB1FBD10B501F074
S31508006ED07CF800F0CAFC05D2408801F0F4FA08BF35
S31508006EE0032008D007F0DAFC044607F0DBFC21464D
S31508006EF0FEF7DDFC022007F0E1FC08F0EFFF00F0EA
S31508006F0090FEBDE810400AF0DFB838B5DFF8504902
S31508006F10DFF84859A075FFF764FF00214FF6FF70A8
S31508006F2001F0C3FA2868417B032918BF00291CD041
S31508006F30332918BF432912D101F05FFA286800F0F7
S31508006F4094FC06D203214173A07DBDE8324006F0C9
S31508006F501DBAA07D06F01AFABDE83140B6E7212130
S31508006F604173BDE831400AF0CCBD31BD10B5DFF83C
S31508006F70EC18DFF8EC480968002048734FF6FE70F5
S31508006F8007F0B7FB4FF6FF7007F0BBFB01F035FAC9
S31508006F90A07DBDE8104006F0F9B970B5044684B086
S31508006FA0E07A0FF2C001DFF8945C0290234694F968
S31508006FB00A0001901522208901F0D1F82868407B43
S31508006FC060B9208901F07FFA08D000F039F905D1B7
S31508006FD006F09DF910B906F0AEF910B1702004B0AC
S31508006FE070BD2868007D800702D510F09CF900E086
S31508006FF00020214601F01DF906000DD12868007D04
S3150800700080074CBF0220012001F0F6F8002101207C
S315080070100BF07FF9060001D03046E0E7DFF84008BC
S31508007020007F08B109F029FC00220821204607F054
S31508007030C3FC30B10421204606F0D8FE08B9A520C5
S31508007040CDE7DFF8FC0B00782074DFF8F80B6061F9
S315080070500020E081204600F0F8F8064606F0DBF846
S31508007060DAE70000423870574242000010B504467D
S315080070702346182201F0C3F9DFF8CC0B0021017171
S3150800708014B1FF2C02D10121017007E0012100F89B
S31508007090041BA100491C09020FF008FD00F0C1FD00
S315080070A0002010BDDFF8A01B00200871DEE730B510
S315080070B00D4689B0044668690FF278110790234691
S315080070C0287C06901622E8890590287B0490E87AA1
S315080070D0039095F90A00029028890190009501F01D
S315080070E03FF8287B00280CBF4FF6FE7007F0FDFA24
S315080070F02B46224609B0BDE83040014601202DE95D
S31508007100F041DFF8386B80463068407B00280F4630
S3150800711014461D4649D1200047D0062C45DA00F012
S315080071208FF842D106F0F3F800283ED106F003F9AD
S3150800713008B1042C39DB287B032816D14FF6FE70DC
S31508007140874214D1012C08BF002710D0022C2CD15D
S3150800715007F0CBFA4FF6FC71884202DA07F0C5FA57
S3150800716001E010F0E0F8074601E0012C1DD0B8F167
S31508007170000F0CD0287B03280CBF01210021012C0D
S315080071800CBF012000200BF0C4F801004FD129469E
S31508007190384601F04EF8010049D105F063FF06F0C4
S315080071A073F820B106F0C7F808B170203FE03068E0
S315080071B0DFF8AC76407B33281EBF53280020F875CD
S315080071C0204601F019F8387F20B106F0B4F808B95E
S315080071D009F053FB287B032803D12846BDE8F04174
S315080071E033E00822294607F10A00FBF7FAFA287B5A
S315080071F00328A8BF0020B874FFF7F3FD9420B875DC
S31508007200B87C316800280CBF012031204873002063
S31508007210387501203168897BBA7F00FA01F10320AD
S3150800722010F0F4F9010002D0326800215173BDE86C
S31508007230F0810000424238705742424257424400A9
S31508007240DFF8080A00780A28704710B504460022B5
S31508007250082107F0B1FB08B1012010BD07F045FA77
S3150800726000224FF6FF7101F007F8217C204601F055
S315080072701DF86269E189207C08F064FEDFF8BC0924
S315080072800068007B012808BF0BF0CDFDFFF71EFE46
S31508007290002010BD38B5DFF8A44901462068407BB8
S315080072A0002802BFDFF8A40900780A2801D0702058
S315080072B032BDDFF8B05521B1022205F10800FBF70F
S315080072C090FA684601F0C8F808B1932032BD9DF8D7
S315080072D00030142201F093F801F034F8010042D18D
S315080072E09DF8000000F088FF2068007B012818BF81
S315080072F0022806D0C01E032824D2002001F0E7F891
S3150800730000B301F036F82068007BC01E032838BF9A
S3150800731010F021FCFFF7DAFD012010F049FC01000E
S3150800732021D12068007BC01E03281BD2287A80073B
S3150800733018D50522DFF80C19012000F01BF801000A
S3150800734010D032BD2168132048730020DFF81015CD
S31508007350087501202168897B00FA01F105220520BC
S3150800736010F054F9002032BDDFF8F404C07D7047F0
S31508007370FF22FFE72DE9FC41804600F026FE0D4678
S31508007380017B0129164623D0407B022818BF032813
S315080073901ED1332007F092FADFF8C474BA7F294663
S315080073A0032010F033F9044698B9FFF71AFD07F0E1
S315080073B0A4F938815FEA080014BF02200120B874D6
S315080073C007F10A0001F060F800203875FE7500E044
S315080073D070240194009543462C220FF2100100F008
S315080073E0BFFE2046BDE8F681000000004242444246
S315080073F00000000038B5044604F0E6FE05462046BF
S315080074000FF079FC2C18204603F023FA4FF6FF51AB
S3150800741001402046BDE8344003F022BA70B584B076
S3150800742007F063F9DFF83844DFF810580646208B72
S31508007430002101F03AF807F0D7FA60B1300003D01E
S315080074404FF6F870864206DB0FF06DFF296849880B
S3150800745088420646F8D0304607F04BF920780921CD
S315080074600FF028FC07F04DF92E68307B052813D15C
S3150800747001F015F88DF8080002ABA07C00280CBFB7
S315080074804FF4804244F20102012000904FF48061DB
S315080074907088FEF757FE0FE006208DF8080000F00A
S315080074A0FEFF8DF80900022300200190009002AA31
S315080074B0708801210AF0D9F80646FF2E08BF002079
S315080074C011D02868418830460FF057FCA07C022866
S315080074D01CBF3046FFF78EFF00F046F804463046DC
S315080074E004F0E8FE204604B070BD70B588B00C46BE
S315080074F016461D4630B9204610F05CFB03A909F074
S31508007500C2F803A807218DF808100190310A8DF8F2
S315080075100A1001200C998DF80B1000908DF809605F
S31508007520042302AA012120460AF09FF80646FF2EE8
S3150800753018D021460FF021FC15B93046FFF75AFF3F
S315080075400D9808B930460DE0204609F0D8F818B16C
S31508007550304610F05DFB01E000F006F8304604F016
