S0100000656D3236302D7370692E73333701
S31500000000D8E20320F1900200B9820200D5900200E6
S31500000010A70A020200020000041809AC0060D4001E
S3150000002000000000000000000000000000000000CA
S315000000300000000030A402000000000000000000E4
S315000000400000000000000000FFFFFFFFFFFFFFFFB2
S31500000050FFFFFFFFFFFFFFFFFFFFFFFFFFFFFFFFAA
S3150000006000700F000000000000000000FFFFFFFF0F
S31500000070FFFFFFFF1C000000000000000000000062
S3150000008000000000000000009DFE03209DFE0320EE
S31500000090D8E2032008B602001E94020078D9032095
S311000000A03C0F00200000100000000000D3
S31500000200D8E20320F1900200B9820200D5900200E4
S31500000210DD900200D9900200E1900200ED9002000C
S31500000220ED900200ED900200ED900200ED900200CC
S31500000230E5900200ED900200ED900200F1540100FD
S31500000240373A0200F79801007DF40100ED900200B4
S31500000250779801004B990100F9980100499901002E
S315000002607598010081890200C34602002FC401006F
S315000002706BD40100ED900200ED900200D38E0200D7
S31500000280ED900200ED900200E1460200ED900200C2
S31500000290ED900200ED900200ED900200ED9002005C
S315000002A0ED900200ED900200ED900200ED9002004C
S315000002B08B990100AB990100C1280200ED90020064
S315000002C0ED900200ED900200ED900200ED9002002C
S315000002D0ED900200ED900200ED900200ED9002001C
S315000002E0ED900200ED900200ED900200ED9002000C
S315000002F0ED900200ED900200ED900200ED900200FC
S31500000300ED900200ED900200ED9002006F49704AF8
S3150000031001E021B1491E1369DB07FAD401B9B0E047
S31500000320506001201060106910F0060F05D04107DB
S3150000033000D5A9E0800700D5A9E000207047F0B5F8
S3150000034013460022002936D0604C614D8BB98B4292
S3150000035031D250F8046BEE605B1C08262E602646F0
S3150000036001E036B3761E2F69FF07FAD4002EEED1D0
S315000003701FE0EFF3108672B600230EE02F6907F038
S315000003801907102F08BF2F602F693F07F6D550F8C1
S31500000390047BEF605B1C10272F608B42F4D306B9F9
S315000003A062B6264601E026B1761E2869C007FAD451
S315000003B00EB96FF002021046F0BD2DE9F0479A46DD
S315000003C0444B454F1C681B683B688046002043F041
S315000003D001033B60950881460C4602E0B14404EBFC
S315000003E08604A94517D208EB89063046FFF78EFF2B
S315000003F0010014D1C6F30A00C0F500608608A5EB1B
S315000004000900B04238BF0646524631462046FFF73D
S3150000041096FF0100E2D03968490849003960BDE815
S31500000420F0872C49294A0B6809682B490B6843F069
S3150000043001030B608860012048604869400704D5C5
S3150000044008684008400008601EE04869800704D537
S31500000450086840084000086019E00220486001E092
S3150000046022B1521E4869C007FAD422B9086840086A
S315000004704000086005E00868400840000860002069
S3150000048070476FF0020070474FF0FF3070476FF013
S3150000049001007047002390E70F48016841F0010111
S315000004A0016046F21A31C1644FF4807141604169BE
S315000004B0C907FCD44FF4007141604169C907FCD4F7
S315000004C00021C1640020704700000000809698005B
S315000004D00C000E4004300E4008000E4010B50446D5
S315000004E000F098FD204601F05EFD204602F068FA15
S315000004F02046BDE8104002F019BC01F09CBD10B5C5
S31500000500044600F0D4FD204601F0C7FD204602F067
S315000005107FFA204602F06FFC2046BDE8104002F04C
S3150000052007BC10B500E010B5044600F029FE2046D1
S3150000053001F097FE204602F087FA204602F0C5FC3D
S315000005402046BDE8104002F004BF10B5044600F096
S3150000055044FE204601F0B3FE204602F0A4FA09E06C
S3150000056010B5044600F05EFE204601F0EAFE204685
S3150000057002F0B6FA204602F0C0FC204602F001FF67
S315000005802046BDE8104002F06ABC80B503F05CF975
S31500000590BDE8014002F088B910B5044602F09AFDA4
S315000005A02046BDE8104002F06EBC0198704703F08B
S315000005B0BAB970472DE9F04701241028A4B00FF608
S315000005C0C015DFF83479D9A3D9A60FF26839DAA1B4
S315000005D00FF268380FF2683A00F02C8118281CBF19
S315000005E01D2820286FD0212800F0FF8022286AD0FD
S315000005F0282800F0A280292800F0C5802A2862D089
S315000006002B2800F044812D2800F062812E285AD034
S31500000610302826D0332800F06081342800F060812D
S31500000620352800F0E382362800F08C81372800F068
S315000006301782382800F0B181392800F045823A281F
S3150000064000F0D781422800F053824A2800F0AF809C
S315000006504C2800F0D5825A2800F05C825B2832D004
S315000006605D2800F0C783632800F0A082642800F0AC
S31500000670AA826A2803D06F2800F00A83712800F046
S31500000680D782732818BF772800F0C2837A281AD039
S31500000690822800F05982832800F08783842818BFB7
S315000006A0852810D086281CBF872888280BD0892843
S315000006B000F082838A281CBF8B288D2803D09028BF
S315000006C000F0EA83952800F08383962800F086825E
S315000006D09A281CBFA128A428F5D0A62800F0548388
S315000006E0A82800F0F182A92800F00A83AF2800F0BC
S315000006F02383B128E7D0B22800F09883B92800F008
S31500000700B183BA2800F0B383BC2800F0B383BD28B8
S3150000071000F0BB83C12874D0C22800F08880C328AB
S3150000072000F08280CE2800F01483E828CBD0ED2894
S3150000073000F03783EE28C6D0CDE301A9684601F064
S31500000740E5FB00F006FC3146002003F0D5FA00F088
S31500000750F0FBBDF80C0003F00CF99DF80E0003F059
S31500000760FCF89DF80F0003F0F8F89DF8100003F070
S31500000770F4F8BDF8120003F0FCF89DF8140003F03D
S31500000780ECF80698FDE208208DF809000DF10A0143
S3150000079003A801F0E1FB8DF8080003AB0DF10A0098
S315000007A0019002AA0DF109000090E3A13CE200F0DD
S315000007B0DDFB9DF8010001A901F0DFFB00F0CFFB96
S315000007C000F0B7FB9DF80C0003F0C7F8BDF80E006B
S315000007D003F0CFF89DF8100003F0BFF89DF8110064
S315000007E003F0BBF89DF8120072E301AB0DF10102B4
S315000007F0D2A100F0ABFB01999DF8010001F0BFFB0F
S3150000080025E30DF1060200F07DFB9DF8060001AA26
S3150000081002A901F02AFB8DF8050002AB01A80090A1
S315000008200DF10502C6A1FFE101F021FB50E301F045
S3150000083020FB4DE30DF1150004900DF11E030DF1A3
S315000008401600039006AA0DF1170002900DF11A008A
S31500000850019007A8009001200FF21C7103F04CFADA
S315000008609DF81500BDF81A30BDF81C20BDF81E1005
S3150000087002909DF8160001909DF8170000909DF8D3
S31500000880180003F001FB8DF8140005AAE2E203F05C
S315000008904BF8054603F048F88DF8000003F044F8DD
S315000008A08DF8010003F06CF8ADF8020003F03CF897
S315000008B08DF804000DF10501082003F03CF803F063
S315000008C033F88DF80D006946284602F03FFDFFE239
S315000008D003F02AF802F03BFDFAE203F040FFB6E22D
S315000008E00DF1120304AA97A100F030FB06A803F04D
S315000008F093F803A8019003AB05A800900DF10F0231
S31500000900494600F005FB0DF10D00029006AA059878
S315000009109DF80F30BDF8121001909DF80C00009064
S315000009209DF8100001F0E9F930E000BF7600000004
S315000009307575000075757000620000007570000026
S31500000940750000000DF112021946012003F0D4F9DA
S3150000095006A803F061F803A802900DF10F0305A89D
S31500000960019004AA03A800F0D1FA0DF10D0002903F
S3150000097006A905989DF80F309DF8102001909DF866
S315000009800C000090BDF8120001F0C0F98DF80E00C1
S315000009900DF10D030DF10E022DE107A803F03CF851
S315000009A004A8039005AB06A802900DF1150204A851
S315000009B001900DF11300009001200FF2CC5103F0CD
S315000009C09BF90DF11100029006989DF813309DF8E1
S315000009D014209DF8151001909DF81000009007A8AE
S315000009E001F0A0F98DF812000DF111030DF11202BC
S315000009F001E10AA803F010F806A805900DF11D0301
S31500000A0009A804900DF11E0206A803900DF11B0023
S31500000A10029007A8019008A8009001200FF27051DB
S31500000A2003F06AF90DF1190004900998BDF8203019
S31500000A309DF81D209DF81E1003909DF81800029049
S31500000A409DF81B0001909DF81C0000900AA801F07B
S31500000A5084F98DF81A000DF119030DF11A02CAE096
S31500000A600DF1190000900DF11A0307AAB1A100F0CB
S31500000A704FFA09A802F0D0FF05A802900DF117035E
S31500000A8008A8019006AA05A800F040FA0DF1150085
S31500000A90049009AB08989DF81920BDF81A10039028
S31500000AA09DF8140002909DF8170001909DF818001B
S31500000AB00090BDF81C0001F075F98DF816000DF1D7
S31500000AC015030DF1160296E00DF1060219460120F6
S31500000AD003F012F903A802F09FFF00F01CFA029B34
S31500000AE09DF80420BDF8060003A901F090F96AE11B
S31500000AF00DF1050000900DF1060302AAD7A100F042
S31500000B0007FA9DF805209DF80610BDF8080003F0C9
S31500000B105EFF0BE100F011FAD1A100F0F9F9039A9A
S31500000B209DF80810BDF80A0004F0CDF88DF809000C
S31500000B300DF109028EE100BF75627600757700003F
S31500000B40757675007576000008208DF811008DF811
S31500000B5010000DF10E00029005A801900DF1110094
S31500000B60009008AB0FF230450DF10F0200F0CFF9FF
S31500000B7003A802900DF11200019006A800909DF8BE
S31500000B800E30BDF814209DF80F0008A901F073F986
S31500000B908DF80D0006AB03A802900DF10D020DF1C4
S31500000BA012000190294604A800903DE000F0DEF90D
S31500000BB09DF8010001A901F083F900F0D0F901A820
S31500000BC002F041FF8AE100F0D1F901A802F040FFEE
S31500000BD09DF8010001A901F086F938E100F09BF9C2
S31500000BE002999DF8040001F0ADF8ECE0684604F0C7
S31500000BF0B3F800F0AEF93146002003F07DF86DE160
S31500000C0086208DF806000DF1050200F07BF99DF8AF
S31500000C10050002A901F0B6F98DF8040002AB0DF14A
S31500000C200600009001AAAFA1002003F065F855E187
S31500000C306A4600F067F938786A289DF8000001A92D
S31500000C4002D104F007FA01E004F061FD8DF801001D
S31500000C500DF1010200F086F9BDF8040002F089FEEC
S31500000C609DF8060002F079FE0DF10701102002F052
S31500000C709FFE069802F08DFE079802F08AFE9DF808
S31500000C80200002F06AFE0DF1210100F053F925E182
S31500000C9009A802F00DFF00F050F9494600F038F9B6
S31500000CA004A80090039B9DF808209DF80A1009A847
S31500000CB001F05CFE8DF809000DF1090200F052F911
S31500000CC004A802F0ECFE09E108208DF80E008DF86C
S31500000CD00D0007AB0DF10D00029004AA05A80190C6
S31500000CE081A10DF10E00009000F012F9BDF8100080
S31500000CF005AA07A904F0F1FE8DF80C0003AAA9E0E5
S31500000D0008208DF8050002AB0DF1050000900DF1ED
S31500000D10060276A100F0FCF804A9102002F00BFEF2
S31500000D20BDF8060004AA02A904F017FF8DF8040016
S31500000D3001AA8FE07676750000F0F5F800F005F967
S31500000D4003A9102002F0F7FD03A901A801F028FE6F
S31500000D507DE000F0E8F802208DF8000000F0F5F8DC
S31500000D6003A901A801F024FE00F0F9F803A900F098
S31500000D70E1F805A9102002F01BFE099802F009FE11
S31500000D800A9802F006FEA9E000F0C5F802999DF85F
S31500000D90040001F0CFFF8DF805000DF1050200F00B
S31500000DA0E1F801F0E2FF02F0D8FD02F0BDFD00B16E
S31500000DB0012001F086FF8BE000F0ADF802999DF866
S31500000DC0040001F087FF8DF805000DF1050241E0F2
S31500000DD03A780FF2CC10002500E06D1CEDB2415DB3
S31500000DE09142FAD102F0A0FD0FF2CC1151F8251074
S31500000DF088476DE002F098FD054602F0C1FD014608
S31500000E00387830280CBF3D4A3D4A2846904765E071
S31500000E106946102002F08FFD38787728684602D19F
S31500000E2005F06CF954E004F08FFE51E001A802F0E1
S31500000E304FFE0DF101030DF102022DA100F086F81F
S31500000E409DF901209DF8021001A802F033F88DF8F3
S31500000E5000006A4600F086F840E000BF767575002F
S31500000E607675700002F060FD05F0F0FD30E005F0EB
S31500000E70F2FD2DE004A9684605F0BFFD684602F0C4
S31500000E8056FE04A802F081FE28E0684602F065FEE0
S31500000E90684605F0BAFD21E008208DF8120006AB81
S31500000EA004A803900DF1110205A8029011A104A84F
S31500000EB001900DF11200009000F02AF89DF8110043
S31500000EC000B10120059B9DF8102006A901F0BBFA90
S31500000ED002F043FD02E005F0F7FD0446204624B08B
S31500000EE0BDE8F087756200007662620076620000F7
S31500000EF0757300007562700075FE03206B35000087
S31500000F007FD700005146012002F0F6BE0090294628
S31500000F10012002F0F1BE01A8009002AB01AA4146F1
S31500000F20012002F0E9BE08208DF801000DF1010351
S31500000F30704701A9082002F03BBD02A8019002AB50
S31500000F4003A800900DF10A02704701AA012002F0E1
S31500000F50D3BE8DF801006B460DF1010270478DF886
S31500000F6000006A465146002002F0C6BE0DF101029D
S31500000F705146012002F0C0BE75767676757575000D
S31500000F807575757000000000757575757000000048
S31500000F90757576757575700075627675000000005A
S31500000FA0181D207A2A84858687888B8A8D959A2EA5
S31500000FB05BB1A4A122E8EE009BC30000D16B010047
S31500000FC01DF60000E1760100913800007539010038
S31500000FD0F53901000B3A01001F3A01003B3A0100C6
S31500000FE0C33A0100AD3A0100F13A0100BB750000B9
S31500000FF0CFC000005D440100614401005759000064
S31500001000A17F0100AF7F0100F1AC0000513B010060
S315000010105F3B010038B504462078002846D1607051
S31500001020012020722070A078032832D0072834D0FF
S31500001030112808D0152833D0302818D0312819D0D7
S3150000104032281AD030E00720DFF8405B207204F126
S315000010500900298806F0A8F8A878E072E8782073D5
S31500001060287960736879A073A879E07331BD06F0BA
S31500001070C1F817E006F0C3F814E00420207206F069
S31500001080C0F804F10901BDE838400246012006F027
S315000010908FB8DFF8FC0A007804E006F071F901E089
S315000010A006F07CFF607231BD0020207031BD38B57E
S315000010B004462078002862D101202070A0780428F8
S315000010C014D0072818D00E281ED0112852D0152863
S315000010D03AD017283DD0182845D0192846D03028B0
S315000010E02CD0312818D032281CD046E0207A01288E
S315000010F014BF362000203EE0607A10B106F00EF9EB
S3150000110039E006F01DF936E0607A00B1012007F0FB
S3150000111091FA00282FD015E0607A00B1012007F07F
S315000011208CFA0EE0207A04280CD104F10901012082
S3150000113006F04CF807F083FAE8B103E0607A06F0AF
S315000011405BF8C0B1362016E094F9090006F0E0FE1F
S315000011500EE0657A04F10A0006F01FF801462846FB
S3150000116007F013FB04E007F00BFB01E007F0FBFAC6
S31500001170002000E03720607031BD0020207031BDB6
S3150000118010B50446DFF80C0A0079217856280CBF02
S315000011900120002001BBA1706178072910D130B170
S315000011A007F04CFB012814BF632062200EE0E078B4
S315000011B062280CBF0120002007F043FBA07009E065
S315000011C0042909D1DFF8D01910B10878E07001E0E0
S315000011D0E07808700120207010BD017809BB81708D
S315000011E001210170417801290ED00C2909D0172957
S315000011F00DD02D2902D034290CD010E0DFF89C192F
S315000012000AE0DFF89C1907E0DFF8981904E0DFF838
S31500001210981901E0DFF89419097881807047002158
S315000012200170704738B50446207800285AD101204D
S3150000123020700020A0706078012815D00C280FD0EF
S3150000124017283DD02D2802D0342844D048E0A18864
S3150000125003293DDAC9B2DFF8440907F061FC38E03A
S31500001260A088DFF83C1939E0DFF84409008828BB7C
S31500001270A08818B3DFF83C59287807F077FE08F005
S31500001280B4F980B1A188DFF81C09C9B207F048FC9F
S31500001290A07008F0B4F9DFF82009DFF8201900681B
S315000012A0401D086001E03820A070012007F0F3FD22
S315000012B028700020DFF80819088031BD382008E0C2
S315000012C0A08806F0F8F818B9A088DFF8DC1805E061
S315000012D03620A07031BDA088DFF8D018087031BD67
S315000012E00020207031BD80B501208DF800006846D1
S315000012F0FFF752F99DF8000002BD00002DE9F04FFE
S31500001300A7B008F0A1F908F0AFF9DFF8AC880446F9
S31500001310D8F80000817800270225FF294FF003093D
S315000013202DD1C1780679042511F03F004FF005094B
S3150000133018BF492723D108060AD508F0D7F928B1DE
S3150000134008F0D8F9123C0746E4B218E0482716E040
S3150000135008F0D3F9002818BFCB2E0AD0CA2E18BF22
S31500001360CC2E06D0CD2E18BF002E02D0AA2E18BF26
S31500001370482708F0BBF900281CBFCC2E4A27D8F80E
S315000013800000465D90F801A0DFF808580AF0030156
S315000013908DF808102E71017869704844DFF824181A
S315000013A00860DFF8181808604FEA5A1000F00300CA
S315000013B0687108F065FA380018BF582604D15FEA4C
S315000013C00A6002D55826322083E2A87820B9287907
S315000013D010B1582630207CE208F01CFD10B95826C2
S315000013E0422076E2FFF77FFF002800F0748228791A
S315000013F0A978DFF8D4B7020094A70FF2542A4FF663
S31500001400FF7972D0012800F0F381022800F0AA804B
S31500001410032800F0FC80052834D0062800F04B8114
S31500001420092818BF0A2800F04E810B2818BF0C287F
S3150000143000F050810E2800F06481122800F0A98186
S31500001440132800F0DA81172800F0EB81262800F037
S31500001450DA81272800F0E081472800F0D181492869
S3150000146000F03F814E2800F07381522852D0532855
S3150000147067D0552800F08E80562800F0A280652897
S3150000148027D0812800F00C818F2800F0F781912861
S3150000149000F00E82942800F0FD81AA2800F0AD80AD
S315000014A0AB2800F0D780AC2800F0E980AD2800F02A
S315000014B0E980AE2800F0E980CA2800F0BC81CB287C
S315000014C000F0C281CC2800F0CD81CD2800F0CD817E
S315000014D0F12800F07A81F52800F0DA80F62800F08D
S315000014E0DC80FC2800F0A481EEE102F01DFA04463F
S315000014F0062002F032FA022002F02FFA4FF4C04022
S3150000150002F037FAA878002808BF062C01D101207E
S31500001510A870E0E100F010FA02F006FA8DF801007A
S315000015206846FFF712F89DF8000028B937208DF8B5
S3150000153002000020ADF8040001AB0DF10202B5A1D6
S3150000154057E0012918BF382023D100F0F5F901AB87
S315000015500DF10102AFA1012002F0CEFB6846FEF7B5
S31500001560FFFF25E03827012912D1611FC9B20520E6
S3150000157008F075F80446FF2C08BF352708D008F098
S315000015805BFC002814BF00273627204607F0EEFC38
S3150000159038469EE1042200F0D0F90DF103030DF167
S315000015A001023946012002F0A7FB6846FEF7BBFFA1
S315000015B09DF8000010B937208DF802009DF8020052
S315000015C087E1042200F0B9F902F0AEF98DF80100C6
S315000015D06846FEF7A6FF9DF8000028B937208DF86B
S315000015E0020000208DF803000DF103030DF1020245
S315000015F03946002002F080FB6DE100F098F902F018
S3150000160093F98DF80E0003A8FEF768FF0BE000F0D3
S315000016108EF904AB0DF10E02BEA1012002F06CFBA7
S3150000162003A8FEF76AFF9DF80C0028B937208DF84D
S315000016300D0000208DF8140000F072F90DF10D0276
S315000016405146002002F058FB45E100BF75750000C9
S315000016507575620000F06BF900F062F90DF10E028B
S315000016605146012002F048FB03A8FEF748FF9DF80B
S315000016700C0000280CBF37209DF80D0029E108F06A
S31500001680EFFC28E108F0EDFC25E108F0EEFC22E194
S3150000169002F076F908F0EDFC1DE108F011FDBDE061
S315000016A0062CF9DBDFF81405DFF8101500680019C1
S315000016B0401F08600FE1012000F043F9002840F0C8
S315000016C02581072607E109280CBF0120002002F02A
S315000016D003F900E10C280CBF0120002000F0DAF924
S315000016E0F9E00121684605F09AFE28B1002002F0D3
S315000016F034F9BDF8000091E0362002F02EF9002002
S315000017008CE002F011F9824602F03AF9814602F0C5
S315000017100BF9074602F008F90446B9F5004FB4BFC5
S31500001720042F702011DABAF1020F0FDA0BEBCA0A96
S315000017303A46DAF80000494608F0EEFCAAF80490AA
S3150000174004B900278AF806700020C2E07020C0E0C5
S3150000175002F0EAF8814600240020B9F1020FADF844
S3150000176002008DF800000BDA5BF839006A460DF1CD
S31500001770020108F0E1FC0BEBC900807900B10124FD
S31500001780BDF8020002F0F5F89DF8000002F0E5F859
S315000017907EE002F0C9F8040018BF0124002008F01A
S315000017A0FDFC07463A46FF2A08BF182024D0002C25
S315000017B014BF48460220B6A108F03EFD002002F004
S315000017C0CCF8384607F0D2FB85E04FF00009DFF889
S315000017D0FC4334F8190002F0CCF809F10109B9F11B
S315000017E0280FF6DB2879652875D106F0BCFF72E074
S315000017F002F09AF808F068FE6BE008F01AFB6AE05F
S3150000180008F00EFB67E0DFF8C813082002F0D0F8F6
S3150000181061E000BF7576000009F021F802F0A9F832
S3150000182059E0684602F04DF9684609F082FB50E03F
S315000018300AF066FE4DE000F06FF802F0B1F80146DE
S3150000184003A80AF067FE44E002F06EF8044607A912
S3150000185000F063F803AA07A920460AF05DFE02F02D
S315000018607CF820E00AF05AFE33E068460AF058FE9B
S3150000187002F073F8009802F08CF82CE00AF061FE92
S315000018800124484504D002F04FF8D24900240870DC
S3150000189020461EE000F040F807A900F03EF807A930
S315000018A003A80AF0AAFE03A9102002F081F812E0AC
S315000018B00AF047FE02F05DF8042002F04EF8182008
S315000018C002F04BF8092004E0FEF774FE18B958261A
S315000018D0312002F042F8D8F8001068780870D8F87D
S315000018E000008178002902BF29780029867004D07B
S315000018F0FF218170D8F800000671072E0CBF012267
S3150000190000229DF80800012100F031F827B0BDE85B
S31500001910F08F00007577000003A9102002F00BB8C5
S3150000192005A8019005AB0DF11500009070478C22BB
S31500001930002103A80AF0D5BE0622002168460AF057
S31500001940D0BE38B59A4D0446288810B107F094FEEB
S3150000195008B9002032BD288808B907F07EFE9E48E7
S3150000196000780122214600F002F8012032BD2DE95F
S31500001970F84F914F04463868884681789346022589
S315000019804FF00309FF298D49096804BF04254FF06C
S3150000199005090E1A07F0AAFE0028B6B21EBF38685F
S315000019A0405DCC281CBF1236B6B25FEA0B0004D0ED
S315000019B038684078C0F3411A02E007F05DFF8246BE
S315000019C0764909788A4505D340F229410FF2142059
S315000019D00AF0B0FE4FEA4A1040F08000DD2E5FFAB2
S315000019E080FA05DBDC2007F043FE4AF0020A02E03B
S315000019F0F0B207F03DFE6749C87818B100204AF0FA
S31500001A00020AC870754802781AB100224AF0010A23
S31500001A100270674E308808B14AF0040A38681BEA3B
S31500001A20080F18BF4AF0080A80F801A038688078C5
S31500001A3010B9012008700FE007F058FE00281EBFFD
S31500001A403868415DCC2904D08021C17007F050FE72
S31500001A5002E039680020C87007F04FFE48B13868C8
S31500001A60415DCB2901BF10F809000028022007F0CC
S31500001A7043FE012C18BF022C02D1308800B100248D
S31500001A80554804704046BDE8F24F07F0D4BD00004B
S31500001A90620000002DE9F04198B0044601F044FFD1
S31500001AA00546062D12D1DCB9282001F056FF4C4818
S31500001AB001880223224668460AF04DFFBDF8000061
S31500001AC001F057FF641C142CF1DB5BE0082D01D0FC
S31500001AD00B2D01D124B952E0200003D0092D01D1EC
S31500001AE070204DE000260FF2101000EBC607387884
S31500001AF0854230D197F80180200004BF404601F0AE
S31500001B002CFF786801884346002201A80AF023FFCB
S31500001B10200027D001F008FF97F80180404501D04A
S31500001B2002202DE0002000E0401CC1B2414501A981
S31500001B3005D2C0B2095CFF29F6D0462020E0404617
S31500001B4001F0F9FE78680088424601A90AF0CFFF45
S31500001B50002001F002FF761CF6B20B2EC3D374B13F
S31500001B60B1200DE0092D05D1152200210DF14A0005
S31500001B700AF0B7FD787801A901F01AFF02E000200B
S31500001B8001F0EBFE18B0BDE8F081000028A80200C5
S31500001B90B3E7032071FE0320CDE70320BAE7032055
S31500001BA068FE0320B2E7032077FE0320BCE703208C
S31500001BB056FE0320E3E7032050F5032064F10320DB
S31500001BC0EAFB032060F103202CE703205CF50320E9
S31500001BD054F50320E2E7032087FE032054FE03208A
S31500001BE098B20200636F6D6D616E642D68616E64FC
S31500001BF06C6572732E6300000110000090B2020043
S31500001C000210000092B202000302000094B2020029
S31500001C1005100000A2B20200070800009EB20200F2
S31500001C20000200008CB202000402000096B202001C
S31500001C30095C0000A4B202000A140000A6B2020069
S31500001C400D020000A0B202000C0800008EB20200D5
S31500001C502DE9F84F80460D46DFF8840B0A99067881
S31500001C6001247E2991469A46A8BF742043DA0800CB
S31500001C7003D00B9807F0FDF901E000F0C5F88346A4
S31500001C800C9FBBF1FF0F03D100201824387031E000
S31500001C90342E06D0362E0ED0382E13D0962E18D0CF
S31500001CA01AE05B464A462946404602F07FFA044659
S31500001CB002F0BEFF10E05B4642464946284602F067
S31500001CC0D5FA08E05B46EAB24146484602F049FBCF
S31500001CD001E00BF0C0FB0446962E1CBF99F80A00E3
S31500001CE0387024B9DFF8FC0A006800F80BA05846E3
S31500001CF007F03CF92046BDE8F28F10B584B0089C89
S31500001D000294079C0194069C009407E010B584B0E9
S31500001D100446104600F00FF80A462146FFF798FFE2
S31500001D2004B010BD10B5044684B00846114600F054
S31500001D3002F82246F2E7089A0292079A0192069A58
S31500001D4000927047E0B500220191009002920023B4
S31500001D5000210020FFF77CFF0EBD2DE9F04683B081
S31500001D600D460C990746080091469A4603D00D98F1
S31500001D7007F07FF901E000F047F804460E9EFF2CBD
S31500001D8003D10020182530700BE00A980190CDF899
S31500001D9000A023464A462946384602F0C7FA00F014
S31500001DA027F822E02DE9F04683B089460C990546CE
S31500001DB0080092461F4603D00D9807F05AF901E035
S31500001DC000F022F804460E9EFF2C03D100201825B1
S31500001DD030700AE00A98009001943B465246494604
S31500001DE0284602F065FA00F003F82846BDE8FE86AC
S31500001DF00500B87A307004D1DFF8E81909680B9845
S31500001E000855204607F0B2B8002007F011B938B5DA
S31500001E10DFF8D4492080C888440606D5DFF8CC49C7
S31500001E202478202C03D1000401D4702032BDDFF8C1
S31500001E30C0491000216004D01146184607F019F970
S31500001E4001E0FFF7E1FF0546FF2D08BF18240AD081
S31500001E5020684088294602F089FC044602F0E8FE24
S31500001E60284607F083F8204632BD02F061BE0BF02B
S31500001E702FBC0BF029BC2DE9F041069F0D46044608
S31500001E801646984639460BF0A6FC20460BF0BBFCDE
S31500001E900799088038460BF0C5FD08990870294651
S31500001EA020460BF02EFC074638B9314620460BF08B
S31500001EB066FC414628460BF0D3FD3846BDE8F08166
S31500001EC0DFF830391B78984201D370207047DFF86D
S31500001ED02829126832F820300B8002EB80008078C7
S31500001EE0887000207047DFF80C391B78984201D3C0
S31500001EF070207047DFF8002912680B8822F820301E
S31500001F0002EB8000897881700020704730B585B07B
S31500001F100C460AF0FDF80546002020731023072220
S31500001F206946012005F081F9082202A920460AF037
S31500001F3095FBBDF80000208104F114019DF8020014
S31500001F40A0729DF80300E07204F110000BF0E2FDB0
S31500001F50E08105B0284630BD38B504460D460AF086
S31500001F60DBF90146082220460AF078FB0AF0D0F990
S31500001F702880DFF88808007832BD0CF096B9FF2279
S31500001F8009F053B870B588B00D460446694602F0AC
S31500001F902FFF060004D12A466946204601F091FE2D
S31500001FA0304608B070BD10B504462078002841D1EF
S31500001FB0012020722070A078401E0BD0401E07D052
S31500001FC0801F07D0401F05D0401F022802D903E01A
S31500001FD00220207200206070A07801280CD0022810
S31500001FE014D008280CD00D280DD0122817D013288D
S31500001FF017D0142818D01BE0DFF80408007815E085
S3150000200008F06EFD12E00CF0B1FF0FE0DFF8F40708
S31500002010018804F10900BDE8104005F0C5B8FF20AD
S3150000202004E008F0FCFF01E00DF024F9607210BD39
S315000020300020207010BD10B5044682B0207858BB31
S315000020400120207000206070A07818B1022819D0F5
S315000020500BD31FE061686A46C9B207F053FF607090
S315000020600220207204F1090007E00320207268466E
S315000020700DF0CBFA607204F10A00BDF8001005F00D
S3150000208093F813BD01202072606880B202F060FDF3
S31500002090607213BD0020207013BDF0B5044685B0F4
S315000020A02078002840F0D78001202070A078010019
S315000020B023D0012845D002284BD0052818BF062872
S315000020C050D0082800F0C080092859D00A287CD0B2
S315000020D00B2800F07F800C2800F088800F2800F085
S315000020E08A80232818BF242800F09280252800F033
S315000020F0A080292800F0AA80ABE0207A102862D1BF
S3150000210000F0ABF8ADF80400082294F90B008DF846
S31500002110060004F11001207B8DF80700607B8DF826
S315000021200800A07B8DF80900E07BADF80A0003A843
S315000021300AF094FA1023072201A9002005F075F889
S3150000214080E0207A01283ED1607ADFF8B416087064
S3150000215078E0207A022836D100F07FF8DFF8A4165E
S3150000216008806FE0207A02282DD100F076F8A17859
S3150000217005290CBFDFF89016DFF89016088061E09D
S31500002180DFF88C060568207A46080DB9DEB959E0F5
S31500002190DFF880060078B04215DB002707E004EB85
S315000021A04700093004F0F9FF25F817007F1CB742F5
S315000021B0F5DB4FF4004725F8167028460DF063FC52
S315000021C0002844D02F80362041E000F046F80DF07C
S315000021D042FE37E0DFF840060068407B20B900F099
S315000021E03CF808F040FB2DE0382030E0607ADFF85C
S315000021F02C16087026E0657A04F10A0004F0CDFF7B
S31500002200ADF800006A462946012007F07BFE1EE075
S31500002210217A042912D123280CBF0325012504F1B4
S315000022200901012004F0D2FF014628460EF092FC77
S315000022300DE0607A032818BF042801D0022006E0CA
S3150000224009F03BFE002002E0372000E070206070BD
S3150000225001E00020207005B0F0BD04F1090004F093
S315000022609CBF10B50446DFF878050078217856281B
S315000022700CBF0120002009BBA170DFF87025617832
S31500002280032905D108B150780FE0E078507013E0CB
S31500002290022905D108B1107807E0E07810700BE04C
S315000022A009290BD118B109F0DAFFE07004E0E078F3
S315000022B000B1012009F0C5FF0120207010BD017892
S315000022C001B1704730B5817001210170417805294F
S315000022D008D0122915D018290CD01F2914D0382956
S315000022E015D018E0DFF83815DFF8382509781278A8
S315000022F0891A24E0DFF830150A78511E8941C90F82
S315000023001DE0DFF8281504E0DFF8241501E0DFF80A
S315000023102415098813E000220FF2CC5300E0521C6A
S31500002320D2B214461D5DFF2D02D10021017030BDD1
S315000023308D42F4D10FF2CC5151F8241009788180E6
S3150000234030BD70B50446207800287BD1012020706E
S3150000235000206278A070052A0AD0122A2CD0182AEA
S315000023601FD0192A04D01F2A22D0382A2FD033E0B2
S31500002370DFF8B0040578DFF8A80401784E1BA188C1
S31500002380052A0CBF0E460D46A919C9B206F0C8FBB0
S315000023900028A07056D1E9B2F0B2BDE870400EF048
S315000023A041BEA188481E8041C00FDFF87C143FE083
S315000023B0A088DFF87C140DE0A18847F231508142F5
S315000023C0A8BF36203BDADFF86404018070BDA08820
S315000023D0DFF86014088070BD0FF20C5100E0401C5D
S315000023E0C0B20346CD5CFF2D02D10020207070BD27
S315000023F09542F4D1A188022B08DADFF83C0450F8A4
S3150000240023000078884238BF362018D30FF2F440F4
S3150000241050F82300092B0DDAC9B206F081FBA07033
S31500002420002804BF607811280CD1A088DFF80C14AE
S31500002430087070BD342A04D1C9B206F071FBA070D1
S3150000244070BD017070BDF8B504460D4611461846BC
S3150000245006F00FFE18260746FF2F08D03A462946F3
S3150000246020460FF019F90646384606F07FFD30463D
S31500002470F2BD38B504460D462188284604F094FE80
S315000024806188A81C04F090FE207928716079687133
S31500002490A81DE18804F088FE218905F1080004F0F2
S315000024A083FEA07AA87231BD10B586B004461B2003
S315000024B08DF80000A0788DF801000DF1020021884A
S315000024C004F072FE0822211D01A80AF0C7F8E1787F
S315000024D08DF80C10217B8DF80D10607B8DF80E00A9
S315000024E00DF10F0000F0E7F9112100F01FF906B019
S315000024F010BD80B51C228DF801008DF802108DF8F4
S315000025000020D9E02DE9F04788B007460D4614466D
S315000025100FF039F9824622462946384607F07EFCF6
S31500002520002863D10DF109000FF035F930B96220AA
S315000025308DF80800092102A80FF095F9FF2C0FBFAE
S315000025400026BF4909680E5D45208DF808008DF804
S3150000255009700DF10A012846FFF78BFF0DF11500F2
S3150000256000F0A9F951460DF1170004F01DFE02F026
S3150000257022F98DF819000027B248DFF8A88205680D
S31500002580DFF89C9201E07F1C0C3599F8000098F862
S315000025900010FFB2401A87420ADA28885045F2D165
S315000025A007F092F9A97AC1F342018142EBD100E02A
S315000025B0FF278DF81A708DF81B60504602F0C8FA96
S315000025C08DF8040000B10120009001AB22461421D1
S315000025D002A80FF050F900281EBF84480078212871
S315000025E004D19948017841F00401017008B0BDE8B2
S315000025F0F0872DE9F0430746914800681D4687B0ED
S31500002600465D0E9C884691462146384601F029FCD7
S315000026103F208DF804008DF8057041460DF1060047
S3150000262004F0C2FD02A94846FFF723FF6D48006883
S31500002630405D8DF813008DF81440844800784028DA
S3150000264004BF0026FF25002000908DF815600023AA
S315000026502A46122101A80FF00EF907B0BDE8F08353
S3150000266030B589B00D46044604A90BF01EFE2320A2
S315000026708DF800008DF801408DF802500DF1030031
S31500002680BDF81A1004F090FD082204A90DF105000A
S3150000269009F0E4FF9DF818008DF80D000E2100F0FA
S315000026A045F809B030BD80B57C218DF80010014693
S315000026B00DF1010004F078FD032168460FF0D3F810
S315000026C001BD70B586B004467D208DF800000D462C
S315000026D0164621460DF1010004F066FD0822294642
S315000026E00DF1030009F0BAFF8DF80B600C2100F024
S315000026F01DF803A80FF04FF818B903A920460EF0ED
S3150000270097FC06B070BD38B504460D4601F08EFB49
S3150000271080208DF800008DF8014029460DF1020059
S3150000272004F042FD042100F001F831BD68460FF0C7
S315000027309AB810B584B0044646208DF8040001A866
S3150000274021784170617881700DF1070000F0B3F8CF
S315000027503B48A1780068405C8DF809000023002002
S3150000276000900621A27801A80FF085F81FBD80B55C
S3150000277098208DF800008DF80110684602219DE72B
S315000027801FB50C4692218DF80410082201460DF162
S31500002790050009F063FF0DF10D0000F08CF82848E4
S315000027A00068005D8DF80F0000230020009022468F
S315000027B00C21D8E7224A00B5126883B0125C8DF866
S315000027C0051093238DF8062000218DF80430009122
S315000027D002460023032101A80FF04DF807BD0000B3
S315000027E075FE0320F8F603208EFD0320D5E70320AF
S315000027F090FD0320B8E70320E0E5032058FE032000
S315000028008FFE0320AAE70320A2E70320A4E7032004
S3150000281084F70320F4F60320E0F603204CFE0320A1
S31500002820BEE7032093FE0320B4E703208CE70320D2
S3150000283088E703209CE70320BCE60320C3E70320C8
S31500002840B0E5032010E603208CFD0320CDE703202E
S315000028507FB504460D4616466946012002F0C8FAC1
S3150000286028B140F2EB410FF2600009F063FF4D2002
S315000028708DF8040001A84470857001208DF80800C9
S315000028808DF809008DF807600DF10A00BDF80010FB
S3150000289004F08AFCBDF8021003A804F085FC0A21A6
S315000028A001A80EF0E0FF7FBD80B50AF01DFFBDE870
S315000028B001400FF017B910B504460EF05DFF601C1D
S315000028C0BDE810400EF05ABF636F6D6D616E642DEA
S315000028D068616E646C6572732D7A69676265652DD1
S315000028E070726F2E630000001102030607081A2B90
S315000028F02C1910131B14151C1D2021222A2E3334CB
S315000029003537FF00B5E70320BBE70320BFE7032009
S31500002910B8E70320B6E70320B7E7032061FE0320EC
S31500002920B9E70320F4F6032093FE0320C4E703204F
S31500002930C6E70320C7E70320C5E7032069FE032097
S31500002940C0E7032063FE03201DE70320C8E703203A
S31500002950C9E7032067FE03206BFE0320F2E703208E
S31500002960BCE7032093F70320EAE7032038B50446C3
S315000029700029104601461A46204602D010F07BFC7C
S3150000298001E010F049FC0546002C1EBF0498002803
S31500002990A04203D02146142210F0DAFC284632BDAC
S315000029A00246022000291CBF104610F0FDBC7047ED
S315000029B00246022000291CBF104610F07EBD70475B
S315000029C01CB504460020ADF800002078F8B90220B6
S315000029D02072A0780A280AD0102810D101A810F079
S315000029E054FF6070BDF80400ADF8000004E000205C
S315000029F0607068460DF048FA0120207001E02078EA
S31500002A0028B1BDF8001004F1090004F0CDFB13BD98
S31500002A1038B504462078002804BFA078102812D1C3
S31500002A2004F10901012004F0D1FB054604F10D0073
S31500002A3004F0B3FBADF800006946284610F0FAFE34
S31500002A4060700120207031BD7449097802785629DA
S31500002A500CBF012100212ABB82700122027042783C
S31500002A60130006D16E4A09B1117811E0C0781070D2
S31500002A707047052A05D16B4A61B1117841F05001C2
S31500002A8006E0062A0CD1684A21B1117841F06001AE
S31500002A90C1707047C17801F00F01C17011707047A5
S31500002AA000210170704710B504462078B8B900F0CF
S31500002AB045F806D01E2807D0242807D0362808D087
S31500002AC00BE009F02DFC06E0584800E05848007875
S31500002AD001E058480088A08010BD0020207010BD7D
S31500002AE010B50446207840BB00F028F806D01E2812
S31500002AF00AD0242812D0362819D01CE0A088BDE8B8
S31500002B001040C0B209F010BC4B48A188007888423A
S31500002B100AD3C9B2454806F003F806E0A1880B2996
S31500002B2002DA4348017010BD3620A07010BDA0889F
S31500002B304049088010BD0020207010BD0120207083
S31500002B400020A07060780D28704700002DE9F04F36
S31500002B501646012E89B0804689469A4612D101242E
S31500002B60002506A80DF09AF9022755EA0401DFF8B8
S31500002B70B0B005D058B9BDF81800800707D535B1F3
S31500002B80032715E00024032EEAD10125E9E79BF887
S31500002B90000005280AD8DFE800F003060509083D0D
S31500002BA0012705E065B1002702E02746022F07D07E
S31500002BB007F055FE824503D0514640460AF05BFDBC
S31500002BC0019753469BF8000000903246494640461E
S31500002BD0FDF7EBFC044624208DF8080041460DF174
S31500002BE0090004F0E1FA082249460DF10B0009F04C
S31500002BF035FD8DF813608DF8144051460DF1150022
S31500002C0004F0D2FA0F2102A80EF02DFE204609B0DC
S31500002C10BDE8F08F002DC6D0B2E7000075FE032098
S31500002C20D2E7032065FE0320C1E7032064FE0320EC
S31500002C306AFE03208AE70320AEB2020080B56E2149
S31500002C408DF800108DF80100022168460EF00BFE8B
S31500002C5001BD10B584B00C469B218DF800100822EA
S31500002C6001460DF1010009F0F9FC8DF809400A2131
S31500002C7068460EF0F8FD1FBDF0B583B010F8014BA5
S31500002C800E461746214606F0F4F90546FF2D03D1F8
S31500002C900E4901200870F7BD8E208DF804008DF8CE
S31500002CA00560002000908DF806708DF8074000231F
S31500002CB02A46042101A80EF0DEFD284606F056F944
S31500002CC0F7BD00B1024810F021BE000054FE0320FB
S31500002CD0792C000000B58028A1B0A8BF02200ADA2E
S31500002CE08DF8000002460DF1010009F0B7FC002145
S31500002CF0684610F0AFFE21B000BD10B5044620783E
S31500002D00002804BFA07833280FD10120207009B114
S31500002D10002004E0607A10F0EDFE00B1362060700D
S31500002D200120207210F0F6FE607210BD0121E4E76A
S31500002D300021E2E730B58BB004460D462A22FF217A
S31500002D40684609F0CEFC2146284606F092F904466C
S31500002D50FF2C08BF182505D010F0F2FE05462046C8
S31500002D6006F004F928460BB030BD10B54E4C21785C
S31500002D70FF29A8B008BF702020D0002000904A2369
S31500002D8000220AA806F091F9002000902523217858
S31500002D904A221DA806F089F90020009024232178F4
S31500002DA06F2201A806F081F9207806F0DFF8FF20EF
S31500002DB0207001AA0AA91DA810F0CFFE28B010BDE8
S31500002DC0F8B5394F04463878FF280D46164608D11F
S31500002DD09321002006F04DF9FF28387001D13520E7
S31500002DE0F2BD01200090334639782A46204606F087
S31500002DF05CF90020F2BD10B50446A6B0207860BB91
S31500002E0001202070A0781A2804D024D31C2815D0BD
S31500002E100AD320E04A2204F1090113A809F01EFC96
S31500002E204A22002113A812E0252204F1090109A86B
S31500002E3009F014FC25224A2109A808E0242204F1FD
S31500002E400901684609F00AFC24226F216846FFF74B
S31500002E50B7FF607001E00020207026B010BD017839
S31500002E60002904BF417829290CD110490978522933
S31500002E7004D10F4909788180002100E03821817052
S31500002E8001210170704710B5074C2078FF281FBF3D
S31500002E9006490978AB29ED2903D006F067F8FF202B
S31500002EA0207010BD00000000D4E7032075FE03204B
S31500002EB066FE032011B1012903D004E0114603F098
S31500002EC0AAB903F0F3B90220704710B5044620787A
S31500002ED0002804BF607808280ED1144800785628C8
S31500002EE003D103F0C8FDE07002E0E07803F0C8FD0E
S31500002EF00020A0700120207010BD0178A1B9417892
S31500002F002F2908BF0A4902D030290DD1094959B1E4
S31500002F10064A1278522A07BF0978818082880A7089
S31500002F2000218170012101707047000075FE0320A9
S31500002F30CBE70320CCE70320002070470020704732
S31500002F4030B58FB005460C463B220021684609F095
S31500002F50C8FBB6208DF800000DF10101284600F0EF
S31500002F6076F8DCB100218DF82910082221460DF1F2
S31500002F702A0009F073FB0DF12905207A68720DF11C
S31500002F803300618904F010F9A1890DF1350004F0D0
S31500002F900BF9A07BA873E07BE87302E001218DF8B2
S31500002FA029100DF13900FFF786FC3B2100F00CF8E3
S31500002FB00FB030BD80B5B7218DF800108DF8010037
S31500002FC0022100F001F801BD68460EF04CBC10B5B8
S31500002FD086B00446B8208DF800000DF10100218866
S31500002FE004F0E2F861880DF1030004F0DDF8A18831
S31500002FF00DF1050004F0D8F8E1880DF1070004F0A2
S31500003000D3F821890DF1090004F0CEF861890DF19C
S315000030100B0004F0C9F8A1890DF10D0004F0C4F805
S315000030200DF10F00FFF747FC1121FFF7CDFF06B0AA
S3150000303010BD00B58BB0BB218DF800100DF101015C
S3150000304000F005F82921FFF7BFFF0BB000BD38B52A
S3150000305004460D46A0782870681C218804F0A4F860
S315000030600822211DE81C09F0F9FAE078E87205F15A
S315000030700E01207B2873607B68730120226904F0AF
S3150000308097F8626905F11201012004F091F8218B8D
S3150000309005F1160004F088F8082204F11C0105F178
S315000030A0180009F0DBFAA18C05F1200004F07CF889
S315000030B0E18C05F1220004F077F804F1280105F10E
S315000030C024000A7802704A7842708A788270C97839
S315000030D0C17031BDF8B5BA4D0446286800792B3861
S315000030E0022801D90D382ED100F01EFC06462868AC
S315000030F0B449401D0860002131200EF07CFC0546D5
S315000031004FF6FF770BE005F10D0080B20EF0A0FB45
S31500003110B04213D0294631200EF06DFC0546BD4263
S31500003120F1D1002100E0294632200EF064FC05466C
S31500003130BD4208D00EF08CFBB042F4D1A42000F0C2
S315000031400CFC00202070F1BD38B50446002100E0DB
S3150000315029463F200EF04FFC05464FF6FF7085428C
S315000031600CD028460EF074FB0228F1D1681C80B200
S315000031700EF06EFBA042EBD1012032BD002032BD25
S315000031802DE9F8438046002145200EF034FC4FF02F
S31500003190000904468C4D4FF6FF7609E0FF21B8B2D0
S315000031A00EF05BFBA1B245200EF025FCA1460446BD
S315000031B0B44224D004F11007B8B20EF049FB4045E2
S315000031C0F0D120460EF044FB022818BF0328E5D1B3
S315000031D0A41FA0B20EF03CFB01462888401A321804
S315000031E07A482A800919121B92B2007800924B1C69
S315000031F09BB20246A1B206F041F94C46D2E7BDE8C1
S31500003200F183F0B5724F3D788BB0064606F05CFB55
S3150000321006F036FB00F079F806D012282FD1718817
S31500003220707806F0B2FE50B3707804A906F04CFE32
S3150000323088B1BDF8100040F20911884204BF7088B9
S31500003240B0F5006F07D1701D10F092FCB52802D0C2
S31500003250A8B9002413E00124002500E06D1C39788C
S31500003260E8B288420BD206A900F097F99DF818003B
S315000032700028F3D13146E8B200F09AF9044631202D
S315000032808DF8000030788DF8010070788DF8020016
S315000032900DF10300718803F087FF30798DF8050082
S315000032A00822711D0DF1060009F0D8F98DF80E50AF
S315000032B08DF80F40102168460EF0D5FA20460BB067
S315000032C0F0BD38B5054606F0FFFA06F0D9FA00F06B
S315000032D01CF80DD12846FFF737FF08B1752407E023
S315000032E0284600F0B0F9040004BF2846FFF748FF5F
S315000032F032208DF800008DF801508DF80240032130
S3150000330068460EF0B0FA204632BD324800786C248A
S315000033101128704738B504460D46FFF715FF08B16A
S31500003320752511E03DB106F0A7FA687329462046D7
S3150000333000F03EF902E0204600F085F90546280037
S3150000334004BF2046FFF71CFF284632BDE2E70021F6
S31500003350E0E721490978027856290CBF01210021AE
S31500003360002A04BF4278012A0AD11A4A002919BF45
S315000033701178C170C178117000218170012101702E
S31500003380704710B504462078002804BF60780428EA
S3150000339014D111490E480978522903D10078A0802A
S315000033A0002008E00D4AA18812788A4232BF3620F2
S315000033B0C9B205F0B5FBA0700120207010BD000059
S315000033C050F5032060F1032056FE0320E3E70320B7
S315000033D062FE0320D3E7032075FE0320ACB2020091
S315000033E01FB50C4602460D231521684609F0B3FAAF
S315000033F00D226946204609F031F9207840096073AC
S31500003400207800F01F0020701FBD30B585B004463F
S315000034100D460D22684609F021F99DF80000697BEA
S3150000342040EA41108DF800000D236A46214615201A
S3150000343009F0D2FA05B030BD2DE9FF41044600F08F
S315000034405FF814E03068EDB2A84630F81800A042E4
S315000034500CD16946284600F0A0F89DF80000022825
S3150000346004D031684FF6FD7021F818006D1CE8B2E3
S3150000347039788842E6D3BDE8FF812DE9F0458846D4
S315000034804FF6FF7AD04585B0044605D100F0D8F94D
S3150000349010B907F0E4F930E000F032F80CE0D0455E
S315000034A008D0306830F81510414504BF4FF6FD715D
S315000034B020F815106D1CEDB2387885421CDA30689C
S315000034C030F8150000F018F9F4DA69462846FFF7D7
S315000034D087FF082221460DF1050009F009F90028A9
S315000034E0DDD13068D04502D130F8150005E020F86E
S315000034F0158010F07BFBDDE7504605B0BDE8F08592
S315000035000025DFF8C463DFF8C47370472DE9FF4771
S31500003510804689460026DFF8B873DFF8AC43DFF84B
S31500003520AC5316E02068F6B2B24630F81A0000F046
S31500003530E3F80DDA69463046FFF752FF08224146A6
S315000035400DF1050009F0D4F810B9386800F80A90B2
S31500003550761CF0B229788842E4D3BDE8FF87DFF80D
S315000035606813096831F8100070471FB5DFF85C234F
S31500003570127890420C460FD2D349096831F81010E0
S315000035804FF6FE72914207DA694600F006F82146C8
S315000035900DF10500FFF771FF1FBD80B5CB4B1B7802
S315000035A0984201D3692002BDFFF71AFF002002BD31
S315000035B070B504460D4623460022B4A1032010F040
S315000035C09BFF28780028204602D1BDE870403AE0EB
S315000035D0BE490978884201D3692070BD10F03EFFCC
S315000035E008B1752070BD06F026F96873681D0AF0EB
S315000035F019FA06464FF6FF71681DFFF73EFF0246B1
S3150000360029783346204600F006F829462046FFF77B
S31500003610FCFE002070BD30B54FF6FF740D0008BFEC
S31500003620224608D0032908BF4FF6FE7203D0A242F5
S3150000363008BF4FF6FD72A449096821F81020A44975
S3150000364009680B5430BD30B505462C4685B0234677
S3150000365001228EA1032010F04FFF9C4909782846CD
S31500003660884228BF692019D210F0F8FE08B17520EB
S3150000367014E069462846FFF7B3FE9DF8000030B116
S3150000368000208DF8000069462846FFF7BEFE8E49E9
S3150000369009684FF6FF7021F81400002005B030BD10
S315000036A0F0B585B007460C46874D884E00E07F1C76
S315000036B03178F8B288421CD22868FFB230F8170079
S315000036C000F01AF8F3D169463846FFF789FE9DF8EF
S315000036D00500E1B2884204BF9DF80610B1EB142F35
S315000036E0E5D106F0A8F89DF80D108142DFD13846E5
S315000036F000E0FF2005B0F0BD4FF6FE71884270472E
S315000037002DE9F14F84B00D460E9C6F4FDFF8BCA13A
S3150000371090469946002607E03868BDF8101030F844
S315000037201B0088422CD0761C9AF80010F0B2884212
S3150000373028D23868F6B2B34630F81B00FFF7DCFF34
S31500003740F1DA69463046FFF74BFE5FEA080007D11B
S315000037509DF80100484504BF9DF80400A042E2D14F
S3150000376006F069F89DF80D108142DCD1002DD3D00A
S3150000377008220DF10501284608F0BAFF0028D2D12B
S31500003780304600E0FF2005B0BDE8F08F10B51446C6
S31500003790FFF726FE2046BDE8104008224D4908F0F6
S315000037A05DBF2DE9FF470446084615461E4600F054
S315000037B047F808B1002040E00027DFF80C81DFF869
S315000037C00C9100E07F1C99F80010F8B2884223D2D1
S315000037D0D8F80000FFB2BA4630F81A004FF6FF716B
S315000037E08842EFD069463846FFF7FAFD0C220DF104
S315000037F00101601C08F07CFF0028E3D1BAF1FF0F3D
S315000038000CD10020307006F035F8307855B138B953
S315000038102046FFF7F6FC09E0FF27F2E70120F1E773
S31500003820012006E028B13846FFF74BFD401E8041D7
S31500003830C00F307005F0DBFF012004B0BDE8F08753
S315000038400822244908F054BF30B585B000241F4D26
S3150000385016E06946FFF7C4FD9DF80000042806DB64
S3150000386000208DF800006946E0B2FFF7CEFD9DF816
S31500003870001000234FF6FF72E0B2FFF7CCFE641C87
S315000038802978E0B28842E4D305B030BD4242000058
S3150000389030B585B002220BA1032010F02DFE0020CA
S315000038A08DF800000024094D03E06946FFF7ADFDE1
S315000038B0641C2978E0B28842F7D3FFF7C5FF0020E1
S315000038C005B030BD4200000004E6032062FE03207E
S315000038D008E6032054F5032030B583B0044600F013
S315000038E023F80546202D1ADA5CB16946082000F057
S315000038F022F808236A4629461F2009F06DF80020A1
S315000039000EE008232A461F21684609F024F8002005
S3150000391000F023F86946082000F04AF837BD702009
S3150000392000F01BF837BD70472A480168491C016042
S3150000393011F8010D704738B50446264D084629682A
S31500003940224608F08BFE28682044286031BD214AB3
S31500003950116808441060084670471F491F4B0A68E3
S315000039601B68D31ADC2BB8BF10700868401C0860AF
S31500003970704710B50446C0B2FFF7EFFF200A48E0D3
S3150000398010B5FFF7D1FF00F042F904EB002080B23A
S3150000399010BD10B5044680B2FFF7EBFF200CB7E070
S315000039A010B5FFF7EDFF00F05EF804EB004010BD28
S315000039B038B5094C094A2368126805469A1AAA18A6
S315000039C0DD2A03DA0246184608F048FE2068284435
S315000039D0206031BD60F1032064F1032050F503201F
S315000039E010B500F042F8FFF7CBFF2081FFF79CFFF0
S315000039F0A072FFF799FFE072FFF796FF2073FFF7BB
S31500003A00BFFFE081FFF790FF2074FFF7C9FF6061F9
S31500003A1010BDBDE81040A0E710B500F024F82080E6
S31500003A20FFF7AEFF6080FFF77FFF2071FFF77CFF97
S31500003A306071FFF7A5FFE080FFF7A2FF2081FFF787
S31500003A4073FFA07210BD10B500F00AF8A078E0E789
S31500003A5010B500F008F82080FFF766FFA07010BDD3
S31500003A600446208885E704468AE70446214608205E
S31500003A7061E710B500F0CBF8A070FFF781FF20805A
S31500003A80211D00F0C2F8FFF74FFF00B10120E070E2
S31500003A90FFF74AFF2073FFF747FF607310BD10B5AD
S31500003AA00446214600F07FF82069BDE8104070E723
S31500003AB010B50446214600F078F8FFF771FF206143
S31500003AC010BD10B5FFF7CFFF208010BD207944E769
S31500003AD010B50446FFF7CDFF04F1100000F01BF807
S31500003AE004F11C0100F091F8FFF74AFF24F8240FB7
S31500003AF0FFF746FF6080FFF717FF2071FFF714FFFF
S31500003B006071FFF711FFA071FFF70EFFE07110BDA6
S31500003B10BDE810402DE710B50446FFF741FF2060D1
S31500003B20FFF73EFF6060FFF72BFF208110BD10B549
S31500003B3000F010F800F08CF8E088FFF71AFF2089F3
S31500003B40FFF717FF6089FFF714FFA089FFF711FF42
S31500003B50A07B5EE7044620681BE710B50446FFF726
S31500003B601FFF2060FFF70CFFA080FFF709FFE08032
S31500003B70FFF706FF2081FFF703FF6081FFF700FFD5
S31500003B80A081FFF7D1FEA07310BD10B5FFF7E2FFCD
S31500003B90FFF79CFF611D00F006F804F11501BDE872
S31500003BA01040102004E7102002E71020C3E610B5ED
S31500003BB00446207AFFF7D1FE207A010006D120685C
S31500003BC0FFF7E7FE2068FFF7E4FE04E0022802D1D3
S31500003BD0214600F002F8607A1BE70820E8E610B5F7
S31500003BE000F015F80100207206D1FFF7D9FE20601B
S31500003BF0FFF7D6FE206004E0022802D1214600F03D
S31500003C0004F8FFF791FE607210BD082093E60446A3
S31500003C108AE638B5044602252078FFF79EFE20780E
S31500003C20401E012806D96089FFF7A3FEA11CFFF7F5
S31500003C30D4FF09E000F00CF800F00CF800F008F8EA
S31500003C4000F008F800F004F80C346D1EE4D131BD24
S31500003C50A0888EE660888CE610B504462078FFF7CB
S31500003C607CFE6068FFF795FE04F10800FFF79FFFF2
S31500003C70A08AFFF77EFEA07DFFF76FFEA069FFF723
S31500003C8088FE04F11C01FFF78EFF04F12C00FFF7FC
S31500003C90C0FF14F8440FFFF760FE6078B9E610B570
S31500003CA0FFF7DEFEFFF7D6FFA08831E710B5FFF776
S31500003CB0DAFE2080FFF764FE6080FFF761FEA080D9
S31500003CC010BD30B502F8010B002312E031F8234095
S31500003CD002F8014B31F82340240A02F8014B01EBAC
S31500003CE083045B1C658802F8015B6488240A02F879
S31500003CF0014B8342EADB30BD0CB4F8B505460C46F1
S31500003D0006AE08E056F8040B290003D00078FFF74A
S31500003D101EFE3860641C2078010037D056F8047BFC
S31500003D20622827D07028EDD0732818BF752804D0D4
S31500003D3076280CD0772814D0ECE7280003D0FFF7BC
S31500003D40F3FD3870E6E73878FFF707FEE2E728006C
S31500003D5003D0FFF715FE3880DCE73888FFF709FE49
S31500003D60D8E7280002D0FFF71BFED2E73868FFF736
S31500003D7010FECFE756F8040B00782900394602D02A
S31500003D80FFF7D9FDC6E7FFF713FEC3E7F1BC5DF801
S31500003D900CFB000070B5514D6E8A044605F1080013
S31500003DA010F0D9FB012C08BFAE8A02D0022C08BF46
S31500003DB0022618B1FA217143884206D3310205F171
S31500003DC00800BDE8704010F0B9BB70BD7CB5434C2F
S31500003DD00020E07020714FF6F972208A90421CBFD5
S31500003DE04FF6F872904216D161793D4E4FF6FD7549
S31500003DF091B14FF6FC700190002300200090002244
S31500003E00308800210AF0AEFE002060713580012066
S31500003E10BDE87640BEE773BDA1780EF029F830887C
S31500003E20A842F4D0012060710220F1E710B5A9285C
S31500003E3018BFAA2814D12948C2780378521CC27028
S31500003E40D2B29A420CD3264A13884FF6FD74A34287
S31500003E5002D11180002141710020BDE8104099E790
S31500003E6010BD02001CBF012802280CD166290AD108
S31500003E701A480179491C0171C9B24078814224BFB0
S31500003E800020FFF787BF704710B5144C21829200BF
S31500003E90029921709B0003996282A38261709BB292
S31500003EA00499A17092B2934208D3218A4FF6F87210
S31500003EB091421CBF4FF6F972914201D0702010BD9D
S31500003EC0002161714FF6FD71054A118018B101207C
S31500003ED0FFF760FF00E02072002010BDB8F203205B
S31500003EE098E703202DE9F54F8BB08B460C98169C6E
S31500003EF01799ADF804B00026C0889A460746B04622
S31500003F00B14649B9F90607D50C9A9DF82C000094DC
S31500003F1059460FF017FE16E1790548BF4FF4805851
S31500003F20390548BF48F40068B90548BF48F080081D
S31500003F3003D4F90548BF48F040089DF82C100291BB
S31500003F405D469DF82C1003910A2966D8DFE801F03A
S31500003F50082F1B3C65653C06083C18004FF002091B
S31500003F60BDF80420CDF800A0334648F4027120467F
S31500003F700BF0D6F88246BAF1FF0F50D11820E2E0D6
S31500003F804FF00309ECE706A95FFA8BF0FFF705FB94
S31500003F9008220DF11D0104A808F060FBDFF81009E6
S31500003FA0006830F8150004AEADF80400D8E704A99F
S31500003FB05FFA8BF009F00FFCDFF8F80800680C21B7
S31500003FC0694304AE405AEFE74FF6F8718D4224DBA1
S31500003FD04FF40261084220D100F042F918BF912047
S31500003FE01CD1FF2C0FD000F0BAFB029903290CBF9D
S31500003FF001210021401ADFF8C0180968095D8842CE
S31500004000B8BF74200ADB029803280CBF4FF00C09D6
S315000040104FF0080928F4C078A2E7012093E0DFF802
S315000040209C5828884FF6FF71884218D0504610F0E9
S31500004030B6FB0090001D298803F0B6F8DFF880086B
S3150000404000990078C8714FF6FF7028805FEAC84073
S3150000405005D500980822291D083008F0FFFA0C9AA9
S31500004060494650460BF030FA08B9182667E0DFF8E3
S3150000407054080068C07E70B1B8060CD5F8074CBF6E
S315000040802020002040F001033246002150460CF06B
S31500004090FBFE060053D1FF2C15D0504610F075FBE1
S315000040A0DFF820180968C97E01B11221DFF8082857
S315000040B01268135D12F80A20D218743089188842E3
S315000040C0B8BF74263BDBB80407D5504610F077FB23
S315000040D040F48061504610F074FB0298082812BF25
S315000040E00928504610F07AFB179848B1BDF804101D
S315000040F0504610F08CFB179880F800A0002022E0B4
S315000041000398C01E05D0C01E012884BFC01E01280A
S3150000411007D850460DF033FD00280CBFA126002617
S315000041200DE0B80444BF4FF6BF7007409DF82C1051
S315000041303B465FFA8BF250460FF069FD0646504645
S3150000414004F014FF30460DB0BDE8F08FF0B587B02F
S315000041500E4604460C991746184604F08AFF054693
S31500004160FF2D21D0FF208DF810008DF81100ADF83D
S315000041700E704CF20E00ADF80C00ADF81260002087
S31500004180ADF81400009502A80190FF2303AA21466A
S315000041900020FFF7A7FE0446284604F0E7FE002CA1
S315000041A00CBF9DF80800FF2007B0F0BD2DE9F043D5
S315000041B0164685B00446F08804900D4670790FF2D5
S315000041C0407103901F4630790290A846708801908E
S315000041D0434630880090082200F099F800F040F835
S315000041E018BF91201AD1FF2F09D000F0B8FADFF8D6
S315000041F0C8160968C95D884238BF74200ED32000EE
S315000042000FD14FF6F870804528DA0020019000970C
S31500004210FF23324629462046FFF764FE05B0BDE877
S31500004220F083022C4FF6FE790CD1DFF89C16097844
S315000042308D4213D2DFF87806006830F8180048453A
S31500004240E3DB0BE0012C09D1DFF8801609788D42FB
S3150000425004D2E8B209F0D7FA4845D6DB0120DDE7FB
S31500004260DFF860060068407B02287047F0B587B02B
S315000042700D461646044605961F46E8880FF28861E5
S315000042800490234668790390092228790290688869
S3150000429001902888009000F03AF8002001900097DD
S315000042A033462A4621460620FFF71CFE07B0F0BD1E
S315000042B02DE9F04188B01E460E9C07948046F08892
S315000042C006901746707905900D4630790FF24461D5
S315000042D004904346708803900A2230880290019722
S315000042E0009500F014F8DFF8D405A0F80080234606
S315000042F0DFF8CC0507700020019032460F98009039
S3150000430029460620FFF7EEFD08B0BDE8F081032040
S3150000431010F0F2B880B538B101460822DFF8B005D2
S3150000432008F09CF9002002BD022002BD70B588B0DD
S3150000433000F02EF80C98DFF88415009608802B46BE
S315000043400D98DFF87C1508702246DFF8880500789E
S31500004350002814BF4FF6FF714FF6FD710020019043
S3150000436011E070B588B000F013F8DFF86805007842
S315000043700096002814BF4FF6FF714FF6FD7100201E
S3150000438001902B4622460320FFF7ACFD08B070BD16
S3150000439004460D46069205951E46E0880FF28051AA
S315000043A0049006226079039020790290608801903B
S315000043B0208800900320238910F09EB810B5DFF8FE
S315000043C0180505F0A4F80446FF2C0DD0214604205C
S315000043D004F049FB18B10121204600F006F82046FA
S315000043E0BDE8104004F0C2BD10BD2DE9F04F89B004
S315000043F082468B4610F0D3F90646B01C02F0CDFE7D
S31500004400DFF8D844DFF8D854074650460AF039FF9B
S315000044100146504604F042FF8046504610F0D9F956
S3150000442005F0B3F9301D02F0B8FE2080009706F0C3
S3150000443016FA009989B2814208F0030912D04FF6A4
S31500004440F87087420EDA7078C0070BD4384609F048
S3150000445068FF002805D0208801235246394600F01F
S31500004460B2F97AE005A950460AF09AFF05A8286035
S3150000447030460AF023FFDFF86C140860032150462B
S3150000448010F07DF9DFF8601408700421504610F032
S3150000449076F9DFF8581408705FEA0B002BD09DF808
S315000044A01A00800627D506F0DAF9DFF8186440B15D
S315000044B03068007D800704D4B9F1010F08BF1823C6
S315000044C000D008230022002150460CF0DDFC90B1FC
S315000044D008F00300012802BF3068407B112805D18F
S315000044E000F0A1FF10B9AF2006F083FA05F07FF9BE
S315000044F00020286048E018F0030003D0022806D008
S315000045000AD32AE05946504600F041F825E05146C4
S3150000451040460FF0ABFB20E006F0A1F9218881426E
S315000045201BD05146052004F09EFAB0B1296888795F
S3150000453040060DD50C2202A808F090F80020019044
S31500004540FF23FF20009002AA21880A20FFF7CAFC59
S3150000455021885A4650460BF0E1FC06F080F9218886
S3150000456081420DD150460AF08CFE0146504604F0B9
S3150000457095FE0C21084203D1002150460FF0A7FDFD
S315000045800020286005F033F909B0BDE8F08F2DE969
S31500004590FE4F804610F003F9054640460AF071FECC
S315000045A00146404604F07AFE81466878DFF83073AB
S315000045B0DFF8284300F001000290A81C02F0EDFD90
S315000045C04FF6F8718842ACBF4FF0010A4FF0000A6F
S315000045D006F045F9218881423868B0F802B00CBF70
S315000045E001260026404610F065F90146029840EA89
S315000045F00A008DF804009DF80400002814BF062068
S315000046000820002205F0C5FA38680188002904BF91
S31500004610407900281DD1694640460AF0F0F93B680A
S315000046209DF80010421ED2B2042010F0BCF9386882
S31500004630408848F20201884203D12088414600F0B2
S31500004640C5FF2088BBF5004F19DB5A4641460AF0E4
S31500004650EAF9386801884CF20E0291423CD144F2E4
S31500004660010AD34518BFBBF5804F35D140460AF045
S315000046708BFE0146D3450CBF0120002023E09C4A57
S31500004680022111705346002241460AF03BF8386871
S315000046908079400603D5FF21584600F067F8BBF144
S315000046A0130FD6D03868C0884004D2D491499048B8
S315000046B009780078CA0701D50228CAD0890740D5EB
S315000046C00128C6D03DE0491EC9B200912B4642469C
S315000046D0012106F0ACFD34E0029919B909F00C018C
S315000046E00C290DD1008909F0CCF950B3386801893D
S315000046F0002E14BF032502250020FEF7D1FF11E08E
S31500004700017900910022437920880021FEF7F8FF05
S3150000471009F00C01082904D1002E0CBF042505253B
S3150000472000E00025744908709DF8040010B9BBF13B
S31500004730380F01D1012200E00022294640460CF044
S31500004740C3FFBDE8F78F10B5044600F008F8610511
S3150000475048BF0838210548BF0838C0B210BD5949BE
S315000047600968C97E642001B15220704770B55C4E5D
S315000047700C4686B0054631680C2202A807F06EFF8B
S31500004780306801798DF80D10FF2341798DF80C10F2
S31500004790ADF80A504FF6BF71C08800940840ADF8D6
S315000047A00E0002AA002001904C4801880720FFF75E
S315000047B099FB06B070BD5148007808B9FF207047D4
S315000047C04D48007870472DE9FB47914685B01C4659
S315000047D048460AF056FD0146484604F05FFD0321AF
S315000047E008428DF800005ED13D4805683B480688C2
S315000047F001A948460AF0D4FD394901A808604FF0DE
S31500004800000ABDF81400354908809DF80900002803
S3150000481004BFBDF8040000283FD148460FF0BFFF93
S31500004820801C02F0BAFC4FF6F8718842ACBF4FF01C
S315000048300108D046002C14BF02240124012729E0D8
S31500004840BDF8140043463A46494609F05BFF5FEA65
S31500004850000A1ED0022C08BF012F1AD1BDF818007D
S315000048601649088017480068417E491C4176A1F127
S315000048708000134908700C219DF80000084208D1F9
S315000048809DF80A00400604D5BDF80600FF21FFF793
S315000048906DFF7F1CFFB2BC42D2DA114805600F489B
S315000048A00680504600E0002008B0BDE8F087000012
S315000048B004E6032010E60320B0E50320F4E6032017
S315000048C07EFE0320E0F6032062FE0320BEE70320FF
S315000048D0F8E603206BFE032028E703208EFD032065
S315000048E090FD032094FD0320C5FD0320C6FD032093
S315000048F07DFE032067FE032090FE03208CFD03202F
S31500004900425757574242570042575757424257421B
S315000049100000000042575742575742425742000094
S3150000492042575742424257424200000010B50446E1
S3150000493004F0A6FF0EF03BF8010018BF00F014F8D3
S315000049400C21304811FB04F1084482798188006803
S31500004950BDE8104005F0E0BB0020E7E70120E5E7F1
S315000049600220E3E70320E1E710B582B0044604F035
S31500004970ABFF0C21484323490844210017BF312CC3
S315000049800021017A491C0172C279017A91420AD347
S315000049900021017243208DF800008DF801400221AC
S315000049A068460CF060FF13BD17490978312900D01D
S315000049B0704780B544218DF8001001460DF10100C5
S315000049C002F0F2FB032168460CF04DFF01BD38B53D
S315000049D00E4C0C4B24780C256C43B0F5004FB8BF39
S315000049E00429234401DB702032BDDA719880997165
S315000049F09A799988186805F08FFBBDE831400DF06B
S31500004A00D6BF0000C4E60320D6E7032076FE0320C7
S31500004A1070B5160004460D4602D108F02CFE02E0E1
S31500004A20FF2108F0D7FD324629462046BDE87040F2
S31500004A30A1E02DE9F04782B005468A46174698461A
S31500004A400CF0F6FAC0480A9C0078B0B10C2F14DAC4
S31500004A50FF21284608F0BEFD814600260AE004EB49
S31500004A604601C9B2404604F0D4FC494608F0B2FDFE
S31500004A708146761CF0B2B842F1D3009443463A46DA
S31500004A805146284600F08FF8BDE8F3872DE9F04738
S31500004A9004468A4600F0D6F8012847D1204608F099
S31500004AA083FDAA4A126812F80A700025FF281AD058
S31500004AB081464C46DFF8988200E06D1CD8F800006D
S31500004AC000EB84008478FF2CF7D1EDB20C2D0ADAC6
S31500004AD06800861CBAF1FF0F27D0F119C9B25046FB
S31500004AE004F095FB08B1002020E02A4639465046DE
S31500004AF004F0D9FB7C1C002D14BF6A1E0022D2B222
S31500004B00E1B2504604F0CFFB671C4C4606E030F895
S31500004B102420F9B2504604F088FCBF1CD8F80000E7
S31500004B2000EB84018C78FF2CF1D1F0B2BDE8F08760
S31500004B3010B5FF280AD0864B1B6833F820400C803E
S31500004B4003EB800080781070002010BD032010BD9C
S31500004B5010B508F029FD0024FF280AD0022401E040
S31500004B60A41CE4B27A49096801EB80008078FF282A
S31500004B70F6D1204610BD30B583B00C46C4218DF861
S31500004B800010154601460DF1010002F00DFB21460D
S31500004B900DF1030002F008FB8DF80550062168466A
S31500004BA00CF061FE37BD2DE9F04186B00746884618
S31500004BB01D460DF1050014460CF0DEFD01A80CF0B3
S31500004BC0DDFD59208DF8080039460DF1090002F087
S31500004BD0EBFA082241460DF10B0007F03FFD9DF868
S31500004BE005000C9B8DF8130066009DF804008DF8F7
S31500004BF01400F6B28DF8154000962A460021284684
S31500004C0004F03CFC3146284604F001FB00200090ED
S31500004C1000232A460E2102A80CF02DFE06B0BDE8A0
S31500004C20F08110B5044600F003F84A48047010BD40
S31500004C3010B5484C2078FF2803D004F097F9FF20E0
S31500004C40207010BD2DE9F041DFF80881074698F87D
S31500004C500000FF2882B00C4619D03C4D2A68115C32
S31500004C608E1EF6B2314604F0D4FBB8420FD1286846
S31500004C70075DF5052D0EFF2C02D1A81CC0B220E061
S31500004C80F019811CC9B2204604F0C1FA08B101200E
S31500004C9017E02A463946204604F005FB6A1E791CB1
S31500004CA0D2B2C9B2204604F0FEFA98F80020009667
S31500004CB0B91C002389B2204604F0E0FBFFF7B8FFD9
S31500004CC00020BDE8F6812DE9F04180461E480078B7
S31500004CD0002688420F46154638BF742032D301207D
S31500004CE004F0D9F80446380010D07900C9B220463D
S31500004CF004F08DFA50B907E035F816207100C9B2F4
S31500004D00204604F092FB761CBE42F5DB2046FF28C7
S31500004D1011D00E4909680D5CA91CC9B204F077FAD6
S31500004D2028B942462946204604F07FFB03E0204688
S31500004D3004F01CF9FF242046FFF773FFFF2C0CBF7D
S31500004D4018200020BDE8F08161FE0320B0E50320B5
S31500004D5000E60320D7E7032010B5040001D10220A6
S31500004D6010BD10F004F900F0C4F82070002010BD4A
S31500004D701CB5044607F0B0FB400901D1702016BDF2
S31500004D800CB3A0882188020014D1002904BF6088D2
S31500004D90002818D10020ADF800002088ADF80200E8
S31500004DA06088ADF80400A088ADF80600684610F0EB
S31500004DB03EF916BD0A0006D06288130003D082426F
S31500004DC038BF9142E6D3022016BD1CB504000DD0B3
S31500004DD0684610F0D0F8BDF802002080BDF8040047
S31500004DE06080BDF80600A080002016BD022016BD1A
S31500004DF02DE9F84F04460D4602F046FC400908BF6F
S31500004E0070205BD045B1082C06DA00F001F901D21A
S31500004E10012C01D1200001D102204FE005F01FFD39
S31500004E2028800126002010F0A6F8688001274FF69A
S31500004E30FF790FF20C2AA6423FD002F025FC40096A
S31500004E40A7F101082BD010F029FA5FEA000B04D174
S31500004E504FF4A771504607F06DFC5FFA88F83821C9
S31500004E607348DBF8002011FB08F142F2107C43582E
S31500004E7002EBD2704010C117CCFB0301D31710F020
S31500004E8037FA8346404609F000FA484507D025F828
S31500004E90260005EB8600761CA0F802B0F6B27F1C51
S31500004EA0072FC8DB3746002005E025F8279005EBDD
S31500004EB087017F1C4880A742F7DB0020BDE8F28F00
S31500004EC070B5044640091D4611D0204602F065FB28
S31500004ED00646284600F00DF8054604F0CBFC2A46A7
S31500004EE004F01F013046FDF7B3FC04F080FC0620F9
S31500004EF070BD10B560B1401E01280BD9801E012877
S31500004F000AD9801E032809D9001F072808D909E0F5
S31500004F1000240CE001240AE0022408E0032406E051
S31500004F20042404E0F8210FF2181007F003FCE0B2A5
S31500004F3010BD2DE9F84F5FEA0108044666D000F07F
S31500004F4067F863D302F0A0FB400918BFFF2C5DD0C1
S31500004F5010F079FADFF8DCB03749DBF800C0B0FBB7
S31500004F60F1F001FB00F9A9EB0C00B0FBF1F0B9FB85
S31500004F70F1F10D223826B1FBF2F20D2316FB04F4F3
S31500004F8003FB12152A4E0D28EDB206EB040A0DD3CB
S31500004F900027382078430021315030183422001D74
S31500004FA007F09FFB7F1C062FF3D325E020B3224D8D
S31500004FB0BCFBF5FC9E46BCFBFEFE03FB1EC56D1C42
S31500004FC0EDB20D2D08BF00250AEB850C56F804E05E
S31500004FD0DCF80470AEEB070737510027401ECCF80B
S31500004FE00470ECD103FB1210854205D04FF4967184
S31500004FF00FF24C0007F09EFB3059404430510AEB4B
S315000050008500416841444160CBF80090BDE8F18FCE
S315000050100A480068007BC01E0328704738214843B1
S31500005020034B0021195018443422001D07F059BBC8
S31500005030D0F2032020F40320E0930400E0F60320DE
S31500005040656D6265722D647574792D6379636C651F
S315000050502E63000030B505460C4683B02822002199
S31500005060204607F03EFB681EA5701ED0801E012854
S315000050704FD8032D0CBF012500252A4604F11C013B
S31500005080E01C0BF0CDFA35B1208840F002002080FC
S3150000509010F05CFA6061208840F001002080102149
S315000050A0E01C00F0A0F8B0BB06E0DFF8B8552868B1
S315000050B0007D10F0300F01D1B2203EBD208840F0B7
S315000050C0020020800BF027FD6061E01C00F0ABF8C9
S315000050D0684600F0BCF848B10822694604F11D0094
S315000050E007F0BCFA208840F0080020802868406954
S315000050F0C00303D4208840F01000208005F0AFFBE9
S315000051000028CCD02868406AA061208840F00400BE
S31500005110C4E770203EBDE01C0EF0DEFB00203EBD65
S31500005120F0B587B004460D4616461F46684600F0A1
S3150000513088F83EB1082231460DF1020007F08EFADA
S3150000514045F040052FB1102239460DF10A0007F04F
S3150000515085FADFF8100500684169A14329434161DA
S3150000516048040CD5BDF800000A0A00F40E4002F40B
S31500005170E242104301F0FF010843ADF800001A2394
S3150000518008226946002002F050F807B0F0BD00235F
S315000051900022C5E7DFF8CC040068416941F480418C
S315000051A0416147F2FF100140F1E700B587B010F00A
S315000051B0E0F9684600F045F8DFF8A8040068BDF895
S315000051C000204169090A120A090202F0710241EA45
S315000051D00241BDF8002002F0FF02114341F4804174
S315000051E0416107B000BD38B504460D46002207F000
S315000051F040F940B9FF222946204607F03AF9401EF9
S315000052008041C00F32BD002032BDDFF8580400686F
S31500005210007D00F03000102818BF202801D10120A1
S3150000522070470020704710B588B00446684600F005
S3150000523008F810220DF10A01204607F00FFA08B00F
S3150000524010BD01461A230822012001F0EEBF10B559
S315000052500446DFF81004006888B04069810705D568
S315000052600822FF21204607F03CFA0AE040060AD54C
S315000052706846FFF7E6FF08220DF10201204607F017
S31500005280EDF9012000E0002008B010BD80B539B965
S31500005290DFF8D0130968097D490601D5002002BD53
S315000052A00246002300210020FFF73AFF012002BD3D
S315000052B00021EBE70121E9E71CB504466846FFF744
S315000052C0C6FF40B108222146684607F011FA401E83
S315000052D08041C00F16BDFF220821204607F0C9F8FD
S315000052E020B106210020FFF752FF04E000232246EA
S315000052F00021FFF715FF012016BD2DE9F0470D46E9
S3150000530092B081461646012100241F4600F024FA79
S315000053108046B80707F0010A0BD507A948460EF0E4
S315000053200DF920B100F06FF806B134601BE0A6203D
S315000053301AE0B8F1FF0F1AD007A9404600F0A4F909
S31500005340010011D10DB100F05EF82EB1DFF818039F
S31500005350006800EB88003060BAF1000F03D0BDF89A
S315000053601C00C00647D5002012B0BDE8F087DFF864
S31500005370F47256B105F073FA18B13868017D8907E1
S3150000538001D5346001E024303060FFF73EFF00288D
S31500005390CDD06846FFF755FF08220DF102014846B9
S315000053A007F0A6F928B13868007D00F044004028CF
S315000053B0BDD0BAF1000F04D038684069C00348BFB9
S315000053C00124B5B105F04BFA002801BF3868007D0D
S315000053D000F08400842807D12B46082249460DF1A7
S315000053E00A0010F05EFB04E010220DF10A0100F045
S315000053F00DF8002CB7D042464FF6FF71182004F086
S31500005400C8FBBB20B0E710220DF11F01284607F0AC
S3150000541025B980B5002300220021FFF76EFF401E4C
S315000054208041C00F02BD00B583B06846FFF70FFF8D
S3150000543010B16846FFF7EDFF0EBDF0B585B0074623
S3150000544005F00DFA00240025A8B106F069FF90B119
S3150000545003A8FFF7FCFE70B12FB108228349384636
S3150000546007F046F938B17F4E3068017D890705D5CA
S31500005470417B112901D0702046E044889FB1082263
S31500005480394603A807F034F968B108208DF8000002
S31500005490082202208DF8010039460DF1020007F0BE
S315000054A0DDF80A2107E008208DF800000125042018
S315000054B08DF801000221684603F0DBFD0746FF2F49
S315000054C021D0FFF7A2FE00B102203168097D8907CD
S315000054D04CBF04210021084340F001033A46002155
S315000054E020460AF07BFE040007D00021012000F0D0
S315000054F00DF815B15E4901200870384603F036FDF7
S315000055000CB1002000E0182005B0F0BD594A11B1D9
S3150000551041F2883105E0584909784EF6602359432F
S3150000552004D000281CBF10460FF008B800201070E9
S31500005530704730B583B008220021684607F0D1F8DD
S3150000554005F08DF94D4C18B900F088FD0D250FE0DA
S31500005550607860B14A4920780978884207D200F01D
S3150000556011F820B901210120FFF7D0FF37BD04252E
S31500005570002060700021FFF7C9FF2946684604F045
S31500005580E6FA37BD3D4900B50A78521C0A7070200C
S315000055904978012983B002D100F012F80EBD022924
S315000055A009D16946002005F025F9010007D16846B2
S315000055B0FFF743FF0EBD032908BF0BF0DEF90EBD52
S315000055C000224FF4A071002009F0B9BA70B598B066
S315000055D005460E4604A8502110F094FA274C607830
S315000055E0012808BF002D31D101A9304609F007FA7C
S315000055F024499DF804200968895C0D1A0021009150
S3150000560002469DF80410EBB204A803F04EFDEDB27D
S31500005610E5B19DF81100C8B99DF81C00000200F420
S315000056207E40B0F5285F0FD102A9002005F0E2F810
S3150000563060B90120207002A8FFF7FFFE01210120BA
S31500005640FFF764FF022000E00020607018B070BD14
S315000056500A490870704709484078704707494870FA
