S01E00006170702D626F6F746C6F616465722D737069666C6173682E733337B6
S315000000000004002079000000850000008500000043
S31500000010A70B0A0100000000010211620040000067
S3150000002004180000BD1300005717000078060000F2
S315000000302D0A0000CB0A0000090B0000CB0B0000C4
S3150000004001090000110C0000DD0C0000000000009A
S31500000050FFFFFFFF054800680549884205D10548AE
S31500000060016842685FEA010D1047704704500E4070
S315000000700000010000400000FFF7ECFF00F00EF862
S3150000008000F042F806E000005FEA000D70475B48AA
S31500000090008870474FF4017000F0DCB838B500F006
S315000000A01FF94FF20F04564D28B140F20520288063
S315000000B06C80012032BD53480068400515D568881C
S315000000C0A04212D1288840F2022188421CBF40F289
S315000000D00621884215D040F2011188421EBFB0F5B4
S315000000E08A7F40F2111188420BD0474C208A40F695
S315000000F0A721884205D12068FFF7C6FF60688047C0
S3150000010000BF002032BD000070B582B004003F4839
S3150000011072B60068050E684600F016F98F2D10DAE3
S315000001203B483C4D016841F0040202604FF0501319
S31500000130002230265643521CAB51062AF9D30160E1
S3150000014001E0902D06DA34480168C909C90141F079
S31500000150200101609DF80100012804D12F480168A3
S3150000016041F00401016000202D49086000F03EF9CD
S3150000017024480068800A10F001050CBF29482A4867
S3150000018002E0CD2100F8011B28498842F9D328480E
S315000001902849294A03E010F8013B01F8013B914246
S315000001A0F9D326482649002201E000F8012B8842AF
S315000001B0FBD300F049F9124A50884FF20F039842D8
S315000001C040F205210AD113888B4205D035B1180AB1
S315000001D0012818BF022801D1194601E004B90021FF
S315000001E0064801804CF23C30508000F03EF900F0A9
S315000001F013FA4FF4017000F02DF873BDC40C002003
S315000002000000002004500E4000400000FC81E00F7A
S31500000210B0400E4000A000402C400E4064310E401D
S31500000220B40AC643000000209C0000200004002001
S31500000230282D0000000400201404002014040020CF
S31500000240D10C0020890001EB401000F184400260CF
S315000002507047000010B504461A484AF6E851016096
S31500000260C162016B01F00F01022913D1164A012167
S315000002701160806B00F00300012818BF022809D125
S3150000028000221C211148FFF7DDFF00220021104843
S31500000290FFF7D8FF200A00280E4808BF24024FF2B5
S315000002A00F0104804180BFF35F8FBFF34F8F0A4871
S315000002B00A4A016801F4E06111430160BFF34F8F00
S315000002C000BFFDE708300E404040084060300E4059
S315000002D074300E40000000200CED00E00400FA052A
S315000002E00020704780B500F0CBF9BDE8014000F072
S315000002F0DDB90000052800D9704710B5DFE800F029
S315000003001721030F1C170F4C2088411E2180C0B9EE
S31500000310012000F0FFF942F21070208010BD01208C
S3150000032000F0E1F9BDE81040002000F0F3B9BDE8A7
S315000003301040002000F0D1B9BDE81040002000F0C8
S31500000340D2B910BDC60C00200B494A680B68920052
S3150000035002F03C02C3F381131A4382700A6802F06A
S315000003603F0242708A68C96802F0F002C1F30311C5
S315000003701143017070470000E0FF0FE080B500F008
S315000003800CF82A492A4A0968C1F30821491CB0FB1E
S31500000390F1F0106002BD27487047274927480A68D0
S315000003A002F00702022A09D00AD3042A01D002D396
S315000003B006E0406805E04FF4004002E0006800E017
S315000003C08068C96EC1F30421491CB0FBF1F0704787
S315000003D01A4800687047194908601748006800F015
S315000003E00700022808BFFFF7C9BF70471448016815
S315000003F041F4700101601348416941F400514161C3
S315000004000168890889000160416B49084900416318
S31500000410016A21F08051016270474FF40040704735
S315000004204FF47A70704705484068704708410E409F
S315000004301004002000F0490294400E4004040020FD
S3150000044088ED00E040300E40602080F31188704750
S3150000045010B5084B1C6890FAA0F2B2FA82F224EAB0
S31500000460000091400843186010BD03490120086050
S315000004707047000000500E4008500E40007870474C
S31500000480002101608180C18001817047F8B5044672
S315000004900D461646002711E02068803020600020B7
S315000004A0E08080202081A088401CA080BFB2E08828
S315000004B0411C2044E180807AE8557F1CB8B2B042E6
S315000004C00CD2E08821898842F0D32068802204F18A
S315000004D00A0100F0FAFA0100DED0F2BD0020F2BDFA
S315000004E01720704710B5044600F0D7F82046BDE83F
S315000004F0104000F053BD2DE9F041A4B000F008FD16
S3150000050000F0CBF800F090FD0121684600F0A6FD52
S315000005103F4C04F1800500206860A86000F0F0F907
S3150000052000280FBFE8608168E96040882880684637
S3150000053000F085FE0028074644D1BDF80610BDF838
S3150000054004600DEB010000F10A0828788007F6B276
S315000005500ED5E96861B1686832184B1E22EA0307B6
S3150000056010B1A868B84203D2384600F051FBAF601C
S3150000057032466868414600F0C7FA074680B968689F
S315000005803246214600F0A1FA002000E0401CB042AD
S3150000059006DA215C18F800209142F7D0832706E09E
S315000005A068683018002F6860C1D01B2FBFD00420A8
S315000005B0FFF7A0FE0121384600F0C9FD384624B0F9
S315000005C0BDE8F081172FF0D10020F8E770B5DAB05A
S315000005D0044636A8FFF754FF012000904FF402634B
S315000005E00C4A36A901A800F0E9FE0FF28C050FF2BD
S315000005F07C0600F052F8200014BF3246002201A902
S31500000600284601F0A8F85028F3D05AB070BD000073
S31500000610340C00201404002010B5FFF738FD044602
S3150000062001F0BCF8FFF75EFE00F000FA18B14FF4D7
S315000006300170FFF70FFE00F030F840F2011084421F
S315000006401CBF40F21110844209D0B4F58A7F1FBF47
S3150000065040F20520844240F20320844201D1012069
S3150000066000E0002001F0D6F8002010BD672B000046
S31500000670DF2B00007D0400008D040000E104000073
S3150000068080B50121064801F0ADF904210720FFF7E6
S31500000690DFFE04490448086001BD024801F0D4BCED
S315000006A000050800002005400108030080B501216F
S315000006B0214801F097F90121204801F093F9002320
S315000006C004220421052001F0DFFCBDE800500023D0
S315000006D004220521052001F0D7BC10B500F00DF865
S315000006E002F1C06204E010B500F007F802F1806282
S315000006F0012303FA00F0106010BD0FF24801104A02
S3150000070011F830303024634301EBC0001A440C3238
S315000007104068704710B50FF22C01094A11F83030C5
S31500000720302401EBC00063431A444068012303FAF6
S3150000073000F0906110BD0000404105000025080052
S3150000074000A00040050000000400000005000000B5
S315000007500500000010B5044602E0FF2001F0CEFCC3
S315000007602046441EC0B20028F7D110BD10B504467D
S3150000077001E001F0C7FC2046441EC0B20028F8D1B3
S3150000078010BD10B504462002000E01F0B7FC20048F
S31500000790000E01F0B3FCE0B2BDE8104001F0AEBCC3
S315000007A010B501F0AFFC044601F0ACFC40EA0420B1
S315000007B010BD80B501E080B5FF2001F09FFCBDE8CB
S315000007C0014001F09FBC38B501F09FFC9F20FFF768
S315000007D0F0FFFFF7F0FF04460220FFF7BBFFFFF72D
S315000007E0DFFF054601F093FC012C0AD01F2C3ED0FA
S315000007F0202C4FD09D2C60D0C22C15D0EF2C06D0CB
S3150000080072E044F2140085426ED1012032BD43F2FB
S315000008101200854204D044F21400854202D063E0FF
S31500000820022032BD032032BD42F212002D1A10D032
S315000008306D1E10D06D1E10D06D1E12D04FF4A46028
S315000008402D1A10D040F2DF202D1A08D0ED1E0CD044
S315000008504AE0042032BD052032BD062032BD072005
S3150000086032BD082032BD092032BD0A2032BD44F215
S315000008700140854208D044F20150854208D048F232
S315000008800140854202D02FE00B2032BD0C2032BD44
S315000008900D2032BD42F212002D1A06D06D1E06D072
S315000008A06D1E06D06D1E06D01EE00E2032BD0F2036
S315000008B032BD102032BD112032BD44F209002D1A7E
S315000008C008D0ED1F08D06D1E08D06D1E08D06D1E15
S315000008D008D009E0122032BD132032BD142032BDEB
S315000008E0152032BD162032BD002032BD80B501F084
S315000008F00CFC0620FFF75DFFBDE8014001F007BCD8
S3150000090080B500F0EBF90028FBD1FFF75CFF401E35
S3150000091015284ED8DFE800F00B0E1114171A1D200B
S315000009202326292C2F3235383B3E4144474A0FF2C5
S31500000930D03002BD0FF2E03002BD0FF2F43002BD3E
S315000009400FF2044002BD0FF2184002BD0FF228401C
S3150000095002BD0FF23C4002BD0FF24C4002BD0FF249
S31500000960604002BD0FF2704002BD0FF2844002BD2E
S315000009700FF2944002BD0FF2A84002BD0FF2B8403C
S3150000098002BD0FF2CC4002BD0FF2DC4002BD0FF2F9
S31500000990F04002BD0FF2005002BD0FF2145002BD2E
S315000009A00FF2245002BD0FF2385002BD0FF248502C
S315000009B002BD002002BD000010B5044600F08EF90D
S315000009C00028FBD114B9FFF7FEFE05E020780100F0
S315000009D002D1FFF7F8FE2070401E152824D8DFE864
S315000009E000F01A141A14171A1A1D1D2017171A14B4
S315000009F0171A1D0B0E1114174FF4004010BD4FF4BB
S31500000A00803010BD4FF4003010BD4FF4802010BD73
S31500000A104FF4002010BD4FF4801010BD4FF40010AD
S31500000A2010BD4FF4000010BD002010BD10B501F040
S31500000A30A1FB01F084FB01F0C4FB01F0C3FB42F211
S31500000A401074204601F0BCFB01F05FFBAB20FFF702
S31500000A50B0FE01F05CFB204601F0B2FBFFF7B3FEEF
S31500000A6008B9862010BD0B3803280BD2FFF73EFFCE
S31500000A7001F04BFB0120FFF79CFE0020FFF799FEDB
S31500000A8001F045FB002010BD38B50446B4F5004F13
S31500000A900D46104603D2C4F50041A94206D2FFF71F
S31500000AA08BFF844204D2001BA84201D3012032BD31
S31500000AB0002032BD10B50C46FFF77BFE2046FFF73F
S31500000AC060FEBDE81040032050E670B50D4600F00C
S31500000AD077F808B9852070BD00F000F90028FBD131
S31500000AE001F013FB21460320FFF7E4FF03E0FFF7C5
S31500000AF062FE05F8010B3046461E80B20028F6D18C
S31500000B0001F005FB002070BD2DE9F84F894600F085
S31500000B1057F808B9852051E0374600F0DFF800287D
S31500000B20FBD101F0F2FA21460320FFF7C3FF384656
S31500000B30471E80B228B1FFF73EFEFF28F7D0872078
S31500000B403CE001F0E4FA200640F201174FF4807809
S31500000B5008D0200A000200F58070A119814203D353
S31500000B60051B04E0BE4201DA354600E0454630008A
S31500000B7023D0AB46CA4600F0B1F80028FBD1FFF7F8
S31500000B80B5FE01F0C2FA21460220FFF793FF03E00B
S31500000B901AF8010BFFF70DFE5846A0F1010B80B2C3
S31500000BA00028F5D101F0B3FA761B14FA85F4B6B233
S31500000BB0ADB2BE42A944D9DAD6E70020BDE8F28F2D
S31500000BC016460446002231465EE780B500F086F8F8
S31500000BD00028FBD101F099FAB920FFF7EAFD01F0F0
S31500000BE096FABDE8014001F0EEBA38B504460D4666
S31500000BF000F074F80028FBD1FFF778FE01F085FAC3
S31500000C0029462046FFF756FFBDE8314001F07FBA7E
S31500000C102DE9F843044600208DF800000D4668468D
S31500000C20FFF7CAFE9DF800108046A1F10E0240F6BD
S31500000C30FF764FF6FF70042A4FF48037814638BF9F
S31500000C40064607D3A1F1120002283CBF4FF4004725
S31500000C5047F6FF79354218BF82203DD1344218BF8E
S31500000C60812039D16A46A9B22046FFF70DFF08B99F
S31500000C70852031E0BCB9454515D100F02FF8002894
S31500000C80FBD1FFF733FE01F040FAC720FFF791FDD5
S31500000C9001F03DFA1FE021462020FFF7A6FF04F5EC
S31500000CA08054A5F58055002D18BF14EA090FF2D11E
S31500000CB0BD420ED32146D820FFF797FF3C19ED1B06
S31500000CC0F6E721462020FFF790FF04F58054A5F5AE
S31500000CD08055002DF5D10020BDE8F28310B501F056
S31500000CE014FA0520FFF765FDFFF765FD044601F0E0
S31500000CF00EFA14F0010018BF012010BD000000001C
S31500000D00020203009A01003C0010000000001000DF
S31500000D10302C000001000000020203009A010008C6
S31500000D2000100000000004003C2C00000100000040
S31500000D30020203009A0100180010000000001000D3
S31500000D40482C000001000000020203009A01340F43
S31500000D500010000000000400542C000001000000F8
S31500000D60020203009A01001E0010000000000800A5
S31500000D70602C000001000000020203009A01003C02
S31500000D8000100000000010006C2C000001000000A4
S31500000D90020203009A010078001000000000100013
S31500000DA0782C000001000000020203009A0100787E
S31500000DB00010000000002000842C0000010000004C
S31500000DC0020203009A0100500010000000002000FB
S31500000DD0902C000001000000020213009A01F000AE
S31500000DE000100000000080009C2C000001000000A4
S31500000DF0020203009A01001C001000000000080017
S31500000E00A82C000001000000020203009A01003035
S31500000E100010000000000800B42C000001000000D3
S31500000E20020203009A01007000100000000010008A
S31500000E30C02C00000100000002020300000C001894
S31500000E400000010000000400CC2C0000010000009E
S31500000E5002020300000C0028000001000000080048
S31500000E60D42C00000100000002020300000C005018
S31500000E700000010000001000DC2C00000100000052
S31500000E8002020300000C00A0000001000000200088
S31500000E90E42C000001000000020203009A01000297
S31500000EA00010000000800000EC2C00000100000093
S31500000EB0020203009A010004001000000000010075
S31500000EC0F82C000001000000020203009A0100064F
S31500000ED00010000000000200042D000001000000C8
S31500000EE0020203009A01000800100000000004003E
S31500000EF0102D000001000000020203009A01000C00
S31500000F0000100000000008001C2D00000100000079
S31500000F1030B53E4C2078002887B038D101213C48B6
S31500000F203C4D00F05FFD012304220021002001F06A
S31500000F30ABF8002301220121002001F0A5F80FF2F1
S31500000F40F801684691EC060B80EC060B012132484D
S31500000F5000F048FD0121314800F044FD00208DF8E5
S31500000F6000006946284601F07DF9032068672C4990
S31500000F70A86F0840A8670521284601F06CF90123EF
S31500000F8004220521002001F07FF80120207007B01F
S31500000F9030BD244800688004FBD5704701461D48D3
S31500000FA001F0F5B910B5044603E014F8010BFFF79C
S31500000FB0F5FF20780028F8D110BD10B504460009C9
S31500000FC00A28ACBF37303030C0B2FFF7E7FF04F075
S31500000FD00F000A28BDE81040ACBF37303030C0B231
S31500000FE0DCE71048006810F0800018BF0120704749
S31500000FF010B50446FFF7F5FF28B1064801F0C0F921
S315000010002070002010BD012010BD0000D00C002073
S3150000101000250800000001404041050000220400B0
S31500001020E0E0FFFF1000014080B56846FFF7E0FFF3
S315000010300028FAD001BD00000500000000000000F5
S3150000104000C20100000500000010000000000000C2
S31500001050002914BF012102214160704730B589B0D3
S315000010600170012201290CBF80214021818042703C
S315000010700021C1800181827001212E4800F0B2FC5E
S3150000108001212D4800F0AEFC0FF284200FC804ACFD
S315000010906D4684E80F0000208DF8100004A9274C47
S315000010A0204601F087F90FF278200FC885E80F0077
S315000010B002208DF8030000208DF8000001208DF835
S315000010C00C0069461E4D284601F074F94FF6FF7074
S315000010D0E061E86109B030BD2DE9F04104460D46F6
S315000010E0164F9046012100F030F80020154E786228
S315000010F03060FFF7D2FA012C0FD135B9FFF771FF37
S3150000110000F0010080F0010002E02846FFF770FFC2
S3150000111028B900F019F800200AE0012008E030683C
S315000011204045E6D35FEA0800E3D000F00DF816204C
S31500001130BDE8F081000204000012040000800140B6
S3150000114000840140248401400021384680E738B5F8
S3150000115004460D4600F009F800F007F82A46214635
S31500001160BDE838401820FFF7BDB92A4621461820A9
S31500001170FFF7B8B970B5044682B00020208148F662
S31500001180581220786946FFF7A7FF08B11C2076BDE4
S315000011909DF80000032818BF182801D1182076BD35
S315000011A0042801D1172076BD012801D0212076BD63
S315000011B0002500E06D1CA188EDB2091D8D420BDAF9
S315000011C0601900F10A01207840F24A22FFF784FFF5
S315000011D00028EFD0262076BD0025002006E0014637
S315000011E0EDB260196D1C007B01F030F9A288E9B2FE
S315000011F09142F4D3A37AE17AC918FF2901D02220BB
S3150000120076BDA5182E7BB6EB102F01D0232076BD18
S31500001210697BC0B2814201D0242076BDA07883428A
S3150000122007D0401EC0B2834201D1272076BD2520BB
S3150000123076BD901C20810220E080002076BD38B566
S3150000124004466078012804D040D303283CD033D329
S315000012503CE02078012816D13B256846FFF7C8FEFA
S315000012600028FAD04320FFF799FE207840F24A2260
S315000012700021FFF731FF30B12846451EC0B20028D5
S31500001280F0D11B2032BD022060702046FFF772FFAE
S31500001290050018BFFFF7C8FE272D19D1A0782278C0
S315000012A0411EC9B20620FFF71DF9002DEDD103201E
S315000012B0FFF720F8002032BDFFF7B6FE00F023F856
S315000012C0A078401CA070E0E7172032BD182032BD80
S315000012D0A80603D52278A1781520E4E7680603D48A
S315000012E0182D18BF1C2D07D121782846FFF72FFF90
S315000012F004206070284632BD172DD6D100F003F8C1
S3150000130003206070E0E72278A1780620FFF7EAB8AC
S3150000131001000000000000000000000000000000C6
S3150000132001000000000000000000000000000000B6
S31500001330418AB1F5847F0ADDDFF80014096890F868
S3150000134068000902B0EB116F01D000207047012040
S315000013507047F8B504460D4616461F4607E0304668
S31500001360A047294601F085F805467F1E761CB8B2CF
S315000013700028F4D12846F2BD38B50C46154605E0DE
S31500001380014614F8010B01F074F86D1EA9B200298C
S31500001390F6D132BDF8B504460D4616461F462868F6
S315000013A023683A4631469847040005D1E8683A462C
S315000013B03146FFF7E1FFE8602046F2BD70B58AB01E
S315000013C004460E98A072238162600D4602222868A8
S315000013D06946FFF77AFBBDF8000048B3286820226B
S315000013E001A9FFF772FB00200FF2A43101AA0B5CE2
S315000013F0125C9A421CD1401C0828F7DBBDF80C0091
S3150000140040BAA8B9079801BA202911D306BAFFF73E
S3150000141077FAC06886420BD2202201A94FF0FF302E
S31500001420FFF7AAFFC649884202D1079800BA28608A
S3150000143025604FF0FF30E060002020740AB070BDD8
S315000014402DE9F84F8B4604469BF81B70D068BC49C3
S31500001450802FA8BF802788421E4651D1002E4DD02E
S31500001460B06800904FF0FF384FF000090BEB4900D1
S3150000147000F1480A9AF800500BE0FFF70EF90098C1
S315000014804FF40063EA024146FFF763FF6D1C804696
S31500001490ADB29AF80100A84205DA09F10109B9F1DD
S315000014A0060F02DAE2E7FF2DE7D1DBF844006FEA28
S315000014B00801884224D1A068736800BA7A085946A0
S315000014C09847C8B9E06805BAA06802BAB0683B4652
S315000014D04FF0FF31FFF73DFFC04385420CD140F688
S315000014E0A720ABF810000122A068736800BA0BF1C0
S315000014F010011030984708B1422002E0172000E0A2
S315000015004320BDE8F28F2DE9F04F894609F1040525
S3150000151083B08046D5F800A0A888ADF80000144630
S315000015200423524600F011F9010030D1BAF8000048
S3150000153040BA80B20190BAF8020047BABFB2F807C3
S3150000154006D501984FF20861884218BF46201ED181
S31500001550B7F5026FC8BF4E2019DC002F7CD001986A
S31500001560DFF8E0B109F13C0670B14FF20861401AAC
S3150000157075D040F2FC51401A00F0C580FF3800D00B
S31500001580FE3800F07F80D6E0287B08B1512064E069
S315000015908D2F28BF4F2060D23B4609F1180200F07C
S315000015A0D3F8010059D1F278802AA8BF802202F12F
S315000015B00C00874201BFA88A40BA00F47F40B0F50C
S315000015C0007F45D1E88A40BA4EF25031884202BFC8
S315000015D0288E40F6A72188423AD1688E00F47F41D2
S315000015E0B1F5807F01BFA96909BADBF81C309942C1
S315000015F02ED1BBF8181040F2032399420DD1B0F555
S31500001600847F25DB706C410522D1C0F58020B0F5C2
S31500001610683F1DD8B0F5005F1AD34FF6FF702886D5
S3150000162009F124014FF0FF30FFF7A6FEE96909BA78
S31500001630C943884204BF3078042809D17078182835
S3150000164018BF062804D109F12400FFF771FE08B976
S31500001650452002E0012028730020BDE8FE8F287B8C
S31500001660002852D0BDF800008742B4BF3C4604466D
S31500001670234600F06CF80100EFD13F1BBFB2002FEC
S31500001680F0D1E9E7287B00283FD0042300F05FF87B
S315000016900100E2D1DAF8000005BADBF81C003F1FB2
S315000016A08542BFB238BF4820D7D3F16B781988423C
S315000016B028BF4920D1D201984FF6035188420AD15A
S315000016C04CB1226829460220904720B14A20C4E73F
S315000016D0BF1BBFB2AD19002FBED0BDF800008742B8
S315000016E0B4BF3E460646334600F031F80100B4D199
S315000016F0002CEDD0636872085146284698470028AA
S31500001700E6D04B20A9E7287B08B94120A5E7042F9E
S3150000171018BF4C20A1D12A68042300F015F8010057
S315000017209BD123464A4609F1240109F1140003B06E
S31500001730BDE8F04F84E644208FE70000FC81E00F0F
S31500001740E320BBDE000000004946404622E6524642
S31500001750494640461EE670B50D460446288980284F
S31500001760164603DA4F2070BDA87A78B93246294664
S315000017702046FFF7C8FE0028F6D0172807D12868AC
S3150000178061688847172802D1002070BD502070BDBF
S31500001790534C4142494252200000000010B50FF25E
S315000017A050000FC88AB06C4684E80F00684600F007
S315000017B0EEFE04A80FF24801142201F09DF804A8D9
S315000017C000F0B9FA01220121022000F0F7FA0748D9
S315000017D0FEF701FE0421112000F014FA0022002178
S315000017E0032000F0EBFA0AB010BD000000F0490239
S315000017F0000108070F000A00C8002000A000000032
S3150000180000000000A00042010A200706020A0407A1
S315000018100000000010B504460020FEF76BFD24BB57
S315000018200020FEF7D3FE50B90120FEF7CFFE30B9F7
S315000018300520FEF75FFD40F20120FEF70BFD0420B8
S31500001840FEF758FD0120FEF755FDBDE8104040F2B9
S315000018500320FEF7FFBC0FF23400FFF7A3FBFFF7F0
S3150000186098FB40F20220FEF7F5FCFEF744FE04006A
S31500001870F1D00FF22000FFF795FB2046FFF79DFB06
S3150000188001A0FFF78FFBF0E70D0A00000D0A4F6B72
S315000018900D0A00000D0A455252200000890001EB96
S315000018A0401000F1844002607047890001EB40104F
S315000018B000F18440006870470122DFF8301610B549
S315000018C0884232BF0022DFF82816884201D2144629
S315000018D000E002241021DFF81C06FFF7DFFFDFF827
S315000018E02007016821F0807141EA0461016010BDA2
S315000018F010B5DFF80416CA6B02B1012241F6713346
S31500001900CB63DFF8F8450B6803F04073A04238BF9D
S31500001910002304D3DFF8EC46A04238BF0123086851
S3150000192020F0407040EA03600860D2B20AB100209D
S31500001930C86310BD80B5FEF72EFDBDE8044000214A
S31500001940D6E7D5E7C01C0F2801D2000770474FF035
S31500001950704070470000000038B50446002500F0CE
S31500001960FBF8DFF89026DFF82816944208D0DFF857
S315000019708826944206D0DFF88426944204D006E0F6
S31500001980086802E0486800E0886800F00700401E2A
S3150000199003281BD8DFE800F002050C08FEF73DFD22
S315000019A004E0FEF740FD01E0FEF73AFD05460DE0D6
S315000019B0FEF7E4FCDFF848160968090E01F001019C
S315000019C00122491C02FA01F1B0FBF1F5284632BDAD
S315000019D0DFF834164A68D20702D40A680242FCD1FC
S315000019E07047000070B502120C4602F00F0200218B
S315000019F0521E092ADFF81C5614D8DFE802F0051437
S31500001A001313071619131C20DFF8E854C0F3043625
S31500001A1011B10846FFF7DCFF224631462846BDE8ED
S31500001A2070403BE770BD1035F0E730350121EDE73A
S31500001A3038351021EAE740354FF48031E6E7DFF824
S31500001A40D855E3E770B5DFF8C415DFF8A8250E68AA
S31500001A50DFF8A415DFF8A845012510F478105DD04D
S31500001A60B0F5003F2AD0B0F5802F21D0B0F5002F79
S31500001A7054D0B0F5202F27D0B0F5402F46D0B0F582
S31500001A80602F66D0B0F5901F3BD0B0F5A01F24D0D4
S31500001A90B0F5B01F2AD0B0F5D01F1CD0B0F5E01FAE
S31500001AA022D0B0F5001F2CD0B0F5381F39D04FE04A
S31500001AB0FEF773FCE168C1F308210AE0FEF76DFC4E
S31500001AC0A168C1F3082104E0FEF767FC6169C1F370
S31500001AD00421491C12E0104615E01046FFF73CFFB2
S31500001AE0216A01F00F0107E008460CE00846FFF7FF
S31500001AF033FFA16A01F0030105FA01F1B0FBF1F62B
S31500001B0027E0DFF8F804FFF727FF1FE0DFF80C05F2
S31500001B1000F022F807281CD0092819D1FEF73DFC51
S31500001B2014E0DFF8FC0400F017F804280CD00728AE
S31500001B300FD008280CD1FEF730FC2168C1F3042130
S31500001B40491C01FB00F604E0FEF742FC064600E0F5
S31500001B500026304670BD0000014601F00F0101204D
S31500001B60491E0729DFF8C02449D8DFE801F0040F31
S31500001B701348202E4836506A00F0070002283AD053
S31500001B8002D3042804D01CD30520704711690FE046
S31500001B9002207047516901F00701491E03292FD819
S31500001BA0DFE801F00F020311F2E7062070479169A2
S31500001BB001F00701012904D00229E9D0042902D045
S31500001BC07047032070470A207047116811F0010121
S31500001BD00FD0012914D109207047DFF85014096885
S31500001BE001F03001102904D0202904D0302904D076
S31500001BF07047072070470420704708207047002070
S31500001C007047000070B500F00F0003240325401E46
S31500001C100728DFF814640FD8DFE800F0042E347CC0
S31500001C2031607C6A0229DFF8C40206D003291AD083
S31500001C3004291AD005291DD070BD042400250122CF
S31500001C400121284600F0BAF8FFF774FE7460DFF849
S31500001C50D403FFF7F7FEFFF72FFEFEF78FFBBDE875
S31500001C60704000216DE60125E9E702240225FFF711
S31500001C7023FEE4E70124FAE706F1100404E006F186
S31500001C80180401E006F11404012908D0022909D03C
S31500001C9003290ED0062913D00A291DD070BD0020B5
S31500001CA0206070BD01220121002000F087F802208B
S31500001CB0F6E701220121012000F080F80120EFE77C
S31500001CC0FEF75CFBFFF7F8FD01220021DFF8440375
S31500001CD0FFF7E4FD0320E3E70420E1E7072902D04C
S31500001CE0092902D070BD002000E00120306070BDDF
S31500001CF0012906D0042915D007290CD0082918D0A7
S31500001D0070BD0020DFF824130A6822F0300242EA90
S31500001D100010086070BD01220121042000F04EF879
S31500001D200120EFE701220121022000F047F80220FE
S31500001D30E8E70320E6E770B500F03DF80122002150
S31500001D40022000F03BF8217CDFF8E852002002294F
S31500001D50296808BF0120490840EA41002860082197
S31500001D6022782846FFF79AFD6868E17AC00841EABA
S31500001D70C0006860617AA08841EAC020A860EE6869
S31500001D80207AFFF7DFFDE28806F07F6141EAC22193
S31500001D90A27A1143227A41EAC2110843E860A17B84
S31500001DA0607B090141EA0030E17B0843217B40EA80
S31500001DB00140286170BD04461120CDE62DE9F84F9B
S31500001DC004288246904670D8DFE800F04B463C0374
S31500001DD0410001260220012700240029DFF8309265
S31500001DE0944D5DD0BAF1020F04BF286810F0300F91
S31500001DF04FF0000B0AD12868C0074FF0010B05D53C
S31500001E00286820F0300040F001002860EE6300F002
S31500001E104EF80028FBD0B8F1000F46D0394600F046
S31500001E2047F80028FAD0BAF1020F3ED1BBF1000FF5
S31500001E303BD02868C0071BD501222021022000F0D4
S31500001E40C9F819E00426082003270224C5E710264E
S31500001E50202005270424C0E74026802007270624E3
S31500001E60BBE74FF480764FF4007009270824B4E7E7
S31500001E700021022000F08EF8022000F01DF8044632
S31500001E80012200210220FFF799FF2146022000F0DF
S31500001E9037F8EE63394600F00BF80028FAD004E074
S31500001EA0E86300F004F80028FBD1BDE8F18F214675
S31500001EB04846FFF7FABC0000401E03285C4912D8CA
S31500001EC0DFE800F0020C06080869C0F30800704756
S31500001ED0086800E0886800F07F0070475648006890
S31500001EE0C0F30A0070470020704700000148E8016F
S31500001EF00190D00300400E4004000E4081BA8C01D0
S31500001F0070B5401E0D46032805F07F01484C3E4E35
S31500001F103DD8DFE800F0022A101DC5F308051A2196
S31500001F203046FFF7C2FC0028F9D12069400A45EA8D
S31500001F304020206170BD0D4618213046FFF7B5FCE4
S31500001F400028F9D12068C00945EAC010206070BD9C
S31500001F500D4619213046FFF7A8FC0028F9D1A068E4
S31500001F60C00945EAC010A06070BD294800686069D4
S31500001F7020F0300040F010006061C5F3C310FFF799
S31500001F80E1FC216A2D4A114029430843206270BDB5
S31500001F9080400E402748026812F0300F18BF002913
S31500001FA007D0202902D0302903D005E04FF40001E4
S31500001FB003E04FF4400100E02149C26E0A408A4224
S31500001FC0FBD1490204D5C06F800A00F001007047BA
S31500001FD00120704710B502280AD10B0004D0194B16
S31500001FE04FF480645C64196012B1BDE81040D1E71B
S31500001FF0012010BD02001A0003001C00050020008D
S3150000200000410E40015A620240410E400004002089
S3150000201090400E40B0400E4050410E4006000C006D
S3150000202098002E000005080070400E405C410E40EE
S3150000203010400E4024400E409C400E4000F8FF0F1A
S31500002040FF03E10764400E400168C90707D58168B0
S31500002050890704D48168C907FCD40121416070470F
S315000020603023254A584310440C3000F1806006E0C6
S315000020703023214A584310440C3000F1C06001223D
S3150000208002FA01F101607047F8B5044616463000C1
S315000020900D461F4607D0002F204602D0FFF7E8FF67
S315000020A001E0FFF7DDFF30210F22134811FB04F199
S315000020B0082D084405D2AB00416800F015F84160D0
S315000020C006E0A5F108039B00816800F00DF8816029
S315000020D04EB9002F2946204602D0BDE8F440C7E796
S315000020E0BDE8F440BCE7F1BD9A4021EA020206FAD7
S315000020F003F111437047000000A000400146294843
S3150000210000F045B9274800F03BB9274900E02749C8
S3150000211010200860704782B000EB40000021CDE936
S315000021200001DDE90001421E61F10003CDE9002353
S3150000213000229142F5D19042F3D102B0704780B5AA
S315000021400023042206210220FFF79EFF002302221D
S3150000215007210220FFF798FF00230422082102200E
S31500002160FFF792FFBDE8005001230422042100205E
S31500002170FFF78ABF10B501210D480A4CFFF732FC64
S3150000218001210C48FFF72EFC01210B48FFF72AFC22
S315000021900FF23401204600F085F80B2060670748EF
S315000021A0A06710BD000401400CA000440CA000462E
S315000021B04041050000250800003204000B0B000B0F
S315000021C0A9E77047704770470500000000F0490214
S315000021D000A86100050101000000000000000000E9
S315000021E070B50446080015461E4604BF5D48FFF755
S315000021F029FC310006D0202E18D0402E18D0602E93
S3150000220018D070BD1021226822F060022260694356
S315000022102268324322604A0802EB4010B0FBF1F01C
S315000022202038514901EAC000606170BD0821EAE723
S315000022300621E8E70421E6E738B504460800154616
S3150000224004BF4848FFF7FEFB401E6900B0FBF1F0F3
S315000022500002606131BDCA43520002F00A02C26048
S31500002260C160704738B504460D4600F059F8A87CA1
S3150000227018B1206840F080402060E87C18B1287DC5
S3150000228040F08000A065687BB5F910100843B5F9E9
S315000022900E10084360602B7BAA6869682046FFF72A
S315000022A09FFF2AE038B504460D4600F039F8A87BB2
S315000022B008B14FF480602168B5F91020104340F052
S315000022C0010008432060287D08B14FF000502168C6
S315000022D008432060A87C18B1E87C40F08000A06527
S315000022E0287B40F480506060AA6869682046FFF742
S315000022F0A3FF687B08B11020E060A87DE97D000798
S31500002300090500F0E04001F4E00108432066687D1D
S3150000231018B1206840F4803020602878E06031BD34
S3150000232040F6AA61C1600021016041F205014160E9
S31500002330002181604161C1640C49816400214167CB
S315000023408167C1670A49884202D10A4A00211160A1
S31500002350002181650849884202D1084900200860A9
S315000023607047000040410500F8FF7F00F9FF0100BB
S315000023700000014050000140000401405C0401409F
S3150000238001690906FCD5FFE7C069C0B2704702695A
S315000023905206FCD541637047044988421CBF044974
S315000023A0884201D10120704700207047008001401B
S315000023B0008401402DE9F84304460D46FFF7ECFF83
S315000023C02878010004BF02216160002161626978FA
S315000023D001B140216A7A02B18022AB7A03B120238F
S315000023E0EE7A06B1102695F8049095F805C095F892
S315000023F00CE0EF7895F80280B9F1000F18BF4FF4A2
S315000024000059BCF1000F18BF4FF0805CBEF1000F01
S3150000241018BF4FF0080E3F0447EA0868AF7948EA4C
S315000024208728EF792D7A48EA07273D432943114348
S315000024301943314349EA01014CEA01014EEA01011F
S31500002440216008B101206060BDE8F1830A460902F7
S3150000245041EA12214840C0F30311484080EA0030A7
S3150000246041010206C9B2D20E41EA0221484080B2B9
S3150000247070470A0A484000F0FF0008214308C007D9
S3150000248046BF034858401846491EF7D1504070478A
S315000024902083B8ED890001EB401000F18440026012
S315000024A07047890001EB401000F1844000687047D6
S315000024B010B5DFF80824DFF800040168538803F13B
S315000024C02804C1F3032104EBD474491C03EB640311
S315000024D0283301EB8104B3FBF4F35B1E0468072B7E
S315000024E034BF1B064FF0E06324F0EE64234343F44D
S315000024F080130360B2F90620002A15D492B202F1C5
S31500002500280303EBD37302EB63024B08283203EB79
S315000025104101B2FBF1F14268072934BF090170217C
S3150000252022F070021143416010BDF8B50446DFF891
S315000025309453686AC007FCD4DFF88463306810F0EF
S31500002540030704D001220D212846FFF7A3FFA74267
S3150000255002D1DCB9002214E02FB9012C03D1DFF837
S315000025605C1302200870686AC007FCD430688008D3
S3150000257044EA80003060686AC007FCD4220018BFB5
S3150000258001222846BDE8F8400D2183E7F1BD70B56C
S315000025900446DFF8340382B002210160006800F0CF
S315000025A00F00022840F08580DFF82003006810F154
S315000025B0010F13D0DFF81803416802681160C16883
S315000025C082681160416902691160C169826911609E
S315000025D0416A026A1160C16A806A0160E0884B281C
S315000025E0B8BF00200DDBB0F5FA7FB8BF4FF08050C2
S315000025F007DB40F6C4118842B4BF4FF000504FF0DD
S315000026004050DFF8D052DFF8D0322969B4F90C20F7
S31500002610DFF8A4621940D243084340EAD270286129
S315000026200021306A40F0807030623046FFF739FF93
S3150000263000B1042000F02FF9706920F0C0407061ED
S31500002640306840F0060030606846FDF77DFE9DF874
S315000026500100DFF86812012813D19DF80000032855
S315000026600FDA087868B9A868DFF8702240F0010030
S31500002670A86070691040DFF868221043706101207D
S31500002680087020894880A089C880A088888000F0CA
S31500002690CFF8A07B20B1012805D1DFF8480201E080
S315000026A0DFF84402F06060880122012100F010F892
S315000026B008B9002076BDA27A02B10122052128467A
S315000026C0FFF7E8FE6078FFF730FF012076BD0000D7
S315000026D02DE9F847A0F5E163B3F5966F00F2A68001
S315000026E0B0F5E16FDFF804524FF4966807D92C680D
S315000026F001234FF4E169260EC4F3074A08E02C686B
S31500002700C14600234FF41678C4F3072604F0FF0AE7
S31500002710DFF8A44127683F0F07F0030700974FF043
S31500002720000E009F43EA0727F446BFB2A7B17F1EFB
S315000027301ED0FF3F0ED07F1E14D0FF3F08D07F1E55
S315000027400ED0FF3F02D07F1E08D016E0AF680AE029
S31500002750AF680EE06F6806E06F680AE02F6902E076
S315000027602F6906E0EF684FEA176CC7F3074E04E0DF
S31500002770EF68C7F3072C07F0FF0EA0EB0909A6EBDD
S315000027800A0000FB09F0B0FBF8F05044ACEB0E0772
S3150000279007FB09F78642B7FBF8F828BF5045F04417
S315000027A044D3C44528BFF04540D35AB12269DFF867
S315000027B04071002B14BF022600263A4042EA002050
S315000027C03043206179B3DFF82C010068C0B20428D9
S315000027D002DA686983B10CE0A8690099032925D853
S315000027E0DFE801F00A070402000E07E0C0F3074025
S315000027F004E0C0F3072001E000F0FF00000330F41E
S31500002800704113D1216A21F4704108432062B8F166
S31500002810E70FA06928BF4FF0E708400A43EA4801DE
S3150000282041EA4020A0610120BDE8F2870020FBE7D5
S3150000283010B521494B6A0C68E4074FF0FF3203F0EC
S31500002840070312D5022B10D3142815D314381428D5
S315000028501FD30F22086820F47F4040EA022040EA96
S3150000286002300860BDE8104022E60C68E40709D48F
S31500002870022B07D20A2801D20322EBE70A380A28DC
S3150000288007D3E6E70C68E407E4D5022BE2D2282852
S31500002890DFD20722DEE738B50446074D0021284679
S315000028A0FFF7FFFD686AC00844EAC0006862BDE839
S315000028B0324002488088BBE74C300E40C80C0020EE
S315000028C040300E4054300E4038300E401C83E00F2E
S315000028D03880E00F3C300E40FEFFFFCF000F0EF0B9
S315000028E0B4C0400B372110B7774020571883E00F4C
S315000028F0FD80FFFF0082E00F103A07D330B4B1E845
S315000029003810103AA0E83810F9D230BC530724BF6B
S31500002910B1E80810A0E8081044BF51F8043B40F89D
S31500002920043BD20724BF31F8022B20F8022B44BF08
S315000029300B7803707047083A07D3B1E80810083AD5
S3150000294040F8043B40F804CBF7D25307E4E7000015
S31500002950794841F67131816301684908490001608F
S315000029607047754801684908490001600021816384
S3150000297070477249724A01E021B1491E1369DB07AB
S31500002980FAD401B9BAE0506001201060106910F065
S31500002990060F05D0410700D5B3E0800700D5B3E0A8
S315000029A000207047F0B513460022002936D0634C4C
S315000029B0634D8BB98B4231D250F8046BEE605B1CD1
S315000029C008262E60264601E036B3761E2F69FF07DD
S315000029D0FAD4002EEED11FE0EFF3108672B6002374
S315000029E00EE02F6907F01907102F08BF2F602F6917
S315000029F03F07F6D550F8047BEF605B1C10272F606D
S31500002A008B42F4D306B962B6264601E026B1761E9D
S31500002A102869C007FAD40EB96FF002021046F0BD5D
S31500002A202DE9F84F444F0D4639680446002041F021
S31500002A3001019B4639604FEA92088146AA4602E0A8
S31500002A40B1440AEB860AC14517D204EB8906304623
S31500002A50FFF78FFF010022D1C6F30A00C0F5006020
S31500002A608608A8EB0900B04238BF06465A463146EA
S31500002A705046FFF797FF0100E2D021682A6891428D
S31500002A8009D02046FFF775FF010004D15A460121FF
S31500002A902846FFF787FF3968490849003960BDE8CD
S31500002AA0F28F2549254A0B6843F001030B608860C5
S31500002AB0012048604869400704D50868400840007E
S31500002AC008601EE04869800704D508684008400091
S31500002AD0086019E00220486001E022B1521E4869F0
S31500002AE0C007FAD422B9086840084000086005E02B
S31500002AF00868400840000860002070476FF0020038
S31500002B0070474FF0FF3070476FF0010070470023A9
S31500002B1086E70948016841F00101016046F21A3171
S31500002B20C1644FF4807141604169C907FCD400213A
S31500002B30C16400207047000008000E40809698008F
S31500002B400C000E404EF68851CEF20001086840F4A3
S31500002B5070000860BFF34F8FBFF36F8F4FF00070A8
S31500002B60E1EE100A704738B504460D46FFF7F0FE51
S31500002B70012C02D1FFF7CDFF02E02846FFF791FFB7
S31500002B8018B1FFF7EEFE012032BDFFF7EAFE002086
S31500002B9032BD10B5C20782B01BD402884FF6FF7350
S31500002BA09A4201D00A0014D18408A4008007226842
S31500002BB04EBFC2EA0140100C41EA00400090FFF708
S31500002BC0C7FE042269462046FFF7A1FF18B1FFF7AA
S31500002BD0C8FE012016BDFFF7C4FE002016BD70B565
S31500002BE004460D46164604E0FFF7BBFE241D2D1DC8
S31500002BF0B61EB6B1012E01D0A00706D535F8021BC8
S31500002C002046FFF7C6FFA41C761E022EF1D3FFF75F
S31500002C109FFE042229462046FFF779FF0028E3D0CD
S31500002C2001E0002070BDFFF79CFE012070BD000092
S31500002C30533235464C3230384B0000005732355847
S31500002C403230425600000000573235513830425675
S31500002C50000000004D5832354C3230303645000009
S31500002C604D5832354C343030364500004D583235EB
S31500002C704C383030364500004D58323552383033F6
S31500002C80354600004D5832354C3136303645000059
S31500002C904D58323555313633354500004D583235AD
S31500002CA052363433354600004154323544463034CA
S31500002CB03141000041543235534630343100000072
S31500002CC04154323544463038314100004D3235509A
S31500002CD0323000004D323550343000004D32355020
S31500002CE0383000004D323550313600004953323508
S31500002CF04C51303235420000495332354C51353152
S31500002D0032420000495332354C51303130420000D6
S31500002D10495332354C513032304200004953323536
S31500002D204C51303430420000C0EA210100F0490223
S31100002D3000800000C0EA2101C0EA210179
S7050000007981
