S00F00006E6F6465746573742E7333377F
S315080020009022002069180108C9170108CD17010890
S31508002010A70A0A0100210008040303AC0060D400E3
S3150800202000000000000000000000000000000000A2
S315080020300000000000000000000000000000000092
S315080020400000000000000000FFFFFFFFFFFFFFFF8A
S31508002050FFFFFFFF00E0020800000000000000008C
S31508002060FFFFFFFFFFFFFFFFFF000000000000006B
S315080020700000000000000000000000000000000052
S31508002080F02F002000000000E92F0020E92F002093
S31508002090902200200C3F0108501A01083019002030
S311080020A0B41000200000030800300020E7
S315080021009022002069180108C9170108CD1701088F
S31508002110D5170108D1170108D91701085018010861
S3150800212050180108501801085018010850180108DD
S31508002130DD1701085018010850180108637C0008CB
S3150800214009FB0008501801081F86000850180108E6
S31508002150CF7F000815850008501801085018010897
S31508002160C9E200081D9B00082BB8000819C0000822
S31508002170501801085FC30008A7C3000893BC0008ED
S31508002180D33A0008501801085018010850180108D9
S3150800219070472DE9F047DFF844580FF29C010FF21B
S315080021A0945A0FF28058DFF838980446287800F0D9
S315080021B0DDFD0027E4A603E000F083F97F1CBFB22B
S315080021C0206800EB07114A68287813001AD04A4598
S315080021D009D14A69130018BF4A45EFD00A68414633
S315080021E000F0C4FDEAE78B680A68514600F0BEFDB8
S315080021F0206800EB0710C2682878002ADCD00FF2A6
S315080022003C51EDE70FF2AC0100F0B0FD28780FF273
S31508002210CC0100F0ABFD28780FF2F00100F0A6FD26
S3150800222028780FF2141100F0A1FD28783146BDE890
S31508002230F04700F09BBD0000434F4D4D414E4420F2
S315080022405B504152414D45544552535D205B2D200C
S315080022504445534352495054494F4E5D0D0A202078
S3150800226077686572653A20623D6275666665722CA6
S315080022702073313D696E74385F742C2073323D6962
S315080022806E7431365F742C2075313D75696E7438FD
S315080022905F742C2075323D75696E7431365F742C07
S315080022A02075343D75696E7433325F740D0A0D0AF4
S315080022B00000000020202120202D20526563616C3B
S315080022C06C73207468652070726576696F75732003
S315080022D0636F6D6D616E640D0A00000020205B74EB
S315080022E061625D202D20417474656D70747320746D
S315080022F06F2074616220636F6D706C65746520630E
S315080023006F6D6D616E640D0A0000000020202020AC
S315080023102A2A204E4F54453A20616C6C20696E700B
S3150800232075742076616C7565732061726520696EB7
S3150800233020686578210D0A00202020202A2A2043BB
S315080023406F6D6D616E647320617265204E4F542007
S31508002350636173652073656E7369746976650D0AC2
S3150800236000000000A0F141011A293CBF2030C0B28C
S3150800237070472DE9F84F0546DFF86816A868006823
S315080023800968DFF85876C0B200240E5C212EA046F4
S3150800239007DB38780FF2CC01BDE8F84F202200F0B1
S315080023A0E5BC00F013FD8246A14607E01AF80900CD
S315080023B0FFF7D8FF0AF8090009F10109B145F5DB6D
S315080023C032460FF2E401504600F0A2FF40B94FF042
S315080023D0010805E038780FF2D8015A4600F0C6FC25
S315080023E0296820010A185268130039D0DFF8F095D9
S315080023F0641C4A45A4B2F3D151F800B0B8F1000FF5
S31508002400E8D1584600F098FFB042E9D13246514625
S31508002410584600F071FF0028E2D1BFA60FF21C381B
S315080024200FF2940A03E000F04CF8641CA4B2286882
S3150800243000EB041041680A0018BF494510D08368AC
S3150800244002683878514600F091FC286800EB0410C1
S31508002450C2683878002AE6D0414600F087FCE4E7EF
S31508002460BDE8F18F4572726F723A206C69737420F9
S31508002470617267756D656E7420746F6F206C6F6E10
S31508002480672C207765206F6E6C7920737570706F76
S31508002490727420757020746F2025752062797465B2
S315080024A0732E0D0A000000006D6F64756C6573006D
S315080024B025700D0A00000000257020257000000018
S315080024C02078314600F052BC70B5044688B0A06842
S315080024D0016801B10121DFF810552970406800B183
S315080024E00120DFF8086530700FF2600001F03FF94F
S315080024F0A068C16801B10121DFF8F42411700069F0
S3150800250000B10120DFF8EC14087008782B780790E2
S3150800251004F111010FF25C00069010780FF25C02CC
S3150800252005900FF260000490012003907BA00290B2
S31508002530307801900FF2540000900FF2580001F025
S3150800254016F908B070BD00000D0A00005475726EC9
S31508002550696E67206F66662074616773206E6F7494
S315080025602079657420737570706F727465640D0ACE
S3150800257000000000746578740000000068656164F6
S315080025806572000064656C696D000000636F6D6DAF
S31508002590616E64007B264E20566572626F7369749D
S315080025A079206F7074696F6E732073657420746F09
S315080025B03A0D0A2674750D0A2674750D0A26747561
S315080025C00D0A2674750D0A2674757D0D0A0000001D
S315080025D0DFF82414007C51F82020DFF800040FF2FD
S315080025E00801007800F0C2BB4349204572726F7239
S315080025F03A2025700D0A000038B5DFF8E043207848
S3150800260045A500F03FFA20780FF2340100F0AEFB42
S3150800261000F037FA20780FF24C0100F0A7FB20787B
S315080026203FA100F0A3FB20780FF2440100F09EFBC7
S3150800263020780FF24801BDE8344000F097BB00004F
S31508002640456D626572204E6F64652054657374200B
S315080026504170706C69636174696F6E2076312E30D3
S31508002660000000004F6374203236203230313700C4
S3150800267031363A33303A3436000000000D0A0D0A76
S31508002680000000002DE9F24F044682B0256BDFF802
S315080026904CB39046002705E01FA100F067FB7F1C9E
S315080026A0BFB210356868A8B3D5F80090DDF808A061
S315080026B000260DE01AF8010BFFF754FE009019F8F2
S315080026C0010BFFF74FFE0099C9B28142E7D1761C8C
S315080026D0B0B24045EED32068C14E00EB07114B68F7
S315080026E00A689BF80000B34204D10FF2380100F0E3
S315080026F03DFBD4E78B680FF23C0100F037FB2068FE
S3150800270000EB0710C2689BF80000002AC4D00FF23D
S315080027102C01ECE7BDE8F78F0D0A0000746167002D
S315080027202C2000002D2D2D2D202570202D2D2D2D12
S315080027300D0A00002020257020257000202D202558
S31508002740700D0A002DE9F0439BB00EA80FF2AC21DC
S31508002750342201F03DF84FF000098DF80190A520CC
S3150800276001F071F801F0D0F8012300220F210020B2
S3150800277001F03EFA050006D0012300220A210020B6
S3150800278001F036FA0546012300220F21012001F047
S315080027902FFA060006D0012300220A21012001F0A3
S315080027A027FA0646012300220F21022001F020FA0B
S315080027B05FEA000806D0012300220A21022001F060
S315080027C017FA804601F026FC844C5DB1002E68D0CD
S315080027D0B8F1000F6BD04FF4FD710FF2542001F0E1
S315080027E01FFC04E0002E18BFB8F1000F62D084F871
S315080027F00090201D01F046FD201DFFF7FDFE0FF29B
S31508002800402520780FF2402800F03CF920780FF296
S315080028108C2100F0ABFA6EA6FFF752FE201D01F0E0
S31508002820A9FF00F02EF920780FF27C2100F09EFA1D
S31508002830FFF746FE201D01F0BAFF00F022F92078C6
S315080028400FF2702100F092FAFFF73AFE201D02F00F
S315080028502AF800F016F920780FF2642100F086FABB
S31508002860FFF72EFE201D03F047FC00F00AF920783A
S315080028700FF2582100F07AFAFFF722FE201D03F026
S3150800288058FC00F0FEF820780FF2C41100F06EFA3A
S31508002890FFF716FE201D04F0ABFA4EA54EA601AFB3
S315080028A03FE0B8F1000F05D001202070A1E7022013
S315080028B0FBE725702078FF289BD100256946284626
S315080028C001F0D6F938B99DF800000D2818BF0A2876
S315080028D018BF2A28EDD06D1CEDB2032DEEDBE9E713
S315080028E08DF800009DF800107A5C481C0A2A18BF6B
S315080028F00D2A18BF002AF3D10D227A548DF800004C
S3150800290001A99DF80020201D01F0C8FC9DF80020B3
S3150800291001A90EA800F0A6FC9DF8009000208DF8ED
S31508002920010000F0AAF820780DF10103322201A96E
S3150800293001F0EFF90028D3D000F081FF01F056F935
S3150800294004F0E4FC03F0BAFE9DF8010020B39DF8FC
S31508002950011001A8084410F8010C09281CD1FFF73A
S31508002960AFFD9DF80100401E8DF8010001A99DF8F4
S315080029700120201DFFF786FE9DF8011000207854DF
S3150800298000F07BF8002004E000F072F89DF80000E3
S31508002990401C00F065F8F7D39DF804002128C2D141
S315080029A0FFF78EFD4A460EA901A800F05BFCA9F1C7
S315080029B001008DF8010000F060F8002000F050F8E2
S315080029C0B1D200F055F89DF80000401CF6E700006B
S315080029D05D0D0A00256300000D0A00009022002004
S315080029E09121000860230020FA230020FB23002001
S315080029F0FC230020FD230020A42300200D00000056
S31508002A0000000000000000000000000000000000B8
S31508002A1000000000000000000000000000000000A8
S31508002A200000000000000000000000000000000098
S31508002A30706C6174666F726D746573742E630000D2
S31508002A405B494E49542000000D0A3E200000000054
S31508002A507365745065725465737454780000000089
S31508002A608DF800009DF801109DF800008842704717
S31508002A703A5C2078294600F079B94146207800F07A
S31508002A8075B92078294600F071B980B504F0E2FCE2
S31508002A90BDE80240002055E6002070476372617366
S31508002AA068696E666F000000726573657473747288
S31508002AB0696E6700696E6974546F6B656E730000A2
S31508002AC0696E6974526164696F00000073656564B4
S31508002AD0506E72670000000070B51346104402E09D
S31508002AE0A4192C705B1EDCB24CB101F00F06090963
S31508002AF0451E0A2E2846B4BF30243724F0E7104472
S31508002B0070BDF0B5002341B1002806D501232D215B
S31508002B10B0F1004F117018BF4042002100240FF297
S31508002B20882555F82470002601E0C01B761CB8429B
S31508002B30FBD2F7B20FB90F0005D0DBB206F13001B0
S31508002B40D1545B1C0121641C092CEADBDBB2303052
S31508002B50D054581CC0B2F0BD2DE9F24F80468AB059
S31508002B6007A80190154603A89B4603AE0027002434
S31508002B708DF800000BE0012405460198864205D32E
S31508002B8000F0DCF800284FD100F0CEF86D1C9DF857
S31508002B9000002978301A0A000BD0252903D014B969
S31508002BA006F8011BE9E7002C14BF00246D1C2978E0
S31508002BB00A0000F0AF80B1F1250216D00B3A092AB7
S31508002BC040F28980283A7DD00A3A12D0521E41D066
S31508002BD0521E5FD0083A5DD0121F3ED0D21E3CD09E
S31508002BE0921E57D0D21E6DD0C7E7252006F8010BD6
S31508002BF0C3E7DBF8000002904FF0000A0BF104006F
S31508002C0000F1040BD0F80090CA45B6D2029810F825
S31508002C100A1002223046FFF75FFF064601988642F1
S31508002C2005D300F08BF800287AD100F07DF8A9F1D9
S31508002C30010082453CBF202006F8010B0198864218
S31508002C4005D300F07BF800286AD100F06DF80AF188
S31508002C50010AD9E75BF8040BC8E75BF8049B00F0A8
S31508002C6067F800285CD100F05FF84FF0000A01E031
S31508002C700AF1010A5FFA8AFA19F80A000028F7D158
S31508002C809DF8280052464946C047002848D157446F
S31508002C90FFB272E76C290AD16A785BF8040B752AC9
S31508002CA00EBF00210121642A07D16D1C05E0752994
S31508002CB05BF8040B0CBF002101213246FFF721FF08
S31508002CC036185AE75BF8041B0222C9B23046FFF7EA
S31508002CD003FF064651E76A780124782A18BF582A5E
S31508002CE0F8D16D1C0024681E322904D15BF8040B48
S31508002CF0042281B2EAE734297FF43DAF5BF8049BEE
S31508002D0004224FEA19413046FFF7E6FE04221FFA6D
S31508002D1089F1DCE700F00CF810B9F019C0B200E050
S31508002D2000200BB0BDE8F08FF719FFB203AE70476D
S31508002D3006469DF82800F2B203A940479DF8000010
S31508002D40361A9DF82800F2B203A9404713A10DE0F0
S31508002D500CB438B5044604AA00F010F80546204617
S31508002D60FFF7F4FF284632BC5DF80CFB0CB480B5BF
S31508002D7002AA00F003F802BC5DF80CFB10B5084B7C
S31508002D801B5C0024012B07D113460A460146054859
S31508002D90FFF7E2FE00B90124204610BD0D0A000027
S31508002DA0FC3F0008D33E000800CA9A3B00E1F5053F
S31508002DB08096980040420F00A08601001027000068
S31508002DC0E8030000640000000A000000DFF864144D
S31508002DD0096801EB40107047DFF85C24126811544B
S31508002DE070472DE9F041040035D004F087FCDFF880
S31508002DF04C14DFF84C340E78FF228046FE2EDFF89E
S31508002E0044041BD100260E70DFF83CC4DFF83C648E
S31508002E1037781F70002708E007F1010E05F807E06C
S31508002E20DCF80050EA555FFA8EF796F800E0056878
S31508002E307745F1DB05EB0E0606F8012C1E78A6424F
S31508002E400BD2404604F060FC052004F097FC0021F4
S31508002E501B2004F017FDFF201EE0361B1E70DFF84E
S31508002E60F0330E780F78D3F800E001250EF80750F6
S31508002E70641E056815F807E081F800E05FFA84FE2D
S31508002E80BEF1000FEED1EA5500213046FFF7A4FF48
S31508002E90404604F039FC3046BDE8F08110B50446DA
S31508002EA004F02CFCDFF8A81309680A5D521C0A55C1
S31508002EB0BDE8104004F028BC2DE9F041054600F0B5
S31508002EC031F8044604F01AFCDFF87023DFF8703393
S31508002ED0DFF87063DFF87883FF2D1FD0D8F800106D
S31508002EE04F5D7F1E4F557F27D8F800E01EF8051066
S31508002EF0394213D13168495D00270EF805701F78ED
S31508002F007F1C1F70FF29376892F800E007F805E074
S31508002F10157006BF2546FF240D46DDE7BDE8F041DE
S31508002F2004F0F2BB80B5DFF828130968095C0906C6
S31508002F3003D5FFF74BFF007802BDFF2002BD70B531
S31508002F4004460D4605F11F000004400D82B0C0B2CC
S31508002F50FFF747FF0646FF2E0CD02946FFF73CFF32
S31508002F603CB1012000902B4600223146204600F055
S31508002F7002F8304676BD73B500F0C0F8405C1546D9
S31508002F801E467119884203DA4FF4B07100F0DBF877
S31508002F9030000CD0294601A800F0D9F80246069858
S31508002FA09DF8041000903346204600F001F873BDE2
S31508002FB02DE9F843089CDFF88C82054689461646B3
S31508002FC01F460BE06A5C4254491CB142FADBD8F84A
S31508002FD00000BF1BAD1910F809900026F8B2C8B159
S31508002FE04846FFF7F3FEFFB28019F1192029B2BF50
S31508002FF03E46C6F12006F6B22100324604D1014605
S31508003000284600F02FF9E2E7012C08BF2946F8D038
S315080030100021DAE7BDE8F1832DE9F04100F06EF80A
S3150800302082B0055D884616467119C9B2A9421F467F
S3150800303005DB30000CD0204600F04EF808B1182009
S3150800304007E0009733462A4621464046FFF793FF96
S315080030500020BDE8F6810123DEE70A4600E0521C9F
S315080030601378002BFBD1521A0223D2B2D4E7F8B553
S31508003070044601F11F00C50402F11F00C0042D0E0D
S31508003080000E05B9012500B90120854222D0DFF8D6
S31508003090B46110DA401BC0B2FFF7A3FE0746FF2F44
S315080030A001D10020F2BD691EC9B2204600F02BF8F6
S315080030B031680F540EE08A420CD2411EC9B220462E
S315080030C000F021F804463068005DFFF7F5FE316828
S315080030D0FF2008550120F2BD38B500F00FF80D465F
S315080030E0015D2A462046FFF7C2FF28B12946204639
S315080030F0FFF772FE002032BD182032BD0446DFF805
S3150800310038010068704704E0DFF838211268105C5F
S31508003110491ECAB2002AF7D1704711B50C46DFF826
S315080031201811096881B0095C8C4203D34FF4FB710E
S3150800313000F009F8214601A800F009F8044600F055
S3150800314060F8204416BD0FF20C1000F069BF38B5C0
S3150800315004460D46E9042078090EFFF7D4FF2070CF
S3150800316005F01F0032BD80B5FFF7D7FF007802BD16
S3150800317010B51446FFF7D1FF047010BD70B500F006
S315080031800AF8064600F004F800EB062080B270BD87
S3150800319029462046E7E70D46691C0446C9B2E2E718
S315080031A02DE9FC4405B40A9C20001F4627D089B2A5
S315080031B06846FFF7CCFF0646B9B201A8FFF7C7FF76
S315080031C00746BE42A8BF3046A4B2C0F12000254635
S315080031D0C0B2A842B8BF054600F013F882469DF86B
S315080031E00000FFF7F3FD2A460AEB0701304400F01A
S315080031F039F8641BA919EF19A0B20028D7D1BDE880
S31508003200FF849DF80400E1E570B504460D4604F018
S3150800321075FA0D4B21781B68FF2908BF5D5503D049
S3150800322019440E785E550D702570BDE8704004F09F
S315080032306BBA00005C230020602300200A240020CB
S3150800324006240020682300206C2300200524002083
S31508003250642300207061636B65742D62756666650C
S31508003260722E6300814233D210441144401E491E17
S3150800327010E011F8013900F80139121F11F8013967
S3150800328000F8013911F8013900F8013911F8013946
S3150800329000F8013992B2042AEBDA93B2002B1EBF6A
S315080032A011F8013900F80139521EF6D1704711F8A4
S315080032B0013B00F8013B121F11F8013B00F8013BE6
S315080032C011F8013B00F8013B11F8013B00F8013BFE
S315080032D092B2042AEBDA93B2002B1EBF11F8013B17
S315080032E000F8013B521EF6D17047130003D00A4678
S315080032F0194604F0D1BA704710B500E0521E93B2D1
S3150800330023B100F012F8F9D0181B10BD002010BD2B
S3150800331010B500E0521E93B22BB100F006F8F9D0B2
S31508003320181B40B210BD002010BD10F8013B11F863
S31508003330014BA3427047000000F10103810704D046
S3150800334010F8011B89B18107FAD10268B2F101317F
S31508003350914311F0803F04BF50F8042FF6E710F8A8
S31508003360011B11B110F8011BFBE7C01A70470000DA
S3150800337038B50446611D206A2368451A2079EAB2E1
S31508003380984708B1002032BD00F018F8601D206289
S31508003390012032BD38B50446002500E06D1CEDB2AB
S315080033A0485D0028FAD1207923682A46984718B933
S315080033B000F004F8012032BD002032BD94F829003F
S315080033C0281884F8290070472DE9F04F804608F13F
S315080033D0200785B008F1050038600E4608F115008B
S315080033E07860914600207872DFF8B44313E018B18C
S315080033F008F105003860164625B17D2000F0A0F9D1
S3150800340001F8010D38687968884203D300F096F907
S31508003410002862D0761C3078010000F075812528D6
S31508003420617818BF262809D07B281CBF7D28232849
S3150800343002D10029E6D0E1E7A178FAE716F8012FCC
S31508003440252A18BF262A04D100F07AF901F8012D99
S31508003450D8E726280BD151B101256E2A18BF4E2A66
S3150800346006D000F06DF97B2001F8010D00E000257B
S31508003470317800204E2906D0542923D06E2902D04F
S3150800348074291FD032E0207859F804BB0028B9D037
S3150800349035B138687B210170811C3960282141705B
S315080034A000F04CF9002818D000F03BF9002814D099
S315080034B0002DA7D0386829210170811C39607D212B
S315080034C041709FE700F038F9002806D000F029F986
S315080034D0002802D000F032F9002800F07C8000F0C5
S315080034E02FF93A2001F8010D761C0120317896F85B
S315080034F001E0A1F13002D2B2911E05293CD2BEF1FB
S31508003500640F18BFBEF1750F36D159F804CB0023E6
S3150800351001211FFA8CFCBEF1640FE24609D15FEA6D
S315080035200C4E06D56FEA0C0C0CF1010C01231FFAA0
S315080035308CFCBCF1000F0AD04FF00A0E9CFBFEFC77
S315080035405B1C1FFA8CFCBCF1000FF5D10BE05B1C71
S3150800355009E0D7F800E00EF1010EC7F800E04FF0D9
S31508003560200C0EF801CD9C460CF101035FFA8CFC89
S315080035709445EEDB761C00E000213378721E002BA2
S3150800358000F0BE80322B18BF342B00F09580482BF4
S3150800359006D0582B0FD0632B0FD0642B1FD0682B67
S315080035A000F07F806C2B52D0702B18BF732B0BD07A
S315080035B0752B14D0782B76D019E73868411C3960FA
S315080035C059F8041B017017E700F0B6F818B100F0B7
S315080035D0A8F80028F7D1002005B0BDE8F08F00292B
S315080035E019BF1FFA8AFA514659F8041B89B229B934
S315080035F000F0A6F8302001F8010DFDE60020642B46
S315080036000DD10A040BD53B685B1C3B602D22B1F536
S31508003610004F03F8012D02D0494289B259B10A2256
S3150800362091FBF2F20A23C0B203FB12110DF8001047
S31508003630401C91B2F2E70146481EC9B20029DCD007
S31508003640C0B23A681DF8001000F065F8F3E759F8BB
S31508003650041B0029CCD0002000290AD53B685B1C36
S315080036603B602D22B1F1004F03F8012D01D04942EC
S3150800367059B10A22B1FBF2F20A2303FB121102AB7B
S31508003680C0B21954401C1146F2E70146481EC9B299
S31508003690002910D002A9C0B23A68095C00F03BF8CC
S315080036A0F3E700F041F8022259F8041B3868C9B25A
S315080036B0FFF712FA38609FE616F8010F682818BF58
S315080036C048280BD100F030F816F8011C3868322962
S315080036D00AD159F8041B042289B2E9E7782818BFE9
S315080036E05828F1D0761E87E659F804BB04224FEA1B
S315080036F01B41FFF7F1F9386004221FFA8BF1D7E76F
S3150800370001007FF474AE76E600F018F800283FF45E
S3150800371062AF787A60E7521C3A60303102F8011DD0
S3150800372070475946404635E6386830210170811C95
S31508003730396078214170704759F804BB404617E64E
S315080037403968491C396070470EB410B515490978AF
S315080037508BB0002409B9002008E000F019F80146EA
S315080037606846FFF731FE00B9012420460CE00EB486
S3150800377010B58BB000F00CF8002401466846FFF738
S3150800378023FE00B9012420460BB010BC5DF810FBDF
S31508003790054900910DAA054909788DF80410704766
S315080037A0FB230020FA230020D33E000890220020A5
S315080037B062B38B0708D0521E11F8013B00F8013B93
S315080037C000F024808B07F6D1830740F0208000BFE5
S315080037D0103A07D330B4B1E83810103AA0E83810D8
S315080037E0F9D230BC530724BFB1E80810A0E8081086
S315080037F044BF51F8043B40F8043BD20724BF31F8D4
S31508003800022B20F8022B44BF0B7803707047083A46
S3150800381007D3B1E80810083A40F8043B40F804CB4F
S31508003820F7D25307E4E7000004F021B92C48012138
S3150800383081604EF6BE214160012101607047294929
S31508003840012008607047A52805D125484DF6AD61C9
S3150800385041600221016070472148006810F00100AC
S3150800386018BF0120704700F007011F4AC00802EB85
S3150800387080200122806807E000F007011A4AC00884
S3150800388002EB80200122C0688A401040C840704779
S3150800389080B51649164A1020086016491648007859
S315080038A003000BD003280CBF00200120106040F64F
S315080038B051000860002004F02DFB06E0022010608D
S315080038C04FF40060086004F098F80C48072101607E
S315080038D00021016410200A490860002002BD00008A
S315080038E0006000400860004000B0004080E100E051
S315080038F0080000400C600040C92F002014A00040BA
S3150800390000E100E07047704780B5A6480021416095
S3150800391041708170A5210170012003F0F9FE03F0C2
S3150800392028FF00F01EF8002002BD9F480168C9075D
S3150800393000D4704780B59D490A6822F440620A603F
S31508003940016849084900016001680902FCD49848E1
S31508003950006810B1642004F0CEFA96490020086089
S3150800396001BD80B59448016841F08071016001206D
S31508003970924908600020924904F0DAFA9149924A7D
S315080039800220086000209149086091489149016029
S3150800399001211160844A9049116040F20141016594
S315080039A04FF480308D49086001BD824800680028C0
S315080039B01EBF7F480068002805D07F480068000EB3
S315080039C000F00100704700207047D1220270417054
S315080039D0090A817082490A78C270501C087004204E
S315080039E070472DE9F14F82B0DFF8F8810090002684
S315080039F0D8F800000099405C451D04F0CBFAEDB2FA
S31508003A0001904FF6FF7A19E0B11E9DF80800C9B279
S31508003A10FFF7A9FB0746514604F0F0FA82465E46D0
S31508003A20FFB24FEAC90007FA00F0044309F1010999
S31508003A30B9F1040F17DB4FF060400460FFF7B5FFDC
S31508003A40F6B298B3AE4231DA04F0A4FA0199401AF4
S31508003A5080B2B0F5FA7F29DC4FF060400068012893
S31508003A60ECD10024A146F0B210B95B270126D7E7AE
S31508003A7006F1010B0128F6B204D1D8F80000009926
S31508003A80475CCCE7E91E884208BF5746C7D0A91E3F
S31508003A90884208BF4FEA1A27C1D0691E884208BF64
S31508003AA05D27BCD0A842AFD10027B9E74FF4C8704C
S31508003AB004F021FAAE420CBF00200120BDE8FE8FBB
S31508003AC048490968095C0429A8BFFFF78ABF01208D
S31508003AD070472DE9F04D334D6E78300060D004F014
S31508003AE059FA834631460020FFF729FA0446FF2C87
S31508003AF0A04602D10020687052E0202EB4BF374697
S31508003B002027FFF763F96860AF70DFF8DCA004E0F0
S31508003B104046FFF75BF96860AF706878C8B104F093
S31508003B2039FAA0EB0B0080B2B0F5FA7F11DCA87861
S31508003B300028F2D1F61BF0B200286E70EDD0DAF844
S31508003B40000010F80880F6B2202EB4BF37462027AA
S31508003B50DEE7F6B2002E04BF6878002818D1A878E8
S31508003B60B0B920480068005D851EE9B22046FFF717
S31508003B7005FB122808D1E9B22046FFF7ADFA21461F
S31508003B80122004F019FB06E0204604F05FFA02E072
S31508003B9000206870A8702046BDE8F04DFFF78CB984
S31508003BA0BDE8F08DF02F0020800E00E0001000E048
S31508003BB034000040100004E0FCED00E0040004E0DE
S31508003BC020A10700F00004E0000E00E0040304E072
S31508003BD0B00F00E055CEACC50D00010000E100E0D5
S31508003BE0CD2F0020602300206823002070470000A6
S31508003BF02DE9F0470446884691469A4600F0EFF9C3
S31508003C00002801BF25460FF2F430405D012821D176
S31508003C10DFF8BC6356F8257003F070FD0021B98003
S31508003C203980798003F070FD06EB8500066903F09C
S31508003C3065FD0021B18031807180DFF898235155E8
S31508003C4003F062FD53464A4641462046BDE8F04722
S31508003C5004F024BB2120BDE8F08710B5044604F023
S31508003C6023FCDFF86C0300EB84000069808810BD34
S31508003C702DE9F84381464C46DFF8540300EB8400EF
S31508003C8088460569484600F0AAF908B101203EE0D1
S31508003C90DFF84063305D06EB440760B1B888698891
S31508003CA0884208D103F02AFD355D0021315503F01D
S31508003CB02BFD28462BE0484604F0F6FBA88800288A
S31508003CC01EBF0FF2443030F81490B9F1000F1DD022
S31508003CD003F014FD69882944897988F800104FF69D
S31508003CE0FF786988491C91FBF9F209FB1211698072
S31508003CF0A9884144A98003F007FD305D20B1B88842
S31508003D00404504BF2888B880002000E02620BDE88A
S31508003D10F283F8B51F46044638780D460100164664
S31508003D2001D0B04208D30020287005E03878411C3D
S31508003D3039709DF80010295469462046FFF798FF08
S31508003D40010056D19DF800008028F5DA39780A0076
S31508003D5003D10A2818BF0028EED0B14207D30020A5
S31508003D6038709DF800000D2818BF0028E4D09DF88B
S31508003D700000082818BF7F280CD138780100DBD04E
S31508003D80401E38700021C0B2295490A1204600F088
S31508003D9057F8D1E73878801C8642BCBF0D208DF8CD
S31508003DA000009DF80010204600F038F89DF8000045
S31508003DB061381A2804D29DF8000020388DF80000D2
S31508003DC09DF800000D2818BF0A28AFD139780020C1
S31508003DD068549DF800000D2805D10A21204600F0F8
S31508003DE01DF8002603E00D21204600F017F83E7066
S31508003DF00020F2BD70B582B0044600200D46164676
S31508003E008DF8000001E0FFF71AFD6B463246294699
S31508003E102046FFF77EFF0028F5D176BD02B50122C0
S31508003E20694600F056F802BD80880FF2C81333F8C9
S31508003E301110891A884201DA01207047002070475C
S31508003E402DE9F047824656460FF2B010805D0128EC
S31508003E500D463BD15E480FF2B81850F826700FF29F
S31508003E60A019002419E003F049FCB98801B9012416
S31508003E7039F816100A000DD03B882A783B449A7107
S31508003E803A88521C92FBF1F301FB13213980B98859
S31508003E90491CB98003F038FC6D1C287888B10022CB
S31508003EA051463846FFF7C0FF0028DCD11CB1504602
S31508003EB004F039FA002418F806000028EFD1222069
S31508003EC005E0504604F02FFA002000E00120BDE886
S31508003ED0F0872DE9F84F8046C1460FF2201010F8FA
S31508003EE0090001280D4616463ED139480FF2201B17
S31508003EF050F829400FF2081030F819A0002718E0EA
S31508003F0003F0FCFBA18801B90127BAF1000F0DD017
S31508003F1022882978A21891712188491C91FBFAF206
S31508003F200AFB12112180A188491CA18003F0ECFB31
S31508003F306D1C3046461EC0B288B100224146204656
S31508003F40FFF772FF0028DBD11FB1404604F0EBF9FA
S31508003F5000271BF809000028EFD1222005E040467B
S31508003F6004F0E1F9002000E00120BDE8F28F80B5F9
S31508003F7001460FF28802525C012A05D1144A52F80A
S31508003F8021108A88002AFCD104F023FA002002BDF9
S31508003F900CB438B504460D4604F0F2F904AB2A46CB
S31508003FA021460D48FEF7D8FD20460FF25001095C60
S31508003FB0012907D1064951F82000808810B120460A
S31508003FC004F0B1F932BC00205DF80CFB08200800AB
S31508003FD0842300200C2D00209183000870470428B4
S31508003FE006DA0FF21801095C481E8041C00F7047B7
S31508003FF001207047800080008000800001010101D7
S315080040008000800080008000400040004000800062
S3150800401001010101002181F31188704742DE7047D2
S3150800402038B504460D46FFF70AFC03F067FB294638
S31508004030204603F0F7FF2B4622460FF2D411012043
S31508004040FFF7A6FF29462046BDE83440E6E767485D
S315080040502DE9F047664D01682E1D4FF420687165FD
S31508004060016AB16563490968F165416A3166816A21
S315080040707166C16AB166016BF166806B306796F846
S31508004080340040074CBFF46BB46B04F048FB0022C5
S31508004090F2648442584A014624BFA2F1200AA24586
S315080040A02746316505F18C03DFF850C1DFF850E18A
S315080040B018D3A0693064E4697464746DC4F30804A1
S315080040C0062C13D1704511D360450FD200884DF6E2
S315080040D04264A0420AD13068586040F2017870689C
S315080040E0986003E0002737647764074645488142AD
S315080040F002D2014600E0091D0846904203D20C6828
S31508004100B4F1CD3FF7D04049081AB0640021002029
S3150800411005EB8004401C0628A167F9DB002003E0B4
S31508004120C0B205EB8004A167974222D252F8041D5B
S315080041307145F9D36145F7D2CC07F5D5002405EBCF
S315080041408409D9F87890894502D0641C062CF6DBD8
S31508004150062CE9D1002814BF401E0520E0E7716F40
S31508004160002405EB8402641CD76F9767052CF8DBDF
S3150800417019600146481EC9B20029F0D1706DC0F316
S31508004180080002280AD0032815D0042816D00528C6
S3150800419017D0062818D00C281CD01EE01B4801682A
S315080041A0890748BF40F602181CD40068C00719D50D
S315080041B040F2025816E040F6012813E040F60228BD
S315080041C010E040F603280DE0B8F5206F0AD140F656
S315080041D0042807E040F6052804E018B1242838BF6B
S315080041E040F607284046BDE8F087000004ED00E0E9
S315080041F00000002000E300E090220020501A010889
S315080042009021000898000020902200201CA0004061
S315080042100D0A5B4153534552543A25703A25645D5D
S315080042200D0A00002DE9F8430446DFF8B8030068D4
S31508004230055D0026E807B14648BF002020D40027C0
S315080042400FF2C84802E04FEA00197F1CFFB2AF42DE
S3150800425011DA39462046FEF786FFF90718F80000F6
S3150800426000F00F00EFD549EA0002F1B22046FEF74A
S315080042707FFF761CE9E7F1B22046FEF7ADFD012087
S31508004280BDE8F28300F12401FF228A700022C2737E
S31508004290C2830A7082730068C86070472DE9F74FB9
S315080042A082B000208DF801000298041D00F1240553
S315080042B008E0607A68720120E07202999DF80000B1
S315080042C000F0A2F903980027002660BB9DF81000AD
S315080042D06946FFF7CDFC002839D0262826D0029853
S315080042E0012100F083F978208DF80000B0461027E8
S315080042F000208DF80100E07A0828E3D8DFE810F0FE
S315080043000A004B008E00E900E9003B014701AC00BA
S315080043109D00D7E7102FCCD09DF80000232836D172
S315080043200820E072CEE79DF8100020B99DF801003C
S3150800433005B0BDE8F08F0398401C0390401E007836
S315080043408DF800009DF81000401E8DF81000B0464C
S315080043509DF8000067280FD29DF800100FF2AC30C8
S31508004360405C00F0300700F00F08400607D5687A71
S31508004370804504DA012602E07B2838BF10279DF81D
S3150800438000000A2818BF0D28B2D10120B1E7202F56
S3150800439098D0032021E1102F1CBF9DF800005F284C
S315080043A000D01EB128780C28F3DA86E7202F18BF2C
S315080043B0302F3ED102992A781144002048744FF0D4
S315080043C00009E8680BE01AF8010B00F016F91BF86B
S315080043D0011B81420DD00198103009F101090190A5
S315080043E00198406828B30198D0F800A0029800F117
S315080043F0110B9BF800000028E5D19AF80000002868
S31508004400E9D1A4F81A90E868618B00EB011080687E
S31508004410E0610020A07228700220E072607A68725B
S315080044206EB32B202872C5F80480607A687204205F
S3150800443077E70321029800F0D9F89DF801000028D3
S3150800444009D0207B20B10298216888470020207374
S315080044500298FFF717FF35E79DF8010018B1029893
S3150800446000F0DEF8F4E79DF80000232803D102984F
S3150800447000F0D6F854E7202FEDD00420ADE09DF8E3
S3150800448000002D2818BF2B2806D128720020686046
S31508004490607A6872032044E722280AD10120FEF7D1
S315080044A0A0FCFF28A8700BD00021FEF795FC05207C
S315080044B037E77B28D0D10120FEF793FCFF28A870A8
S315080044C000F08A800021FEF787FC1020687206201B
S315080044D027E73EB16868697A01FB00800421E1722A
S315080044E06860EFE69DF80010782918BF582904D1AE
S315080044F06A6812B910206872E4E6742918BF54294C
S3150800450003D1696809B90A20F5E7032854D0202F92
S3150800451018BF302F50D1E0692B7A69680278407845
S315080045202D2B08BF4942752A08D134281AD00022F3
S31508004530312814BF4FF6FF70FF200FE0732A08D109
S31508004540312807BF6FF07F027F20274A47F6FF70A2
S3150800455004E00421029800F049F86EE79142A8BFEA
S31508004560884206DB0298022200F079F80028F4D087
S3150800457052E70621EEE79DF8000022281ED1029890
S31508004580002100F084F80028B6D00220C9E69DF87C
S3150800459000007D280DD1A878FFF744FE064602984C
S315080045A0012100F074F808B10220E072002EA3D1B0
S315080045B002E0202FA0D00EB907200EE00949A878FE
S315080045C00968095CFF2908BF082006D00122694648
S315080045D0FEF741FD00288FD002208DF800009DF8D7
S315080045E0001027E7602300200080FFFF027C1AB92D
S315080045F00822C27301745FE07047A0F141011A29CD
S315080046003CBF2030C0B2704738B50C4694F82450E9
S31508004610FFF7F3FF61194874681C84F8240031BD5C
S3150800462010B50446206A017831B162290CBF012110
S315080046300221405C2A2807D1216BE28B01EB02118B
S3150800464020464968884706E00420207420466168A9
S315080046508847002020742046BDE810402CE038B575
S31508004660837B057BAB4204D10521FFF7BFFF002002
S3150800467032BD846844F82310817B491C8173016A22
S315080046808B5C2A2B1CBF89180162012032BD10B52C
S3150800469000F1200213681B78622B04D00421FFF76F
S315080046A0A5FF002010BD9379FF2494710122BDE86F
S315080046B0104003EB0121D2E770B500F10804A06AA7
S315080046C0E18A00EB01100026856805E00220295CD6
S315080046D02A2918BF2D18761CA179F0B288420BD268
S315080046E028786228F2D12068F6B250F82600C0B2BF
S315080046F0FEF7E2FB0120EAE70020A071A07FFF2871
S3150800470003D0FEF7D9FBFF20A07770BD000000009C
S3150800471000000000002020202020000000000000EB
S3150800472000000000000000000000000020003030FB
S315080047300000000000000030003000004041424305
S31508004740444546474849000000000000005A5B5CA3
S315080047505D5E5F1010101010101010101010101061
S31508004760101010101010103000000000005A5B5C8A
S315080047705D5E5F0010B504F03EF840F2A174C440D7
S31508004780E0070BD5064C207804F04CF8207804F0A6
S31508004790D3F82078BDE8104004F0CFB910BD00BFAB
S315080047A0902200201F210FF22C00FFF739BC10B50C
S315080047B002F069FF044602F05BFF024623460448FE
S315080047C00FF220010078BDE81040FEF7CFBA0000CE
S315080047D09022002072657365742D746573742E6358
S315080047E00000000052455345543A25702D25700D9A
S315080047F00A00000010B5DFF834440FF218012078DB
S31508004800FEF7B4FA20780FF21C01BDE81040FEF757
S31508004810ADBA0000286C6974746C6520656E6469AD
S31508004820616E00002C20616C6C20646174612072DA
S315080048306570726573656E7465642061732062794C
S315080048407465206172726179290D0A000178A1F1F7
S3150800485030030A2B0AD3A1F14103062B38BF373997
S3150800486004D3A1F16102062A03D257390907090EB2
S3150800487000E000214078A0F130030A2B02D240184C
S3150800488030380CE0A0F14103062B02D24018373825
S3150800489005E0A0F16102062A03D240185738C0B2D3
S315080048A070470809704710B504F052FC02001AD088
S315080048B0DE4C2078042A08BF0FF22C0108D0062AFD
S315080048C008BF0FF2700103D0072A04D10FF2A8011E
S315080048D0FEF74CFA03E00FF2E801FEF747FA2078F4
S315080048E00FF2101191E710BD68616C537461636B28
S315080048F0496E6974546F6B656E73204641494C4521
S3150800490044207769746820454D4245525F454550B5
S31508004910524F4D5F4D46475F535441434B5F564593
S315080049205253494F4E5F4D49534D415443480D0A22
S315080049300000000068616C537461636B496E6974AA
S31508004940546F6B656E73204641494C454420776920
S31508004950746820454D4245525F454550524F4D5F5C
S315080049604D46475F56455253494F4E5F4D49534D45
S31508004970415443480D0A000068616C537461636BC7
S31508004980496E6974546F6B656E73204641494C4590
S3150800499044207769746820454D4245525F45455025
S315080049A0524F4D5F535441434B5F56455253494FFF
S315080049B04E5F4D49534D415443480D0A00000000CF
S315080049C068616C537461636B496E6974546F6B6587
S315080049D06E73204641494C454420776974682045E2
S315080049E06D6265725374617475733A2025580D0AA1
S315080049F000000000546F6B656E732061726520734A
S31508004A0074696C6C20616374697665207768656E75
S31508004A10207573696E672074686973206170706C9D
S31508004A2069636174696F6E2E0D0A00002DE9F04FF7
S31508004A30C1B080687D4F0568FFF7DCFEA8B204F0B8
S31508004A40C7FD0446A8B204F0FDFB8046A8B204F0F0
S31508004A50A4FE8346002C38781ABF4FF6FF718845A6
S31508004A600FF27C212CD02346AAB20FF20C11FEF7C6
S31508004A707DF900250FF2AC190FF2AC1A0AE01DF801
S31508004A80062038784946FEF771F9761CF6B2A64232
S31508004A90F5DB6D1CEDB25D4510DABBF1010F23465F
S31508004AA003D17F2200F06EF806E02A4600F06AF885
S31508004AB038785146FEF75AF90026E7E7387851461E
S31508004AC0FEF754F941B0BDE8F08F2DE9F047C0B0C4
S31508004AD0806804684768554EFFF78CFEA0B204F05C
S31508004AE077FD8146A0B204F0ADFB8046A0B204F083
S31508004AF054FE0546B9F1000F30781ABF4FF6FF711C
S31508004B0088450FF2DC1131D0A5F1010A15B1FFB2C3
S31508004B10BA450BDA0FF2D411FEF728F930780FF2FE
S31508004B20042153460022FEF721F921E04B46A2B2A2
S31508004B300FF24401FEF71AF9012D08BF7F274B46ED
S31508004B403A4600F01FF838A430782146FEF70EF9E9
S31508004B5000270FF2D00804E01DF8072001F081F8BD
S31508004B607F1CFFB230784F45F6DB2146FEF7FEF88C
S31508004B7040B0BDE8F08700005B2532785D282564E3
S31508004B8029203D004146684604F026BB2DE9F0473A
S31508004B90C2B08068DFF8687E0668FFF72BFEB0B201
S31508004BA004F016FD8146B0B204F04CFB8246B0B262
S31508004BB004F0F3FD0646B9F1000F1CBF4FF6FF706F
S31508004BC0824505D138780FF21811FEF7CFF828E09C
S31508004BD000240FF2741803E0504604F00EFB641C20
S31508004BE0B4421EDA002513E006FB09F0431E3878A6
S31508004BF009FB04524146FEF7B9F83878032269469C
S31508004C00FFF7F8F86846FFF721FE01A948556D1C1D
S31508004C104D45E9DB012E4B4601AA0CBF7F21E1B2C7
S31508004C20DAE759E0202558000D0A000090220020F6
S31508004C302DE9F047C2B0806807684468DFF8C05DB0
S31508004C40FFF7D8FDB8B204F0C3FC8046B8B204F04A
S31508004C50F9FA8146B8B204F0A0FD0746B8F1000F8C
S31508004C6028781CBF4FF6FF71894504D10FF27001F1
S31508004C70FEF77CF830E07E1E17B1E4B2A6420BDAE6
S31508004C800FF26801FEF772F828780FF2980133469A
S31508004C900022FEF76BF81FE000260FF2AC0A10E0C0
S31508004CA02878A8F10103324600F0D8FF28780322B5
S31508004CB06946FFF79FF86846FFF7C8FD01A98855BA
S31508004CC0761C4645ECDB012F08BF7F24434601AA24
S31508004CD02146484604F091FA42B0BDE8F087000044
S31508004CE06E6F7420666F756E640D0A004552524FDA
S31508004CF0523A204465736972656420696E64657802
S31508004D00206973206F7574206F662072616E6765FF
S31508004D1020666F72207468697320746F6B656E0DF8
S31508004D200A0000002020202020202056616C69649B
S31508004D302072616E67652069732025582074687231
S31508004D40752025580D0A0000646174612062797423
S31508004D50655B2564206F662025645D3A00000000C7
S31508004D602DE9F043F9B0DFF8984C0FF6C448FFF781
S31508004D7041FD20784CF2443200F073FF20780FF69C
S31508004D80B841FFF75DF8DFF87C0C018818237F220D
S31508004D9010A804F021FA00270FF2903910A8494606
S31508004DA0C25D00F08CFF7F1C182FF7D3E0A700F038
S31508004DB042FF20784FF2640200F053FF20780FF686
S31508004DC08841FFF73DF8DFF8400C0188062300F01C
S31508004DD022FF002500F070FF6D1C062DFAD300F0A7
S31508004DE02AFF20784FF2644200F03BFF20780FF646
S31508004DF06841FFF725F8DFF8140C0188062300F050
S31508004E000AFF002500F058FF6D1C062DFAD300F0A6
S31508004E1012FF20784EF2455200F023FF20780FF655
S31508004E204841FFF70DF8DFF8E80B00F0F2FE002521
S31508004E3000F042FF6D1C082DFAD300F0FCFE207826
S31508004E404FF26E4200F00DFF20780FF63041FEF764
S31508004E50F7FFDFF8C00B00F0D0FE002508A800F029
S31508004E602CFF6D1C142DF9D300F0E5FE20784FF2C7
S31508004E70424200F0F6FE20780FF61841FEF7E0FFF2
S31508004E80DFF8940B00F0B9FE002508A800F015FF1E
S31508004E906D1C142DF9D300F0CEFE20784FF2624235
S31508004EA000F0DFFE20780FF60441FEF7C9FFDFF8B1
S31508004EB06C0B01880A237F220DA804F08DF90025C2
S31508004EC00DA800F0FAFE6D1C0A2DF9D300F0B3FE0A
S31508004ED020784FF2742200F0C4FE20780FF6E431F1
S31508004EE0FEF7AEFF0125DFF8380B00F098FE00F05C
S31508004EF09CFE9DF8012000F09AFE6D1EF3D100F08D
S31508004F009AFE20784FF2762200F0ABFE20780FF654
S31508004F10C431FEF795FF0125DFF8080B00F07FFE88
S31508004F2000F083FE9DF8012000F081FE6D1EF3D18E
S31508004F3000F081FE20784FF2766200F092FE20782B
S31508004F400FF6A431FEF77CFF0125DFF8DC0A00F036
S31508004F5066FE00F06AFE9DF8012000F068FE6D1EF0
S31508004F60F3D100F068FE20784FF2634200F079FE34
S31508004F7020780FF68831FEF763FF0125DFF8AC0AC3
S31508004F8000F04DFE00F051FE9DF8012000F04FFEA6
S31508004F906D1EF3D100F04FFE20784FF2744200F0F8
S31508004FA060FE20780FF66431FEF74AFF0125DFF828
S31508004FB0900C00F034FE00F038FE9DF8012000F059
S31508004FC036FE6D1EF3D100F036FE20784FF60972D4
S31508004FD000F047FE20780FF64431FEF731FF012531
S31508004FE0DFF8600C00F01BFE00F01FFE9DF80120A4
S31508004FF000F01DFE6D1EF3D100F01DFE20784EF266
S31508005000636200F02EFE20780FF62031FEF718FFB7
S315080050100125DFF8340C00F002FE00F006FE9DF8CC
S31508005020012000F004FE6D1EF3D100F004FE207886
S315080050304EF26F6200F015FE20780FF60431FEF787
S31508005040FFFEDFF8080C00F0E4FD00F035FE6D1CED
S31508005050082DFAD300F0EFFD20784EF26F3200F0FB
S3150800506000FE20780FF6E421FEF7EAFEDFF8E00BF3
S3150800507000F0C9FD002504A800F01FFE6D1C102DC8
S31508005080F9D300F0D8FD20784CF2563200F0E9FD4D
S3150800509020780FF6C421FEF7D3FE0125DFF8B40BFE
S315080050A000F0BDFD00F0C1FD9DF8012000F0BFFD38
S315080050B06D1EF3D100F0BFFD20784EF2453200F0A8
S315080050C0D0FD20780FF6A421FEF7BAFEDFF8880B8C
S315080050D000F09FFD00F0F0FD6D1C082DFAD300F0DE
S315080050E0AAFD20784EF6735200F0BBFD20780FF625
S315080050F09021FEF7A5FEDFF8700B00F084FD002571
S3150800510004A800F0DAFD6D1C102DF9D300F093FD0C
S3150800511020784CF24E2200F0A4FD20780FF66C2180
S31508005120FEF78EFEDFF8440B04E000BF202558008A
S315080051300D0A000000F067FD002504A800F0BDFD7B
S315080051406D1C102DF9D300F076FD20784CF644122C
S3150800515000F087FD20780FF64421FEF771FE012541
S31508005160DFF80C0B00F05BFD00F05FFD9DF80120F9
S3150800517000F05DFD6D1EF3D100F05DFD20784DF267
S31508005180430200F06EFD20780FF62021FEF758FE48
S315080051900125DFF8E00A00F042FD00F046FD9DF823
S315080051A0012000F044FD6D1EF3D100F044FD207887
S315080051B04CF24B2200F055FD20780FF60021FEF741
S315080051C03FFEDFF8B40A00F01EFD04A800F075FDE6
S315080051D06D1C102DF9D300F02EFD20784CF6535295
S315080051E000F03FFD20780FF6EC11FEF729FEDFF8F8
S315080051F08C0A00F00EFD002500F05EFD6D1C082DE2
S31508005200FAD300F018FD20784CF2431200F029FD7D
S3150800521020780FF6B021FEF713FE0025DFF8600AA6
S3150800522001880223EAB200F0E5FC00F0FEFC9DF8D6
S31508005230012000F0FCFC6D1C142DEFDB00F0FBFCDC
S3150800524020784CF2423200F00CFD20780FF68421CB
S31508005250FEF7F6FDDFF82C0A01885C237F2262A898
S3150800526003F0BAFF002562A800F027FD6D1C5C2D2F
S31508005270F9D300F0E0FC20784CF6431200F0F1FC7C
S3150800528020780FF66021FEF7DBFDDFF8FC0900F059
S31508005290B4FC002508A800F010FD6D1C142DF9D3E8
S315080052A000F0C9FC20784BF2542200F0DAFC207892
S315080052B00FF64821FEF7C4FD0125DFF8D00900F0F6
S315080052C0AEFC00F0B2FC9DF8012000F0B0FC6D1EAB
S315080052D0F3D100F0B0FC20784DF2463200F0C1FC64
S315080052E020780FF63021FEF7ABFD0125DFF8A0097F
S315080052F000F095FC00F099FC9DF8012000F097FC61
S315080053006D1EF3D100F097FC20784BF2532200F083
S31508005310A8FC20780FF61421FEF792FD0125DFF888
S31508005320740900F07CFC00F080FC9DF8012000F078
S315080053307EFC6D1EF3D100F07EFC20784DF24332E0
S3150800534000F08FFC20780FF6FC11FEF779FD012599
S31508005350DFF8440900F063FC00F067FC9DF80120C3
S3150800536000F065FC6D1EF3D100F065FC20784CF268
S31508005370433200F076FC20780FF6DC11FEF760FD6C
S315080053800125DFF8180900F04AFC00F04EFC9DF8EC
S31508005390012000F04CFC6D1EF3D100F04CFC207887
S315080053A04DF2423200F05DFC20780FF6C011FEF790
S315080053B047FDDFF8EC0800F026FC04A800F07DFCA9
S315080053C06D1C102DF9D300F036FC20784CF254529F
S315080053D000F047FC20780FF6B011FEF731FDDFF834
S315080053E0C4080188062300F016FC002500F064FCBA
S315080053F06D1C062DFAD300F01EFC20784CF24532BF
S3150800540000F02FFC20780FF69811FEF719FDDFF84B
S315080054109808018894237F223DA803F0DDFE002525
S315080054203DA800F04AFC6D1C942DF9D300F003FC4E
S3150800543020784DF6540200F014FC20780FF674110B
S31508005440FEF7FEFC0125DFF8640800F0E8FB00F033
S31508005450ECFB9DF8012000F0EAFB6D1EF3D100F08D
S31508005460EAFB20784CF64B2200F0FBFB20780FF67F
S315080054705011FEF7E5FCDFF83808018822237F2261
S3150800548034A803F0A9FE34A800F017FC6D1C222DE1
S31508005490F9D300F0D0FB20784BF2346200F0E1FB40
S315080054A020780FF63011FEF7CBFCDFF8080800F07D
S315080054B0B0FB002500F000FC6D1C082DFAD300F0A7
S315080054C0BAFB20784FF6017200F0CBFB20780FF676
S315080054D01011FEF7B5FC012502237F22002100F0FA
S315080054E089FB00F0A2FB9DF8012000F0A0FB6D1ED1
S315080054F0F2D100F0A0FB20784EF2231200F0B1FBA7
S3150800550020780FF6F401FEF79BFC04237F22012185
S3150800551000F06DFB01A800F0D0FB6D1C042DF9D33B
S3150800552000F089FB20784EF2754200F09AFB20784D
S315080055300FF6DC01FEF784FC11237F22022100F01E
S3150800554053FB002508A800F0B8FB6D1C112DF9D3F4
S3150800555000F071FB20784EF2632200F082FB20787F
S315080055600FF6C001FEF76CFC04237F22032100F02E
S315080055703EFB002501A800F0A0FB6D1C042DF9D305
S3150800558000F059FB20784EF2635200F06AFB20784F
S315080055900FF6A401FEF754FC04237F22042100F031
S315080055A026FB002501A800F088FB6D1C042DF9D305
S315080055B000F041FB20784EF2621200F052FB207890
S315080055C00FF68801FEF73CFC012502237F22052100
S315080055D000F010FB00F029FB9DF8012000F027FBE6
S315080055E06D1EF2D100F027FB20784EF6793200F0D6
S315080055F038FB20780FF66C01FEF722FC11237F2278
S31508005600062100F0F1FA08A800F057FB6D1C112DD1
S31508005610F9D300F010FB20784EF6646200F021FB07
S3150800562020780FF64C01FEF70BFC10237F2207218A
S3150800563004A803F0D1FD002504A800F03EFB6D1C6C
S31508005640102DF9D300F0F7FA20784EF2241200F064
S3150800565008FB20780FF62801FEF7F2FB1A237F22B3
S3150800566008212DA803F0B8FD00252DA800F025FB7C
S315080056706D1C1A2DF9D300F0DEFA20784EF22512A9
S3150800568000F0EFFA20780FF60C01FEF7D9FB082395
S315080056907F22092102A803F09FFD002500F00CFBDC
S315080056A06D1C082DFAD300F0C6FA20784EF22612A1
S315080056B000F0D7FA20780FF2F871FEF7C1FB0A233B
S315080056C07F220A210DA803F087FD00250DA800F00A
S315080056D0F4FA6D1C0A2DF9D300F0ADFA20784EF2D3
S315080056E0271200F0BEFA20780FF2D871FEF7A8FB51
S315080056F0012502237F220B2100F07CFA00F095FA9F
S315080057009DF8012000F093FA6D1EF2D100F093FA8D
S3150800571020784EF2281200F0A4FA20780FF2C4710D
S31508005720FEF78EFB14237F220C2100F05DFA08A8F1
S3150800573000F0C3FA6D1C142DF9D300F07CFA20781A
S315080057404DF2452200F08DFA20780FF2B471FEF77B
S3150800575077FB00250423EAB20D2100F048FA00265B
S3150800576001A84946825D00F0AAFA761C042EF7D3F2
S315080057706D1C102DEEDB00F05EFA20784EF210223A
S3150800578000F06FFA20780FF28871FEF759FB00F0E7
S3150800579052FA20784EF2112200F063FA20780FF2BE
S315080057A08C71FEF74DFB00F046FA20784EF2122275
S315080057B000F057FA20780FF29471FEF741FB00F0DB
S315080057C03AFA20784EF2132200F04BFA20780FF2BC
S315080057D0A071FEF735FB00F02EFA20784EF214225F
S315080057E000F03FFA20780FF2AC71FEF729FB00F0C3
S315080057F022FA20784EF2152200F033FA20780FF2BA
S31508005800BC71FEF71DFB00F016FA20784EF2202236
S3150800581000F027FA20780FF2C471FEF711FB042373
S315080058207F22142100F0E3F9002501A800F045FACB
S315080058306D1C042DF9D300F0FEF920784EF22122D2
S3150800584000F00FFA20780FF2B871FEF7F9FA00F0B7
S31508005850F2F920784EF2742200F003FA20780FF25B
S31508005860CC71FEF7EDFA00F0E6F920784FF60D72E6
S3150800587000F0F7F920780FF2C871FEF7E1FA002573
S315080058800B23EAB217210DA803F0A6FC00260DA8E3
S315080058904946825D00F013FA761C0B2EF7D36D1C71
S315080058A0062DEDDB00F0C7F920784EF2564200F0DF
S315080058B0D8F920780FF29C71FEF7C2FA00F0BBF90E
S315080058C020784FF4654200F0CCF920780FF29471F5
S315080058D0FEF7B6FA00F0AFF920784EF2035200F060
S315080058E0C0F920780FF29471FEF7AAFA0025012371
S315080058F0EAB21A210DF1020003F06EFC9DF80220AF
S3150800590000F095F96D1C062DF1DB00F094F920786E
S315080059104EF2015200F0A5F920780FF27C71FEF7DD
S315080059208FFA10237F221B2104A803F055FC0025BB
S3150800593004A800F0C2F96D1C102DF9D300F07BF90C
S3150800594020784EF2025200F08CF920780FF2587146
S31508005950FEF776FA28237F221C2123A803F03CFCB5
S31508005960002523A800F0A9F96D1C282DF9D300F00D
S3150800597062F920784EF2582200F073F920780FF277
S315080059803C71FEF75DFA12237F221D2100F02CF9E7
S31508005990002508A800F091F96D1C122DF9D300F026
S315080059A04AF920784EF2592200F05BF920780FF276
S315080059B01C71FEF745FA00253423EAB21E2116A803
S315080059C003F00AFC002616A84946825D00F077F91E
S315080059D0761C342EF7D36D1C052DEDDB00F02BF964
S315080059E020784EF25A2200F03CF920780FF2F46142
S315080059F0FEF726FA00F01FF979B0BDE8F08300003B
S31508005A0090220020403D0108423D0108443D01081E
S31508005A10463D0108483D01084A3D01084C3D01083C
S31508005A204E3D0108503D0108523D0108543D01080C
S31508005A305B2532585D2000004D46475F4348495074
S31508005A405F444154410000004D46475F504152545F
S31508005A505F444154410000004D46475F5445535446
S31508005A6045525F44415441004D46475F454D4245C6
S31508005A70525F4555495F3634000000004D46475F82
S31508005A80414E414C4F475F5452494D5F4E4F524D20
S31508005A90414C00004D46475F414E414C4F475F54CD
S31508005AA052494D5F424F4F53540000004D46475FE1
S31508005AB0414E414C4F475F5452494D5F424F5448FF
S31508005AC0000000004D46475F5245475F5452494D16
S31508005AD0000000004D46475F3156385F5245475F24
S31508005AE0564F4C54414745004D46475F565245462A
S31508005AF05F564F4C54414745000000004D46475FEE
S31508005B0054454D505F43414C000000004D46475FE9
S31508005B10544553545F54454D500000004D46475F69
S31508005B204649425F56455253494F4E004D46475FD8
S31508005B304649425F434845434B53554D00000000D4
S31508005B404D46475F4649425F4F4253004D46475FC1
S31508005B504349425F4F4253004D46475F43555354AE
S31508005B604F4D5F56455253494F4E00004D46475FCD
S31508005B70435553544F4D5F4555495F363400000031
S31508005B804D46475F535452494E4700004D46475FBE
S31508005B90424F4152445F4E414D4500004D46475FD6
S31508005BA04D414E55465F4944000000004D46475F4B
S31508005BB05048595F434F4E46494700004D46475F98
S31508005BC0424F4F544C4F41445F4145535F4B4559F3
S31508005BD0000000004D46475F455A53505F53544FE7
S31508005BE0524147450000000008A803F0F5BA01A88D
S31508005BF003F0F2BA684603F0EFBA018814237F224D
S31508005C0008A803F0E9BA018810237F2204A803F044
S31508005C10E3BA018808237F2202A803F0DDBA0188C7
S31508005C2002237F22684603F0D7BA9DF80020207821
S31508005C304946FDF79BB820783946FDF797B8000026
S31508005C40563D0108583D01085A3D01085C3D0108CA
S31508005C505E3D0108603D0108623D01085146FDF7B9
S31508005C6085B84146FDF782B8643D0108663D0108DE
S31508005C70683D01086A3D01086C3D01086E3D010852
S31508005C80703D0108723D0108743D0108763D010822
S31508005C90783D01087A3D01087C3D01087E3D0108F2
S31508005CA0803D0108823D0108843D0108863D0108C2
S31508005CB0883D01088A3D010802A84946425D2078C8
S31508005CC0FDF754B84D46475F4153485F434F4E462C
S31508005CD0494700004D46475F43424B455F444154A0
S31508005CE0410000004D46475F494E5354414C4C41D4
S31508005CF054494F4E5F434F44450000004D46475FA9
S31508005D004F534332344D5F424941535F5452494DD4
S31508005D10000000004D46475F53594E54485F4652AF
S31508005D2045515F4F46465345540000004D46475F70
S31508005D304F534332344D5F534554544C455F4445A5
S31508005D404C4159004D46475F5345435552495459AE
S31508005D505F434F4E464947004D46475F4343415FC1
S31508005D605448524553484F4C440000004D46475F3F
S31508005D705345435552455F424F4F544C4F41444556
S31508005D80525F4B45590000004D46475F455448450C
S31508005D90524E45545F414444524553530000000057
S31508005DA04D46475F43424B455F3238334B315F447C
S31508005DB0415441004D46475F584F5F54554E450084
S31508005DC04D46475F5448524541445F4A4F494E5FE6
S31508005DD04B4559004D46475F4555495F36340000E7
S31508005DE0535441434B5F4E56444154415F564552C6
S31508005DF053494F4E00000000535441434B5F4150F6
S31508005E00535F4652414D455F434F554E54455200E8
S31508005E10535441434B5F414C5445524E4154455FA0
S31508005E204B455900535441434B5F424F4F545F43D0
S31508005E304F554E5445520000535441434B5F4E4F05
S31508005E404E43455F434F554E5445520053544143C4
S31508005E504B5F414E414C595349535F5245424F4F50
S31508005E6054000000535441434B5F4B4559530000BF
S31508005E70535441434B5F4E4F44455F4441544100A0
S31508005E80535441434B5F54525553545F43454E5404
S31508005E9045520000535441434B5F4E4554574F52A9
S31508005EA04B5F4D414E4147454D454E54000000005D
S31508005EB0535441434B5F504152454E545F494E46F9
S31508005EC04F000000535441434B5F504152454E54D6
S31508005ED05F4144444954494F4E414C5F494E464FF1
S31508005EE000000000535441434B5F4D554C54495FE5
S31508005EF05048595F4E574B5F494E464F00000000C9
S31508005F00535441434B5F43414C5F44415441000065
S31508005F104D554C54495F4E4554574F524B5F535459
S31508005F2041434B5F4B455953000000004D554C54B7
S31508005F30495F4E4554574F524B5F535441434B5F4D
S31508005F404E4F44455F444154410000004D554C5462
S31508005F50495F4E4554574F524B5F535441434B5F2D
S31508005F60414C5445524E4154455F4B45590000003B
S31508005F704D554C54495F4E4554574F524B5F5354F9
S31508005F8041434B5F54525553545F43454E54455213
S31508005F90000000004D554C54495F4E4554574F522A
S31508005FA04B5F535441434B5F4E4554574F524B5FDB
S31508005FB04D414E4147454D454E5400004D554C54B4
S31508005FC0495F4E4554574F524B5F535441434B5FBD
S31508005FD0504152454E545F494E464F004D554C541C
S31508005FE0495F4E4554574F524B5F535441434B5F9D
S31508005FF04E4F4E43455F434F554E544552000000A1
S315080060004D554C54495F4E4554574F524B5F535468
S3150800601041434B5F504152454E545F4144444954B5
S31508006020494F4E414C5F494E464F00005354414339
S315080060304B5F42494E44494E475F5441424C4500E6
S31508006040535441434B5F4348494C445F5441424C87
S3150800605045000000535441434B5F4B45595F54413B
S31508006060424C4500535441434B5F434552544946BD
S3150800607049434154455F5441424C450053544143BA
S315080060804B5F4144444954494F4E414C5F4348494C
S315080060904C445F4441544100535441434B5F5A4C6E
S315080060A04C5F444154410000535441434B5F5A4CA2
S315080060B04C5F534543555249545900005354414384
S315080060C04B5F47505F4441544100000053544143DD
S315080060D04B5F47505F50524F58595F5441424C45A9
S315080060E000000000535441434B5F47505F53494EED
S315080060F04B5F5441424C450010B50446002003F05E
S315080061004AFF002003F05BFF01F06EFB012003F05D
S3150800611019FE03F008FE10F0060018BF012004F06F
S31508006120C2F8204604F001FD2046BDE8104000F004
S3150800613069BE80B5022100F0D8F8009804F046FE42
S3150800614001BD8068DFF840130068087008780228E7
S31508006150A8BF0FF26C3305DA002814BF0FF26C33B0
S315080061600FF27033DFF824030FF24432D0F87013BD
S31508006170FFE70FF23030FDF7FABA80B503F0DFFE1D
S31508006180DFF80C130FF2943251F82030DFF8FC02D6
S31508006190D0F8B0130FF26830FDF7E9FABDE802400F
S315080061A072E038B50446A0680568DFF8E002D0F862
S315080061B0C0130FF27430FDF7DAFAEDB215B1012DFE
S315080061C007D00CE00FF26830FDF7D1FA03F048FE6D
S315080061D005E00FF27030FDF7CAFA03F07EFE0FF203
S315080061E07430FDF7C4FA2046BDE83240C5E770B5FD
S315080061F004460D46284604F0F4FF06462B460FF2E1
S31508006200D0320FF2B43004F11101FDF7B0FAAE4204
S315080062100FF2743405D032460FF2BC312046FDF732
S31508006220A6FA284604F0E3FF034613F1010F0FF21E
S315080062302C300FF2303108BF0FF230320DD013B9BF
S315080062400FF2303209E0DFF84C02B3FBF0F200FB44
S31508006250123028B90FF238312046FDF788FA11E0D6
S315080062604FF47A71DFF830020078B3FBF1F201FBE4
S31508006270123100290EBF0FF220311A460FF22831CB
S31508006280FCF774FDBDE870406BA0FDF770BA10B559
S31508006290044604F0EEFF01462046BDE81040A6E796
S315080062A038B5044603F04BFE0500DFF8E001D0F8E8
S315080062B090130FF22C3018BF0125FDF758FA03F09A
S315080062C00CFEA0680068C0B204F0CBFF02460FF2CD
S315080062D028210FF24030FDF74AFA0DB103F0C0FD50
S315080062E02046BDE83240D2E70121684605F073BB77
S315080062F038B5044603F023FE050018BF012503F050
S31508006300ECFD502001F0F7FD03F0FAFE03465CA20F
S3150800631004F111010FF20430FDF729FA1DB1BDE8A9
S31508006320314003F09DBD31BD2DE9F84F064689463B
S31508006330154603F004FE040018BF012403F009FE05
S31508006340002E4FF07F0A6FF07F0B4FF000088DF894
S31508006350000008D10126002003F0FEFD642001F0AC
S31508006360CAFD374611E0F6D57642F4E7802001F0FB
S31508006370C2FD03F003FE83455246B8BF83468246F4
S315080063809245C8BF924680447F1E012FEEDA9DF8DB
S31508006390000003F0E1FD0CB103F062FDB9F1000F56
S315080063A018BF89F800A015B198FBF6F02870584672
S315080063B0BDE8F28F10B500F01AF804F11101BDE836
S315080063C0104003460FF274220FF25C20FDF7CFB996
S315080063D010B500F00CF803F0C3FA04F11101BDE89A
S315080063E01040034627A20FF25C20FDF7C0B9044609
S315080063F000220021012097E710B5044686B0A06860
S31508006400006804AA0DF11101FFF78EFF039004F14D
S3150800641011010FF278209DF911300FF260220290D7
S315080064209DF9100001900FF25C2000900FF23020C9
S31508006430FDF79DF906B010BD7D0D0A0080B503F085
S31508006440B0FE034611480FF25C22D0F810140FF282
S315080064504420BDE80050FDF78AB910B504460B483C
S31508006460D0F820140FF24C20FDF781F9A0680068D7
S3150800647040B203F06EFE2046BDE81040DEE700009D
S315080064804343410045440000FF230020842C0108B3
S31508006490C822002040420F00902200208168096827
S315080064A0C9B2A4E67B264E202674737D0D0A000029
S315080064B05045522054657374204D6F646500000082
S315080064C0656E61626C65642D6E657700656E6162E6
S315080064D06C65640064697361626C65640000000041
S315080064E061736C65657000006177616B650000001B
S315080064F0656E657267790000737461747573000060
S315080065007B264E20526164696F20706F7765722012
S31508006510737461746520267473000000706F776564
S3150800652072207374617465007B264E20000000009B
S31508006530536C656570696E6720726164696F2E2E8B
S315080065402E00000057616B696E6720726164696F7F
S315080065502E2E2E00646F6E657D0D0A00202674703F
S31508006560000000006672657100000000696C6C65C9
S3150800657067616C0050657252616D526164696F4360
S315080065806F6E6669670000002026747500000000BB
S31508006590667265714D487A00207B667265714B4854
S315080065A07A3A256C7D000000207B66726571487A10
S315080065B03A256C7D000000007B264E2052616469F6
S315080065C06F206368616E6E656C2026746800000033
S315080065D06368616E6E656C005074694368616E002D
S315080065E07B264E2053657474696E67206368616EF6
S315080065F06E656C20616E642063616C696272617499
S31508006600696E6720286173206E6565646564292E46
S315080066102E2E00002674687D0D0A00007B264E206B
S315080066202674647D0D0A00007B264E20267464209D
S315080066305B64426D5D7D0D0A0000000052535349AC
S31508006640000000007B264E20267464205B3830321A
S315080066502E31352E3420756E6974735D7D0D0A00F2
S315080066607B264E20267464202674642026746420B3
S315080066705B64426D5D7D0D0A000000006D696E5217
S315080066805353490061766752535349006D617852F6
S31508006690535349007B264E202674642064426D7D40
S315080066A00D0A0000434341205468726573686F6C95
S315080066B0640000007B264E7D0D0A000080B5002090
S315080066C003F0C6FDBDE8014004F0A4BA38B5DFF80A
S315080066D03841DFF83811607DC870607B18B105F065
S315080066E056FA002808D505F052FA40054CBF032093
S315080066F00120002105F07CFAE06901224FF480614F
S3150800670005F0BFFB050003D000F05FF901202075F6
S31508006710284632BDDFF8F010C861887DDFF8EC1036
S315080067200871D3E770B58EB00C460CA805F0A0FB2F
S31508006730054605F0C7FB064605F098FBBDF836107A
S31508006740DFF8CC200B9103460FF244010FF2480004
S315080067500A9103950196BDF8341009910FF280014C
S315080067600891BDF8321007910FF27C010691BDF829
S31508006770301005910FF2780104910FF27C01029115
S315080067800FF27C0100912146FCF7F1FF0EB070BDB7
S3150800679073757370000000007B264E2026747520E2
S315080067A026743268202674642F31303025250D0A68
S315080067B020202674642F3130302525202674642F36
S315080067C03130302525202674642F31303025252098
S315080067D02674642F31303025257D0D0A000000000F
S315080067E063726974000000006C696D69000000003E
S315080067F074616C6B0000000075736564000000002E
S31508006800616363656C000000D822002028260020FA
S31508006810146800086D6F6465000000002DE9F04BF0
S3150800682006468946904605F043FBDFF8C04507094A
S3150800683018BF7F1EA07066708C2E18BF03F082FBEF
S315080068403000DFF8E4550FF22C1B0AD0402E1AD080
S31508006850892E2BD08C2E21D08D2E1DD08F2E09D08F
S3150800686027E02069401C206100F0AAF860B34FF4C5
S31508006870A46126E0A069401CA06100F0A1F818B345
S3150800688040F225511DE0E069401CE06100F098F8EF
S31508006890D0B140F2315114E005F009FB6069401CA3
S315080068A06061287D80B14FF4A7610AE040F23C514F
S315080068B007E032460FF2D4010120FDF769FB40F2EA
S315080068C049515846FDF7ACFB402E84F80080C4F8C1
S315080068D0289025D1E078022822DB401EE070208926
S315080068E0401C208105F053F900F08020B0F1004FDC
S315080068F001D000F06AF805F04AF9000408D505F059
S3150800690046F940054CBF03200120002105F070F927
S31508006910E86900224FF4806105F0B3FA060026D034
S3150800692000F053F8300018BF8F2E1ED020790228A9
S315080069301BDB401E20716089401C6081DFF808055A
S31508006940007802280ADBE969DFF80005814205D1EB
S315080069500178092902DBC178491CC170688B01F0EE
S31508006960CAFABDE8F04BFFF7B1BE01202875BDE8AD
S31508006970F08B00007068792D636F6D6D6F6E2D74E6
S31508006980782D746573742E6300000000656D62656A
S3150800699072526164696F5472616E736D6974436F84
S315080069A06D706C65746549737243616C6C62616382
S315080069B06B207374617475733A20307825780000FB
S315080069C0206A38182062287D70470021002005F0CB
S315080069D00FB980B504F050FC0346DFF878040FF2CF
S315080069E0BC42D0F8D0140FF2A840BDE80050FCF71E
S315080069F0BEBE30B5044683B0A068056868B204F028
S31508006A003FFC01906BB20FF280400FF2AC4200904F
S31508006A10DFF84004D0F8E0140FF28C40FCF7A7FE2C
S31508006A209AA0FCF7A4FE2046BDE83E40D1E700B593
S31508006A30DFF824140FF2A4420B8B0FF2B84183B08F
S31508006A400091019300F111010FF27C4031E1816858
S31508006A50DFF8042409681183E9E72DE9F14F84B0CA
S31508006A608068008801900124401E8041C00F029072
S31508006A7003F065FA00B101208DF801004FF0000B14
S31508006A80DFF86853DFF8A08368697C4FADF8020029
S31508006A90D9460198012813D000F006F938780299EA
S31508006AA021B10FF27041FCF761F903E0019A78A170
S31508006AB0FCF75CF9B8F8182000F0F1F800F0EAF8ED
S31508006AC0DFF88863DFF894A3802251463046FCF746
S31508006AD06FFEDFF8740300780228A4BF307809280F
S31508006AE019DB9AF8011001F0200141F0C10171701B
S31508006AF0A1461821B1703018029919B100F805BCE1
S31508006B00002004E0019900F8051C0198001231786C
S31508006B10711801F8040CDA4611E001F03BFA8346D5
S31508006B2098F8140048B9FFF7C9FD01F033FAA0EB4D
S31508006B300B0080B2B0F5FA6FF2D995F801B0029859
S31508006B4010B9019882454FDA00208DF80000694691
S31508006B503878FDF78DF89DF80010652944D0387807
S31508006B60642906D100F08CF8049800F11101002080
S31508006B7007E0442907D100F083F8049800F11101D1
S31508006B800120FFF7CFFD0AF101001FFA80FADFF8AE
S31508006B90D002007820B104F086FF08B105F094F918
S31508006BA0B8F8180001F0A7F9DFF89C02007880B160
S31508006BB0B9F1000F18BFF4703078042809DB3018D3
S31508006BC000F8034C201231787118641C01F8020C85
S31508006BD0A4B2002088F81400012068703046FFF738
S31508006BE099FD0028834698D038780FF24C315246E2
S31508006BF0FCF7BCF898F80D0040B1A88ABDF8021059
S31508006C00421A38780FF24C31FCF7B0F838780FF2A0
S31508006C1068315A46FCF7AAF8DFF848020FF27431D1
S31508006C2002883878FCF7A2F838780FF28831FCF732
S31508006C309DF829783878002914BF0FF294310FF29D
S31508006C409831FCF793F803F075FA28B16A6A387830
S31508006C500FF28C31FCF78AF8AA6A38780FF2AC3151
S31508006C60FCF784F8642001F046F99DF8010008B1A4
S31508006C7003F0F6F805B0BDE8F08F0000902200207A
S31508006C8052460FF2B421FCF771B800000D0A000055
S31508006C902575000038780FF2E411FCF767B83878E4
S31508006CA00FF27C21FCF762B838780FF26021FCF706
S31508006CB05DB8FCF75CFD07BD38B500F03DF800F09F
S31508006CC034F818BF0124FCF751F803F006F903F06D
S31508006CD0CEF902E0287800F00BF800F004F8F9D1B4
S31508006CE003F0CDF91DE09DF800006528704720786F
S31508006CF06946FCF7BDBF38B500F01EF800F015F878
S31508006D0018BF0124FCF732F803F0E7F803F0C1F9DD
S31508006D1002E02878FFF7ECFFFFF7E5FFF9D103F06B
S31508006D20D9F90CB103F09CF831BDDFF83C510FF2EC
S31508006D304C1104002878704700208DF8000003F0F5
S31508006D40FEB82DE9F041DFF820410FF2F021207856
S31508006D500FF2F8260FF2EC28DFF80071FCF706F8B8
S31508006D60002515E07A5D20784146FBF7FFFF68109D
S31508006D7005EB90708010B5EB800007D13878854216
S31508006D8004DA20782A463146FBF7F0FF6D1CEDB28F
S31508006D903878401C8542E5DBBDE8F0818068DFF87D
S31508006DA0BC100068087070472DE9F84304460025B2
S31508006DB0A068DFF8B46007680FF29C29DFF89C80AA
S31508006DC07F1CFFB2802F06DAA06800EB85004068BA
S31508006DD008F8070005E030786B1C7A1E4946FBF771
S31508006DE0C5FF6D1C042DEBDBBDE8F18328260020CA
S31508006DF01A481421017001214A1E4254491C80294F
S31508006E00FAD370471248194A00210161416181612C
S31508006E10C16101621160164A116001814181002039
S31508006E201449086070470000D822002080680A4A82
S31508006E300078010018BF0121517302280E490CBFC2
S31508006E400120002008707047FF230020242E002010
S31508006E5028260020842C0108D8220020A42D0020F2
S31508006E60002400204C2D002090220020502D0020C8
S31508006E70582D0020902D0020472D00202765276ECD
S31508006E80642E2E2E00000000737461747573000062
S31508006E907B264E2026746464426D7D00616374759A
S31508006EA0616C506F776572007B264E202674646489
S31508006EB0426D202674647D0072657175657374650C
S31508006EC064506F77657200007B264E2026746475C1
S31508006ED073202674327875737D0000007472616EB3
S31508006EE0736D69742064656C61792028646563290B
S31508006EF0000000007472616E736D69742064656CBD
S31508006F006179202868657829000000005478696E40
S31508006F1067200000696E66696E6974650000000086
S31508006F20207061636B657473202575207573206105
S31508006F30706172742E2000000D0A25752070616339
S31508006F406B657473207472616E736D6974746564AD
S31508006F502E0D0A002575206661696C6564206475C6
S31508006F606520746F206368616E6E656C2062757348
S31508006F70792E0D0A000000004C617374207061635D
S31508006F806B6574207374617475733A203078253292
S31508006F90780D0A004C617374207061636B65742008
S31508006FA06261636B6F66663A2030782532780D0A1F
S31508006FB0000000004672616D652070656E64696E3A
S31508006FC06720696E206C6173742041434B3A200038
S31508006FD05965732E0D0A00004E6F2E0D0A0000002B
S31508006FE05346442074696D652028766961205346A6
S31508006FF0442073656E742063616C6C6261636B29EF
S315080070003A2030782532780D0A000000534644208D
S3150800701074696D65202876696120545820636F6D00
S31508007020706C6574652063616C6C6261636B293A88
S315080070302030782532780D0A00000000206C656E35
S315080070403A20000030782578200000000D0A3078B4
S3150800705025783A20000000007061796C6F61642021
S315080070606279746520696E6465783A2025642069BA
S3150800707073206F7574206F662072616E67652E20A7
S31508007080617267756D656E742025642069676E6F19
S315080070907265642E0D0A0000130018BF01231A46F4
S315080070A0FFF7BCBBFEB500F029FB0021DFF86C42F8
S315080070B004EB8122926800F049F8F9DBDFF85862A0
S315080070C00FF25C2500F020FB002700F044F87F1C37
S315080070D0032FFADB00F012FB002104EB8122D268B1
S315080070E000F034F8F9DB00F00FFB00270FF2482513
S315080070F000F031F87F1C032FFADB00F0FFFA0021BD
S315080071008A02A3185B68A25842EA034200F01EF8F6
S31508007110F6DB00F0F9FA00240FF234275DF8243084
S31508007120307804F141023946FBF720FE641C032C33
S31508007130F4DB3078DFF8DC11096889064CBF0FF2FA
S315080071402C210FF23821FBF711FEF7BD4DF821204F
S31508007150491C032970475DF82730307807F141024A
S315080071602946FBF703BE806801784368A02905DB3A
S3150800717001F007000122090902FA00F30A29DFF8DB
S3150800718098010078A4BF0A39C9B203290BDADFF8D7
S315080071908C2102EB8122DBB2136101F141020FF26D
S315080071A0EC11FBF7E3BD1FE0806801784368A0296E
S315080071B005DB01F007000122090902FA00F30A2992
S315080071C0DFF854010078A4BF0A39C9B203290BDADB
S315080071D0DFF8482102EB8122DBB2536101F141025B
S315080071E00FF2E011FBF7C2BD43220FF2B811FBF70D
S315080071F0BDBD70B58068017803790124A0294FF0D8
S31508007200FF3206DB01F00702090913B104FA02F39B
S31508007210DBB20A29DFF800010078A4BF0A39C9B22F
S31508007220032915DADFF8F450160005EB812506D494
S31508007230EE6804FA02F2D24332401343DBB2EB6043
S3150800724001F14102BDE870400FF29011FBF78EBDC7
S31508007250BDE87040C8E7F8B58068017843682E48ED
S315080072600078A0294FF0FF360CDB01F00706090964
S31508007270102B05D3BDE8F4400FF27811FBF776BD65
S31508007280B20093400A29A4BF0A39C9B203291EDAF3
S315080072908A02224CA51837000CD4A758D5F804C082
S315080072A047EA0C474FF00F0CB6000CFA06F627EA29
S315080072B0060633439EB2A6501A0C6A6001B0BDE8B2
S315080072C0F04001F141020FF28801FBF74FBDBDE81E
S315080072D0F84089E70146104889680E4A0968007827
S315080072E0C9B2002911680AD041F02001116011685D
S315080072F0890654BF0FF224110FF2101104E021F091
S31508007300200111600FF22C11FBF730BD0FF234107B
S3150800731004F04BBE00BC00409022002000B00040A4
S315080073204750494F5F502563494E20202020203D75
S3150800733020307825580D0A004750494F5F5025637D
S315080073404F5554202020203D20307825580D0A001E
S315080073504750494F5F502563434647482F4C203DC9
S315080073602030782534580D0A0000000053574A206B
S3150800737044697361626C65640D0A000053574A20BC
S31508007380456E61626C65640D0A0000004750494FFE
S315080073905F502563534554203D20307825580D0A03
S315080073A000000000546865206F6E6C79206C656774
S315080073B0616C20706F7274732061726520412D258F
S315080073C0630D0A004750494F5F502563434C5220CE
S315080073D03D20307825580D0A000000004750494FD7
S315080073E05F5025634F5554203D20307825580D0AA7
S315080073F000000000436F6E6669672073686F756CDE
S315080074006420626520302D440D0A000044697361CA
S31508007410626C696E672053574A0D0A0043616E6EA7
S315080074206F742064697361626C652053574A0D0A4C
S3150800743000000000456E61626C696E672053574A0A
S315080074400D0A00004029002051180108000000001C
S315080074500000000038B5012000F058FB002000F0BD
S31508007460E1FC714C206840F008002060FCF7DEF96A
S3150800747000F0C8FC6D496E480A78C2604B786D4AC0
S31508007480D3606D4B8D78DD608D880560CD8845604D
S31508007490088910604889506088891860C8895860CA
S315080074A000F085F8206820F01000206004F018FE2F
S315080074B004F010FF00F0A2FBFCF7B6F9BDE8314076
S315080074C0FCF7E6B910B5FCF730FA01F00EF85B499F
S315080074D000F001F810BD56480A78C2604B78554A44
S315080074E0D360554B8C78DC608C880460CC8844600B
S315080074F0088910604889506088891860C88958606A
S31508007500704710B500F0E4FA00F07CFC4749FFF735
S31508007510E2FF00F04CF84448016821F010010160D0
S3150800752004F0DEFD00F0A5FB00F0E8FFBDE8104022
S31508007530FCF717BAF0B50F249D0004FA05F516688E
S31508007540284215D0002505EB830720FA07F7FF0721
S315080075500BD5AF0004FA07FC26EA0C0631F813C06F
