S0100000656D3236302D7573622E73333703
S31508004000D0EA0020853E0208A9370208AD37020823
S31508004010A70A0A0100410008041203AC005A24004A
S315080040200000000000000000000000000000000082
S315080040300000000000000000000000000000000072
S315080040400000000000000000FFFFFFFFFFFFFFFF6A
S31508004050FFFFFFFF007007080000000000000000D7
S31508004060FFFFFFFFFFFFFFFFFF000000000000004B
S315080040700000000000000000000000000000000032
S31508004080F0FF002000000000EBFF0020EBFF0020FF
S31508004090D0EA0020E84902086841020870E10020D9
S311080040A0001000200000080800000120A5
S31508004100D0EA0020853E0208A9370208AD37020822
S31508004110B5370208B1370208B9370208303802083D
S3150800412030380208303802083038020830380208B9
S31508004130BD370208303802083038020817AC0108C3
S3150800414071370208303802088FBE01083038020875
S31508004150CF00020830380208303802083038020822
S31508004160E1CC010895B400084DDC0008C52C02080E
S31508004170303802084F36020897360208FDAE0008A6
S3150800418063D701083038020830380208993802081F
S3150800419010B58C0801EB5474E408A1EBC40103685C
S315080041A0012409E010B54C0801EB9474A408A1EBAE
S315080041B08401036889000F2400F062F8016010BDCD
S315080041C070B500F0E7F8044600F0E4F8054600F09C
S315080041D0E1F800F00106182C05F00F05A8BF3620F7
S315080041E03CDA00F0A9F84FF4F051084218BF38201D
S315080041F034D1E00803D0022809D004D30CE03246B3
S315080042002146554806E032462146544802E03246E1
S3150800421021465348FFF7BCFFA00805281DD8DFE84C
S3150800422000F003070B0F13172A4621464D4812E0E4
S315080042302A4621464C480EE02A4621464B480AE0C3
S315080042402A4621464A4806E02A462146494802E0C7
S315080042502A4621464848FFF7A5FF0020BDE87040DA
S3150800426000F0B1B84B0810B501EB93739B08A1EBAE
S315080042708301890003880F2400F002F8018010BD2D
S315080042808C40A34302FA01F1194370478B0810B515
S3150800429001EB5373DB08A1EBC30103780124FFF795
S315080042A0EFFF017010BD2DE9F84300F073F80446DE
S315080042B000F070F8054600F06DF8064600F06AF85A
S315080042C0074600F067F805F00F0806F0010500F04C
S315080042D00109182C07F00F06A8BF362024DA00F0CB
S315080042E02BF84FF4F051084218BF38201CD160084B
S315080042F004EB907087082148424600F019F82048D8
S31508004300324600F015F8A00804EB5070C6081D48A0
S315080043102A4621463044FFF7B9FF1B484A4621463C
S315080043203044FFF7B3FF0020BDE8F24300F04BB876
S31508004330214600EB470095E701200021224600F0C0
S3150800434061BA80B500F062F81049114A08400021A8
S31508004350C2E9000101BD00000CB000400CB20040EB
S315080043600CB4004000B0004004B0004000B2004069
S3150800437004B2004000B4004004B40040E0EA002063
S31508004380F4EA0020D0EA0020D8EA0020FFE1FF0086
S3150800439008EB00202A480168491C016011F8010D44
S315080043A0704738B50446264D08462968224600F067
S315080043B03AFA28682044286031BD214A1168084421
S315080043C01060084670471F491F4B0A681B68D31AB6
S315080043D0DC2BB8BF10700868401C0860704710B521
S315080043E00446C0B2FFF7EFFF200A49E010B5FFF711
S315080043F0D1FF00F03CF904EB002080B210BD10B5E7
S31508004400044680B2FFF7EBFF200CB5E010B5FFF7C6
S31508004410EDFF00F062F804EB004010BD38B5094C1A
S31508004420094A2368126805469A1AAA18DD2A03DA81
S315080044300246184600F0F7F920682844206031BD86
S3150800444048F900204CF9002060FB002010B504460E
S3150800445000F088F9FFF7CAFF2081FFF79BFFA072DB
S31508004460FFF798FFE072FFF795FF2073FFF7BEFF8F
S31508004470E081FFF78FFF2074FFF7C8FF606110BD6A
S31508004480BDE810409FE710B500F027F82080FFF739
S31508004490ADFF6080FFF77EFF2071FFF77BFF60713D
S315080044A0FFF7A4FFE080FFF7A1FF2081FFF772FF67
S315080044B0A07210BD10B500F009F8A078E0E710B5B5
S315080044C000F00BF800F00BF8A07010BD0446208829
S315080044D085E70820BDE8104063E7044686E72080A4
S315080044E058E710B500F0C3F8A070FFF77FFF2080EB
S315080044F0211D00F038F9FFF74DFF00B10120E070EB
S31508004500FFF748FF2073FFF745FF607310BD10B52E
S3150800451000F0DEF82069BDE8104070E710B500F03D
S3150800452008F9FFF773FF206110BD10B5FFF7D5FF37
S31508004530208010BD207946E710B50446FFF7D1FF65
S3150800454004F1100000F01BF804F11C0100F00BF94F
S31508004550FFF74CFF24F8240FFFF748FF6080FFF7AA
S3150800456019FF2071FFF716FF6071FFF713FFA0719F
S31508004570FFF710FFE07110BDBDE810402FE710B53A
S315080045800446FFF743FF2060FFF740FF6060FFF730
S315080045902DFF208110BD10B500F011F8A088FFF797
S315080045A01EFFE088FFF71BFF2089FFF718FF6089C9
S315080045B0FFF715FFA089FFF712FFA07B60E7044607
S315080045C020681CE710B50446FFF720FF2060FFF7B8
S315080045D00DFFA080FFF70AFFE080FFF707FF2081A5
S315080045E0FFF704FF6081FFF701FFA081FFF7D2FE06
S315080045F0A07310BD10B5FFF7E2FFFFF79BFF611D23
S315080046001020FFF70BFF04F11501BDE8104010203C
S3150800461004E710B5FFF761FFA11C2080072059E7C2
S3150800462010B504462078FFF7CEFE611C0F20FFF771
S31508004630F5FE04F110010320FFF7F0FE04F1130163
S31508004640BDE810400720E9E610B500F010F8207024
S31508004650611C0F20FFF7A5FE04F110010320FFF7E8
S31508004660A0FE04F11301BDE81040072099E60446B0
S3150800467090E638B500F02CF804F1100100F026F8A1
S3150800468004F118052868FFF7BAFEA888FFF7A7FE01
S31508004690E888FFF7A4FE2889FFF7A1FE6889FFF7D7
S315080046A09EFE04F124010720FFF7B8FEE87CFFF719
S315080046B08AFE287DFFF787FE687DFFF784FEA87DC2
S315080046C0FFF781FEE87DBDE832407CE60820A5E6D6
S315080046D0044621461020A1E638B500F02AF804F170
S315080046E0100100F040F804F11805FFF78FFE286066
S315080046F0FFF77CFEA880FFF779FEE880FFF776FED5
S315080047002881FFF773FE688104F124010720FFF76B
S3150800471048FEFFF73FFEE874FFF73CFE2875FFF7F3
S3150800472039FE6875FFF736FEA875FFF733FEE8759C
S3150800473031BD04462146102033E610B5FFF797FF32
S315080047400100207206D1FFF761FE2060FFF75EFECA
S31508004750206003E0022801D100F004F8FFF71AFEF2
S31508004760607210BD214608201BE60CB4F8B5054654
S315080047700C4606AE08E056F8040B290003D000786C
S31508004780FFF71BFE3860641C2078010037D056F806
S31508004790047B622827D07028EDD0732818BF7528A7
S315080047A004D076280CD0772814D0ECE7280003D05C
S315080047B0FFF7F0FD3870E6E73878FFF704FEE2E722
S315080047C0280003D0FFF712FE3880DCE73888FFF7A9
S315080047D006FED8E7280002D0FFF718FED2E73868A9
S315080047E0FFF70DFECFE756F8040B00782900394687
S315080047F002D0FFF7D6FDC6E7FFF710FEC3E7F1BC08
S315080048005DF80CFBD2B2203A22BF00FA02F1002072
S3150800481070475242D041D2F1200291404140D040E7
S31508004820904041407047814233D210441144401EA3
S31508004830491E10E011F8013900F80139121F11F864
S31508004840013900F8013911F8013900F8013911F870
S31508004850013900F8013992B2042AEBDA93B2002B37
S315080048601EBF11F8013900F80139521EF6D17047FA
S3150800487011F8013B00F8013B121F11F8013B00F843
S31508004880013B11F8013B00F8013B11F8013B00F828
S31508004890013B92B2042AEBDA93B2002B1EBF11F841
S315080048A0013B00F8013B521EF6D17047130003D0B6
S315080048B00A46194600F020B8704710B500E0521EA7
S315080048C093B223B100F012F8F9D0181B10BD0020DE
S315080048D010BD10B500E0521E93B22BB100F006F8D9
S315080048E0F9D0181B40B210BD002010BD10F8013BCE
S315080048F011F8014BA342704762F30F2262F31F427D
S31508004900401810F0030308D0C91A1FD3DB0748BFA5
S3150800491000F8012D28BF20F8022D130030B41446E4
S315080049201546103928BF20E93C00FAD8490728BFA0
S3150800493020E90C0048BF40F8042D890028BF20F85C
S31508004940022D48BF00F8012D30BC7047C91818BFA2
S3150800495000F8012DCB0728BF00F8012D704700008D
S3150800496010B5044600F06CFD204601F067FC2046B1
S3150800497001F08EFE204602F03DFB2046BDE81040C1
S3150800498002F0DEBC01F0CCBE10B5044600F0A5FD71
S31508004990204601F0F7FE204601F06DFC204602F0A5
S315080049A04EFB204602F031FD2046BDE8104002F0DD
S315080049B0C9BC10B500E010B5044600F0FEFD20465F
S315080049C001F0C4FF204601F05CFC204602F053FBD0
S315080049D0204602F084FD2046BDE8104002F0BFBF25
S315080049E010B5044600F016FE204601F0CFFF20461B
S315080049F001F05EFC204602F06DFB0CE010B50446A3
S31508004A0000F02DFE204601F0FEFF204601F050FC86
S31508004A10204602F07CFB204602F079FD204602F093
S31508004A20B6FF2046BDE8104002F023BD80B503F06E
S31508004A3011FA02F065FABDE8014001F082BC10B532
S31508004A40044602F04DFE2046BDE8104002F025BDA2
S31508004A500198704703F06DBA704700002DE9F047DA
S31508004A60012410288EB00FF64415DFF8CC78B9A3C8
S31508004A70B9A6BAA10FF2E8280FF2E8290FF2E82A38
S31508004A8000F0EC8018281CBF1D2820286ED021288D
S31508004A9000F0D880222869D0282800F09D8029288F
S31508004AA000F09F802A2861D02B2800F004812D2849
S31508004AB000F022812E2859D030281DD0332800F046
S31508004AC02081342800F02081362800F04F813728CD
S31508004AD000F0A381382800F07481392800F0D581C8
S31508004AE0422800F0E6814A2800F08F805A2800F014
S31508004AF0F2815B283AD05D2800F03B83632800F0FA
S31508004B003482642800F03E826A2803D06F2800F0B9
S31508004B107D82712800F04982732818BF772800F033
S31508004B2036837A2822D0822800F0EA81832800F08A
S31508004B30FB82842818BF852818D086281CBF87289A
S31508004B40882813D0892800F0F6828A281CBF8B286B
S31508004B508D280BD0902800F0C183952806D096287A
S31508004B6000F01B829A281CBFA128A42800F0EF8217
S31508004B70A62800F0C882A82800F06482A92800F0B8
S31508004B807D82AF2800F09882B128EFD0B22800F0D5
S31508004B900C83B92800F02283BA2800F02483BC28A5
S31508004BA000F02483BD2800F02C83CE2800F09182E3
S31508004BB0D22800F02D83D92800F02F83DD2800F0B5
S31508004BC05B83E828D2D0ED2800F0AA82EE28CDD063
S31508004BD0F42800F05683A0E301A9684601F0F7FC23
S31508004BE053E308208DF809000DF10A0103A801F026
S31508004BF02CFD8DF8080003AB0DF10A00019002AAFE
S31508004C000DF109000090BCA1ABE108208DF80F005A
S31508004C100DF10E0200F09CFB9DF80E0003AB05AAF1
S31508004C2004A901F023FD8DF80D0004AB03A802903A
S31508004C300DF10D020DF10F00019005A800900FF27D
S31508004C405C718EE101AB0DF10102ACA100F07BFBBA
S31508004C5001999DF8010001F018FDB7E20DF1150064
S31508004C6004900DF11E030DF11600039006AA0DF12E
S31508004C70170002900DF11A00019007A80090012074
S31508004C800FF22071FFF771FD9DF81500BDF81A3077
S31508004C90BDF81C20BDF81E1002909DF81600019064
S31508004CA09DF8170000909DF8180003F0BDF98DF8DF
S31508004CB0140005AADDE2FFF76DFB0546FFF76AFB60
S31508004CC08DF80000FFF766FB8DF80100FFF78EFBF5
S31508004CD0ADF80200FFF75EFB8DF804000DF1050143
S31508004CE00820FFF75EFBFFF755FB8DF80D006946B8
S31508004CF0284602F031FE0DE3FFF74CFB02F02DFECD
S31508004D0008E303F0C2FD61E20DF1120304AAE8A16B
S31508004D1000F019FB06A8FFF7B6FB03A8019003AB42
S31508004D2005A800900DF10F02314600F017FB0DF1B2
S31508004D300D00029006AA05989DF80F30BDF81210CE
S31508004D4001909DF80C0000909DF8100001F064FB9E
S31508004D5030E000BF76000000757570006200000044
S31508004D607570000075000000757500000DF11202DF
S31508004D7019460120FFF7F9FC06A8FFF784FB03A8EC
S31508004D8002900DF10F0305A8019004AA03A800F0EC
S31508004D90E3FA0DF10D00029006A905989DF80F306B
S31508004DA09DF8102001909DF80C000090BDF81200A7
S31508004DB001F03BFB8DF80E000DF10D030DF10E020F
S31508004DC05EE007A8FFF75FFB04A8039005AB06A8FB
S31508004DD002900DF1150204A801900DF11300009040
S31508004DE001200FF2D051FFF7C0FC0DF1110002901F
S31508004DF006989DF813309DF814209DF8151001901B
S31508004E009DF81000009007A801F01BFB8DF8120012
S31508004E100DF111030DF1120232E00DF119000090A7
S31508004E200DF11A0307AAA3A100F098FA09A8FFF73B
S31508004E302AFB05A802900DF1170308A8019006AAF7
S31508004E4005A800F089FA0DF11500049009AB089839
S31508004E509DF81920BDF81A1003909DF814000290C9
S31508004E609DF8170001909DF818000090BDF81C00E9
S31508004E7001F002FB8DF816000DF115030DF116026F
S31508004E8051460020FFF771FC4AE20DF10602194669
S31508004E900120FFF76AFC03A8FFF7F5FA00F068FAA5
S31508004EA0029B9DF80420BDF8060003A901F015FB36
S31508004EB048E10DF1050000900DF1060302AAC5A10F
S31508004EC000F04CFA9DF805209DF80610BDF808007C
S31508004ED003F010FEE8E000F059FABFA100F03EFA30
S31508004EE0039A9DF80810BDF80A0003F0D7FE8DF85E
S31508004EF009000DF10902BCE17562760075770000BC
S31508004F0008208DF811008DF810000DF10E000290A2
S31508004F1005A801900DF11100009008AB0FF29C4511
S31508004F200DF10F0200F019FA03A802900DF1120014
S31508004F30019006A800909DF80E30BDF814209DF843
S31508004F400F0008A901F0F8FA8DF80D0006AB03A8C2
S31508004F5002900DF10D020DF112000190294604A8E8
S31508004F6000900020FFF701FCDAE100F0EFF99DF868
S31508004F70010001A901F005FB00F0F3F901A8FFF70C
S31508004F8099FACDE100F0E2F901A8FFF798FA9DF841
S31508004F90010001A901F008FB18E100F0E9F90299FE
S31508004FA09DF8040001F05DFACCE06A4600F0D0F9FD
S31508004FB038786A289DF8000001A902D103F0AEFEF0
S31508004FC001E004F074F98DF801000DF1010200F01A
S31508004FD0CBF9BDF80400FFF702FA9DF80600FFF7C3
S31508004FE0F2F90DF107011020FFF718FA0698FFF7F6
S31508004FF006FA0798FFF703FA9DF82000FFF7E3F98A
S315080050000DF121010820FFF709FA89E109A8FFF740
S3150800501085FA00F0BBF9314600F0A0F904A8009023
S31508005020039B9DF808209DF80A1009A801F0B8FF0F
S315080050308DF809000DF1090200F096F904A8FFF7AA
S3150800504066FA6DE108208DF80E008DF80D0007ABA5
S315080050500DF10D00029004AA05A80190B2A10DF168
S315080050600E00009000F07AF9BDF8100005AA07A90D
S3150800507004F015FB8DF80C0003AAFAE008208DF859
S31508005080050002AB0DF1050000900DF10602A7A17F
S3150800509000F064F904A91020FFF783F9BDF80600AB
S315080050A004AA02A904F03BFB8DF8040001AAE0E07B
S315080050B0757600007676750000F062F900F042F920
S315080050C003A91020FFF76DF903A901A801F082FFD3
S315080050D07CE000F055F902208DF8000000F032F966
S315080050E003A901A801F07EFF00F03BF903A90820F7
S315080050F0FFF794F905A91020FFF790F90998FFF72B
S315080051007EF90A98E7E000F033F902999DF8040061
S3150800511002F01AF98DF805000DF1050200F024F9E0
S3150800512002F02DF9FFF74FF9FFF734F900B1012026
S3150800513002F0D1F8EEE000F01BF902999DF80400A0
S3150800514002F0D2F88DF805000DF1050291E03A78E3
S315080051500FF27820002500E06D1CEDB2415D91420A
S31508005160FAD1FFF717F90FF27C2151F82510884775
S31508005170D0E0FFF70FF90546FFF738F9014638780A
S3150800518030280CBF6D4A6E4A28469047C8E06946E3
S315080051901020FFF706F938787728684602D104F018
S315080051A02DFDB7E004F0B2FAB4E001A8FFF7C4F9A0
S315080051B00DF101030DF102025DA100F0C4F89DF99D
S315080051C001209DF8021001A802F07EF98DF8000072
S315080051D06A464EE07675750076757000FFF7DAF860
S315080051E005F0A9F996E005F0ABF993E004A968463D
S315080051F005F078F96846FFF7CEF904A8FFF7FAF93B
S315080052008EE06846FFF7DEF9684605F073F987E031
S31508005210FFF7C0F801F00FF87CE006A805900DF13D
S315080052201E0309A8049008AA06A803900DF11A00FF
S31508005230029007A801900DF11B00009001200FF2C3
S315080052408411FFF792FA09A802909DF81800BDF894
S315080052501C309DF81B20BDF81E1001909DF81A0001
S315080052600090BDF8200000F0BBFF8DF819000DF185
S31508005270190200F079F853E0FFF7B8F800F0CFFF0D
S3150800528048E001A9684601F039F88DF801006B4637
S315080052900DF1010251460020FFF767FA01A908201F
S315080052A0FFF7BCF8BDF80C00FFF799F89DF80E005B
S315080052B0FFF789F89DF80F00FFF785F89DF81000AD
S315080052C0FFF781F8BDF81200FFF789F89DF814007A
S315080052D0FFF779F80698FFF792F821E008208DF88D
S315080052E0120006AB04A803900DF1110205A802905E
S315080052F010A104A801900DF11200009000F02EF8FC
S315080053009DF8110000B10120059B9DF8102006A903
S3150800531001F0FAFBFFF757F802E005F04BF90446EF
S3150800532020460EB0BDE8F08776626200766200001D
S315080053307573000075627000B1FF0020777B000866
S315080053405914010801AA0120FFF70FBA0DF101024D
S3150800535049460120FFF709BA009029460120FFF7C0
S3150800536004BA8DF800006A4649460020FFF7FDB9E1
S3150800537001A8009002AB01AA41460120FFF7F5B942
S3150800538008208DF801000DF10103704702A801906D
S3150800539002AB03A800900DF10A0270477576627594
S315080053A000000000757676767575750075757570EA
S315080053B000000000757575757000000075627675D9
S315080053C0000000007676757675756200181D207ADD
S315080053D02A84858687888B8A8D959A2E5BB1A4A1A7
S315080053E022E8EE00AB1B0108B39401081D3301083F
S315080053F0AB9E01089D7E0008A9730108297401085F
S315080054003F740108537401086F7401080775010891
S31508005410F17401083575010825D200083BFF00081C
S31508005420797E01087D7E0108F594000811A501081A
S315080054301FA50108B5EC0008A1750108AF7501089C
S3150800544038B504462078002846D1607001202072BD
S315080054502070A078032832D0072834D0112808D025
S31508005460152833D0302818D0312819D032281AD028
S3150800547030E00720DFF8885B207204F109002988EC
S3150800548005F042FCA878E072E87820732879607302
S315080054906879A073A879E07331BD05F05BFC17E065
S315080054A005F024FD14E00420207205F064FC04F1E4
S315080054B00901BDE838400246012005F029BCDFF89D
S315080054C0440B007804E005F0C3FE01E006F0F4FAA8
S315080054D0607231BD0020207031BD38B50446207891
S315080054E0002869D101202070A078042814D0072844
S315080054F01FD00E2825D0112859D0152841D0172895
S3150800550044D018284CD019284DD0302833D031280B
S315080055101FD0322823D04DE0207A01282FD1607A77
S3150800552000B10120DFF8E01A0870002006F020FC20
S315080055303BE0607A10B105F059FE39E005F068FEE7
S3150800554036E0607A00B1012005F0E6FC00282FD08D
S3150800555015E0607A00B1012005F0B0FC0EE0207A73
S3150800556004280CD104F10901012005F0DFFB05F040
S3150800557006FCE8B103E0607A05F0EEFBC0B1362020
S3150800558016E094F9090006F06FFA0EE0657A04F160
S315080055900A0005F0B2FB0146284606F0D1FC04E0F5
S315080055A006F0C9FC01E006F0B9FC002000E037204F
S315080055B0607031BD0020207031BD10B50446DFF89B
S315080055C04C0A0079217856280CBF0120002001BB1F
S315080055D0A1706178072910D130B106F007FD0128BE
S315080055E014BF632062200EE0E07862280CBF012019
S315080055F0002006F0FEFCA07009E0042909D1DFF8B6
S31508005600101A10B10878E07001E0E07808700120FF
S31508005610207010BD017809BB8170012101704178A5
S3150800562001290ED00C2909D017290DD02D2902D011
S3150800563034290CD010E0DFF8DC190AE0DFF8D819B5
S3150800564007E0DFF8D81904E0DFF8D41901E0DFF83D
S31508005650D41909788180704700210170704738B5E0
S315080056600446207800285AD1012020700020A07016
S315080056706078012815D00C280FD017283DD02D2882
S3150800568002D0342844D048E0A18803293DDAC9B2BB
S31508005690DFF8800906F07EFE38E0A088DFF8781982
S315080056A039E0DFF88409008828BBA08818B3DFF83A
S315080056B07C59287807F092F806F05BFB80B1A18840
S315080056C0DFF85809C9B206F065FEA07006F054FA6C
S315080056D0DFF85C09DFF85C190068401D086001E026
S315080056E03820A070012007F00EF828700020DFF897
S315080056F04819088031BD382008E0A08807F0E5FB86
S3150800570018B9A088DFF8181905E03620A07031BD51
S31508005710A088DFF81019087031BD0020207031BD4F
S3150800572080B501208DF800006846FFF788F99DF8D6
S31508005730000002BD2DE9F04FA7B006F0E3FA06F027
S31508005740FFFADFF8EC880446D8F8000081780027CD
S315080057500225FF294FF003092DD1C17806790425C2
S3150800576011F03F004FF0050918BF492723D1080655
S315080057700AD507F04FFE28B107F050FE123C07463F
S31508005780E4B218E0482716E007F04BFE002818BFD9
S31508005790CB2E0AD0CA2E18BFCC2E06D0CD2E18BFB7
S315080057A0002E02D0AA2E18BF482707F033FE00287D
S315080057B01CBFCC2E4A27D8F80000465D90F801A0F9
S315080057C0DFF848580AF003018DF808102E710178A1
S315080057D069704844DFF864180860DFF858180860EC
S315080057E04FEA5A1000F00300687107F0C1FE38004E
S315080057F018BF582604D15FEA0A6002D55826322017
S3150800580077E2A87820B9287910B15826302070E2B6
S3150800581007F030FF10B9582642206AE2FFF780FFEA
S31508005820002800F068822879A978DFF814B8020001
S3150800583093A70FF2502A4FF6FF7971D0012800F08E
S31508005840EE81022800F0A980032800F0FB800528D5
S3150800585034D0062800F04181092818BF0A2800F02C
S3150800586044810B2818BF0C2800F046810E2800F04A
S315080058705A81122800F09F81132800F0D581172835
S3150800588000F0E581262800F0D581272800F0DA8186
S31508005890472800F0CC81492800F035814E2800F0D1
S315080058A06981522851D0532866D0552800F08D803A
S315080058B0562800F0A18065282AD0812800F00281A8
S315080058C08F2800F0EA81912800F00282942800F0DF
S315080058D0F1819D2800F09E81AA2800F0A980AB28B6
S315080058E000F0D280AC2800F0E480AD2800F0E48017
S315080058F0AE2800F0E480CA2800F0AC81CB2800F07E
S31508005900B281CC2800F0BD81CD2800F0BD81F128F8
S3150800591000F06D81F52817D0F62800F00281E3E142
S31508005920FEF738FD04460520FEF74DFD0220FEF77A
S315080059304AFD4FF4B440FEF752FDA878002808BF88
S31508005940052C01D10120A870D5E100F002FAFEF776
S3150800595021FD8DF801006846FFF742F89DF8000022
S3150800596028B937208DF802000020ADF8040001ABF5
S315080059700DF10202B2A157E0012918BF382023D140
S3150800598000F0E7F901AB0DF10102ADA10120FEF728
S31508005990ECFE6846FFF732F825E03827012912D1D0
S315080059A0611FC9B2052006F0B7F90446FF2C08BFE7
S315080059B0352708D007F070FE002814BF00273627C1
S315080059C0204606F00BFF384693E1042200F0C2F9A0
S315080059D00DF103030DF1010239460120FEF7C5FE5C
S315080059E06846FEF7E8FF9DF8000010B937208DF8E5
S315080059F002009DF802007CE1042200F0ABF9FEF7F4
S31508005A00C9FC8DF801006846FEF7D3FF9DF8000033
S31508005A1028B937208DF8020000208DF803000DF113
S31508005A2003030DF1020239460020FEF79EFE62E1ED
S31508005A3000F08AF9FEF7AEFC8DF80E0003A8FEF713
S31508005A408FFF0BE000F080F904AB0DF10E02CEA13A
S31508005A500120FEF78AFE03A8FEF794FF9DF80C00C6
S31508005A6028B937208DF80D0000208DF8140000F0B5
S31508005A7064F90DF10D0251460020FEF776FE3AE173
S31508005A80757500007575620000F05EF900F055F94D
S31508005A900DF10E0251460120FEF767FE03A8FEF738
S31508005AA073FF9DF80C0000280CBF37209DF80D00E9
S31508005AB01FE1FEF785FB1EE1FEF7F5FB1BE1FEF78E
S31508005AC040FC18E1062CFCDBDFF86805DFF86415F6
S31508005AD000680019401F08600DE1012000F03EF93A
S31508005AE0002840F02381072605E109280CBF01207C
S31508005AF0002002F0F7F9FEE00C280CBF0120002078
S31508005B0000F0E4F9F7E00121684608F066F928B1E3
S31508005B100020FEF758FCBDF8000095E03620FEF799
S31508005B2052FC002090E0FEF735FC8246FEF75EFC4C
S31508005B308146FEF72FFC0746FEF72CFC0446B9F50E
S31508005B40004FB4BF042F702011DABAF1020F0FDA32
S31508005B500BEBCA0A3A46DAF80000494608F010FA8A
S31508005B60AAF8049004B900278AF806700020C0E055
S31508005B707020BEE0FEF70EFC814600240020B9F135
S31508005B80020FADF802008DF800000BDA5BF8390059
S31508005B906A460DF1020108F003FA0BEBC900807999
S31508005BA000B10124BDF80200FEF719FC9DF80000BB
S31508005BB0FEF709FC7CE0FEF7EDFB040018BF0124A4
S31508005BC0002008F01FFA07463A46FF2A08BF1820A1
S31508005BD029D0002C14BF48460220BBA108F060FA61
S31508005BE00020FEF7F0FB384606F0F8FD83E04FF09C
S31508005BF00009DFF8504434F81900FEF7F0FB09F104
S31508005C000109B9F1280FF6DB2879652873D106F062
S31508005C1085F970E0FEF7EAFB06F07DF86BE0FEF723
S31508005C20B9FB08F097FB64E007F033FD63E007F083
S31508005C3027FD60E0DFF810140820FEF7EFFB5AE0B6
S31508005C407576000008F008FEFEF7C9FB53E009F078
S31508005C5042F94EE000F06DF8FEF7D8FB014603A8BE
S31508005C600AF070FA45E0FEF795FB044607A900F02E
S31508005C7061F803AA07A920460AF066FAFEF7A3FB0D
S31508005C8021E00AF063FA34E068460AF061FAFEF7A2
S31508005C909AFB0098FEF7B3FB2DE00AF087FA012479
S31508005CA0484505D0FEF776FBDFF8A01300240870F8
S31508005CB020461EE000F03DF807A900F03BF807A9CA
S31508005CC003A80AF0B9FA03A91020FEF7A7FB12E009
S31508005CD00AF06CFAFEF783FB0420FEF774FB122029
S31508005CE0FEF771FB032004E0FEF7B8FE18B9582644
S31508005CF03120FEF768FBD8F8001068780870D8F8E5
S31508005D0000008178002902BF29780029867004D00E
S31508005D10FF218170D8F800000671072E0CBF0122FA
S31508005D2000229DF80800012100F030F827B0BDE8F0
S31508005D30F08F03A91020FEF734BB05A8019005AB28
S31508005D400DF11500009070478C22002103A8FEF77C
S31508005D50ADBD062200216846FEF7A8BD38B5B24D8E
S31508005D600446288810B105F02CFF08B9002032BD7A
S31508005D70288808B905F0FCFFB548007801222146B5
S31508005D8000F004F8012032BD757700002DE9F84FC0
S31508005D90A74F0446386888468178934602254FF00F
S31508005DA00309FF29A349096804BF04254FF005091B
S31508005DB00E1A07F02FFB0028B6B21EBF3868405DE2
S31508005DC0CC281CBF1236B6B25FEA0B0004D038687E
S31508005DD04078C0F3411A02E007F0C8FB82468D49B5
S31508005DE009788A4505D34FF484610FF270200AF0CA
S31508005DF02FFA4FEA4A1040F08000DD2E5FFA80FA4B
S31508005E0005DBDC2005F0DFFF4AF0020A02E0F0B20B
S31508005E1005F0D9FF7D48C17819B100214AF0020A78
S31508005E20C1708C490A781AB100224AF0010A0A7030
S31508005E307D4E318809B14AF0040ABBF1000F06D03D
S31508005E405FEA080114BF4AF0080A4AF0100A3968DE
S31508005E5081F801A03968897811B9012101700FE02C
S31508005E6007F0D8FA00281EBF3868415DCC2904D04F
S31508005E708021C17007F0D0FA02E039680020C870A6
S31508005E8007F0CFFA48B13868415DCB2901BF10F851
S31508005E9009000028022007F0C3FA012C30886C4A52
S31508005EA018BF022C05D108B9147004E00020107040
S31508005EB004E0147010B9002005F05AFF4046BDE80A
S31508005EC0F24F05F073BF0000620000002DE9F041B3
S31508005ED09AB00446FEF75EFA0546062D13D1002C45
S31508005EE039D12820FEF76FFA5B480188022322463B
S31508005EF001A80AF0E1FABDF80400FEF770FA641C7E
S31508005F00142CF1DB79E0082D1DD124BB4020FEF7C7
S31508005F105AFA042322460C2168460AF0CDFA9DF85F
S31508005F200000FEF750FA9DF80100FEF74CFA9DF8BE
S31508005F300200FEF748FA9DF80300FEF744FA641CCF
S31508005F40102CE6DB59E00B2D01D124B952E02000D4
S31508005F5003D0092D01D170204DE000260FF2101054
S31508005F6000EBC6073878854230D197F801802000C3
S31508005F7004BF4046FEF727FA7868018843460022A0
S31508005F8002A80AF099FA200027D0FEF703FA97F834
S31508005F900180404501D002202DE0002000E0401C91
S31508005FA0C1B2414502A905D2C0B2095CFF29F6D0A3
S31508005FB0462020E04046FEF7F4F978680088424615
S31508005FC002A90AF008FB0020FEF7FDF9761CF6B2D6
S31508005FD00A2EC3D374B1B1200DE0092D05D11522BF
S31508005FE000210DF14E00FEF761FC787802A9FEF754
S31508005FF015FA02E00020FEF7E6F91AB0BDE8F081CE
S31508006000D446020855ED0020B4FF0020ADFF00205D
S3150800601070ED00205BED0020A9FF002054ED002064
S31508006020B3FF00205DED00200EFF00208AED002062
S3150800603060FB00204CF9002096FA002048F9002061
S31508006040C8EC00207CFB002068FB002089ED0020BE
S31508006050D0FF00200CFF002006470208636F6D6D15
S31508006060616E642D68616E646C6572732E630000E0
S3150800607001100000FA46020802100000FC46020859
S3150800608003020000FE460208051000000247020847
S31508006090070800000447020800020000F646020846
S315080060A00402000000470208095C000008470208CD
S315080060B00A1400000A4702080C080000F8460208FD
S315080060C010B5044601202070A178DFF88802272938
S315080060D00BD1227A042AA8BF36207CDA427304F14F
S315080060E009012030FEF79FFB6EE028290BD1227AA2
S315080060F0082AA8BF36206EDA027304F1090118309F
S31508006100FEF791FB60E0C27B1D2910D1217A042994
S3150800611018BF36205FD142F00101C173617A01725E
S31508006120A17A4172E17A8172217BC1724CE01E2903
S315080061300DD1217A012918BF36204CD1617A002960
S3150800614014BF42F0020102F0FD01C1733CE01F29B1
S315080061500DD1217A012918BF36203CD1617A002950
S3150800616014BF42F0040102F0FB01C1732CE02029A0
S315080061700BD1217A082918BF36202CD1082204F120
S315080061800901B030FEF74FFB1EE021290BD1217A19
S31508006190092918BF36201ED1092204F10901A430A5
S315080061A0FEF741FB10E0222910D1217A052918BFF4
S315080061B0362010D1617A0170A17A4170E17A817036
S315080061C0217BC170617B0171002004E0162904D18E
S315080061D0607A0AF091FA607010BD0020207010BD38
S315080061E0FEB5099C082C01DB7020FEBD0A9E089DA1
S315080061F00296019400950AF073FA05000DD1554FE1
S315080062008022FF2107F12400FEF750FBBC732246CB
S31508006210314607F11000FEF706FB2846FEBD10B50D
S315080062200AF060FA040004D18022FF214A48FEF7EA
S315080062303DFB204610BD00210AF046BA10B50446BB
S315080062402078B8B901202072A078262805D1002028
S3150800625060704248007860720AE016280AD104F194
S315080062600A000AF00BFA10B100213720217260707B
S315080062700120207010BD0178002908BFFFF720BF54
S315080062807047017899B941780939C9B210290ED2EF
S31508006290334A52F82110334A1278562A07BF09782A
S315080062A0C170C2780A70002181700121017070479F
S315080062B010B50446207800BB60782B4A312808BF01
S315080062C0104602D0322818D12848B0B12549097895
S315080062D0522903D10078A08000200BE0A1889042C3
S315080062E005D1234A12788A4238BF362002D3C9B26A
S315080062F006F050F8A0700120207010BD70B5044655
S3150800630086B00D46112008F025F83826802815D1C4
S31508006310204609F03DFE064612231C226946012046
S3150800632004F0EBFEBDF8060028819DF80200A8726D
S315080063309DF80300E872BDF80400E881304606B00F
S3150800634070BD80B50AF0BAFA0AF090F9BDE80140C6
S315080063500AF040BBC8F90020ECF90020C0FF002075
S3150800636090EC0020B1FF00205EED00205FED0020DC
S31508006370B74602082DE9F84F8046DFF8180B06786D
S315080063800D460A99080091469A4603D00B9806F0DE
S31508006390A8FA02E0002006F083FA83460C9FBBF1B8
S315080063A0FF0F03D100201824387032E0342E06D0AF
S315080063B0362E0ED0382E13D0962E18D01AE05B46FD
S315080063C04A462946404601F0BFFF044602F0B9FB9B
S315080063D010E05B4642464946284602F015F808E0B2
S315080063E05B46EAB24146484602F062F801E00AF026
S315080063F0ACFE0446962E1CBF99F80A003870E0B227
S3150800640020B9DFF8940A006800F80BA0584606F091
S31508006410E5F9E0B2BDE8F28F10B584B0089C0294A5
S31508006420079C0194069C009407E010B584B00446C6
S31508006430104600F00FF80A462146FFF79BFF04B006
S3150800644010BD10B5044684B00846114600F002F89F
S315080064502246F2E7089A0292079A0192069A009251
S315080064607047E0B5002201910090029200230021B6
S315080064700020FFF77FFF0EBD2DE9F04683B0894661
S315080064800C990546080092461F4603D00D9806F05B
S3150800649028FA02E0002006F003FA04460E9EFF2CB6
S315080064A003D100201825307014E00A980090019452
S315080064B03B4652464946284601F0C8FF0500B87AC9
S315080064C0307004D1DFF8D01909680B9808552046B2
S315080064D006F084F92846BDE8FE8638B5DFF8BC49DB
S315080064E02080C888440606D5DFF8B4492478202CCD
S315080064F003D1000401D4702032BDDFF8A84910008A
S31508006500216004D01146184606F0EBF902E0002097
S3150800651006F0C6F90546FF2D08BF18240AD02068DC
S315080065204088294602F0B8F9044602F00AFB2846D4
S3150800653006F054F9204632BD2DE9F041069F0D4676
S3150800654004461646984639460AF0B1FF20460AF030
S31508006550BCFF0799088038460BF0BFF80899087001
S31508006560294620460AF03AFF074638B931462046FA
S315080065700AF072FF414628460BF0CDF83846BDE8CA
S31508006580F081DFF824391B78984201D370207047D0
S31508006590DFF81829126832F820300B8002EB8000E9
S315080065A08078887000207047DFF8FC381B7898429E
S315080065B001D370207047DFF8F42812680B8822F898
S315080065C0203002EB8000897881700020704730B552
S315080065D089B00C4609F0DCFC054612231C2204A9E6
S315080065E0012004F08AFD0020207306F0BFFF9DF805
S315080065F0101088420BD1BDF8160020819DF81200B4
S31508006600A0729DF81300E072BDF8140019E010237B
S3150800661007226946012004F070FD082202A92046D7
S31508006620FEF701F9BDF80000208104F114019DF878
S315080066300200A0729DF80300E07204F110000BF04E
S31508006640C1F8E08109B0284630BD38B504460D4684
S315080066500BF062FA014608222046FEF7E4F80BF032
S3150800666057FA2880DFF84808007832BDF8B504469E
S315080066700D4616461F460BF026FD28803A4631463B
S315080066802046BDE8F8400BF02EBDFF2208F082BC7C
S3150800669010B504462078002841D1012020722070C8
S315080066A0A078401E0BD0401E07D0801F07D0401F81
S315080066B005D0401F022802D903E0022020720020DC
S315080066C06070A07801280CD0022814D008280CD0B5
S315080066D00D280DD0122817D0132817D0142818D033
S315080066E01BE0DFF8D007007815E008F0DEF912E0C5
S315080066F00CF0CFFA0FE0DFF8C007018804F10900B3
S31508006700BDE8104004F000BBFF2004E008F03CFCA4
S3150800671001E00CF02FFC607210BD0020207010BD47
S3150800672010B5044682B0207858BB0120207000209E
S315080067306070A07818B1022819D00BD31FE06168E1
S315080067406A46C9B207F00EF860700220207204F19A
S31508006750090007E00320207268460CF0D6FD607237
S3150800676004F10A00BDF8001004F0CEFA13BD0120AA
S315080067702072606880B20DF028F8607213BD0020A0
S31508006780207013BDF0B5044685B02078002840F087
S31508006790D78001202070A078010023D0012845D099
S315080067A002284BD0052818BF062850D0082800F024
S315080067B0C080092859D00A287CD00B2800F07F8091
S315080067C00C2800F088800F2800F08A80232818BF3C
S315080067D0242800F09280252800F0A080292800F0BF
S315080067E0AA80ABE0207A102862D100F0ABF8ADF8A9
S315080067F00400082294F90B008DF8060004F1100134
S31508006800207B8DF80700607B8DF80800A07B8DF84B
S315080068100900E07BADF80A0003A8FEF704F8102388
S31508006820072201A9002004F068FC80E0207A0128EC
S315080068303ED1607ADFF87C16087078E0207A022864
S3150800684036D100F07FF8DFF8701608806FE0207AFE
S3150800685002282DD100F076F8A17805290CBFDFF8BB
S315080068605C16DFF85C16088061E0DFF858060568F4
S31508006870207A46080DB9DEB959E0DFF84C060078EB
S31508006880B04215DB002707E004EB4700093004F0A7
S3150800689034FA25F817007F1CB742F5DB4FF400479A
S315080068A025F8167028460DF002F8002844D02F80E7
S315080068B0362041E000F046F80DF0E3F937E0DFF85E
S315080068C00C060068407B20B900F03CF807F0C8FFCA
S315080068D02DE0382030E0607ADFF8F415087026E0FD
S315080068E0657A04F10A0004F008FAADF800006A4671
S315080068F02946012006F036FF1EE0217A042912D126
S3150800690023280CBF0325012504F10901012004F001
S315080069100DFA014628460DF0F1FF0DE0607A0328CE
S3150800692018BF042801D0022006E009F0FAF9002071
S3150800693002E0372000E07020607001E0002020703F
S3150800694005B0F0BD04F1090004F0D7B9DFF8441525
S315080069500978027856290CBF01210021AAB982704C
S31508006960DFF83C354278032A05D109B1597806E0A3
S31508006970C178597007E0022A07D111B11978C17098
S3150800698001E0C1781970012101707047017801B1E1
S31508006990704730B58170012101704178052906D00C
S315080069A0122913D018290AD01F2912D015E0DFF8AA
S315080069B02415DFF8242509781278891A21E0DFF8EA
S315080069C01C150A78511E8941C90F1AE0DFF81015FF
S315080069D001E0DFF81015098813E000220FF2405392
S315080069E000E0521CD2B214461D5DFF2D02D10021D3
S315080069F0017030BD8D42F4D10FF2405151F8241088
S31508006A000978818030BD70B50446207800287AD18F
S31508006A100120207000206278A070052A08D0122A6A
S31508006A202BD0182A1DD0192A02D01F2A20D02FE0D1
S31508006A30DFF8A4040578DFF89C0401784E1BA188CA
S31508006A40052A0CBF0E460D46A919C9B205F0A2FCC7
S31508006A500028A07057D1E9B2F0B2BDE870400EF038
S31508006A605FB9A188481E8041C00FDFF8701440E066
S31508006A70A088DFF87014088070BDA18847F23150ED
S31508006A808142A8BF36203BDADFF85404018070BD86
S31508006A900FF28C4100E0401CC0B20346CD5CFF2DCE
S31508006AA002D10020207070BD9542F4D1022B09DA7C
S31508006AB0DFF8340450F82300A1880078884238BFEC
S31508006AC036201DD32B2A08BF362019D00FF26C406A
S31508006AD0A18850F82300092B0DDAC9B205F05AFC33
S31508006AE0A070002804BF607811280CD1A088DFF8B0
S31508006AF0FC13087070BD342A04D1C9B205F04AFCEB
S31508006B00A07070BD017070BDF8B504460D461146FB
S31508006B10184605F0E6FE18260746FF2F08D03A461F
S31508006B20294620460EF0F7FA0646384605F056FE80
S31508006B303046F2BD38B504460D462188284604F08D
S31508006B40E3F86188A81C04F0DFF8207928716079D9
S31508006B506871A81DE18804F0D7F8218905F10800B5
S31508006B6004F0D2F8A07AA87231BD10B586B00446F2
S31508006B701B208DF80000A0788DF801000DF10200A9
S31508006B80218804F0C1F80822211D01A8FDF74BFE53
S31508006B90E1788DF80C10217B8DF80D10607B8DF84F
S31508006BA00E000DF10F0000F0B2F9112100F018F9EE
S31508006BB006B010BD80B51C228DF801008DF80210B4
S31508006BC08DF80020D2E02DE9F04788B007460D463B
S31508006BD014460EF092FB824622462946384606F0AF
S31508006BE04DFD002863D10DF109000EF08EFB30B97A
S31508006BF062208DF80800092102A80EF0EEFBFF2C92
S31508006C000FBF0026BA4909680E5D45208DF80800B1
S31508006C108DF809700DF10A012846FFF78BFF0DF173
S31508006C20150000F074F951460DF1170004F06CF8E0
S31508006C3001F057FE8DF819000027AE48DFF8988254
S31508006C400568DFF8909201E07F1C0C3599F8000082
S31508006C5098F80010FFB2401A87420ADA2888504589
S31508006C60F2D106F087FCA97AC1F342018142EBD141
S31508006C7000E0FF278DF81A708DF81B6050460CF05F
S31508006C80A4FD8DF8040000B10120009001AB224656
S31508006C90142102A80EF0A9FB00281EBF8048007820
S31508006CA0212804D19448017841F00401017008B004
S31508006CB0BDE8F0872DE9F04307468D4800681D4674
S31508006CC087B0465D0E9C884691462146384601F0B7
S31508006CD098F93F208DF804008DF8057041460DF1AE
S31508006CE0060004F011F802A94846FFF723FF6A4890
S31508006CF00068405D8DF813008DF814407F480078D1
S31508006D00402804BF0026FF25002000908DF8156056
S31508006D1000232A46122101A80EF067FB07B0BDE83A
S31508006D20F0831FB5044623208DF800008DF8021065
S31508006D308DF8014020460BF0C6F901460DF1030017
S31508006D4003F0E2FF0DF10D020DF1050120460BF0EF
S31508006D50CAF90E2100F044F81FBD80B57C218DF8D4
S31508006D60001001460DF1010003F0CEFF032168462D
S31508006D700EF033FB01BD70B586B004467D208DF854
S31508006D8000000D46164621460DF1010003F0BCFF32
S31508006D90082229460DF10300FDF745FD8DF80B6025
S31508006DA00C2100F01DF803A80EF0AFFA18B903A9D4
S31508006DB020460DF0BBFF06B070BD38B504460D463B
S31508006DC001F004F980208DF800008DF8014029466D
S31508006DD00DF1020003F098FF042100F001F831BD1F
S31508006DE068460EF0FABA10B584B0044646208DF807
S31508006DF0040001A821784170617881700DF10700BF
S31508006E0000F085F83A48A1780068405C8DF80900DA
S31508006E100023002000900621A27801A80EF0E5FACA
S31508006E201FBD80B598208DF800008DF801106846C2
S31508006E3002219DE71FB50C4692218DF80410082201
S31508006E4001460DF10500FDF7EEFC0DF10D0000F011
S31508006E505EF827480068005D8DF80F0000230020C3
S31508006E60009022460C21D8E7214A00B5126883B063
S31508006E70125C8DF8051093238DF8062000218DF8F5
S31508006E800430009102460023032101A80EF0ADFA52
S31508006E9007BD0000B1FF00207CFC00201EFD00207D
S31508006EA07AED002020FD00205AED00200CEC002091
S31508006EB010FF0020DAFF00204AED002030ED002008
S31508006EC032ED0020A8FC002078FC002070FC002091
S31508006ED0F0FD002061ED0020E3FF002056ED0020C4
S31508006EE020ED00201CED002058EC002066ED002067
S31508006EF0DCEB00203CEC00201CFD002070ED00209F
S31508006F0080B50AF05FFABDE801400EF0A5BB10B5E2
S31508006F1004460EF0EBF9601CBDE810400EF0E8B927
S31508006F201102030607081A2B2C1910131B14151C1B
S31508006F301D2021222A2E333435FF000057ED00206C
S31508006F405CED002062ED00205AED002058ED00208F
S31508006F5059ED00209AFF002079ED002078FC0020EA
S31508006F60E3FF002067ED002069ED00206AED0020B0
S31508006F7068ED0020AAFF002063ED0020A4FF002092
S31508006F80B9EC00206BED00206CED0020A8FF002076
S31508006F90ACFF002091ED00205DED0020B7FC00203D
S31508006FA038B504460029104601461A46204602D03E
S31508006FB00FF0E9FE01E00FF0B7FE0546002C1EBFF4
S31508006FC004980028A04203D0214614220FF048FF57
S31508006FD0284632BD0246022000291CBF10460FF083
S31508006FE06BBF70470246022000291CBF10460FF0EF
S31508006FF0DEBF70471CB504462078F8B90220207217
S31508007000A0780A280AD0102810D101A810F055F93E
S315080070106070BDF80400ADF8000004E00020607060
S3150800702068460CF047FE0120207001E0207828B160
S31508007030BDF8001004F1090003F066FE13BD38B56B
S3150800704004462078002804BFA078102812D104F13D
S315080070500901012003F06AFE054604F10D0003F05C
S315080070604CFEADF800006946284610F0FBF8607043
S315080070700120207031BD6E490978027856290CBF67
S31508007080012100212ABB8270012202704278130076
S3150800709006D1684A09B1117811E0C07810707047B6
S315080070A0052A05D1644A61B1117841F0500106E01C
S315080070B0062A0CD1614A21B1117841F06001C170EC
S315080070C07047C17801F00F01C17011707047002137
S315080070D00170704710B504462078B8B900F045F835
S315080070E006D01E2807D0242807D0362808D00BE05B
S315080070F00AF016FD06E0524800E05248007801E022
S3150800710051480088A08010BD0020207010BD10B521
S315080071100446207840BB00F028F806D01E280AD07E
S31508007120242812D0362819D01CE0A088BDE81040C3
S31508007130C0B20AF0F9BC4548A188007888420AD34B
S31508007140C9B23F4805F026F906E0A1880B2902DAFC
S315080071503C48017010BD3620A07010BDA0883A4981
S31508007160088010BD0020207010BD0120207000206E
S31508007170A07060780D2870472DE9F0431546012D5B
S3150800718087B0804689461C4608D101210020022680
S3150800719050EA0102274F06D1032614E00021032DE9
S315080071A0F4D10120F3E73A78052A0AD8DFE802F095
S315080071B003060509083C012605E060B1002602E041
S315080071C00E46022E07D007F047FB844203D021461D
S315080071D040460CF0D6FA01962346387800902A469F
S315080071E049464046FDF734FC064624208DF808003B
S315080071F041460DF1090003F087FD082249460DF1C5
S315080072000B00FDF710FB8DF813508DF8146021461E
S315080072100DF1150003F078FD0F2102A80EF0DDF838
S31508007220304607B0BDE8F0830028C7D0B4E70000B1
S31508007230B1FF002076ED0020A6FF002064ED0020B7
S31508007240A5FF0020ABFF00201EED0020B546020872
S3150800725080B56E218DF800108DF801000221684670
S315080072600EF0BBF801BD10B584B00C469B218DF815
S315080072700010082201460DF10100FDF7D4FA8DF839
S3150800728009400A2168460EF0A8F81FBDF0B583B07C
S3150800729010F8014B0E461746214605F022FB054617
S315080072A0FF2D03D10E4901200870F7BD8E208DF8F9
S315080072B004008DF80560002000908DF806708DF8A2
S315080072C0074000232A46042101A80EF08EF8284616
S315080072D005F084FAF7BD00B1024810F02FB8000097
S315080072E00CFF00208D72000800B58028A1B0A8BF49
S315080072F002200ADA8DF8000002460DF10100FDF7BA
S3150800730092FA0021684610F0BFF821B000BD10B50A
S3150800731004462078002804BFA07833280FD101201E
S31508007320207009B1002004E0607A10F005F900B178
S31508007330362060700120207210F00EF9607210BDC0
S315080073400121E4E70021E2E730B58BB004460D469B
S315080073502A22FF216846FDF7A9FA2146284605F0A4
S31508007360C0FA0446FF2C08BF182505D010F010F9FE
S315080073700546204605F032FA28460BB030BD10B552
S315080073804E4C2178FF29A8B008BF702020D00020D5
S3150800739000904A2300220AA805F0BFFA00200090B0
S315080073A0252321784A221DA805F0B7FA0020009067
S315080073B0242321786F2201A805F0AFFA207805F07A
S315080073C00DFAFF20207001AA0AA91DA810F0EDF8F1
S315080073D028B010BDF8B5394F04463878FF280D4651
S315080073E0164608D19321002005F07BFAFF2838704D
S315080073F001D13520F2BD01200090334639782A465E
S31508007400204605F08AFA0020F2BD10B50446A6B05B
S31508007410207860BB01202070A0781A2804D024D3D5
S315080074201C2815D00AD320E04A2204F1090113A822
S31508007430FDF7F9F94A22002113A812E0252204F1E2
S31508007440090109A8FDF7EFF925224A2109A808E04C
S31508007450242204F109016846FDF7E5F924226F2183
S315080074606846FFF7B7FF607001E00020207026B07D
S3150800747010BD0178002904BF417829290CD110498B
S315080074800978522904D10F4909788180002100E042
S315080074903821817001210170704710B5074C20789A
S315080074A0FF281FBF06490978AB29ED2903D005F047
S315080074B095F9FF20207010BD0000000078ED00202F
S315080074C0B1FF0020A7FF002011B1012903D004E075
S315080074D0114602F019BC02F062BC0220704710B5D2
S315080074E004462078002804BF607808280ED114487E
S315080074F00078562803D103F033F8E07002E0E0780C
S3150800750003F034F80020A0700120207010BD017827
S31508007510A1B941782F2908BF0A4902D030290DD1CF
S31508007520094959B1064A1278522A07BF0978818053
S3150800753082880A700021817001210170704700005D
S31508007540B1FF00206EED00206FED002030B58FB042
S3150800755005460C463B2200216846FDF7A7F9B620EA
S315080075608DF800000DF10101284600F076F8DCB12F
S3150800757000218DF82910082221460DF12A00FDF771
S3150800758052F90DF12905207A68720DF133006189E7
S3150800759003F0BAFBA1890DF1350003F0B5FBA07B1A
S315080075A0A873E07BE87302E001218DF829100DF13C
S315080075B03900FFF7ACFC3B2100F00CF80FB030BDEA
S315080075C080B5B7218DF800108DF80100022100F072
S315080075D001F801BD68460DF000BF10B586B0044637
S315080075E0B8208DF800000DF10100218803F08CFB0E
S315080075F061880DF1030003F087FBA1880DF10500F2
S3150800760003F082FBE1880DF1070003F07DFB218979
S315080076100DF1090003F078FB61890DF10B0003F009
S3150800762073FBA1890DF10D0003F06EFB0DF10F0040
S31508007630FFF76DFC1121FFF7CDFF06B010BD00B5B1
S315080076408BB0BB218DF800100DF1010100F005F893
S315080076502921FFF7BFFF0BB000BD38B504460D461C
S31508007660A0782870681C218803F04EFB0822211D8B
S31508007670E81CFDF7D8F8E078E87205F10E01207BE2
S315080076802873607B68730120226903F041FB6269F5
S3150800769005F11201012003F03BFB218B05F11600D1
S315080076A003F032FB082204F11C0105F11800FDF76E
S315080076B0BAF8A18C05F1200003F026FBE18C05F150
S315080076C0220003F021FB04F1280105F124000A78C1
S315080076D002704A7842708A788270C978C17031BD62
S315080076E0F8B5BA4D0446286800792B38022801D91E
S315080076F00D382ED1FCF74EFE06462868B449401DC3
S315080077000860002131200DF030FF05464FF6FF775F
S315080077100BE005F10D0080B20DF054FEB04213D017
S31508007720294631200DF021FF0546BD42F1D1002141
S3150800773000E0294632200DF018FF0546BD4208D064
S315080077400DF040FEB042F4D1A420FCF73CFE002028
S315080077502070F1BD38B50446002100E029463F20D7
S315080077600DF003FF05464FF6FF7085420CD02846FC
S315080077700DF028FE0228F1D1681C80B20DF022FE19
S31508007780A042EBD1012032BD002032BD2DE9F843DD
S315080077908046002145200DF0E8FE4FF0000904461A
S315080077A08C4D4FF6FF7609E0FF21B8B20DF00FFEBB
S315080077B0A1B245200DF0D9FEA1460446B44224D014
S315080077C004F11007B8B20DF0FDFD4045F0D1204692
S315080077D00DF0F8FD022818BF0328E5D1A41FA0B2B2
S315080077E00DF0F0FD01462888401A32187A482A809A
S315080077F00919121B92B2007800924B1C9BB20246E2
S31508007800A1B205F074FA4C46D2E7BDE8F183F0B5AB
S31508007810724F3D788BB0064605F0ACFE05F0A8FE23
S3150800782000F079F806D012282FD17188707805F003
S31508007830DCFF50B3707804A905F076FF88B1BDF86F
S31508007840100040F20911884204BF7088B0F5006F35
S3150800785007D1701D0FF0B4FEB52802D0A8B90024D0
S3150800786013E00124002500E06D1C3978E8B288424F
S315080078700BD206A900F097F99DF818000028F3D155
S315080078803146E8B200F09AF9044631208DF8000036
S3150800789030788DF8010070788DF802000DF103003C
S315080078A0718803F031FA30798DF805000822711DC8
S315080078B00DF10600FCF7B7FF8DF80E508DF80F4056
S315080078C0102168460DF089FD20460BB0F0BD38B58D
S315080078D0054605F04FFE05F04BFE00F01CF80DD1ED
S315080078E02846FFF737FF08B1752407E0284600F059
S315080078F0B0F9040004BF2846FFF748FF32208DF888
S3150800790000008DF801508DF80240032168460DF0FD
S3150800791064FD204632BD324800786C241128704731
S3150800792038B504460D46FFF715FF08B1752511E071
S315080079303DB105F01BFE68732946204600F03EF966
S3150800794002E0204600F085F90546280004BF2046D7
S31508007950FFF71CFF284632BDE2E70021E0E7214990
S315080079600978027856290CBF01210021002A04BF94
S315080079704278012A0AD11A4A002919BF1178C1701A
S31508007980C17811700021817001210170704710B50E
S3150800799004462078002804BF6078042814D11149C9
S315080079A00E480978522903D10078A080002008E003
S315080079B00D4AA18812788A4232BF3620C9B204F02D
S315080079C0E9FCA0700120207010BD000060FB0020BB
S315080079D048F900200EFF00208AED0020A3FF0020B2
S315080079E077ED0020B1FF0020B34602081FB50C460C
S315080079F002460D231521684608F05EFD0D226946EC
S31508007A002046FCF710FF207840096073207800F0C4
S31508007A101F0020701FBD30B585B004460D460D22E7
S31508007A206846FCF700FF9DF80000697B40EA4110B4
S31508007A308DF800000D236A462146152008F063FDDF
S31508007A4005B030BD2DE9FF41044600F05FF814E0AB
S31508007A503068EDB2A84630F81800A0420CD1694645
S31508007A60284600F0A0F89DF80000022804D03168E6
S31508007A704FF6FD7021F818006D1CE8B23978884277
S31508007A80E6D3BDE8FF812DE9F04588464FF6FF7A33
S31508007A90D04585B0044605D100F0D8F910B906F0EE
S31508007AA0DBFE30E000F032F80CE0D04508D0306854
S31508007AB030F81510414504BF4FF6FD7120F8151032
S31508007AC06D1CEDB2387885421CDA306830F815003E
S31508007AD000F018F9F4DA69462846FFF787FF082206
S31508007AE021460DF10500FCF7E8FE0028DDD13068D7
S31508007AF0D04502D130F8150005E020F815800FF0C2
S31508007B009CFDDDE7504605B0BDE8F0850025DFF8A9
S31508007B10C463DFF8C47370472DE9FF47804689467A
S31508007B200026DFF8B873DFF8AC43DFF8AC5316E08D
S31508007B302068F6B2B24630F81A0000F0E3F80DDA1B
S31508007B4069463046FFF752FF082241460DF1050007
S31508007B50FCF7B3FE10B9386800F80A90761CF0B244
S31508007B6029788842E4D3BDE8FF87DFF868130968F7
S31508007B7031F8100070471FB5DFF85C231278904281
S31508007B800C460FD2D349096831F810104FF6FE7229
S31508007B90914207DA694600F006F821460DF105001C
S31508007BA0FFF771FF1FBD80B5CB4B1B78984201D3F9
S31508007BB0692002BDFFF71AFF002002BD70B5044612
S31508007BC00D4623460022B4A1032010F0A3F9287815
S31508007BD00028204602D1BDE870403AE0BE4909783F
S31508007BE0884201D3692070BD10F046F908B17520A6
S31508007BF070BD05F0C8FC6873681D09F06EFD064681
S31508007C004FF6FF71681DFFF73EFF02462978334697
S31508007C10204600F006F829462046FFF7FCFE00201D
S31508007C2070BD30B54FF6FF740D0008BF224608D068
S31508007C30032908BF4FF6FE7203D0A24208BF4FF6CB
S31508007C40FD72A449096821F81020A44909680B5453
S31508007C5030BD30B505462C4685B0234601228EA197
S31508007C60032010F057F99C4909782846884228BF0E
S31508007C70692019D210F000F908B1752014E0694698
S31508007C802846FFF7B3FE9DF8000030B100208DF8B6
S31508007C90000069462846FFF7BEFE8E4909684FF67A
S31508007CA0FF7021F81400002005B030BDF0B585B08E
S31508007CB007460C46874D884E00E07F1C3178F8B29F
S31508007CC088421CD22868FFB230F8170000F01AF86C
S31508007CD0F3D169463846FFF789FE9DF80500E1B2FB
S31508007CE0884204BF9DF80610B1EB142FE5D105F0C4
S31508007CF04AFC9DF80D108142DFD1384600E0FF208E
S31508007D0005B0F0BD4FF6FE71884270472DE9F14F78
S31508007D1084B00D460E9C6F4FDFF8BCA1904699467D
S31508007D20002607E03868BDF8101030F81B008842B6
S31508007D302CD0761C9AF80010F0B2884228D23868FF
S31508007D40F6B2B34630F81B00FFF7DCFFF1DA6946F6
S31508007D503046FFF74BFE5FEA080007D19DF80100A1
S31508007D60484504BF9DF80400A042E2D105F00BFC8B
S31508007D709DF80D108142DCD1002DD3D008220DF1DB
S31508007D8005012846FCF799FD0028D2D1304600E0C7
S31508007D90FF2005B0BDE8F08F10B51446FFF726FEA4
S31508007DA02046BDE8104008224D49FCF73CBD2DE9A8
S31508007DB0FF470446084615461E4600F047F808B130
S31508007DC0002040E00027DFF80C81DFF80C9100E086
S31508007DD07F1C99F80010F8B2884223D2D8F8000020
S31508007DE0FFB2BA4630F81A004FF6FF718842EFD054
S31508007DF069463846FFF7FAFD0C220DF10101601CB1
S31508007E00FCF75BFD0028E3D1BAF1FF0F0CD1002087
S31508007E10307005F0B7FB307855B138B92046FFF712
S31508007E20F6FC09E0FF27F2E70120F1E7012006E06A
S31508007E3028B13846FFF74BFD401E8041C00F307011
S31508007E4005F0A6FB012004B0BDE8F0870822244906
S31508007E50FCF733BD30B585B000241F4D16E06946E2
S31508007E60FFF7C4FD9DF80000042806DB00208DF806
S31508007E7000006946E0B2FFF7CEFD9DF8001000232A
S31508007E804FF6FF72E0B2FFF7CCFE641C2978E0B229
S31508007E908842E4D305B030BD4242000030B585B013
S31508007EA002220BA1032010F035F800208DF80000FF
S31508007EB00024094D03E06946FFF7ADFD641C2978E7
S31508007EC0E0B28842F7D3FFF7C5FF002005B030BD02
S31508007ED04200000030EC0020A3FF002034EC002014
S31508007EE068FB002030B583B00446FCF753FA054614
S31508007EF0202D1ADA5CB169460820FCF752FA0823E5
S31508007F006A462946212008F0FEFA00200EE00823DA
S31508007F102A462121684608F0CFFA0020FCF753FAD2
S31508007F2069460820FCF77AFA37BD7020FCF74BFA49
S31508007F3037BD704770B5514D6E8A044605F1080085
S31508007F4010F017F8012C08BFAE8A02D0022C08BF21
S31508007F50022618B1FA217143884206D3310205F187
S31508007F600800BDE870400FF0F7BF70BD7CB5434C04
S31508007F700020E07020714FF6F972208A90421CBFEB
S31508007F804FF6F872904216D161793D4E4FF6FD755F
S31508007F9091B14FF6FC70019000230020009000225A
S31508007FA0308800210AF0ADFC002060713580012080
S31508007FB0BDE87640BEE773BDA1780DF023FD308895
S31508007FC0A842F4D0012060710220F1E710B5A92873
S31508007FD018BFAA2814D12948C2780378521CC2703F
S31508007FE0D2B29A420CD3264A13884FF6FD74A3429E
S31508007FF002D11180002141710020BDE8104099E7A7
S3150800800010BD02001CBF012802280CD166290AD11E
S315080080101A480179491C0171C9B24078814224BFC6
S315080080200020FFF787BF704710B5144C21829200D5
S31508008030029921709B0003996282A38261709BB2A8
S315080080400499A17092B2934208D3218A4FF6F87226
S3150800805091421CBF4FF6F972914201D0702010BDB3
S31508008060002161714FF6FD71054A118018B1012092
S31508008070FFF760FF00E02072002010BD80FA0020A4
S3150800808026ED00202DE9F84F8AB088461646ADF849
S3150800809004800446F58809F00EFE4FF0000915988D
S315080080A0CA46002760B9E8060AD59DF850009DF82B
S315080080B0283000903246414620460FF06BFA10E110
S315080080C0680548BF4FF4805A280548BF4AF4006A35
S315080080D0A80548BF4AF0800A03D4E80548BF4AF015
S315080080E0400A9DF8500002900A2CC34668D8DFE87B
S315080080F004F007301B3F67673F06073F1900022752
S315080081009DF82800BDF8042000904B469DF85000C5
S315080081104AF402710AF084FE8246BAF1FF0F51D181
S315080081201820DEE00327EBE705A95FFA88F0FFF7DA
S315080081303AFD08220DF1190103A8FCF774FBDFF8D4
S315080081409C08006830F81B000DF10C09ADF8040016
S31508008150D6E703A95FFA88F009F0A9F9DFF88008DD
S3150800816000680C2101FB0BF10DF10C09405AEDE7F3
S315080081704FF6F870834523DBF0884FF40261084216
S315080081801ED100F03BF918BF91201AD10298FF289A
S315080081900FD000F07AFB032C0CBF01210021401AF6
S315080081A0DFF84018029A0968895C8842B8BF7420CB
S315080081B007DB032C0CBF0C2708272AF4C07A9FE795
S315080081C001208EE0DFF8200800884FF6FF7188420C
S315080081D014D050460FF0EFFF8346DFF80C080188ED
S315080081E00BF1040002F090FDDFF80008DFF8F8173D
S315080081F000788BF807004FF6FF700880324639463C
S3150800820050460AF0E1FF08B9182666E0DFF8E007ED
S315080082100068C07E70B1A8060CD5E8074CBF2020C0
S31508008220002040F001034A46002150460CF0F1FCBC
S31508008230060052D10298FF2816D050460FF0B1FF1B
S31508008240DFF8AC170968C97E01B11221DFF8942757
S31508008250029B1268D35C12F80A20D2187430891867
S315080082608842B8BF742638DBA80407D550460FF0F5
S31508008270ACFF40F4806150460FF0A9FF082C12BFEE
S31508008280092C50460FF0B0FF159848B1BDF80410F8
S3150800829050460FF0C2FF159880F800A0002020E095
S315080082A0E01E05D0C01E012884BFC01E012807D8BD
S315080082B050460DF02EFA00280CBFA12600260CE029
S315080082C0A80444BF4FF6BF7005402B465FFA88F2F4
S315080082D0214650460FF0C2F90646504604F07EFA8B
S315080082E030460BB0BDE8F08FF0B587B00E460446B1
S315080082F00C991746184604F0F4FA0546FF2D21D0C6
S31508008300FF208DF810008DF81100ADF80E704CF2B4
S315080083100E00ADF80C00ADF812600020ADF81400A0
S31508008320009502A80190FF2303AA21460020FFF723
S31508008330A9FE0446284604F051FA002C0CBF9DF805
S315080083400800FF2007B0F0BD2DE9F043164685B0BA
S315080083500446F08804900D4670790FF2CC610390BC
S315080083601F4630790290A8467088019043463088A7
S315080083700090082200F099F800F040F818BF912004
S315080083801AD1FF2F09D000F080FADFF858160968CD
S31508008390C95D884238BF74200ED320000FD14FF62E
S315080083A0F870804528DA002001900097FF233246AE
S315080083B029462046FFF766FE05B0BDE8F083022C85
S315080083C04FF6FE790CD1DFF82C1609788D4213D2B8
S315080083D0DFF80806006830F818004845E3DB0BE0CC
S315080083E0012C09D1DFF8101609788D4204D2E8B2BB
S315080083F009F06BF84845D6DB0120DDE7DFF8F00524
S315080084000068407B02287047F0B587B00D461646CF
S31508008410044605961F46E8880FF214610490234621
S31508008420687903900922287902906888019028883B
S31508008430009000F03AF800200190009733462A464B
S3150800844021460620FFF71EFE07B0F0BD2DE9F041D4
S3150800845088B01E460E9C07948046F08806901746FC
S31508008460707905900D4630790FF2D0510490434645
S31508008470708803900A22308802900197009500F0D0
S3150800848014F8DFF86405A0F800802346DFF85C05D9
S3150800849007700020019032460F9800902946062062
S315080084A0FFF7F0FD08B0BDE8F08103200FF032BDFC
S315080084B070B588B000F013F8DFF84005007800962C
S315080084C0002814BF4FF6FF714FF6FD71002001908A
S315080084D02B4622460320FFF7D5FD08B070BD04469B
S315080084E00D46069205951E46E0880FF25C510490EB
S315080084F0062260790390207902906088019020888E
S315080085000090032023890FF005BD10B5DFF8F004AD
S3150800851004F036FC0446FF2C0DD02146042003F057
S31508008520CEFE18B10121204600F006F82046BDE827
S31508008530104004F053B910BD2DE9F04F89B08246BA
S315080085408B460FF038FE0646B01C02F0D6FBDFF865
S31508008550B444DFF8B454074650460AF012FD014603
S31508008560504604F0D2FA804650460FF038FE05F021
S315080085700EF8301D02F0C1FB2080009706F06CF95A
S31508008580009989B2814208F0030912D04FF6F870B3
S3150800859087420EDA7078C0070BD4384609F0CFFD4B
S315080085A0002805D0208801235246394600F0A1F953
S315080085B077E005A950460AF073FD05A828603046FD
S315080085C00AF0FCFCDFF844140860032150460FF05B
S315080085D0E2FDDFF83C140870042150460FF0DBFD7D
S315080085E0DFF8301408705FEA0B0028D09DF81A00EF
S315080085F0800624D506F030F9DFF8F46340B1306818
S31508008600007D800704D4B9F1010F08BF182300D0F4
S3150800861008230022002150460CF0FBFA78B108F036
S315080086200300012802BF3068407B11284ED100F0B4
S3150800863057FD00284AD1AF2006F0CFF946E018F0DA
S31508008640030003D0022806D00AD32AE0594650462A
S3150800865000F041F825E0514640460FF02DF820E09D
S3150800866006F0FAF8218881421BD05146052003F00E
S3150800867026FEB0B12968887940060DD50C2202A8D5
S31508008680FCF7D1F800200190FF23FF20009002AAF2
S3150800869021880A20FFF7F6FC21885A4650460BF037
S315080086A053FB06F0D9F8218881420DD150460AF0CD
S315080086B068FC0146504604F028FA0C21084203D10A
S315080086C0002150460FF019FA0020286004F060FFD8
S315080086D009B0BDE8F08F2DE9FE4F81460FF06BFD1E
S315080086E0054648460AF04DFC0146484604F00DFA90
S315080086F082466878DFF81063DFF8088300F0010027
S315080087000290A81C02F0F9FA4FF6F8718842ACBF3D
S315080087100127002706F0A0F8B8F800108142306853
S31508008720B0F802B002980CBF0124002438438DF833
S3150800873004009DF80400002814BF06200820002124
S3150800874004F087FF30680188002904BF40790028B3
S3150800875014D1694648460AF046F833689DF8001071
S31508008760421ED2B203200FF024FEB8F80000BBF573
S31508008770004F19DB5A4649460AF049F8306801881D
S315080087804CF20E0291423CD144F20107BB4518BF98
S31508008790BBF5804F35D148460AF076FC0146BB4505
S315080087A00CBF0120002023E09B4A022111703B46A2
S315080087B00022494609F0A6FE30688079400603D5AE
S315080087C0FF21584600F068F8BBF1130FD6D0306881
S315080087D0C0884004D2D491498F4809780078CA07DE
S315080087E001D50228CAD0890741D50128C6D03EE05E
S315080087F0491EC9B200912B464A46012106F0D3FC10
S3150800880035E0029919B90AF00C010C290DD1008935
S3150800881008F092FF58B330680189002C14BF03256D
S3150800882002250020FFF742FA12E0017900910022A2
S315080088304379B8F800000021FFF768FA0AF00C013E
S31508008840082904D1002C0CBF0425052500E00025C5
S31508008850734908709DF8040010B9BBF1380F01D1AF
S31508008860012200E00022294648460CF0E7FCBDE854
S31508008870F78F10B5044600F008F8610548BF0838B8
S31508008880210548BF0838C0B210BD59490968C97ED4
S31508008890642001B15220704770B55B4E0C4686B015
S315080088A0054631680C2202A8FBF7BDFF306801793E
S315080088B08DF80D10FF2341798DF80C10ADF80A508C
S315080088C04FF6BF71C08800940840ADF80E0002AAA2
S315080088D0002001904B4801880720FFF7D3FB06B01C
S315080088E070BD5048007808B9FF2070474C4800789A
S315080088F070472DE9FB47914685B01C4648460AF065
S3150800890040FB0146484604F000F9032108428DF869
S3150800891000005ED13C4805683A48068801A94846E1
S315080089200AF0BEFB384901A808604FF0000ABDF8F6
S315080089301400344908809DF80900002804BFBDF8D2
S31508008940040000283FD148460FF035FC801C02F091
S31508008950D4F94FF6F8718842ACBF4FF00108D046FB
S31508008960002C14BF02240124012729E0BDF81400B5
S3150800897043463A46494609F0C5FD5FEA000A1ED055
S31508008980022C08BF012F1AD1BDF818001649088015
S3150800899017480068417E491C4176A1F180001349B9
S315080089A008700C219DF80000084208D19DF80A00BD
S315080089B0400604D5BDF80600FF21FFF76DFF7F1CB2
S315080089C0FFB2BC42D2DA104805600E48068050460F
S315080089D000E0002008B0BDE8F087000030EC002079
S315080089E03CEC0020DCEB00202AED0020BAFF00203A
S315080089F070FC0020A3FF002061ED0020ACFF0020E2
S31508008A00C4EC00201EFD002020FD002024FD0020CF
S31508008A1075FD002076FD0020B9FF0020A8FF002084
S31508008A20DEFF00201CFD00204257575742425700E0
S31508008A304257575742425742000000004257574292
S31508008A4057574242574200004257574242425742FE
S31508008A504200000010B5044604F08AFD0DF05EFDE4
S31508008A60010018BF00F013F80C212F486143084491
S31508008A70827981880068BDE8104005F081BA002037
S31508008A80E8E70120E6E70220E4E70320E2E710B57D
S31508008A9082B0044604F06EFD0C214843224908447E
S31508008AA0210017BF312C0021017A491C0172C279B5
S31508008AB0017A91420AD30021017243208DF8000001
S31508008AC08DF80140022168460CF087FC13BD174952
S31508008AD00978312900D0704780B544218DF80010F7
S31508008AE001460DF1010002F00FF9032168460CF06A
S31508008AF074FC01BD38B50E4C0B4B24780C256C4321
S31508008B00B0F5004FB8BF0429234401DB702032BDFD
S31508008B10DA71988099719A799988186805F030FA07
S31508008B20BDE831400DF0FABC60EC00207BED00207A
S31508008B30B2FF002010B5044600F003F8754804702B
S31508008B4010BD10B5734C2078FF2803D003F046FEFD
S31508008B50FF20207010BD7CB504460D4616460FF062
S31508008B602FFCC4208DF8000021460DF1010002F00B
S31508008B70CBF829460DF1030002F0C6F88DF805601A
S31508008B80062168460CF029FC73BD2DE9F04387B031
S31508008B9080460E9C009489461E4615460FF017FC23
S31508008BA00DF105000CF0A2FB01A80CF0A1FB592061
S31508008BB08DF8080041460DF1090002F0A5F80822D3
S31508008BC049460DF10B00FBF72EFE9DF805008DF8C2
S31508008BD013006F009DF804008DF81400FFB28DF89D
S31508008BE015500097234632460021304604F07FF898
S31508008BF03946304603F042FF0020009000233246F3
S31508008C000E2102A80CF0F1FB07B0BDE8F0832DE9B0
S31508008C10F843404E80467078002889463CD0307824
S31508008C20FF2833D03C4F3A68115C8C1EE4B22146CB
S31508008C3004F026F8404529D1386810F80970E5058A
S31508008C402D0EB9F1FF0F02D1A81CC0B224E0E0191D
S31508008C50811CC9B2484603F011FFB8B92A463946FD
S31508008C60484603F057FF6A1E791CD2B2C9B2484675
S31508008C7003F050FF0094B91C3278002389B24846A5
S31508008C8004F035F8FFF75DFF002005E04946404649
S31508008C90BDE8F4430FF0BFBBBDE8F2832DE9F04110
S31508008CA004460E469046012003F02DFD0027054692
S31508008CB0300010D07100C9B2284603F0DFFE50B963
S31508008CC007E038F817207900C9B2284603F0E5FF0F
S31508008CD07F1CB742F5DB2846FF2811D00E490968E4
S31508008CE00E5CB11CC9B203F0C9FE28B9224631464A
S31508008CF0284603F0D2FF03E0284603F06FFDFF2560
S31508008D002846FFF717FFFF2D0CBF18200020BDE8E7
S31508008D10F081000080ED0020DCEB002030B5054630
S31508008D200C4683B0282200212046FBF7BFFD681EAB
S31508008D30A5701ED0801E01284FD8032D0CBF012513
S31508008D4000252A4604F11C01E01C0BF069FB35B12D
S31508008D50208840F00200208007F05EFE60612088CF
S31508008D6040F0010020801021E01C00F0A0F8B0BB04
S31508008D7006E0DFF870542868007D10F0300F01D146
S31508008D80B2203EBD208840F0020020800BF097FDFF
S31508008D906061E01C00F0AAF8684600F0BBF848B12C
S31508008DA00822694604F11D00FBF73DFD208840F0C6
S31508008DB00800208028684069C00303D4208840F052
S31508008DC01000208005F048FD0028CCD02868406AAD
S31508008DD0A061208840F00400C4E770203EBDE01C76
S31508008DE00EF092FA00203EBDF0B587B004460D4657
S31508008DF016461F46684600F087F83EB108223146F7
S31508008E000DF10200FBF70FFD45F040052FB11022CA
S31508008E1039460DF10A00FBF706FDDFF8C8030068BE
S31508008E204169A1432943416148040CD5BDF80000B6
S31508008E300A0A00F40E4002F4E242104301F0FF0170
S31508008E400843ADF800001A2308226946002002F0FC
S31508008E5054F907B0F0BD00230022C5E7DFF8840304
S31508008E600068416941F48041416147F2FF100140C1
S31508008E70F1E700B587B007F0E2FD684600F044F870
S31508008E80DFF860030068BDF800204169090A120A84
S31508008E90090202F0710241EA0241BDF8002002F01F
S31508008EA0FF02114341F48041416107B000BD38B566
S31508008EB004460D46002208F0B4FE40B9FF222946B2
S31508008EC0204608F0AEFE401E8041C00F32BD00208D
S31508008ED032BDC4480068007D00F03000102818BF75
S31508008EE0202801D1012070470020704710B588B0AE
S31508008EF00446684600F008F810220DF10A012046DB
S31508008F00FBF791FC08B010BD01461A230822012080
S31508008F1002F0F3B810B50446B248006888B0406954
S31508008F20810705D50822FF212046FBF7BFFC0AE08A
S31508008F3040060AD56846FFF7E7FF08220DF1020149
S31508008F402046FBF770FC012000E0002008B010BDA9
S31508008F5080B531B9A3490968097D490601D50020BC
S31508008F6002BD0246002300210020FFF73DFF012035
S31508008F7002BD0021ECE70121EAE71CB50446684674
S31508008F80FFF7C8FF40B1082221466846FBF795FC63
S31508008F90401E8041C00F16BDFF220821204608F05A
S31508008FA040FE20B106210020FFF755FF04E000230C
S31508008FB022460021FFF718FF012016BD2DE9F047CC
S31508008FC00D4692B081461646012100241F4600F040
S31508008FD093F98046B80707F0010A0BD507A9484652
S31508008FE00EF026F820B100F06BF806B134601AE0EE
S31508008FF0A62019E0B8F1FF0F19D007A9404600F0DE
S3150800900013F9010010D10DB100F05AF826B17648CF
S31508009010006800EB88003060BAF1000F03D0BDF895
S315080090201C00C00646D5002012B0BDE8F0876D4F7B
S3150800903056B105F011FC18B13868017D890701D5CC
S31508009040346001E024303060FFF743FF0028CFD0BA
S315080090506846FFF759FF08220DF102014846FBF75B
S315080090602CFC28B13868007D00F044004028BFD0A9
S31508009070BAF1000F04D038684069C00348BF01241C
S31508009080B5B105F0E9FB002801BF3868007D00F09E
S315080090908400842807D12B46082249460DF10A0088
S315080090A00FF00CFA04E010220DF10A0100F00BF89B
S315080090B0002CB8D04146182004F0CBFABB20B3E701
S315080090C010220DF11F012846FBF7ADBB80B5002322
S315080090D000220021FFF772FF401E8041C00F02BD2B
S315080090E000B583B06846FFF715FF10B16846FFF76D
S315080090F0EDFF0EBDF0B585B0074605F0ADFB0024C3
S315080091000025A8B108F00CFD90B103A8FFF702FFEF
S3150800911070B12FB1082235493846FBF7CEFB38B176
S31508009120304E3068017D890705D5417B112901D06C
S31508009130702045E044889FB10822394603A8FBF70A
S31508009140BCFB68B108208DF80000082202208DF8C3
S31508009150010039460DF10200FBF765FB0A2107E01D
S3150800916008208DF80000012504208DF80100022151
S31508009170684603F0B6FB0746FF2F20D0FFF7A9FE87
S3150800918000B102203168097D89074CBF04210021FE
S31508009190084340F001033A46002120460AF01EFF24
S315080091A0040006D0012000F00DF815B11049012081
S315080091B00870384603F012FB0CB1002000E01820B6
S315080091C005B0F0BD0B490C4A09780B0018BF0028FA
S315080091D003D0090410460EF0BFBE00201070704779
S315080091E00000000070FC002044EC002068FB002012
S315080091F0BDFF0020ABFF002098FA002000B583B021
S31508009200082200216846FBF751FB05F025FB18B933
S3150800921000F0B1FC0D2100E00421684604F015FABF
S315080092200020FFF7CFFF07BD30B500F026F987B05D
S3150800923028BFB12039D200F026F918216846FFF771
S3150800924036FE08B9B62030E0282200212846FBF76A
S315080092502DFB102202A9E81CFBF7E5FA082269464D
S3150800926005F11D00FBF7DFFA082028809DF8180095
S3150800927081075CBF18212980410703D5298841F059
S3150800928020012980C0070FD50520A870AC480068C2
S3150800929050F82400A8610BF012FB6861288840F09A
S315080092A006002880002000E0B22007B030BD38B59F
S315080092B00C46FFF7B9FF0546E01C0EF025F82846D0
S315080092C032BD38B50446154609B9702032BD0121AC
S315080092D000F012F8FF2803D10121002000F00CF855
S315080092E0FF2807D02B46224601B0BDE8304001468C
S315080092F0002045E0B42032BD2DE9F04188B004468F
S3150800930009B9702039E02CB10022082108F089FC3F
S31508009310074600E001270026884D04E00821FFF7EC
S31508009320C6FD38B3761C2978F0B2884224D201A843
S3150800933000901923F2B21721684607F0CEF8009874
S3150800934090F81880002FE9D108222146FBF7B5FAD4
S315080093500028E7D1009808300BF01FFA08F0010141
S3150800936081F001010843DDD104F00DF9C8F3C2010B
S315080093708142D7D1F0B200E0FF2008B0BDE8F08105
S315080093802DE9F04116466D4A127891428AB00C468C
S31508009390984628BFB1204DD2254630B910214046FF
S315080093A0FFF785FD38B9B22044E01922002102A84A
S315080093B0FBF77CFA32E001213046FFF79DFF0746AE
S315080093C0082260493046FBF778FA68B1FF2F18BFC4
S315080093D0AF4209D16846FFF79DFD38B108226946B4
S315080093E03046FBF76AFA08B9B32023E0082231466B
S315080093F002A8FBF718FA1022414604A8FBF713FA4D
S315080094000EF0DAF8002814BF0026022604F0BBF88E
S3150800941046EAC00040F001008DF8200000204849C7
S31508009420096841F82500192302AA2146172007F0E2
S315080094306AF800200AB0BDE8F08170B500F01DF8A2
S3150800944088B0164628BFB12015D200F01CF819219D
S315080094506846FFF72CFD08B9B2200CE09DF81810F5
S31508009460B14329438DF8181019236A462146172057
S3150800947007F049F8002008B070BD0D462F49097855
S31508009480044688427047192322461721684607F082
S3150800949013B810B50C460121FFF72EFFFF2808D098
S315080094A0002CBDE8104007BF042200210022042139
S315080094B0C3E710BD10B504460121FFF702FF20B12E
S315080094C00521204604F0C1F805E001212046FFF7F2
S315080094D013FFFF2801D1002010BD02220021FFF74B
S315080094E0ACFF0121204604F0B0F80020FFF76AFE21
S315080094F0012010BD70B588B00025104C16E001A8F3
S3150800950000901923EAB21721684606F0E6FF00988C
S31508009510067E04F038F8C6F3C201814205D100235D
S315080095200022E9B20120FFF72BFF6D1C2178E8B273
S315080095308842E4D3002008B070BD0000A5FF0020D3
S3150800954044EC002068FB00202DE9F04FDFF8846624
S315080095508DB004463068C07E884691469A4650B11A
