S02200006D73642D6170702D626F6F746C6F616465722D737069666C6173682E73333741
S31508000000000400207500000881000008810000082F
S31508000010A70B0A0100000000010213620040000855
S31508000020040D00000F1A0008D51C0008CC050008AE
S31508000030AD0C00084B0D0008890D0008490E000894
S31508000040810B0008990E0008650F000800000000E3
S31508000050FFFFFFFF05480068202100EA010020B1E4
S315080000600348016842688D46104770472C000040D7
S3150800007000400008FFF7EEFF00F00DF800F040F82A
S3150800008005E00000854670474248008870474FF4EF
S31508000090017000F099B838B500F0C4F84FF20F04B3
S315080000A03D4D28B140F2052028806C80012032BDE4
S315080000B03A480068C00615D56888A0421ED1288827
S315080000C040F2022188421CBF40F20621884215D020
S315080000D040F2011188421EBFB0F58A7F40F2111125
S315080000E088420BD02E4C208A40F6A721884205D19B
S315080000F02068FFF7C7FF6068804700BF002032BD51
S3150800010038B50400274872B60168490849000160F5
S3150800011000F0CEF821480068000910F001000CBF75
S315080001202149224902E0CD2201F8012B204A9142B9
S31508000130F9D32049204A214B03E011F8015B02F864
S31508000140015B9A42F9D31E491E4A002301E001F8D1
S31508000150013B9142FBD3104A53884FF20F05AB423D
S3150800016040F205210AD113888B4205D030B1180A0E
S31508000170012818BF022801D1194601E004B9002157
S31508000180044801804CF23C30508000F0EFF9BDE89D
S3150800019032407CE774630020000000202C000040F9
S315080001A000400008FCED00E0000000209800002058
S315080001B0000400209C2A0008000400208004002077
S315080001C0800400207E6300200E4A302111600E4A0A
S315080001D011600E4A116010210D4A1160010A0029AA
S315080001E00C4908BF000208804FF20F004880BFF391
S315080001F05F8F094800210160416008480849086086
S31508000200704700003020004030C8004030C0004031
S3150800021010E00040000000201C4000400400FA05E1
S315080002200CED00E00020704780B500F0D3F90121FD
S31508000230062000F0E5F9062000F01FFA0121072044
S3150800024000F0DEF9072000F00DFA1748016821F0E2
S315080002501001016001BD0000052800D9704710B5DE
S31508000260DFE800F01721030F1C17104C2088411EE9
S315080002702180C0B9072000F00BFA42F210702080E6
S3150800028010BD072000F0F9F9BDE81040062000F07F
S31508000290FFB9BDE81040062000F0E4B9BDE81040FB
S315080002A0062000F0EAB910BD00BC004076630020C5
S315080002B0604951200860704738B55F49C9780429F4
S315080002C0B4BF302460244FF4F071B1FBF4F1451A41
S315080002D01E2DBCBF4FF40170FFF776FF5748584AEA
S315080002E0072101600021416081604FF000711160B3
S315080002F005FB04F1C91C8908491E416031BD4E4AF7
S3150800030001215170D8E72DE9F0414F4F4D4D7888BE
S31508000310494E4FF6FF78404540F2DC541CD14B4815
S31508000320018802237F22B81C00F0C2F9788840456C
S3150800033004BF02207880A869800703D4A86940F022
S315080003400200A8610120B070788828602046FFF76F
S31508000350D6FF2046BDE8F081A8698007EED5374864
S315080003600068C00348BF00F051F8B0780028F0D103
S31508000370A868A9687A8810F0010003D10F2A08D264
S31508000380521C06E0890704D5397811B1032AA8BF9B
S31508000390424492B2022A3870B8BF02227A8028688C
S315080003A079888842CED1A86900F00300032808D0CE
S315080003B0A869204940F00100A8610120E8615120A0
S315080003C008600020C6E710B504462148017869B9D7
S315080003D0C078072818BF092810D0032818BF112885
S315080003E00CD013281CBF15280B2807D019480168FC
S315080003F041F48071016001E000F090F92046FFF7B2
S3150800040082FF0100F8D110BD0220DCE70B480C4A38
S31508000410002141608160016821F00201016000212C
S31508000420054841704FF000711160817809B10021CB
S3150800043081707047008000407963002010E000E07A
S3150800044004ED00E0044000407C040020982A0008DF
S3150800045096070808384000400078704710B582B003
S315080004600446684600F0BCF900B1009820600020F8
S31508000470A080E080208113BDF8B504460D461646D7
S31508000480002711E02068803020600020E08080206E
S315080004902081A088401CA080BFB2E088411C20446F
S315080004A0E180807AE8557F1CB8B2B0420CD2E08869
S315080004B021898842F0D32068802204F10A0100F0DD
S315080004C044FC0100DED0F2BD0020F2BD17207047C3
S315080004D010B500F0C4F900F045F904E00220FFF772
S315080004E0BBFE00F080F800F03DFD0028F6D10021A3
S315080004F000F050FE1B4C02E00320FFF7ADFE00F0B3
S3150800050072F800F052FE08B901F058F900F056FEEC
S3150800051020780028F0D00520FFF79EFE002010BDA9
S3150800052070B5DAB0044636A8FFF798FF01200090A8
S315080005304FF402630C4A36A901A801F068FA0FF2D3
S315080005408C050FF27C0600F04EF8200014BF3246E8
S31508000550002201A9284601F0BDFB5028F3D05AB065
S3150800056070BD0000210B0020545B002010B5FFF77A
S315080005708BFD044601F0CBFBFFF756FE00F096FB19
S3150800058018B14FF40170FFF71FFE00F02CF840F287
S31508000590011084421CBF40F21110844209D0B4F500
S315080005A08A7F1FBF40F20520844240F2032084421E
S315080005B001D1012000E0002001F0ABFB002010BDB6
S315080005C01728000853280008590400087904000869
S315080005D0CD0400082048012181604EF6BE21416005
S315080005E00121016070471D49012008607047A52850
S315080005F005D119484DF6AD61416002210160704789
S31508000600F0B5C2085202164CA518830010F0040073
S3150800061014BF6E68A65803F00C030F279F40BE430D
S315080006209940314308B16960F0BDA150F0BD012180
S3150800063000F0070291400A4AC00802EB40204161D7
S315080006407047012100F007029140054AC00802EBF5
S3150800065040200161704700000060004008600040CB
S3150800066000B000401149C20801EB4221012200F006
S31508000670070002FA00F0486170470C49C20801EB0E
S315080006804221012200F0070002FA00F008617047D3
S31508000690C108064A02EB41210123CA6800F0070097
S315080006A003FA00F05040C8607047000000B00040F0
S315080006B030B5044610467F2808BF00204BF2346246
S315080006C0914283B01AD108237F2240F61201684668
S315080006D0FFF7EEFF08220FF23C01684601F063FBC4
S315080006E030B908237F2240F2A2716846FFF7E0FF7F
S315080006F008226946204601F036FB37BD044D2943DA
S3150800070000FB03111A46204601F02DFB37BD0000F9
S3150800071000000808FFFFFFFFFFFFFFFF07490A6801
S31508000720032809D34B6D43F001034B650B689B1AED
S31508000730C3F313038342F9D37047000038200040FF
S3150800074010B5984B9B695418A34201D2002010BDDE
S315080007508160012101754FF4804101615102C16038
S31508000760012010BD10B5A520FFF741FF8D4C60682C
S31508000770C168002000F090FBA0698B498B4CC874B7
S315080007804022000A0875002000F0FEFA5521A170E3
S31508000790FF20AA2120706070E1706071A071F821B5
S315080007A000202171E071082221464FF4FE7000F006
S315080007B0EBFA4FF48051204601F008FB40F6FC1294
S315080007C021464FF4017000F0DFFA4FF480522146BB
S315080007D04FF4406000F0D8FABDE81040FFF7FABEC3
S315080007E070B50446ADF5007D00F060FA4FF400726E
S315080007F069464FF4606000F0A8FA6D460020E97A71
S315080008000F291CBF2978E52912D0297F6A7F41EA7A
S315080008100221AA7F41EA0241EA7F41EA0266297A71
S31508000820452901BF697A4229A97A4C2900D13EB9DE
S315080008302035401C712803DA7028E0D1002008E032
S31508000840A87EE97E40EA0120400200F5C0502060FB
S3150800085030460DF5007D70BD52488069704710B569
S3150800086000F024FA18B14FF40170FFF7ADFC00F060
S3150800087087F94C4C606000280FBFA0608168A160B2
S315080008804088208000F0F0FA400AA061012010BDDF
S3150800089080685206120C400200F057BA2DE9F04162
S315080008A08068404D520240022A61E860884692B24A
S315080008B000F06AFA002872D0287880076FD5AA68EF
S315080008C0002A6CD0E968394E501E21EA0000884299
S315080008D0686127D00C1A2F69111B8F4228BF171B76
S315080008E092B2314600F031FA00F06AF8BAB24146DF
S315080008F0301901F038FAAA68686992B2314600F0F0
S3150800090043FA2869A968BFB2C01B2861B844686958
S31508000910081806E0A8682969091A296180446969DE
S31508000920401868612A69002A39D000F04DF8002875
S3150800093035D0A868296988420FD200F013FB002831
S31508000940FBD100F03DF800F00DFB0028FBD1AA68AA
S3150800095000F03AF80028DDD0FEE700F003FB002897
S31508000960FBD100F025F800F0F0F900F0FBFA0028BA
S31508000970FBD100F025F800F0F5FA0028FBD12A692A
S3150800098000F022F800B1FEE700F0ECFA0028FBD1EF
S3150800099000F00EF800F0F8F900B1FEE72861BDE8AE
S315080009A0F0810000384B00203C040020544B002006
S315080009B02869A9686B690A1A92B23146C018704745
S315080009C0A968686900F068BA686992B2414600F099
S315080009D0DBB9000010B5044602E0FF2001F0FAF981
S315080009E02046441EC0B20028F7D110BD10B50446F3
S315080009F001E001F0F5F92046441EC0B20028F8D1FE
S31508000A0010BD10B504462002000E01F0E3F92004DB
S31508000A10000E01F0DFF9E0B2BDE8104001F0DAB9E6
S31508000A2010B501F0DDF9044601F0DAF940EA0420D0
S31508000A3010BD80B501E080B5FF2001F0CBF9BDE817
S31508000A40014001F0CDB938B501F0D1F99F20FFF783
S31508000A50F0FFFFF7F0FF04460220FFF7BBFFFFF7A2
S31508000A60DFFF054601F0C5F9012C0AD01F2C3ED040
S31508000A70202C4FD09D2C60D0C22C15D0EF2C06D040
S31508000A8072E044F2140085426ED1012032BD43F271
S31508000A901200854204D044F21400854202D063E075
S31508000AA0022032BD032032BD42F212002D1A10D0A8
S31508000AB06D1E10D06D1E10D06D1E12D04FF4A4609E
S31508000AC02D1A10D040F2DF202D1A08D0ED1E0CD0BA
S31508000AD04AE0042032BD052032BD062032BD07207B
S31508000AE032BD082032BD092032BD0A2032BD44F28B
S31508000AF00140854208D044F20150854208D048F2A8
S31508000B000140854202D02FE00B2032BD0C2032BDB9
S31508000B100D2032BD42F212002D1A06D06D1E06D0E7
S31508000B206D1E06D06D1E06D01EE00E2032BD0F20AB
S31508000B3032BD102032BD112032BD44F209002D1AF3
S31508000B4008D0ED1F08D06D1E08D06D1E08D06D1E8A
S31508000B5008D009E0122032BD132032BD142032BD60
S31508000B60152032BD162032BD002032BD80B501F0F9
S31508000B703EF90620FFF75DFFBDE8014001F039B9EF
S31508000B8080B500F0EFF90028FBD1FFF75CFF401EA7
S31508000B9015284ED8DFE800F00B0E1114171A1D2081
S31508000BA02326292C2F3235383B3E4144474A0FF23B
S31508000BB0D43002BD0FF2E43002BD0FF2F83002BDA8
S31508000BC00FF2084002BD0FF21C4002BD0FF22C4086
S31508000BD002BD0FF2404002BD0FF2504002BD0FF2B7
S31508000BE0644002BD0FF2744002BD0FF2884002BD98
S31508000BF00FF2984002BD0FF2AC4002BD0FF2BC40A6
S31508000C0002BD0FF2D04002BD0FF2E04002BD0FF266
S31508000C10F44002BD0FF2045002BD0FF2185002BD97
S31508000C200FF2285002BD0FF23C5002BD0FF24C5095
S31508000C3002BD002002BD000010B5044600F092F97E
S31508000C400028FBD114B9FFF7FEFE05E02078010065
S31508000C5002D1FFF7F8FE2070401E152824D8DFE8D9
S31508000C6000F01A141A14171A1A1D1D2017171A1429
S31508000C70171A1D0B0E1114174FF4004010BD4FF430
S31508000C80803010BD4FF4003010BD4FF4802010BDE9
S31508000C904FF4002010BD4FF4801010BD4FF4001023
S31508000CA010BD4FF4000010BD002010BD10B501F0B6
S31508000CB0B7F801F0A2F801F0C8F801F0CAF842F254
S31508000CC01074204601F0BEF801F091F8AB20FFF74A
S31508000CD0B0FE01F08EF8204601F0B4F8FFF7B3FE37
S31508000CE008B9862010BD0B3803280BD2FFF73EFF44
S31508000CF001F07DF80120FFF79CFE0020FFF799FE22
S31508000D0001F077F8002010BD38B50446B4F5004F59
S31508000D100D46104603D2C4F50041A94206D2FFF794
S31508000D208BFF844204D2001BA84201D3012032BDA6
S31508000D30002032BD10B50C46FFF77BFE2046FFF7B4
S31508000D4060FEBDE81040032050E670B50D4600F081
S31508000D5076F808B9852070BD00F004F90028FBD1A3
S31508000D6001F045F821460320FFF7E4FF03E0FFF70B
S31508000D7062FE05F8010B3046461E80B20028F6D101
S31508000D8001F037F8002070BD2DE9F84F894600F0CC
S31508000D9056F808B9852050E0374600F0E3F80028F1
S31508000DA0FBD101F024F821460320FFF7C3FF38469C
S31508000DB0471E80B228B1FFF73EFEFF28F7D08720EE
S31508000DC03BE001F016F8200640F201174FF4807850
S31508000DD008D0200A000200F580703119814203D339
S31508000DE0051B04E0BE4201DA354600E04546300000
S31508000DF022D0AB46CA4600F0B5F80028FBD1FFF76B
S31508000E00B5FE00F0F4FF21460220FFF793FF03E04A
S31508000E101AF8010BFFF70DFE5846A0F1010B80B238
S31508000E200028F5D1761B00F0E4FFADB22C19B6B256
S31508000E30BE42A944DADAD7E70020BDE8F28F1646A3
S31508000E400446002231465FE780B500F08BF800289B
S31508000E50FBD100F0CCFFB920FFF7EBFD00F0C9FF8E
S31508000E60BDE8014000F0F8BF80B5FFF789FEC0680D
S31508000E7002BD38B504460D4600F074F80028FBD1CB
S31508000E80FFF774FE00F0B3FF29462046FFF752FF2E
S31508000E90BDE8314000F0ADBF2DE9F8430446002017
S31508000EA08DF800000D466846FFF7C6FE9DF800104F
S31508000EB08046A1F10E0240F6FF764FF6FF70042A2F
S31508000EC04FF48037814638BF064607D3A1F1120092
S31508000ED002283CBF4FF4004747F6FF79354218BF52
S31508000EE082203DD1344218BF812039D16A46A9B241
S31508000EF02046FFF709FF08B9852031E0BCB945450A
S31508000F0015D100F02FF80028FBD1FFF72FFE00F0CF
S31508000F106EFFC720FFF78DFD00F06BFF1FE021462F
S31508000F202020FFF7A6FF04F58054A5F58055002D6F
S31508000F3018BF14EA090FF2D1BD420ED32146D820B4
S31508000F40FFF797FF3C19ED1BF6E721462020FFF730
S31508000F5090FF04F58054A5F58055002DF5D10020A5
S31508000F60BDE8F28310B500F042FF0520FFF761FDEA
S31508000F70FFF761FD044600F03CFF14F0010018BFBE
S31508000F80012010BD020203009A01003C0010000077
S31508000F9000001000A028000801000000020203005B
S31508000FA09A0100080010000000000400AC280008A0
S31508000FB001000000020203009A0100180010000058
S31508000FC000001000B8280008010000000202030013
S31508000FD09A01340F0010000000000400C42800081D
S31508000FE001000000020203009A01001E0010000022
S31508000FF000000800D02800080100000002020300D3
S315080010009A01003C0010000000001000DC280008CF
S3150800101001000000020203009A0100780010000097
S3150800102000001000E8280008010000000202030082
S315080010309A0100780010000000002000F42800083B
S3150800104001000000020203009A010050001000008F
S315080010500000200000290008010000000202130019
S315080010609A01F00000100000000080000C2900081A
S3150800107001000000020203009A01001C0010000093
S3150800108000000800182900080100000002020300F9
S315080010909A0100300010000000000800242900080A
S315080010A001000000020203009A010070001000000F
S315080010B000001000302900080100000002020300A9
S315080010C0000C001800000100000004003C2900087C
S315080010D00100000002020300000C002800000100C5
S315080010E0000008004429000801000000020203006D
S315080010F0000C005000000100000010004C290008F8
S315080011000100000002020300000C00A0000001001C
S315080011100000200054290008010000000202030014
S315080011209A01000200100000008000005C290008F7
S3150800113001000000020203009A01000400100000EA
S3150800114000000100682900080100000002020300EF
S315080011509A01000600100000000002007429000829
S3150800116001000000020203009A01000800100000B6
S3150800117000000400802900080100000002020300A4
S315080011809A01000C00100000000008008C290008D5
S3150800119001000000DFF83405002181760FF28C513A
S315080011A041620FF2485000F019BFDFF82005807E33
S315080011B0062801D1012070470020704770B5DFF876
S315080011C00C45DFF80C55A07E0FF29D06062804D0C4
S315080011D036D308282ED022D332E0E068A0B12169A0
S315080011E0884228BF0846A0620020A076607818B119
S315080011F000F034F8FFF74CFBA16A0FF2A94204F19C
S31508001200300000F000FA1BE0207EA076A07E0328BE
S3150800121010D0A07E052813D100F0C5F810E000F024
S315080012201DF8FFF73BFBA068A16A00EB5120A06000
S31508001230062004E000F053F900F00AF80120A07631
S31508001240A07E012803D0A17E481E8041C00F70BD34
S3150800125033461F222946052000F0E2BFA06A420A4B
S3150800126004F130012046704738B5DFF86044A27EA5
S31508001270012A08BF002873D11F2901BFDFF850547F
S315080012802868DFF8501488426AD1287B7F210842F3
S3150800129004BF687B002863D1A87B400960D100F0B1
S315080012A0A1F82178481E8041DFF82C14C00F087376
S315080012B0DFF82804086068684860A8688860A8B1EC
S315080012C0287B6378C009984203D002220A7340BB80
S315080012D03FE00028A86808D140B1E068AA688242C1
S315080012E02BD10320A076E06824E080B9E06848B1F5
S315080012F00220087300F0F3F8DFF8E433FFF7A9FFDC
S31508001300012038E0207D0128F4D1082033E0E06888
S31508001310AA688242E5D0904207D210B10521A1768B
S3150800132008E000F040F8042025E0022008730320B6
S31508001330A076104600F074F91EE0904207D201200C
S315080013400873052000F012FE00F0C9F814E0022028
S315080013500873052000F00AFE00F0C1F800200AE034
S3150800136000F0FFFD042807D1052000F0FFFD8520C9
S3150800137000F0FCFD0220A076002032BD80B5852055
S3150800138000F00DFE052000F00AFE00F005F8CF4932
S3150800139001208876002002BDDFF84433CC491F229D
S315080013A0052000F03DBF80B5852000F0DFFDC84868
S315080013B0C07B2A2818BFAA2807D0282818BFA8281B
S315080013C003D01A2818BF5A2802D14FF4FA7001E040
S315080013D04FF49670FFF7A2F9852000F0E0FDBDE80E
S315080013E001407CE038B5B94CB94D00202070207515
S315080013F04FF400402061287BEA7B297CC009002A3B
S3150800140060D0032A1DD0122A08D01B2A60D0252AAC
S315080014102BD0282A3FD02A2A52D047E0C80745D4DD
S31508001420687C002842D10120207060700FF2D82015
S315080014306060688A40BA25283ABF688A40BA24207C
S3150800144044E0002904BF687C00282FD1A87C68BB2B
S31508001450012020706070606A6060E87C132828BFED
S315080014601220E0600FF2C42028E0E87DC0071DD4F2
S31508001470D5F81100D0B9FFF7EFF9401E00BAE061C0
S315080014804FF40030206201202070607004F11C00C7
S31508001490606008201AE001206070E88A42BAD5F830
S315080014A0110001BA2046FFF74BF92070207830B9B1
S315080014B0E060287BC00960700FF28420606231BD4D
S315080014C00020E9E76070012121700020E06031BD4D
S315080014D0607001210020E0602170217531BD7E49D0
S315080014E0087B01280CBF7F4B00230D22852000F0C6
S315080014F063BE2DE9F04104466FF002052178744E6B
S31508001500DFF8DC81714F212904BF6078FF2818D1E4
S315080015106088002804BFA088002812D1E08880B916
S31508001520F96A0023002200F047FE852000F037FD07
S31508001530052000F034FDB87E0025022843D1BD768B
S3150800154041E0C1F3411001281AD1C80918D001F0A9
S315080015501F00012804BF6078FE2811D16088002882
S3150800156001BFA0880028E088012833D10020F8624E
S315080015700023012207F12C0100F01EFE054622E099
S31508001580022904BF6078012824D16088002804BF96
S31508001590E08800281ED1A08800F0FF01052918BFA1
S315080015A0852917D1B97E0025022913D000F0FF003E
S315080015B000F0F5FC05462079852804D1B87E042874
S315080015C008D1FFF78CFF43461F223146FFF7E8FE96
S315080015D00120B8762846BDE8F08110B504293B4CB1
S315080015E005D1FFF7D9FE0120A076002004E00428E3
S315080015F004D10020A0760120607610BD0629FCD112
S315080016000020A07610BD314B5B78002B13460A46A6
S3150800161001461CBF852000F0CFBD052000F000BEA6
S3150800162001462A482A4A2C4BC16092689A60027D74
S31508001630012A04D1817E01760621817670470269E6
S315080016404068914228BF11460FF20502DBE7000009
S3150800165070B51E4CE068431A1F48E3608268521A48
S3150800166082605BB16068204A0844216960608B42E9
S3150800167028BF0B461946FFF7C6FF10E0A07E144D9B
S31508001680174E032802D1FFF72AFF04E0A07E05289B
S3150800169005D1FFF788FEFFF7DBFD0120A0760020C5
S315080016A070BD00000948C268521AC2600A4A9368A7
S315080016B05B1A936042782AB1826802EB51218160F5
S315080016C0062100E00721817600207047080B0020DC
S315080016D0D80A002055534243F80A0020555342536E
S315080016E0691200087D130008511600089829000899
S315080016F0AC290008702A000804000000802A0008A7
S31508001700842A000800000000008005021F0000006F
S315080017102020202020202020454D333538204D53C9
S315080017204420446576696365312E303070000000C8
S315080017300000000A00000000000000000000000091
S31508001740700005000000000A0000000024000000E8
S3150800175000000000002180F83410011D0160704768
S315080017608278007801219140C943834A18B11068EC
S315080017700840106002E0506808405060002070473A
S3150800178010B5002100F00F020D2A01DB002010BD64
S315080017907A4B1B681A44AC3204064CBF1278527B4B
S315080017A02AB128205043184400F1340104E00F22DE
S315080017B0104208BF03F13401084610BD2DE9F04771
S315080017C082B000F0ADF86E48D0F80080C0F800800E
S315080017D0B8F1000F77D06B4D684EE96849084900A3
S315080017E0E96040685FEAC8201BD57F20E861306859
S315080017F0FFF7B0FF306800F13407002087F82000B3
S315080018003861012038703846FFF7AAFF0020387083
S315080018103846FFF7A5FF3068006B0068010018BF5F
S315080018208047286B50B90120E8613068FFF792FFBE
S3150800183030683430002180F82010016118F47E5F8A
S31508001840514F3ED000244FF08009DFF840A11FFA1F
S3150800185089F918EA090F2FD04D4850F8240000904E
S31508001860E0B2FFF78DFF3860026900998A4234BFFB
S315080018701146009900F04EF890F82010022907D179
S31508001880009A81785AF82110806892B200F06BFAB3
S315080018901CB9306800F07CFD03E03868C07800F0B9
S315080018A010FE009A5AF8240092B2002100F074FA49
S315080018B040F20110A0402860641C072C4FEA490931
S315080018C0C5DB18F07F0F23D000250124DFF8C4906C
S315080018D0A4B218EA040F17D045F08000C0B2FFF78B
S315080018E04FFF3860026959F825108A4234BF1146FD
S315080018F059F8251000F00EF81DB9306800F048FDBB
S3150800190002E0C07800F0DDFD6D1C6400072DDFDB0A
S31508001910BDE8F387521A0261426989184161704726
S3150800192010B51D481D4C4FF40041C16008210160E7
S315080019301B48A168C90811F0010101700DD000F01B
S3150800194010FB042816D0206820F4706040F48070DC
S31508001950206004202061032008E0206820F47060DD
S3150800196040F480602060042060610020BDE81040DB
S3150800197000F0E2BA10BD00005410014038040020FF
S3150800198088A8004048100140B80A0020000400203A
S31508001990781001401010014014A8004000B0004023
S315080019A078630020F8B504460D4616461F4607E03C
S315080019B03046A047294600F0E5FD05467F1E761C01
S315080019C0B8B20028F4D12846F2BD38B50C461546FB
S315080019D005E0014614F8010B00F0D4FD6D1EA9B20E
S315080019E00029F6D132BDF8B504460D4616461F46FF
S315080019F0286823683A4631469847040005D1E868BE
S31508001A003A463146FFF7E1FFE8602046F2BD10B5D9
S31508001A10029C84720381426001604FF0FF31C1600D
S31508001A200021017410BD2DE9F84F8B4604469BF83A
S31508001A301B70D068A349802FA8BF802788421E46FE
S31508001A4053D1002E4FD0B06800904FF0FF384FF0BA
S31508001A5000090BEB490000F1480A9AF800500DE01E
S31508001A60FEF7C1FDE80240F0006200984FF40063FB
S31508001A704146FFF797FF6D1C8046ADB29AF8010004
S31508001A80A84205DA09F10109B9F1060F02DAE0E719
S31508001A90FF2DE5D1DBF844006FEA0801884224D11E
S31508001AA0A068736800BA7A0859469847C8B9E068C2
S31508001AB005BAA06802BAB0683B464FF0FF31FFF797
S31508001AC071FFC04385420CD140F6A720ABF8100041
S31508001AD00122A068736800BA0BF11001103098470C
S31508001AE008B1422002E0172000E04320BDE8F28F4B
S31508001AF02DE9F04F894609F1040583B08046D5F8EB
S31508001B0000A0A888ADF804001646042352464046AD
S31508001B10FFF769FF010076D1BAF8000040BA80B233
S31508001B200090BAF8020044BAA4B2E00706D50098B5
S31508001B304FF20861884218BF462064D1B4F5026F97
S31508001B40C8BF4E205FDC002C5CD00098DFF878B167
S31508001B5009F13C0748B14FF60441401A00F0988055
S31508001B60FF3854D0FE3852D0AAE0287B08B151205D
S31508001B7049E08D2C28BF4F2045D2234609F118028B
S31508001B8000F0A5F801003ED1FA78802AA8BF802285
S31508001B9002F10C00844201BFA88A40BA00F47F40D3
S31508001BA0B0F5007F31D1E88A40BA4EF2503188420A
S31508001BB002BF288E40F6A721884226D1688E00F4F7
S31508001BC07F40B0F5807F01BFA86900BADBF81C101A
S31508001BD088421AD14FF6FF70288609F124014FF082
S31508001BE0FF30FFF7F2FEE96909BAC943884204BF24
S31508001BF03878042809D178780D2818BF062804D122
S31508001C00012028730020BDE8FE8F4520FBE7287BCE
S31508001C1000283FD0042300F059F80100F3D1DAF880
S31508001C20000005BADBF81C00241F8542A4B238BFA1
S31508001C304820E8D3F96B6019884228BF4920E2D2C8
S31508001C4000984FF6035188420AD14EB132682946A8
S31508001C500220904720B14A20D5E7E41BA4B27D199B
S31508001C60002CCFD0BDF804008442B4BF27460746EF
S31508001C703B4600F02BF80100C5D1002EEDD0736865
S31508001C807A085146284698470028E6D04B20BAE7F6
S31508001C90287B08B94120B6E7042C18BF4C20B2D1DE
S31508001CA02A68042300F013F80100ACD133464A46EB
S31508001CB009F1240109F1140003B0BDE8F04FB2E6BA
S31508001CC04420A0E7E320BBDE000000085246494650
S31508001CD0404688E670B50D4604462889802816468B
S31508001CE003DA4F2070BDA87A78B9324629462046CD
S31508001CF0FFF7FEFE0028F6D0172807D12868616886
S31508001D008847172802D1002070BD502070BDFEF705
S31508001D107BBB10B504460020FEF79EFA44B1FEF7D9
S31508001D20D7FB0028FBD140F20220FEF74DFAF6E772
S31508001D300020FEF7F5FB50B90120FEF7F1FB30B99C
S31508001D400520FEF789FA40F20120FEF73DFA042045
S31508001D50FEF782FA0120FEF77FFABDE8104040F24E
S31508001D600320FEF731BA814212D210441144401EB4
S31508001D70491E93B2002B1EBF11F8013900F801392C
S31508001D80521EF6D1704711F8013B00F8013B521E6E
S31508001D9093B2002BF7D17047130003D00A461946B1
S31508001DA000F002BC704710B500E0521E93B223B192
S31508001DB000F005F8F9D0181B10BD002010BD10F86A
S31508001DC0013B11F8014BA34270470000002200F0C6
S31508001DD01FBC000017494A685207FCD508607047BF
S31508001DE0144841688907FCD50068C0B27047124993
S31508001DF000E0124910200860704780B509210920C3
S31508001E00FEF7FEFB04210A20FEF7FAFB09210B2048
S31508001E10FEF7F6FBBDE8044001210C20FEF7F0BBF7
S31508001E2007480021C160016141601021416002211B
S31508001E30016070473CC8004014B2004010B2004030
S31508001E4054C8004080B2FEF769BC01210F20FEF796
S31508001E50D7BB0F20FEF7F5BB0F20FEF7E8BB000047
S31508001E6081780078DFF84424002814BF1068506889
S31508001E70C84000F00100704770B50446DFF83054DA
S31508001E80A0782178DFF82C34020011D1A1B3A689F5
S31508001E902069864288BF064626B1A1681868F2B24C
S31508001EA0FFF761FFA0683044A060AE6001201AE029
S31508001EB0D9B1A68921698E4288BF0E46002E1CBF5D
S31508001EC0A168002904D053F82000F2B2FFF74BFFAF
S31508001ED0A068A1783044A060DFF8DC0340F82160F0
S31508001EE00120A1788840286070BD296C40F2011253
S31508001EF002FA00F00843286470BD10B5002100F00E
S31508001F000F020D2A01DB002010BDDFF8B0331B6875
S31508001F101A44AC3204064CBF1278527B2AB12820E8
S31508001F205043184400F1340104E00F22104208BF60
S31508001F3003F13401084610BDDFF88013096801F182
S31508001F401F0306281A7808BF5A709A701870096B0A
S31508001F504B68190018BF824202D00146104618473E
S31508001F607047DFF858030068C07F704710B500F067
S31508001F7033F8040004BF4FF40170FEF725F9A17881
S31508001F80227801208840DFF824131AB10A68104322
S31508001F90086002E04A6810434860002010BD10B58A
S31508001FA000F01AF8040004BF4FF40170FEF70CF9AC
S31508001FB0A178227801208840C043DFF8F0121AB1D0
S31508001FC00A681040086002E04A681040486000202D
S31508001FD010BD0C4615461E46C0B28EE72DE9F84FD1
S31508001FE00546B64E00F02EFB3068C8220021FFF7E2
S31508001FF0D3FE3068011D01600722296841624FF04F
S31508002000010A696881620027A968C162D346297BEB
S315080020108177306800F11D018A700022CA700A7142
S315080020206A69026300220A70012100F8342FC1810F
S3150800203082600821818182700221C2700271427118
S315080020400261426180F820204262C1619046306890
S31508002050846A608820449146009014E02B69DB5D11
S315080020609208521C5A43C26109F1010932681144A7
S3150800207081F8B97080780628A4BF4FF40170FEF77E
S31508002080A3F8207804440098844238D2207808B906
S3150800209000F0C2F860780528F3D17F1C3068282143
S315080020A079430844A178C90900F8341F00230021A0
S315080020B08160A178C17001F00F010BFA01F2C281AB
S315080020C08170E27802F003020271A288036143611B
S315080020D080F82030436282810378002BBED09208B4
S315080020E080F805A008F101082B69DB5D5A43C26137
S315080020F00AF1010A3268114481F8AC70BAE7022F76
S315080021001CBF4FF40170FEF75FF8B8F1060F24BF45
S315080021104FF40170FEF758F8B9F1060F24BF4FF4D3
S315080021200170FEF751F86748674C4FF400250560C3
S31508002130002060604FF0FF38C4F8008001210120BC
S3150800214000F0B6FA48B96060C4F8008001215F481B
S315080021505B4A60605E48056012E000F05DF86FF06B
S31508002160030027E0536885780BFA05F52B4353607F
S3150800217080256368807805FA00F018436060491C7A
S31508002180C9B20846874212DB3368282568431844D3
S3150800219010F8343F002BE5D0136885780BFA05F55F
S315080021A02B431360636880780BFA00F0E5E700F0CC
S315080021B06FFA0020BDE8F28FF8B5FFF70AFF0700AF
S315080021C004D100F029F86FF00300F2BD002C1EBF01
S315080021D014F003004FF40170FDF7F6FF3846FFF7D9
S315080021E03FFE00B151E097F8200000B150E0B87802
S315080021F000281FBF31480068C07F042800D04AE085
S3150800220000F03DF810B90120387003E0387808B9B5
S3150800221000F002F8012041E04FF40170FDF7D4BF49
S31508002220F8B5FFF7D6FE070004BF4FF40170FDF7B7
S31508002230CBFF002C1EBF14F003004FF40170FDF70E
S31508002240C3FF3846FFF70CFE00B11EE097F82000E2
S31508002250012800D11CE0B87800281FBF174800687D
S31508002260C07F042800D016E000F009F808B93870D5
S3150800227003E0387808B1FFF7CFFF02200EE0002010
S315080022807861BC603D61B87870476FF00400F2BDB4
S315080022906FF00100F2BD6FF00800F2BD87F820006C
S315080022A07E623846FFF7E8FD0020F2BD5410014073
S315080022B0081001401C0400201010014038040020BA
S315080022C04C10014080E100E088A800408100100021
S315080022D000E100E0002180F83410011D016070471C
S315080022E082780078012191409F4A18B11068084306
S315080022F0106002E05068084350600020704770B5CF
S315080023000446A078010003D12046BDE8704026E0C7
S315080023102178964DD9B1A68921698E4288BF0E4685
S31508002320002E1CBFA168002905D0914B53F8200048
S31508002330F2B2FFF718FDA068A1783044A0608D4876
S3150800234040F821600120A1788840286070BD296C7A
S3150800235040F2011202FA00F00843286470BD38B54D
S315080023600446207890B1A5892069854288BF05462C
S315080023702DB17F48A1680068EAB2FFF7F4FCA068AF
S315080023802844A060012179488560016031BD0000BC
S31508002390F8B5794EB368074607F1540507F13404D2
S315080023A02878032818D8DFE800F0025B377A00207F
S315080023B020616070B06030707048006800287BD07B
S315080023C0384600F0BDF910F1010F06D100F075F896
S315080023D000202070381D3860F1BD2878022802D107
S315080023E06868B060F1BD012804BF6868B0602069FC
S315080023F060B13968C98888425ED2A189B0FBF1F21A
S3150800240001FB1200002857D101203CE0381D386036
S31508002410607800284DD11CE0206910B1002020709A
S3150800242020E01800564F10D0616900220020984716
S315080024300021B16048B100F040F8002000F03EF8F5
S315080024403868FFF747FF002027E03868FFF742FFA4
S3150800245000202870002300220021FFF7ADFE1BE0B4
S31508002460206918B12046BDE8F24078E7607801286F
S315080024700BD16069706000230020287000220021BB
S31508002480FFF79AFE02206070F1BD18B960697060A6
S31508002490012060700120307003202870F1BD30786B
S315080024A008B1381D3860180003D071680022002072
S315080024B09847002028702070F1BD01202070204622
S315080024C00EE738B5002400F00F010D2913DA2C4A5F
S315080024D012681144AC3103064CBF0978497B29B10F
S315080024E028204843104400F1340404E00F21084230
S315080024F008BF02F1340494F82000012805D12069A8
S3150800250010B32046BDE83240F9E602282AD12269EE
S31508002510D2B11A4DA07855F82000A18980188842B2
S3150800252008D2636A18001DD0002060626FF00B00A5
S31508002530616913E02046FFF7E2FEA068A17855F826
S3150800254021100844A06031BD002084F82000636A89
S31508002550180007D0002022696169606201B0BDE8F1
S315080025603040184731BD00005410014008100140A2
S315080025701C04002010100140BC0A002078100140FD
S31508002580380400200A0A484000F0FF0008214308E2
S31508002590C00746BF034858401846491EF7D1504061
S315080025A0704700002083B8ED62F30F2262F31F42E2
S315080025B0401810F0030308D0C91A1FD3DB0748BF19
S315080025C000F8012D28BF20F8022D130030B4144658
S315080025D01546103928BF20E93C00FAD8490728BF14
S315080025E020E90C0048BF40F8042D890028BF20F8D0
S315080025F0022D48BF00F8012D30BC7047C91818BF16
S3150800260000F8012DCB0728BF00F8012D7047000000
S3150800261000B500BF130096469446103928BFA0E8B7
S315080026200C50FAD85FEA417C28BF0CC048BF40F876
S31508002630042BC90728BF20F8022B48BF00F8012B36
S3150800264000BD0000104842F6E06101600C214160BF
S31508002650782181604FF49661C1600C4881698908C8
S3150800266089008161016A41F001010162816921F0F5
S3150800267070018161816941F030018161016841F031
S315080026800101016070470000C80A002000F0004000
S3150800269080B500F024F82248007840B12148016846
S315080026A021F4706141F4807101600421016101BD6A
S315080026B010B51C481C4C0168002101604FF4AE623D
S315080026C001680021016019482060FFF765FBE06D8D
S315080026D020F0050040F00100E065002010BD10B5AF
S315080026E01048134B0168134C21F4704141F48041A2
S315080026F00160002210498A654FF400421A600823D7
S315080027000B60CA600323236060238B6580680449D5
S31508002710C00800F0010008700848026010BD0000FB
S315080027207863002000B000400010014080040020BB
S3150800273080E100E024BC004014A8004000E100E06D
S3150800274038B504460E4D05F108002060206B8168F7
S31508002750080005D005F10800884710F1030F0DD1D0
S31508002760297AC1F34111002904BF697A06294FF075
S31508002770FF3003D12046BDE8324003E032BD0000F9
S3150800278080040020F8B506683178002400251F2249
S3150800279011424FF0FF372AD1C90928D0718801F0B4
S315080027A0FF02090A012904D014D303290BD003D345
S315080027B010E0E2B9456A0CE0CAB9856A6C8804205B
S315080027C0FFF7BAFB06E0817F8A4210DAC06A50F842
S315080027D022502C7820000AD0F088844228BF04466C
S315080027E00023224629460020FFF7E6FC0027384644
S315080027F0F2BD00002748018A40F6A772914202BF3F
S31508002800408A4FF47F41084203D1022801DB0120A8
S31508002810704700207047F8B504461D4E01203070F9
S315080028200D46FFF7E7FF18B94FF40170FDF7CCFC2A
S315080028301848876A294644F48070B84700213170E1
S315080028400FF2540618B9294644F40070B847305CAC
S31508002850F2BD2DE9F041044688465600FFF7CAFF47
S3150800286018B94FF40170FDF7AFFC0A480FF22805B6
S31508002870476A0023324641462046B84720B93346C0
S31508002880002241462046B847285CBDE8F081000092
S315080028907D63002000000808000202024B4B4647F1
S315080028A0533235464C3230384B00000057323558D3
S315080028B03230425600000000573235513830425601
S315080028C0000000004D5832354C3230303645000095
S315080028D04D5832354C343030364500004D58323577
S315080028E04C383030364500004D5832355238303382
S315080028F0354600004D5832354C31363036450000E5
S315080029004D58323555313633354500004D58323538
S315080029105236343335460000415432354446303455
S3150800292031410000415432355346303431000000FD
S315080029304154323544463038314100004D32355025
S31508002940323000004D323550343000004D323550AB
S31508002950383000004D323550313600004953323593
S315080029604C51303235420000495332354C513531DD
S3150800297032420000495332354C5130313042000062
S31508002980495332354C5130323042000049533235C2
S315080029904C51303430420000120100020000000899
S315080029A0C41004000000010203010000090220000F
S315080029B0010100C0190904000002080650000705B5
S315080029C005024000000705850240000004030904CB
S315080029D03403530069006C00690063006F006E00E1
S315080029E020004C00610062006F00720061007400F4
S315080029F06F007200690065007300200049006E00D0
S31508002A0063002E00000000004A03530069006C00B2
S31508002A10690063006F006E0020004C0061006200D0
S31508002A207300200055005300420020004D0061004D
S31508002A30730073002000530074006F007200610079
S31508002A4067006500200044006500760069006300A1
S31508002A50650000001A0330003000300030003100F5
S31508002A6032003300340035003600370038000000E5
S31508002A70CC290008D0290008082A0008542A00088A
S31508002A800102020000000000DB150008F31400082C
S31508002A900000000000000000EE0800008804002086
S31508002AA098040020A8040020F00400205005002007
S31508002AB0B0050020F00700208004002090040020C4
S31508002AC0A0040020B0040020300500207005002076
S31508002AD0F0050020F0090020EB3C906D6B646F73E5
S31508002AE066730000020101000170000008F8060084
S31508002AF0200040000000000000000000000029E857
S31508002B00963D1820202020202020202020204641E5
S31108002B10543132202020FFFF0100FFFF97
S705080000757D
