S0100000656D3236302D7370692E73333701
S31500004000906500200DDF0200A1960200F1DE02009D
S31500004010A70A0A010042000004180FAC0060D40091
S31500004020000000000000000000000000000000008A
S315000040300000000048F2020000000000000000003E
S315000040400000000000000000FFFFFFFFFFFFFFFF72
S31500004050FFFFFFFF007003000000000000000000EB
S31500004060FFFFFFFFFFFFFFFF100000000000000042
S31500004070000000000000000000000000000000003A
S3150000408000000000000000008B7F00208B7F0020D6
S3150000409090650020D4FF0200EAE20200305C0020B6
S311000040A03C0F002000000400000000009F
S31500004200906500200DDF0200A1960200F1DE02009B
S31500004210F9DE0200F5DE0200FDDE020009DF020023
S3150000422009DF020009DF020009DF020009DF0200E0
S3150000423001DF020009DF020009DF020049CA0100AE
S31500004240C95C020085A40200A10D0200D5A00200EF
S31500004250FDA402008BA402008DA4020087A4020024
S31500004260E9D40200CF6A020083DF010073ED01008A
S3150000427009DF020009DF0200EFDC020009DF0200AD
S3150000428009DF0200ED6A020009DF020009DF020011
S3150000429009DF020009DF020009DF020009DF020070
S315000042A009DF020009DF020009DF0200FFA40200A5
S315000042B089A402008557020033A5020009DF020027
S315000042C0A9E2020009DF020009DF020009DF02009D
S315000042D009DF020009DF020009DF020009DF020030
S315000042E07149724A01E021B1491E1369DB07FAD40C
S315000042F001B9BAE0506001201060106910F0060F95
S3150000430005D0410700D5B3E0800700D5B3E0002013
S315000043107047F0B513460022002936D0624C634D33
S315000043208BB98B4231D250F8046BEE605B1C0826C9
S315000043302E60264601E036B3761E2F69FF07FAD4B3
S31500004340002EEED11FE0EFF3108672B600230EE0CA
S315000043502F6907F01907102F08BF2F602F693F0735
S31500004360F6D550F8047BEF605B1C10272F608B425C
S31500004370F4D306B962B6264601E026B1761E286950
S31500004380C007FAD40EB96FF002021046F0BD2DE94F
S31500004390F84F474F0D4639680446002041F00101A9
S315000043A09B4639604FEA92088146AA4602E0B1442C
S315000043B00AEB860AC14517D204EB89063046FFF799
S315000043C08FFF010022D1C6F30A00C0F500608608FF
S315000043D0A8EB0900B04238BF06465A463146504659
S315000043E0FFF797FF0100E2D021682A68914209D0C1
S315000043F02046FFF775FF010004D15A4601212846E1
S31500004400FFF787FF3968490849003960BDE8F28F30
S315000044102749254A0B6843F001030B608860012099
S3150000442048604869400704D50868400840000860AD
S315000044301EE04869800704D5086840084000086007
S3150000444019E00220486001E022B1521E4869C00707
S31500004450FAD422B9086840084000086005E00868F8
S31500004460400840000860002070476FF00200704767
S315000044704FF0FF3070476FF001007047002386E76A
S315000044800B48016841F00101016046F21A31C1642E
S315000044904FF4807141604169C907FCD40021C164B1
S315000044A00020704700000000809698000C000E4027
S315000044B008000E4010B5044600F098FD204601F0B5
S315000044C05EFD204602F02CFA2046BDE8104002F0C0
S315000044D0DDBB01F09CBD10B5044600F0D4FD2046BE
S315000044E001F0C7FD204602F043FA204602F033FCF5
S315000044F02046BDE8104002F0CBBB10B500E010B579
S31500004500044600F029FE204601F097FE204602F000
S315000045104BFA204602F089FC2046BDE8104002F026
S31500004520C8BE10B5044600F044FE204601F0B3FEB6
S31500004530204602F068FA09E010B5044600F05EFE77
S31500004540204601F0EAFE204602F07AFA204602F002
S3150000455084FC204602F0C5FE2046BDE8104002F06D
S315000045602EBC80B503F020F9BDE8014002F05CB92D
S3150000457010B5044602F05EFD2046BDE8104002F08C
S3150000458032BC0198704703F07EB970472DE9F047B9
S3150000459001241028A4B00FF6C015DFF83479D9A38A
S315000045A0D9A60FF26839DAA10FF268380FF2683A25
S315000045B000F02C8118281CBF1D2820286FD0212828
S315000045C000F0FF8022286AD0282800F0A28029283F
S315000045D000F0C5802A2862D02B2800F044812D28BF
S315000045E000F062812E285AD0302826D0332800F0D9
S315000045F06081342800F06081352800F0E382362897
S3150000460000F08C81372800F01782382800F0B1813D
S31500004610392800F045823A2800F0D781422800F078
S3150000462053824A2800F0AF804C2800F0D5825A28E1
S3150000463000F05C825B2832D05D2800F0C7836328D7
S3150000464000F0A082642800F0AA826A2803D06F28AE
S3150000465000F00A83712800F0D782732818BF7728E4
S3150000466000F0C2837A281AD0822800F05982832863
S3150000467000F08783842818BF852810D086281CBFA1
S31500004680872888280BD0892800F082838A281CBFB7
S315000046908B288D2803D0902800F0EA83952800F017
S315000046A08383962800F086829A281CBFA128A42816
S315000046B0F5D0A62800F05483A82800F0F182A92896
S315000046C000F00A83AF2800F02383B128E7D0B22890
S315000046D000F09883B92800F0B183BA2800F0B383BC
S315000046E0BC2800F0B383BD2800F0BB83C12874D07A
S315000046F0C22800F08880C32800F08280CE2800F00F
S315000047001483E828CBD0ED2800F03783EE28C6D0F6
S31500004710CDE301A9684601F0E5FB00F006FC314651
S31500004720002003F099FA00F0F0FBBDF80C0003F04E
S31500004730D0F89DF80E0003F0C0F89DF80F0003F0C6
S31500004740BCF89DF8100003F0B8F8BDF8120003F0AD
S31500004750C0F89DF8140003F0B0F80698FDE20820B2
S315000047608DF809000DF10A0103A801F0E1FB8DF8AF
S31500004770080003AB0DF10A00019002AA0DF1090031
S315000047800090E3A13CE200F0DDFB9DF8010001A9E9
S3150000479001F0DFFB00F0CFFB00F0B7FB9DF80C004B
S315000047A003F08BF8BDF80E0003F093F89DF81000A7
S315000047B003F083F89DF8110003F07FF89DF81200CE
S315000047C072E301AB0DF10102D2A100F0ABFB01993E
S315000047D09DF8010001F0BFFB25E30DF1060200F094
S315000047E07DFB9DF8060001AA02A901F02AFB8DF8BF
S315000047F0050002AB01A800900DF10502C6A1FFE17C
S3150000480001F021FB50E301F020FB4DE30DF1150013
S3150000481004900DF11E030DF11600039006AA0DF18A
S31500004820170002900DF11A00019007A800900120D0
S315000048300FF21C7103F010FA9DF81500BDF81A303E
S31500004840BDF81C20BDF81E1002909DF816000190C0
S315000048509DF8170000909DF8180003F0C5FA8DF832
S31500004860140005AAE2E203F00FF8054603F00CF87F
S315000048708DF8000003F008F88DF8010003F030F819
S31500004880ADF8020003F000F88DF804000DF1050103
S31500004890082003F000F802F0F7FF8DF80D006946D6
S315000048A0284602F003FDFFE202F0EEFF02F0FFFCF5
S315000048B0FAE203F004FFB6E20DF1120304AA97A18F
S315000048C000F030FB06A803F057F803A8019003ABED
S315000048D005A800900DF10F02494600F005FB0DF109
S315000048E00D00029006AA05989DF80F30BDF812102B
S315000048F001909DF80C0000909DF8100001F0E9F978
S3150000490030E000BF76000000757500007575700018
S315000049106200000075700000750000000DF11202C3
S315000049201946012003F098F906A803F025F803A814
S3150000493002900DF10F0305A8019004AA03A800F048
S31500004940D1FA0DF10D00029006A905989DF80F30D9
S315000049509DF8102001909DF80C000090BDF8120003
S3150000496001F0C0F98DF80E000DF10D030DF10E02E8
S315000049702DE107A803F000F804A8039005AB06A8EC
S3150000498002900DF1150204A801900DF1130000909C
S3150000499001200FF2CC5103F05FF90DF111000290E6
S315000049A006989DF813309DF814209DF81510019077
S315000049B09DF81000009007A801F0A0F98DF81200EC
S315000049C00DF111030DF1120201E10AA802F0D4FF64
S315000049D006A805900DF11D0309A804900DF11E020D
S315000049E006A803900DF11B00029007A8019008A8E5
S315000049F0009001200FF2705103F02EF90DF119000D
S31500004A0004900998BDF820309DF81D209DF81E10D1
S31500004A1003909DF8180002909DF81B0001909DF8E8
S31500004A201C0000900AA801F084F98DF81A000DF117
S31500004A3019030DF11A02CAE00DF1190000900DF1EB
S31500004A401A0307AAB1A100F04FFA09A802F094FFD1
S31500004A5005A802900DF1170308A8019006AA05A85B
S31500004A6000F040FA0DF11500049009AB08989DF886
S31500004A701920BDF81A1003909DF8140002909DF8B5
S31500004A80170001909DF818000090BDF81C0001F079
S31500004A9075F98DF816000DF115030DF1160296E065
S31500004AA00DF106021946012003F0D6F803A802F01C
S31500004AB063FF00F01CFA029B9DF80420BDF8060077
S31500004AC003A901F090F96AE10DF1050000900DF1DE
S31500004AD0060302AAD7A100F007FA9DF805209DF863
S31500004AE00610BDF8080003F022FF0BE100F011FAF2
S31500004AF0D1A100F0F9F9039A9DF80810BDF80A0053
S31500004B0004F091F88DF809000DF109028EE100BF5D
S31500004B10756276007577000075767500757600000B
S31500004B2008208DF811008DF810000DF10E0002908E
S31500004B3005A801900DF11100009008AB0FF2304569
S31500004B400DF10F0200F0CFF903A802900DF112004B
S31500004B50019006A800909DF80E30BDF814209DF82F
S31500004B600F0008A901F073F98DF80D0006AB03A834
S31500004B7002900DF10D020DF112000190294604A8D4
S31500004B8000903DE000F0DEF99DF8010001A901F07A
S31500004B9083F900F0D0F901A802F005FF8AE100F0E0
S31500004BA0D1F901A802F004FF9DF8010001A901F066
S31500004BB086F938E100F09BF902999DF8040001F0AE
S31500004BC0ADF8ECE0684604F077F800F0AEF931464F
S31500004BD0002003F041F86DE186208DF806000DF106
S31500004BE0050200F07BF99DF8050002A901F0B6F96F
S31500004BF08DF8040002AB0DF10600009001AAAFA1EA
S31500004C00002003F029F855E16A4600F067F9387884
S31500004C106A289DF8000001A902D104F057F801E0C6
S31500004C2004F0B1FB8DF801000DF1010200F086F9E8
S31500004C30BDF8040002F04DFE9DF8060002F03DFEB0
S31500004C400DF10701102002F063FE069802F051FEF6
S31500004C50079802F04EFE9DF8200002F02EFE0DF1A0
S31500004C60210100F053F925E109A802F0D1FE00F078
S31500004C7050F9494600F038F904A80090039B9DF8C6
S31500004C8008209DF80A1009A801F020FE8DF80900F9
S31500004C900DF1090200F052F904A802F0B0FE09E194
S31500004CA008208DF80E008DF80D0007AB0DF10D00F4
S31500004CB0029004AA05A8019081A10DF10E000090B2
S31500004CC000F012F9BDF8100005AA07A904F041FD8D
S31500004CD08DF80C0003AAA9E008208DF8050002ABA8
S31500004CE00DF1050000900DF1060276A100F0FCF82A
S31500004CF004A9102002F0CFFDBDF8060004AA02A9FF
S31500004D0004F067FD8DF8040001AA8FE07676750041
S31500004D1000F0F5F800F005F903A9102002F0BBFD3C
S31500004D2003A901A801F0ECFD7DE000F0E8F80220FF
S31500004D308DF8000000F0F5F803A901A801F0E8FDE0
S31500004D4000F0F9F803A900F0E1F805A9102002F037
S31500004D50DFFD099802F0CDFD0A9802F0CAFDA9E030
S31500004D6000F0C5F802999DF8040001F093FF8DF854
S31500004D7005000DF1050200F0E1F801F0A6FF02F0D2
S31500004D809CFD02F081FD00B1012001F04AFF8BE09D
S31500004D9000F0ADF802999DF8040001F04BFF8DF884
S31500004DA005000DF1050241E03A780FF2CC1000251E
S31500004DB000E06D1CEDB2415D9142FAD102F064FD56
S31500004DC00FF2CC1151F8251088476DE002F05CFD1A
S31500004DD0054602F085FD0146387830280CBF3D4A6D
S31500004DE03D4A2846904765E06946102002F053FD8B
S31500004DF038787728684602D104F0BCFF54E004F006
S31500004E00DFFC51E001A802F013FE0DF101030DF1E4
S31500004E1002022DA100F086F89DF901209DF80210EE
S31500004E2001A801F0F7FF8DF800006A4600F086F849
S31500004E3040E000BF767575007675700002F024FDBF
S31500004E4005F040FC30E005F042FC2DE004A9684680
S31500004E5005F00FFC684602F01AFE04A802F045FEB3
S31500004E6028E0684602F029FE684605F00AFC21E0C3
S31500004E7008208DF8120006AB04A803900DF111026C
S31500004E8005A8029011A104A801900DF1120000904E
S31500004E9000F02AF89DF8110000B10120059B9DF84D
S31500004EA0102006A901F0BBFA02F007FD02E005F0AA
S31500004EB047FC0446204624B0BDE8F0877562000032
S31500004EC0766262007662000075730000756270009B
S31500004ED0677F0020CB740000BF14010051460120FB
S31500004EE002F0BABE00902946012002F0B5BE01A824
S31500004EF0009002AB01AA4146012002F0ADBE082097
S31500004F008DF801000DF10103704701A9082002F098
S31500004F10FFBC02A8019002AB03A800900DF10A02A3
S31500004F20704701AA012002F097BE8DF801006B467A
S31500004F300DF1010270478DF800006A4651460020C7
S31500004F4002F08ABE0DF101025146012002F084BE34
S31500004F507576767675757500757575700000000046
S31500004F6075757575700000007575767575757000C8
S31500004F707562767500000000181D207A2A848586E1
S31500004F8087888B8A8D959A2E5BB1A4A122E8EE00C4
S31500004F908F000100999D01005D330100A9A8010061
S31500004FA0F1770000B5760100357701004B770100F7
S31500004FB05F7701007B77010003780100ED77010040
S31500004FC0317801001DB20000C3FD00009D81010083
S31500004FD0A1810100CF9500004DB101005BB1010038
S31500004FE0F1E90000917801009F78010038B5044688
S31500004FF02078002846D16070012020722070A078A9
S31500005000032832D0072834D0112808D0152833D0E9
S31500005010302818D0312819D032281AD030E007208D
S31500005020DFF8405B207204F10900298805F0F8FEDC
S31500005030A878E072E8782073287960736879A0739D
S31500005040A879E07331BD05F011FF17E005F013FFF5
S3150000505014E00420207205F010FF04F10901BDE8F8
S3150000506038400246012005F0DFBEDFF8FC0A007872
S3150000507004E005F0C1FF01E006F04AFE607231BDB2
S315000050800020207031BD38B504462078002862D152
S3150000509001202070A078042814D0072818D00E28E4
S315000050A01ED0112852D015283AD017283DD01828DE
S315000050B045D0192846D030282CD0312818D032288F
S315000050C01CD046E0207A012814BF362000203EE09E
S315000050D0607A10B105F05EFF39E005F06DFF36E04D
S315000050E0607A00B1012007F025F900282FD015E0DD
S315000050F0607A00B1012007F020F90EE0207A04283A
S315000051000CD104F10901012005F09CFE07F017F906
S31500005110E8B103E0607A05F0ABFEC0B1362016E0D8
S3150000512094F9090006F0C1FD0EE0657A04F10A0063
S3150000513005F06FFE0146284607F0A7F904E007F0E0
S315000051409FF901E007F08FF9002000E0372060703A
S3150000515031BD0020207031BD10B50446DFF80C0AC1
S315000051600079217856280CBF0120002001BBA170D0
S315000051706178072910D130B107F0E0F9012814BF92
S31500005180632062200EE0E07862280CBF0120002038
S3150000519007F0D7F9A07009E0042909D1DFF8D01982
S315000051A010B10878E07001E0E07808700120207006
S315000051B010BD017809BB8170012101704178012978
S315000051C00ED00C2909D017290DD02D2902D034294B
S315000051D00CD010E0DFF89C190AE0DFF89C1907E014
S315000051E0DFF8981904E0DFF8981901E0DFF8941960
S315000051F009788180704700210170704738B50446F0
S31500005200207800285AD1012020700020A0706078F4
S31500005210012815D00C280FD017283DD02D2802D0F4
S31500005220342844D048E0A18803293DDAC9B2DFF822
S31500005230440907F0F5FA38E0A088DFF83C1939E0B0
S31500005240DFF84409008828BBA08818B3DFF83C596A
S31500005250287807F00BFD08F048F880B1A188DFF840
S315000052601C09C9B207F0DCFAA07008F048F8DFF8AC
S315000052702009DFF820190068401D086001E0382089
S31500005280A070012007F087FC28700020DFF80819BD
S31500005290088031BD382008E0A08805F010FF18B955
S315000052A0A088DFF8DC1805E03620A07031BDA088A4
S315000052B0DFF8D018087031BD0020207031BD80B5F0
S315000052C001208DF800006846FFF752F99DF80000AE
S315000052D002BD00002DE9F04FA7B008F035F808F040
S315000052E043F8DFF8AC880446D8F800008178002738
S315000052F00225FF294FF003092DD1C178067904252F
S3150000530011F03F004FF0050918BF492723D10806C1
S315000053100AD508F06BF828B108F06CF8123C07467D
S31500005320E4B218E0482716E008F067F8002818BF2E
S31500005330CB2E0AD0CA2E18BFCC2E06D0CD2E18BF23
S31500005340002E02D0AA2E18BF482708F04FF80028D2
S315000053501CBFCC2E4A27D8F80000465D90F801A065
S31500005360DFF808580AF003018DF808102E7101784D
S3150000537069704844DFF824180860DFF818180860D8
S315000053804FEA5A1000F00300687108F0F9F8380087
S3150000539018BF582604D15FEA0A6002D55826322083
S315000053A083E2A87820B9287910B1582630207CE20B
S315000053B008F0B0FB10B95826422076E2FFF77FFFCF
S315000053C0002800F074822879A978DFF8D4B70200A3
S315000053D094A70FF2542A4FF6FF7972D0012800F0F5
S315000053E0F381022800F0AA80032800F0FC8005283B
S315000053F034D0062800F04B81092818BF0A2800F08F
S315000054004E810B2818BF0C2800F050810E2800F0A2
S315000054106481122800F0A981132800F0DA81172888
S3150000542000F0EB81262800F0DA81272800F0E081E1
S31500005430472800F0D181492800F03F814E2800F02E
S315000054407381522852D0532867D0552800F08E8099
S31500005450562800F0A280652827D0812800F00C810C
S315000054608F2800F0F781912800F00E82942800F032
S31500005470FD81AA2800F0AD80AB2800F0D780AC28CB
S3150000548000F0E980AD2800F0E980AE2800F0E98060
S31500005490CA2800F0BC81CB2800F0C281CC2800F0DD
S315000054A0CD81CD2800F0CD81F12800F07A81F52854
S315000054B000F0DA80F62800F0DC80FC2800F0A481F9
S315000054C0EEE102F0E1F90446062002F0F6F90220C8
S315000054D002F0F3F94FF4C04002F0FBF9A878002877
S315000054E008BF062C01D10120A870E0E100F010FAF7
S315000054F002F0CAF98DF801006846FFF712F89DF828
S31500005500000028B937208DF802000020ADF804000D
S3150000551001AB0DF10202B5A157E0012918BF3820F1
S3150000552023D100F0F5F901AB0DF10102AFA1012085
S3150000553002F092FB6846FEF7FFFF25E038270129B7
S3150000554012D1611FC9B2052007F009FF0446FF2CDE
S3150000555008BF352708D008F0EFFA002814BF002747
S315000055603627204607F082FB38469EE1042200F0EB
S31500005570D0F90DF103030DF101023946012002F0C5
S315000055806BFB6846FEF7BBFF9DF8000010B937209D
S315000055908DF802009DF8020087E1042200F0B9F9B7
S315000055A002F072F98DF801006846FEF7A6FF9DF835
S315000055B0000028B937208DF8020000208DF803007E
S315000055C00DF103030DF102023946002002F044FBFF
S315000055D06DE100F098F902F057F98DF80E0003A876
S315000055E0FEF768FF0BE000F08EF904AB0DF10E023A
S315000055F0BEA1012002F030FB03A8FEF76AFF9DF86A
S315000056000C0028B937208DF80D0000208DF8140005
S3150000561000F072F90DF10D025146002002F01CFB5C
S3150000562045E100BF757500007575620000F06BF905
S3150000563000F062F90DF10E025146012002F00CFB5A
S3150000564003A8FEF748FF9DF80C0000280CBF372082
S315000056509DF80D0029E108F083FB28E108F081FBA5
S3150000566025E108F082FB22E102F03AF908F081FB1D
S315000056701DE108F0A5FBBDE0062CF9DBDFF81405FB
S31500005680DFF8101500680019401F08600FE10120BF
S3150000569000F043F9002840F02581072607E1092894
S315000056A00CBF0120002002F0C7F800E10C280CBF57
S315000056B00120002000F0DAF9F9E00121684605F042
S315000056C0C3FC28B1002002F0F8F8BDF8000091E014
S315000056D0362002F0F2F800208CE002F0D5F882467F
S315000056E002F0FEF8814602F0CFF8074602F0CCF849
S315000056F00446B9F5004FB4BF042F702011DABAF191
S31500005700020F0FDA0BEBCA0A3A46DAF800004946EE
S3150000571008F082FBAAF8049004B900278AF80670FC
S315000057200020C2E07020C0E002F0AEF881460024FE
S315000057300020B9F1020FADF802008DF800000BDA77
S315000057405BF839006A460DF1020108F075FB0BEBB8
S31500005750C900807900B10124BDF8020002F0B9F851
S315000057609DF8000002F0A9F87EE002F08DF8040032
S3150000577018BF0124002008F091FB07463A46FF2A8D
S3150000578008BF182024D0002C14BF48460220B6A11A
S3150000579008F0D2FB002002F090F8384607F066FACF
S315000057A085E04FF00009DFF8FC4334F8190002F0F9
S315000057B090F809F10109B9F1280FF6DB2879652877
S315000057C075D106F050FE72E002F05EF808F0FCFCBF
S315000057D06BE008F0AEF96AE008F0A2F967E0DFF8DE
S315000057E0C813082002F094F861E000BF7576000047
S315000057F008F0B5FE02F06DF859E0684602F011F9BE
S31500005800684609F016FA50E00AF0F4FC4DE000F0A4
S315000058106FF802F075F8014603A80AF0F5FC44E0BB
S3150000582002F032F8044607A900F063F803AA07A9B4
S3150000583020460AF0EBFC02F040F820E00AF0E8FC13
S3150000584033E068460AF0E6FC02F037F8009802F00A
S3150000585050F82CE00AF004FD0124484504D002F07B
S3150000586013F8D2490024087020461EE000F040F8E4
S3150000587007A900F03EF807A903A80AF05EFD03A9F0
S31500005880102002F045F812E00AF0EAFC02F021F8D6
S31500005890042002F012F8182002F00FF80F2004E09E
S315000058A0FEF774FE18B95826312002F006F8D8F82B
S315000058B0001068780870D8F800008178002902BFC7
S315000058C029780029867004D0FF218170D8F800005D
S315000058D00671072E0CBF012200229DF80800012147
S315000058E000F031F827B0BDE8F08F000075770000B2
S315000058F003A9102001F0CFBF05A8019005AB0DF15B
S315000059001500009070478C22002103A80AF089BD7B
S315000059100622002168460AF084BD38B59A4D044631
S31500005920288810B107F028FD08B9002032BD288864
S3150000593008B907F012FD9E4800780122214600F0C2
S3150000594002F8012032BD2DE9F84F914F0446386820
S3150000595088468178934602254FF00309FF298D4931
S31500005960096804BF04254FF005090E1A07F03EFD2D
S315000059700028B6B21EBF3868405DCC281CBF123660
S31500005980B6B25FEA0B0004D038684078C0F3411A1B
S3150000599002E007F0F1FD8246764909788A4505D38B
S315000059A040F229410FF214200AF064FD4FEA4A1032
S315000059B040F08000DD2E5FFA80FA05DBDC2007F080
S315000059C0D7FC4AF0020A02E0F0B207F0D1FC6749C0
S315000059D0C87818B100204AF0020AC87075480278E3
S315000059E01AB100224AF0010A0270674E308808B1E7
S315000059F04AF0040A38681BEA080F18BF4AF0080A7A
S31500005A0080F801A03868807810B9012008700FE08E
S31500005A1007F0ECFC00281EBF3868415DCC2904D095
S31500005A208021C17007F0E4FC02E039680020C870EC
S31500005A3007F0E3FC48B13868415DCB2901BF10F897
S31500005A4009000028022007F0D7FC012C18BF022C01
S31500005A5002D1308800B10024554804704046BDE8A4
S31500005A60F24F07F068BC0000620000002DE9F0412B
S31500005A7098B0044601F008FF0546062D12D1DCB9A0
S31500005A80282001F01AFF4C48018802232246684666
S31500005A900AF001FEBDF8000001F01BFF641C142C87
S31500005AA0F1DB5BE0082D01D00B2D01D124B952E0CA
S31500005AB0200003D0092D01D170204DE000260FF201
S31500005AC0101000EBC6073878854230D197F8018070
S31500005AD0200004BF404601F0F0FE78680188434686
S31500005AE0002201A80AF0D7FD200027D001F0CCFE45
S31500005AF097F80180404501D002202DE0002000E00B
S31500005B00401CC1B2414501A905D2C0B2095CFF29BA
S31500005B10F6D0462020E0404601F0BDFE78680088B9
S31500005B20424601A90AF083FE002001F0C6FE761C5B
S31500005B30F6B20B2EC3D374B1B1200DE0092D05D1F9
S31500005B40152200210DF14A000AF06BFC787801A9B4
S31500005B5001F0DEFE02E0002001F0AFFE18B0BDE865
S31500005B60F0810000E0F60200B96B0020637F0020A0
S31500005B70D36B0020C06B00205D7F0020B86B002037
S31500005B80697F0020C26B00204E7F0020E96B002059
S31500005B90A47800200876002066770020047600208E
S31500005BA0E06A0020B0780020A8780020E86B00208A
S31500005BB0777F00204C7F002020FB0200636F6D6D15
S31500005BC0616E642D68616E646C6572732E6300008D
S31500005BD00110000018FB0200021000001AFB020070
S31500005BE0030200001CFB0200051000002AFB020055
S31500005BF00708000026FB02000002000014FB02005A
S31500005C00040200001EFB0200095C00002CFB0200DF
S31500005C100A1400002EFB02000D02000028FB020001
S31500005C200C08000016FB02002DE9F84F80460D46D1
S31500005C30DFF8840B0A99067801247E2991469A4654
S31500005C40A8BF742043DA080003D00B9807F091F838
S31500005C5001E000F0C5F883460C9FBBF1FF0F03D1AE
S31500005C6000201824387031E0342E06D0362E0ED09F
S31500005C70382E13D0962E18D01AE05B464A4629468F
S31500005C80404602F043FA044602F082FF10E05B460B
S31500005C9042464946284602F099FA08E05B46EAB2CF
S31500005CA04146484602F00DFB01E00BF074FA04464B
S31500005CB0962E1CBF99F80A00387024B9DFF8FC0A42
S31500005CC0006800F80BA0584606F0D0FF2046BDE855
S31500005CD0F28F10B584B0089C0294079C0194069C30
S31500005CE0009407E010B584B00446104600F00FF8A3
S31500005CF00A462146FFF798FF04B010BD10B50446CA
S31500005D0084B00846114600F002F82246F2E7089AE7
S31500005D100292079A0192069A00927047E0B5002215
S31500005D20019100900292002300210020FFF77CFFE2
S31500005D300EBD2DE9F04683B00D460C9907460800C6
S31500005D4091469A4603D00D9807F013F801E000F04B
S31500005D5047F804460E9EFF2C03D10020182530700C
S31500005D600BE00A980190CDF800A023464A46294642
S31500005D70384602F08BFA00F027F822E02DE9F046CB
S31500005D8083B089460C990546080092461F4603D003
S31500005D900D9806F0EEFF01E000F022F804460E9E94
S31500005DA0FF2C03D10020182530700AE00A980090D5
S31500005DB001943B4652464946284602F029FA00F02D
S31500005DC003F82846BDE8FE860500B87A307004D18F
S31500005DD0DFF8E81909680B980855204606F046BF13
S31500005DE0002006F0A5BF38B5DFF8D4492080C88862
S31500005DF0440606D5DFF8CC492478202C03D10004CC
S31500005E0001D4702032BDDFF8C0491000216004D0F3
S31500005E101146184606F0ADFF01E0FFF7E1FF054623
S31500005E20FF2D08BF18240AD020684088294602F0B2
S31500005E304DFC044602F0ACFE284606F017FF20464D
S31500005E4032BD02F025BE0BF0E3BA0BF0DDBA2DE948
S31500005E50F041069F0D4604461646984639460BF015
S31500005E605AFB20460BF06FFB0799088038460BF06B
S31500005E7079FC08990870294620460BF0E2FA074695
S31500005E8038B9314620460BF01AFB414628460BF03E
S31500005E9087FC3846BDE8F081DFF830391B78984238
S31500005EA001D370207047DFF82829126832F82030B5
S31500005EB00B8002EB80008078887000207047DFF846
S31500005EC00C391B78984201D370207047DFF80029FF
S31500005ED012680B8822F8203002EB800089788170E6
S31500005EE00020704730B585B00C4609F08BFF05469B
S31500005EF000202073102307226946012004F0D1FFF9
S31500005F00082202A920460AF049FABDF800002081BD
S31500005F1004F114019DF80200A0729DF80300E072DE
S31500005F2004F110000BF096FCE08105B0284630BD68
S31500005F3038B504460D460AF069F80146082220469F
S31500005F400AF02CFA0AF05EF82880DFF88808007854
S31500005F5032BD0CF04AB8FF2208F0E7BE70B588B033
S31500005F600D460446694602F0ADFE060004D12A46F7
S31500005F706946204601F055FE304608B070BD10B5A2
S31500005F8004462078002841D1012020722070A07894
S31500005F90401E0BD0401E07D0801F07D0401F05D0E3
S31500005FA0401F022802D903E0022020720020607000
S31500005FB0A07801280CD0022814D008280CD00D286F
S31500005FC00DD0122817D0132817D0142818D01BE08C
S31500005FD0DFF80408007815E008F002FC12E00CF087
S31500005FE065FE0FE0DFF8F407018804F10900BDE85B
S31500005FF0104004F015BFFF2004E008F090FE01E019
S315000060000CF0D8FF607210BD0020207010BD10B5D6
S31500006010044682B0207858BB0120207000206070B2
S31500006020A07818B1022819D00BD31FE061686A4620
S31500006030C9B207F0E7FD60700220207204F1090082
S3150000604007E00320207268460DF07FF9607204F1C4
S315000060500A00BDF8001004F0E3FE13BD0120207213
S31500006060606880B202F024FD607213BD00202070CB
S3150000607013BDF0B5044685B02078002840F0D780DF
S3150000608001202070A078010023D0012845D00228E5
S315000060904BD0052818BF062850D0082800F0C0802D
S315000060A0092859D00A287CD00B2800F07F800C28BC
S315000060B000F088800F2800F08A80232818BF242843
S315000060C000F09280252800F0A080292800F0AA8000
S315000060D0ABE0207A102862D100F0ABF8ADF80400EE
S315000060E0082294F90B008DF8060004F11001207BBC
S315000060F08DF80700607B8DF80800A07B8DF80900FD
S31500006100E07BADF80A0003A80AF048F9102307223D
S3150000611001A9002004F0C5FE80E0207A01283ED1C6
S31500006120607ADFF8B416087078E0207A022836D153
S3150000613000F07FF8DFF8A41608806FE0207A0228C6
S315000061402DD100F076F8A17805290CBFDFF890165E
S31500006150DFF89016088061E0DFF88C060568207A83
S3150000616046080DB9DEB959E0DFF880060078B0427E
S3150000617015DB002707E004EB4700093004F049FE71
S3150000618025F817007F1CB742F5DB4FF4004725F8CA
S31500006190167028460DF017FB002844D02F803620B5
S315000061A041E000F046F80DF0F6FC37E0DFF8400677
S315000061B00068407B20B900F03CF808F0D4F92DE0E7
S315000061C0382030E0607ADFF82C16087026E0657A11
S315000061D004F10A0004F01DFEADF800006A462946E7
S315000061E0012007F00FFD1EE0217A042912D1232891
S315000061F00CBF0325012504F10901012004F022FE4C
S31500006200014628460EF046FB0DE0607A032818BFCB
S31500006210042801D0022006E009F0C9FC002002E0B3
S31500006220372000E07020607001E00020207005B08B
S31500006230F0BD04F1090004F0ECBD10B50446DFF82A
S3150000624078050078217856280CBF0120002009BB6C
S31500006250A170DFF870256178032905D108B150785F
S315000062600FE0E078507013E0022905D108B11078EC
S3150000627007E0E07810700BE009290BD118B109F09E
S3150000628068FEE07004E0E07800B1012009F053FEFA
S315000062900120207010BD017801B1704730B58170C2
S315000062A0012101704178052908D0122915D0182935
S315000062B00CD01F2914D0382915D018E0DFF838156E
S315000062C0DFF8382509781278891A24E0DFF83015C6
S315000062D00A78511E8941C90F1DE0DFF8281504E030
S315000062E0DFF8241501E0DFF82415098813E0002201
S315000062F00FF2545300E0521CD2B214461D5DFF2D1E
S3150000630002D10021017030BD8D42F4D10FF25451FB
S3150000631051F824100978818030BD70B50446207884
S3150000632000287BD10120207000206278A070052A09
S315000063300AD0122A2CD0182A1FD0192A04D01F2AB4
S3150000634022D0382A2FD033E0DFF8B0040578DFF802
S31500006350A80401784E1BA188052A0CBF0E460D46DF
S31500006360A919C9B206F05CFA0028A07056D1E9B2A4
S31500006370F0B2BDE870400EF0F5BCA188481E804121
S31500006380C00FDFF87C143FE0A088DFF87C140DE036
S31500006390A18847F231508142A8BF36203BDADFF8A8
S315000063A06404018070BDA088DFF86014088070BDA9
S315000063B00FF2944100E0401CC0B20346CD5CFF2DB5
S315000063C002D10020207070BD9542F4D1A188022B25
S315000063D008DADFF83C0450F823000078884238BF1A
S315000063E0362018D30FF27C4050F82300092B0DDA23
S315000063F0C9B206F015FAA070002804BF607811280B
S315000064000CD1A088DFF80C14087070BD342A04D1B2
S31500006410C9B206F005FAA07070BD017070BDF8B57E
S3150000642004460D461146184606F0A3FC18260746F4
S31500006430FF2F08D03A46294620460EF0CDFF0646E5
S31500006440384606F013FC3046F2BD38B504460D4614
S315000064502188284604F0E4FC6188A81C04F0E0FCCE
S315000064602079287160796871A81DE18804F0D8FC4C
S31500006470218905F1080004F0D3FCA07AA87231BD89
S3150000648010B586B004461B208DF80000A0788DF864
S3150000649001000DF10200218804F0C2FC0822211D32
S315000064A001A809F07BFFE1788DF80C10217B8DF8AF
S315000064B00D10607B8DF80E000DF10F0000F0BBF99A
S315000064C0112100F01FF906B010BD80B51C228DF811
S315000064D001008DF802108DF80020D9E02DE9F04773
S315000064E088B007460D4614460EF0EDFF824622465A
S315000064F02946384607F012FB002863D10DF1090042
S315000065000EF0E9FF30B962208DF80800092102A8D3
S315000065100FF049F8FF2C0FBF0026BF4909680E5D32
S3150000652045208DF808008DF809700DF10A012846FE
S31500006530FFF78BFF0DF1150000F07DF951460DF1C7
S31500006540170004F06DFC02F0E6F88DF8190000273C
S31500006550B248DFF8A8820568DFF89C9201E07F1C4C
S315000065600C3599F8000098F80010FFB2401A8742DF
S315000065700ADA28885045F2D107F026F8A97AC1F33D
S3150000658042018142EBD100E0FF278DF81A708DF8A9
S315000065901B60504602F08CFA8DF8040000B1012011
S315000065A0009001AB2246142102A80FF004F800283F
S315000065B01EBF84480078212804D19948017841F00B
S315000065C00401017008B0BDE8F0872DE9F0430746E5
S315000065D0914800681D4687B0465D0E9C88469146E8
S315000065E02146384601F0EDFB3F208DF804008DF87A
S315000065F0057041460DF1060004F012FC02A948465A
S31500006600FFF723FF6D480068405D8DF813008DF895
S31500006610144084480078402804BF0026FF25002047
S3150000662000908DF8156000232A46122101A80EF06D
S31500006630C2FF07B0BDE8F08330B589B00D46044609
S3150000664004A90BF0D2FC23208DF800008DF8014040
S315000066508DF802500DF10300BDF81A1004F0E0FBAE
S31500006660082204A90DF1050009F098FE9DF818000E
S315000066708DF80D000E2100F045F809B030BD80B54B
S315000066807C218DF8001001460DF1010004F0C8FBD5
S31500006690032168460EF087FF01BD70B586B004463B
S315000066A07D208DF800000D46164621460DF10100AD
S315000066B004F0B6FB082229460DF1030009F06EFE30
S315000066C08DF80B600C2100F01DF803A80EF003FFF7
S315000066D018B903A920460EF04BFB06B070BD38B5BD
S315000066E004460D4601F052FB80208DF800008DF81F
S315000066F0014029460DF1020004F092FB042100F04E
S3150000670001F831BD68460EF04EBF10B584B00446A0
S3150000671046208DF8040001A82178417061788170C7
S315000067200DF1070000F087F83B48A1780068405C4F
S315000067308DF809000023002000900621A27801A808
S315000067400EF039FF1FBD80B598208DF800008DF83A
S315000067500110684602219DE71FB50C4692218DF86F
S315000067600410082201460DF1050009F017FE0DF18F
S315000067700D0000F060F828480068005D8DF80F00F5
S3150000678000230020009022460C21D8E7224A00B5BB
S31500006790126883B0125C8DF8051093238DF80620DD
S315000067A000218DF80430009102460023032101A840
S315000067B00EF001FF07BD0000677F00204C7A002025
S315000067C0A67B0020DB6B0020A87B0020BE6B002090
S315000067D09C680020507F00207F7F0020B26B002045
S315000067E0AA6B0020AC6B0020D87A0020487A0020E3
S315000067F0347A0020447F0020C46B0020DD7B00201B
S31500006800BA6B0020986B0020946B0020A46B0020CC
S31500006810706A0020C96B00206C680020CC680020DC
S31500006820A47B0020D36B002080B50AF0FDFDBDE8F7
S3150000683001400EF0F7BF10B504460EF03DFE601C99
S31500006840BDE810400EF03ABE1102030607081A2BE7
S315000068502C1910131B14151C1D2021222A2E33342B
S315000068603537FF00BB6B0020C16B0020C56B0020D5
S31500006870BE6B0020BC6B0020BD6B0020567F002045
S31500006880BF6B0020487A0020DD7B0020CA6B002009
S31500006890CC6B0020CD6B0020CB6B00205E7F0020F0
S315000068A0C66B0020587F0020D16A0020CE6B0020E6
S315000068B0CF6B00205C7F0020607F0020F26B002001
S315000068C0C26B0020E77A0020F06B002038B5044642
S315000068D00029104601461A46204602D010F06BFBEE
S315000068E001E010F039FB0546002C1EBF0498002875
S315000068F0A04203D02146142210F0CAFB284632BD1E
S315000069000246022000291CBF104610F0EDBB70475E
S315000069100246022000291CBF104610F06EBC7047CC
S315000069201CB504460020ADF800002078F8B9022016
S315000069302072A0780A280AD0102810D101A810F0D9
S3150000694044FE6070BDF80400ADF8000004E00020CD
S31500006950607068460DF038F90120207001E020785B
S3150000696028B1BDF8001004F1090004F059FA13BD6E
S3150000697038B504462078002804BFA078102812D124
S3150000698004F10901012004F05DFA054604F10D0049
S3150000699004F03FFAADF800006946284610F0EAFD1B
S315000069A060700120207031BD74490978027856293B
S315000069B00CBF012100212ABB82700122027042789D
S315000069C0130006D16E4A09B1117811E0C078107033
S315000069D07047052A05D16B4A61B1117841F0500123
S315000069E006E0062A0CD1684A21B1117841F060010F
S315000069F0C1707047C17801F00F01C1701170704706
S31500006A0000210170704710B504462078B8B900F02F
S31500006A1045F806D01E2807D0242807D0362808D0E7
S31500006A200BE009F0F7FA06E0584800E0584800780D
S31500006A3001E058480088A08010BD0020207010BDDD
S31500006A4010B50446207840BB00F028F806D01E2872
S31500006A500AD0242812D0362819D01CE0A088BDE818
S31500006A601040C0B209F0DABA4B48A18800788842D3
S31500006A700AD3C9B2454805F0D3FE06E0A1880B2922
S31500006A8002DA4348017010BD3620A07010BDA08800
S31500006A904049088010BD0020207010BD01202070E4
S31500006AA00020A07060780D28704700002DE9F04F97
S31500006AB01646012E89B0804689469A4612D101248F
S31500006AC0002506A80DF08AF8022755EA0401DFF82A
S31500006AD0B0B005D058B9BDF81800800707D535B154
S31500006AE0032715E00024032EEAD10125E9E79BF8E8
S31500006AF0000005280AD8DFE800F003060509083D6E
S31500006B00012705E065B1002702E02746022F07D0DE
S31500006B1007F025FD824503D0514640460AF04BFC5E
S31500006B20019753469BF8000000903246494640467E
S31500006B30FDF727FD044624208DF8080041460DF197
S31500006B40090004F06DF9082249460DF10B0009F021
S31500006B5025FC8DF813608DF8144051460DF1150093
S31500006B6004F05EF90F2102A80EF01DFD204609B0C3
S31500006B70BDE8F08F002DC6D0B2E70000677F002089
S31500006B80D86B00205A7F0020C76B0020597F002059
S31500006B905F7F0020966B002036FB020080B56E21D9
S31500006BA08DF800108DF80100022168460EF0FBFCFE
S31500006BB001BD10B584B00C469B218DF8001008224B
S31500006BC001460DF1010009F0E9FB8DF809400A21A3
S31500006BD068460EF0E8FC1FBDF0B583B010F8014B17
S31500006BE00E461746214606F0C4F80546FF2D03D18A
S31500006BF00E4901200870F7BD8E208DF804008DF82F
S31500006C000560002000908DF806708DF8074000237F
S31500006C102A46042101A80EF0CEFC284606F026F8E6
S31500006C20F7BD00B1024810F011BD00004C7F0020F6
S31500006C30D96B000000B58028A1B0A8BF02200ADAEF
S31500006C408DF8000002460DF1010009F0A7FB0021B6
S31500006C50684610F09FFD21B000BD10B504462078AF
S31500006C60002804BFA07833280FD10120207009B175
S31500006C70002004E0607A10F0DDFD00B1362060707F
S31500006C800120207210F0E6FD607210BD0121E4E7DC
S31500006C900021E2E730B58BB004460D462A22FF21DB
S31500006CA0684609F0BEFB2146284606F062F804460F
S31500006CB0FF2C08BF182505D010F0E2FD054620463A
S31500006CC005F0D4FF28460BB030BD10B54E4C2178E8
S31500006CD0FF29A8B008BF702020D0002000904A23CA
S31500006CE000220AA806F061F80020009025232178EA
S31500006CF04A221DA806F059F8002000902423217886
S31500006D006F2201A806F051F8207805F0AFFFFF20AA
S31500006D10207001AA0AA91DA810F0BFFD28B010BD59
S31500006D20F8B5394F04463878FF280D46164608D17F
S31500006D309321002006F01DF8FF28387001D1352078
S31500006D40F2BD01200090334639782A46204606F0E7
S31500006D502CF80020F2BD10B50446A6B0207860BB22
S31500006D6001202070A0781A2804D024D31C2815D01E
S31500006D700AD320E04A2204F1090113A809F00EFB08
S31500006D804A22002113A812E0252204F1090109A8CC
S31500006D9009F004FB25224A2109A808E0242204F16F
S31500006DA00901684609F0FAFA24226F216846FFF7BE
S31500006DB0B7FF607001E00020207026B010BD01789A
S31500006DC0002904BF417829290CD110490978522994
S31500006DD004D10F4909788180002100E038218170B3
S31500006DE001210170704710B5074C2078FF281FBF9E
S31500006DF006490978AB29ED2903D005F037FFFF20B6
S31500006E00207010BD00000000DA6B0020677F0020B4
S31500006E105B7F002011B1012903D004E0114603F085
S31500006E2036B803F07FB80220704710B504462078C4
S31500006E30002804BF607808280ED114480078562828
S31500006E4003D103F054FCE07002E0E07803F054FC58
S31500006E500020A0700120207010BD0178A1B94178F2
S31500006E602F2908BF0A4902D030290DD1094959B145
S31500006E70064A1278522A07BF0978818082880A70EA
S31500006E80002181700121017070470000677F00209A
S31500006E90D16B0020D26B0020002070470020704785
S31500006EA030B58FB005460C463B220021684609F0F6
S31500006EB0B8FAB6208DF800000DF10101284600F061
S31500006EC076F8DCB100218DF82910082221460DF153
S31500006ED02A0009F063FA0DF12905207A68720DF18E
S31500006EE03300618903F09CFFA1890DF1350003F0A1
S31500006EF097FFA07BA873E07BE87302E001218DF881
S31500006F0029100DF13900FFF796FC3B2100F00CF833
S31500006F100FB030BD80B5B7218DF800108DF8010097
S31500006F20022100F001F801BD68460EF03CBB10B529
S31500006F3086B00446B8208DF800000DF101002188C6
S31500006F4003F06EFF61880DF1030003F069FFA1886D
S31500006F500DF1050003F064FFE1880DF1070003F071
S31500006F605FFF21890DF1090003F05AFF61890DF1D8
S31500006F700B0003F055FFA1890DF10D0003F050FF42
S31500006F800DF10F00FFF757FC1121FFF7CDFF06B0FB
S31500006F9010BD00B58BB0BB218DF800100DF10101BD
S31500006FA000F005F82921FFF7BFFF0BB000BD38B58B
S31500006FB004460D46A0782870681C218803F030FF2F
S31500006FC00822211DE81C09F0E9F9E078E87205F1CC
S31500006FD00E01207B2873607B68730120226903F011
S31500006FE023FF626905F11201012003F01DFF218BC9
S31500006FF005F1160003F014FF082204F11C0105F147
S31500007000180009F0CBF9A18C05F1200003F008FF68
S31500007010E18C05F1220003F003FF04F1280105F1DC
S3150000702024000A7802704A7842708A788270C97899
S31500007030C17031BDF8B5BA4D0446286800792B38C1
S31500007040022801D90D382ED100F01EFC064628680C
S31500007050B449401D0860002131200EF06CFB054646
S315000070604FF6FF770BE005F10D0080B20EF090FAB7
S31500007070B04213D0294631200EF05DFB0546BD42D5
S31500007080F1D1002100E0294632200EF054FB0546DE
S31500007090BD4208D00EF07CFAB042F4D1A42000F034
S315000070A00CFC00202070F1BD38B50446002100E03C
S315000070B029463F200EF03FFB05464FF6FF708542FE
S315000070C00CD028460EF064FA0228F1D1681C80B272
S315000070D00EF05EFAA042EBD1012032BD002032BD97
S315000070E02DE9F8438046002145200EF024FB4FF0A1
S315000070F0000904468C4D4FF6FF7609E0FF21B8B231
S315000071000EF04BFAA1B245200EF015FBA14604463F
S31500007110B44224D004F11007B8B20EF039FA404553
S31500007120F0D120460EF034FA022818BF0328E5D124
S31500007130A41FA0B20EF02CFA01462888401A321875
S315000071407A482A800919121B92B2007800924B1CC9
S315000071509BB20246A1B206F011F84C46D2E7BDE852
S31500007160F183F0B5724F3D788BB0064606F02CFAE7
S3150000717006F006FA00F079F806D012282FD17188A9
S31500007180707806F082FD50B3707804A906F01CFDF5
S3150000719088B1BDF8100040F20911884204BF70881A
S315000071A0B0F5006F07D1701D10F082FBB52802D034
S315000071B0A8B9002413E00124002500E06D1C3978ED
S315000071C0E8B288420BD206A900F097F99DF818009C
S315000071D00028F3D13146E8B200F09AF9044631208E
S315000071E08DF8000030788DF8010070788DF8020077
S315000071F00DF10300718803F013FE30798DF8050058
S315000072000822711D0DF1060009F0C8F88DF80E5020
S315000072108DF80F40102168460EF0C5F920460BB0D8
S31500007220F0BD38B5054606F0CFF906F0A9F900F02D
S315000072301CF80DD12846FFF737FF08B1752407E083
S31500007240284600F0B0F9040004BF2846FFF748FFBF
S3150000725032208DF800008DF801508DF80240032190
S3150000726068460EF0A0F9204632BD324800786C24FC
S315000072701128704738B504460D46FFF715FF08B1CB
S31500007280752511E03DB106F077F968732946204669
S3150000729000F03EF902E0204600F085F90546280098
S315000072A004BF2046FFF71CFF284632BDE2E7002157
S315000072B0E0E721490978027856290CBF012100210F
S315000072C0002A04BF4278012A0AD11A4A002919BFA6
S315000072D01178C170C178117000218170012101708F
S315000072E0704710B504462078002804BF607804284B
S315000072F014D111490E480978522903D10078A0808B
S31500007300002008E00D4AA18812788A4232BF362052
S31500007310C9B205F085FAA0700120207010BD0000EA
S31500007320A4780020047600204E7F0020E96B002020
S31500007330577F0020D96B0020677F002034FB0200B6
S315000073401FB50C4602460D231521684609F0A3F920
S315000073500D226946204609F021F82078400960731D
S31500007360207800F01F0020701FBD30B585B00446A0
S315000073700D460D22684609F011F89DF80000697B5C
S3150000738040EA41108DF800000D236A46214615207B
S3150000739009F0C2F905B030BD2DE9FF41044600F001
S315000073A05FF814E03068EDB2A84630F81800A04245
S315000073B00CD16946284600F0A0F89DF80000022886
S315000073C004D031684FF6FD7021F818006D1CE8B244
S315000073D039788842E6D3BDE8FF812DE9F045884635
S315000073E04FF6FF7AD04585B0044605D100F0D8F9AE
S315000073F010B907F0B4F830E000F032F80CE0D045F0
S3150000740008D0306830F81510414504BF4FF6FD71BD
S3150000741020F815106D1CEDB2387885421CDA3068FC
S3150000742030F8150000F018F9F4DA69462846FFF737
S3150000743087FF082221460DF1050008F0F9FF002814
S31500007440DDD13068D04502D130F8150005E020F8CE
S31500007450158010F06BFADDE7504605B0BDE8F08503
S315000074600025DFF8C463DFF8C47370472DE9FF47D2
S31500007470804689460026DFF8B873DFF8AC43DFF8AC
S31500007480AC5316E02068F6B2B24630F81A0000F0A7
S31500007490E3F80DDA69463046FFF752FF0822414607
S315000074A00DF1050008F0C4FF10B9386800F80A901D
S315000074B0761CF0B229788842E4D3BDE8FF87DFF86E
S315000074C06813096831F8100070471FB5DFF85C23B0
S315000074D0127890420C460FD2D349096831F8101041
S315000074E04FF6FE72914207DA694600F006F8214629
S315000074F00DF10500FFF771FF1FBD80B5CB4B1B7863
S31500007500984201D3692002BDFFF71AFF002002BD91
S3150000751070B504460D4623460022B4A1032010F0A0
S315000075208BFE28780028204602D1BDE870403AE05C
S31500007530BE490978884201D3692070BD10F02EFE3D
S3150000754008B1752070BD05F0F6FF6873681D0AF076
S3150000755009F906464FF6FF71681DFFF73EFF024622
S3150000756029783346204600F006F829462046FFF7DC
S31500007570FCFE002070BD30B54FF6FF740D0008BF4D
S31500007580224608D0032908BF4FF6FE7203D0A24256
S3150000759008BF4FF6FD72A449096821F81020A449D6
S315000075A009680B5430BD30B505462C4685B02346D8
S315000075B001228EA1032010F03FFE9C49097828463F
S315000075C0884228BF692019D210F0E8FD08B175205D
S315000075D014E069462846FFF7B3FE9DF8000030B177
S315000075E000208DF8000069462846FFF7BEFE8E494A
S315000075F009684FF6FF7021F81400002005B030BD71
S31500007600F0B585B007460C46874D884E00E07F1CD6
S315000076103178F8B288421CD22868FFB230F81700D9
S3150000762000F01AF8F3D169463846FFF789FE9DF84F
S315000076300500E1B2884204BF9DF80610B1EB142F95
S31500007640E5D105F078FF9DF80D108142DFD138466F
S3150000765000E0FF2005B0F0BD4FF6FE71884270478E
S315000076602DE9F14F84B00D460E9C6F4FDFF8BCA19B
S3150000767090469946002607E03868BDF8101030F8A5
S315000076801B0088422CD0761C9AF80010F0B2884273
S3150000769028D23868F6B2B34630F81B00FFF7DCFF95
S315000076A0F1DA69463046FFF74BFE5FEA080007D17C
S315000076B09DF80100484504BF9DF80400A042E2D1B0
S315000076C005F039FF9DF80D108142DCD1002DD3D095
S315000076D008220DF10501284608F0AAFE0028D2D19D
S315000076E0304600E0FF2005B0BDE8F08F10B5144627
S315000076F0FFF726FE2046BDE8104008224D4908F057
S315000077004DBE2DE9FF470446084615461E4600F0C5
S3150000771047F808B1002040E00027DFF80C81DFF8C9
S315000077200C9100E07F1C99F80010F8B2884223D231
S31500007730D8F80000FFB2BA4630F81A004FF6FF71CB
S315000077408842EFD069463846FFF7FAFD0C220DF164
S315000077500101601C08F06CFE0028E3D1BAF1FF0FAE
S315000077600CD10020307005F005FF307855B138B9DE
S315000077702046FFF7F6FC09E0FF27F2E70120F1E7D4
S31500007780012006E028B13846FFF74BFD401E804138
S31500007790C00F307005F0ABFE012004B0BDE8F087E5
S315000077A00822244908F044BE30B585B000241F4D98
S315000077B016E06946FFF7C4FD9DF80000042806DBC5
S315000077C000208DF800006946E0B2FFF7CEFD9DF877
S315000077D0001000234FF6FF72E0B2FFF7CCFE641CE8
S315000077E02978E0B28842E4D305B030BD42420000B9
S315000077F030B585B002220BA1032010F01DFD00203C
S315000078008DF800000024094D03E06946FFF7ADFD41
S31500007810641C2978E0B28842F7D3FFF7C5FF002041
S3150000782005B030BD42000000C0680020577F002030
S31500007830C4680020A878002030B583B0044600F064
S3150000784023F80546202D1ADA5CB16946082000F0B7
S3150000785022F808236A4629461F2008F05DFF00200B
S315000078600EE008232A461F21684608F014FF002070
S3150000787000F023F86946082000F04AF837BD70206A
S3150000788000F01BF837BD70472A480168491C0160A3
S3150000789011F8010D704738B50446264D084629688B
S315000078A0224608F07BFD28682044286031BD214A25
S315000078B0116808441060084670471F491F4B0A6844
S315000078C01B68D31ADC2BB8BF10700868401C086010
S315000078D0704710B50446C0B2FFF7EFFF200A48E034
S315000078E010B5FFF7D1FF00F042F904EB002080B29B
S315000078F010BD10B5044680B2FFF7EBFF200CB7E0D1
S3150000790010B5FFF7EDFF00F05EF804EB004010BD88
S3150000791038B5094C094A2368126805469A1AAA1806
S31500007920DD2A03DA0246184608F038FD20682844A6
S31500007930206031BD0476002008760020A47800205F
S3150000794010B500F042F8FFF7CBFF2081FFF79CFF50
S31500007950A072FFF799FFE072FFF796FF2073FFF71B
S31500007960BFFFE081FFF790FF2074FFF7C9FF60615A
S3150000797010BDBDE81040A0E710B500F024F8208047
S31500007980FFF7AEFF6080FFF77FFF2071FFF77CFFF8
S315000079906071FFF7A5FFE080FFF7A2FF2081FFF7E8
S315000079A073FFA07210BD10B500F00AF8A078E0E7EA
S315000079B010B500F008F82080FFF766FFA07010BD34
S315000079C00446208885E704468AE7044621460820BF
S315000079D061E710B500F0CBF8A070FFF781FF2080BB
S315000079E0211D00F0C2F8FFF74FFF00B10120E07043
S315000079F0FFF74AFF2073FFF747FF607310BD10B50E
S31500007A000446214600F07FF82069BDE8104070E783
S31500007A1010B50446214600F078F8FFF771FF2061A3
S31500007A2010BD10B5FFF7CFFF208010BD207944E7C9
S31500007A3010B50446FFF7CDFF04F1100000F01BF867
S31500007A4004F11C0100F091F8FFF74AFF24F8240F17
S31500007A50FFF746FF6080FFF717FF2071FFF714FF5F
S31500007A606071FFF711FFA071FFF70EFFE07110BD07
S31500007A70BDE810402DE710B50446FFF741FF206032
S31500007A80FFF73EFF6060FFF72BFF208110BD10B5AA
S31500007A9000F010F800F08CF8E088FFF71AFF208954
S31500007AA0FFF717FF6089FFF714FFA089FFF711FFA3
S31500007AB0A07B5EE7044620681BE710B50446FFF787
S31500007AC01FFF2060FFF70CFFA080FFF709FFE08093
S31500007AD0FFF706FF2081FFF703FF6081FFF700FF36
S31500007AE0A081FFF7D1FEA07310BD10B5FFF7E2FF2E
S31500007AF0FFF79CFF611D00F006F804F11501BDE8D3
S31500007B001040102004E7102002E71020C3E610B54D
S31500007B100446207AFFF7D1FE207A010006D12068BC
S31500007B20FFF7E7FE2068FFF7E4FE04E0022802D133
S31500007B30214600F002F8607A1BE70820E8E610B557
S31500007B4000F015F80100207206D1FFF7D9FE20607B
S31500007B50FFF7D6FE206004E0022802D1214600F09D
S31500007B6004F8FFF791FE607210BD082093E6044604
S31500007B708AE638B5044602252078FFF79EFE20786F
S31500007B80401E012806D96089FFF7A3FEA11CFFF756
S31500007B90D4FF09E000F00CF800F00CF800F008F84B
S31500007BA000F008F800F004F80C346D1EE4D131BD85
S31500007BB0A0888EE660888CE610B504462078FFF72C
S31500007BC07CFE6068FFF795FE04F10800FFF79FFF53
S31500007BD0A08AFFF77EFEA07DFFF76FFEA069FFF784
S31500007BE088FE04F11C01FFF78EFF04F12C00FFF75D
S31500007BF0C0FF14F8440FFFF760FE6078B9E610B5D1
S31500007C00FFF7DEFEFFF7D6FFA08831E710B5FFF7D6
S31500007C10DAFE2080FFF764FE6080FFF761FEA08039
S31500007C2010BD30B502F8010B002312E031F82340F5
S31500007C3002F8014B31F82340240A02F8014B01EB0C
S31500007C4083045B1C658802F8015B6488240A02F8D9
S31500007C50014B8342EADB30BD0CB4F8B505460C4651
S31500007C6006AE08E056F8040B290003D00078FFF7AB
S31500007C701EFE3860641C2078010037D056F8047B5D
S31500007C80622827D07028EDD0732818BF752804D035
S31500007C9076280CD0772814D0ECE7280003D0FFF71D
S31500007CA0F3FD3870E6E73878FFF707FEE2E72800CD
S31500007CB003D0FFF715FE3880DCE73888FFF709FEAA
S31500007CC0D8E7280002D0FFF71BFED2E73868FFF797
S31500007CD010FECFE756F8040B00782900394602D08B
S31500007CE0FFF7D9FDC6E7FFF713FEC3E7F1BC5DF862
S31500007CF00CFB000070B5514D6E8A044605F1080074
S31500007D0010F0C9FA012C08BFAE8A02D0022C08BFB7
S31500007D10022618B1FA217143884206D3310205F1D1
S31500007D200800BDE8704010F0A9BA70BD7CB5434CA0
S31500007D300020E07020714FF6F972208A90421CBF35
S31500007D404FF6F872904216D161793D4E4FF6FD75A9
S31500007D5091B14FF6FC7001900023002000900022A4
S31500007D60308800210AF09EFD0020607135800120D8
S31500007D70BDE87640BEE773BDA1780DF019FF3088E7
S31500007D80A842F4D0012060710220F1E710B5A928BD
S31500007D9018BFAA2814D12948C2780378521CC27089
S31500007DA0D2B29A420CD3264A13884FF6FD74A342E8
S31500007DB002D11180002141710020BDE8104099E7F1
S31500007DC010BD02001CBF012802280CD166290AD169
S31500007DD01A480179491C0171C9B24078814224BF11
S31500007DE00020FFF787BF704710B5144C2182920020
S31500007DF0029921709B0003996282A38261709BB2F3
S31500007E000499A17092B2934208D3218A4FF6F87270
S31500007E1091421CBF4FF6F972914201D0702010BDFD
S31500007E20002161714FF6FD71054A118018B10120DC
S31500007E30FFF760FF00E02072002010BD50770020A1
S31500007E40A06B00202DE9F54F8BB08B460C98169C45
S31500007E501799ADF804B00026C0889A460746B04682
S31500007E60B14649B9F90607D50C9A9DF82C0000943D
S31500007E7059460FF007FD16E1790548BF4FF48058C3
S31500007E80390548BF48F40068B90548BF48F080087E
S31500007E9003D4F90548BF48F040089DF82C1002911C
S31500007EA05D469DF82C1003910A2966D8DFE801F09B
S31500007EB0082F1B3C65653C06083C18004FF002097C
S31500007EC0BDF80420CDF800A0334648F402712046E0
S31500007ED00AF0C6FF8246BAF1FF0F50D11820E2E041
S31500007EE04FF00309ECE706A95FFA8BF0FFF705FBF5
S31500007EF008220DF11D0104A808F050FADFF8100958
S31500007F00006830F8150004AEADF80400D8E704A9FF
S31500007F105FFA8BF009F0FFFADFF8F80800680C2129
S31500007F20694304AE405AEFE74FF6F8718D4224DB01
S31500007F304FF40261084220D100F042F918BF9120A7
S31500007F401CD1FF2C0FD000F0BAFB029903290CBFFD
S31500007F5001210021401ADFF8C0180968095D88422E
S31500007F60B8BF74200ADB029803280CBF4FF00C0937
S31500007F704FF0080928F4C078A2E7012093E0DFF863
S31500007F809C5828884FF6FF71884218D0504610F04A
S31500007F90A6FA0090001D298802F042FFDFF880084B
S31500007FA000990078C8714FF6FF7028805FEAC840D4
S31500007FB005D500980822291D083008F0EFF90C9A1B
S31500007FC0494650460BF020F908B9182667E0DFF855
S31500007FD054080068C07E70B1B8060CD5F8074CBFCF
S31500007FE02020002040F001033246002150460CF0CC
S31500007FF0EBFD060053D1FF2C15D0504610F065FA64
S31500008000DFF820180968C97E01B11221DFF80828B7
S315000080101268135D12F80A20D21874308918884243
S31500008020B8BF74263BDBB80407D5504610F067FA94
S3150000803040F48061504610F064FA0298082812BF96
S315000080400928504610F06AFA179848B1BDF804108E
S31500008050504610F07CFA179880F800A0002022E025
S315000080600398C01E05D0C01E012884BFC01E01286B
S3150000807007D850460DF023FC00280CBFA126002689
S315000080800DE0B80444BF4FF6BF7007409DF82C10B2
S315000080903B465FFA8BF250460FF059FC06465046B7
S315000080A004F0E4FD30460DB0BDE8F08FF0B587B0C2
S315000080B00E4604460C991746184604F05AFE054625
S315000080C0FF2D21D0FF208DF810008DF81100ADF89E
S315000080D00E704CF20E00ADF80C00ADF812600020E8
S315000080E0ADF81400009502A80190FF2303AA2146CB
S315000080F00020FFF7A7FE0446284604F0B7FD002C33
S315000081000CBF9DF80800FF2007B0F0BD2DE9F04335
S31500008110164685B00446F08804900D4670790FF235
S31500008120407103901F4630790290A84670880190EE
S31500008130434630880090082200F099F800F040F895
S3150000814018BF91201AD1FF2F09D000F0B8FADFF836
S31500008150C8160968C95D884238BF74200ED320004E
S315000081600FD14FF6F870804528DA0020019000976D
S31500008170FF23324629462046FFF764FE05B0BDE8D8
S31500008180F083022C4FF6FE790CD1DFF89C160978A5
S315000081908D4213D2DFF87806006830F8180048459B
S315000081A0E3DB0BE0012C09D1DFF8801609788D425C
S315000081B004D2E8B209F0C7F94845D6DB0120DDE76D
S315000081C0DFF860060068407B02287047F0B587B08C
S315000081D00D461646044605961F46E8880FF2886146
S315000081E004902346687903900922287902906888CA
S315000081F001902888009000F03AF80020019000973E
S3150000820033462A4621460620FFF71CFE07B0F0BD7E
S315000082102DE9F04188B01E460E9C07948046F088F2
S3150000822006901746707905900D4630790FF2446135
S3150000823004904346708803900A2230880290019782
S31500008240009500F014F8DFF8D405A0F80080234666
S31500008250DFF8CC0507700020019032460F98009099
S3150000826029460620FFF7EEFD08B0BDE8F0810320A1
S315000082700FF0E2BF80B538B101460822DFF8B0053D
S3150000828008F08CF8002002BD022002BD70B588B04F
S3150000829000F02EF80C98DFF88415009608802B461F
S315000082A00D98DFF87C1508702246DFF888050078FF
S315000082B0002814BF4FF6FF714FF6FD7100200190A4
S315000082C011E070B588B000F013F8DFF868050078A3
S315000082D00096002814BF4FF6FF714FF6FD7100207F
S315000082E001902B4622460320FFF7ACFD08B070BD77
S315000082F004460D46069205951E46E0880FF280510B
S31500008300049006226079039020790290608801909B
S3150000831020880090032023890FF08EBF10B5DFF868
S31500008320180504F074FF0446FF2C0DD021460420E6
S3150000833004F019FA18B10121204600F006F820468B
S31500008340BDE8104004F092BC10BD2DE9F04F89B095
S3150000835082468B4610F0C3F80646B01C02F059FD63
S31500008360DFF8D844DFF8D854074650460AF029FE0D
S315000083700146504604F012FE8046504610F0C9F8F9
S3150000838005F083F8301D02F044FD2080009706F0CA
S31500008390E6F8009989B2814208F0030912D04FF637
S315000083A0F87087420EDA7078C0070BD4384609F0A9
S315000083B058FE002805D0208801235246394600F091
S315000083C0B2F97AE005A950460AF08AFE05A82860A7
S315000083D030460AF013FEDFF86C140860032150469D
S315000083E010F06DF8DFF8601408700421504610F0A4
S315000083F066F8DFF8581408705FEA0B002BD09DF87A
S315000084001A00800627D506F0AAF8DFF8186440B1EE
S315000084103068007D800704D4B9F1010F08BF182326
S3150000842000D008230022002150460CF0CDFB90B16D
S3150000843008F00300012802BF3068407B112805D1EF
S3150000844000F02DFE10B9AF2006F053F905F04FF8F5
S315000084500020286048E018F0030003D0022806D068
S315000084600AD32AE05946504600F041F825E0514625
S3150000847040460FF09BFA20E006F071F82188814211
S315000084801BD05146052004F06EF9B0B129688879F1
S3150000849040060DD50C2202A807F080FF00200190AF
S315000084A0FF23FF20009002AA21880A20FFF7CAFCBA
S315000084B021885A4650460BF0D1FB06F050F8218829
S315000084C081420DD150460AF07CFD0146504604F02B
S315000084D065FD0C21084203D1002150460FF097FCA0
S315000084E00020286005F003F809B0BDE8F08F2DE9FB
S315000084F0FE4F80460FF0F3FF054640460AF061FD49
S315000085000146404604F04AFD81466878DFF830733C
S31500008510DFF8284300F001000290A81C02F079FC65
S315000085204FF6F8718842ACBF4FF0010A4FF0000ACF
S3150000853006F015F8218881423868B0F802B00CBF01
S3150000854001260026404610F055F80146029840EAFA
S315000085500A008DF804009DF80400002814BF0620C8
S315000085600820002205F095F938680188002904BF23
S31500008570407900281DD1694640460AF0E0F83B687C
S315000085809DF80010421ED2B2042010F0ACF83868F4
S31500008590408848F20201884203D12088414600F013
S315000085A051FE2088BBF5004F19DB5A4641460AF0BA
S315000085B0DAF8386801884CF20E0291423CD144F256
S315000085C0010AD34518BFBBF5804F35D140460AF0A6
S315000085D07BFD0146D3450CBF0120002023E09C4AC9
S315000085E00221117053460022414609F02BFF3868DC
S315000085F08079400603D5FF21584600F067F8BBF1A5
S31500008600130FD6D03868C0884004D2D49149904818
S3150000861009780078CA0701D50228CAD0890740D54B
S315000086200128C6D03DE0491EC9B200912B464246FC
S31500008630012106F07CFC34E0029919B909F00C011D
S315000086400C290DD1008909F0BCF850B338680189AE
S31500008650002E14BF032502250020FEF7D1FF11E0EE
S31500008660017900910022437920880021FEF7F8FF66
S3150000867009F00C01082904D1002E0CBF042505259C
S3150000868000E00025744908709DF8040010B9BBF19C
S31500008690380F01D1012200E00022294640460CF0A5
S315000086A0B3FEBDE8F78F10B5044600F008F8610583
S315000086B048BF0838210548BF0838C0B210BD59491F
S315000086C00968C97E642001B15220704770B55C4EBE
S315000086D00C4686B0054631680C2202A807F05EFEFD
S315000086E0306801798DF80D10FF2341798DF80C1053
S315000086F0ADF80A504FF6BF71C08800940840ADF837
S315000087000E0002AA002001904C4801880720FFF7BE
S3150000871099FB06B070BD5148007808B9FF20704734
S315000087204D48007870472DE9FB47914685B01C46B9
S3150000873048460AF046FC0146484604F02FFC032151
S3150000874008428DF800005ED13D4805683B48068822
S3150000875001A948460AF0C4FC394901A808604FF04F
S31500008760000ABDF81400354908809DF80900002864
S3150000877004BFBDF8040000283FD148460FF0AFFE05
S31500008780801C02F046FB4FF6F8718842ACBF4FF0F2
S315000087900108D046002C14BF02240124012729E039
S315000087A0BDF8140043463A46494609F04BFE5FEAD7
S315000087B0000A1ED0022C08BF012F1AD1BDF81800DE
S315000087C01649088017480068417E491C4176A1F188
S315000087D08000134908700C219DF80000084208D15A
S315000087E09DF80A00400604D5BDF80600FF21FFF7F4
S315000087F06DFF7F1CFFB2BC42D2DA114805600F48FC
S315000088000680504600E0002008B0BDE8F087000072
S31500008810C0680020CC6800206C680020A86A002090
S315000088206E7F0020347A0020577F0020C46B002022
S31500008830AC6A0020607F0020DC6A0020A67B002056
S31500008840A87B0020AC7B0020CD740020CE740020D5
S315000088506D7F00205C7F0020817F0020A47B0020AC
S31500008860425757574242570042575757424257427C
S3150000887000000000425757425757424257420000F5
S3150000888042575742424257424200000010B5044642
S3150000889004F076FE0DF02BFF010018BF00F014F86F
S315000088A00C21304811FB04F1084482798188006864
S315000088B0BDE8104005F0B0BA0020E7E70120E5E783
S315000088C00220E3E70320E1E710B582B0044604F096
S315000088D07BFE0C21484323490844210017BF312C55
S315000088E00021017A491C0172C279017A91420AD3A8
S315000088F00021017243208DF800008DF8014002210D
S3150000890068460CF050FE13BD17490978312900D08E
S31500008910704780B544218DF8001001460DF1010025
S3150000892002F07EFA032168460CF03DFE01BD38B523
S315000089300E4C0C4B24780C256C43B0F5004FB8BF99
S315000089400429234401DB702032BDDA7198809971C5
S315000089509A799988186805F05FFABDE831400DF0FC
S31500008960C6BE0000786A0020DC6B0020687F00200D
S3150000897070B5160004460D4602D108F01CFD02E053
S31500008980FF2108F0C7FC324629462046BDE8704064
S31500008990A1E02DE9F04782B005468A46174698467B
S315000089A00CF0E6F9C0480A9C0078B0B10C2F14DA36
S315000089B0FF21284608F0AEFC814600260AE004EBBB
S315000089C04601C9B2404604F0A4FB494608F0A2FCA1
S315000089D08146761CF0B2B842F1D3009443463A463B
S315000089E05146284600F08FF8BDE8F3872DE9F04799
S315000089F004468A4600F0D6F8012847D1204608F0FA
S31500008A0073FCAA4A126812F80A700025FF281AD0C9
S31500008A1081464C46DFF8988200E06D1CD8F80000CD
S31500008A2000EB84008478FF2CF7D1EDB20C2D0ADA26
S31500008A306800861CBAF1FF0F27D0F119C9B250465B
S31500008A4004F065FA08B1002020E02A46394650466F
S31500008A5004F0A9FA7C1C002D14BF6A1E0022D2B2B3
S31500008A60E1B2504604F09FFA671C4C4606E030F827
S31500008A702420F9B2504604F058FBBF1CD8F8000079
S31500008A8000EB84018C78FF2CF1D1F0B2BDE8F087C1
S31500008A9010B5FF280AD0864B1B6833F820400C809F
S31500008AA003EB800080781070002010BD032010BDFD
S31500008AB010B508F019FC0024FF280AD0022401E0B2
S31500008AC0A41CE4B27A49096801EB80008078FF288B
S31500008AD0F6D1204610BD30B583B00C46C4218DF8C2
S31500008AE00010154601460DF1010002F099F92146E4
S31500008AF00DF1030002F094F98DF805500621684641
S31500008B000CF051FD37BD2DE9F04186B00746884689
S31500008B101D460DF1050014460CF0CEFC01A80CF024
S31500008B20CDFC59208DF8080039460DF1090002F0F8
S31500008B3077F9082241460DF10B0007F02FFC9DF84E
S31500008B4005000C9B8DF8130066009DF804008DF857
S31500008B501400F6B28DF8154000962A4600212846E4
S31500008B6004F00CFB3146284604F0D1F900200090B1
S31500008B7000232A460E2102A80CF01DFD06B0BDE812
S31500008B80F08110B5044600F003F84A48047010BDA1
S31500008B9010B5484C2078FF2803D004F067F8FF2072
S31500008BA0207010BD2DE9F041DFF80881074698F8DE
S31500008BB00000FF2882B00C4619D03C4D2A68115C93
S31500008BC08E1EF6B2314604F0A4FAB8420FD12868D8
S31500008BD0075DF5052D0EFF2C02D1A81CC0B220E0C2
S31500008BE0F019811CC9B2204604F091F908B10120A0
S31500008BF017E02A463946204604F0D5F96A1E791C44
S31500008C00D2B2C9B2204604F0CEF998F800200096F8
S31500008C10B91C002389B2204604F0B0FAFFF7B8FF6A
S31500008C200020BDE8F6812DE9F04180461E48007817
S31500008C30002688420F46154638BF742032D30120DD
S31500008C4003F0A9FF0446380010D07900C9B22046C7
S31500008C5004F05DF950B907E035F816207100C9B285
S31500008C60204604F062FA761CBE42F5DB2046FF2859
S31500008C7011D00E4909680D5CA91CC9B204F047F968
S31500008C8028B942462946204604F04FFA03E020461A
S31500008C9003F0ECFFFF242046FFF773FFFF2C0CBF09
S31500008CA018200020BDE8F081567F00206C68002067
S31500008CB0BC680020DD6B0020702070477020704774
S31500008CC070207047702070477047704730B5054672
S31500008CD00C4683B028220021204607F0A2FB681E1E
S31500008CE0A5701ED0801E01284FD8032D0CBF01256C
S31500008CF000252A4604F11C01E01C0BF031FB35B1BE
S31500008D00208840F0020020800FF018FD6061208866
S31500008D1040F0010020801021E01C00F0A0F8B0BB5C
S31500008D2006E0DFF8B8552868007D10F0300F01D155
S31500008D30B2203EBD208840F0020020800BF08BFD63
S31500008D406061E01C00F0ABF8684600F0BCF848B182
S31500008D500822694604F11D0007F020FB208840F038
S31500008D600800208028684069C00303D4208840F0AA
S31500008D701000208005F0F3FB0028CCD02868406A5C
S31500008D80A061208840F00400C4E770203EBDE01CCE
S31500008D900EF042FC00203EBDF0B587B004460D46FD
S31500008DA016461F46684600F088F83EB1082231464E
S31500008DB00DF1020007F0F2FA45F040052FB110223E
S31500008DC039460DF10A0007F0E9FADFF810050068E8
S31500008DD04169A1432943416148040CD5BDF800000F
S31500008DE00A0A00F40E4002F4E242104301F0FF01C9
S31500008DF00843ADF800001A2308226946002002F055
S31500008E0050F807B0F0BD00230022C5E7DFF8CC0418
S31500008E100068416941F48041416147F2FF10014019
S31500008E20F1E700B587B00FF09CFC684600F045F806
S31500008E30DFF8A8040068BDF800204169090A120A93
S31500008E40090202F0710241EA0241BDF8002002F077
S31500008E50FF02114341F48041416107B000BD38B5BE
S31500008E6004460D46002207F07EF940B9FF22294646
S31500008E70204607F078F9401E8041C00F32BD002021
S31500008E8032BDDFF858040068007D00F0300010287D
S31500008E9018BF202801D1012070470020704710B567
S31500008EA088B00446684600F008F810220DF10A0161
S31500008EB0204607F073FA08B010BD01461A230822AF
S31500008EC0012001F0EEBF10B50446DFF8100400687B
S31500008ED088B04069810705D50822FF21204607F0A2
S31500008EE0A0FA0AE040060AD56846FFF7E6FF082220
S31500008EF00DF10201204607F051FA012000E00020A2
S31500008F0008B010BD80B539B9DFF8D0130968097DFE
S31500008F10490601D5002002BD02460023002100209B
S31500008F20FFF73AFF012002BD0021EBE70121E9E747
S31500008F301CB504466846FFF7C6FF40B10822214625
S31500008F40684607F075FA401E8041C00F16BDFF2225
S31500008F500821204607F007F920B106210020FFF777
S31500008F6052FF04E0002322460021FFF715FF0120EF
S31500008F7016BD2DE9F0470D4692B0814616460121F1
S31500008F8000241F4600F024FA8046B80707F0010ABD
S31500008F900BD507A948460EF071F920B100F06FF81D
S31500008FA006B134601BE0A6201AE0B8F1FF0F1AD014
S31500008FB007A9404600F0A4F9010011D10DB100F057
S31500008FC05EF82EB1DFF81803006800EB8800306009
S31500008FD0BAF1000F03D0BDF81C00C00647D500202B
S31500008FE012B0BDE8F087DFF8F47256B105F0B7FAB3
S31500008FF018B13868017D890701D5346001E0243055
S315000090003060FFF73EFF0028CDD06846FFF755FFDA
S3150000901008220DF10201484607F00AFA28B138681D
S31500009020007D00F044004028BDD0BAF1000F04D006
S3150000903038684069C00348BF0124B5B105F08FFA0E
S31500009040002801BF3868007D00F08400842807D11D
S315000090502B46082249460DF10A000FF01AFE04E0DD
S3150000906010220DF10A0100F00DF8002CB7D042468F
S315000090704FF6FF71182004F00CFCBB20B0E710225D
S315000090800DF11F01284607F089B980B5002300229B
S315000090900021FFF76EFF401E8041C00F02BD00B5E4
S315000090A083B06846FFF70FFF10B16846FFF7EDFF84
S315000090B00EBDF0B585B0074605F051FA002400252F
S315000090C0A8B106F0A7FF90B103A8FFF7FCFE70B1A8
S315000090D02FB108228349384607F0AAF938B17F4EE6
S315000090E03068017D890705D5417B112901D07020A3
S315000090F046E044889FB10822394603A807F098F94C
S3150000910068B108208DF80000082202208DF80100C1
S3150000911039460DF1020007F041F90A2107E008205F
S315000091208DF80000012504208DF801000221684613
S3150000913003F01FFE0746FF2F21D0FFF7A2FE00B166
S3150000914002203168097D89074CBF042100210843AC
S3150000915040F001033A46002120460AF0DFFE0400F3
S3150000916007D00021012000F00DF815B15E4901205D
S315000091700870384603F07AFD0CB1002000E0182094
S3150000918005B0F0BD594A11B141F2883105E05849A0
S3150000919009784EF66023594304D000281CBF1046B8
S315000091A00FF06CB800201070704730B583B00822FD
S315000091B00021684607F035F905F0D1F94D4C18B98C
S315000091C000F088FD0D250FE0607860B14A492078EF
S315000091D00978884207D200F011F820B90121012050
S315000091E0FFF7D0FF37BD0425002060700021FFF790
S315000091F0C9FF2946684604F02AFB37BD3D4900B53C
S315000092000A78521C0A7070204978012983B002D16D
S3150000921000F012F80EBD022909D16946002005F0BA
S3150000922069F9010007D16846FFF743FF0EBD032920
S3150000923008BF0BF042FA0EBD00224FF4A0710020C9
S3150000924009F01DBB70B598B005460E4604A850211E
S315000092500FF050FD274C6078012808BF002D31D152
S3150000926001A9304609F06BFA24499DF804200968E3
S31500009270895C0D1A0021009102469DF80410EBB29C
S3150000928004A803F092FDEDB2E5B19DF81100C8B94E
S315000092909DF81C00000200F47E40B0F5285F0FD157
S315000092A002A9002005F026F960B90120207002A865
S315000092B0FFF7FFFE01210120FFF764FF022000E017
S315000092C00020607018B070BD0A49087070470948E0
S315000092D0407870470749487070470000347A00208C
S315000092E0D4680020A8780020737F002068770020CB
S315000092F05F7F00206B7F0020DE6B00206C68002003
S3150000930030B500F026F987B028BFB12039D200F079
S3150000931026F918216846FFF7A2FD08B9B62030E005
S3150000932028220021284607F07CF8102202A9E81C12
S3150000933007F034F80822694605F11D0007F02EF8FB
S31500009340082028809DF8180081075CBF1821298015
S31500009350410703D5298841F020012980C0070FD590
S315000093600520A870AC48006850F82400A8610BF0EE
S3150000937072FA6861288840F006002880002000E024
S31500009380B22007B030BD38B50C46FFF7B9FF054629
S31500009390E01C0EF041F9284632BD38B504461546A4
S315000093A009B9702032BD012100F012F8FF2803D15F
S315000093B00121002000F00CF8FF2807D02B4622469A
S315000093C001B0BDE830400146002045E0B42032BD82
S315000093D02DE9F04188B0044609B9702039E02CB176
S315000093E00022082106F0BFFE074600E001270026FE
S315000093F0884D04E00821FFF732FD38B3761C297842
S31500009400F0B2884224D201A800901923F2B21721A3
S31500009410684607F051F9009890F81880002FE9D1B6
S315000094200822214607F004F80028E7D10098083002
S315000094300BF079F908F0010181F001010843DDD153
S3150000944004F079F8C8F3C2018142D7D1F0B200E046
S31500009450FF2008B0BDE8F0812DE9F04116466D4ABF
S31500009460127891428AB00C46984628BFB1204DD258
S31500009470254630B910214046FFF7F1FC38B9B22035
S3150000948044E01922002102A806F0CBFF32E00121B8
S315000094903046FFF79DFF074608226049304606F032
S315000094A0C7FF68B1FF2F18BFAF4209D16846FFF763
S315000094B00AFD38B108226946304606F0B9FF08B9F8
S315000094C0B32023E00822314602A806F067FF1022E7
S315000094D0414604A806F062FF0EF0E6F9002814BF24
S315000094E00026022604F027F846EAC00040F00100F4
S315000094F08DF8200000204849096841F82500192305
S3150000950002AA2146172007F007F900200AB0BDE895
S31500009510F08170B500F01DF888B0164628BFB1205E
S3150000952015D200F01CF819216846FFF798FC08B917
S31500009530B2200CE09DF81810B14329438DF818109D
S3150000954019236A462146172007F0E6F8002008B0DE
S3150000955070BD0D462F490978044688427047192385
S3150000956022461721684607F096B810B50C46012129
S31500009570FFF72EFFFF2808D0002CBDE8104007BFDC
S315000095800422002100220421C3E710BD10B50446C1
S315000095900121FFF702FF20B10521204604F057F90B
S315000095A005E001212046FFF713FFFF2801D1002027
S315000095B010BD02220021FFF7ACFF0121204604F076
S315000095C046F900210020FFF7DDFD012010BD70B532
S315000095D088B000250F4C16E001A800901923EAB2C6
S315000095E01721684607F068F80098067E03F0A3FF87
S315000095F0C6F3C201814205D100230022E9B201204F
S31500009600FFF72AFF6D1C2178E8B28842E4D30020D8
S3150000961008B070BD597F0020D4680020A8780020CB
S315000096202DE9F047DFF80C57074628688AB0C07E58
S3150000963000288A469146984671D004F090FF48B1BA
S315000096402868007D800705D43A46414648460AF018
S3150000965043FD64E038003C4602D10125012604E0C2
