S00F00006E6F6465746573742E7333377F
S3150800200098220020051501086514010869140108BD
S31508002010A70A0A0100210008040503AC105A50005B
S3150800202000000000000000000000000000000000A2
S315080020300000000000000000000000000000000092
S315080020400000000000000000FFFFFFFFFFFFFFFF8A
S31508002050FFFFFFFF00E0010800000000000000008D
S31508002060FFFFFFFFFFFFFFFFFF000000000000006B
S315080020700000000000000000000000000000000052
S31508002080F02F002000000000EA2F0020EA2F002091
S3150800209098220020AC3B0108EC16010838190020EC
S311080020A0700F002000000208003000202D
S3150800210098220020051501086514010869140108BC
S31508002110711401086D14010875140108EC140108FE
S31508002120EC140108EC140108EC140108EC1401087D
S3150800213079140108EC140108EC140108A77B0008BF
S31508002140B9F90008EC1401085F850008EC140108C9
S31508002150137F000855840008EC140108EC140108E4
S3150800216079E10008F9990008FBB60008B9BE00082D
S31508002170EC14010807C200084FC2000863BB000838
S31508002180D33A0008EC140108EC140108EC14010811
S3150800219070472DE9F047DFF844580FF29C010FF21B
S315080021A0945A0FF28058DFF838980446287800F0D9
S315080021B0DDFD0027E4A603E000F083F97F1CBFB22B
S315080021C0206800EB07114A68287813001AD04A4598
S315080021D009D14A69130018BF4A45EFD00A68414633
S315080021E000F0C4FDEAE78B680A68514600F0BEFDB8
S315080021F0206800EB0710C2682878002ADCD00FF2A6
S315080022003C51EDE70FF2AC0100F0B0FD28780FF273
S31508002210CC0100F0ABFD28780FF2F00100F0A6FD26
S3150800222028780FF2141100F0A1FD28783146BDE890
S31508002230F04700F09BBD0000434F4D4D414E4420F2
S315080022405B504152414D45544552535D205B2D200C
S315080022504445534352495054494F4E5D0D0A202078
S3150800226077686572653A20623D6275666665722CA6
S315080022702073313D696E74385F742C2073323D6962
S315080022806E7431365F742C2075313D75696E7438FD
S315080022905F742C2075323D75696E7431365F742C07
S315080022A02075343D75696E7433325F740D0A0D0AF4
S315080022B00000000020202120202D20526563616C3B
S315080022C06C73207468652070726576696F75732003
S315080022D0636F6D6D616E640D0A00000020205B74EB
S315080022E061625D202D20417474656D70747320746D
S315080022F06F2074616220636F6D706C65746520630E
S315080023006F6D6D616E640D0A0000000020202020AC
S315080023102A2A204E4F54453A20616C6C20696E700B
S3150800232075742076616C7565732061726520696EB7
S3150800233020686578210D0A00202020202A2A2043BB
S315080023406F6D6D616E647320617265204E4F542007
S31508002350636173652073656E7369746976650D0AC2
S3150800236000000000A0F141011A293CBF2030C0B28C
S3150800237070472DE9F84F0546DFF86816A868006823
S315080023800968DFF85876C0B200240E5C212EA046F4
S3150800239007DB38780FF2CC01BDE8F84F202200F0B1
S315080023A0E5BC00F013FD8246A14607E01AF80900CD
S315080023B0FFF7D8FF0AF8090009F10109B145F5DB6D
S315080023C032460FF2E401504600F0A2FF40B94FF042
S315080023D0010805E038780FF2D8015A4600F0C6FC25
S315080023E0296820010A185268130039D0DFF8F095D9
S315080023F0641C4A45A4B2F3D151F800B0B8F1000FF5
S31508002400E8D1584600F098FFB042E9D13246514625
S31508002410584600F071FF0028E2D1BFA60FF21C381B
S315080024200FF2940A03E000F04CF8641CA4B2286882
S3150800243000EB041041680A0018BF494510D08368AC
S3150800244002683878514600F091FC286800EB0410C1
S31508002450C2683878002AE6D0414600F087FCE4E7EF
S31508002460BDE8F18F4572726F723A206C69737420F9
S31508002470617267756D656E7420746F6F206C6F6E10
S31508002480672C207765206F6E6C7920737570706F76
S31508002490727420757020746F2025752062797465B2
S315080024A0732E0D0A000000006D6F64756C6573006D
S315080024B025700D0A00000000257020257000000018
S315080024C02078314600F052BC70B5044688B0A06842
S315080024D0016801B10121DFF810552970406800B183
S315080024E00120DFF8086530700FF2600001F03FF94F
S315080024F0A068C16801B10121DFF8F42411700069F0
S3150800250000B10120DFF8EC14087008782B780790E2
S3150800251004F111010FF25C00069010780FF25C02CC
S3150800252005900FF260000490012003907BA00290B2
S31508002530307801900FF2540000900FF2580001F025
S3150800254016F908B070BD00000D0A00005475726EC9
S31508002550696E67206F66662074616773206E6F7494
S315080025602079657420737570706F727465640D0ACE
S3150800257000000000746578740000000068656164F6
S315080025806572000064656C696D000000636F6D6DAF
S31508002590616E64007B264E20566572626F7369749D
S315080025A079206F7074696F6E732073657420746F09
S315080025B03A0D0A2674750D0A2674750D0A26747561
S315080025C00D0A2674750D0A2674757D0D0A0000001D
S315080025D0DFF82414007C51F82020DFF800040FF2FD
S315080025E00801007800F0C2BB4349204572726F7239
S315080025F03A2025700D0A000038B5DFF8E043207848
S3150800260045A500F03FFA20780FF2340100F0AEFB42
S3150800261000F037FA20780FF24C0100F0A7FB20787B
S315080026203FA100F0A3FB20780FF2440100F09EFBC7
S3150800263020780FF24801BDE8344000F097BB00004F
S31508002640456D626572204E6F64652054657374200B
S315080026504170706C69636174696F6E2076312E30D3
S31508002660000000004A756C203230203230313700C5
S3150800267031393A32383A3338000000000D0A0D0A6B
S31508002680000000002DE9F24F044682B0256BDFF802
S315080026904CB39046002705E01FA100F067FB7F1C9E
S315080026A0BFB210356868A8B3D5F80090DDF808A061
S315080026B000260DE01AF8010BFFF754FE009019F8F2
S315080026C0010BFFF74FFE0099C9B28142E7D1761C8C
S315080026D0B0B24045EED32068C14E00EB07114B68F7
S315080026E00A689BF80000B34204D10FF2380100F0E3
S315080026F03DFBD4E78B680FF23C0100F037FB2068FE
S3150800270000EB0710C2689BF80000002AC4D00FF23D
S315080027102C01ECE7BDE8F78F0D0A0000746167002D
S315080027202C2000002D2D2D2D202570202D2D2D2D12
S315080027300D0A00002020257020257000202D202558
S31508002740700D0A002DE9F0439BB00EA80FF2AC21DC
S31508002750342201F03DF84FF000098DF80190A520CC
S3150800276001F071F801F0D0F8012300220F210020B2
S3150800277001F03EFA050006D0012300220A210020B6
S3150800278001F036FA0546012300220F21012001F047
S315080027902FFA060006D0012300220A21012001F0A3
S315080027A027FA0646012300220F21022001F020FA0B
S315080027B05FEA000806D0012300220A21022001F060
S315080027C017FA804601F026FC844C5DB1002E68D0CD
S315080027D0B8F1000F6BD04FF4FD710FF2542001F0E1
S315080027E01FFC04E0002E18BFB8F1000F62D084F871
S315080027F00090201D01F046FD201DFFF7FDFE0FF29B
S31508002800402520780FF2402800F03CF920780FF296
S315080028108C2100F0ABFA6EA6FFF752FE201D01F0E0
S31508002820A9FF00F02EF920780FF27C2100F09EFA1D
S31508002830FFF746FE201D01F0BAFF00F022F92078C6
S315080028400FF2702100F092FAFFF73AFE201D02F00F
S315080028502AF800F016F920780FF2642100F086FABB
S31508002860FFF72EFE201D03F063FB00F00AF920781F
S315080028700FF2582100F07AFAFFF722FE201D03F026
S3150800288074FB00F0FEF820780FF2C41100F06EFA1F
S31508002890FFF716FE201D04F089FA4EA54EA601AFD5
S315080028A03FE0B8F1000F05D001202070A1E7022013
S315080028B0FBE725702078FF289BD100256946284626
S315080028C001F0D6F938B99DF800000D2818BF0A2876
S315080028D018BF2A28EDD06D1CEDB2032DEEDBE9E713
S315080028E08DF800009DF800107A5C481C0A2A18BF6B
S315080028F00D2A18BF002AF3D10D227A548DF800004C
S3150800290001A99DF80020201D01F0C8FC9DF80020B3
S3150800291001A90EA800F0A6FC9DF8009000208DF8ED
S31508002920010000F0AAF820780DF10103322201A96E
S3150800293001F0EFF90028D3D000F081FF01F056F935
S3150800294004F0C2FC03F098FE9DF8010020B39DF840
S31508002950011001A8084410F8010C09281CD1FFF73A
S31508002960AFFD9DF80100401E8DF8010001A99DF8F4
S315080029700120201DFFF786FE9DF8011000207854DF
S3150800298000F07BF8002004E000F072F89DF80000E3
S31508002990401C00F065F8F7D39DF804002128C2D141
S315080029A0FFF78EFD4A460EA901A800F05BFCA9F1C7
S315080029B001008DF8010000F060F8002000F050F8E2
S315080029C0B1D200F055F89DF80000401CF6E700006B
S315080029D05D0D0A00256300000D0A000098220020FC
S315080029E09121000868230020F6230020F723002001
S315080029F0F8230020F9230020A02300200D00000062
S31508002A0000000000000000000000000000000000B8
S31508002A1000000000000000000000000000000000A8
S31508002A200000000000000000000000000000000098
S31508002A30706C6174666F726D746573742E630000D2
S31508002A405B494E49542000000D0A3E200000000054
S31508002A507365745065725465737454780000000089
S31508002A608DF800009DF801109DF800008842704717
S31508002A703A5C2078294600F079B94146207800F07A
S31508002A8075B92078294600F071B980B504F0C0FC04
S31508002A90BDE80240002055E6002070476372617366
S31508002AA068696E666F000000726573657473747288
S31508002AB0696E6700696E6974546F6B656E730000A2
S31508002AC0696E6974526164696F00000073656564B4
S31508002AD0506E72670000000070B51346104402E09D
S31508002AE0A4192C705B1EDCB24CB101F00F06090963
S31508002AF0451E0A2E2846B4BF30243724F0E7104472
S31508002B0070BDF0B5002341B1002806D501232D215B
S31508002B10B0F1004F117018BF4042002100240FF297
S31508002B20882555F82470002601E0C01B761CB8429B
S31508002B30FBD2F7B20FB90F0005D0DBB206F13001B0
S31508002B40D1545B1C0121641C092CEADBDBB2303052
S31508002B50D054581CC0B2F0BD2DE9F24F80468AB059
S31508002B6007A80190154603A89B4603AE0027002434
S31508002B708DF800000BE0012405460198864205D32E
S31508002B8000F0DCF800284FD100F0CEF86D1C9DF857
S31508002B9000002978301A0A000BD0252903D014B969
S31508002BA006F8011BE9E7002C14BF00246D1C2978E0
S31508002BB00A0000F0AF80B1F1250216D00B3A092AB7
S31508002BC040F28980283A7DD00A3A12D0521E41D066
S31508002BD0521E5FD0083A5DD0121F3ED0D21E3CD09E
S31508002BE0921E57D0D21E6DD0C7E7252006F8010BD6
S31508002BF0C3E7DBF8000002904FF0000A0BF104006F
S31508002C0000F1040BD0F80090CA45B6D2029810F825
S31508002C100A1002223046FFF75FFF064601988642F1
S31508002C2005D300F08BF800287AD100F07DF8A9F1D9
S31508002C30010082453CBF202006F8010B0198864218
S31508002C4005D300F07BF800286AD100F06DF80AF188
S31508002C50010AD9E75BF8040BC8E75BF8049B00F0A8
S31508002C6067F800285CD100F05FF84FF0000A01E031
S31508002C700AF1010A5FFA8AFA19F80A000028F7D158
S31508002C809DF8280052464946C047002848D157446F
S31508002C90FFB272E76C290AD16A785BF8040B752AC9
S31508002CA00EBF00210121642A07D16D1C05E0752994
S31508002CB05BF8040B0CBF002101213246FFF721FF08
S31508002CC036185AE75BF8041B0222C9B23046FFF7EA
S31508002CD003FF064651E76A780124782A18BF582A5E
S31508002CE0F8D16D1C0024681E322904D15BF8040B48
S31508002CF0042281B2EAE734297FF43DAF5BF8049BEE
S31508002D0004224FEA19413046FFF7E6FE04221FFA6D
S31508002D1089F1DCE700F00CF810B9F019C0B200E050
S31508002D2000200BB0BDE8F08FF719FFB203AE70476D
S31508002D3006469DF82800F2B203A940479DF8000010
S31508002D40361A9DF82800F2B203A9404713A10DE0F0
S31508002D500CB438B5044604AA00F010F80546204617
S31508002D60FFF7F4FF284632BC5DF80CFB0CB480B5BF
S31508002D7002AA00F003F802BC5DF80CFB10B5084B7C
S31508002D801B5C0024012B07D113460A460146054859
S31508002D90FFF7E2FE00B90124204610BD0D0A000027
S31508002DA0FC3F0008D33E000800CA9A3B00E1F5053F
S31508002DB08096980040420F00A08601001027000068
S31508002DC0E8030000640000000A000000DFF864144D
S31508002DD0096801EB40107047DFF85C24126811544B
S31508002DE070472DE9F041040035D004F067FCDFF8A0
S31508002DF04C14DFF84C340E78FF228046FE2EDFF89E
S31508002E0044041BD100260E70DFF83CC4DFF83C648E
S31508002E1037781F70002708E007F1010E05F807E06C
S31508002E20DCF80050EA555FFA8EF796F800E0056878
S31508002E307745F1DB05EB0E0606F8012C1E78A6424F
S31508002E400BD2404604F040FC052004F077FC002134
S31508002E501B2004F0C1FCFF201EE0361B1E70DFF8A5
S31508002E60F0330E780F78D3F800E001250EF80750F6
S31508002E70641E056815F807E081F800E05FFA84FE2D
S31508002E80BEF1000FEED1EA5500213046FFF7A4FF48
S31508002E90404604F019FC3046BDE8F08110B50446FA
S31508002EA004F00CFCDFF8A81309680A5D521C0A55E1
S31508002EB0BDE8104004F008BC2DE9F041054600F0D5
S31508002EC031F8044604F0FAFBDFF87023DFF87033B4
S31508002ED0DFF87063DFF87883FF2D1FD0D8F800106D
S31508002EE04F5D7F1E4F557F27D8F800E01EF8051066
S31508002EF0394213D13168495D00270EF805701F78ED
S31508002F007F1C1F70FF29376892F800E007F805E074
S31508002F10157006BF2546FF240D46DDE7BDE8F041DE
S31508002F2004F0D2BB80B5DFF828130968095C0906E6
S31508002F3003D5FFF74BFF007802BDFF2002BD70B531
S31508002F4004460D4605F11F000004400D82B0C0B2CC
S31508002F50FFF747FF0646FF2E0CD02946FFF73CFF32
S31508002F603CB1012000902B4600223146204600F055
S31508002F7002F8304676BD73B500F0C0F8405C1546D9
S31508002F801E467119884203DA40F25F1100F0DBF839
S31508002F9030000CD0294601A800F0D9F80246069858
S31508002FA09DF8041000903346204600F001F873BDE2
S31508002FB02DE9F843089CDFF88C82054689461646B3
S31508002FC01F460BE06A5C4254491CB142FADBD8F84A
S31508002FD00000BF1BAD1910F809900026F8B2C8B159
S31508002FE04846FFF7F3FEFFB28019F1192029B2BF50
S31508002FF03E46C6F12006F6B22100324604D1014605
S31508003000284600F02FF9E2E7012C08BF2946F8D038
S315080030100021DAE7BDE8F1832DE9F04100F06EF80A
S3150800302082B0055D17467819A84288461E4606DB13
S315080030300ED07919C9B2204600F04EF808B118200A
S3150800304007E000963B462A4621464046FFF793FF8F
S315080030500020BDE8F6810123DEE70A4600E0521C9F
S315080030601378002BFBD1521A0223D2B2D4E7F8B553
S31508003070044601F11F00C50402F11F00C0042D0E0D
S31508003080000E05B9012500B90120854222D0DFF8D6
S31508003090B46110DA401BC0B2FFF7A3FE0746FF2F44
S315080030A001D10020F2BD691EC9B2204600F02BF8F6
S315080030B031680F540EE08A420CD2411EC9B220462E
S315080030C000F021F804463068005DFFF7F5FE316828
S315080030D0FF2008550120F2BD38B500F00FF80D465F
S315080030E0015D2A462046FFF7C2FF28B12946204639
S315080030F0FFF772FE002032BD182032BD0446DFF805
S3150800310038010068704704E0DFF838211268105C5F
S31508003110491ECAB2002AF7D1704711B50C46DFF826
S315080031201811096881B0095C8C4203D340F2F51185
S3150800313000F009F8214601A800F009F8044600F055
S3150800314060F8204416BD0FF20C1000F069BF38B5C0
S3150800315004460D46E9042078090EFFF7D4FF2070CF
S3150800316005F01F0032BD80B5FFF7D7FF007802BD16
S3150800317010B51446FFF7D1FF047010BD70B500F006
S315080031800AF8064600F004F800EB062080B270BD87
S3150800319029462046E7E70D46691C0446C9B2E2E718
S315080031A02DE9FC4405B40A9C20001F4627D089B2A5
S315080031B06846FFF7CCFF0646B9B201A8FFF7C7FF76
S315080031C00746BE42A8BF3046A4B2C0F12000254635
S315080031D0C0B2A842B8BF054600F013F882469DF86B
S315080031E00000FFF7F3FD2A460AEB0701304400F01A
S315080031F039F8641BA919EF19A0B20028D7D1BDE880
S31508003200FF849DF80400E1E570B504460D4604F018
S3150800321055FA0D4B21781B68FF2908BF5D5503D069
S3150800322019440E785E550D702570BDE8704004F09F
S315080032304BBA0000642300206823002005240020E0
S31508003240022400207023002074230020012400207B
S315080032506C2300207061636B65742D627566666504
S31508003260722E6300814233D210441144401E491E17
S3150800327010E011F8013900F80139121F11F8013967
S3150800328000F8013911F8013900F8013911F8013946
S3150800329000F8013992B2042AEBDA93B2002B1EBF6A
S315080032A011F8013900F80139521EF6D1704711F8A4
S315080032B0013B00F8013B121F11F8013B00F8013BE6
S315080032C011F8013B00F8013B11F8013B00F8013BFE
S315080032D092B2042AEBDA93B2002B1EBF11F8013B17
S315080032E000F8013B521EF6D17047130003D00A4678
S315080032F0194604F073BA704710B500E0521E93B22F
S3150800330023B100F012F8F9D0181B10BD002010BD2B
S3150800331010B500E0521E93B22BB100F006F8F9D0B2
S31508003320181B40B210BD002010BD10F8013B11F863
S31508003330014BA3427047000000F10103810704D046
S3150800334010F8011B89B18107FAD10268B2F101317F
S31508003350914311F0803F04BF50F8042FF6E710F8A8
S31508003360011B11B110F8011BFBE7C01A70470000DA
S3150800337038B50446611D206A2368451A2079EAB2E1
S31508003380984708B1002032BD00F018F8601D206289
S31508003390012032BD38B50446002500E06D1CEDB2AB
S315080033A0485D0028FAD1207923682A46984718B933
S315080033B000F004F8012032BD002032BD94F829003F
S315080033C0281884F8290070472DE9F04F804608F13F
S315080033D0200785B008F1050038600E4608F115008B
S315080033E07860914600207872DFF8B44313E018B18C
S315080033F008F105003860164625B17D2000F0A0F9D1
S3150800340001F8010D38687968884203D300F096F907
S31508003410002862D0761C3078010000F075812528D6
S31508003420617818BF262809D07B281CBF7D28232849
S3150800343002D10029E6D0E1E7A178FAE716F8012FCC
S31508003440252A18BF262A04D100F07AF901F8012D99
S31508003450D8E726280BD151B101256E2A18BF4E2A66
S3150800346006D000F06DF97B2001F8010D00E000257B
S31508003470317800204E2906D0542923D06E2902D04F
S3150800348074291FD032E0207859F804BB0028B9D037
S3150800349035B138687B210170811C3960282141705B
S315080034A000F04CF9002818D000F03BF9002814D099
S315080034B0002DA7D0386829210170811C39607D212B
S315080034C041709FE700F038F9002806D000F029F986
S315080034D0002802D000F032F9002800F07C8000F0C5
S315080034E02FF93A2001F8010D761C0120317896F85B
S315080034F001E0A1F13002D2B2911E05293CD2BEF1FB
S31508003500640F18BFBEF1750F36D159F804CB0023E6
S3150800351001211FFA8CFCBEF1640FE24609D15FEA6D
S315080035200C4E06D56FEA0C0C0CF1010C01231FFAA0
S315080035308CFCBCF1000F0AD04FF00A0E9CFBFEFC77
S315080035405B1C1FFA8CFCBCF1000FF5D10BE05B1C71
S3150800355009E0D7F800E00EF1010EC7F800E04FF0D9
S31508003560200C0EF801CD9C460CF101035FFA8CFC89
S315080035709445EEDB761C00E000213378721E002BA2
S3150800358000F0BE80322B18BF342B00F09580482BF4
S3150800359006D0582B0FD0632B0FD0642B1FD0682B67
S315080035A000F07F806C2B52D0702B18BF732B0BD07A
S315080035B0752B14D0782B76D019E73868411C3960FA
S315080035C059F8041B017017E700F0B6F818B100F0B7
S315080035D0A8F80028F7D1002005B0BDE8F08F00292B
S315080035E019BF1FFA8AFA514659F8041B89B229B934
S315080035F000F0A6F8302001F8010DFDE60020642B46
S315080036000DD10A040BD53B685B1C3B602D22B1F536
S31508003610004F03F8012D02D0494289B259B10A2256
S3150800362091FBF2F20A23C0B203FB12110DF8001047
S31508003630401C91B2F2E70146481EC9B20029DCD007
S31508003640C0B23A681DF8001000F065F8F3E759F8BB
S31508003650041B0029CCD0002000290AD53B685B1C36
S315080036603B602D22B1F1004F03F8012D01D04942EC
S3150800367059B10A22B1FBF2F20A2303FB121102AB7B
S31508003680C0B21954401C1146F2E70146481EC9B299
S31508003690002910D002A9C0B23A68095C00F03BF8CC
S315080036A0F3E700F041F8022259F8041B3868C9B25A
S315080036B0FFF712FA38609FE616F8010F682818BF58
S315080036C048280BD100F030F816F8011C3868322962
S315080036D00AD159F8041B042289B2E9E7782818BFE9
S315080036E05828F1D0761E87E659F804BB04224FEA1B
S315080036F01B41FFF7F1F9386004221FFA8BF1D7E76F
S3150800370001007FF474AE76E600F018F800283FF45E
S3150800371062AF787A60E7521C3A60303102F8011DD0
S3150800372070475946404635E6386830210170811C95
S31508003730396078214170704759F804BB404617E64E
S315080037403968491C396070470EB410B515490978AF
S315080037508BB0002409B9002008E000F019F80146EA
S315080037606846FFF731FE00B9012420460CE00EB486
S3150800377010B58BB000F00CF8002401466846FFF738
S3150800378023FE00B9012420460BB010BC5DF810FBDF
S31508003790054900910DAA054909788DF80410704766
S315080037A0F7230020F6230020D33E000898220020A5
S315080037B062B38B0708D0521E11F8013B00F8013B93
S315080037C000F024808B07F6D1830740F0208000BFE5
S315080037D0103A07D330B4B1E83810103AA0E83810D8
S315080037E0F9D230BC530724BFB1E80810A0E8081086
S315080037F044BF51F8043B40F8043BD20724BF31F8D4
S31508003800022B20F8022B44BF0B7803707047083A46
S3150800381007D3B1E80810083A40F8043B40F804CB4F
S31508003820F7D25307E4E7000004F0C3B82C48012197
S3150800383081604EF6BE214160012101607047294929
S31508003840012008607047A52805D125484DF6AD61C9
S3150800385041600221016070472148006810F00100AC
S3150800386018BF0120704700F007011F4AC00802EB85
S3150800387080200122806807E000F007011A4AC00884
S3150800388002EB80200122C0688A401040C840704779
S3150800389080B51649164A1020086016491648007859
S315080038A003000BD003280CBF00200120106040F64F
S315080038B051000860002004F0CFFA06E002201060EC
S315080038C04FF40060086004F03AF80C4807210160DC
S315080038D00021016410200A490860002002BD00008A
S315080038E0006000400860004000B0004080E100E051
S315080038F0080000400C600040CB2F002014A00040B8
S3150800390000E100E07047704780B5A6480021416095
S3150800391041708170A5210170012003F0D9FE03F0E2
S3150800392008FF00F01EF8002002BD9F480168C9077D
S3150800393000D4704780B59D490A6822F440620A603F
S31508003940016849084900016001680902FCD49848E1
S31508003950006810B1642004F070FA964900200860E7
S3150800396001BD80B59448016841F08071016001206D
S31508003970924908600020924904F07CFA9149924ADB
S315080039800220086000209149086091489149016029
S3150800399001211160844A9049116040F20141016594
S315080039A04FF480308D49086001BD824800680028C0
S315080039B01EBF7F480068002805D07F480068000EB3
S315080039C000F00100704700207047D1220270417054
S315080039D0090A817082490A78C270501C087004204E
S315080039E070472DE9F14F82B0DFF8F8810090002684
S315080039F0D8F800000099405C451D04F06DFAEDB258
S31508003A0001904FF6FF7A19E0B11E9DF80800C9B279
S31508003A10FFF7A9FB0746514604F092FA82465E462E
S31508003A20FFB24FEAC90007FA00F0044309F1010999
S31508003A30B9F1040F17DB4FF060400460FFF7B5FFDC
S31508003A40F6B298B3AE4231DA04F046FA0199401A52
S31508003A5080B2B0F5FA7F29DC4FF060400068012893
S31508003A60ECD10024A146F0B210B95B270126D7E7AE
S31508003A7006F1010B0128F6B204D1D8F80000009926
S31508003A80475CCCE7E91E884208BF5746C7D0A91E3F
S31508003A90884208BF4FEA1A27C1D0691E884208BF64
S31508003AA05D27BCD0A842AFD10027B9E74FF4C8704C
S31508003AB004F0C3F9AE420CBF00200120BDE8FE8F1A
S31508003AC048490968095C0429A8BFFFF78ABF01208D
S31508003AD070472DE9F04D334D6E78300060D004F014
S31508003AE0FBF9834631460020FFF729FA0446FF2CE6
S31508003AF0A04602D10020687052E0202EB4BF374697
S31508003B002027FFF763F96860AF70DFF8DCA004E0F0
S31508003B104046FFF75BF96860AF706878C8B104F093
S31508003B20DBF9A0EB0B0080B2B0F5FA7F11DCA878C0
S31508003B300028F2D1F61BF0B200286E70EDD0DAF844
S31508003B40000010F80880F6B2202EB4BF37462027AA
S31508003B50DEE7F6B2002E04BF6878002818D1A878E8
S31508003B60B0B920480068005D851EE9B22046FFF717
S31508003B7005FB122808D1E9B22046FFF7ADFA21461F
S31508003B80122004F0BBFA06E0204604F001FA02E02F
S31508003B9000206870A8702046BDE8F04DFFF78CB984
S31508003BA0BDE8F08DF02F0020800E00E0001000E048
S31508003BB034000040100004E0FCED00E0040004E0DE
S31508003BC020A10700F00004E0000E00E0040304E072
S31508003BD0B00F00E055CEACC50D00010000E100E0D5
S31508003BE0CF2F002068230020702300207047000094
S31508003BF02DE9F0470446884691469A4600F0EFF9C3
S31508003C00002801BF25460FF2F430405D012821D176
S31508003C10DFF8BC6356F8257003F050FD0021B98023
S31508003C203980798003F050FD06EB8500066903F0BC
S31508003C3045FD0021B18031807180DFF89823515508
S31508003C4003F042FD53464A4641462046BDE8F04742
S31508003C5004F0C4BA2120BDE8F08710B5044604F084
S31508003C60C3FBDFF86C0300EB84000069808810BD95
S31508003C702DE9F84381464C46DFF8540300EB8400EF
S31508003C8088460569484600F0AAF908B101203EE0D1
S31508003C90DFF84063305D06EB440760B1B888698891
S31508003CA0884208D103F00AFD355D0021315503F03D
S31508003CB00BFD28462BE0484604F096FBA88800280A
S31508003CC01EBF0FF2443030F81490B9F1000F1DD022
S31508003CD003F0F4FC69882944897988F800104FF6BE
S31508003CE0FF786988491C91FBF9F209FB1211698072
S31508003CF0A9884144A98003F0E7FC305D20B1B88863
S31508003D00404504BF2888B880002000E02620BDE88A
S31508003D10F283F8B51F46044638780D460100164664
S31508003D2001D0B04208D30020287005E03878411C3D
S31508003D3039709DF80010295469462046FFF798FF08
S31508003D40010056D19DF800008028F5DA39780A0076
S31508003D5003D10A2818BF0028EED0B14207D30020A5
S31508003D6038709DF800000D2818BF0028E4D09DF88B
S31508003D700000082818BF7F280CD138780100DBD04E
S31508003D80401E38700021C0B2295490A1204600F088
S31508003D9057F8D1E73878801C8642BCBF0D208DF8CD
S31508003DA000009DF80010204600F038F89DF8000045
S31508003DB061381A2804D29DF8000020388DF80000D2
S31508003DC09DF800000D2818BF0A28AFD139780020C1
S31508003DD068549DF800000D2805D10A21204600F0F8
S31508003DE01DF8002603E00D21204600F017F83E7066
S31508003DF00020F2BD70B582B0044600200D46164676
S31508003E008DF8000001E0FFF71AFD6B463246294699
S31508003E102046FFF77EFF0028F5D176BD02B50122C0
S31508003E20694600F056F802BD80880FF2C81333F8C9
S31508003E301110891A884201DA01207047002070475C
S31508003E402DE9F047824656460FF2B010805D0128EC
S31508003E500D463BD15E480FF2B81850F826700FF29F
S31508003E60A019002419E003F029FCB98801B9012436
S31508003E7039F816100A000DD03B882A783B449A7107
S31508003E803A88521C92FBF1F301FB13213980B98859
S31508003E90491CB98003F018FC6D1C287888B10022EB
S31508003EA051463846FFF7C0FF0028DCD11CB1504602
S31508003EB004F0D9F9002418F806000028EFD12220CA
S31508003EC005E0504604F0CFF9002000E00120BDE8E7
S31508003ED0F0872DE9F84F8046C1460FF2201010F8FA
S31508003EE0090001280D4616463ED139480FF2201B17
S31508003EF050F829400FF2081030F819A0002718E0EA
S31508003F0003F0DCFBA18801B90127BAF1000F0DD037
S31508003F1022882978A21891712188491C91FBFAF206
S31508003F200AFB12112180A188491CA18003F0CCFB51
S31508003F306D1C3046461EC0B288B100224146204656
S31508003F40FFF772FF0028DBD11FB1404604F08BF95A
S31508003F5000271BF809000028EFD1222005E040467B
S31508003F6004F081F9002000E00120BDE8F28F80B559
S31508003F7001460FF28802525C012A05D1144A52F80A
S31508003F8021108A88002AFCD104F0C3F9002002BD5A
S31508003F900CB438B504460D4604F092F904AB2A462B
S31508003FA021460D48FEF7D8FD20460FF25001095C60
S31508003FB0012907D1064951F82000808810B120460A
S31508003FC004F051F932BC00205DF80CFB082008000B
S31508003FD080230020082D0020D1820008704704287D
S31508003FE006DA0FF21801095C481E8041C00F7047B7
S31508003FF001207047800080008000800001010101D7
S315080040008000800080008000400040004000800062
S3150800401001010101002181F31188704742DE7047D2
S3150800402038B504460D46FFF70AFC03F047FB294658
S31508004030204603F099FF2B4622460FF2D4110120A1
S31508004040FFF7A6FF29462046BDE83440E6E767485D
S315080040502DE9F047664D01682E1D4FF420687165FD
S31508004060016AB16563490968F165416A3166816A21
S315080040707166C16AB166016BF166806B306796F846
S31508004080340040074CBFF46BB46B04F0E8FA002226
S31508004090F2648442584A014624BFA2F1200AA24586
S315080040A02746316505F18C03DFF850C1DFF850E18A
S315080040B018D3A0693064E4697464746DC4F30804A1
S315080040C0062C13D1704511D360450FD200884DF6E2
S315080040D04264A0420AD13068586040F2017870689C
S315080040E0986003E0002737647764074645488142AD
S315080040F002D2014600E0091D0846904203D20C6828
S31508004100B4F1CD3FF7D04049081AB0640021002029
S3150800411005EB8004401C0628A167F9DB002003E0B4
S31508004120C0B205EB8004A167974222D252F8041D5B
S315080041307145F9D36145F7D2CC07F5D5002405EBCF
S315080041408409D9F87890894502D0641C062CF6DBD8
S31508004150062CE9D1002814BF401E0520E0E7716F40
S31508004160002405EB8402641CD76F9767052CF8DBDF
S3150800417019600146481EC9B20029F0D1706DC0F316
S31508004180080002280AD0032815D0042816D00528C6
S3150800419017D0062818D00C281CD01EE01B4801682A
S315080041A0890748BF40F602181CD40068C00719D50D
S315080041B040F2025816E040F6012813E040F60228BD
S315080041C010E040F603280DE0B8F5206F0AD140F656
S315080041D0042807E040F6052804E018B1242838BF6B
S315080041E040F607284046BDE8F087000004ED00E0E9
S315080041F00000002000E300E098220020EC160108E9
S315080042009021000898000020982200201CA0004059
S315080042100D0A5B4153534552543A25703A25645D5D
S315080042200D0A00002DE9F8430446DFF8B8030068D4
S31508004230055D0026E807B14648BF002020D40027C0
S315080042400FF2C84802E04FEA00197F1CFFB2AF42DE
S3150800425011DA39462046FEF786FFF90718F80000F6
S3150800426000F00F00EFD549EA0002F1B22046FEF74A
S315080042707FFF761CE9E7F1B22046FEF7ADFD012087
S31508004280BDE8F28300F12401FF228A700022C2737E
S31508004290C2830A7082730068C86070472DE9F74FB9
S315080042A082B000208DF801000298041D00F1240553
S315080042B008E0607A68720120E07202999DF80000B1
S315080042C000F0A2F903980027002660BB9DF81000AD
S315080042D06946FFF7CDFC002839D0262826D0029853
S315080042E0012100F083F978208DF80000B0461027E8
S315080042F000208DF80100E07A0828E3D8DFE810F0FE
S315080043000A004B008E00E900E9003B014701AC00BA
S315080043109D00D7E7102FCCD09DF80000232836D172
S315080043200820E072CEE79DF8100020B99DF801003C
S3150800433005B0BDE8F08F0398401C0390401E007836
S315080043408DF800009DF81000401E8DF81000B0464C
S315080043509DF8000067280FD29DF800100FF2AC30C8
S31508004360405C00F0300700F00F08400607D5687A71
S31508004370804504DA012602E07B2838BF10279DF81D
S3150800438000000A2818BF0D28B2D10120B1E7202F56
S3150800439098D0032021E1102F1CBF9DF800005F284C
S315080043A000D01EB128780C28F3DA86E7202F18BF2C
S315080043B0302F3ED102992A781144002048744FF0D4
S315080043C00009E8680BE01AF8010B00F016F91BF86B
S315080043D0011B81420DD00198103009F101090190A5
S315080043E00198406828B30198D0F800A0029800F117
S315080043F0110B9BF800000028E5D19AF80000002868
S31508004400E9D1A4F81A90E868618B00EB011080687E
S31508004410E0610020A07228700220E072607A68725B
S315080044206EB32B202872C5F80480607A687204205F
S3150800443077E70321029800F0D9F89DF801000028D3
S3150800444009D0207B20B10298216888470020207374
S315080044500298FFF717FF35E79DF8010018B1029893
S3150800446000F0DEF8F4E79DF80000232803D102984F
S3150800447000F0D6F854E7202FEDD00420ADE09DF8E3
S3150800448000002D2818BF2B2806D128720020686046
S31508004490607A6872032044E722280AD10120FEF7D1
S315080044A0A0FCFF28A8700BD00021FEF795FC05207C
S315080044B037E77B28D0D10120FEF793FCFF28A870A8
S315080044C000F08A800021FEF787FC1020687206201B
S315080044D027E73EB16868697A01FB00800421E1722A
S315080044E06860EFE69DF80010782918BF582904D1AE
S315080044F06A6812B910206872E4E6742918BF54294C
S3150800450003D1696809B90A20F5E7032854D0202F92
S3150800451018BF302F50D1E0692B7A69680278407845
S315080045202D2B08BF4942752A08D134281AD00022F3
S31508004530312814BF4FF6FF70FF200FE0732A08D109
S31508004540312807BF6FF07F027F20274A47F6FF70A2
S3150800455004E00421029800F049F86EE79142A8BFEA
S31508004560884206DB0298022200F079F80028F4D087
S3150800457052E70621EEE79DF8000022281ED1029890
S31508004580002100F084F80028B6D00220C9E69DF87C
S3150800459000007D280DD1A878FFF744FE064602984C
S315080045A0012100F074F808B10220E072002EA3D1B0
S315080045B002E0202FA0D00EB907200EE00949A878FE
S315080045C00968095CFF2908BF082006D00122694648
S315080045D0FEF741FD00288FD002208DF800009DF8D7
S315080045E0001027E7682300200080FFFF027C1AB925
S315080045F00822C27301745FE07047A0F141011A29CD
S315080046003CBF2030C0B2704738B50C4694F82450E9
S31508004610FFF7F3FF61194874681C84F8240031BD5C
S3150800462010B50446206A017831B162290CBF012110
S315080046300221405C2A2807D1216BE28B01EB02118B
S3150800464020464968884706E00420207420466168A9
S315080046508847002020742046BDE810402CE038B575
S31508004660837B057BAB4204D10521FFF7BFFF002002
S3150800467032BD846844F82310817B491C8173016A22
S315080046808B5C2A2B1CBF89180162012032BD10B52C
S3150800469000F1200213681B78622B04D00421FFF76F
S315080046A0A5FF002010BD9379FF2494710122BDE86F
S315080046B0104003EB0121D2E770B500F10804A06AA7
S315080046C0E18A00EB01100026856805E00220295CD6
S315080046D02A2918BF2D18761CA179F0B288420BD268
S315080046E028786228F2D12068F6B250F82600C0B2BF
S315080046F0FEF7E2FB0120EAE70020A071A07FFF2871
S3150800470003D0FEF7D9FBFF20A07770BD000000009C
S3150800471000000000002020202020000000000000EB
S3150800472000000000000000000000000020003030FB
S315080047300000000000000030003000004041424305
S31508004740444546474849000000000000005A5B5CA3
S315080047505D5E5F1010101010101010101010101061
S31508004760101010101010103000000000005A5B5C8A
S315080047705D5E5F0010B503F0DEFF40F2A174C44031
S31508004780E0070BD5064C207803F0ECFF207804F000
S3150800479073F82078BDE8104004F06FB910BD00BF6B
S315080047A0982200201F210FF22C00FFF739BC10B504
S315080047B002F049FF044602F03BFF0246234604483E
S315080047C00FF220010078BDE81040FEF7CFBA0000CE
S315080047D09822002072657365742D746573742E6350
S315080047E00000000052455345543A25702D25700D9A
S315080047F00A00000010B5DFF834440FF218012078DB
S31508004800FEF7B4FA20780FF21C01BDE81040FEF757
S31508004810ADBA0000286C6974746C6520656E6469AD
S31508004820616E00002C20616C6C20646174612072DA
S315080048306570726573656E7465642061732062794C
S315080048407465206172726179290D0A000178A1F1F7
S3150800485030030A2B0AD3A1F14103062B38BF373997
S3150800486004D3A1F16102062A03D257390907090EB2
S3150800487000E000214078A0F130030A2B02D240184C
S3150800488030380CE0A0F14103062B02D24018373825
S3150800489005E0A0F16102062A03D240185738C0B2D3
S315080048A070470809704710B504F0F2FB02001AD0E9
S315080048B0DE4C2078042A08BF0FF22C0108D0062AFD
S315080048C008BF0FF2700103D0072A04D10FF2A8011E
S315080048D0FEF74CFA03E00FF2E801FEF747FA2078F4
S315080048E00FF2101191E710BD68616C537461636B28
S315080048F0496E6974546F6B656E73204641494C4521
S3150800490044207769746820454D4245525F454550B5
S31508004910524F4D5F4D46475F535441434B5F564593
S315080049205253494F4E5F4D49534D415443480D0A22
S315080049300000000068616C537461636B496E6974AA
S31508004940546F6B656E73204641494C454420776920
S31508004950746820454D4245525F454550524F4D5F5C
S315080049604D46475F56455253494F4E5F4D49534D45
S31508004970415443480D0A000068616C537461636BC7
S31508004980496E6974546F6B656E73204641494C4590
S3150800499044207769746820454D4245525F45455025
S315080049A0524F4D5F535441434B5F56455253494FFF
S315080049B04E5F4D49534D415443480D0A00000000CF
S315080049C068616C537461636B496E6974546F6B6587
S315080049D06E73204641494C454420776974682045E2
S315080049E06D6265725374617475733A2025580D0AA1
S315080049F000000000546F6B656E732061726520734A
S31508004A0074696C6C20616374697665207768656E75
S31508004A10207573696E672074686973206170706C9D
S31508004A2069636174696F6E2E0D0A00002DE9F04FF7
S31508004A30C1B080687D4F0568FFF7DCFEA8B204F0B8
S31508004A4041FD0446A8B204F09CFB8046A8B204F0D7
S31508004A5011FE8346002C38781ABF4FF6FF71884539
S31508004A600FF27C212CD02346AAB20FF20C11FEF7C6
S31508004A707DF900250FF2AC190FF2AC1A0AE01DF801
S31508004A80062038784946FEF771F9761CF6B2A64232
S31508004A90F5DB6D1CEDB25D4510DABBF1010F23465F
S31508004AA003D17F2200F06EF806E02A4600F06AF885
S31508004AB038785146FEF75AF90026E7E7387851461E
S31508004AC0FEF754F941B0BDE8F08F2DE9F047C0B0C4
S31508004AD0806804684768554EFFF78CFEA0B204F05C
S31508004AE0F1FC8146A0B204F04CFB8046A0B204F06B
S31508004AF0C1FD0546B9F1000F30781ABF4FF6FF71B0
S31508004B0088450FF2DC1131D0A5F1010A15B1FFB2C3
S31508004B10BA450BDA0FF2D411FEF728F930780FF2FE
S31508004B20042153460022FEF721F921E04B46A2B2A2
S31508004B300FF24401FEF71AF9012D08BF7F274B46ED
S31508004B403A4600F01FF838A430782146FEF70EF9E9
S31508004B5000270FF2D00804E01DF8072000F0D7FF61
S31508004B607F1CFFB230784F45F6DB2146FEF7FEF88C
S31508004B7040B0BDE8F08700005B2532785D282564E3
S31508004B8029203D004146684604F0C6BA2DE9F0479B
S31508004B90C2B08068DFF8A87D0668FFF72BFEB0B2C2
S31508004BA004F090FC8146B0B204F0EBFA8246B0B24B
S31508004BB004F060FD0646B9F1000F1CBF4FF6FF7002
S31508004BC0824505D138780FF21811FEF7CFF828E09C
S31508004BD000240FF2741803E0504604F0AEFA641C81
S31508004BE0B4421EDA002513E006FB09F0431E3878A6
S31508004BF009FB04524146FEF7B9F83878032269469C
S31508004C00FFF7F8F86846FFF721FE01A948556D1C1D
S31508004C104D45E9DB012E4B4601AA0CBF7F21E1B2C7
S31508004C20DAE759E0202558000D0A000098220020EE
S31508004C302DE9F047C2B0806807684468DFF8005D70
S31508004C40FFF7D8FDB8B204F03DFC8046B8B204F0D0
S31508004C5098FA8146B8B204F00DFD0746B8F1000F80
S31508004C6028781CBF4FF6FF71894504D10FF27001F1
S31508004C70FEF77CF830E07E1E17B1E4B2A6420BDAE6
S31508004C800FF26801FEF772F828780FF2980133469A
S31508004C900022FEF76BF81FE000260FF2AC0A10E0C0
S31508004CA02878A8F10103324600F02EFF287803225F
S31508004CB06946FFF79FF86846FFF7C8FD01A98855BA
S31508004CC0761C4645ECDB012F08BF7F24434601AA24
S31508004CD02146484604F031FA42B0BDE8F0870000A4
S31508004CE06E6F7420666F756E640D0A004552524FDA
S31508004CF0523A204465736972656420696E64657802
S31508004D00206973206F7574206F662072616E6765FF
S31508004D1020666F72207468697320746F6B656E0DF8
S31508004D200A0000002020202020202056616C69649B
S31508004D302072616E67652069732025582074687231
S31508004D40752025580D0A0000646174612062797423
S31508004D50655B2564206F662025645D3A00000000C7
S31508004D602DE9F043F9B0DFF8D84B0FF6F038FFF726
S31508004D7041FD20784CF2443200F0C9FE20780FF647
S31508004D80E431FFF75DF8DFF8BC0B018818237F22B2
S31508004D9010A804F0C1F900270FF2903910A8494667
S31508004DA0C25D00F0EEFE7F1C182FF7D3E0A700F0D7
S31508004DB09AFE20784FF2640200F0A9FE20780FF6DA
S31508004DC0B431FFF73DF8DFF8800B0188062300F0C1
S31508004DD07AFE002500F0D2FE6D1C062DFAD300F0EF
S31508004DE082FE20784FF2644200F091FE20780FF69A
S31508004DF09431FFF725F8DFF8540B0188062300F0F5
S31508004E0062FE002500F0BAFE6D1C062DFAD300F0EE
S31508004E106AFE20784EF2455200F079FE20780FF6A9
S31508004E207431FFF70DF8DFF8280B00F04AFE00256D
S31508004E3000F0A4FE6D1C082DFAD300F054FE20786D
S31508004E404FF26E4200F063FE20780FF65C31FEF7F3
S31508004E50F7FFDFF8000B00F028FE002508A800F091
S31508004E608EFE6D1C142DF9D300F03DFE20784FF20E
S31508004E70424200F04CFE20780FF64431FEF7E0FF80
S31508004E80DFF8D40A00F011FE002508A800F077FE26
S31508004E906D1C142DF9D300F026FE20784FF26242DD
S31508004EA000F035FE20780FF63031FEF7C9FFDFF83F
S31508004EB0400C01880A237F220DA804F02DF900254D
S31508004EC00DA800F05CFE6D1C0A2DF9D300F00BFE50
S31508004ED020784FF2742200F01AFE20780FF610316F
S31508004EE0FEF7AEFF0125DFF80C0C00F0F0FD00F030
S31508004EF0F4FD9DF8012000F0F2FD6D1EF3D100F0DF
S31508004F00F2FD20784FF2762200F001FE20780FF6A7
S31508004F10F021FEF795FF0125DFF8DC0B00F0D7FD41
S31508004F2000F0DBFD9DF8012000F0D9FD6D1EF3D1E0
S31508004F3000F0D9FD20784FF2766200F0E8FD20787F
S31508004F400FF6D021FEF77CFF0125DFF8B00B00F045
S31508004F50BEFD00F0C2FD9DF8012000F0C0FD6D1EEB
S31508004F60F3D100F0C0FD20784FF2634200F0CFFD88
S31508004F7020780FF6B421FEF763FF0125DFF8800BD2
S31508004F8000F0A5FD00F0A9FD9DF8012000F0A7FDA1
S31508004F906D1EF3D100F0A7FD20784FF2744200F0A1
S31508004FA0B6FD20780FF69021FEF74AFF0125DFF8B7
S31508004FB0540B00F08CFD00F090FD9DF8012000F0E8
S31508004FC08EFD6D1EF3D100F08EFD20784FF6097226
S31508004FD000F09DFD20780FF67021FEF731FF0125C0
S31508004FE0DFF8300B00F073FD00F077FD9DF8012027
S31508004FF000F075FD6D1EF3D100F075FD20784EF2B8
S31508005000636200F084FD20780FF64C21FEF718FF46
S315080050100125DFF8040B00F05AFD00F05EFD9DF84F
S31508005020012000F05CFD6D1EF3D100F05CFD2078D8
S315080050304EF26F6200F06BFD20780FF63021FEF716
S31508005040FFFEDFF8D80A00F03CFD00F097FD6D1C66
S31508005050082DFAD300F047FD20784EF26F3200F0A3
S3150800506056FD20780FF61021FEF7EAFEDFF8B00AA3
S3150800507000F021FD002504A800F081FD6D1C102D0F
S31508005080F9D300F030FD20784CF2563200F03FFD9F
S3150800509020780FF6F011FEF7D3FE0125DFF8840A13
S315080050A000F015FD00F019FD9DF8012000F017FD30
S315080050B06D1EF3D100F017FD20784EF2453200F050
S315080050C026FD20780FF6C021FEF7BAFEDFF8580A4B
S315080050D000F0F7FC00F052FD6D1C082DFAD300F025
S315080050E002FD20784EF6735200F011FD20780FF677
S315080050F0AC21FEF7A5FEDFF8340A00F0DCFC00253B
S3150800510004A800F03CFD6D1C102DF9D300F0EBFC53
S3150800511020784CF24E2200F0FAFC20780FF688210F
S31508005120FEF78EFEDFF8080A04E000BF20255800C7
S315080051300D0A000000F0BFFC002504A800F01FFDC2
S315080051406D1C102DF9D300F0CEFC20784CF64412D5
S3150800515000F0DDFC20780FF66021FEF771FE0125D0
S31508005160DFF8D00900F0B3FC00F0B7FC9DF8012089
S3150800517000F0B5FC6D1EF3D100F0B5FC20784DF2B9
S31508005180430200F0C4FC20780FF63C21FEF758FED7
S315080051900125DFF8A40900F09AFC00F09EFC9DF8B2
S315080051A0012000F09CFC6D1EF3D100F09CFC2078D9
S315080051B04CF24B2200F0ABFC20780FF61C21FEF7D0
S315080051C03FFEDFF8780900F076FC04A800F0D7FC6B
S315080051D06D1C102DF9D300F086FC20784CF653523E
S315080051E000F095FC20780FF60821FEF729FEDFF877
S315080051F0500900F066FC002500F0C0FC6D1C082D67
S31508005200FAD300F070FC20784CF2431200F07FFCD1
S3150800521020780FF6F011FEF713FE0025DFF82409B3
S3150800522001880223EAB200F03DFC00F056FC9DF826
S31508005230012000F054FC6D1C142DEFDB00F053FC2C
S3150800524020784CF2423200F062FC20780FF6C41146
S31508005250FEF7F6FDDFF8F00801885C237F2262A8D6
S3150800526003F05AFF002562A800F089FC6D1C5C2D2E
S31508005270F9D300F038FC20784CF6431200F047FCCE
S3150800528020780FF6A011FEF7DBFDDFF8C00800F066
S315080052900CFC002508A800F072FC6D1C142DF9D32F
S315080052A000F021FC20784BF2542200F030FC2078E4
S315080052B00FF68811FEF7C4FD0125DFF8940800F003
S315080052C006FC00F00AFC9DF8012000F008FC6D1EA3
S315080052D0F3D100F008FC20784DF2463200F017FCB6
S315080052E020780FF67011FEF7ABFD0125DFF864088C
S315080052F000F0EDFB00F0F1FB9DF8012000F0EFFB5C
S315080053006D1EF3D100F0EFFB20784BF2532200F02C
S31508005310FEFB20780FF65411FEF792FD0125DFF803
S31508005320380800F0D4FB00F0D8FB9DF8012000F007
S31508005330D6FB6D1EF3D100F0D6FB20784DF2433232
S3150800534000F0E5FB20780FF63C11FEF779FD012504
S31508005350DFF8080800F0BBFB00F0BFFB9DF8012052
S3150800536000F0BDFB6D1EF3D100F0BDFB20784CF2BA
S31508005370433200F0CCFB20780FF61C11FEF760FDD7
S315080053800125DFF8DC0700F0A2FB00F0A6FB9DF87C
S31508005390012000F0A4FB6D1EF3D100F0A4FB2078D9
S315080053A04DF2423200F0B3FB20780FF60011FEF7FB
S315080053B047FDDFF8B00700F07EFB04A800F0DFFB2E
S315080053C06D1C102DF9D300F08EFB20784CF2545248
S315080053D000F09DFB20780FF6F001FEF731FDDFF8AF
S315080053E088070188062300F06EFB002500F0C6FB3F
S315080053F06D1C062DFAD300F076FB20784CF2453268
S3150800540000F085FB20780FF6D801FEF719FDDFF8C6
S315080054105C07018894237F223DA803F07DFE0025C2
S315080054203DA800F0ACFB6D1C942DF9D300F05BFB96
S3150800543020784DF6540200F06AFB20780FF6B40186
S31508005440FEF7FEFC0125DFF8280700F040FB00F018
S3150800545044FB9DF8012000F042FB6D1EF3D100F0DD
S3150800546042FB20784CF64B2200F051FB20780FF6D1
S315080054709001FEF7E5FCDFF8FC06018822237F226F
S3150800548034A803F049FE34A800F079FB6D1C222DE0
S31508005490F9D300F028FB20784BF2346200F037FB92
S315080054A020780FF67001FEF7CBFCDFF8CC0600F08B
S315080054B008FB002500F062FB6D1C082DFAD300F0EE
S315080054C012FB20784FF6017200F021FB20780FF6C8
S315080054D05001FEF7B5FC012502237F22002100F0CA
S315080054E0E1FA00F0FAFA9DF8012000F0F8FA6D1ECC
S315080054F0F2D100F0F8FA20784EF2231200F007FBFA
S3150800550020780FF63401FEF79BFC04237F22012145
S3150800551000F0C5FA03A800F032FB6D1C042DF9D380
S3150800552000F0E1FA20784EF2754200F0F0FA2078A1
S315080055300FF61C01FEF784FC11237F22022100F0DE
S31508005540ABFA002508A800F01AFB6D1C112DF9D33B
S3150800555000F0C9FA20784EF2632200F0D8FA2078D3
S315080055600FF60001FEF76CFC04237F22032100F0EE
S3150800557096FA002503A800F002FB6D1C042DF9D34A
S3150800558000F0B1FA20784EF2635200F0C0FA2078A3
S315080055900FF2E471FEF754FC04237F22042100F085
S315080055A07EFA002503A800F0EAFA6D1C042DF9D34B
S315080055B000F099FA20784EF2621200F0A8FA2078E4
S315080055C00FF2C871FEF73CFC012502237F22052154
S315080055D000F068FA00F081FA9DF8012000F07FFAE1
S315080055E06D1EF2D100F07FFA20784EF6793200F07F
S315080055F08EFA20780FF2AC71FEF722FC11237F2277
S31508005600062100F049FA08A800F0B9FA6D1C112D18
S31508005610F9D300F068FA20784EF6646200F077FA5B
S3150800562020780FF28C71FEF70BFC10237F220721DE
S3150800563004A803F071FD002504A800F0A0FA6D1C6B
S31508005640102DF9D300F04FFA20784EF2241200F00C
S315080056505EFA20780FF26871FEF7F2FB1A237F22B2
S3150800566008212DA803F058FD00252DA800F087FA7B
S315080056706D1C1A2DF9D300F036FA20784EF2251251
S3150800568000F045FA20780FF24C71FEF7D9FB082393
S315080056907F22092101A803F03FFD002500F06EFADC
S315080056A06D1C082DFAD300F01EFA20784EF2261249
S315080056B000F02DFA20780FF23871FEF7C1FB0A23A5
S315080056C07F220A210DA803F027FD00250DA800F06A
S315080056D056FA6D1C0A2DF9D300F005FA20784EF219
S315080056E0271200F014FA20780FF21871FEF7A8FBBB
S315080056F0012502237F220B2100F0D4F900F0EDF9F1
S315080057009DF8012000F0EBF96D1EF2D100F0EBF9DF
S3150800571020784DF2452200F0FAF920780FF204714C
S31508005720FEF78EFB0423EAB20C2100F0B8F9002636
S3150800573003A84946825D00F024FA761C042EF7D3A6
S315080057406D1C102DEEDB00F0CEF920784EF2742297
S3150800575000F0DDF920780FF2DC61FEF771FB00F04E
S31508005760C2F920784FF60D7200F0D1F920780FF2C1
S31508005770D861FEF765FB00250B23EAB20E210DA8BA
S3150800578003F0CAFC00260DA84946825D00F0F9F927
S31508005790761C0B2EF7D36D1C062DEDDB00F0A3F956
S315080057A020784EF2564200F0B2F920780FF2AC613A
S315080057B0FEF746FB00F097F920784FF4654200F0B3
S315080057C0A6F920780FF2A461FEF73AFB00F08BF9F0
S315080057D020784EF2035200F09AF920780FF2A4616D
S315080057E0FEF72EFB00250123EAB211210DF1020076
S315080057F003F092FC9DF8022000F071F96D1C062D4D
S31508005800F1DB00F070F920784EF2015200F07FF9D2
S3150800581020780FF28C61FEF713FB10237F221221EA
S3150800582004A803F079FC002504A800F0A8F96D1C6B
S31508005830102DF9D300F057F920784EF2025200F0F5
S3150800584066F920780FF26861FEF7FAFA28237F22B4
S31508005850132123A803F060FC002523A800F08FF984
S315080058606D1C282DF9D300F03EF920784EF250220F
S3150800587000F04DF920780FF24C61FEF7E1FA122399
S315080058807F22142100F008F9002508A800F077F90E
S315080058906D1C122DF9D300F026F920784EF251220C
S315080058A000F035F920780FF23061FEF7C9FA00F0FA
S315080058B01AF920784EF2582200F029F920780FF2CA
S315080058C03461FEF7BDFA12237F22162100F0E4F8B0
S315080058D0002508A800F053F96D1C122DF9D300F025
S315080058E002F920784EF2592200F011F920780FF2C9
S315080058F01461FEF7A5FA00253423EAB2172116A883
S3150800590003F00AFC002616A84946825D00F039F91C
S31508005910761C342EF7D36D1C052DEDDB00F0E3F86D
S3150800592020784EF25A2200F0F2F820780FF2EC5165
S31508005930FEF786FA00F0D7F879B0BDE8F0830000E4
S3150800594098220020EC390108EE390108F0390108DF
S31508005950F2390108F4390108F63901085B2532588D
S315080059605D2000004D46475F434849505F44415417
S31508005970410000004D46475F504152545F44415430
S31508005980410000004D46475F5445535445525F4415
S31508005990415441004D46475F454D4245525F455586
S315080059A0495F3634000000004D46475F414E414C82
S315080059B04F475F5452494D5F4E4F524D414C000080
S315080059C04D46475F414E414C4F475F5452494D5FE4
S315080059D0424F4F53540000004D46475F414E414CDD
S315080059E04F475F5452494D5F424F544800000000EC
S315080059F04D46475F5245475F5452494D00000000E7
S31508005A004D46475F3156385F5245475F564F4C54AF
S31508005A10414745004D46475F565245465F564F4CEF
S31508005A2054414745000000004D46475F54454D50D8
S31508005A305F43414C000000004D46475F54455354B0
S31508005A405F54454D500000004D46475F4649425F4A
S31508005A5056455253494F4E004D46475F4649425FA9
S31508005A60434845434B53554D000000004D46475F9C
S31508005A704649425F4F4253004D46475F4349425F9E
S31508005A804F4253004D46475F435553544F4D5F565B
S31508005A90455253494F4E000008A803F03DBB03A8E2
S31508005AA003F03ABB684603F037BB018814237F220C
S31508005AB008A803F031BB018810237F2204A803F04D
S31508005AC02BBB018808237F2201A803F025BB018888
S31508005AD002237F22684603F01FBB9DF8002020782A
S31508005AE04946FDF743B920783946FDF73FB9000026
S31508005AF0F8390108FA390108FC390108FE390108A4
S31508005B00003A0108023A01085146FDF72FB9414605
S31508005B10FDF72CB9043A0108063A0108083A0108C3
S31508005B200A3A01080C3A01080E3A0108103A010827
S31508005B30123A0108143A0108163A0108183A0108F7
S31508005B401A3A01081C3A01081E3A0108203A0108C7
S31508005B50223A0108243A0108263A0108283A010897
S31508005B602A3A01082C3A01082E3A0108303A010867
S31508005B70323A0108343A0108363A010801A849467A
S31508005B80425D2078FDF7F2B84D46475F43555354BA
S31508005B904F4D5F4555495F36340000004D46475F17
S31508005BA0535452494E4700004D46475F424F4152B3
S31508005BB0445F4E414D4500004D46475F4D414E55A9
S31508005BC0465F4944000000004D46475F5048595F0C
S31508005BD0434F4E46494700004D46475F424F4F5494
S31508005BE04C4F41445F4145535F4B45590000000007
S31508005BF04D46475F455A53505F53544F52414745A8
S31508005C00000000004D46475F4153485F434F4E46EC
S31508005C10494700004D46475F43424B455F44415460
S31508005C20410000004D46475F494E5354414C4C4194
S31508005C3054494F4E5F434F44450000004D46475F69
S31508005C404F534332344D5F424941535F5452494D95
S31508005C50000000004D46475F53594E54485F465270
S31508005C6045515F4F46465345540000004D46475F31
S31508005C704F534332344D5F534554544C455F444566
S31508005C804C4159004D46475F53454355524954596F
S31508005C905F434F4E464947004D46475F4343415F82
S31508005CA05448524553484F4C440000004D46475F00
S31508005CB05345435552455F424F4F544C4F41444517
S31508005CC0525F4B45590000004D46475F45544845CD
S31508005CD0524E45545F414444524553530000000018
S31508005CE04D46475F43424B455F3238334B315F443D
S31508005CF0415441004D46475F584F5F54554E450045
S31508005D004D46475F5448524541445F4A4F494E5FA6
S31508005D104B4559004D46475F4555495F36340000A7
S31508005D20535441434B5F4E56444154415F56455286
S31508005D3053494F4E00000000535441434B5F4150B6
S31508005D40535F4652414D455F434F554E54455200A9
S31508005D50535441434B5F414C5445524E4154455F61
S31508005D604B455900535441434B5F424F4F545F4391
S31508005D704F554E5445520000535441434B5F4E4FC6
S31508005D804E43455F434F554E544552005354414385
S31508005D904B5F414E414C595349535F5245424F4F11
S31508005DA054000000535441434B5F4B455953000080
S31508005DB0535441434B5F4E4F44455F444154410061
S31508005DC0535441434B5F54525553545F43454E54C5
S31508005DD045520000535441434B5F4E4554574F526A
S31508005DE04B5F4D414E4147454D454E54000000001E
S31508005DF0535441434B5F504152454E545F494E46BA
S31508005E004F000000535441434B5F504152454E5496
S31508005E105F4144444954494F4E414C5F494E464FB1
S31508005E2000000000535441434B5F43414C5F4441DB
S31508005E3054410000535441434B5F42494E44494E36
S31508005E40475F5441424C4500535441434B5F4348D6
S31508005E50494C445F5441424C450000005354414369
S31508005E604B5F4B45595F5441424C4500535441439F
S31508005E704B5F43455254494649434154455F544153
S31508005E80424C4500535441434B5F414444495449AD
S31508005E904F4E414C5F4348494C445F44415441008E
S31508005EA0535441434B5F5A4C4C5F444154410000A4
S31508005EB0535441434B5F5A4C4C5F534543555249E3
S31508005EC054590000535441434B5F52463443455F8F
S31508005ED04441544100000000535441434B5F52462D
S31508005EE03443455F50414952494E475F5441424CFD
S31508005EF045000000535441434B5F47505F444154AB
S31508005F0041000000535441434B5F47505F50524F86
S31508005F1058595F5441424C450000000053544143D0
S31508005F204B5F47505F53494E4B5F5441424C4500C7
S31508005F3010B50446002003F09CFF002003F0ADFFD7
S31508005F4001F032FC012003F06BFE03F05AFE10F05C
S31508005F50060018BF012004F014F9204604F053FD8A
S31508005F602046BDE8104000F02BBF80B5022100F0A6
S31508005F70E1F8009804F098FE01BD8068DFF858142F
S31508005F800068087008780228A8BF0FF2884305DA67
S31508005F90002814BF0FF288430FF28C43DFF83C0445
S31508005FA00FF26042D0F87013FFE70FF24C40FDF78E
S31508005FB0DEBB80B503F031FFDFF824140FF2B442DC
S31508005FC051F82030DFF81404D0F8D0130FF28440CB
S31508005FD065E138B50446A0680568DFF80004D0F81E
S31508005FE0E0130FF29C40FDF7C2FBEDB215B1012D8F
S31508005FF007D00CE00FF29040FDF7B9FB03F09EFEC8
S3150800600005E00FF29840FDF7B2FB03F0D4FE0FF25D
S315080060109C40FDF7ACFB2046BDE83240C9E780B599
S3150800602005F053F8034613F1010F0FF288400FF2FB
S315080060308C4108BF0FF28C420ED013B90FF28C4276
S315080060400AE0DFF8A003B3FBF0F200FB123038B920
S315080060500FF294410FF28840BDE80840FDF787BB70
S315080060604FF47A71B3FBF1F201FB12310029DFF824
S31508006070780300780EBF0FF278411A460FF2804176
S31508006080BDE80840FCF772BE70B504460D462846C2
S3150800609005F015F806462B460FF28C420FF27040B3
S315080060A004F11101FDF763FBAE4206D032460FF24A
S315080060B080410FF22C40FDF75AFB2846FFF7AFFF49
S315080060C0BDE870406FA0FDF752BB10B5044605F059
S315080060D03EF801462046BDE81040D5E738B50446E7
S315080060E003F09BFE0500DFF8F402D0F890130FF2D8
S315080060F0484018BF0125FDF73AFB03F05CFEA0688F
S315080061000068C0B205F01BF802460FF240310FF2E4
S315080061105C40FDF72CFB0DB103F010FE2046BDE8F0
S315080061203240D2E7FFE700F111010FF24840FDF7D0
S315080061301EBB0121684605F0B6BB38B5044603F018
S315080061406CFE050018BF012503F035FE502001F04E
S3150800615074FE03F043FF03465CA204F111010FF23B
S315080061602C40FDF704FB1DB1BDE8314003F0E6BD48
S3150800617031BD2DE9F84F06468946154603F04DFE12
S31508006180040018BF012403F052FE002E4FF07F0AC8
S315080061906FF07F0B4FF000088DF8000008D101263C
S315080061A0002003F047FE642001F047FE374611E061
S315080061B0F6D57642F4E7802001F03FFE03F04CFE68
S315080061C083455246B8BF834682469245C8BF924623
S315080061D080447F1E012FEEDA9DF8000003F02AFEA8
S315080061E00CB103F0ABFDB9F1000F18BF89F800A098
S315080061F015B198FBF6F028705846BDE8F28F10B531
S3150800620000F01AF804F11101BDE8104003460FF238
S315080062109C320FF28430FDF7AABA10B500F00CF8DC
S3150800622003F00CFB04F11101BDE81040034668A217
S315080062300FF28030FDF79BBA0446002200210120A8
S3150800624097E710B5044686B0A068006804AA0DF161
S315080062501101FFF78EFF039004F111010FF29C3034
S315080062609DF911300FF2843202909DF910000190C9
S315080062700FF2803000900FF25830FDF778FA06B02A
S3150800628010BD00007D0D0A0080B503F0F8FE034638
S3150800629052480FF28032D0F830140FF26830BDE859
S315080062A00050FDF764BA10B504464C48D0F84014BF
S315080062B00FF27030FDF75BFAA068006840B203F091
S315080062C0B6FE2046BDE81040DEE700004343410025
S315080062D02DE9F84F454C0546207838B905F11101E6
S315080062E0BDE8F44F0FF24430FDF741BAA87B022807
S315080062F038DBA8680678476804F029FF8146AEB9F6
S31508006300F8B278B3A75506F10B00C0B204F0D7FE71
S315080063107F1CFF28F6D006F10B00814504BF4846CE
S3150800632004F00DFF761C102EECD31BE00B2E04BFD9
S31508006330F8B2002816D0A6F10B00102812D204EBEA
S31508006340060A30461AF80BBC0AF80B7C04F0B7FEAE
S31508006350FF2808BF0AF80BBC04D0B14504BF48465D
S3150800636004F0EDFE05F111010FF2DC200FF2C01961
S315080063700FF2DC280FF2E8270FF2EC2AFDF7F7F9FF
S31508006380002514A6605D0090534605F10B023946B8
S315080063904046FDF7ECF905F10B0B5FFA8BF0FFF7BA
S315080063A03EFE5FFA8BF004F08AFEFF2805D002460F
S315080063B049460FF2BC20FDF7DAF93046FDF7D7F962
S315080063C06D1C102DDED33046BDE8F24FFDF7CFB970
S315080063D0454400007D0D0A00FB2300208C29010896
S315080063E0D022002040420F009822002034240020AA
S315080063F081680968C9B247E67B264E202674737DF4
S315080064000D0A00005045522054657374204D6F6480
S3150800641065000000656E61626C65642D6E657700C7
S31508006420656E61626C65640064697361626C65645B
S315080064300000000061736C65657000006177616B30
S3150800644065000000656E6572677900007374617493
S31508006450757300007B264E20526164696F20706F49
S31508006460776572207374617465202674737D0D0ACE
S3150800647000000000706F77657220737461746500A0
S315080064807B264E2000000000536C656570696E67B8
S3150800649020726164696F2E2E2E00000057616B69A9
S315080064A06E6720726164696F2E2E2E00646F6E65AA
S315080064B07D0D0A0020267470000000006672657162
S315080064C000000000696C6C6567616C00506572526B
S315080064D0616D526164696F436F6E6669670000009B
S315080064E02026747500000000667265714D487A00B2
S315080064F0207B667265714B487A3A256C7D000000F0
S31508006500207B66726571487A3A256C7D000000002A
S315080065107B264E20526164696F206368616E6E65E2
S315080065206C202674680000006368616E6E656C00F6
S315080065305074694368616E007B264E2053657474F7
S31508006540696E67206368616E6E656C20616E642093
S3150800655063616C6962726174696E67202861732071
S315080065606E6565646564292E2E2E00002674687D86
S315080065700D0A00007B264E206E6F7420696D706CC4
S31508006580656D656E7465647D0D0A00007B264E2078
S315080065902674647D0D0A00007B264E20267464202E
S315080065A05B64426D5D7D0D0A00000000525353493D
S315080065B0000000007B264E20267464205B383032AB
S315080065C02E31352E3420756E6974735D7D0D0A0083
S315080065D07B264E2026746420267464202674642044
S315080065E05B64426D5D7D0D0A000000006D696E52A8
S315080065F05353490061766752535349006D61785287
S31508006600535349007B264E202674642064426D7DD0
S315080066100D0A0000434341205468726573686F6C25
S31508006620640000007B264E7D0D0A00007B264E2066
S315080066307B6E6F7420696D706C656D656E746564CC
S315080066407D7D0D0A000000007B264E0D0A00000025
S315080066507B267468203C3D3E2026746800000000B6
S3150800666046726F6D000000004D6170546F000000A7
S31508006670202674640000000080B5002003F056FD53
S31508006680BDE8014004F034BA38B5DFF83841DFF820
S315080066903811607DC870607B18B105F0E0F90028F4
S315080066A008D505F0DCF940054CBF03200120002180
S315080066B005F006FAE06901224FF4806105F049FB0E
S315080066C0050003D000F05FF901202075284632BD89
S315080066D0DFF8F010C861887DDFF8EC100871D3E7A1
S315080066E070B58EB00C460CA805F02AFB054605F0D9
S315080066F039FB064605F022FBBDF83610DFF8CC203C
S315080067000B9103460FF244010FF248000A910395D4
S315080067100196BDF8341009910FF280010891BDF871
S31508006720321007910FF27C010691BDF830100591E1
S315080067300FF2780104910FF27C0102910FF27C01AD
S3150800674000912146FDF713F80EB070BD737573708E
S31508006750000000007B264E202674752026743268B9
S31508006760202674642F31303025250D0A2020267402
S31508006770642F3130302525202674642F313030259A
S3150800678025202674642F3130302525202674642F61
S3150800679031303025257D0D0A0000000063726974CA
S315080067A0000000006C696D690000000074616C6B84
S315080067B0000000007573656400000000616363658E
S315080067C06C000000E022002034260020D067000874
S315080067D06D6F6465000000002DE9F04B064689469A
S315080067E0904605F0B9FADFF8C045070918BF7F1EBD
S315080067F0A07066708C2E18BF03F012FB3000DFF80D
S31508006800E4550FF22C1B0AD0402E1AD0892E2BD015
S315080068108C2E21D08D2E1DD08F2E09D027E02069F1
S31508006820401C206100F0AAF860B34FF4A46126E08A
S31508006830A069401CA06100F0A1F818B340F22551E8
S315080068401DE0E069401CE06100F098F8D0B140F224
S31508006850315114E005F07FFA6069401C6061287DBB
S3150800686080B14FF4A7610AE040F23C5107E0324696
S315080068700FF2D4010120FDF78BFB40F2495158462F
S31508006880FDF7CEFB402E84F80080C4F8289025D169
S31508006890E078022822DB401EE0702089401C208117
S315080068A005F0DDF800F08020B0F1004F01D000F0CF
S315080068B06AF805F0D4F8000408D505F0D0F84005C4
S315080068C04CBF03200120002105F0FAF8E8690022F0
S315080068D04FF4806105F03DFA060026D000F053F823
S315080068E0300018BF8F2E1ED0207902281BDB401ED1
S315080068F020716089401C6081DFF80805007802284D
S315080069000ADBE969DFF80005814205D10178092922
S3150800691002DBC178491CC170688B01F08EFABDE8AC
S31508006920F04BFFF7B1BE01202875BDE8F08B0000DB
S315080069307068792D636F6D6D6F6E2D74782D746523
S3150800694073742E6300000000656D6265725261649F
S31508006950696F5472616E736D6974436F6D706C659F
S31508006960746549737243616C6C6261636B207374FE
S31508006970617475733A20307825780000206A3818D3
S315080069802062287D70470021002005F099B880B55F
S3150800699004F0E0FB0346DFF878040FF2BC42D0F8B7
S315080069A0F0140FF2A840BDE80050FCF7E0BE30B581
S315080069B0044683B0A068056868B204F0CFFB01906E
S315080069C06BB20FF280400FF2AC420090DFF8400441
S315080069D0D0F800150FF28C40FCF7C9FE9AA0FCF718
S315080069E0C6FE2046BDE83E40D1E700B5DFF82414D0
S315080069F00FF2A4420B8B0FF2B84183B000910193BA
S31508006A0000F111010FF27C4031E18168DFF80424BE
S31508006A1009681183E9E72DE9F14F84B08068008899
S31508006A2001900124401E8041C00F029003F0F5F941
S31508006A3000B101208DF801004FF0000BDFF8685314
S31508006A40DFF8A08368697C4FADF80200D946019843
S31508006A50012813D000F006F93878029921B10FF20F
S31508006A607041FCF783F903E0019A78A1FCF77EF9F7
S31508006A70B8F8182000F0F1F800F0EAF8DFF88863B3
S31508006A80DFF894A3802251463046FCF791FEDFF8E2
S31508006A90740300780228A4BF3078092819DB9AF80D
S31508006AA0011001F0200141F0C1017170A1461821C1
S31508006AB0B1703018029919B100F805BC002004E03D
S31508006AC0019900F8051C019800123178711801F82F
S31508006AD0040CDA4611E001F0FFF9834698F8140031
S31508006AE048B9FFF7C9FD01F0F7F9A0EB0B0080B232
S31508006AF0B0F5FA6FF2D995F801B0029810B9019875
S31508006B0082454FDA00208DF8000069463878FDF78F
S31508006B10AFF89DF80010652944D03878642906D165
S31508006B2000F08CF8049800F11101002007E04429D0
S31508006B3007D100F083F8049800F111010120FFF74E
S31508006B40CFFD0AF101001FFA80FADFF8D0020078BB
S31508006B5020B104F010FF08B105F006F9B8F81800DE
S31508006B6001F06BF9DFF89C02007880B1B9F1000FEB
S31508006B7018BFF4703078042809DB301800F8034C85
S31508006B80201231787118641C01F8020CA4B2002096
S31508006B9088F81400012068703046FFF799FD002830
S31508006BA0834698D038780FF24C315246FCF7DEF817
S31508006BB098F80D0040B1A88ABDF80210421A387834
S31508006BC00FF24C31FCF7D2F838780FF268315A4692
S31508006BD0FCF7CCF8DFF848020FF2743102883878EF
S31508006BE0FCF7C4F838780FF28831FCF7BFF8297833
S31508006BF03878002914BF0FF294310FF29831FCF758
S31508006C00B5F803F005FA28B16A6A38780FF28C31BC
S31508006C10FCF7ACF8AA6A38780FF2AC31FCF7A6F89C
S31508006C20642001F00AF99DF8010008B103F086F81E
S31508006C3005B0BDE8F08F00009822002052460FF2FA
S31508006C40B421FCF793B800000D0A00002575000072
S31508006C5038780FF2E411FCF789B838780FF27C21FE
S31508006C60FCF784B838780FF26021FCF77FB8FCF798
S31508006C707EFD07BD38B500F03DF800F034F818BFC2
S31508006C800124FCF773F803F096F803F05EF902E0C6
S31508006C90287800F00BF800F004F8F9D103F05DF954
S31508006CA01DE09DF800006528704720786946FCF7C6
S31508006CB0DFBF38B500F01EF800F015F818BF01243C
S31508006CC0FCF754F803F077F803F051F902E0287856
S31508006CD0FFF7ECFFFFF7E5FFF9D103F069F90CB10F
S31508006CE003F02CF831BDDFF83C510FF24C110400CB
S31508006CF02878704700208DF8000003F08EB82DE93B
S31508006D00F041DFF820410FF2F02120780FF2F82643
S31508006D100FF2EC28DFF80071FCF728F8002515E0DB
S31508006D207A5D20784146FCF721F8681005EB9070EB
S31508006D308010B5EB800007D13878854204DA2078D0
S31508006D402A463146FCF712F86D1CEDB23878401C1D
S31508006D508542E5DBBDE8F0818068DFF8BC10006895
S31508006D60087070472DE9F84304460025A068DFF847
S31508006D70B46007680FF29C29DFF89C807F1CFFB27D
S31508006D80802F06DAA06800EB8500406808F807003F
S31508006D9005E030786B1C7A1E4946FBF7E7FF6D1C49
S31508006DA0042DEBDBBDE8F183342600201A481421B4
S31508006DB0017001214A1E4254491C8029FAD37047A2
S31508006DC01248194A0021016141618161C16101626C
S31508006DD01160164A1160018141810020144908603A
S31508006DE070470000E022002080680A4A0078010007
S31508006DF018BF0121517302280E490CBF012000203B
S31508006E0008707047FB230020202E0020342600201F
S31508006E108C290108E0220020A02D0020FC23002058
S31508006E20482D0020982200204C2D0020542D0020AB
S31508006E308C2D0020432D00202765276E642E2E2ECC
S31508006E400000000073746174757300007B264E2081
S31508006E5026746464426D7D0061637475616C506F5D
S31508006E60776572007B264E2026746464426D202660
S31508006E7074647D00726571756573746564506F77A7
S31508006E80657200007B264E2026746475732026746E
S31508006E90327875737D0000007472616E736D697463
S31508006EA02064656C61792028646563290000000008
S31508006EB07472616E736D69742064656C61792028DB
S31508006EC068657829000000005478696E672000001C
S31508006ED0696E66696E6974650000000020706163FA
S31508006EE06B657473202575207573206170617274E3
S31508006EF02E2000000D0A2575207061636B6574737A
S31508006F00207472616E736D69747465642E0D0A005F
S31508006F102575206661696C65642064756520746FE3
S31508006F20206368616E6E656C20627573792E0D0A32
S31508006F30000000004C617374207061636B657420F7
S31508006F407374617475733A2030782532780D0A00A7
S31508006F504C617374207061636B6574206261636B46
S31508006F606F66663A2030782532780D0A00000000F0
S31508006F704672616D652070656E64696E6720696E1C
S31508006F80206C6173742041434B3A20005965732E77
S31508006F900D0A00004E6F2E0D0A00000053464420CD
S31508006FA074696D65202876696120534644207365A7
S31508006FB06E742063616C6C6261636B293A20307869
S31508006FC02532780D0A0000005346442074696D6521
S31508006FD0202876696120545820636F6D706C65743B
S31508006FE0652063616C6C6261636B293A2030782591
S31508006FF032780D0A00000000206C656E3A20000009
S3150800700030782578200000000D0A307825783A2057
S31508007010000000007061796C6F61642062797465A4
S3150800702020696E6465783A202564206973206F7537
S3150800703074206F662072616E67652E2061726775AF
S315080070406D656E742025642069676E6F7265642E9F
S315080070500D0A0000130018BF01231A46FFF7BCBB30
S31508007060FEB500F02BFB0021DFF86C4204EB812211
S31508007070926800F049F8F9DBDFF858620FF25C25F0
S3150800708000F022FB002700F044F87F1C032FFADBF0
S3150800709000F014FB002104EB8122D26800F034F8DA
S315080070A0F9DB00F011FB00270FF2482500F031F854
S315080070B07F1C032FFADB00F001FB00218A02A318CC
S315080070C05B68A25842EA034200F01EF8F6DB00F0BD
S315080070D0FBFA00240FF234275DF82430307804F1E7
S315080070E041023946FBF742FE641C032CF4DB307878
S315080070F0DFF8DC11096889064CBF0FF22C210FF264
S315080071003821FBF733FEF7BD4DF82120491C03292A
S3150800711070475DF82730307807F141022946FBF7BA
S3150800712025BE806801784368A02905DB01F00700C1
S315080071300122090902FA00F30A29DFF89801007802
S31508007140A4BF0A39C9B203290BDADFF88C2102EB8E
S315080071508122DBB2136101F141020FF2EC11FBF758
S3150800716005BE1FE0806801784368A02905DB01F0A9
S3150800717007000122090902FA00F30A29DFF8540177
S315080071800078A4BF0A39C9B203290BDADFF8482107
S3150800719002EB8122DBB2536101F141020FF2E011E9
S315080071A0FBF7E4BD43220FF2B811FBF7DFBD70B55C
S315080071B08068017803790124A0294FF0FF3206DBA5
S315080071C001F00702090913B104FA02F3DBB20A292E
S315080071D0DFF800010078A4BF0A39C9B2032915DA15
S315080071E0DFF8F450160005EB812506D4EE6804FA9C
S315080071F002F2D24332401343DBB2EB6001F14102A3
S31508007200BDE870400FF29011FBF7B0BDBDE87040C5
S31508007210C8E7F8B58068017843682E480078A02941
S315080072204FF0FF360CDB01F007060909102B05D3D2
S31508007230BDE8F4400FF27811FBF798BDB200934011
S315080072400A29A4BF0A39C9B203291EDA8A02224CBE
S31508007250A51837000CD4A758D5F804C047EA0C4738
S315080072604FF00F0CB6000CFA06F627EA060633436B
S315080072709EB2A6501A0C6A6001B0BDE8F04001F152
S3150800728041020FF28801FBF771BDBDE8F84089E7B6
S315080072900146104889680E4A09680078C9B200296B
S315080072A011680AD041F0200111601168890654BF9F
S315080072B00FF224110FF2101104E021F020011160E1
S315080072C00FF22C11FBF752BD0FF2341004F0BDBDBE
S315080072D000BC00409822002000B000404750494FAB
S315080072E05F502563494E20202020203D20307825F8
S315080072F0580D0A004750494F5F5025634F55542093
S315080073002020203D20307825580D0A004750494F47
S315080073105F502563434647482F4C203D203078254B
S3150800732034580D0A0000000053574A204469736117
S31508007330626C65640D0A000053574A20456E616207
S315080073406C65640D0A0000004750494F5F5025637D
S31508007350534554203D20307825580D0A000000007A
S31508007360546865206F6E6C79206C6567616C207057
S315080073706F7274732061726520412D25630D0A00B2
S315080073804750494F5F502563434C52203D20307883
S3150800739025580D0A000000004750494F5F502563E5
S315080073A04F5554203D20307825580D0A000000001E
S315080073B0436F6E6669672073686F756C64206265D3
S315080073C020302D440D0A000044697361626C696EB1
S315080073D0672053574A0D0A0043616E6E6F74206426
S315080073E0697361626C652053574A0D0A00000000F4
S315080073F0456E61626C696E672053574A0D0A000034
S3150800740038290020ED1401080000000000000000E3
S3150800741038B5012000F01CFB002000F0A5FC724CDA
S31508007420206840F008002060FCF700FA00F08CFCA9
S315080074306E496F480A78C2604B786E4AD3606E4BC5
S315080074408D78DD608D880560CD8845600889106077
S315080074504889506088891860C889586000F087F89C
S31508007460206820F01000206004F08AFD04F086FEF3
S3150800747000F066FBFCF7D8F9BDE83140FCF708BA1E
S3150800748010B5FCF752FA00F0D0FF5C4900F001F89D
S3150800749010BD57480A78C2604B78564AD360564B97
S315080074A08C78DC608C880460CC884460088910601D
S315080074B04889506088891860C8895860704710B52F
S315080074C000F0A8FA00F040FC4849FFF7E2FF00F098
S315080074D04EF800F008F800F06EFB00F0AFFFBDE8CC
S315080074E01040FCF73EBA4048016821F010010160DF
S315080074F004F046BDF0B50F249D0004FA05F516689C
S31508007500284215D0002505EB830720FA07F7FF0761
S315080075100BD5AF0004FA07FC26EA0C0631F813C0AF
S3150800752004FA07F707EA0C073E436D1C042DEADB4D
S315080075301660F0BDF0B5FF24DD00AC4016682042A9
S3150800754013D00024012504EBC30720FA07F7FF0729
S3150800755008D505FA04F7BE43CF5C05FA04FC0CEA25
