S00F00006E6F6465746573742E7333377F
S3150000400028630020BDA501002DA5010031A50100F2
S31500004010A70A0A010042000004180FAC005A240047
S31500004020000000000000000000000000000000008A
S315000040300000000030D10100000000000000000078
S315000040400000000000000000FFFFFFFFFFFFFFFF72
S31500004050FFFFFFFF00D0030000000000000000008B
S31500004060FFFFFFFFFFFFFFFF100000000000000042
S31500004070000000000000000000000000000000003A
S3150000408000000000000000000E7C00200E7C0020D6
S31500004090286300200CE3010032A80100C859002063
S311000040A0B80F002000F003000000000034
S3150000420028630020BDA501002DA5010031A50100F0
S3150000421039A5010035A501003DA50100B9A501009C
S31500004220B9A50100B9A50100B9A50100B9A501000C
S3150000423041A50100B9A50100B9A5010009AA000020
S315000042403DE000007B3E0100DF5A0000833E010096
S31500004250C53E0100A33E0100A13E0100BD3E010096
S31500004260053901000B330100EF00010073940000D3
S31500004270B9A50100B9A501002BA30100B9A501004C
S31500004280B9A5010029330100B9A50100B9A50100AE
S31500004290B9A50100B9A50100B9A50100B9A501009C
S315000042A0B9A50100B9A50100B9A50100AD3E0100FF
S315000042B0B53E010053DE0000B9A50100B9A5010015
S315000042C0F1A70100B9A50100B9A50100B9A5010032
S315000042D0B9A50100B9A50100B9A50100B9A501005C
S315000042E07149724A01E021B1491E1369DB07FAD40C
S315000042F001B9BAE0506001201060106910F0060F95
S3150000430005D0410700D5B3E0800700D5B3E0002013
S315000043107047F0B513460022002936D0624C634D33
S315000043208BB98B4231D250F8046BEE605B1C0826C9
S315000043302E60264601E036B3761E2F69FF07FAD4B3
S31500004340002EEED11FE0EFF3108672B600230EE0CA
S315000043502F6907F01907102F08BF2F602F693F0735
S31500004360F6D550F8047BEF605B1C10272F608B425C
S31500004370F4D306B962B6264601E026B1761E286950
S31500004380C007FAD40EB96FF002021046F0BD2DE94F
S31500004390F84F474F0D4639680446002041F00101A9
S315000043A09B4639604FEA92088146AA4602E0B1442C
S315000043B00AEB860AC14517D204EB89063046FFF799
S315000043C08FFF010022D1C6F30A00C0F500608608FF
S315000043D0A8EB0900B04238BF06465A463146504659
S315000043E0FFF797FF0100E2D021682A68914209D0C1
S315000043F02046FFF775FF010004D15A4601212846E1
S31500004400FFF787FF3968490849003960BDE8F28F30
S315000044102749254A0B6843F001030B608860012099
S3150000442048604869400704D50868400840000860AD
S315000044301EE04869800704D5086840084000086007
S3150000444019E00220486001E022B1521E4869C00707
S31500004450FAD422B9086840084000086005E00868F8
S31500004460400840000860002070476FF00200704767
S315000044704FF0FF3070476FF001007047002386E76A
S315000044800B48016841F00101016046F21A31C1642E
S315000044904FF4807141604169C907FCD40021C164B1
S315000044A00020704700000000809698000C000E4027
S315000044B008000E4070472DE9F047DFF834580FF238
S315000044C09C010FF2945A0FF28058DFF828980446A0
S315000044D0287800F0E3FD0027E4A603E000F083F966
S315000044E07F1CBFB2206800EB07114A6828781300CA
S315000044F01AD04A4509D14A69130018BF4A45EFD078
S315000045000A68414600F0CAFDEAE78B680A68514628
S3150000451000F0C4FD206800EB0710C2682878002A66
S31500004520DCD00FF23C51EDE70FF2AC0100F0B6FD26
S3150000453028780FF2CC0100F0B1FD28780FF2F001D7
S3150000454000F0ACFD28780FF2141100F0A7FD2878D2
S315000045503146BDE8F04700F0A1BD0000434F4D4D88
S31500004560414E44205B504152414D45544552535DA6
S31500004570205B2D204445534352495054494F4E5DCC
S315000045800D0A202077686572653A20623D6275667D
S315000045906665722C2073313D696E74385F742C2009
S315000045A073323D696E7431365F742C2075313D75FA
S315000045B0696E74385F742C2075323D75696E74317E
S315000045C0365F742C2075343D75696E7433325F74B2
S315000045D00D0A0D0A0000000020202120202D205267
S315000045E06563616C6C7320746865207072657669AA
S315000045F06F757320636F6D6D616E640D0A00000048
S3150000460020205B7461625D202D20417474656D709D
S31500004610747320746F2074616220636F6D706C65B3
S31500004620746520636F6D6D616E640D0A0000000095
S31500004630202020202A2A204E4F54453A20616C6CB7
S3150000464020696E7075742076616C75657320617271
S315000046506520696E20686578210D0A0020202020DB
S315000046602A2A20436F6D6D616E6473206172652026
S315000046704E4F5420636173652073656E7369746968
S3150000468076650D0A00000000A0F141011A293CBF21
S315000046902030C0B270472DE9F84F0546DFF85816AE
S315000046A0A86800680968DFF84876C0B200240E5C86
S315000046B0212EA04607DB38780FF2CC01BDE8F84F73
S315000046C0202200F0EBBC00F009FD8246A14607E07F
S315000046D01AF80900FFF7D8FF0AF8090009F10109DD
S315000046E0B145F5DB32460FF2E401504600F064FFB7
S315000046F040B94FF0010805E038780FF2D8015A4664
S3150000470000F0CCFC296820010A185268130039D041
S31500004710DFF8E095641C4A45A4B2F3D151F800B025
S31500004720B8F1000FE8D1584600F05AFFB042E9D17F
S3150000473032465146584600F033FF0028E2D1BFA664
S315000047400FF21C380FF2940A03E000F04CF8641CD8
S31500004750A4B2286800EB041041680A0018BF494556
S3150000476010D0836802683878514600F097FC2868B4
S3150000477000EB0410C2683878002AE6D0414600F003
S315000047808DFCE4E7BDE8F18F4572726F723A206CDA
S3150000479069737420617267756D656E7420746F6FCE
S315000047A0206C6F6E672C207765206F6E6C79207396
S315000047B07570706F727420757020746F2025752067
S315000047C062797465732E0D0A000000006D6F6475C2
S315000047D06C65730025700D0A000000002570202509
S315000047E0700000002078314600F058BC70B50446D1
S315000047F088B0A068016801B10121DFF80055297071
S31500004800406800B10120DFF8F86430700FF26000F4
S3150000481001F001F9A068C16801B10121DFF8E424C3
S315000048201170006900B10120DFF8DC140870087807
S315000048302B78079004F111010FF25C0006901078B6
S315000048400FF25C0205900FF26000049001200390C5
S315000048507BA00290307801900FF2540000900FF286
S31500004860580001F0D8F808B070BD00000D0A00002D
S315000048705475726E696E67206F6666207461677321
S31500004880206E6F742079657420737570706F727402
S3150000489065640D0A0000000074657874000000006D
S315000048A0686561646572000064656C696D0000008E
S315000048B0636F6D6D616E64007B264E205665726275
S315000048C06F73697479206F7074696F6E7320736586
S315000048D07420746F3A0D0A2674750D0A2674750DC8
S315000048E00A2674750D0A2674750D0A2674757D0DD3
S315000048F00A000000DFF81414007C51F82020DFF8CD
S31500004900F0030FF20801007800F0C8BB43492045C8
S3150000491072726F723A2025700D0A000038B5DFF802
S31500004920D043207845A500F041FA20780FF23401F3
S3150000493000F0B4FB00F039FA20780FF24C0100F0D9
S31500004940ADFB20783FA100F0A9FB20780FF24401CF
S3150000495000F0A4FB20780FF24801BDE8344000F0D7
S315000049609DBB0000456D626572204E6F64652054E4
S31500004970657374204170706C69636174696F6E2031
S3150000498076312E30000000004A756E202038203225
S315000049903031370032303A33383A323500000000D1
S315000049A00D0A0D0A000000002DE9F24F044682B000
S315000049B0256BDFF83CB39046002705E01FA100F009
S315000049C06DFB7F1CBFB210356868A8B3D5F80090A0
S315000049D0DDF808A000260DE01AF8010BFFF754FEDB
S315000049E0009019F8010BFFF74FFE0099C9B28142FA
S315000049F0E7D1761CB0B24045EED32068BD4E00EB41
S31500004A0007114B680A689BF80000B34204D10FF205
S31500004A10380100F043FBD4E78B680FF23C0100F04D
S31500004A203DFB206800EB0710C2689BF80000002AD7
S31500004A30C4D00FF22C01ECE7BDE8F78F0D0A000099
S31500004A40746167002C2000002D2D2D2D202570204F
S31500004A502D2D2D2D0D0A00002020257020257000FB
S31500004A60202D2025700D0A002DE9F0439BB00EA8DD
S31500004A700FF29C21342200F0FFFF4FF000098DF861
S31500004A800190A52001F051F801F09EF800F07FF9A1
S31500004A90002001F0C7F9050005D000F073F90020E9
S31500004AA001F0C0F9054600F072F9012001F0BAF9EB
S31500004AB0060005D000F066F9012001F0B3F90646BC
S31500004AC000F065F9022001F0ADF95FEA000805D0B3
S31500004AD000F058F9022001F0A5F9804601F028FA05
S31500004AE0834C5DB1002E68D0B8F1000F6BD04FF447
S31500004AF0FD710FF2502001F021FA04E0002E18BFDC
S31500004B00B8F1000F62D084F80090201D01F03CFB44
S31500004B10201DFFF703FF0FF23C2520780FF23C28FB
S31500004B2000F044F920780FF29C2100F0B7FA6DA648
S31500004B30FFF758FE201D01F09FFD00F036F92078A2
S31500004B400FF28C2100F0AAFAFFF74CFE201D01F0AF
S31500004B50B0FD00F02AF920780FF2802100F09EFACD
S31500004B60FFF740FE201D01F020FE00F01EF9207820
S31500004B700FF2742100F092FAFFF734FE201D03F0C5
S31500004B80C3F800F012F920780FF2682100F086FAD7
S31500004B90FFF728FE201D03F0CCF800F006F9207878
S31500004BA00FF2C01100F07AFAFFF71CFE201D04F088
S31500004BB05BF84DA54DA601AF3FE0B8F1000F05D05B
S31500004BC001202070A1E70220FBE725702078FF284E
S31500004BD09BD100256946284601F05EF938B99DF853
S31500004BE000000D2818BF0A2818BF2A28EDD06D1C12
S31500004BF0EDB2032DEEDBE9E78DF800009DF800101D
S31500004C007A5C481C0A2A18BF0D2A18BF002AF3D15D
S31500004C100D227A548DF8000001A99DF80020201D70
S31500004C2001F0BEFA9DF8002001A90EA800F06EFC66
S31500004C309DF8009000208DF8010000F0B2F8207871
S31500004C400DF10103322201A901F02BF90028D3D07E
S31500004C5000F068FF01F0A2F803F046FC9DF80100A1
S31500004C6020B39DF8011001A8084410F8010C09288A
S31500004C701CD1FFF7B7FD9DF80100401E8DF801001D
S31500004C8001A99DF80120201DFFF78EFE9DF8011059
S31500004C900020785400F085F8002004E000F07CF84D
S31500004CA09DF80000401C00F065F8F7D39DF804005D
S31500004CB02128C4D1FFF796FD4A460EA901A800F0A7
S31500004CC025FCA9F101008DF8010000F06AF800202A
S31500004CD000F050F8B3D200F05FF89DF80000401CD9
S31500004CE0F6E700005D0D0A00256300000D0A0000CE
S31500004CF0FC640020B5440000F8650020EC67002045
S31500004D00ED670020EE670020EF6700201C6700209B
S31500004D100D00000000000000000000000000000080
S31500004D20000000000000000000000000000000007D
S31500004D30000000000000000000000000000000006D
S31500004D4000000000706C6174666F726D7465737438
S31500004D502E6300005B494E49542000000D0A3E2098
S31500004D60000000007365745065725465737454785E
S31500004D70000000008DF800009DF801109DF800006D
S31500004D8088427047012300224FF4164170470123E1
S31500004D9000224FF4E13170473A5C2078294600F052
S31500004DA07DB94146207800F079B92078294600F08F
S31500004DB075B980B504F0B9F8BDE80240002053E6A5
S31500004DC0002070476372617368696E666F00000049
S31500004DD07265736574737472696E6700696E69745F
S31500004DE0546F6B656E730000696E69745261646915
S31500004DF06F00000073656564506E72670000000006
S31500004E0070B51346104402E0A4192C705B1EDCB288
S31500004E104CB101F00F060909451E0A2E2846B4BFFB
S31500004E2030243724F0E7104470BDF0B5002341B1BB
S31500004E30002806D501232D21B0F1004F117018BFAF
S31500004E404042002100240FF2702555F824700026F8
S31500004E5001E0C01B761CB842FBD2F7B20FB90F00B7
S31500004E6005D0DBB206F13001D1545B1C0121641C74
S31500004E70092CEADBDBB23030D054581CC0B2F0BD8E
S31500004E802DE9F24F804696B013A80190154603A867
S31500004E909B4603AE002700248DF800000BE001249A
S31500004EA005460198864205D300F0DCF800284FD16C
S31500004EB000F0CEF86D1C9DF800002978301A0A0023
S31500004EC00BD0252903D014B906F8011BE9E7002CFD
S31500004ED014BF00246D1C29780A0000F0AF80B1F1E0
S31500004EE0250216D00B3A092A40F28980283A7DD04D
S31500004EF00A3A12D0521E41D0521E5FD0083A5DD0F7
S31500004F00121F3ED0D21E3CD0921E57D0D21E6DD05C
S31500004F10C7E7252006F8010BC3E7DBF8000002907F
S31500004F204FF0000A0BF1040000F1040BD0F80090DA
S31500004F30CA45B6D2029810F80A1002223046FFF788
S31500004F405FFF06460198864205D300F08BF80028DD
S31500004F507AD100F07DF8A9F1010082453CBF2020FE
S31500004F6006F8010B0198864205D300F07BF800286D
S31500004F706AD100F06DF80AF1010AD9E75BF8040B73
S31500004F80C8E75BF8049B00F067F800285CD100F0E6
S31500004F905FF84FF0000A01E00AF1010A5FFA8AFAA7
S31500004FA019F80A000028F7D19DF8580052464946DC
S31500004FB0C047002848D15744FFB272E76C290AD18E
S31500004FC06A785BF8040B752A0EBF00210121642A5A
S31500004FD007D16D1C05E075295BF8040B0CBF002199
S31500004FE001213246FFF721FF36185AE75BF8041B0A
S31500004FF00222C9B23046FFF703FF064651E76A7838
S315000050000124782A18BF582AF8D16D1C0024681E7E
S31500005010322904D15BF8040B042281B2EAE7342971
S315000050207FF43DAF5BF8049B04224FEA19413046FA
S31500005030FFF7E6FE04221FFA89F1DCE700F00CF820
S3150000504010B9F019C0B200E0002017B0BDE8F08F2B
S31500005050F719FFB203AE704706469DF85800F2B244
S3150000506003A940479DF80000361A9DF85800F2B291
S3150000507003A9404701A111E0000000000D0A00004D
S315000050800CB438B5044604AA00F010F805462046CC
S31500005090FFF7F0FF284632BC5DF80CFB0CB480B578
S315000050A002AA00F003F802BC5DF80CFB80B504F020
S315000050B02AFCC0B202BD000000CA9A3B00E1F50519
S315000050C08096980040420F00A0860100102700003D
S315000050D0E8030000640000000A000000DFF8FC138B
S315000050E0096801EB40107047DFF8F4231268115489
S315000050F070472DE9F041040035D004F00FFDDFF8CC
S31500005100E413DFF8E4330E78FF228046FE2EDFF844
S31500005110DC031BD100260E70DFF8D4C3DFF8D4639E
S3150000512037781F70002708E007F1010E05F807E041
S31500005130DCF80050EA555FFA8EF796F800E005684D
S315000051407745F1DB05EB0E0606F8012C1E78A64224
S315000051500BD2404604F0E8FC052004F01FFD0021B8
S315000051601B2004F09FFDFF201EE0361B1E70DFF89B
S3150000517088330E780F78D3F800E001250EF8075033
S31500005180641E056815F807E081F800E05FFA84FE02
S31500005190BEF1000FEED1EA5500213046FFF7A4FF1D
S315000051A0404604F0C1FC3046BDE8F0812DE9F041EF
S315000051B0054600F031F8044604F0B0FCDFF824237D
S315000051C0DFF82433DFF82463DFF82C83FF2D1FD0AC
S315000051D0D8F800104F5D7F1E4F557F27D8F800E0A6
S315000051E01EF80510394213D13168495D00270EF8C3
S315000051F005701F787F1C1F70FF29376892F800E042
S3150000520007F805E0157006BF2546FF240D46DDE7C5
S31500005210BDE8F04104F088BC80B5DFF8DC1209680F
S31500005220095C090603D5FFF759FF007802BDFF2088
S3150000523002BD70B504460D4605F11F000004400D81
S3150000524082B0C0B2FFF755FF0646FF2E0CD02946A6
S31500005250FFF74AFF3CB1012000902B460022314661
S31500005260204600F002F8304676BD73B500F0C1F86E
S31500005270405C15461E467119884203DA40F25F11FA
S3150000528000F0DCF830000CD0294601A800F0DAF86E
S31500005290024606989DF8041000903346204600F01A
S315000052A001F873BD2DE9F843089CDFF840820546F6
S315000052B0894616461F460BE06A5C4254491CB142B9
S315000052C0FADBD8F80000BF1BAD1910F809900026CC
S315000052D0F8B2D0B14846FFF701FF801956FA87F1B8
S315000052E02029B9BFFFB23E46C6F12006F6B221001C
S315000052F0324604D10146284600F008F9E1E7012CC0
S3150000530008BF2946F8D00021D9E7BDE8F1832DE989
S31500005310F04100F06EF882B0055D1746E819A84224
S3150000532088461E4606DB0ED07919C9B2204600F023
S315000053304EF808B1182007E000963B462A4621465B
S315000053404046FFF792FF0020BDE8F6810123DEE725
S315000053500A4600E0521C1378002BFBD1521A022396
S31500005360D2B2D4E7F8B5044601F11F00C50402F134
S315000053701F00C0042D0E000E05B9012500B901203D
S31500005380854222D0DFF8646110DA401BC0B2FFF715
S31500005390B0FE0746FF2F01D10020F2BD691EC9B23B
S315000053A0204600F02BF831680F540EE08A420CD2EA
S315000053B0411EC9B2204600F021F804463068005D5F
S315000053C0FFF7F4FE3168FF2008550120F2BD38B51D
S315000053D000F00FF80D46015D2A462046FFF7C2FF92
S315000053E028B129462046FFF77FFE002032BD18204F
S315000053F032BD0446DFF8E8000068704704E0DFF8D5
S31500005400EC201268105C491ECAB2002AF7D1704718
S3150000541011B50C46DFF8C810096881B0095C8C42EA
S3150000542003D340F2F51100F009F8214601A800F077
S3150000543009F8044600F04EF8204416BD0FF2BC00F1
S3150000544000F07CBD38B504460D46E9042078090E07
S31500005450FFF7D4FF207005F01F0032BD80B5FFF7BF
S31500005460D7FF007802BD10B51446FFF7D1FF0470D0
S3150000547010BD2DE9FC4405B40A9C20001F4627D028
S3150000548089B26846FFF7DEFF0646B9B201A8FFF704
S31500005490D9FF0746BE42A8BF3046A4B2C0F12000DD
S315000054A02546C0B2A842B8BF054600F013F88246AA
S315000054B09DF80000FFF712FE2A460AEB070130446A
S315000054C000F024F8641BA919EF19A0B20028D7D15F
S315000054D0BDE8FF849DF8040000E60000F4650020A6
S315000054E0F8650020F9670020F567002000660020B7
S315000054F004660020F4670020FC6500207061636B81
S3150000550065742D6275666665722E6300814233D2BC
S3150000551010441144401E491E10E011F8013900F8EC
S315000055200139121F11F8013900F8013911F8013952
S3150000553000F8013911F8013900F8013992B2042A4C
S31500005540EBDA93B2002B1EBF11F8013900F80139CE
S31500005550521EF6D1704711F8013B00F8013B121FAD
S3150000556011F8013B00F8013B11F8013B00F8013B43
S3150000557011F8013B00F8013B92B2042AEBDA93B230
S31500005580002B1EBF11F8013B00F8013B521EF6D15D
S315000055907047130003D00A46194604F087BB7047CC
S315000055A010B500E0521E93B223B100F012F8F9D004
S315000055B0181B10BD002010BD10B500E0521E93B29E
S315000055C02BB100F006F8F9D0181B40B210BD002030
S315000055D010BD10F8013B11F8014BA34270470000C3
S315000055E000F10103810704D010F8011B89B181077E
S315000055F0FAD10268B2F10131914311F0803F04BF44
S3150000560050F8042FF6E710F8011B11B110F8011B32
S31500005610FBE7C01A7047000038B50446611D206AD2
S315000056202368451A2079EAB2984708B1002032BDAE
S3150000563000F018F8601D2062012032BD38B504461E
S31500005640002500E06D1CEDB2485D0028FAD12079F6
S3150000565023682A46984718B900F004F8012032BD9D
S31500005660002032BD94F82900281884F829007047D4
S315000056702DE9F04F804608F1200785B008F10500B6
S3150000568038600E4608F11500786091460020787261
S31500005690DFF8B44313E018B108F105003860164688
S315000056A025B17D2000F0A0F901F8010D3868796870
S315000056B0884203D300F096F9002862D0761C307831
S315000056C0010000F075812528617818BF262809D0C9
S315000056D07B281CBF7D28232802D10029E6D0E1E7DC
S315000056E0A178FAE716F8012F252A18BF262A04D131
S315000056F000F07AF901F8012DD8E726280BD151B12F
S3150000570001256E2A18BF4E2A06D000F06DF97B20BF
S3150000571001F8010D00E00025317800204E2906D061
S31500005720542923D06E2902D074291FD032E0207864
S3150000573059F804BB0028B9D035B138687B2101700F
S31500005740811C39602821417000F04CF9002818D0DE
S3150000575000F03BF9002814D0002DA7D03868292185
S315000057600170811C39607D2141709FE700F038F996
S31500005770002806D000F029F9002802D000F032F9FE
S31500005780002800F07C8000F02FF93A2001F8010D86
S31500005790761C0120317896F801E0A1F13002D2B2F0
S315000057A0911E05293CD2BEF1640F18BFBEF1750FDC
S315000057B036D159F804CB002301211FFA8CFCBEF127
S315000057C0640FE24609D15FEA0C4E06D56FEA0C0C6F
S315000057D00CF1010C01231FFA8CFCBCF1000F0AD05E
S315000057E04FF00A0E9CFBFEFC5B1C1FFA8CFCBCF106
S315000057F0000FF5D10BE05B1C09E0D7F800E00EF1D5
S31500005800010EC7F800E04FF0200C0EF801CD9C46C3
S315000058100CF101035FFA8CFC9445EEDB761C00E08C
S3150000582000213378721E002B00F0BE80322B18BF89
S31500005830342B00F09580482B06D0582B0FD0632BC5
S315000058400FD0642B1FD0682B00F07F806C2B52D0BA
S31500005850702B18BF732B0BD0752B14D0782B76D0EA
S3150000586019E73868411C396059F8041B017017E7BD
S3150000587000F0B6F818B100F0A8F80028F7D100201B
S3150000588005B0BDE8F08F002919BF1FFA8AFA514604
S3150000589059F8041B89B229B900F0A6F8302001F89E
S315000058A0010DFDE60020642B0DD10A040BD53B68E3
S315000058B05B1C3B602D22B1F5004F03F8012D02D091
S315000058C0494289B259B10A2291FBF2F20A23C0B2C7
S315000058D003FB12110DF80010401C91B2F2E70146CD
S315000058E0481EC9B20029DCD0C0B23A681DF80010C3
S315000058F000F065F8F3E759F8041B0029CCD0002026
S3150000590000290AD53B685B1C3B602D22B1F1004F94
S3150000591003F8012D01D0494259B10A22B1FBF2F236
S315000059200A2303FB121102ABC0B21954401C1146E4
S31500005930F2E70146481EC9B2002910D002A9C0B23A
S315000059403A68095C00F03BF8F3E700F041F8022200
S3150000595059F8041B3868C9B2FFF752FA38609FE657
S3150000596016F8010F682818BF48280BD100F030F848
S3150000597016F8011C386832290AD159F8041B04228A
S3150000598089B2E9E7782818BF5828F1D0761E87E64D
S3150000599059F804BB04224FEA1B41FFF731FA38607D
S315000059A004221FFA8BF1D7E701007FF474AE76E686
S315000059B000F018F800283FF462AF787A60E7521CCE
S315000059C03A60303102F8011D70475946404635E6C7
S315000059D0386830210170811C396078214170704728
S315000059E059F804BB404617E63968491C39607047C8
S315000059F00EB410B5154909788BB0002409B90020FA
S31500005A0008E000F019F801466846FFF731FE00B9D4
S31500005A10012420460CE00EB410B58BB000F00CF853
S31500005A20002401466846FFF723FE00B901242046FC
S31500005A300BB010BC5DF810FB054900910DAA054995
S31500005A4009788DF804107047ED670020EC67002098
S31500005A502D990000FC64002062B38B0708D0521E0B
S31500005A6011F8013B00F8013B00F024808B07F6D1CA
S31500005A70830740F0208000BF103A07D330B4B1E866
S31500005A803810103AA0E83810F9D230BC530724BFBA
S31500005A90B1E80810A0E8081044BF51F8043B40F8EC
S31500005AA0043BD20724BF31F8022B20F8022B44BF57
S31500005AB00B7803707047083A07D3B1E80810083A24
S31500005AC040F8043B40F804CBF7D25307E4E7000064
S31500005AD0890001EB401000F18440006870472E48B1
S31500005AE00068800704D52E210FF2CC0000F026BAFC
S31500005AF0704780B50121294804F0B0F90421072038
S31500005B0004F020FD26482749274A01600421116038
S31500005B10022141620421254A1160816A41F0020195
S31500005B20816201BD1E4804F07FBDA52800D07047E4
S31500005B3080B500F005F810B11D490020086001BDD0
S31500005B401748006810F0010018BF0120704738B5EB
S31500005B5004460D4600F015F82A4604F00F0101B080
S31500005B6003462005BDE83040000E04F0C7BD00F036
S31500005B700F010005000E30230E4A584310441C3016
S31500005B80A6E700F00F010005000E3023094A58432E
S31500005B9010440C309CE700001C200540000508005E
S31500005BA0002005400108030080E200E000E100E07B
S31500005BB00000A44200A000406D6963726F2D636F00
S31500005BC06D6D6F6E2E63000080B501217F4804F075
S31500005BD045F97F4901200860002004F053FD0123A8
S31500005BE004220221052004F089FD0122012104205E
S31500005BF004F05EFB012003F09BFF00F00FF803F0BA
S31500005C00C8FF04F06DFE0123402272490FF2042002
S31500005C1004F034FE70490860C00F02BD10B56F482D
S31500005C206F4C016841F0010101600022C16841F03A
S31500005C308071C16000236B496B4808606B48026045
S31500005C406B4A13600223236015236A4C23600023EA
S31500005C500364694B0B65694911604FF48071684AAA
S31500005C601160016841F48071016010BD80B5604823
S31500005C700168C9070ED563490A6822F440620A60C2
S31500005C80016849084900016001680902FCD46420E2
S31500005C9004F043FE00220021042004F009FB5049D1
S31500005CA000200860564908604C49086001BD4B4811
S31500005CB0006800B10120C0B27047D1220270417065
S31500005CC0090A817050490A78C270501C0870042075
S31500005CD070472DE9F84FDFF834A1DFF83481044628
S31500005CE0DAF80000005D461D04F06CFEF6B20025F1
S31500005CF000904FF6FF7B18E0A91EC9B22046FFF7B9
S31500005D00ADFB0746594604F08BFE83464D463848A0
S31500005D100068C00709D535480068C00505D5D8F81C
S31500005D2000000028FBD088F80070FFF7C0FFEDB236
S31500005D3028B3B54223DA04F045FE0099401A80B232
S31500005D40B0F5FA7F1BDC15B95B270125DFE7012DCE
S31500005D5005F1010903D1DAF80000075DD6E7F01E68
S31500005D60854208BF5F46D1D0B01E854208BF4FEAC4
S31500005D701B27CBD0701E8542BED15D27C6E7B54234
S31500005D800CBF00200120BDE8F28F20490968095C9C
S31500005D900429A8BFFFF79DBF0120704710B50E4824
S31500005DA0006890B04022694604F053FD58B1C1B274
S31500005DB06846FFF73EFA04462146122004F0FCFE30
S31500005DC02046FFF7F3F910B010BD000000250800CB
S31500005DD0108814429C720020F0650020F0ED00E06F
S31500005DE0F00004E0B00F00E055CEACC5000E00E0B8
S31500005DF0800E00E0100004E0FF0300400D000100EB
S31500005E00040304E0001000E0067C0020F865002092
S31500005E10200000E073696C61627376756172746468
S31500005E206F776E002DE9F04104460125012C94B0F0
S31500005E300F4690461E461CD10AA80FF2D001242216
S31500005E40FFF71AFE68460AA92422FFF715FE10205E
S31500005E50012C18BF022CADF82400ADF8260000D0A6
S31500005E6014D1012E0197ADF80C8004D14FF4805067
S31500005E7005E001200BE0022E03D14FF44050ADF8AF
S31500005E800A006946012003F05EFB0546E8B214B03D
S31500005E90BDE8F08103F0FEBB80B503F006FCC0B29E
S31500005EA002BD80B503F056FCC0B202BD70B582B02B
S31500005EB0044600200D4616468DF8000001E0FFF767
S31500005EC031FE6B46324629462046FFF7EAFF002898
S31500005ED0F5D176BD80B503F0C0FCC0B202BD80B579
S31500005EE003F0B2FDC0B202BD0CB480B50A4601464D
S31500005EF002AB0448FEF7C4FF02BC00205DF80CFBB1
S31500005F0000000000DB99000070470000000001401F
S31500005F1000C20100000000100000000002000200A4
S31500005F200300000000000000000000001E1E00002C
S31500005F30002080F31188704742DE704738B504466A
S31500005F400D4605F0BFF9FFF7EDFD05F0D8FF294630
S31500005F50204604F079FD2B4622460FF2B8110120A7
S31500005F60FFF7C2FF29462046BDE83440E4E7614812
S31500005F702DE9F047604D01682E1D4FF420687165CC
S31500005F80016AB1655D490A68F26549683166416A28
S31500005F907166816AB166C16AF166016B3167806BB1
S31500005FA0706796F8340040074CBFF46BB46B06F08C
S31500005FB04AF80022F2648442514A014624BFA2F103
S31500005FC0200AA2452746316505F19003DFF834C162
S31500005FD0DFF834E118D3A0693064E4697464746D41
S31500005FE0C4F30804062C13D1704511D360450FD2B3
S31500005FF000884DF64264A0420AD13068586040F2EB
S3150000600001787068986003E0002737647764074674
S315000060103E48814202D2014600E0091D08469042F0
S3150000602003D20C68B4F1CD3FF7D03949081AB064F1
S315000060300021002005EB8004401C0628E167F9DBFF
S31500006040002003E0C0B205EB8004E167974223D24B
S3150000605052F8041D7145F9D36145F7D2CC07F5D541
S31500006060002405EB8409D9F87C90894502D0641C8C
S31500006070062CF6DB062CE9D1002814BF401E0520AD
S31500006080E0E7B16F002405EB8402641CD2F880704F
S31500006090D767052CF7DB19600146481EC9B20029EF
S315000060A0EFD1706DC0F30800032808D0042809D08A
S315000060B005280AD006280BD00C280FD011E040F690
S315000060C0012813E040F6022810E040F603280DE010
S315000060D0B8F5206F0AD140F6042807E040F60528F7
S315000060E004E018B1312838BF40F607284046BDE81D
S315000060F0F087000004ED00E00000002000E300E06F
S315000061002863002032A80100B44400009C0000204F
S31500006110286300200D0A5B4153534552543A2570BB
S315000061203A25645D0D0A00002DE9F8430446DFF8C0
S31500006130B8030068055D0026E807B14648BF0020A1
S3150000614020D400270FF2C84802E04FEA00197F1C4E
S31500006150FFB2AF4211DA39462046FFF77FF9F90759
S3150000616018F8000000F00F00EFD549EA0002F1B27E
S315000061702046FFF778F9761CE9E7F1B22046FEF7EC
S31500006180B3FF0120BDE8F28300F12401FF228A70EB
S315000061900022C273C2830A7082730068C8607047A7
S315000061A02DE9F74F82B000208DF801000298041DFA
S315000061B000F1240508E0607A68720120E072029915
S315000061C09DF8000000F0A2F903980027002660BBA6
S315000061D09DF810006946FFF75FFE002839D0262893
S315000061E026D00298012100F083F978208DF800006E
S315000061F0B046102700208DF80100E07A0828E3D881
S31500006200DFE810F00A004B008E00E900E9003B01D0
S315000062104701AC009D00D7E7102FCCD09DF80000B9
S31500006220232836D10820E072CEE79DF8100020B969
S315000062309DF8010005B0BDE8F08F0398401C03905F
S31500006240401E00788DF800009DF81000401E8DF865
S315000062501000B0469DF8000067280FD29DF8001088
S315000062600FF2AC30405C00F0300700F00F0840063B
S3150000627007D5687A804504DA012602E07B2838BF14
S3150000628010279DF800000A2818BF0D28B2D101205A
S31500006290B1E7202F98D0032021E1102F1CBF9DF8D5
S315000062A000005F2800D01EB128780C28F3DA86E7B4
S315000062B0202F18BF302F3ED102992A781144002092
S315000062C048744FF00009E8680BE01AF8010B00F07B
S315000062D016F91BF8011B81420DD00198103009F107
S315000062E0010901900198406828B30198D0F800A0F0
S315000062F0029800F1110B9BF800000028E5D19AF8EE
S3150000630000000028E9D1A4F81A90E868618B00EB38
S3150000631001108068E0610020A07228700220E072FF
S31500006320607A68726EB32B202872C5F80480607A92
S315000063306872042077E70321029800F0D9F89DF8E7
S315000063400100002809D0207B20B1029821688847E7
S31500006350002020730298FFF717FF35E79DF801002C
S3150000636018B1029800F0DEF8F4E79DF80000232843
S3150000637003D1029800F0D6F854E7202FEDD0042080
S31500006380ADE09DF800002D2818BF2B2806D12872F5
S3150000639000206860607A6872032044E722280AD1E8
S315000063A00120FEF7A6FEFF28A8700BD00021FEF7FD
S315000063B09BFE052037E77B28D0D10120FEF799FE0A
S315000063C0FF28A87000F08A800021FEF78DFE1020BD
S315000063D06872062027E73EB16868697A01FB00808B
S315000063E00421E1726860EFE69DF80010782918BF75
S315000063F0582904D16A6812B910206872E4E6742933
S3150000640018BF542903D1696809B90A20F5E703289A
S3150000641054D0202F18BF302F50D1E0692B7A6968ED
S31500006420027840782D2B08BF4942752A08D13428B6
S315000064301AD00022312814BF4FF6FF70FF200FE05C
S31500006440732A08D1312807BF6FF07F027F20274AC1
S3150000645047F6FF7004E00421029800F049F86EE761
S315000064609142A8BF884206DB0298022200F079F822
S315000064700028F4D052E70621EEE79DF80000222816
S315000064801ED10298002100F084F80028B6D0022020
S31500006490C9E69DF800007D280DD1A878FFF744FED7
S315000064A006460298012100F074F808B10220E07255
S315000064B0002EA3D102E0202FA0D00EB907200EE0B7
S315000064C00949A8780968095CFF2908BF082006D091
S315000064D001226946FEF73AFF00288FD002208DF888
S315000064E000009DF8001027E7F86500200080FFFFF8
S315000064F0027C1AB90822C27301745FE07047A0F1EA
S3150000650041011A293CBF2030C0B2704738B50C464D
S3150000651094F82450FFF7F3FF61194874681C84F857
S31500006520240031BD10B50446206A017831B16229D4
S315000065300CBF01210221405C2A2807D1216BE28B86
S3150000654001EB021120464968884706E004202074C2
S31500006550204661688847002020742046BDE8104028
S315000065602CE038B5837B057BAB4204D10521FFF7D0
S31500006570BFFF002032BD846844F82310817B491C8C
S315000065808173016A8B5C2A2B1CBF8918016201206A
S3150000659032BD10B500F1200213681B78622B04D0BF
S315000065A00421FFF7A5FF002010BD9379FF24947105
S315000065B00122BDE8104003EB0121D2E770B500F1DE
S315000065C00804A06AE18A00EB01100026856805E050
S315000065D00220295C2A2918BF2D18761CA179F0B251
S315000065E088420BD228786228F2D12068F6B250F899
S315000065F02600C0B2FEF7DAFD0120EAE70020A0710E
S31500006600A07FFF2803D0FEF7D1FDFF20A07770BD45
S3150000661000000000000000000020202020200000D4
S315000066200000000000000000000000000000000064
S315000066302000303000000000000000300030000074
S315000066404041424344454647484900000000000097
S31500006650005A5B5C5D5E5F10101010101010101079
S315000066601010101010101010101010300000000044
S31500006670005A5B5C5D5E5F0010B505F048FD40F2B8
S31500006680A174C440E0070BD5064C207805F05EFDEA
S31500006690207805F0FAFD2078BDE8104005F0C2BE6E
S315000066A010BD00BFFC6400201F210FF22C00FFF775
S315000066B045BC10B502F09EFC044602F090FC024672
S315000066C0234604480FF220010078BDE81040FEF78B
S315000066D0E5BC0000FC64002072657365742D74656A
S315000066E073742E630000000052455345543A2570DA
S315000066F02D25700D0A00000010B5DFF834440FF2A6
S3150000670018012078FEF7CAFC20780FF21C01BDE8BC
S315000067101040FEF7C3BC0000286C6974746C6520D9
S31500006720656E6469616E00002C20616C6C2064618A
S31500006730746120726570726573656E74656420613C
S31500006740732062797465206172726179290D0A007D
S315000067500178A1F130030A2B0AD3A1F14103062BDC
S3150000676038BF373904D3A1F16102062A03D257395B
S315000067700907090E00E000214078A0F130030A2B3A
S3150000678002D2401830380CE0A0F14103062B02D2A9
S315000067904018373805E0A0F16102062A03D24018F6
S315000067A05738C0B270470809704710B506F030F97F
S315000067B002001AD0DE4C2078042A08BF0FF22C0102
S315000067C008D0062A08BF0FF2700103D0072A04D1A9
S315000067D00FF2A801FEF762FC03E00FF2E801FEF7F4
S315000067E05DFC20780FF2101191E710BD68616C53C3
S315000067F07461636B496E6974546F6B656E73204682
S3150000680041494C4544207769746820454D424552BC
S315000068105F454550524F4D5F4D46475F5354414388
S315000068204B5F56455253494F4E5F4D49534D415468
S3150000683043480D0A0000000068616C537461636B85
S31500006840496E6974546F6B656E73204641494C45B9
S3150000685044207769746820454D4245525F4545504E
S31500006860524F4D5F4D46475F56455253494F4E5F17
S315000068704D49534D415443480D0A000068616C531D
S315000068807461636B496E6974546F6B656E732046F1
S3150000689041494C4544207769746820454D4245522C
S315000068A05F454550524F4D5F535441434B5F5645EC
S315000068B05253494F4E5F4D49534D415443480D0A7B
S315000068C00000000068616C537461636B496E697403
S315000068D0546F6B656E73204641494C454420776979
S315000068E0746820456D6265725374617475733A20DD
S315000068F025580D0A00000000546F6B656E73206109
S315000069007265207374696C6C2061637469766520A6
S315000069107768656E207573696E6720746869732081
S315000069206170706C69636174696F6E2E0D0A000088
S315000069302DE9F04FC1B080687D4F0568FFF7DCFE9A
S31500006940A8B206F03DFA0446A8B206F0BAF88046A8
S31500006950A8B206F0FAFA8346002C38781ABF4FF62A
S31500006960FF7188450FF27C212CD02346AAB20FF284
S315000069701411FEF793FB00250FF2AC190FF2AC1AB7
S315000069800AE01DF8062038784946FEF787FB761C94
S31500006990F6B2A642F5DB6D1CEDB25D4510DABBF131
S315000069A0010F234603D17F2200F011F806E02A46A4
S315000069B000F00DF838785146FEF770FB0026E7E741
S315000069C038785146FEF76AFB41B0BDE8F08F414684
S315000069D0684606F040B82DE9F047C0B08068046804
S315000069E04768534EFFF788FEA0B206F0E9F98146E4
S315000069F0A0B206F066F88046A0B206F0A6FA0546F2
S31500006A00B9F1000F30781ABF4FF6FF7188450FF2C3
S31500006A10D41131D0A5F1010A15B1FFB2BA450BDA8E
S31500006A200FF2CC11FEF73AFB30780FF2FC11534609
S31500006A300022FEF733FB21E04B46A2B20FF24401DF
S31500006A40FEF72CFB012D08BF7F274B463A46FFF782
S31500006A50BEFF36A430782146FEF720FB00270FF252
S31500006A60C80804E01DF8072000F05EFE7F1CFFB298
S31500006A7030784F45F6DB2146FEF710FB40B0BDE807
S31500006A80F08700005B2532785D28256429203D00CB
S31500006A902DE9F047C2B08068DFF8A87C0668FFF7EA
S31500006AA02BFEB0B206F08CF98146B0B206F009F8BA
S31500006AB08246B0B206F049FA0646B9F1000F1CBF8D
S31500006AC04FF6FF70824505D138780FF21811FEF7A0
S31500006AD0E5FA28E000240FF2741803E0504605F0AA
S31500006AE0CBFF641CB4421EDA002513E016FB09F046
S31500006AF0431E387809FB04524146FEF7CFFA387830
S31500006B0003226946FFF7D2F96846FFF721FE01A97D
S31500006B1048556D1C4D45E9DB012E4B4601AA0CBFBD
S31500006B207F21E1B2DAE75AE0202558000D0A00007D
S31500006B30FC6400202DE9F047C2B08068076844680D
S31500006B40DFF8005CFFF7D8FDB8B206F039F98046E9
S31500006B50B8B205F0B6FF8146B8B206F0F6F90746B8
S31500006B60B8F1000F28781CBF4FF6FF71894504D194
S31500006B700FF27001FEF792FA31E07E1E17B1E4B211
S31500006B80A6420BDA0FF26801FEF788FA28780FF2B0
S31500006B90980133460022FEF781FA20E000260FF224
S31500006BA0AC0A11E02878A8F1010332465146FEF7F7
S31500006BB075FA287803226946FFF778F96846FFF7E1
S31500006BC0C7FD01A98855761C4645EBDB012F08BF9A
S31500006BD07F24434601AA2146484605F04DFF42B0B0
S31500006BE0BDE8F0876E6F7420666F756E640D0A00DF
S31500006BF04552524F523A2044657369726564206962
S31500006C006E646578206973206F7574206F662072D4
S31500006C10616E676520666F72207468697320746F91
S31500006C206B656E0D0A0000002020202020202056D3
S31500006C30616C69642072616E6765206973202558EE
S31500006C4020746872752025580D0A0000646174610D
S31500006C5020627974655B2564206F662025645D3A41
S31500006C60000000002DE9F043FBB0DFF8D84A0FF62C
S31500006C705438FFF741FD20784EF2455200F054FD9E
S31500006C8020780FF64831FFF725F9DFF8BC0A00F047
S31500006C9037FD00270FF2843902A84946C25D00F08D
S31500006CA08EFD7F1C082FF7D3DDA700F046FD207868
S31500006CB04CF2563200F038FD20780FF62431FFF7FB
S31500006CC009F90125DFF8840A00F026FD00F02FFD02
S31500006CD09DF8012000F02DFD6D1EF3D100F02DFD75
S31500006CE020784EF2453200F01FFD20780FF6043171
S31500006CF0FFF7F0F8DFF8580A00F002FD02A800F0EE
S31500006D005CFD6D1C082DF9D300F017FD20784EF6BA
S31500006D10735200F009FD20780FF6EC21FFF7DAF840
S31500006D20DFF8300A00F0F2FC002504A800F045FD6B
S31500006D306D1C102DF9D300F000FD20784CF24E2288
S31500006D4000F0F2FC20780FF6CC21FFF7C3F8DFF84D
S31500006D50080A00F0DBFC002504A800F02EFD6D1CDF
S31500006D60102DF9D300F0E9FC20784CF6441200F01F
S31500006D70DBFC20780FF6AC21FFF7ACF80125DFF835
S31500006D80DC0900F0C9FC00F0D2FC9DF8012000F0FF
S31500006D90D0FC6D1EF3D100F0D0FC20784DF24302FA
S31500006DA000F0C2FC20780FF68C21FFF793F801253E
S31500006DB0DFF8AC0900F0B0FC00F0B9FC9DF801204A
S31500006DC000F0B7FC6D1EF3D100F0B7FC20784CF252
S31500006DD0431200F0A9FC20780FF66821FFF77AF835
S31500006DE0DFF8800901880223EAB2FFF7F1FD00F01F
S31500006DF09EFC9DF8012000F09CFC6D1C142DEFDB21
S31500006E0000F09BFC20784DF2463200F08DFC207895
S31500006E100FF64021FFF75EF80125DFF84C0900F078
S31500006E207BFC00F084FC9DF8012000F082FC6D1EC6
S31500006E30F3D100F082FC20784CF2433200F074FC6F
S31500006E4020780FF62821FFF745F80125DFF81C0901
S31500006E5000F062FC00F06BFC9DF8012000F069FC7C
S31500006E606D1EF3D100F069FC20784CF6535200F009
S31500006E705BFC20780FF60821FFF72CF8DFF8F00806
S31500006E8000F03EFC02A800F098FC6D1C082DF9D31A
S31500006E9000F053FC20784CF2543200F045FC207888
S31500006EA00FF6F011FFF716F80125DFF8C80800F015
S31500006EB033FC00F03CFC9DF8012000F03AFC6D1E0E
S31500006EC0F3D100F03AFC20784DF6540200F02CFC89
S31500006ED020780FF6CC11FEF7FDFF0125DFF89808A4
S31500006EE000F01AFC00F023FC9DF8012000F021FCC4
S31500006EF06D1EF3D100F021FC20784DF2570200F010
S31500006F0013FC20780FF6A411FEF7E4FFDFF86C08F7
S31500006F1000F0FCFB04A800F050FC6D1C102DF9D30A
S31500006F2000F00BFC20784CF2573200F0FDFB207885
S31500006F300FF68C11FEF7CEFFDFF8440800F0DAFBFF
S31500006F40002500F039FC6D1C042DFAD300F0F5FB8A
S31500006F5020784CF6575200F0E7FB20780FF67411B4
S31500006F60FEF7B8FFDFF81C0800F0C4FB002500F0B0
S31500006F7023FC6D1C042DFAD300F0DFFB20784DF2C4
S31500006F80575200F0D1FB20780FF65C11FEF7A2FFF6
S31500006F90DFF8F40700F0AEFB002500F00DFC6D1CD9
S31500006FA0042DFAD300F0C9FB20784CF2574200F0CA
S31500006FB0BBFB20780FF64411FEF78CFFDFF8CC07F9
S31500006FC000F098FB002500F0F7FB6D1C042DFAD3AA
S31500006FD000F0B3FB20784CF24B2200F0A5FB2078A2
S31500006FE00FF62C11FEF776FFDFF8A40700F08EFBF4
S31500006FF0002504A800F0E1FB6D1C102DF9D300F06C
S315000070009CFB20784CF2423200F08EFB20780FF683
S315000070101811FEF75FFFDFF87C0703E02025580014
S315000070200D0A000001885C237F2264A805F013FD89
S31500007030002564A800F0C1FB6D1C5C2DF9D300F09F
S315000070407CFB20784CF6431200F06EFB20780FF69E
S31500007050E801FEF73FFFDFF84007018814237F228F
S3150000706000F045FB002508A800F0A7FB6D1C142DB9
S31500007070F9D300F062FB20784DF2433200F054FB66
S3150000708020780FF6CC01FEF725FF0125DFF80C0767
S3150000709000F042FB00F04BFB9DF8012000F049FB9D
S315000070A06D1EF3D100F049FB20784DF2423200F01C
S315000070B03BFB20780FF6AC01FEF70CFFDFF8E0068D
S315000070C000F024FB04A800F078FB6D1C102DF9D30A
S315000070D000F033FB20784CF2453200F025FB207897
S315000070E00FF69C01FEF7F6FEDFF8B806018894233A
S315000070F07F223FA805F0AFFC00253FA800F05DFB0E
S315000071006D1C942DF9D300F018FB20784DF25832FF
S3150000711000F00AFB20780FF67C01FEF7DBFEDFF8B5
S31500007120880600F0DEFA002510A800F046FB6D1C6C
S31500007130202DF9D300F001FB20784DF2593200F0F2
S31500007140F3FA20780FF66801FEF7C4FEDFF85C0656
S3150000715000F0C7FA002510A800F02FFB6D1C202DAB
S31500007160F9D300F0EAFA20784CF64B2200F0DCFA6C
S3150000717020780FF65801FEF7ADFEDFF834060188D9
S3150000718022237F2236A805F066FC002536A800F0EB
S3150000719014FB6D1C222DF9D300F0CFFA20784BF2A8
S315000071A0346200F0C1FA20780FF63401FEF792FE41
S315000071B0DFF8000600F0A4FA002502A800F0FDFAA8
S315000071C06D1C082DF9D300F0B8FA20784FF601723D
S315000071D000F0AAFA20780FF61401FEF77BFE0125CF
S315000071E002237F220021FFF7F3FB00F0A0FA9DF8AF
S315000071F0012000F09EFA6D1EF2D100F09EFA207872
S315000072004EF2231200F090FA20780FF2F871FEF792
S3150000721061FE04237F22012100F060FA00F0CCFA1F
S315000072206D1C042DFAD300F088FA20784EF27542D0
S3150000723000F07AFA20780FF2E471FEF74BFE112384
S315000072407F22022100F053FA002508A800F0B5FAC3
S315000072506D1C112DF9D300F070FA20784EF26322DE
S3150000726000F062FA20780FF2C871FEF733FE0423AD
S315000072707F22032100F032FA002500F09DFA6D1CF2
S31500007280042DFAD300F059FA20784EF2635200F03A
S315000072904BFA20780FF2AC71FEF71CFE04237F2216
S315000072A0042100F01BFA002500F086FA6D1C042D5F
S315000072B0FAD300F042FA20784EF2621200F034FA65
S315000072C020780FF29471FEF705FE012502237F2236
S315000072D00521FFF77DFB00F02AFA9DF8012000F05A
S315000072E028FA6D1EF2D100F028FA20784EF679328F
S315000072F000F01AFA20780FF27871FEF7EBFD1123F1
S315000073007F22062100F0F3F908A800F056FA6D1C5A
S31500007310112DF9D300F011FA20784EF6646200F0D0
S3150000732003FA20780FF25471FEF7D4FD10237F2262
S31500007330072104A805F08FFB002504A800F03DFAFC
S315000073406D1C102DF9D300F0F8F920784EF22412B6
S3150000735000F0EAF920780FF23471FEF7BBFD1A232C
S315000073607F2208212FA805F076FB00252FA800F024
S3150000737024FA6D1C1A2DF9D300F0DFF920784EF2AD
S31500007380251200F0D1F920780FF21471FEF7A2FD54
S3150000739008237F22092102A805F05DFB002502A82B
S315000073A000F00BFA6D1C082DF9D300F0C6F9207811
S315000073B04EF2261200F0B8F920780FF20071FEF7AF
S315000073C089FD0A237F220A210DA805F044FB00252A
S315000073D00DA800F0F2F96D1C0A2DF9D300F0ADF9F5
S315000073E020784EF2271200F09FF920780FF2E06124
S315000073F0FEF770FD012502237F220B21FFF7E8FA35
S3150000740000F095F99DF8012000F093F96D1EF2D178
S3150000741000F093F920784EF2102200F085F92078DA
S315000074200FF2CC61FEF756FD00F087F920784EF298
S31500007430112200F079F920780FF2D061FEF74AFDAB
S3150000744000F07BF920784EF2122200F06DF92078D8
S315000074500FF2D861FEF73EFD00F06FF920784EF28C
S31500007460132200F061F920780FF2E461FEF732FD95
S3150000747000F063F920784EF2142200F055F92078D6
S315000074800FF2F061FEF726FD00F057F920784EF274
S31500007490152200F049F920780FF20071FEF71AFD67
S315000074A000F04BF920784EF2202200F03DF92078CA
S315000074B00FF20871FEF70EFD04237F22122100F061
S315000074C00DF900F079F96D1C042DFAD300F035F9A9
S315000074D020784EF2212200F027F920780FF2007171
S315000074E0FEF7F8FC00F029F920784EF2742200F03D
S315000074F01BF920780FF21471FEF7ECFC00F01DF971
S3150000750020784FF60D7200F00FF920780FF2107107
S31500007510FEF7E0FC00250B23EAB215210DA805F0C5
S315000075209AFA00260DA84946825D00F048F9761CB5
S315000075300B2EF7D36D1C062DEDDB00F0FEF8207840
S315000075404EF2564200F0F0F820780FF2E861FEF7AE
S31500007550C1FC00F0F2F820784FF4654200F0E4F840
S3150000756020780FF2E061FEF7B5FC00F0E6F820782F
S315000075704EF2035200F0D8F820780FF2E061FEF7E1
S31500007580A9FC00250123EAB218210DF1020005F03D
S3150000759062FA9DF8022000F0CCF86D1C062DF1DB96
S315000075A000F0CBF820784EF2015200F0BDF82078BA
S315000075B00FF2C461FEF78EFC10237F22192104A866
S315000075C005F049FA002504A800F0F7F86D1C102D07
S315000075D0F9D300F0B2F820784EF2025200F0A4F887
S315000075E020780FF2A461FEF775FC28237F221A216A
S315000075F025A805F030FA002525A800F0DEF86D1C58
S31500007600282DF9D300F099F820784EF2502200F098
S315000076108BF820780FF28461FEF75CFC12237F2240
S315000076201B2100F064F8002508A800F0C6F86D1CC0
S31500007630122DF9D300F081F820784EF2512200F095
S3150000764073F820780FF26861FEF744FC00F075F8D5
S3150000765020784EF2582200F067F820780FF26C611D
S31500007660FEF738FC12237F221D2100F040F800258A
S3150000767008A800F0A2F86D1C122DF9D300F05DF8F1
S3150000768020784EF2592200F04FF820780FF24C6124
S31500007690FEF720FC00253423EAB21E2118A805F0C7
S315000076A0DAF9002618A84946825D00F088F8761CAB
S315000076B0342EF7D36D1C052DEDDB00F03EF8207857
S315000076C04EF25A2200F030F820780FF22861FEF7C9
S315000076D001FC00F032F87BB0BDE8F08301A805F0AC
S315000076E0BAB9018820237F2210A805F0B4B908A8EA
S315000076F005F0B1B9018804237F2201A805F0ABB9D2
S31500007700018808237F2202A805F0A5B90188102365
S315000077107F2204A805F09FB9018802237F226846CC
S3150000772005F099B9C25D20784146FDF7B7BC9DF8D2
S31500007730002020784946FDF7B1BC20783946FDF790
S31500007740ADBC0000FC640020D4DF0100D6DF0100E0
S31500007750D8DF0100DADF0100DCDF0100DEDF010037
S31500007760E0DF0100E2DF0100E4DF0100E6DF010007
S31500007770E8DF0100EADF0100ECDF0100EEDF0100D7
S31500007780F0DF0100F2DF0100F4DF0100F6DF0100A7
S31500007790F8DF0100FADF0100FCDF0100FEDF010077
S315000077A000E0010002E0010004E0010006E0010043
S315000077B008E001000AE0010001A84946425D207880
S315000077C0FDF76CBC5B2532585D2000004D46475FD7
S315000077D0454D4245525F4555495F3634000000002D
S315000077E04D46475F435553544F4D5F564552534997
S315000077F04F4E00004D46475F435553544F4D5F452E
S3150000780055495F36340000004D46475F5354524990
S315000078104E4700004D46475F424F4152445F4E413E
S315000078204D4500004D46475F4D414E55465F494424
S31500007830000000004D46475F5048595F434F4E4693
S31500007840494700004D46475F4153485F434F4E4608
S31500007850494700004D46475F53594E54485F4652CC
S3150000786045515F4F46465345540000004D46475F1D
S315000078704343415F5448524553484F4C440000002F
S315000078804D46475F455A53505F53544F5241474503
S31500007890000000004D46475F4354554E450000002A
S315000078A04D46475F584F5F54554E45004D46475F1E
S315000078B04C4F434B424954535F504C570000000015
S315000078C04D46475F4C4F434B424954535F434C57D9
S315000078D0300000004D46475F4C4F434B42495453DE
S315000078E05F4D4C57000000004D46475F4C4F434BE1
S315000078F0424954535F554C57000000004D46475FC0
S315000079004C4F434B424954535F444C5700000000D0
S315000079104D46475F424F4F544C4F41445F4145539C
S315000079205F4B4559000000004D46475F43424B45BB
S315000079305F444154410000004D46475F494E535451
S31500007940414C4C4154494F4E5F434F444500000063
S315000079504D46475F53454355524954595F434F4E31
S31500007960464947004D46475F5345435552455F429A
S315000079704F4F544C4F414445525F4B455900000010
S315000079804D46475F43424B455F3238334B315F4488
S31500007990415441004D46475F5349474E45445F4277
S315000079A04F4F544C4F414445525F4B45595F580029
S315000079B04D46475F5349474E45445F424F4F544CEF
S315000079C04F414445525F4B45595F59004D46475F0D
S315000079D05448524541445F4A4F494E5F4B45590012
S315000079E04D46475F4555495F363400005354414381
S315000079F04B5F4E56444154415F56455253494F4E94
S31500007A0000000000535441434B5F4150535F4652C0
S31500007A10414D455F434F554E5445520053544143E3
S31500007A204B5F414C5445524E4154455F4B455900BE
S31500007A30535441434B5F424F4F545F434F554E544F
S31500007A4045520000535441434B5F4E4F4E43455FF2
S31500007A50434F554E54455200535441434B5F414E9C
S31500007A60414C595349535F5245424F4F5400000011
S31500007A70535441434B5F4B455953000053544143C4
S31500007A804B5F4E4F44455F4441544100535441437C
S31500007A904B5F54525553545F43454E544552000074
S31500007AA0535441434B5F4E4554574F524B5F4D41E4
S31500007AB04E4147454D454E54000000005354414346
S31500007AC04B5F504152454E545F494E464F000000B1
S31500007AD0535441434B5F504152454E545F414444D9
S31500007AE04954494F4E414C5F494E464F00000000F5
S31500007AF04D554C54495F4E4554574F524B5F535466
S31500007B0041434B5F4B455953000000004D554C54C3
S31500007B10495F4E4554574F524B5F535441434B5F59
S31500007B204E4F44455F444154410000004D554C546E
S31500007B30495F4E4554574F524B5F535441434B5F39
S31500007B40414C5445524E4154455F4B455900000047
S31500007B504D554C54495F4E4554574F524B5F535405
S31500007B6041434B5F54525553545F43454E5445521F
S31500007B70000000004D554C54495F4E4554574F5236
S31500007B804B5F535441434B5F4E4554574F524B5FE7
S31500007B904D414E4147454D454E5400004D554C54C0
S31500007BA0495F4E4554574F524B5F535441434B5FC9
S31500007BB0504152454E545F494E464F004D554C5428
S31500007BC0495F4E4554574F524B5F535441434B5FA9
S31500007BD04E4F4E43455F434F554E544552000000AD
S31500007BE04D554C54495F4E4554574F524B5F535475
S31500007BF041434B5F504152454E545F4144444954C2
S31500007C00494F4E414C5F494E464F00005354414345
S31500007C104B5F42494E44494E475F5441424C4500F2
S31500007C20535441434B5F4348494C445F5441424C93
S31500007C3045000000535441434B5F4B45595F544147
S31500007C40424C4500535441434B5F434552544946C9
S31500007C5049434154455F5441424C450053544143C6
S31500007C604B5F4144444954494F4E414C5F43484958
S31500007C704C445F4441544100535441434B5F5A4C7A
S31500007C804C5F444154410000535441434B5F5A4CAE
S31500007C904C5F534543555249545900005354414390
S31500007CA04B5F52463443455F444154410000000057
S31500007CB0535441434B5F52463443455F504149520A
S31500007CC0494E475F5441424C4500000053544143DE
S31500007CD04B5F47505F4441544100000053544143B9
S31500007CE04B5F47505F50524F58595F5441424C4585
S31500007CF000000000535441434B5F47505F53494EC9
S31500007D004B5F5441424C450010B50446002003F039
S31500007D10C4FC002003F0DBFC01F076FF012003F039
S31500007D2001FC204605F0C3FB2046BDE8104000F0EC
S31500007D30A5BF80B5022100F016F9009805F008FDF0
S31500007D4001BD8068DFF8A81400680870087802286A
S31500007D50A8BF0FF2D84305DA002814BF0FF2D843A4
S31500007D600FF2DC43DFF88C040FF2B042D0F8F012C9
S31500007D70FFE70FF29C40FDF74EBE1CB505F03CFD3B
S31500007D80044603F055FBDFF8701401EB8402126918
S31500007D9001920FF20852009251F82030DFF8540495
S31500007DA00FF2EC42D0F850130FF2C040FDF733FE4D
S31500007DB013BD38B50446A0680568DFF83804D0F866
S31500007DC060130FF2E440FDF726FEEDB215B1012D6A
S31500007DD007D00CE00FF2D840FDF71DFE03F072FA53
S31500007DE005E00FF2E040FDF716FE03F01FFB0FF271
S31500007DF0E440FDF710FE2046BDE83240BDE780B501
S31500007E0003F009F9034613F1010F0FF2D0400FF208
S31500007E10D44108BF0FF2D4420ED013B90FF2D442A8
S31500007E200AE0DFF8D803B3FBF0F200FB123038B9F2
S31500007E300FF2DC410FF2D040BDE80840FDF7EBBD84
S31500007E404FF47A71B3FBF1F201FB12310029DFF82E
S31500007E50B00300780EBF0FF2C0411A460FF2C841B8
S31500007E60BDE80840FDF71AB9F0B504460D4685B0E1
S31500007E70284603F007F80646284603F0E7F80746C3
S31500007E800FF2CC423EB92B4604F111010FF2A84085
S31500007E90FDF7C1FD10E00FF2EC400290039605F0ED
S31500007EA01F0001902B460FF2D440009004F11101FF
S31500007EB00FF2A440FDF7AFFDAF4206D03A460FF2EF
S31500007EC0CC410FF24440FDF7A6FD2846FFF797FF89
S31500007ED005B0BDE8F0405EA0FDF79DBD10B50446B7
S31500007EE003F065F801462046BDE81040BCE738B50A
S31500007EF0044603F09DFA0500DFF8F802D0F81013E7
S31500007F000FF2904018BF0125FDF785FD03F08EFAAC
S31500007F10A0680068C0B202F0F3FF02460FF24431D7
S31500007F200FF2A440FDF777FD0DB103F0CBF9204623
S31500007F30BDE83240D2E730B5044683B0A068056894
S31500007F40E8B202F093FF0190EBB20FF218300FF295
S31500007F509C42009004F111010FF27440FFE7FDF717
S31500007F605AFD37BD0121684602F08DBE10B50446A4
S31500007F7003F06EFC04F11101BDE81040034658A25F
S31500007F800FF27840FDF747BD2DE9F84F06468946C2
S31500007F90154603F04DFA040018BF012403F067FAF2
S31500007FA0002E4FF07F0A6FF07F0B4FF000088DF820
S31500007FB0000008D10126022003F05DFA642002F0D9
S31500007FC0ACFC374612E0F6D576420020F4E7802076
S31500007FD002F0A3FC03F055FB83455246B8BF834627
S31500007FE082469245C8BF924680447F1E012FEEDA34
S31500007FF09DF8000003F03FFA0CB103F063F9B9F104
S31500008000000F18BF89F800A015B198FBF6F028708C
S315000080105846BDE8F28F10B500F01CF804F11101C6
S31500008020BDE8104003460FF2F4320FF2DC30FDF7E4
S31500008030F2BC10B500F00EF803F027F804F11101B8
S31500008040BDE81040034668A20FF2D830FDF7E3BC46
S315000080507D0D0A00044600220021012094E710B598
S31500008060044686B0A068006804AA0DF11101FFF766
S315000080708BFF039004F111010FF2F0309DF91130DE
S315000080800FF2D83202909DF9100001900FF2D43011
S3150000809000900FF2AC30FDF7BEFC06B010BD80B507
S315000080A003F045FC034653480FF2D832D0F8B0131C
S315000080B00FF2C030BDE80050FDF7ADBC10B5044668
S315000080C04C48D0F8C0130FF2CC30FDF7A4FCA068E2
S315000080D0006840B203F0FBFB2046BDE81040DEE737
S315000080E0434341002DE9F84F464C0546207838B900
S315000080F005F11101BDE8F44F0FF2A030FDF78BBC7E
S31500008100A87B022838DBA8680678476802F04FFF8C
S315000081108146AEB9F8B278B3A75506F10B00C0B2E6
S3150000812002F094FF7F1CFF28F6D006F10B00814574
S3150000813004BF484602F0E4FE761C102EECD31BE08A
S315000081400B2E04BFF8B2002816D0A6F10B0010289B
S3150000815012D204EB060A30461AF80BBC0AF80B7C5E
S3150000816002F074FFFF2808BF0AF80BBC04D0B14523
S3150000817004BF484602F0C4FE05F111010FF2383083
S315000081800FF208290FF238380FF244370FF2483A47
S31500008190FDF741FC002515A6605D0090534605F1EC
S315000081A00B0239464046FDF736FC05F10B0B5FFA2C
S315000081B08BF0FFF724FE5FFA8BF002F047FFFF28F3
S315000081C005D0024649460FF21830FDF724FC30462A
S315000081D0FDF721FC6D1C102DDED33046BDE8F24FB5
S315000081E0FDF719BC00000000454400007D0D0A00A3
S315000081F0F0670020E0CA01003465002040420F000D
S31500008200FC6400204C67002081680968C9B22BE62F
S315000082107B264E202674737D0D0A000050455220A1
S3150000822054657374204D6F6465000000656E61626D
S315000082306C65642D6E657700656E61626C656400C1
S3150000824064697361626C65640000000061736C654B
S31500008250657000006177616B65000000656E657290
S315000082606779000073746174757300007B264E2075
S31500008270526164696F20706F7765722073746174E0
S315000082806520267473202674737D0D0A0000000095
S31500008290706F776572207374617465005241494C42
S315000082A020737461746500007B264E200000000078
S315000082B0536C656570696E6720726164696F2E2EF6
S315000082C02E00000057616B696E6720726164696FEA
S315000082D02E2E2E00646F6E657D0D0A0020267470AA
S315000082E0000000006672657100000000696C6C6534
S315000082F067616C0050657252616D526164696F43CB
S315000083006F6E666967000000202674750000000025
S31500008310667265714D487A00207B667265714B48BE
S315000083207A3A256C7D000000207B66726571487A7A
S315000083303A256C7D000000007B264E205261646960
S315000083406F206368616E6E656C202674680000009D
S315000083506368616E6E656C007B264E2052616469AF
S315000083606F206368616E6E656C202674682028260F
S31500008370746420696E202674642900006368616E47
S3150000838000000000706167650000000050746943DA
S3150000839068616E007B264E2053657474696E672093
S315000083A06368616E6E656C20616E642063616C69E2
S315000083B062726174696E6720286173206E656564F8
S315000083C06564292E2E2E00002674687D0D0A000095
S315000083D07B264E2053657474696E67202674682068
S315000083E02E2E2E202674687D0D0A00006368616EAD
S315000083F06E656C2070616765000000007B264E206C
S315000084002674647D0D0A00007B264E2026746420A7
S315000084105B64426D5D7D0D0A0000000052535349B6
S31500008420000000007B264E20267464205B38303224
S315000084302E31352E3420756E6974735D7D0D0A00FC
S315000084407B264E20267464202674642026746420BD
S315000084505B64426D5D7D0D0A000000006D696E5221
S315000084605353490061766752535349006D61785200
S31500008470535349007B264E202674642064426D7D4A
S315000084800D0A0000434341205468726573686F6C9F
S31500008490640000007B264E7D0D0A00007B264E20E0
S315000084A07B6E6F7420696D706C656D656E74656446
S315000084B07D7D0D0A000000007B264E0D0A0000009F
S315000084C07B267468203C3D3E202674680000000030
S315000084D046726F6D000000004D6170546F00000021
S315000084E0202674640000000080B5002003F097FC8D
S315000084F0BDE8014005F050B838B5DFF83841DFF87F
S315000085003811607DC870607B18B105F0EFF900285E
S3150000851008D505F0EBF940054CBF032001200021EA
S3150000852005F03BFAE06901224FF47A7105F0E3FAAF
S31500008530050003D000F05DF901202075284632BD04
S31500008540DFF8F010C861887DDFF8EC100871D3E71A
S3150000855070B58EB00C460CA805F0C4FA054605F0B9
S31500008560D9FA064605F0BAFABDF83610DFF8CC207F
S315000085700B9103460FF244010FF248000A9103954E
S315000085800196BDF8341009910FF280010891BDF8EB
S31500008590321007910FF27C010691BDF8301005915B
S315000085A00FF2780104910FF27C0102910FF27C0127
S315000085B000912146FDF72FFA0EB070BD73757370EA
S315000085C0000000007B264E20267475202674326833
S315000085D0202674642F31303025250D0A202026747C
S315000085E0642F3130302525202674642F3130302514
S315000085F025202674642F3130302525202674642FDB
S3150000860031303025257D0D0A000000006372697443
S31500008610000000006C696D690000000074616C6BFD
S315000086200000000075736564000000006163636507
S315000086306C00000050650020906B00204086000012
S315000086406D6F6465000000002DE9F04B0646894613
S31500008650904605F055FADFF8C845070918BF7F1E92
S31500008660A07066708C2E18BF02F0F1FE30000FF27B
S315000086702C1BDFF82C560CD0402E1CD0882E18BF91
S31500008680892E36D08C2E21D08D2E1DD08F2E09D03E
S3150000869024E02069401C206100F0A6F848B34FF49E
S315000086A0A46123E0A069401CA06100F09DF800B31E
S315000086B040F225511AE0E069401CE06100F094F8B0
S315000086C0B8B140F2315111E005F017FA6069401C6B
S315000086D06061287D68B14FF4A76107E032460FF26A
S315000086E0D4010120FDF700FC40F249515846FDF740
S315000086F025FC402E84F80080C4F8289025D1E07827
S31500008700022822DB401EE0702089401C208105F0F3
S31500008710EDF800F08020B0F1004F01D000F069F8CC
S3150000872005F0E4F8000408D505F0E0F840054CBF74
S3150000873003200120002105F030F9E86900224FF4FA
S315000087407A7105F0D8F9060026D000F052F830000C
S3150000875018BF8F2E1ED0207902281BDB401E2071E9
S315000087606089401C6081DFF85805007802280ADB22
S31500008770E969DFF85005814205D10178092902DB54
S31500008780C178491CC170688B02F0C7F8BDE8F04B90
S31500008790FFF7B2BE01202875BDE8F08B7068792D11
S315000087A0636F6D6D6F6E2D74782D746573742E63A3
S315000087B000000000656D626572526164696F5472F3
S315000087C0616E736D6974436F6D706C657465497322
S315000087D07243616C6C6261636B2073746174757350
S315000087E03A20307825780000206A38182062287DE3
S315000087F070470021002005F0D0B880B502F0DBFB01
S3150000880000F010F8D0F8A01406E080B502F0E6FB00
S3150000881000F008F8D0F8C0140FF2EC40BDE80050A4
S31500008820FDF7F9B80346DFF8A4040FF2E8427047F3
S3150000883030B5044683B0A068056868B202F0CAFB8A
S3150000884001906BB200F026F8D0F8B0140FF2D040C9
S31500008850FDF7E1F8A8A0FDF7DEF82046BDE83E40AA
S31500008860CBE730B5044683B0A068056828B202F0AD
S31500008870BAFB01902BB200F00DF8D0F8D0140FF22D
S31500008880A040FDF7C8F89CA0FDF7C5F82046BDE856
S315000088903E40BAE70FF268400FF294420090DFF8CC
S315000088A02C047047000000B5DFF824140FF2A44230
S315000088B00B8B0FF2B84183B00091019300F11101C7
S315000088C00FF27C4031E18168DFF8042409681183E6
S315000088D0E9E72DE9F14F84B0806800880190012412
S315000088E0401E8041C00F029002F0A2FD00B101209F
S315000088F08DF801004FF0000BDFF82453DFF8A0835A
S3150000890068697C4FADF80200D9460198012813D05A
S3150000891000F006F93878029921B10FF27041FCF7A0
S31500008920BDFB03E0019A78A1FCF7B8FBB8F8182064
S3150000893000F0F1F800F0EAF8DFF88863DFF894A3B6
S31500008940802251463046FDF787F8DFF87403007839
S315000089500228A4BF3078092819DB9AF8011001F023
S31500008960200141F0C1017170A1461821B170301883
S31500008970029919B100F805BC002004E0019900F83D
S31500008980051C019800123178711801F8040CDA46BA
S3150000899011E002F017F8834698F8140048B9FFF77B
S315000089A0A3FD02F00FF8A0EB0B0080B2B0F5FA6F52
S315000089B0F2D995F801B0029810B9019882454FDABC
S315000089C000208DF8000069463878FDF765FA9DF8B5
S315000089D00010652944D03878642906D100F08EF855
S315000089E0049800F11101002007E0442907D100F0A6
S315000089F085F8049800F111010120FFF7A9FD0AF19D
S31500008A0001001FFA80FADFF8D002007820B102F0E8
S31500008A1045F908B105F080F8B8F8180001F07DFFB7
S31500008A20DFF89C02007880B1B9F1000F18BFF4702E
S31500008A303078042809DB301800F8034C201231780E
S31500008A407118641C01F8020CA4B2002088F8140006
S31500008A50012068703046FFF773FD0028834698D0E2
S31500008A6038780FF24C315246FCF718FB98F80D0097
S31500008A7040B1A88ABDF80210421A38780FF24C317C
S31500008A80FCF70CFB38780FF268315A46FCF706FB08
S31500008A90DFF848020FF2743102883878FCF7FEFAE4
S31500008AA038780FF28831FCF7F9FA297838780029F6
S31500008AB014BF0FF294310FF29831FCF7EFFA02F07F
S31500008AC0F6FE28B16A6A38780FF28C31FCF7E6FABE
S31500008AD0AA6A38780FF2AC31FCF7E0FA642001F0AC
S31500008AE01CFF9DF8010008B102F0ECFB05B0BDE8E3
S31500008AF0F08F0000FC6400200D0A000052460FF2C1
S31500008B00B021FCF7CBBA00002575000038780FF2CB
S31500008B10E411FCF7C3BA38780FF27C21FCF7BEBA31
S31500008B2038780FF26021FCF7B9BAFCF774FF07BD7D
S31500008B3038B500F03DF800F034F818BF0124FCF712
S31500008B40ADFA02F073FC02F049FE02E0287800F06C
S31500008B500BF800F004F8F9D102F053FE1DE09DF881
S31500008B6000006528704720786946FDF795B938B545
S31500008B7000F01EF800F015F818BF0124FCF78EFA75
S31500008B8002F054FC02F041FE02E02878FFF7ECFF09
S31500008B90FFF7E5FFF9D102F04FFE0CB102F092FBB0
S31500008BA031BDDFF83C510FF24C11040028787047B4
S31500008BB000208DF8000002F03BBC2DE9F041DFF803
S31500008BC020410FF2F02120780FF2F8260FF2EC2860
S31500008BD0DFF80071FCF762FA002515E07A5D20786F
S31500008BE04146FCF75BFA681005EB90708010B5EB18
S31500008BF0800007D13878854204DA20782A46314643
S31500008C00FCF74CFA6D1CEDB23878401C8542E5DB6A
S31500008C10BDE8F0818068DFF8BC1000680870704716
S31500008C20906B00202DE9F84304460025A068DFF884
S31500008C30B06007680FF29829DFF898807F1CFFB2B2
S31500008C40802F06DAA06800EB8500406808F8070068
S31500008C5005E030786B1C7A1E4946FCF71FFA6D1C3E
S31500008C60042DEBDBBDE8F1831A48142101700121C4
S31500008C704A1E4254491C8029FAD370471248194AA1
S31500008C800021016141618161C16101621160164A81
S31500008C90116001814181002014490860704700007D
S31500008CA05065002080680A4A0078010018BF01213B
S31500008CB0517302280E490CBF01200020087070472E
S31500008CC0F0670020747B0020906B0020E0CA010052
S31500008CD050650020F47A0020F1670020227A0020F7
S31500008CE0FC6400207C740020787400204475002009
S31500008CF0407400202765276E642E2E2E000000008B
S31500008D0073746174757300007B264E202674646448
S31500008D10426D7D0061637475616C506F776572009A
S31500008D207B264E2026746464426D202674647D0082
S31500008D30726571756573746564506F77657200004E
S31500008D407B264E20267464757320267432787573DC
S31500008D507D0000007472616E736D69742064656CC9
S31500008D606179202864656329000000007472616ED1
S31500008D70736D69742064656C61792028686578294B
S31500008D80000000005478696E67200000696E66690D
S31500008D906E69746500000000207061636B65747312
S31500008DA02025752075732061706172742E20000075
S31500008DB00D0A2575207061636B657473207472618A
S31500008DC06E736D69747465642E0D0A0025752066D0
S31500008DD061696C65642064756520746F20636861E1
S31500008DE06E6E656C20627573792E0D0A00000000A8
S31500008DF04C617374207061636B6574207374617465
S31500008E0075733A2030782532780D0A004C617374F8
S31500008E10207061636B6574206261636B6F66663A8E
S31500008E202030782532780D0A000000004672616D08
S31500008E30652070656E64696E6720696E206C61736B
S31500008E40742041434B3A20005965732E0D0A0000E9
S31500008E504E6F2E0D0A0000005346442074696D655E
S31500008E602028766961205346442073656E7420631A
S31500008E70616C6C6261636B293A2030782532780D1B
S31500008E800A0000005346442074696D6520287669FF
S31500008E906120545820636F6D706C65746520636142
S31500008EA06C6C6261636B293A2030782532780D0A42
S31500008EB000000000206C656E3A20000030782578AE
S31500008EC0200000000D0A307825783A2000000000C6
S31500008ED07061796C6F6164206279746520696E6473
S31500008EE065783A202564206973206F7574206F6653
S31500008EF02072616E67652E20617267756D656E748E
S31500008F002025642069676E6F7265642E0D0A000065
S31500008F10130018BF01231A46FFF796BB890001EB21
S31500008F20401000F18440026070473EB53948006841
S31500008F30040E684604F044FE8F2C10DA3648374C8F
S31500008F40016841F0040202604FF050130022302500
S31500008F505543521C6351062AF9D3016001E0902C57
S31500008F6006DA2F480168C909C90141F020010160EC
S31500008F709DF80100012804D12A48016841F0040146
S31500008F80016000220D212848FFF7C8FF274901206C
S31500008F90086004F02FFE04F0F6FE05F00CF90FF25F
S31500008FA09000D0E90023CDE9012301208DF80700C8
S31500008FB001A805F064FA05F0E1FC01F011FD37BDEA
S31500008FC005F076BD05F075BD80B50021002004F0E2
S31500008FD006FDBDE8014004F070BD04F06FBD80B52C
S31500008FE003F095F801460FF250000C2938BF00EB4C
S31500008FF0810002BD80B503F08EF80FF26C01020409
S31500009000120E51F8221000F0FF0001EB800002BDA5
S3150000901000000000FC81E00FB0400E4000A00040C0
S315000090202C400E4064310E4054300E4010300E403D
S315000090300000000000000000554E4B00464942006B
S3150000904042544C004558540050575200574447006C
S3150000905020535700435253004653480042414400B0
S31500009060464C540042524F00A4DA0100A8DA01002F
S3150000907000DB010020DB01002CDB010034DB0100FA
S3150000908040DB010050DB010058DB010064DB01001E
S3150000909074DB010094DB0100012100F01F02914006
S315000090A0DFF86C2905E0012100F01F029140DFF88E
S315000090B06429400942F820107047012100F01F0280
S315000090C09140DFF85429F4E710B5012818BF20288D
S315000090D0DFF8484905D040F27D110FF63820FCF73D
S315000090E02DFF204610BD426892884089401A824270
S315000090F001DA01207047002070473EB5012818BFED
S31500009100202834D1012818BF202830D1FFF7DCFFF2
S31500009110044600F003FD0546A06901AB6A4602A9B4
S3150000912006F04BFC00992289206889B200F02DF8E0
S31500009130284600F0F9FCA06906F0B7FC012816D114
S31500009140216820898988401A218A88420FDBA06914
S3150000915090F83110022903D106F02DFC022804DA1A
S31500009160A06990F83100012801D100F001F837BD5F
S31500009170A069002106F071BCDFF8A408416821F05F
S315000091800201416002210160704770B504460D4638
S31500009190164600F0C3FCE188A9420CD22288521A76
S315000091A0521992FBF6F306FB13222280A288AA1814
S315000091B0511AA180E580BDE8704000F0B5BCF8B555
S315000091C0012818BF20280C46154616D1FFF77CFF4C
S315000091D00646307B10B101207073F1BD707B18B16B
S315000091E03046BDE8F240B2E00FF2C91700F006F8CB
S315000091F018B100F003F80028FBD1F1BDB0693B4679
S315000092002A46214606F035BD70B505460E46FFF7DF
S315000092105BFF012D18BF202D044640D1A0690168CF
S3150000922090F83200E8B90420886400F04FF9A0698C
S315000092300068C16C002E07D041F00401C1640B2008
S31500009240FFF72AFF052106E021F00401C1640B2087
S31500009250FFF729FF0021A0690068BDE8704006F00D
S3150000926095BD0420486300F031F9A0690068816B60
S31500009270002E07D041F0040181630B20FFF70CFF9D
S31500009280052106E021F0040181630B20FFF70BFFA7
S315000092900021A0690068BDE8704006F0F4BD70BD0D
S315000092A038B50446DFF87C07814230D0DFF86C57CA
S315000092B0A869A0422BD12A89286899B2FFF765FFD1
S315000092C029680020C88002E0284600F021F82046E0
S315000092D006F071FB03281ADA2A68E889698A9388F6
S315000092E04143002B89B2EFD053881288401883423D
S315000092F0B8BF914205DB9A42E6D28342A8BF9142AB
S31500009300E2DA2046BDE83440012106F0A6BB31BDB5
S3150000931038B50446DFF81037E089658A21680246C9
S315000093206843084400F10801A06906F05AFCA069E8
S3150000933006F041FB022801DBFFF71AFF608AA18ACB
S31500009340401C90FBF1F201FB1200608231BDFEB5BC
S315000093500446207B68BB60680FF2590741880844C1
S3150000936000F10805A0696B4601AA02A906F045FBB3
S3150000937060688188009A891A019A8E1A4188008845
S3150000938088420ED26089421AA0693B46294606F0F9
S3150000939070FC70B9606861894288711A561800F1CC
S315000093A00805A0693B46F2B2294606F062FC00B900
S315000093B06073F7BD70B5DFF86456A96981421C4633
S315000093C015D168688188A14238BF848800F0A6FB61
S315000093D069686B894A88A4B2A21892FBF3F603FB6C
S315000093E016224A8069688A88121B8A80E3E670BD65
S315000093F038B50D46FFF768FE112D044609D1A06960
S31500009400002106F03BFB002020732046BDE83240D9
S315000094109DE7132D06D1A069012106F02FFB01203F
S31500009420207331BD206801880844057220680188D0
S31500009430228900F089F901808188491C8180A06910
S3150000944006F033FB226821899288891A89B220B9ED
S31500009450E2898A42A8BF012105DA012808D1208ABB
S31500009460814205DB0021A069BDE8344006F0F5BA6B
S3150000947031BD80B5DFF8B4050169090606D506F0E9
S31500009480EFFCBDE8044001460120B1E701BD80B50F
S31500009490DFF89C05016829B10168DFF8982511609D
S315000094A00021016000F012F80B20FFF7F5FDDFF850
S315000094B08805016841F0040101600221DFF86005BA
S315000094C00160416841F00201416001BD0B20F4E5F5
S315000094D080B5DFF8680504210160416821F00401C8
S315000094E04160FFF7F3FF0B20FFF7DDFDDFF84405D2
S315000094F0006810B1DFF838150860BDE801403BE6AA
S31500009500F8B50C461546FFF7DFFD0646EAB23068A9
S3150000951080883189891A884201DB0120F2BD002743
S315000095200DE000F0FBFA31680B8814F8012B1944A2
S315000095307F1C0A7231680A88338900F0D9F9AF4274
S31500009540EFD30020F2BDF8B5012818BF2028044645
S315000095500D463AD100F0C0FA10B9204600F06EF878
S315000095602046FFF7B1FD06462046FFF7ADFD012C6C
S3150000957018BF202C29D1DFF8C814016001F1480278
S315000095804260402202818022012C18BF202C428199
S3150000959050D1012C16BF202C01F1D0000020012C47
S315000095A018BF202CB06110D1DFF89804A98CA861EF
S315000095B08030E861F181EA8C32828A4207D21C212E
S315000095C0304606F09DFC0220F2BD0120F2BDB069D6
S315000095D090F83130012B0CD0338993FBF1F701FB66
S315000095E01733002B02BF92FBF1F301FB1321002975
S315000095F0E5D1294606F018F8F8B9B069017F007E72
S315000096000123022201F07AF8287C012807D10121E2
S315000096102046FFF7F9FDB069FFF7ABFD0AE0002031
S315000096207082F189308990FBF1F0B08200F051FA36
S3150000963000F04FFA00F060FA0020F2BD58B501289C
S3150000964018BF2028044612D100F046FA00BB204677
S3150000965000F01EFA2046FFF737FD012C18BF202C1C
