S00F00006E6F6465746573742E7333377F
S315000000001066002071710100295D00005571010024
S31500000010A70A0A010002000004180FAC0061540090
S3150000002000000000000000000000000000000000CA
S3150000003000000000109E010000000000000000000B
S315000000400000000000000000FFFFFFFFFFFFFFFFB2
S31500000050FFFFFFFF00D003000000000000000000CB
S31500000060FFFFFFFFFFFFFFFF34000000000000005E
S31500000070000000000000000000000000000000007A
S315000000800000000000000000D07C0020D07C002092
S3150000009010660020DCB10100F6730100B05C0020A0
S311000000A02C11002000F0030000000000FE
S315000002001066002071710100295D00005571010022
S315000002105D71010059710100617101006D7101008C
S315000002206D7101006D7101006D7101006D7101004C
S31500000230657101006D7101006D7101006D6C00004A
S31500000240C3A2000039090100F31A00006D71010014
S3150000025061050100790901003F090100410901001A
S315000002603B090100CDF50000A3EE0000D7C3000056
S31500000270CB5300006D7101006D710100536F0100D9
S315000002806D7101006D710100C1EE00006D7101001C
S315000002906D7101006D7101006D7101006D710100DC
S315000002A06D7101006D7101006D7101006D710100CC
S315000002B07B0901003D090100C1730100DBA00000BC
S315000002C0AF0901006D710100A17301006D7101009C
S315000002D06D7101006D7101006D7101006D7101009C
S315000002E06D7101006D7101006C496D4A01E021B12B
S315000002F0491E1369DB07FAD401B9B0E0506001204A
S315000003001060106910F0060F05D0410700D5A9E06E
S31500000310800700D5A9E000207047F0B513460022FB
S31500000320002936D05D4C5E4D8BB98B4231D250F8E8
S31500000330046BEE605B1C08262E60264601E036B391
S31500000340761E2F69FF07FAD4002EEED11FE0EFF3D9
S31500000350108672B600230EE02F6907F01907102FDA
S3150000036008BF2F602F693F07F6D550F8047BEF6072
S315000003705B1C10272F608B42F4D306B962B6264663
S3150000038001E026B1761E2869C007FAD40EB96FF0CF
S3150000039002021046F0BD2DE9F0479A46414B424F06
S315000003A01C681B683B688046002043F001033B60E5
S315000003B0950881460C4602E0B14404EB8604A94543
S315000003C017D208EB89063046FFF78EFF010014D1DD
S315000003D0C6F30A00C0F500608608A5EB0900B04226
S315000003E038BF0646524631462046FFF796FF0100C3
S315000003F0E2D03968490849003960BDE8F0872949E3
S31500000400264A0B68096828490B6843F001030B600C
S315000004108860012048604869400704D5086840089C
S31500000420400008601EE04869800704D50868400857
S315000004304000086019E00220486001E022B1521E27
S315000004404869C007FAD422B9086840084000086025
S3150000045005E00868400840000860002070476FF01B
S31500000460020070474FF0FF3070476FF00100704791
S31500000470002390E70C48016841F00101016046F253
S315000004801A31C1644FF4807141604169C907FCD4D7
S315000004900021C1640020704700000000809698008B
S315000004A00C000E4004300E4008000E4070472DE947
S315000004B0F047DFF834580FF29C010FF2945A0FF20E
S315000004C08058DFF828980446287800F0E3FD0027D6
S315000004D0E4A603E000F083F97F1CBFB2206800EBBE
S315000004E007114A68287813001AD04A4509D14A6983
S315000004F0130018BF4A45EFD00A68414600F0CAFD0E
S31500000500EAE78B680A68514600F0C4FD206800EBF4
S315000005100710C2682878002ADCD00FF23C51EDE7BC
S315000005200FF2AC0100F0B6FD28780FF2CC0100F016
S31500000530B1FD28780FF2F00100F0ACFD28780FF23B
S31500000540141100F0A7FD28783146BDE8F04700F009
S31500000550A1BD0000434F4D4D414E44205B504152DA
S31500000560414D45544552535D205B2D204445534330
S3150000057052495054494F4E5D0D0A202077686572E6
S31500000580653A20623D6275666665722C2073313D60
S31500000590696E74385F742C2073323D696E7431361F
S315000005A05F742C2075313D75696E74385F742C202C
S315000005B075323D75696E7431365F742C2075343D25
S315000005C075696E7433325F740D0A0D0A00000000FF
S315000005D020202120202D20526563616C6C732074CD
S315000005E068652070726576696F757320636F6D6DCF
S315000005F0616E640D0A00000020205B7461625D205C
S315000006002D20417474656D70747320746F2074614D
S315000006106220636F6D706C65746520636F6D6D61CC
S315000006206E640D0A00000000202020202A2A204E99
S315000006304F54453A20616C6C20696E707574207653
S31500000640616C7565732061726520696E20686578D6
S31500000650210D0A00202020202A2A20436F6D6D617B
S315000006606E647320617265204E4F5420636173651A
S315000006702073656E7369746976650D0A0000000063
S31500000680A0F141011A293CBF2030C0B270472DE9C4
S31500000690F84F0546DFF85816A86800680968DFF8BD
S315000006A04876C0B200240E5C212EA04607DB3878BF
S315000006B00FF2CC01BDE8F84F202200F0EBBC00F0B1
S315000006C009FD8246A14607E01AF80900FFF7D8FFA0
S315000006D00AF8090009F10109B145F5DB32460FF2C6
S315000006E0E401504600F072FF40B94FF0010805E002
S315000006F038780FF2D8015A4600F0CCFC2968200160
S315000007000A185268130039D0DFF8E095641C4A4590
S31500000710A4B2F3D151F800B0B8F1000FE8D15846B1
S3150000072000F068FFB042E9D132465146584600F023
S3150000073041FF0028E2D1BFA60FF21C380FF2940A3F
S3150000074003E000F04CF8641CA4B2286800EB041027
S3150000075041680A0018BF494510D083680268387896
S31500000760514600F097FC286800EB0410C268387800
S31500000770002AE6D0414600F08DFCE4E7BDE8F18FA3
S315000007804572726F723A206C697374206172677574
S315000007906D656E7420746F6F206C6F6E672C20779A
S315000007A065206F6E6C7920737570706F727420752A
S315000007B07020746F2025752062797465732E0D0A7A
S315000007C0000000006D6F64756C65730025700D0A7E
S315000007D000000000257020257000000020783146BA
S315000007E000F058BC70B5044688B0A068016801B135
S315000007F00121DFF800552970406800B10120DFF8BB
S31500000800F86430700FF2600001F00FF9A068C1685B
S3150000081001B10121DFF8E4241170006900B1012063
S31500000820DFF8DC14087008782B78079004F11101C2
S315000008300FF25C00069010780FF25C0205900FF242
S3150000084060000490012003907BA002903078019014
S315000008500FF2540000900FF2580001F0E6F808B0CD
S3150000086070BD00000D0A00005475726E696E672037
S315000008706F66662074616773206E6F742079657485
S3150000088020737570706F727465640D0A0000000045
S315000008907465787400000000686561646572000024
S315000008A064656C696D000000636F6D6D616E640058
S315000008B07B264E20566572626F73697479206F705D
S315000008C074696F6E732073657420746F3A0D0A260F
S315000008D074750D0A2674750D0A2674750D0A26742C
S315000008E0750D0A2674757D0D0A000000DFF81414D4
S315000008F0007C51F82020DFF8F0030FF208010078A1
S3150000090000F0C8BB4349204572726F723A202570C9
S315000009100D0A000038B5DFF8D043207845A500F071
S3150000092041FA20780FF2340100F0B4FB00F039FAF6
S3150000093020780FF24C0100F0ADFB20783FA100F0CB
S31500000940A9FB20780FF2440100F0A4FB20780FF2F7
S315000009504801BDE8344000F09DBB0000456D62656E
S3150000096072204E6F64652054657374204170706CFC
S3150000097069636174696F6E2076312E300000000065
S3150000098044656320323020323031370031323A3319
S31500000990363A3537000000000D0A0D0A0000000047
S315000009A02DE9F24F044682B0256BDFF83CB3904642
S315000009B0002705E01FA100F06DFB7F1CBFB21035BC
S315000009C06868A8B3D5F80090DDF808A000260DE009
S315000009D01AF8010BFFF754FE009019F8010BFFF708
S315000009E04FFE0099C9B28142E7D1761CB0B24045AC
S315000009F0EED32068BD4E00EB07114B680A689BF8E2
S31500000A000000B34204D10FF2380100F043FBD4E7F3
S31500000A108B680FF23C0100F03DFB206800EB0710ED
S31500000A20C2689BF80000002AC4D00FF22C01ECE744
S31500000A30BDE8F78F0D0A0000746167002C200000E6
S31500000A402D2D2D2D202570202D2D2D2D0D0A00004C
S31500000A502020257020257000202D2025700D0A00ED
S31500000A602DE9F0439BB00EA80FF29C21342201F031
S31500000A700DF84FF000098DF80190A52001F057F808
S31500000A8001F09AF800F07FF9002001F0C3F90500A3
S31500000A9005D000F073F9002001F0BCF9054600F01E
S31500000AA072F9012001F0B6F9060005D000F066F9EA
S31500000AB0012001F0AFF9064600F065F9022001F0C9
S31500000AC0A9F95FEA000805D000F058F9022001F004
S31500000AD0A1F9804601F038FA834C5DB1002E68D04A
S31500000AE0B8F1000F6BD04FF4FD710FF2502001F0FA
S31500000AF031FA04E0002E18BFB8F1000F62D084F876
S31500000B000090201D01F056FB201DFFF703FF0FF29A
S31500000B103C2520780FF23C2800F044F920780FF2AB
S31500000B209C2100F0B7FA6DA6FFF758FE201D01F0D4
S31500000B30B9FD00F036F920780FF28C2100F0AAFA00
S31500000B40FFF74CFE201D01F0CAFD00F02AF92078BF
S31500000B500FF2802100F09EFAFFF740FE201D01F003
S31500000B603AFE00F01EF920780FF2742100F092FA96
S31500000B70FFF734FE201D03F0E3F800F012F92078A9
S31500000B800FF2682100F086FAFFF728FE201D03F019
S31500000B90ECF800F006F920780FF2C01100F07AFAAE
S31500000BA0FFF71CFE201D03F0F7FF4DA54DA601AF74
S31500000BB03FE0B8F1000F05D001202070A1E7022028
S31500000BC0FBE725702078FF289BD10025694628463B
S31500000BD001F06EF938B99DF800000D2818BF0A28F3
S31500000BE018BF2A28EDD06D1CEDB2032DEEDBE9E728
S31500000BF08DF800009DF800107A5C481C0A2A18BF80
S31500000C000D2A18BF002AF3D10D227A548DF8000060
S31500000C1001A99DF80020201D01F0D8FA9DF80020BA
S31500000C2001A90EA800F07CFC9DF8009000208DF82C
S31500000C30010000F0B2F820780DF10103322201A97B
S31500000C4001F03BF90028D3D000F06EFF01F09EF8CA
S31500000C5003F0E2FB9DF8010020B39DF8011001A806
S31500000C60084410F8010C09281CD1FFF7B7FD9DF8C0
S31500000C700100401E8DF8010001A99DF80120201DEC
S31500000C80FFF78EFE9DF801100020785400F085F8DD
S31500000C90002004E000F07CF89DF80000401C00F005
S31500000CA065F8F7D39DF804002128C4D1FFF796FD17
S31500000CB04A460EA901A800F033FCA9F101008DF8FF
S31500000CC0010000F06AF8002000F050F8B3D200F0FE
S31500000CD05FF89DF80000401CF6E700005D0D0A0075
S31500000CE0256300000D0A000004680020AD04000022
S31500000CF000690020F06B0020F16B0020F26B0020F1
S31500000D00F36B0020246A00200D00000000000000A4
S31500000D1000000000000000000000000000000000CD
S31500000D2000000000000000000000000000000000BD
S31500000D30000000000000000000000000706C6174FC
S31500000D40666F726D746573742E6300005B494E495D
S31500000D50542000000D0A3E20000000007365745008
S31500000D606572546573745478000000008DF80000B5
S31500000D709DF801109DF8000088427047012300226B
S31500000D804FF416417047012300224FF4E1317047BA
S31500000D903A5C2078294600F07DB94146207800F07B
S31500000DA079B92078294600F075B980B504F04EF877
S31500000DB0BDE80240002053E600207047637261736D
S31500000DC068696E666F00000072657365747374728D
S31500000DD0696E6700696E6974546F6B656E730000A7
S31500000DE0696E6974526164696F00000073656564B9
S31500000DF0506E72670000000070B51346104402E0A2
S31500000E00A4192C705B1EDCB24CB101F00F06090967
S31500000E10451E0A2E2846B4BF30243724F0E7104476
S31500000E2070BDF0B5002341B1002806D501232D2160
S31500000E30B0F1004F117018BF4042002100240FF29C
S31500000E40702555F82470002601E0C01B761CB842B8
S31500000E50FBD2F7B20FB90F0005D0DBB206F13001B5
S31500000E60D1545B1C0121641C092CEADBDBB2303057
S31500000E70D054581CC0B2F0BD2DE9F24F804696B052
S31500000E8013A80190154603A89B4603AE002700242D
S31500000E908DF800000BE0012405460198864205D333
S31500000EA000F0DCF800284FD100F0CEF86D1C9DF85C
S31500000EB000002978301A0A000BD0252903D014B96E
S31500000EC006F8011BE9E7002C14BF00246D1C2978E5
S31500000ED00A0000F0AF80B1F1250216D00B3A092ABC
S31500000EE040F28980283A7DD00A3A12D0521E41D06B
S31500000EF0521E5FD0083A5DD0121F3ED0D21E3CD0A3
S31500000F00921E57D0D21E6DD0C7E7252006F8010BDA
S31500000F10C3E7DBF8000002904FF0000A0BF1040073
S31500000F2000F1040BD0F80090CA45B6D2029810F82A
S31500000F300A1002223046FFF75FFF064601988642F6
S31500000F4005D300F08BF800287AD100F07DF8A9F1DE
S31500000F50010082453CBF202006F8010B019886421D
S31500000F6005D300F07BF800286AD100F06DF80AF18D
S31500000F70010AD9E75BF8040BC8E75BF8049B00F0AD
S31500000F8067F800285CD100F05FF84FF0000A01E036
S31500000F900AF1010A5FFA8AFA19F80A000028F7D15D
S31500000FA09DF8580052464946C047002848D1574444
S31500000FB0FFB272E76C290AD16A785BF8040B752ACE
S31500000FC00EBF00210121642A07D16D1C05E0752999
S31500000FD05BF8040B0CBF002101213246FFF721FF0D
S31500000FE036185AE75BF8041B0222C9B23046FFF7EF
S31500000FF003FF064651E76A780124782A18BF582A63
S31500001000F8D16D1C0024681E322904D15BF8040B4C
S31500001010042281B2EAE734297FF43DAF5BF8049BF2
S3150000102004224FEA19413046FFF7E6FE04221FFA72
S3150000103089F1DCE700F00CF810B9F019C0B200E055
S31500001040002017B0BDE8F08FF719FFB203AE704766
S3150000105006469DF85800F2B203A940479DF80000E5
S31500001060361A9DF85800F2B203A9404701A111E0D3
S31500001070000000000D0A00000CB438B5044604AAAE
S3150000108000F010F805462046FFF7F0FF284632BC70
S315000010905DF80CFB0CB480B502AA00F003F802BCA4
S315000010A05DF80CFB80B504F00BFCC0B202BD00007D
S315000010B000CA9A3B00E1F5058096980040420F0071
S315000010C0A086010010270000E8030000640000006D
S315000010D00A000000DFF81814096801EB4010704799
S315000010E0DFF810241268115470472DE9F04104000E
S315000010F035D004F015FDDFF80014DFF800340E7863
S31500001100FF228046FE2EDFF8F8031BD100260E7064
S31500001110DFF8F0C3DFF8F06337781F70002708E0C8
S3150000112007F1010E05F807E0DCF80050EA555FFA12
S315000011308EF796F800E005687745F1DB05EB0E06BD
S3150000114006F8012C1E78A6420BD2404604F0EEFCAF
S31500001150052004F025FD00211B2004F0A7FDFF203B
S315000011601EE0361B1E70DFF8A4330E780F78D3F816
S3150000117000E001250EF80750641E056815F807E023
S3150000118081F800E05FFA84FEBEF1000FEED1EA5569
S3150000119000213046FFF7A4FF404604F0C7FC304666
S315000011A0BDE8F0812DE9F041054600F031F804462E
S315000011B004F0B6FCDFF84023DFF84033DFF8406385
S315000011C0DFF84883FF2D1FD0D8F800104F5D7F1E33
S315000011D04F557F27D8F800E01EF80510394213D185
S315000011E03168495D00270EF805701F787F1C1F7057
S315000011F0FF29376892F800E007F805E0157006BF8A
S315000012002546FF240D46DDE7BDE8F04104F08EBC1F
S3150000121080B5DFF8F8120968095C090603D5FFF7FF
S3150000122059FF007802BDFF2002BD70B504460D4689
S3150000123005F11F000004400D82B0C0B2FFF755FF54
S315000012400646FF2E0CD02946FFF74AFF3CB1012087
S3150000125000902B4600223146204600F002F8304628
S3150000126076BD73B500F0D0F8405C15461E46711980
S31500001270884203DA40F2651100F0EBF830000CD03A
S31500001280294601A800F0E9F8024606989DF80410E0
S3150000129000903346204600F001F873BD2DE9F8436F
S315000012A0089CDFF85C820546894616461F460BE019
S315000012B06A5C4254491CB142FADBD8F80000BF1BF5
S315000012C0AD1910F809900026F8B2D0B14846FFF7DC
S315000012D001FF801956FA87F12029B9BFFFB23E46B1
S315000012E0C6F12006F6B22100324604D10146284650
S315000012F000F016F9E1E7012C08BF2946F8D00021D5
S31500001300D9E7BDE8F1832DE9F04100F07DF882B020
S31500001310055D884616467119C9B2A9421F4605DB06
S3150000132030000CD0204600F05DF808B1182007E028
S31500001330009733462A4621464046FFF792FF002093
S31500001340BDE8F6810123DEE70A4600E0521C137869
S31500001350002BFBD1521A0223D2B2D4E72DE9F04179
S31500001360054601F11F00C70402F11F00C0043F0E2D
S31500001370000E07B9012700B9012087422CD0DFF8FB
S3150000138080411BDAC01BC0B2FFF7AFFE8046B8F142
S31500001390FF0F08BF002020D07F1E00F020F826682F
S315000013A0305CFF2804D000F01AF8305CFFF7FAFE34
S315000013B000F015F8216801F800800DE08A420BD292
S315000013C0411EC9B200F00CF805462068405DFFF7E3
S315000013D0E9FE2168FF2048550120BDE8F081F9B2F9
S315000013E0284616E038B500F00FF80D46015D2A468E
S315000013F02046FFF7B3FF28B129462046FFF770FEC7
S31500001400002032BD182032BD0446DFF8E80000682F
S31500001410704704E0DFF8E8201268105C491ECAB283
S31500001420002AF7D1704711B50C46DFF8C8100968D5
S3150000143081B0095C8C4203D340F2012100F009F827
S31500001440214601A800F009F8044600F04EF82044B1
S3150000145016BD0FF2BC0000F07DBD38B504460D4642
S31500001460E9042078090EFFF7D4FF207005F01F006D
S3150000147032BD80B5FFF7D7FF007802BD10B5144620
S31500001480FFF7D1FF047010BD2DE9FC4405B40A9C9A
S3150000149020001F4627D089B26846FFF7DEFF0646C2
S315000014A0B9B201A8FFF7D9FF0746BE42A8BF30462A
S315000014B0A4B2C0F120002546C0B2A842B8BF054676
S315000014C000F013F882469DF80000FFF703FE2A4657
S315000014D00AEB0701304400F023F8641BA919EF1941
S315000014E0A0B20028D7D1BDE8FF849DF80400F1E53D
S315000014F0FC68002000690020FD6B0020F96B0020CD
S31500001500086900200C690020F86B0020046900209F
S315000015107061636B65742D6275666665722E630015
S31500001520814233D210441144401E491E10E011F886
S31500001530013900F80139121F11F8013900F8013993
S3150000154011F8013900F8013911F8013900F80139AB
S3150000155092B2042AEBDA93B2002B1EBF11F80139BE
S3150000156000F80139521EF6D1704711F8013B00F818
S31500001570013B121F11F8013B00F8013B11F8013B3A
S3150000158000F8013B11F8013B00F8013B92B2042A36
S31500001590EBDA93B2002B1EBF11F8013B00F8013BBA
S315000015A0521EF6D17047130003D00A46194604F0BE
S315000015B087BB704710B500E0521E93B223B100F00E
S315000015C012F8F9D0181B10BD002010BD10B500E0B0
S315000015D0521E93B22BB100F006F8F9D0181B40B298
S315000015E010BD002010BD10F8013B11F8014BA342BD
S315000015F07047000000F10103810704D010F8011BB9
S3150000160089B18107FAD10268B2F10131914311F033
S31500001610803F04BF50F8042FF6E710F8011B11B104
S3150000162010F8011BFBE7C01A7047000038B50446E6
S31500001630611D206A2368451A2079EAB2984708B1E5
S31500001640002032BD00F018F8601D2062012032BD76
S3150000165038B50446002500E06D1CEDB2485D002853
S31500001660FAD1207923682A46984718B900F004F879
S31500001670012032BD002032BD94F82900281884F8D4
S31500001680290070472DE9F04F804608F1200785B004
S3150000169008F1050038600E4608F11500786091469D
S315000016A000207872DFF8B44313E018B108F10500A2
S315000016B03860164625B17D2000F0A0F901F8010D2D
S315000016C038687968884203D300F096F9002862D01A
S315000016D0761C3078010000F075812528617818BFE6
S315000016E0262809D07B281CBF7D28232802D1002963
S315000016F0E6D0E1E7A178FAE716F8012F252A18BF08
S31500001700262A04D100F07AF901F8012DD8E7262817
S315000017100BD151B101256E2A18BF4E2A06D000F012
S315000017206DF97B2001F8010D00E0002531780020DD
S315000017304E2906D0542923D06E2902D074291FD0F1
S3150000174032E0207859F804BB0028B9D035B13868A2
S315000017507B210170811C39602821417000F04CF911
S31500001760002818D000F03BF9002814D0002DA7D08F
S31500001770386829210170811C39607D2141709FE7FD
S3150000178000F038F9002806D000F029F9002802D028
S3150000179000F032F9002800F07C8000F02FF93A20A2
S315000017A001F8010D761C0120317896F801E0A1F1CF
S315000017B03002D2B2911E05293CD2BEF1640F18BF89
S315000017C0BEF1750F36D159F804CB002301211FFA5B
S315000017D08CFCBEF1640FE24609D15FEA0C4E06D5D9
S315000017E06FEA0C0C0CF1010C01231FFA8CFCBCF106
S315000017F0000F0AD04FF00A0E9CFBFEFC5B1C1FFA82
S315000018008CFCBCF1000FF5D10BE05B1C09E0D7F8AE
S3150000181000E00EF1010EC7F800E04FF0200C0EF8C4
S3150000182001CD9C460CF101035FFA8CFC9445EEDB7E
S31500001830761C00E000213378721E002B00F0BE807B
S31500001840322B18BF342B00F09580482B06D0582B2E
S315000018500FD0632B0FD0642B1FD0682B00F07F8036
S315000018606C2B52D0702B18BF732B0BD0752B14D04A
S31500001870782B76D019E73868411C396059F8041B73
S31500001880017017E700F0B6F818B100F0A8F80028C4
S31500001890F7D1002005B0BDE8F08F002919BF1FFA67
S315000018A08AFA514659F8041B89B229B900F0A6F8FC
S315000018B0302001F8010DFDE60020642B0DD10A044D
S315000018C00BD53B685B1C3B602D22B1F5004F03F83E
S315000018D0012D02D0494289B259B10A2291FBF2F296
S315000018E00A23C0B203FB12110DF80010401C91B27E
S315000018F0F2E70146481EC9B20029DCD0C0B23A68F8
S315000019001DF8001000F065F8F3E759F8041B0029EC
S31500001910CCD0002000290AD53B685B1C3B602D22F9
S31500001920B1F1004F03F8012D01D0494259B10A2205
S31500001930B1FBF2F20A2303FB121102ABC0B2195437
S31500001940401C1146F2E70146481EC9B2002910D0D4
S3150000195002A9C0B23A68095C00F03BF8F3E700F070
S3150000196041F8022259F8041B3868C9B2FFF744FA55
S3150000197038609FE616F8010F682818BF48280BD173
S3150000198000F030F816F8011C386832290AD159F8E7
S31500001990041B042289B2E9E7782818BF5828F1D039
S315000019A0761E87E659F804BB04224FEA1B41FFF76F
S315000019B023FA386004221FFA8BF1D7E701007FF47F
S315000019C074AE76E600F018F800283FF462AF787A35
S315000019D060E7521C3A60303102F8011D70475946E3
S315000019E0404635E6386830210170811C396078211F
S315000019F04170704759F804BB404617E63968491CE0
S31500001A00396070470EB410B5154909788BB00024BB
S31500001A1009B9002008E000F019F801466846FFF70A
S31500001A2031FE00B9012420460CE00EB410B58BB08F
S31500001A3000F00CF8002401466846FFF723FE00B9C3
S31500001A40012420460BB010BC5DF810FB054900913F
S31500001A500DAA054909788DF804107047F16B00202E
S31500001A60F06B0020ED5800000468002062B38B077D
S31500001A7008D0521E11F8013B00F8013B00F024800B
S31500001A808B07F6D1830740F0208000BF103A07D3BA
S31500001A9030B4B1E83810103AA0E83810F9D230BCAA
S31500001AA0530724BFB1E80810A0E8081044BF51F856
S31500001AB0043B40F8043BD20724BF31F8022B20F840
S31500001AC0022B44BF0B7803707047083A07D3B1E87E
S31500001AD00810083A40F8043B40F804CBF7D2530705
S31500001AE0E4E70000890001EB401000F18440006843
S31500001AF0704704F019B980B50121284804F0EAF9C5
S31500001B000421072004F056FE25482649264A01608E
S31500001B1004211160022141620421244A1160816A74
S31500001B2041F00201816201BD1D4804F0A7BEA5284F
S31500001B3000D0704780B500F005F810B11C490020B0
S31500001B40086001BD1648006810F0010018BF0120AA
S31500001B50704738B504460D4600F015F82A4604F0DD
S31500001B600F0101B003462005BDE83040000E04F029
S31500001B70F5BE00F00F010005000E30230D4A584354
S31500001B8010441C30AEE700F00F010005000E3023B4
S31500001B90084A584310440C30A4E70000000508002A
S31500001BA0002005400108030080E200E000E100E0BB
S31500001BB00000A44200A0004080B501217F4804F047
S31500001BC089F97F4901200860002004F085FE012381
S31500001BD004220221052004F0C1FE012003F0AAFF21
S31500001BE000F00FF803F0D7FF04F0ACFF012340220A
S31500001BF074490FF2102004F073FF73490860C00F98
S31500001C0002BD10B501220121042004F08BFC6F48AF
S31500001C106F4C016841F0010101600022C16841F08A
S31500001C208071C16000236B496B4808606B48026095
S31500001C306B4A13600223236015236A4C236000233A
S31500001C400364694B0B65694911604FF48071684AFA
S31500001C501160016841F48071016010BD80B5604873
S31500001C600168C9070ED563490A6822F440620A6012
S31500001C70016849084900016001680902FCD4642032
S31500001C8004F07DFF00220021042004F04BFC5049A3
S31500001C9000200860564908604C49086001BD4B4861
S31500001CA0006800B10120C0B27047D12202704170B5
S31500001CB0090A817050490A78C270501C08700420C5
S31500001CC070472DE9F84FDFF834A1DFF83481044678
S31500001CD0DAF80000005D461D04F0A6FFF6B2002506
S31500001CE000904FF6FF7B18E0A91EC9B22046FFF709
S31500001CF0C0FB0746594604F0C5FF83464D463848A3
S31500001D000068C00709D535480068C00505D5D8F86C
S31500001D1000000028FBD088F80070FFF7C0FFEDB286
S31500001D2028B3B54223DA04F07FFF0099401A80B247
S31500001D30B0F5FA7F1BDC15B95B270125DFE7012D1E
S31500001D4005F1010903D1DAF80000075DD6E7F01EB8
S31500001D50854208BF5F46D1D0B01E854208BF4FEA14
S31500001D601B27CBD0701E8542BED15D27C6E7B54284
S31500001D700CBF00200120BDE8F28F20490968095CEC
S31500001D800429A8BFFFF79DBF0120704710B50E4874
S31500001D90006890B04022694604F08DFE58B1C1B289
S31500001DA06846FFF742FA04462146122005F03DF840
S31500001DB02046FFF7F7F910B010BD00000025080017
S31500001DC01088144234750020F8680020F0ED00E019
S31500001DD0F00004E0B00F00E055CEACC5000E00E008
S31500001DE0800E00E0100004E0FF0300400D0001003B
S31500001DF0040304E0001000E0C97C00200069002014
S31500001E00200000E073696C616273767561727464B8
S31500001E106F776E002DE9F04104460125200094B04D
S31500001E200F4690461E4606D001281DD0102802D027
S31500001E30202819D029E0002103F03CFB0546012C9F
S31500001E4018BF202C08D0022C18BF212C04D0032C3C
S31500001E501CBF222C232C25D1012E0197ADF80C8016
S31500001E6015D14FF4805016E00AA80FF2B8012422CB
S31500001E70FFF70CFE68460AA92422FFF707FE10208A
S31500001E80ADF82400ADF82600D9E701200BE0022EBC
S31500001E9003D14FF44050ADF80A006946204603F0DE
S31500001EA009FB0546E8B214B0BDE8F08103F0C3BBF8
S31500001EB080B503F0CBFBC0B202BD80B503F018FCC1
S31500001EC0C0B202BD70B582B0044600200D4616466B
S31500001ED08DF8000001E0FFF727FE6B4632462946E3
S31500001EE02046FFF7EAFF0028F5D176BD80B503F05E
S31500001EF08AFCC0B202BD80B503F098FDC0B202BD37
S31500001F000CB480B50A46014602AB0448FEF7B4FF9E
S31500001F1002BC00205DF80CFB00000000B159000077
S31500001F20704700000000014000C2010000000010E0
S31500001F300000000003000200030000000000000093
S31500001F40000000001E1E0000002080F3118870476C
S31500001F5042DE704738B504460D4605F0FDFAFFF738
S31500001F60E3FD06F0BCF92946204604F09FFE2B4609
S31500001F7022460FF2CC110120FFF7C2FF2946204668
S31500001F80BDE83440E4E765482DE9F047644D016853
S31500001F902E1D4FF420687165016AB16561490A68B2
S31500001FA0F26549683166416A7166816AB166C16ADD
S31500001FB0F166016B3167806B706796F834004007F5
S31500001FC04CBFF46BB46B06F008FA0022F26484424C
S31500001FD0554A014624BFA2F1200AA245274631658B
S31500001FE005F19003DFF844C1DFF844E118D3A06996
S31500001FF03064E4697464746DC4F30804062C13D168
S31500002000704511D360450FD200884DF64264A04258
S315000020100AD13068586040F201787068986003E031
S3150000202000273764776407464248814202D2014658
S3150000203000E0091D0846904203D20C68B4F1CD3F7A
S31500002040F7D03D49081AB0640021002005EB800452
S31500002050401C0628E167F9D3002003E0C0B205EB77
S315000020608004E167974223D252F8041D7145F9D3E3
S315000020706145F7D2CC07F5D5002405EB8409D9F8DC
S315000020807C90894502D0641C062CF6D3062CE9D137
S31500002090002814BF401E0520E0E7B16F002405EBC1
S315000020A08402641CD2F88070D767052CF7D31960B8
S315000020B00146481EC9B20029EFD1706DC0F3080071
S315000020C0032810D0042811D0052812D0062813D0D2
S315000020D00C2817D0122818D118480068800719D57F
S315000020E040F2025816E040F6012813E040F60228B6
S315000020F010E040F603280DE0B8F5206F0AD140F64F
S31500002100042807E040F6052804E018B13A2838BF4D
S3150000211040F607284046BDE8F087000004ED00E0E1
S315000021200000002000E300E010660020F6730100C6
S31500002130AC0400009C000020106600201C20054016
S315000021400D0A5B4153534552543A25703A25645D56
S315000021500D0A00002DE9F8430446DFF8B8030068CD
S31500002160055D0026E807B14648BF002020D40027B9
S315000021700FF2C84802E04FEA00197F1CFFB2AF42D7
S3150000218011DA39462046FFF774F9F90718F8000006
S3150000219000F00F00EFD549EA0002F1B22046FFF742
S315000021A06DF9761CE9E7F1B22046FEF799FF0120AA
S315000021B0BDE8F28300F12401FF228A700022C27377
S315000021C0C2830A7082730068C86070472DE9F74FB2
S315000021D082B000208DF801000298041D00F124054C
S315000021E008E0607A68720120E07202999DF80000AA
S315000021F000F0A2F903980027002660BB9DF81000A6
S315000022006946FFF755FE002839D0262826D00298C1
S31500002210012100F083F978208DF80000B0461027E0
S3150000222000208DF80100E07A0828E3D8DFE810F0F6
S315000022300A004B008E00E900E9003B014701AC00B3
S315000022409D00D7E7102FCCD09DF80000232836D16B
S315000022500820E072CEE79DF8100020B99DF8010035
S3150000226005B0BDE8F08F0398401C0390401E00782F
S315000022708DF800009DF81000401E8DF81000B04645
S315000022809DF8000067280FD29DF800100FF2AC30C1
S31500002290405C00F0300700F00F08400607D5687A6A
S315000022A0804504DA012602E07B2838BF10279DF816
S315000022B000000A2818BF0D28B2D10120B1E7202F4F
S315000022C098D0032021E1102F1CBF9DF800005F2845
S315000022D000D01EB128780C28F3DA86E7202F18BF25
S315000022E0302F3ED102992A781144002048744FF0CD
S315000022F00009E8680BE01AF8010B00F016F91BF864
S31500002300011B81420DD00198103009F1010901909D
S315000023100198406828B30198D0F800A0029800F10F
S31500002320110B9BF800000028E5D19AF80000002860
S31500002330E9D1A4F81A90E868618B00EB0110806877
S31500002340E0610020A07228700220E072607A687254
S315000023506EB32B202872C5F80480607A6872042058
S3150000236077E70321029800F0D9F89DF801000028CC
S3150000237009D0207B20B1029821688847002020736D
S315000023800298FFF717FF35E79DF8010018B102988C
S3150000239000F0DEF8F4E79DF80000232803D1029848
S315000023A000F0D6F854E7202FEDD00420ADE09DF8DC
S315000023B000002D2818BF2B2806D12872002068603F
S315000023C0607A6872032044E722280AD10120FEF7CA
S315000023D08CFEFF28A8700BD00021FEF781FE052099
S315000023E037E77B28D0D10120FEF77FFEFF28A870B3
S315000023F000F08A800021FEF773FE10206872062026
S3150000240027E73EB16868697A01FB00800421E17222
S315000024106860EFE69DF80010782918BF582904D1A6
S315000024206A6812B910206872E4E6742918BF542944
S3150000243003D1696809B90A20F5E7032854D0202F8B
S3150000244018BF302F50D1E0692B7A6968027840783E
S315000024502D2B08BF4942752A08D134281AD00022EC
S31500002460312814BF4FF6FF70FF200FE0732A08D102
S31500002470312807BF6FF07F027F20274A47F6FF709B
S3150000248004E00421029800F049F86EE79142A8BFE3
S31500002490884206DB0298022200F079F80028F4D080
S315000024A052E70621EEE79DF8000022281ED1029889
S315000024B0002100F084F80028B6D00220C9E69DF875
S315000024C000007D280DD1A878FFF744FE0646029845
S315000024D0012100F074F808B10220E072002EA3D1A9
S315000024E002E0202FA0D00EB907200EE00949A878F7
S315000024F00968095CFF2908BF082006D00122694641
S31500002500FEF720FF00288FD002208DF800009DF8EE
S31500002510001027E7006900200080FFFF027C1AB93F
S315000025200822C27301745FE07047A0F141011A29C5
S315000025303CBF2030C0B2704738B50C4694F82450E2
S31500002540FFF7F3FF61194874681C84F8240031BD55
S3150000255010B50446206A017831B162290CBF012109
S315000025600221405C2A2807D1216BE28B01EB021184
S3150000257020464968884706E00420207420466168A2
S315000025808847002020742046BDE810402CE038B56E
S31500002590837B057BAB4204D10521FFF7BFFF0020FB
S315000025A032BD846844F82310817B491C8173016A1B
S315000025B08B5C2A2B1CBF89180162012032BD10B525
S315000025C000F1200213681B78622B04D00421FFF768
S315000025D0A5FF002010BD9379FF2494710122BDE868
S315000025E0104003EB0121D2E770B500F10804A06AA0
S315000025F0E18A00EB01100026856805E00220295CCF
S315000026002A2918BF2D18761CA179F0B288420BD260
S3150000261028786228F2D12068F6B250F82600C0B2B7
S31500002620FEF7C0FD0120EAE70020A071A07FFF2889
S3150000263003D0FEF7B7FDFF20A07770BD00000000B5
S3150000264000000000002020202020000000000000E4
S3150000265000000000000000000000000020003030F4
S3150000266000000000000000300030000040414243FE
S31500002670444546474849000000000000005A5B5C9C
S315000026805D5E5F101010101010101010101010105A
S31500002690101010101010103000000000005A5B5C83
S315000026A05D5E5F0010B505F0F4FE40F2A174C44013
S315000026B0E0070BD5064C207805F00AFF207805F0D8
S315000026C0A6FF2078BDE8104006F06EB810BD00BF2A
S315000026D0046800201F210FF22C00FFF73BBC10B549
S315000026E002F007FC044602F0F9FB024623460448C2
S315000026F00FF220010078BDE81040FEF7CBBC0000C9
S315000027000468002072657365742D746573742E6396
S315000027100000000052455345543A25702D25700D92
S315000027200A00000010B5DFF834440FF218012078D3
S31500002730FEF7B0FC20780FF21C01BDE81040FEF752
S31500002740A9BC0000286C6974746C6520656E6469A8
S31500002750616E00002C20616C6C20646174612072D3
S315000027606570726573656E74656420617320627945
S315000027707465206172726179290D0A000178A1F1F0
S3150000278030030A2B0AD3A1F14103062B38BF373990
S3150000279004D3A1F16102062A03D257390907090EAB
S315000027A000E000214078A0F130030A2B02D2401845
S315000027B030380CE0A0F14103062B02D2401837381E
S315000027C005E0A0F16102062A03D240185738C0B2CC
S315000027D070470809704710B506F0ECFA02001AD0E7
S315000027E0DE4C2078042A08BF0FF22C0108D0062AF6
S315000027F008BF0FF2700103D0072A04D10FF2A80117
S31500002800FEF748FC03E00FF2E801FEF743FC2078F0
S315000028100FF2101191E710BD68616C537461636B20
S31500002820496E6974546F6B656E73204641494C4519
S3150000283044207769746820454D4245525F454550AE
S31500002840524F4D5F4D46475F535441434B5F56458C
S315000028505253494F4E5F4D49534D415443480D0A1B
S315000028600000000068616C537461636B496E6974A3
S31500002870546F6B656E73204641494C454420776919
S31500002880746820454D4245525F454550524F4D5F55
S315000028904D46475F56455253494F4E5F4D49534D3E
S315000028A0415443480D0A000068616C537461636BC0
S315000028B0496E6974546F6B656E73204641494C4589
S315000028C044207769746820454D4245525F4545501E
S315000028D0524F4D5F535441434B5F56455253494FF8
S315000028E04E5F4D49534D415443480D0A00000000C8
S315000028F068616C537461636B496E6974546F6B6580
S315000029006E73204641494C454420776974682045DA
S315000029106D6265725374617475733A2025580D0A99
S3150000292000000000546F6B656E7320617265207342
S3150000293074696C6C20616374697665207768656E6E
S31500002940207573696E672074686973206170706C96
S3150000295069636174696F6E2E0D0A00002DE9F04FF0
S31500002960C1B080687D4F0568FFF7DCFEA8B206F0AF
S31500002970F9FB0446A8B206F076FA8046A8B206F03D
S31500002980B6FC8346002C38781ABF4FF6FF7188458F
S315000029900FF27C212CD02346AAB20FF21411FEF7B7
S315000029A079FB00250FF2AC190FF2AC1A0AE01DF8FC
S315000029B0062038784946FEF76DFB761CF6B2A6422D
S315000029C0F5DB6D1CEDB25D4510DABBF1010F234658
S315000029D003D17F2200F011F806E02A4600F00DF838
S315000029E038785146FEF756FB0026E7E73878514619
S315000029F0FEF750FB41B0BDE8F08F4146684606F051
S31500002A00FCB92DE9F047C0B0806804684768534EAA
S31500002A10FFF788FEA0B206F0A5FB8146A0B206F03D
S31500002A2022FA8046A0B206F062FC0546B9F1000F14
S31500002A3030781ABF4FF6FF7188450FF2D41131D0A6
S31500002A40A5F1010A15B1FFB2BA450BDA0FF2CC11A6
S31500002A50FEF720FB30780FF2FC1153460022FEF7FA
S31500002A6019FB21E04B46A2B20FF24401FEF712FB1E
S31500002A70012D08BF7F274B463A46FFF7BEFF36A417
S31500002A8030782146FEF706FB00270FF2C80804E05F
S31500002A901DF8072000F062FE7F1CFFB230784F451C
S31500002AA0F6DB2146FEF7F6FA40B0BDE8F0870000F7
S31500002AB05B2532785D28256429203D002DE9F04705
S31500002AC0C2B08068DFF8B07C0668FFF72BFEB0B2B4
S31500002AD006F048FB8146B0B206F0C5F98246B0B2B0
S31500002AE006F005FC0646B9F1000F1CBF4FF6FF7055
S31500002AF0824505D138780FF21811FEF7CBFA28E097
S31500002B0000240FF2741803E0504606F087F9641C9F
S31500002B10B4421EDA002513E016FB09F0431E38788E
S31500002B2009FB04524146FEF7B5FA38780322694696
S31500002B30FFF7C8F96846FFF721FE01A948556D1C45
S31500002B404D45E9DB012E4B4601AA0CBF7F21E1B2C0
S31500002B50DAE75AE0202558000D0A00000468002034
S31500002B602DE9F047C2B0806807684468DFF8085C62
S31500002B70FFF7D8FDB8B206F0F5FA8046B8B206F00F
S31500002B8072F98146B8B206F0B2FB0746B8F1000FFB
S31500002B9028781CBF4FF6FF71894504D10FF27001EA
S31500002BA0FEF778FA31E07E1E17B1E4B2A6420BDAE0
S31500002BB00FF26801FEF76EFA28780FF29801334695
S31500002BC00022FEF767FA20E000260FF2AC0A11E0B9
S31500002BD02878A8F1010332465146FEF75BFA2878B9
S31500002BE003226946FFF76EF96846FFF7C7FD01A99C
S31500002BF08855761C4645EBDB012F08BF7F244346EC
S31500002C0001AA2146484606F009F942B0BDE8F08718
S31500002C106E6F7420666F756E640D0A004552524FD2
S31500002C20523A204465736972656420696E646578FA
S31500002C30206973206F7574206F662072616E6765F8
S31500002C4020666F72207468697320746F6B656E0DF1
S31500002C500A0000002020202020202056616C696494
S31500002C602072616E6765206973202558207468722A
S31500002C70752025580D0A000064617461206279741C
S31500002C80655B2564206F662025645D3A00000000C0
S31500002C902DE9F043ADF5017DDFF8DC4A0FF6583833
S31500002CA0FFF740FD20784EF2455200F057FD2078A0
S31500002CB00FF64C31FFF71AF9DFF8C00A00F03AFDBB
S31500002CC000270FF2883902A84946C25D00F091FD3F
S31500002CD07F1C082FF7D3DEA700F049FD20784CF2C1
S31500002CE0563200F03BFD20780FF62831FFF7FEF84C
S31500002CF00125DFF88C0A00F029FD00F032FD9DF871
S31500002D00012000F030FD6D1EF3D100F030FD20787B
S31500002D104EF2453200F022FD20780FF60C31FFF717
S31500002D20E5F8DFF8600A00F005FD02A800F05FFD97
S31500002D306D1C082DF9D300F01AFD20784EF673525B
S31500002D4000F00CFD20780FF6F421FFF7CFF8DFF83E
S31500002D50380A00F0F5FC002504A800F048FD6D1CBB
S31500002D60102DF9D300F003FD20784CF24E2200F02E
S31500002D70F5FC20780FF6D021FFF7B8F8DFF80C0A3B
S31500002D8000F0DEFC002504A800F031FD6D1C102DBE
S31500002D90F9D300F0ECFC20784CF6441200F0DEFC8F
S31500002DA020780FF6B421FFF7A1F80125DFF8E00936
S31500002DB000F0CCFC00F0D5FC9DF8012000F0D3FC1F
S31500002DC06D1EF3D100F0D3FC20784DF2430200F0E3
S31500002DD0C5FC20780FF69021FFF788F80125DFF86B
S31500002DE0B40900F0B3FC00F0BCFC9DF8012000F033
S31500002DF0BAFC6D1EF3D100F0BAFC20784CF24312F7
S31500002E0000F0ACFC20780FF67021FFF76FF8DFF8C2
S31500002E10880901880223EAB2FFF7F0FD00F0A1FC61
S31500002E209DF8012000F09FFC6D1C142DEFDB00F0D7
S31500002E309EFC20784DF2463200F090FC20780FF68A
S31500002E404821FFF753F80125DFF8500900F07EFC12
S31500002E5000F087FC9DF8012000F085FC6D1EF3D183
S31500002E6000F085FC20784CF2433200F077FC2078A5
S31500002E700FF62C21FFF73AF80125DFF8240900F0B8
S31500002E8065FC00F06EFC9DF8012000F06CFC6D1EE8
S31500002E90F3D100F06CFC20784CF6535200F05EFC47
S31500002EA020780FF61021FFF721F8DFF8F80800F078
S31500002EB041FC02A800F09BFC6D1C082DF9D300F024
S31500002EC056FC20784CF2543200F048FC20780FF67D
S31500002ED0F811FFF70BF80125DFF8CC0800F036FCF7
S31500002EE000F03FFC9DF8012000F03DFC6D1EF3D183
S31500002EF000F03DFC20784DF6540200F02FFC2078BF
S31500002F000FF6D011FEF7F2FF0125DFF8A00800F05A
S31500002F101DFC00F026FC9DF8012000F024FC6D1E2F
S31500002F20F3D100F024FC20784DF2570200F016FC95
S31500002F3020780FF6AC11FEF7D9FFDFF8740800F021
S31500002F40FFFB04A800F053FC6D1C102DF9D300F014
S31500002F500EFC20784CF2573200F000FC20780FF679
S31500002F609411FEF7C3FFDFF84C0800F0DDFB0025E7
S31500002F7000F03CFC6D1C042DFAD300F0F8FB207821
S31500002F804CF6575200F0EAFB20780FF67C11FEF75C
S31500002F90ADFFDFF8240800F0C7FB002500F026FC93
S31500002FA06D1C042DFAD300F0E2FB20784DF2575247
S31500002FB000F0D4FB20780FF66411FEF797FFDFF8D8
S31500002FC0FC0700F0B1FB002500F010FC6D1C042D81
S31500002FD0FAD300F0CCFB20784CF2574200F0BEFB4F
S31500002FE020780FF64C11FEF781FFDFF8D40700F0CA
S31500002FF09BFB002500F0FAFB6D1C042DFAD300F0B4
S31500003000B6FB20784CF24B2200F0A8FB20780FF696
S315000030103411FEF76BFFDFF8AC0700F091FB0025DB
S3150000302004A800F0E4FB6D1C102DF9D300F09FFB03
S3150000303020784CF2423200F091FB20780FF61C11FA
S31500003040FEF754FFDFF8800704E000BF2025580094
S315000030500D0A000001885C237F226AA805F0CDFED8
S3150000306000256AA800F0C3FB6D1C5C2DF9D300F0A7
S315000030707EFB20784CF6431200F070FB20780FF6AA
S31500003080EC01FEF733FFDFF84407018814237F22A3
S3150000309000F041FB002508A800F0A9FB6D1C142DCB
S315000030A0F9D300F064FB20784DF2433200F056FB72
S315000030B020780FF6D001FEF719FF0125DFF810077B
S315000030C000F044FB00F04DFB9DF8012000F04BFBA7
S315000030D06D1EF3D100F04BFB20784DF2423200F02A
S315000030E03DFB20780FF6B001FEF700FFDFF8E4069F
S315000030F000F026FB04A800F07AFB6D1C102DF9D316
S3150000310000F035FB20784CF2453200F027FB2078A2
S315000031100FF6A001FEF7EAFEDFF8BC06018894234D
S315000031207F2245A805F069FE002545A800F05FFB53
S315000031306D1C942DF9D300F01AFB20784DF258320D
S3150000314000F00CFB20780FF68001FEF7CFFEDFF8CB
S315000031508C0600F0E3FA002516A800F048FB6D1C6B
S31500003160202DF9D300F003FB20784DF2593200F000
S31500003170F5FA20780FF66C01FEF7B8FEDFF8600668
S3150000318000F0CCFA002516A800F031FB6D1C202DAE
S31500003190F9D300F0ECFA20784CF64B2200F0DEFA78
S315000031A020780FF65C01FEF7A1FEDFF838060188ED
S315000031B022237F223CA805F020FE00253CA800F033
S315000031C016FB6D1C222DF9D300F0D1FA20784BF2B4
S315000031D0346200F0C3FA20780FF63801FEF786FE57
S315000031E0DFF8040600F0A6FA002502A800F0FFFAB0
S315000031F06D1C082DF9D300F0BAFA20784FF601724B
S3150000320000F0ACFA20780FF61801FEF76FFE0125E4
S3150000321002237F220021FFF7F1FB00F0A2FA9DF8BE
S31500003220012000F0A0FA6D1EF2D100F0A0FA20787D
S315000032304EF2231200F092FA20780FF2FC71FEF79C
S3150000324055FE04237F22012100F062FA00F0CEFA37
S315000032506D1C042DFAD300F08AFA20784EF27542DE
S3150000326000F07CFA20780FF2E871FEF73FFE11239A
S315000032707F22022100F04FFA002508A800F0B7FAD5
S315000032806D1C112DF9D300F072FA20784EF26322EC
S3150000329000F064FA20780FF2CC71FEF727FE0423C3
S315000032A07F22032100F034FA002500F09FFA6D1CFE
S315000032B0042DFAD300F05BFA20784EF2635200F048
S315000032C04DFA20780FF2B071FEF710FE04237F222C
S315000032D0042100F01DFA002500F088FA6D1C042D6B
S315000032E0FAD300F044FA20784EF2621200F036FA71
S315000032F020780FF29871FEF7F9FD012502237F224F
S315000033000521FFF77BFB00F02CFA9DF8012000F069
S315000033102AFA6D1EF2D100F02AFA20784EF679329A
S3150000332000F01CFA20780FF27C71FEF7DFFD112306
S315000033307F22062100F0EFF908A800F058FA6D1C6C
S31500003340112DF9D300F013FA20784EF6646200F0DE
S3150000335005FA20780FF25871FEF7C8FD10237F2278
S31500003360072104A805F049FD002504A800F03FFA4E
S315000033706D1C102DF9D300F0FAF920784EF22412C4
S3150000338000F0ECF920780FF23871FEF7AFFD1A2342
S315000033907F22082135A805F030FD002535A800F06C
S315000033A026FA6D1C1A2DF9D300F0E1F920784EF2B9
S315000033B0251200F0D3F920780FF21871FEF796FD6A
S315000033C008237F22092102A805F017FD002502A87F
S315000033D000F00DFA6D1C082DF9D300F0C8F920781D
S315000033E04EF2261200F0BAF920780FF20471FEF7B9
S315000033F07DFD0A237F220A210DA805F0FEFC00258B
S315000034000DA800F0F4F96D1C0A2DF9D300F0AFF900
S3150000341020784EF2271200F0A1F920780FF2E4612D
S31500003420FEF764FD012502237F220B21FFF7E6FA52
S3150000343000F097F99DF8012000F095F96D1EF2D184
S3150000344000F095F920784EF2281200F087F92078DE
S315000034500FF2D061FEF74AFD18237F220C2110A837
S3150000346005F0CBFC10A800F0C2F96D1C182DF9D39D
S3150000347000F07DF920784EF2102200F06FF92078E6
S315000034800FF2BC61FEF732FD00F071F920784EF2C2
S31500003490112200F063F920780FF2C061FEF726FDD5
S315000034A000F065F920784EF2122200F057F92078E4
S315000034B00FF2C861FEF71AFD00F059F920784EF2B6
S315000034C0132200F04BF920780FF2D461FEF70EFDBF
S315000034D000F04DF920784EF2142200F03FF92078E2
S315000034E00FF2E061FEF702FD00F041F920784EF29E
S315000034F0152200F033F920780FF2F061FEF7F6FCA2
S3150000350000F035F920784EF2202200F027F92078D5
S315000035100FF2F861FEF7EAFC04237F22132100F084
S31500003520F7F8002500F062F96D1C042DFAD300F0BF
S315000035301EF920784EF2212200F010F920780FF2C1
S31500003540F061FEF7D3FC00F012F920784EF27422F7
S3150000355000F004F920780FF20471FEF7C7FC00F0C2
S3150000356006F920784FF60D7200F0F8F820780FF281
S315000035700071FEF7BBFC00250B23EAB216210DA84D
S3150000358005F03BFC00260DA84946825D00F031F9A6
S31500003590761C0B2EF7D36D1C062DEDDB00F0E7F83D
S315000035A020784EF2564200F0D9F820780FF2D46116
S315000035B0FEF79CFC00F0DBF820784FF4654200F043
S315000035C0CDF820780FF2CC61FEF790FC00F0CFF832
S315000035D020784EF2035200F0C1F820780FF2CC6149
S315000035E0FEF784FC00250123EAB219210DF1020041
S315000035F005F003FC9DF8022000F0B5F86D1C062DC1
S31500003600F1DB00F0B4F820784EF2015200F0A6F893
S3150000361020780FF2B461FEF769FC10237F221A218D
S3150000362004A805F0EAFB002504A800F0E0F86D1CEC
S31500003630102DF9D300F09BF820784EF2025200F0DC
S315000036408DF820780FF29061FEF750FC28237F2238
S315000036501B212BA805F0D1FB00252BA800F0C7F8ED
S315000036606D1C282DF9D300F082F820784EF25822EE
S3150000367000F074F820780FF27461FEF737FC12231D
S315000036807F221C2100F047F8002508A800F0AFF8BB
S315000036906D1C122DF9D300F06AF820784EF25922EB
S315000036A000F05CF820780FF25461FEF71FFC00254D
S315000036B03423EAB21D211EA805F09FFB00261EA892
S315000036C04946825D00F095F8761C342EF7D36D1CC2
S315000036D0052DEDDB00F04BF820784EF25A2200F073
S315000036E03DF820780FF22C61FEF700FC00F03FF861
S315000036F020784EF25B2200F031F820780FF2286134
S31500003700FEF7F4FB00F033F80DF5017DBDE8F0831C
S3150000371001A805F072BB08A805F06FBB018820233D
S315000037207F2216A805F069BB018804237F2201A821
S3150000373005F063BB018808237F2202A805F05DBB64
S31500003740018810237F2204A805F057BB01880223B5
S315000037507F22684605F051BBC25D20784146FDF7E1
S3150000376099BC9DF8002020784946FDF793BC207847
S315000037703946FDF78FBC0000046800207CAD0100CF
S315000037807EAD010080AD010082AD010084AD010077
S3150000379086AD010088AD01008AAD01008CAD010047
S315000037A08EAD010090AD010092AD010094AD010017
S315000037B096AD010098AD01009AAD01009CAD0100E7
S315000037C09EAD0100A0AD0100A2AD0100A4AD0100B7
S315000037D0A6AD0100A8AD0100AAAD0100ACAD010087
S315000037E0AEAD0100B0AD0100B2AD010001A8494681
S315000037F0425D2078FDF74EBC5B2532585D20000007
S315000038004D46475F454D4245525F4555495F363403
S31500003810000000004D46475F435553544F4D5F56D9
S31500003820455253494F4E00004D46475F435553544A
S315000038304F4D5F4555495F36340000004D46475FA2
S31500003840535452494E4700004D46475F424F41523E
S31500003850445F4E414D4500004D46475F4D414E5534
S31500003860465F4944000000004D46475F5048595F97
S31500003870434F4E46494700004D46475F4153485F18
S31500003880434F4E46494700004D46475F53594E54F5
S31500003890485F465245515F4F464653455400000027
S315000038A04D46475F4343415F5448524553484F4C4A
S315000038B0440000004D46475F455A53505F53544FEE
S315000038C052414745000000004D46475F4354554E60
S315000038D0450000004D46475F584F5F54554E450022
S315000038E04D46475F4C4F434B424954535F504C57EC
S315000038F0000000004D46475F4C4F434B424954532E
S315000039005F434C57300000004D46475F4C4F434BDA
S31500003910424954535F4D4C57000000004D46475FE7
S315000039204C4F434B424954535F554C5700000000DF
S315000039304D46475F4C4F434B424954535F444C57A7
S31500003940000000004D46475F424F4F544C4F4144E4
S315000039505F4145535F4B4559000000004D46475FA8
S3150000396043424B455F444154410000004D46475F8A
S31500003970494E5354414C4C4154494F4E5F434F447A
S31500003980450000004D46475F53454355524954593B
S315000039905F434F4E464947004D46475F53454355A3
S315000039A052455F424F4F544C4F414445525F4B4541
S315000039B0590000004D46475F43424B455F3238335E
S315000039C04B315F44415441004D46475F5349474E92
S315000039D045445F424F4F544C4F414445525F4B451F
S315000039E0595F58004D46475F5349474E45445F422D
S315000039F04F4F544C4F414445525F4B45595F590018
S31500003A004D46475F5448524541445F4A4F494E5FD1
S31500003A104B4559004D46475F4555495F36340000D2
S31500003A20535441434B5F4E56444154415F564552B1
S31500003A3053494F4E00000000535441434B5F4150E1
S31500003A40535F4652414D455F434F554E54455200D4
S31500003A50535441434B5F414C5445524E4154455F8C
S31500003A604B455900535441434B5F424F4F545F43BC
S31500003A704F554E5445520000535441434B5F4E4FF1
S31500003A804E43455F434F554E5445520053544143B0
S31500003A904B5F414E414C595349535F5245424F4F3C
S31500003AA054000000535441434B5F4B4559530000AB
S31500003AB0535441434B5F4E4F44455F44415441008C
S31500003AC0535441434B5F54525553545F43454E54F0
S31500003AD045520000535441434B5F4E4554574F5295
S31500003AE04B5F4D414E4147454D454E540000000049
S31500003AF0535441434B5F504152454E545F494E46E5
S31500003B004F000000535441434B5F504152454E54C1
S31500003B105F4144444954494F4E414C5F494E464FDC
S31500003B2000000000535441434B5F4D554C54495FD0
S31500003B305048595F4E574B5F494E464F00000000B4
S31500003B404D554C54495F4E4554574F524B5F535455
S31500003B5041434B5F4B455953000000004D554C54B3
S31500003B60495F4E4554574F524B5F535441434B5F49
S31500003B704E4F44455F444154410000004D554C545E
S31500003B80495F4E4554574F524B5F535441434B5F29
S31500003B90414C5445524E4154455F4B455900000037
S31500003BA04D554C54495F4E4554574F524B5F5354F5
S31500003BB041434B5F54525553545F43454E5445520F
S31500003BC0000000004D554C54495F4E4554574F5226
S31500003BD04B5F535441434B5F4E4554574F524B5FD7
S31500003BE04D414E4147454D454E5400004D554C54B0
S31500003BF0495F4E4554574F524B5F535441434B5FB9
S31500003C00504152454E545F494E464F004D554C5417
S31500003C10495F4E4554574F524B5F535441434B5F98
S31500003C204E4F4E43455F434F554E5445520000009C
S31500003C304D554C54495F4E4554574F524B5F535464
S31500003C4041434B5F504152454E545F4144444954B1
S31500003C50494F4E414C5F494E464F00005354414335
S31500003C604B5F42494E44494E475F5441424C4500E2
S31500003C70535441434B5F4348494C445F5441424C83
S31500003C8045000000535441434B5F4B45595F544137
S31500003C90424C4500535441434B5F434552544946B9
S31500003CA049434154455F5441424C450053544143B6
S31500003CB04B5F4144444954494F4E414C5F43484948
S31500003CC04C445F4441544100535441434B5F5A4C6A
S31500003CD04C5F444154410000535441434B5F5A4C9E
S31500003CE04C5F534543555249545900005354414380
S31500003CF04B5F47505F4441544100000053544143D9
S31500003D004B5F47505F50524F58595F5441424C45A4
S31500003D1000000000535441434B5F47505F53494EE8
S31500003D204B5F5441424C4500535441434B5F47500F
S31500003D305F494E434F4D494E475F464300000000E2
S31500003D4010B50446002003F034FE002003F04AFEBE
S31500003D5001F05CFF012003F067FD204605F077FDCA
S31500003D602046BDE8104000F021BF80B5022100F0DA
S31500003D702DF9009805F0BCFE01BD8068DFF8DC1364
S31500003D800068087008780228A8BF0FF2104305DA09
S31500003D90002814BF0FF210430FF21443DFF8C003DC
S31500003DA00FF2E832D0F8F012FFE70FF2D430FDF749
S31500003DB03CBE0000F8B503F0AEFCDFF8A8430FF2F6
S31500003DC0844204EB8000C368DFF89403D0F8301314
S31500003DD00FF25440FDF729FEDFF88C03006805F06A
S31500003DE0BFFE0528054614D8DFE800F003100E09CB
S31500003DF00C060FF208420EE00FF2F4320BE00FF25F
S31500003E00E43208E073A206E073A204E00FF2CC32BB
S31500003E1001E00FF2F4320FF208410FF2FC300FF21C
S31500003E20F037FDF702FE0026F6B254F8261005F02C
S31500003E3001023846FDF7F9FD761C6D08F0B203283D
S31500003E40F2D3BDE8F24090E038B50446A0680568B4
S31500003E50DFF80C03D0F840130FF2F430FDF7E5FD60
S31500003E60EDB215B1012D07D00CE00FF2EC30FDF7E5
S31500003E70DCFD03F071FB05E00FF2F030FDF7D5FD38
S31500003E8003F047FC0FF2F430FDF7CFFD2046BDE806
S31500003E9032408FE7F0B506460C4685B0204603F063
S31500003EA0EFF80746204603F0E1F905460FF24842CF
S31500003EB03FB9234606F111010FF22440FDF7B5FD87
S31500003EC010E0039723460FF26440029006F11101B9
S31500003ED004F01F0001900FF24C4000900FF22040BA
S31500003EE0FDF7A3FDA5420FF2C83605D02A460FF20C
S31500003EF044413046FDF799FD204603F09FF90246FE
S31500003F0012F1010F0FF27C300FF2803108BF0FF271
S31500003F10843210D012B90FF284320CE0DFF84C0272
S31500003F20DFF84812B2FBF0F001FB102131B902466E
S31500003F300FF284313046FDF778FD13E04FF47A71C5
S31500003F40DFF82C02B2FBF1F14FF47A7303FB112375
S31500003F500078002B06BF0A460FF264310FF270316B
S31500003F60FDF798F805B0BDE8F04068A0FDF75DBD27
S31500003F7010B5044603F024F901462046BDE810407A
S31500003F8088E738B5044603F0C6FB0500DFF8D00124
S31500003F90D0F810130FF2A43018BF0125FDF745FD28
S31500003FA003F0B7FBA0680068C0B203F0B8F8024699
S31500003FB00FF220210FF2B830FDF737FD0DB103F0F7
S31500003FC0CBFA2046BDE83240D2E70121684602F02E
S31500003FD08DBF0000547800005278000010B50446EA
S31500003FE003F0CAFD04F11101BDE81040034659A2D1
S31500003FF00FF28430FDF719BD2DE9F84F06468946C4
S31500004000154603F088FB040018BF012403F0AAFB41
S31500004010002E4FF07F0A6FF07F0B4FF000088DF8EF
S31500004020000008D10126022003F0A0FB642002F064
S31500004030A6FD374612E0F6D576420020F4E780204A
S3150000404002F09DFD03F0A2FC83455246B8BF8346AD
S3150000405082469245C8BF924680447F1E012FEEDA03
S315000040609DF8000003F082FB0CB103F075FAB9F17C
S31500004070000F18BF89F800A015B198FBF6F028705C
S315000040805846BDE8F28F10B500F01AF804F1110198
S31500004090BDE8104003460FF200320FF2E820FDF7AC
S315000040A0C4BC10B500F00CF803F0FDF804F11101E2
S315000040B0BDE81040034628A20FF2E420FDF7B5BC88
S315000040C0044600220021012096E710B5044686B07A
S315000040D0A068006804AA0DF11101FFF78DFF039097
S315000040E004F111010FF200309DF911300FF2E822B0
S315000040F002909DF9100001900FF2E42000900FF25B
S31500004100BC20FDF792FC06B010BD00007D0D0A0034
S3150000411080B503F0A7FD034611480FF2E422D0F85C
S3150000412090130FF2CC20BDE80050FDF77EBC10B511
S3150000413004460B48D0F8A0130FF2D420FDF775FC07
S31500004140A068006840B203F05CFD2046BDE8104060
S31500004150DEE700004343410045440000F46B0020C5
S31500004160B89701003C680020706D002040420F00A7
S315000041700468002081680968C9B28BE60000000067
S315000041807B264E202674737D0D0A00005045522072
S3150000419054657374204D6F6465000000656E61623E
S315000041A06C65642D6E657700656E61626C65640092
S315000041B064697361626C65640000000061736C651C
S315000041C0657000006177616B65000000656E657261
S315000041D067790000737461747573000049646C65D7
S315000041E000000000527841637469766500000000A3
S315000041F0547841637469766500000000496E616316
S315000042007469766500000000556E6B6E6F776E0000
S315000042102026746800000000202674730000000049
S3150000422052665374617465007B264E205261646940
S315000042306F20706F776572207374617465202674C1
S3150000424073000000706F7765722073746174650087
S315000042507B264E2000000000536C656570696E6712
S3150000426020726164696F2E2E2E00000057616B6903
S315000042706E6720726164696F2E2E2E00646F6E6504
S315000042807D0D0A00202674700000000066726571BC
S3150000429000000000696C6C6567616C0050657252C5
S315000042A0616D526164696F436F6E666967000000F5
S315000042B02026747500000000667265714D487A000C
S315000042C0207B667265714B487A3A256C7D0000004A
S315000042D0207B66726571487A3A256C7D0000000085
S315000042E07B264E20526164696F206368616E6E653D
S315000042F06C202674680000006368616E6E656C0051
S315000043007B264E20526164696F206368616E6E651C
S315000043106C20267468202826746420696E20267412
S31500004320642900006368616E0000000070616765C3
S31500004330000000005074694368616E007B264E20C1
S3150000434053657474696E67206368616E6E656C2070
S31500004350616E642063616C6962726174696E672064
S31500004360286173206E6565646564292E2E2E000013
S315000043702674687D0D0A00007B264E202674647D17
S315000043800D0A00007B264E20267464205B64426D75
S315000043905D7D0D0A000000005253534900000000E5
S315000043A07B264E20267464205B3830322E31352E23
S315000043B03420756E6974735D7D0D0A007B264E2070
S315000043C02674642026746420267464205B64426D1F
S315000043D05D7D0D0A000000006D696E525353490061
S315000043E061766752535349006D61785253534900C1
S315000043F07B264E202674642064426D7D0D0A0000E3
S31500004400434341205468726573686F6C6400000012
S315000044107B264E7D0D0A000080B5002003F0F2FDDC
S31500004420BDE8014005F088BA38B5DFF83841DFF855
S315000044303811607DC870607B18B105F0BDFB00289F
S3150000444008D505F0B9FB40054CBF0320012000212B
S3150000445005F006FCE06901224FF47A7105F0ABFC29
S31500004460050003D000F05DF901202075284632BD15
S31500004470DFF8F010C861887DDFF8EC100871D3E72B
S3150000448070B58EB00C460CA805F08CFC054605F000
S31500004490B9FC064605F082FCBDF83610DFF8CC20E4
S315000044A00B9103460FF244010FF248000A9103955F
S315000044B00196BDF8341009910FF280010891BDF8FC
S315000044C0321007910FF27C010691BDF8301005916C
S315000044D00FF2780104910FF27C0102910FF27C0138
S315000044E000912146FDF7A1FA0EB070BD7375737089
S315000044F0000000007B264E20267475202674326844
S31500004500202674642F31303025250D0A202026748C
S31500004510642F3130302525202674642F3130302524
S3150000452025202674642F3130302525202674642FEB
S3150000453031303025257D0D0A000000006372697454
S31500004540000000006C696D690000000074616C6B0E
S315000045500000000075736564000000006163636518
S315000045606C00000058680020D070002070450000E4
S315000045706D6F6465000000002DE9F04B0646894624
S31500004580904605F031FCDFF8C845070918BF7F1EC5
S31500004590A07066708C2E18BF03F0CDF830000FF2B5
S315000045A02C1BDFF82C560CD0402E1CD0882E18BFA2
S315000045B0892E36D08C2E21D08D2E1DD08F2E09D04F
S315000045C024E02069401C206100F0A6F848B34FF4AF
S315000045D0A46123E0A069401CA06100F09DF800B32F
S315000045E040F225511AE0E069401CE06100F094F8C1
S315000045F0B8B140F2315111E005F0F3FB6069401C9F
S315000046006061287D68B14FF4A76107E032460FF27A
S31500004610D4010120FDF774FC40F249515846FDF7DC
S3150000462099FC402E84F80080C4F8289025D1E078C3
S31500004630022822DB401EE0702089401C208105F004
S31500004640BBFA00F08020B0F1004F01D000F069F80D
S3150000465005F0B2FA000408D505F0AEFA40054CBFE5
S3150000466003200120002105F0FBFAE86900224FF43F
S315000046707A7105F0A0FB060026D000F052F8300053
S3150000468018BF8F2E1ED0207902281BDB401E2071FA
S315000046906089401C6081DFF85805007802280ADB33
S315000046A0E969DFF85005814205D10178092902DB65
S315000046B0C178491CC170688B02F061FABDE8F04B05
S315000046C0FFF7B2BE01202875BDE8F08B7068792D22
S315000046D0636F6D6D6F6E2D74782D746573742E63B4
S315000046E000000000656D626572526164696F547204
S315000046F0616E736D6974436F6D706C657465497333
S315000047007243616C6C6261636B2073746174757360
S315000047103A20307825780000206A38182062287DF3
S3150000472070470021002005F09BBA80B502F04CFDD1
S3150000473000F010F8D0F8801406E080B502F057FDBE
S3150000474000F008F8D0F8A0140FF2EC40BDE80050D5
S31500004750FDF76BB90346DFF8A4040FF2E842704791
S3150000476030B5044683B0A068056868B202F03BFD28
S3150000477001906BB200F026F8D0F890140FF2D040FA
S31500004780FDF753F9A8A0FDF750F92046BDE83E40D5
S31500004790CBE730B5044683B0A068056828B202F0BE
S315000047A02BFD01902BB200F00DF8D0F8B0140FF2EB
S315000047B0A040FDF73AF99CA0FDF737F92046BDE881
S315000047C03E40BAE70FF268400FF294420090DFF8DD
S315000047D02C047047000000B5DFF824140FF2A44241
S315000047E00B8B0FF2B84183B00091019300F11101D8
S315000047F00FF27C4031E18168DFF8042409681183F7
S31500004800E9E72DE9F14F84B0806800880190012422
S31500004810401E8041C00F029002F07DFF00B10120D2
S315000048208DF801004FF0000BDFF82453DFF8A0836A
S3150000483068697C4FADF80200D9460198012813D06B
S3150000484000F006F93878029921B10FF27041FCF7B1
S3150000485021FC03E0019A78A1FCF71CFCB8F81820AB
S3150000486000F0F1F800F0EAF8DFF88863DFF894A3C7
S31500004870802251463046FDF7F9F8DFF874030078D8
S315000048800228A4BF3078092819DB9AF8011001F034
S31500004890200141F0C1017170A1461821B170301894
S315000048A0029919B100F805BC002004E0019900F84E
S315000048B0051C019800123178711801F8040CDA46CB
S315000048C011E002F0B1F9834698F8140048B9FFF7F1
S315000048D0A3FD02F0A9F9A0EB0B0080B2B0F5FA6FC8
S315000048E0F2D995F801B0029810B9019882454FDACD
S315000048F000208DF8000069463878FDF7D9FA9DF852
S315000049000010652944D03878642906D100F08EF865
S31500004910049800F11101002007E0442907D100F0B6
S3150000492085F8049800F111010120FFF7A9FD0AF1AD
S3150000493001001FFA80FADFF8D002007820B102F0F9
S31500004940E3FA08B105F060FAB8F8180002F017F9B2
S31500004950DFF89C02007880B1B9F1000F18BFF4703F
S315000049603078042809DB301800F8034C201231781F
S315000049707118641C01F8020CA4B2002088F8140017
S31500004980012068703046FFF773FD0028834698D0F3
S3150000499038780FF24C315246FCF77CFB98F80D0044
S315000049A040B1A88ABDF80210421A38780FF24C318D
S315000049B0FCF770FB38780FF268315A46FCF76AFB51
S315000049C0DFF848020FF2743102883878FCF762FB90
S315000049D038780FF28831FCF75DFB297838780029A2
S315000049E014BF0FF294310FF29831FCF753FB03F02A
S315000049F0F7F828B16A6A38780FF28C31FCF74AFB6F
S31500004A00AA6A38780FF2AC31FCF744FB642002F056
S31500004A10B6F89DF8010008B102F09EFD05B0BDE8AC
S31500004A20F08F0000046800200D0A000052460FF2C5
S31500004A30B021FCF72FBB00002575000038780FF277
S31500004A40E411FCF727BB38780FF27C21FCF722BB78
S31500004A5038780FF26021FCF71DBBFCF7E6FF07BDB7
S31500004A6038B500F03DF800F034F818BF0124FCF723
S31500004A7011FB02F04EFE03F042F802E0287800F047
S31500004A800BF800F004F8F9D103F04AF81DE09DF8A0
S31500004A9000006528704720786946FDF709BA38B5E1
S31500004AA000F01EF800F015F818BF0124FCF7F2FA22
S31500004AB002F02FFE03F042F802E02878FFF7ECFF41
S31500004AC0FFF7E5FFF9D103F056F80CB102F044FD0B
S31500004AD031BDDFF83C510FF24C11040028787047C5
S31500004AE000208DF8000002F016BE2DE9F041DFF837
S31500004AF020410FF2F02120780FF2F8260FF2EC2871
S31500004B00DFF80071FCF7C6FA002515E07A5D20781B
S31500004B104146FCF7BFFA681005EB90708010B5EBC4
S31500004B20800007D13878854204DA20782A46314653
S31500004B30FCF7B0FA6D1CEDB23878401C8542E5DB17
S31500004B40BDE8F0818068DFF8BC1000680870704727
S31500004B50D07000202DE9F84304460025A068DFF850
S31500004B60B06007680FF29829DFF898807F1CFFB2C3
S31500004B70802F06DAA06800EB8500406808F8070079
S31500004B8005E030786B1C7A1E4946FCF783FA6D1CEB
S31500004B90042DEBDBBDE8F1831A48142101700121D5
S31500004BA04A1E4254491C8029FAD370471248194AB2
S31500004BB00021016141618161C16101621160164A92
S31500004BC0116001814181002014490860704700008E
S31500004BD05868002080680A4A0078010018BF012141
S31500004BE0517302280E490CBF01200020087070473F
S31500004BF0F46B0020387C0020D0700020B8970100AC
S31500004C0058680020B87B0020F56B0020BE7C002091
S31500004C10046800204C78002048780020E4780020C2
S31500004C205B6D00202765276E642E2E2E0000000087
S31500004C3073746174757300007B264E202674646459
S31500004C40426D7D0061637475616C506F77657200AB
S31500004C507B264E2026746464426D202674647D0093
S31500004C60726571756573746564506F77657200005F
S31500004C707B264E20267464757320267432787573ED
S31500004C807D0000007472616E736D69742064656CDA
S31500004C906179202864656329000000007472616EE2
S31500004CA0736D69742064656C61792028686578295C
S31500004CB0000000005478696E67200000696E66691E
S31500004CC06E69746500000000207061636B65747323
S31500004CD02025752075732061706172742E20000086
S31500004CE00D0A2575207061636B657473207472619B
S31500004CF06E736D69747465642E0D0A0025752066E1
S31500004D0061696C65642064756520746F20636861F1
S31500004D106E6E656C20627573792E0D0A00000000B8
S31500004D204C617374207061636B6574207374617475
S31500004D3075733A2030782532780D0A004C61737409
S31500004D40207061636B6574206261636B6F66663A9F
S31500004D502030782532780D0A000000004672616D19
S31500004D60652070656E64696E6720696E206C61737C
S31500004D70742041434B3A20005965732E0D0A0000FA
S31500004D804E6F2E0D0A0000005346442074696D656F
S31500004D902028766961205346442073656E7420632B
S31500004DA0616C6C6261636B293A2030782532780D2C
S31500004DB00A0000005346442074696D652028766910
S31500004DC06120545820636F6D706C65746520636153
S31500004DD06C6C6261636B293A2030782532780D0A53
S31500004DE000000000206C656E3A20000030782578BF
S31500004DF0200000000D0A307825783A2000000000D7
S31500004E007061796C6F6164206279746520696E6483
S31500004E1065783A202564206973206F7574206F6663
S31500004E202072616E67652E20617267756D656E749E
S31500004E302025642069676E6F7265642E0D0A000076
S31500004E40130018BF01231A46FFF796BB10B530486A
S31500004E5086B0016841F4807101604FF416712D48E7
S31500004E60016002AC2C4941602C4901674FF4F07196
S31500004E70816001202A49086005F01AF805F0C7F894
S31500004E8005F09DFA0FF29C00D0E90023CDE900233E
S31500004E9001208DF80300684605F01BFC05F0A6FE10
S31500004EA001F0D0FE0FF284000FC884E80F0008203E
S31500004EB08DF8140002A805F033FF06B010BD05F00A
S31500004EC03DBF05F03CBF80B50021002004F0E8FEA0
S31500004ED0BDE8014004F050BF04F04FBF80B503F0B9
S31500004EE0D8FA01460FF254000C2938BF00EB8100B6
S31500004EF002BD80B503F0D1FA0FF270010204120E62
S31500004F0051F8221000F0FF0001EB800002BD000006
S31500004F1000000E408C420E404A5D050028E2160055
S31500004F2010300E40000000000000000044A8010000
S31500004F303CA801004CA8010000000000554E4B00A3
S31500004F404649420042544C004558540050575200BE
S31500004F5057444700205357004352530046534800D6
S31500004F6042414400464C540042524F006CA8010096
S31500004F7070A80100C8A80100E8A80100F4A8010073
S31500004F80FCA8010008A9010018A9010020A9010038
S31500004F902CA901003CA901005CA90100012100F037
S31500004FA01F029140DFF84C2A05E0012100F01F02A4
S31500004FB09140DFF8442A400942F820107047012149
S31500004FC000F01F029140DFF8342AF4E710B5DFF84D
S31500004FD0304A30B1012807D0102802D0202803D04B
S31500004FE004E00020204410BD1C20FBE74FF4BD71F7
S31500004FF00FF62430FCF7AEFF204610BD42689288BB
S315000050004089401A824201DA012070470020704729
S3150000501070B5012884B0044604D9B0F1100101D05E
S3150000502010393BD1012818BF202832D1FFF7CEFF17
S31500005030054600F075FD0646A86901AB6A4602A959
S3150000504006F0FFFD00992A89286889B200F030F839
S31500005050304600F06BFDA86906F06BFE012818D1FA
S31500005060296828898988401A298A884211DBA86913
S3150000507090F83110022903D106F0E1FD022804DA86
S31500005080A86990F83100012803D1A869002106F02B
S3150000509028FE200014BF102CFCF778FE7FBDDFF839
S315000050A06409416821F002014160022101607047F4
S315000050B070B500F095FB00F033FDE188A9420CD2F3
S315000050C02288521A521992FBF6F306FB132222800B
S315000050D0A288AA18511AA180E58000F0F5BCF8B59F
S315000050E0012818BF20280C46154616D1FFF76EFF7B
S315000050F00646307B10B101207073F1BD707B18B18C
S315000051003046BDE8F240B9E00FF2D91700F006F8D4
S3150000511018B100F003F80028FBD1F1BDB0693B4699
S315000051202A46214606F0E9BE70B505460E46FFF74B
S315000051304DFF012D18BF202D044640D1A0690168FE
S3150000514090F83200E8B90420886400F06BF9A06991
S315000051500068C16C002E07D041F00401C1640C2028
S31500005160FFF71CFF052106E021F00401C1640C20B5
S31500005170FFF71BFF0021A0690068BDE8704006F03C
S315000051804BBF0420486300F04DF9A0690068816BAD
S31500005190002E07D041F0040181630C20FFF7FEFECC
S315000051A0052106E021F0040181630C20FFF7FDFED6
S315000051B00021A0690068BDE8704006F0B2BF70BD6E
S315000051C0F8B50446DFF8400881421D4634D0002673
S315000051D000F0ABF82DD13A893868A9B2FFF768FF1D
S315000051E039680020C88002E0384600F026F82046DC
S315000051F006F025FD03281CDA788AF98948433968C0
S315000052008A88002A80B2EFD00B88B7F80EC049888A
S3150000521084446145B8BF984207DB8B42E4D2FA89E1
S3150000522082189142A8BF9842DEDA0121204606F094
S3150000523058FD761C022ECBDBF1BD38B50446DFF8EF
S31500005240CC37E089658A216802466843084400F144
S315000052500801A06906F009FEA06906F0F0FC022824
S3150000526003DBA069002106F03CFD608AA18A401C90
S3150000527090FBF1F201FB1200608231BDFEB50446DF
S31500005280207B68BB60680FF25D074188084400F127
S315000052900805A0696B4601AA02A906F0F2FC60683F
S315000052A08188009A891A019A8E1A41880088884254
S315000052B00ED26089421AA0693B46294606F01DFEB9
S315000052C070B9606861894288711A561800F108053C
S315000052D0A0693B46F2B2294606F00FFE00B960739C
S315000052E0F7BD00002DE9F04104469846002600F07F
S315000052F01CF815D178688188414534BF85884546B4
S3150000530000F00EFC79687A894988ADB2691800F018
S3150000531057F87A68518079688A88521B00F0C7F876
S31500005320761C022EE3DBBDE8F0811C21DFF8D006F7
S3150000533011FB06F14718B869A042704738B50D460B
S31500005340FFF744FE112D044609D1A069002106F09D
S31500005350D9FC002020732046BDE832408EE7132D8D
S3150000536006D1A069012106F0CDFC0120207331BDD4
S31500005370206801880844057220680188228900F0A7
S315000053801EF801808188491C8180A06906F0D1FC45
S31500005390226821899288891A89B220B9E2898A42CB
S315000053A0A8BF012105DA012808D1208A814205DB40
S315000053B00021A069BDE8344006F093BC31BD491C0C
S315000053C091FBF2F302FB1311704780B5DFF840063C
S315000053D00169090606D506F091FEBDE804400146BE
S315000053E00120ABE701BD80B5DFF82806016829B1C9
S315000053F00168DFF8242611600021016000F012F830
S315000054000C20FFF7CBFDDFF81406016841F004011C
S3150000541001600221DFF8EC050160416841F00201FC
S31500005420416001BD0C20CAE580B5DFF8F405042112
S315000054300160416821F004014160FFF7F3FF0C2091
S31500005440FFF7B3FDDFF8D005006810B1DFF8C4152B
S315000054500860BDE8014022E6F8B50C461546FFF7A0
S31500005460B5FD0646EAB2306880883189891A8842D5
S3150000547001DB0120F2BD00270DE000F051FB316891
S315000054800B8814F8012B19447F1C0A7231680A88AC
S31500005490338900F004F8AF42EFD30020F2BD521C6E
S315000054A092FBF3FC03FB1C220A808A88521C8A802A
S315000054B000F03CBBF8B5012804460D4603D9103868
S315000054C001D010384DD1204600F005FB10B920461A
S315000054D000F081F800F0ADF8064600F0AAF82200C8
S315000054E0DFF840150CD0012C03D0102C08D0202C4E
S315000054F037D101F1D00202604FF48C720A4402E007
S31500005500016001F14802426040220281802242810C
S31500005510200018BF102C03D1BDE8F140FCF74CBBAE
S31500005520012C18BF202C52D1012C13BF202C4FF474
S31500005530D07008180020012C18BF202CB06110D1A3
S31500005540DFF8E404A98CA8618030E861F181EA8C77
S3150000555032828A4207D21C21304606F01FFE022004
S31500005560F2BD0120F2BDB06990F83130012B0CD0AC
S31500005570338993FBF1F701FB1733002B02BF92FB34
S31500005580F1F301FB13210029E5D1294606F092F932
S3150000559000BBB069017F007E0123022201F0DEF923
S315000055A0287C012808D101212046FFF7BDFDB069FE
S315000055B0002106F096FB0AE000207082F18930890E
S315000055C090FBF1F0B08200F083FA00F081FA00F06F
S315000055D095FA0020F2BD58B50128044603D91038C3
S315000055E001D0103812D1204600F075FAF8B92046DD
S315000055F000F04BFA00F01DF8012C18BF202C0646CF
S3150000560011D1B06906F01DFA10B152BD012052BD8C
S31500005610B06990F83100012803D100212046FFF738
S3150000562083FDFFF73CFD1C21304606F0B7FD002048
S3150000563052BD2046CAE438B50446FFF7C7FC054606
S315000056402046FFF7E5FC2868808832BDF8B5064697
S3150000565001280F46344603D9103801D010380BD133
