S00E00006E63702D7370692E7333372C
S31500000000A0650020918A020045400000758A020022
S31500000010A70A0A010002000004180FAC0060D40011
S3150000002000000000000000000000000000000000CA
S31500000030000000008C9F020000000000000000008D
S315000000400000000000000000FFFFFFFFFFFFFFFFB2
S31500000050FFFFFFFF0070030000000000000000002B
S31500000060FFFFFFFFFFFFFFFF34000000000000005E
S31500000070000000000000000000000000000000007A
S315000000800000000000000000D67E0020D67E002082
S31500000090A0650020F4AE02007E8E0200405C0020C7
S311000000A018120020000004000000000000
S31500000200A0650020918A020045400000758A020020
S315000002107D8A0200798A0200818A02008D8A0200A4
S315000002208D8A02008D8A02008D8A02008D8A020064
S31500000230858A02008D8A02008D8A0200B529000097
S31500000240039A0000292E0100F11B00008D8A02008E
S31500000250312A01006F2E01002F2E0100312E0100E0
S315000002602B2E0100C10002000B030200C97600001C
S31500000270E75800008D8A02008D8A02000F050000F3
S315000002808D8A02008D8A0200290302008D8A0200EF
S315000002908D8A02008D8A02008D8A02008D8A0200F4
S315000002A08D8A02008D8A02008D8A02008D8A0200E4
S315000002B0712E01002D2E0100498E0200F77B0000F1
S315000002C0A52E01008D8A0200298E02008D8A020069
S315000002D08D8A02008D8A02008D8A02008D8A0200B4
S315000002E08D8A02008D8A02006C496D4A01E021B1B7
S315000002F0491E1369DB07FAD401B9B0E0506001204A
S315000003001060106910F0060F05D0410700D5A9E06E
S31500000310800700D5A9E000207047F0B513460022FB
S31500000320002936D05D4C5E4D8BB98B4231D250F8E8
S31500000330046BEE605B1C08262E60264601E036B391
S31500000340761E2F69FF07FAD4002EEED11FE0EFF3D9
S31500000350108672B600230EE02F6907F01907102FDA
S3150000036008BF2F602F693F07F6D550F8047BEF6072
S315000003705B1C10272F608B42F4D306B962B6264663
S3150000038001E026B1761E2869C007FAD40EB96FF0CF
S3150000039002021046F0BD2DE9F0479A46414B424F06
S315000003A01C681B683B688046002043F001033B60E5
S315000003B0950881460C4602E0B14404EB8604A94543
S315000003C017D208EB89063046FFF78EFF010014D1DD
S315000003D0C6F30A00C0F500608608A5EB0900B04226
S315000003E038BF0646524631462046FFF796FF0100C3
S315000003F0E2D03968490849003960BDE8F0872949E3
S31500000400264A0B68096828490B6843F001030B600C
S315000004108860012048604869400704D5086840089C
S31500000420400008601EE04869800704D50868400857
S315000004304000086019E00220486001E022B1521E27
S315000004404869C007FAD422B9086840084000086025
S3150000045005E00868400840000860002070476FF01B
S31500000460020070474FF0FF3070476FF00100704791
S31500000470002390E70C48016841F00101016046F253
S315000004801A31C1644FF4807141604169C907FCD4D7
S315000004900021C1640020704700000000809698008B
S315000004A00C000E4004300E4008000E40072802D211
S315000004B03549085C7047FF207047072802D2334948
S315000004C0085C7047FF20704738B50446304800EB9B
S315000004D08105A8780009FFF7E9FF2071A87800F0E8
S315000004E00F00FFF7EAFF6071FF2814BF012000200C
S315000004F0E8702146E878A071287860706878254D04
S31500000500A070284600F0A3F80120A86031BD10B500
S31500000510214984B01CC968461CC02048204A01787D
S31500000520D36814682340DB072DD503292BDA184C32
S3150000053012691C4B04EB8104E4781CB114B2002C44
S3150000054048BF002223F811200123174A147803FA22
S3150000055001F121431170154A117891B100211478E7
S31500000560CC40E40708D501708B40107858401070D5
S315000005706846FFF7A9FF1FBD491CC9B20329EEDB78
S315000005801FBD032101701FBD689F0200709F0200FE
S31500000590B46D0020002000405C9F0200957E002084
S315000005A038200040D86D0020967E0020947E0020E2
S315000005B0890001EB401000F184400260704730B5BD
S315000005C0002A446BDFF834511ABF1022DFF83031AD
S315000005D0DFF8303123400024A84237D1DFF8280164
S315000005E051B101290CD002291ED003290CD00629AD
S315000005F015D0812918D023E001680468006816E048
S3150000060001680468006802E0416844684068090CB3
S3150000061001F4FE41C4F303442143000C0CE081685D
S31500000620806801F00F0107E041684468406801F402
S31500000630FE4104F00F04214300F0F00040EA0104FB
S3150000064004FA02F0DFF8C4101843086030BD38B56C
S3150000065004460D460220A0600022A9782046FFF736
S31500000660AEFF287969786B79020242EA016242EAB2
S315000006700342EB7842EAC302EB790BB142F0005237
S315000006802B7A0BB142F00402AB790BB142F00202B5
S315000006906B7A0BB142F00102AB78F32806D1180051
S315000006A004D10429BCBF042060F31B6218064CBFAA
S315000006B042F0E00042EA43102061154960690840B3
S315000006C0A9780A0644BF21F080010843297840EA48
S315000006D04140E97A09B140F4804060610221AA7A7A
S315000006E02046FFF765FF2879F32804F13000BDE8BE
S315000006F038400CBF01220022102159E7002000409B
S31500000700FFFF00800080FFFF1082E00F34200040D2
S31500000710F8BFE1FF42DE704738B504460D4600F0EB
S31500000720FBFB01F080FA01F09FFA2946204601F012
S31500000730C4FA2B4622466949012001F05EFC29468F
S315000007402046BDE83440E5E765482DE9F047654DAC
S3150000075001682E1D4FF420687165016AB165624912
S315000007600A68F26549683166416A7166816AB166EE
S31500000770C16AF166016B3167806B706796F8340069
S3150000078040074CBFF46BB46B01F0C3FC0022F2646B
S315000007908442564A014624BFA2F1200AA2452746B2
S315000007A0316505F19003DFF848C1DFF848E118D359
S315000007B0A0693064E4697464746DC4F30804062C9B
S315000007C013D1704511D360450FD200884DF64264AF
S315000007D0A0420AD13068586040F20178706898608B
S315000007E003E000273764776407464348814202D214
S315000007F0014600E0091D0846904203D20C68B4F198
S31500000800CD3FF7D03D49081AB0640021002005EB22
S315000008108004401C0628E167F9DB002003E0C0B233
S3150000082005EB8004E167974223D252F8041D714517
S31500000830F9D36145F7D2CC07F5D5002405EB840939
S31500000840D9F87C90894502D0641C062CF6DB062C70
S31500000850E9D1002814BF401E0520E0E7B16F00244F
S3150000086005EB8402641CD2F88070D767052CF7DB91
S3150000087019600146481EC9B20029EFD1706DC0F358
S315000008800800032810D0042811D0052812D0062805
S3150000089013D00C2817D0122818D1194800688007E1
S315000008A019D540F2025816E040F6012813E040F64A
S315000008B0022810E040F603280DE0B8F5206F0AD1B3
S315000008C040F6042807E040F6052804E018B13A2867
S315000008D038BF40F607284046BDE8F087789F0200FB
S315000008E004ED00E00000002000E300E0A065002029
S315000008F07E8E0200AC0400009C000020A065002053
S315000009001C20054010B54C00014600F02CFD224687
S3150000091001F047FCA04201D0002010BD012010BD0F
S3150000092080B500F020FD01F096FC00B10120C0B2B8
S3150000093002BDDFF83C0A407D00B101207047DFF8B8
S31500000940302A117B01B9704780B50146106A01F063
S31500000950D8FC20B1BDE8044040F25111D2E201BDFD
S3150000096080B500F000FD01F015FC00F0030003283F
S3150000097001D1012002BD002002BD80B5B0F5004FB7
S3150000098007D100F01DFEDFF8900A00F0D5FCBDF897
S315000009900000DFF8181AC883002002BD2DE9F04FC9
S315000009A0440900F01F050027DFF8948A00E07F1C49
S315000009B098F80660F8B2B04245D2D8F80800FFB2FF
S315000009C050F827004FF0000C01E00CF1010CC67E38
S315000009D05FFA8CFEB645EAD2D0F81CE05FFA8CFCD2
S315000009E0182616FB0CF6B6449EF8086006F00706B5
S315000009F0A642EAD19EF80960B542E6DB9EF801B050
S31500000A009EF8009006EB0B0AAAEB090AAA45DCDB66
S31500000A10DFF8684A247854B1DFF85449A47B34B926
S31500000A20DEF80C401CB12468EC40E4070BD511B18C
S31500000A30AC1B4C440C7012B19EF8081011701BB11F
S31500000A40C3F800E000E00020BDE8F08F400918BFC1
S31500000A5040F01800704710B5DFF81449206A01F01D
S31500000A60FAFB0246206ABDE81040002101F00FBCE7
S31500000A700B38102834BFDFF8CC0ADFF8400B0068CB
S31500000A8070473EB568460021002200230EC0DFF8FD
S31500000A901C0901788DF80010817A0A0018BF022916
S31500000AA014D10079DFF8C85800F0BBF8044600F00E
S31500000AB00EF858B1286A0122002101F06DFB00F002
S31500000AC006F818B140F27B2100F064FB37BD286AB6
S31500000AD06A46214601F088BB2DE9F041044604F040
S31500000AE01F001B2886B034D2002000906B460022DF
S31500000AF000212046FFF752FF07002AD02046FFF7C5
S31500000B00B7FF5FEA000824D0DFF86468DFF83C5AD4
S31500000B10F06B804515D001A84146062201F06AFC1B
S31500000B20306AC6F83C8001A901F04EFC88B9306AEB
S31500000B3003A901F058FCB5F91C10306A01F01EFC3F
S31500000B4038B90098B06277620098002818BF00692B
S31500000B5001E08A200EE0F06229798C421CBF2C71DC
S31500000B60FFF78FFF96F90D00C101306A09B201F057
S31500000B7013FE002006B0BDE8F081DFF8D009007949
S31500000B807047DFF8C809B0F91C00002854BF0521DA
S31500000B906FF0040108180A2190FBF1F040B270478B
S31500000BA00A2110FB01F0FFE7F8B500F5D77240F215
S31500000BB077239A4201D38B20F2BDDFF8B447DFF8E2
S31500000BC08C59A26A0A23002A1EBFAE7F06F0C00611
S31500000BD0802E12D0A67B86B992F9026016FB03F727
S31500000BE0B842B8BF16FB03F007DB92F9032012FBED
S31500000BF003F68642B8BF12FB03F0217B61B10146C2
S31500000C00206A01F0BBFB18B140F2DB2100F0C2FA0A
S31500000C10206A01F0C7FB01E010FB03F0A883002067
S31500000C20F2BD38B50446FFF723FF90B1002300223A
S31500000C3000212046FFF7B2FE58B104F01F051B2D18
S31500000C4007D22046FFF702FF18B90B2D01DB284615
S31500000C5032BDFF2032BD0FF208014008085C704724
S31500000C60F0A050007047C0B2704710F1590F01DA7A
S31500000C700020704710F1240F01DBFF2070475A3027
S31500000C800002362190FBF1F0C0B2704770B5DFF874
S31500000C90E046DFF8985A00202064687828B101F011
S31500000CA07FFD012818BF032801D1002070BDE16A2D
S31500000CB0DFF87C3ADFF8942800291FBFA66A766918
S31500000CC0002E022817D12364906900F5FA7090610E
S31500000CD0E07C18B100200021642203E0E87829793D
S31500000CE04FF4A0722070A2806170A878A070802056
S31500000CF0E080002030E0DFF83C5A9069AE4213D124
S31500000D00DFF8343A236400F57A709061E07C88B9A4
S31500000D100879207001228B7808799A40101891F989
S31500000D2003201018401E0CE0236400F5FA70906151
S31500000D30E07C18B100202080642005E0487820700F
S31500000D408878607008780001A0804879A0700889CA
S31500000D500001E080C8880001A06000F037FCE07068
S31500000D6094F90200010048BF4042C0B270BD70B5A0
S31500000D700446DFF8FC65257896F9140008B18C2046
S31500000D8070BDFFF783FFB075DFF8A029DFF8BC0759
S31500000D9041780174690101F5807181619379716C03
S31500000DA0002BB37B1DBFAD1EEDB221F0020141F059
S31500000DB0020173B9127862B16278920609D56FF0B2
S31500000DC00102327541F00101826902F50872826101
S31500000DD004E049084FF0FF30490030757164032084
S31500000DE000F002F96A1C306A4FF4807392B2214611
S31500000DF001F0FFFC691C884203DA40F22D4100F045
S31500000E00C9F9002070BD0000F8B5DFF8645595F902
S31500000E1014100024091D04290FD8DFE801F0080E7C
S31500000E2010100300FFF7A3FF040008D0F2BD2C75D5
S31500000E30286A01F0B5F98D20F2BD8C20F2BD01F0D3
S31500000E40F4FCE8B1286CDFF8E818884218D1A87DD0
S31500000E50B0B1DFF86C0A0068002811D5DFF8640A23
S31500000E60C168C1600122006800F00F0002FA00F0BC
S31500000E70401E014204D100F0E1FB642001F0D9FCE0
S31500000E8001F02CFD064695F9140010F1010F1CBF68
S31500000E9095F9140010F1020F29D195F91400DFF825
S31500000EA0AC764042287501F01FFD7862296C3879CE
S31500000EB049B9FFF7B6FE01466A6C286A07F11003C6
S31500000EC001F081F90BE0FFF7ACFE07F1100100918C
S31500000ED001466A6C286AD5F840C02B46E04760B1E7
S31500000EE0002028758C244FF0FF30786202E0002045
S31500000EF028758D24286A01F053F9304601F065FD06
S31500000F002046F2BDDFF86C0AFFF706BCDFF83C06A8
S31500000F10C08B704700000000F8B501F0DFFCDFF879
S31500000F208C540446A87A012803D1204601F04DFDD1
S31500000F30F1BDDFF8441ADFF83864DFF8387A40206C
S31500000F4008600122306A012101F026F9DFF82C1A27
S31500000F504FF40010086069460FF2880000680090A0
S31500000F60306A01F00DFC20B140F2DB413846FFF754
S31500000F70D3FB02208DF800006946306A01F0DDFBE4
S31500000F8020B140F2DD413846FFF7C6FB306A01F07A
S31500000F9018F90021002001F01BFD00F03FFB0120A5
S31500000FA0A87296F91400001D072810D8DFE800F093
S31500000FB0140F0707040B0B0B01F0ACFE0CE06FF0EF
S31500000FC00300307508E0892000F06EFB04E040F273
S31500000FD0FF413846FFF7A0FB204601F0F6FC01F082
S31500000FE038FFF1BD040100002DE9F04DDFF8BC53D8
S31500000FF00446A87AA04282B063D00FF2CC01DFF893
S3150000100080690968DFF86C89DFF86473DFF86CA91A
S31500001010009103284FF4001B4FD8DFE800F0470289
S315000010203E2B01F01FFF386A694601F0A9FB18B193
S3150000103040F21C5100F04AF802208DF80000694683
S31500001040386A01F07AFB18B140F21E5100F03EF802
S315000010506879002814BF00220222386A022101F0B2
S3150000106037FF18B140F2235100F030F80320032C6B
S31500001070A87218D0CAF800B00220A8722879FFF723
S31500001080D0FD0146386A002201F0AEF818B140F2F0
S31500001090335100F01BF8022C13D0002C18BF032C80
S315000010A00FD10020A872C6F800B00AE0022C08D1C1
S315000010B0CAF800B00220A87203E040F2495100F0DD
S315000010C005F8BDE8F38D0000040200004046FFF776
S315000010D023BB002088E7DFF8B00A807A704700005B
S315000010E0032805D8DFE800F00302030314E77BE7D3
S315000010F040F2675106E780B500F00EF804D50021EE
S315000011000175006A01F04CF8A848407A012802D11E
S31500001110BDE8014000E701BDDFF8700A90F9141040
S3150000112000297047DFF8600A407A704780B50328C7
S3150000113001DB012002BD9D494872897A884218BFA9
S31500001140FFF7CEFF002002BD2DE97C4FDFF83C6A99
S3150000115003EA010BD6E9068929EA010528EA000413
S3150000116002EA000A45EA0B0544EA0A044D4508BFAF
S3150000117044450DD0CDE900230246306A0B4601F006
S3150000118001FB18B140F28F5100F004F8C6E906459C
S31500001190BDE8738F0FF62420FFF7BEBA38B5744D3D
S315000011A00446287BE8B1200018BFDFF8E42904D103
S315000011B0A87C08B1202200E000220023DFF8D00935
S315000011C00021FFF7C1FF002C14BF08220022286A65
S315000011D0082101F07DFE20B1BDE8344040F2CB513C
S315000011E090E631BDF8B50446022C0FF6D01503DBA8
S315000011F040F2F45100F0A5F85D4E307B002840F037
S3150000120097806A4FB87A012803D040F2FA5100F06D
S3150000121098F8002107F1300000F0AAFF306218B9F3
S3150000122040F2FD5100F08DF8306A052101F051F9C8
S3150000123018B140F2FF5100F084F8306A0FF69011B1
S3150000124001F08AFE18B14FF4C06100F07AF8306AF6
S3150000125001F086FE18B140F2016100F072F84FF01D
S31500001260FF30DFF8302903230146FFF76DFF306AB0
S315000012704FF0011101F01DF818B140F2166100F0AF
S3150000128060F8306A4FF48032002101F000F8306ACD
S3150000129009224FF0FF3101F01BFE18B140F21D612B
S315000012A000F04FF8012030730223DFF8EC0800F05D
S315000012B043F8BDF80000C0054CBF0020BDF8000093
S315000012C0707301F0B2FAFFF769FFF88BFFF755FB71
S315000012D001F0C6FE00F08CF83879FFF7FDFB18B177
S315000012E04FF4C66100F02DF8F87900F043F8387A2B
S315000012F000F05EF8307C00F091F8787900F0D4F8D0
S3150000130000F064F900F02FF9B07C00F01FFBB7F98C
S315000013101C00FFF749FC388C00F094F8788C00F03C
S31500001320AFF8B87900F014F9601E8041C00FB872AA
S315000013302046FFF7D5FEF1BD01887F22684601F001
S315000013409BBE2846FFF7E8B980B500F00CF80121EE
S3150000135000F04DFF10F5007F02D16FF07F0002BD57
S315000013608005001602BDDFF82408006A70470000F9
S31500001370486D002010B50446DFF81008017B51B116
S31500001380611E8941006AC90F01F03BFE18B140F2A7
S315000013906B61FFF7FFFE2000DFF8EC1718BF012096
S315000013A0C87110BDDFF8E007C07970478869002072
S315000013B0F8B5044601F092FA05466448DFF8CC67B2
S315000013C00472377BFFF7B5FA00F0010080F00100E8
S315000013D0074204D0306A84F0010101F046FF284636
S315000013E0BDE8F24001F0F1BADFF89C07007A7047D9
S315000013F0DFF89807017B01B9704780B5006ADFF80E
S315000014009C17002201F0EAFD20B1BDE8044040F23D
S31500001410966177E501BD000018AA0200DFF86C2787
S31500001420117B107401B9704780B50146106A01F04E
S31500001430DCFD20B1BDE8044040F2A16162E501BDDA
S3150000144024A702004149DFF844370884197B01B913
S31500001450704780B50146186A002201F0B8FD20B138
S31500001460BDE8044040F2B2614CE501BDDFF8180763
S31500001470008C7047DFF81007408C7047D56B002052
S315000014803249DFF808374884197B01B9704780B5BF
S315000014900146186A002201F093FD20B1BDE8044020
S315000014A04FF4D9612EE501BD28494A79824200D11F
S315000014B0704710B58C7A4871012C05D0FFF72CFDCA
S315000014C02046BDE810408FE510BD10B500F032F89B
S315000014D000F02BF80146206A012200F07DFE20B1C3
S315000014E0BDE8104040F2EA610CE510BD80B5FFF79B
S315000014F03AFF00F074FE18B140F2EF61FFF74AFEC2
S31500001500BDE80140FFF7BDBA10B500F013F800F0D2
S315000015100CF80146206A002200F05EFE20B1BDE80C
S31500001520104040F2FA61EDE410BDDFF85C06007988
S31500001530FFF777BBDFF85446206A0122012100F04D
S315000015402BBE000008690020D0E700008869002053
S3150000155010B50446FFF707FF214601F08CFEDFF8C1
S315000015602806847110BD38B504467F2C0CD100F0D6
S3150000157027F8DFF82C06FFF7DFFEBDF800007E2413
S31500001580C00558BFBDF8004001F0A8F90546FFF7B1
S31500001590D0F960B960B27E2805D1DFF8F015896A06
S315000015A009B191F904007E28B8BFFFF7C8F9DFF842
S315000015B0D8050473284601F008FA31BD0C690020ED
S315000015C04FF6FF70ADF8000002237047DFF8B8054C
S315000015D090F90C007E2807D1DFF8B005806A08B9BB
S315000015E07F20704790F90400704710B501F046FE61
S315000015F0800411D5DFF890454FF0FF30A06201F06E
S315000016003DFEC0044CBF03200120002101F038FE3E
S3150000161001F06AF9E06210BDBDE8104080B5DFF860
S3150000162068054FF0FF318162C162FFF799F920B971
S31500001630BDE80440002101F023BE01BD80B501F0E4
S315000016401DFE4005BDE804404CBF032001200021DB
S3150000165001F0BEB910B5DFF8344594F9140003283B
S315000016600DD100F024F9DFF820154FF0FF30486265
S315000016700022216BBDE81040402001F0D6B910BD14
S3150000168038B50446FFF7CAFFDFF8005501F03DF90B
S31500001690686314B101F09DF801E000206874BDE8AC
S315000016A0314001F037BB000038B50446DFF8D814E6
S315000016B0DFF8D8544FF0FF30486201F026F968632E
S315000016C095F91400012802DABDE83140A6E7A87DA5
S315000016D008B1686BA86300F06BFAA87B10B1012013
S315000016E0E87331BD2046BDE838400022002101F0F4
S315000016F09CB910B501F099F878B1FFF731F960B1EE
S31500001700DFF884444FF0FF30E06201F0EDF8A062AC
S3150000171001F0B8FD002101F0B3FDDFF87004807C14
S3150000172018B1BDE8104000F062BA10BDFC6A002096
S31500001730CD210000EC1B0000D32100002DE9F04371
S31500001740DFF848440FF27449206A89B005AA0221DD
S3150000175001F052F8050003D140F6F80100F0A4F8B4
S315000017609DF81400DFF82064BDF8168007281CBF1A
S315000017707079002806D1B8F1060F03DB08F10800DE
S315000017808B2802D3FFF731FF8BE000200090434601
S31500001790DFF81074206A3A46294601F035F84045CC
S315000017A003D040F6141100F07FF838780006E9D42B
S315000017B001208DF80800CDF804806A46206A294683
S315000017C001F01EF818B140F6291100F06DF878788E
S315000017D000F0070002281ED1FFF720FF94F914003D
S315000017E0032808BFB8F1060F11D19DF80D0070B19E
S315000017F07878000900F0010500F059F84FF0FF3045
S3150000180070622A4600218F2001F00FF949E0F07935
S31500001810002846D105E09DF80D0010B10020FFF725
S3150000182019FFF0799DF80D10084203D040F65111CA
S3150000183000F03AF8F07930B17878800603D5206A5E
S3150000184001F016FD18B1FFF7E9FE00206074387844
S31500001850401C404503D040F66B1100F025F807EB1D
S3150000186008053079287001F013FE68709DF80E00A7
S31500001870A87095F90200FFF7F8F9E87008F1080179
S31500001880FF202871C9B20098000C68710098000A00
S31500001890A8710098E8713846627C01F0F6F90020DC
S315000018A0607409B0BDE8F0834846FEF735BF0020F6
S315000018B02075206A00F074BC0FF20830FEF72CBFCA
S315000018C0044008404C50084038B50446002C0D46EC
S315000018D007D401F009F8011B89B28D428041C00F7F
S315000018E032BD002032BD70B5040004D100F072FF95
S315000018F000F0F4FF0546A44E706A4FF47A71FFF7C4
S31500001900E3FF58B1A14890F91400032803D1002041
S31500001910FFF7A0FE02E08920FFF7C6FEB06A0A21A3
S31500001920FFF7D2FF08B1FFF779FE01F0A7FC00F040
S31500001930FF01F06AFFF7C8FF08B1FFF76FFE24B991
S315000019402846BDE8704001F040B870BD38B58F4DEF
S315000019500446287B60B1200002D100F066FF08B182
S31500001960202200E00022002320200021FFF7ECFBCC
S31500001970AC7431BDBC1B0000084008401860084626
S31500001980186008442DE9F04781461446A00688B041
S31500001990984648BF002002D4600602D50120FFF712
S315000019A0A8FEE003794D25D50020687469464846AF
S315000019B001F03CFBF0B99DF8080002280ED1BDF8F5
S315000019C0000001F0EBFFFF280ED07749096831F8D7
S315000019D010004FF4E461084206D10BE0032809D158
S315000019E0684602F04EF828B1286A01F01CFB08B9D7
S315000019F001206874A00410D500F017FF68B1FEF747
S31500001A00AFFF50B102F0C4FA064601F03BFC864235
S31500001A1003D00021304601F033FC200744BF48467E
S31500001A20FFF78CFE200648BFFFF7DFFD4FF4985006
S31500001A30044218BFFFF7F2FD200344BF0120FFF761
S31500001A401FFEA00244BF0120FFF71AFE200244BF7A
S31500001A500020FFF715FE95F914000FF2601A012811
S31500001A6064DB286A484E61034FF0FF3730D595F99D
S31500001A70141001295ADB95F91410032956DA0021AE
S31500001A808DF8181001218DF8141003A900F0AEFC92
S31500001A900398286300F039FF6863A87D08B1686B76
S31500001AA0A86395F91400012804D002280AD103205E
S31500001AB028753BE000F07CF87762A87BA8B9296B13
S31500001AC0002218E040F621015046FEF725FE2DE0E3
S31500001AD014F0046F12D00021297500F061FB042078
S31500001AE000F079FE7762A87B10B10120E8731DE053
S31500001AF0002200218D2000F098FF17E0E00248BF89
S31500001B00892002D4E00103D58820FFF7CDFD0DE042
S31500001B10A00048BFFFF792FDE00007D52348006804
S31500001B20400403D40021002000F052FFA00744BF68
S31500001B304846FFF78FFD600004D5FFF76FFD484666
S31500001B40FFF788FD08F001010023994212D04846AC
S31500001B5000F01CFB022802D0032802D005E08920F1
S31500001B6000E08D20FFF7A0FD04E040F68C01504612
S31500001B70FEF7D2FD08F002010023994218BF02F0D9
S31500001B805FFA08B0BDE8F08788690020486D00203C
S31500001B90A03300300A00FD491CAA02001C78002070
S31500001BA01EAA0200C4750020B06800200440084048
S31500001BB000202875286A00F0F3BA00007068792EB4
S31500001BC0630000006C69627261696C2E610000003E
S31500001BD00000000001006003010101016400B6007D
S31500001BE06400C000000000000B0000000000704709
S31500001BF002F028BA80B50121154802F0E5FA042161
S31500001C00072002F045FF13481349144A01600421D6
S31500001C101160022141620421114A1160816A41F07A
S31500001C200201816201BD0B4802F074BFA52800D0F5
S31500001C30704780B500F005F810B10A490020086029
S31500001C4001BD0448006810F0010018BF012070476C
S31500001C5000050800002005400108030080E200E0BE
S31500001C6000E100E00000A442602080F31188704784
S31500001C7070B503F044F8AD4C204603F00FFCD8B91C
S31500001C80204603F0C0FBFF28044615D0A849096882
S31500001C90085C851EE9B2204603F037FB0646E9B22A
S31500001CA0204603F030FA2146304600F0ECF8204694
S31500001CB0BDE8704003F0D6B870BD03460A4699A148
S31500001CC00420FFE70CB480B502AA00F031F801BC8D
S31500001CD05DF80CFB0A0003D0034693A11120F1E73F
S31500001CE0704700B587B001F0C3F800210591049153
S31500001CF002466021039100230021029101910120F7
S31500001D008C4900910FF23C21FFF7DCFF8A4881796C
S31500001D10C378827803910188029141790191017912
S31500001D20009142200FF22821FFF7CCFF07B000BD3B
S31500001D302DE9F04F85B005460C46904603F00DFCA4
S31500001D400026F8B902F064FFE0B1012003F01FF8A5
S31500001D508246BAF1FF0F15D0002103F013F8294689
S31500001D6001A802F05BFF05469CB900F087F830B980
S31500001D70504602F0BBFF10B1042003F0DFFB5046D3
S31500001D8003F070F805B0BDE8F08F8DF8042001254A
S31500001D90641C20780100E8D0A0F130010A2905D2A0
S31500001DA00A2101FB0600A0F13006F1E700F066F813
S31500001DB00028E4D122780025422A01A80ED0442A20
S31500001DC01AD0462A25D0572A0DD0622A3AD0662A3A
S31500001DD02AD06C2A25D0702A26D0D6E758F8040BCC
S31500001DE08DF80400D3E758F8041B8DF8041002257B
S31500001DF00904090E4170CBE758F8041B8DF804104E
S31500001E000A0A427004250A0C8270080E8DF8070033
S31500001E10BEE758F8041B504603F036F90028B7D041
S31500001E20ADE758F8046BB3E7012358F8041B662A9C
S31500001E3008BF0223F2B2504603F005F9002808BF96
S31500001E400026ECE73A4858F8047B006810F80A9038
S31500001E50FFB2FF2F9CD010F807B00BEB0901C9B2F7
S31500001E60504603F050F9002889D1CDF800B0002380
S31500001E703A464946504603F07DFA89E72A4601A9C3
S31500001E80504603F0FFB82DE9F043122885B080468E
S31500001E900D4609D03A281FD04FF6FE71884204BF7E
S31500001EA0284602F078F836E02148244F0068465D5F
S31500001EB00BE0284602F060FF01462246002003F0B0
S31500001EC04FFD3868455D203EF6B2FF2D23D0212E0A
S31500001ED0ACBF20243446ECE703F017FF8146FFF73A
S31500001EE0C9FA0646FEF74DFE0746FEF746FE0446CD
S31500001EF0FFF7BCFA02460F480FF25C010390CDF8DB
S31500001F00109023460E48006840880290019600977C
S31500001F103B20FFF7D7FE2946404605B0BDE8F04313
S31500001F2003F03CBB574600006C7000009C6A002022
S31500001F309C6800201C78002034A70200A4680020BA
S31500001F4008780020424238704242424257424200DC
S31500001F504242424257420000574242575738704267
S31500001F60000000002DE9F04104460125200094B050
S31500001F700F4690461E4606D001281DD0102802D0D6
S31500001F80202819D028E0002103F018FD0546012C71
S31500001F9018BF202C08D0022C18BF212C04D0032CEB
S31500001FA01CBF222C232C24D1012E0197ADF80C80C6
S31500001FB014D14FF4805015E00AA81649242200F0E7
S31500001FC029FA68460AA9242200F024FA1020ADF85E
S31500001FD02400ADF82600DAE701200BE0022E03D13B
S31500001FE04FF44050ADF80A006946204603F0E6FC7F
S31500001FF00546E8B214B0BDE8F0810CB480B50A46D7
S31500002000014602AB044803F07CFF02BC00205DF8E9
S315000020100CFB0000A0A20200455B00007047000018
S3150000202010B50446FFF720FE200A00283E4808BFE8
S3150000203024024FF20F0104804180BFF35F8FBFF38C
S315000020404F8F3A483A4A016801F4E0611143016052
S31500002050BFF34F8F00BFFDE780B5002000F009F801
S3150000206030B9BDE80440E3210FF2DC00FEF754BBB3
S3150000207001BD2DE9F0422F4C216842428D1815F022
S315000020801F0108D0002802D44842054403E0484214
S31500002090284400F120052848A5F12006A84224BFBF
S315000020A02648864203D3EFF30880854201D30020F9
S315000020B02DE000F013FC81462148006810F001076E
S315000020C018BF04F048F8206801468D4206D2A8429F
S315000020D024BFCD2100F80119F9D206E020380022EC
S315000020E001E000F8012B8842FBD32560304604F05E
S315000020F039F8E22001E006F8010BAE42FBD30FB13E
S3150000210004F006F8484600F060FC20682038BDE878
S31500002110F082084800687047064800682038704713
S315000021200848704700000000000000200CED00E0A9
S315000021300400FA05A06A0020405C00201812002066
S3150000214094ED00E0000000206D6963726F2D696EEA
S315000021507465726E616C2E630000000010B50C4C45
S31500002160206800B10120262104F00EF8206810BD79
S3150000217038B50446064804600D46204604F0F8F9D2
S3150000218029462046BDE8344000F072B90120704768
S31500002190E077002000F0BBB90846114600F0ADB963
S315000021A070470846114605F044B910B50C4611466D
S315000021B01A4603462046BDE8104004F038BC04F039
S315000021C06ABC04F06DBC0C3000F08CB80C3000F02A
S315000021D09BB80C3000F0AAB80C3000F0B4B880B54B
S315000021E004F012FD002002BD0C3000F074BE0C306D
S315000021F005F01CB90120704738B500F01BF8002126
S31500002200E560A160BDE8324005F015B938B500F0CB
S3150000221011F8E168A26829400D0018BF0125114395
S31500002220A16005F008F915B10020022134BD002097
S31500002230002134BD04460D4605F000B938B5FFF758
S31500002240F9FFE268A1682A4021EA0205A56005F0C7
S31500002250F2F8284632BD4069704770B582B005462F
S315000022600C0006BF0FF25C0000682068164600905E
S3150000227006B9AE6831462846FFF7E0FF32466946A2
S31500002280284604F021FC0CB10098206073BDF8B517
S3150000229000F10C070C4615463846FFF7ABFF022641
S315000022A028B12A4621463846FFF7D7FF0026304692
S315000022B0F2BD80B50C3001F00111FFF79DFF002043
S315000022C002BD0000FFFFFFFF38B504460D4604F0CF
S315000022D0FFF908B9022032BDA9B22046BDE8344054
S315000022E000F034B938B50446154689B2FFF7ECFF5D
S315000022F0010005D129462046BDE8344004F00BBA5A
S3150000230032BD0C3004F0F1BA70B500F00AF80100E5
S3150000231006D1324629462046BDE8704004F043BA4D
S3150000232070BD044615461E4689B2CDE770B5FFF767
S31500002330F8FF010006D1324629462046BDE8704026
S3150000234004F0F2B970BD70B5D4B2250018BF012CE7
S3150000235001D0012070BD89B200F0F8F806000BD15B
S315000023600121012000F0C9F814B904F054FC03E07F
S31500002370012C08BF04F056FC304670BD7CB50D46F6
S315000023806946044600F02FF89DF800102A462046BC
S3150000239005F058F804F10C0601460122304604F017
S315000023A000FC76BD30B583B06946044600F01BF8E4
S315000023B004F10C05284604F016FC02469DF80010B0
S315000023C0204605F0A1F83EBD38B50C4600F10C05D7
S315000023D001220021284604F0E4FB21462846BDE8F8
S315000023E0344004F0CFBB0C3004F0F7BB0C3003F0E4
S315000023F0DBBF000062B38B0708D0521E11F8013B09
S3150000240000F8013B00F024808B07F6D1830740F0EB
S31500002410208000BF103A07D330B4B1E83810103A24
S31500002420A0E83810F9D230BC530724BFB1E8081031
S31500002430A0E8081044BF51F8043B40F8043BD2071B
S3150000244024BF31F8022B20F8022B44BF0B7803700F
S315000024507047083A07D3B1E80810083A40F8043B39
S3150000246040F804CBF7D25307E4E700000120704799
S3150000247010B5044603F0CCFF08B1002010BD20467D
S3150000248010BD70B50D00044614BF012600261F219D
S31500002490304603F079FE25621F21304603F074FEB4
S315000024A04FF6FF76002001E0401CC0B2E968884282
S315000024B009D2A968182212FB00F21144C989B14257
S315000024C0F2DA0E00F0D13146204600F03FF83046F1
S315000024D070BD38B500F10C050C462846FFF7C6FF5F
S315000024E028B104F0C2F8012801D0022032BD2146ED
S315000024F02846BDE8344004F08DB810B50C4604F00B
S315000025009FF81CB104F0B1F80128FBD110BD04F00E
S31500002510ACB8F0B583B004460D46FFF71FFE06467D
S315000025206946204604F059FBB5F91220012747F603
S31500002530FF702479824207D09DF80010304604F0DF
S3150000254081FFA04238BF00273846FEBD2DE9F04F77
S3150000255085B04FF000088DF801800446614F8DF874
S3150000256000800D463868029078680190266AD4F893
S315000025702490002E1CBFB068002801D0F06808B96E
S315000025800320A1E0C24601E00AF1010AF068824593
S3150000259018D2B068182101FB0AF10144A8B2CA8911
S315000025A0904222BF088AAAB29042EDD301208DF84C
S315000025B0000089462046FFF7ACFF0028E4D0012042
S315000025C08DF80100FFF7CAFD834603A9204604F0F3
S315000025D004FB204604F007FB82469DF80100E0B1AB
S315000025E021790022204604F0DCFA204600F078F833
S315000025F08346386850B3B04221D17A68FAB14A4569
S315000026001DD1A9B28B455ED00023204604F011FBF4
S315000026105FEA000810D1658055E09DF8000048B1DA
S31500002620B9F912209DF80C10584604F00BFF002251
S315000026300146D7E7012047E000F049F83DE0016890
S3150000264021B13268914208BF416800D0316800F07C
S3150000265044F880465FEA080004D1D9F8001000F07B
S315000026603CF880465FEA08000FD100F064F810B12C
S315000026703E60C7F80490C4F82490658001234A465A
S31500002680A9B2204604F0D5FA80465FEA080003D1D5
S31500002690484603F0C7FD16E000F04DF898B10298E1
S315000026A0386001987860386808B100F015F800F0D5
S315000026B00EF8786838B100F00FF87A6800235946AA
S315000026C0204604F0B6FA404605B0BDE8F08F002279
S315000026D05146204604F065BA0168204604F09EBDC6
S315000026E040887047E477002001281CBF0428022890
S315000026F001D1012070470020704738B500F03CF842
S3150000270040B16878FFF7F0FF20B128786978084370
S31500002710400701D5012032BD00F00DF828B103F0C5
S31500002720A4FF400701D5022032BD29462046BDE858
S31500002730344004F0E8B9204698E60C30DDE738B5B9
S3150000274000F01AF838B16878FFF7CEFF00281CBFF2
S315000027506878042801D1012032BDFFF7ECFF28B1CB
S3150000276003F083FF800701D5022032BD29462046AB
S31500002770BDE8344004F0DBB90D4604462878B3E7DB
S315000027800C30DCE730B583B00C30DDE90645CDE929
S31500002790004503F0BBFE3EBD0C3004F017BD000043
S315000027A00020704738B51446FEF72EFB05466CB17F
S315000027B028000BD00A48007818B10A490120087091
S315000027C004E000220021284600F02FF9284632BDF9
S315000027D07047704770470449087070470000000052
S315000027E0566D0020576D0020C57E002070470120E1
S315000027F070470C3004F028BC0846114604F0A1BB13
S315000028000846114604F0B6BB70B50C4615461E4682
S315000028100C30FFF7ECFF38B1049B324629462046C0
S31500002820BDE8704003F0B3BE70BD002070470000E5
S31500002830704704F01FBF10B504460521112001F0B2
S315000028401FFE00220021022001F0DAFF1E491F4868
S315000028500A6802400A600B681D4A02EAC422134352
S315000028600B604B6818404860486810434860012276
S315000028700121022001F0C4FFBDE81040042111200F
S3150000288001F0FEBD134800680003C00D704770B527
S31500002890054611480C4682B001884FF6FF76ADF822
S315000028A0006002237F22684604F06FFFBDF8000037
S315000028B0B04205D02880BDF800002080012076BDFA
S315000028C0002076BD000000002C400E40FF07F0FF00
S315000028D000F80F0030400E4022AA0200EFF31180EC
S315000028E0602181F31188704780B505F065F905F020
S315000028F070F980B202BD80B505F05EF905F069F9A0
S31500002900FA21B0FBF1F080B202BD80B505F054F9B2
S31500002910BDE8044005F05DB980B504F052FE1848E4
S3150000292000214160001D04F0ADFF20B139210FF2F6
S315000029308800FDF7F1FE002002BD11490120087054
S31500002940704770B5044682B02268002502B91BE0C4
S3150000295000F00DF801201BE070B50C4682B022682D
S31500002960002502B910E000F002F8022010E0044E43
S31500002970044B357000950021706805F006B800001C
S31500002980507600203B29000005F03CFA002076BD79
S3150000299005F0CCFA307828B97068214605F0C6F8FB
S315000029A0852501E025603570284676BD0146002262
S315000029B00020D1E700F008B873797374656D2D7443
S315000029C0696D65722E630000704780F31188704749
S315000029D001207047DFF8C403002120F8801B002285
S315000029E0FF2101704170C27002714171827170479E
S315000029F038B50446402C154606D100F03FFC00F0E1
S31500002A008020B0F1004F03D000210020FFF7E0FF47
S31500002A10DFF88C03290018BF01210470417000F013
S31500002A2075F9BDE8314001F00ABB70B504460D46A4
S31500002A3016468D2C08BFFFF7CBFE324629462046A8
S31500002A40BDE87040D4E7F8B5DFF85043FFF746FF1E
S31500002A5004F18305AE78FF2E5CD0FF21A970FFF745
S31500002A60B4FF30001CBF402E8F2E1BD103F0ECF9B3
S31500002A70400917D0E01C05F05AFA00F44060B0F5A2
S31500002A80406F05D104F10801002005F07BFB05E04D
S31500002A9004F1080005F04BFA00F080FFA1780D3133
S31500002AA005F0C7FE002E207816BF8F2E01270027BF
S31500002AB0022802D0CA2100F08FF8380011D0A01CDD
S31500002AC000F0BDF868B1E87838B1012020702921FE
S31500002AD0BDE8F440B34805F0C7BEFEF70CFB312055
S31500002AE015E0FEF708FB402E06D16078411E6170A6
S31500002AF050B1BDE8F1402DE08D2E05D100224FF6F4
S31500002B00FF71202000F009FE07B100263046BDE81F
S31500002B10F240A7E0FFF759FF2078032804BF002002
S31500002B2000F0A0F804F1810002F06DFCFF280AD045
S31500002B302978491E297006F01BFA207818B9BDE8D5
S31500002B40F14006F0CEB8F1BD7DE701224FF47A716F
S31500002B5095481BE180B5012006F0CAFC06F068FC2A
S31500002B609249C0B9487830B100F088FB00280BD5EF
S31500002B70FFF75BFE40B100F081FB40054CBF032030
S31500002B8001200021FFF724FF01224FF47A718648C5
S31500002B9000F0FCF81BE001280DD10020487000F081
S31500002BA06DFB40054CBF02200020814940F011001A
S31500002BB0FFF70EFF0BE0022805D1002200218D2031
S31500002BC0FFF716FF03E040F26B1100F005F8BDE8D1
S31500002BD00240002006F08CBC0FF2EC10FDF79CBD05
S31500002BE038B5044600208DF800006C4D287818B1E1
S31500002BF04FF4BB71FFF7F0FF0220287085F8804084
S31500002C006A46A91C204605F04FFF68494870694886
S31500002C1000786870FFF79EFF31BD06F087BB0100A4
S31500002C2080B508BF012002016349002006F076FC4A
S31500002C30002002BD6049002006F0AFBC704710B509
S31500002C40441C204605F073F900F00700032807D15D
S31500002C50204606F04DFD205C042801D1012010BD60
S31500002C60002010BD38B504464C4D7E220021A81C1C
S31500002C7006F037FE0020287006F033F895F880102D
S31500002C802046BDE8344006F02DB870B504460D4622
S31500002C901646FEF7A9FB60B13EB12046FFF7CFFF0F
S31500002CA018B1607840F0200002E0607800F0DF00A4
S31500002CB060702946204602F058F90146FF2924D0C3
S31500002CC0364D3E4E05F18104204602F087FB15F88D
S31500002CD0830F401C2870C0B2318881420BD26878BD
S31500002CE0401C687007E0204602F08DFB02F0BAF83F
S31500002CF02878401E2870308829788842F3D300F05F
S31500002D0005F8BDE8704001F09AB970BD2C4800780E
S31500002D1005F09ABE10B5214C2078012806D121492C
S31500002D2000200870FEF7E7F90320207010BD10B5EB
S31500002D301C49002008700024FFF7D0FD17490A78C7
S31500002D40012A02D1032201240A70FFF73EFE2CB1AC
S31500002D50FEF7D1F9BDE81040312083E710BD0F48DA
S31500002D600178481E8041C00F7047FEF7DFB9FEF7B5
S31500002D70D9B90A4890F88310002904BF813002F0BF
S31500002D808DBB002070470F4802F08FBBFFF70ABDCE
S31500002D9002480078012818BF0020704730780020CC
S31500002DA0B5780020B878002032780020FC6A002030
S31500002DB04B2B0000EB6B00201B2C0000B06B00209F
S31500002DC0B97E0020B17800206C6F7765722D6D6139
S31500002DD0632D65667233322E6300000010B53548E8
S31500002DE086B0016841F4807101604FF41671324873
S31500002DF0016002AC31494160314901674FF4F0711D
S31500002E00816001202F49086006F092FD04F06DFDF7
S31500002E1006F079FE2C48D0E90023CDE900230120F5
S31500002E208DF80300684607F010F804F0EFFFFFF78F
S31500002E3073FD26480FC884E80F0008208DF814009B
S31500002E4002A807F091FA06B010BD07F09BBA07F08A
S31500002E509ABA80B50021002000F012FABDE80140C0
S31500002E6007F092BA07F091BA032004F0F3BC000011
S31500002E7010B507F0CCFA044607F0CDFAC0B208B98F
S31500002E80012C07D1072C11D8DFE804F0041006083E
S31500002E90080A0C0E002010BD092010BD022010BD2E
S31500002EA0032010BD0B2010BD062010BD44F080008D
S31500002EB010BD000000000E408C420E404A5D050029
S31500002EC028E2160010300E406CA1020024A2020077
S31500002ED00C3003F075BD38B50D46044689B2FFF7D0
S31500002EE035FB010005D1A9B22046BDE8344003F008
S31500002EF00CBD32BD70B50D4684B02B7E6A7EA97EB0
S31500002F00044607F0F4FA684605F10C010C22FFF7B7
S31500002F1071FA6946204604F02FFA291D204600F072
S31500002F205EF9060003D1204607F00EFB0646300088
S31500002F3005D10FF22411204604F019FA0646300096
S31500002F4003D1204607F07FFA06462968204600F09E
S31500002F5009F8304604B070BD0C30CBE707F06CBA08
S31500002F600C30FBE770B58AB004460D4668460FF292
S31500002F70C4012422FFF74EFA05B96D46002601E08A
S31500002F80010005D135F81610F2B2204607F07BFA9B
S31500002F90010006D105EB4600F2B2C188204607F0D3
S31500002FA078FA010007D105EBC60000F10C010022FA
S31500002FB0204607F07FFA761C032EE1DB0AB070BDCF
S31500002FC0032ABCBF0C3007F05EBA01207047032A03
S31500002FD0BCBF0C3007F05DBA01207047032ABCBFA6
S31500002FE00C3007F067BA0120704738B500F015F8C5
S31500002FF028B121462846BDE8344007F06BBA0220C6
S3150000300032BD38B500F009F828B121462846BDE89A
S31500003010344007F055BA022032BD00F10C050C46CB
S31500003020284607F007BA0C3007F070BA084603F0D6
S3150000303086B90000FFFFFFFFFFFFFFFFFFFFFFFF57
S31500003040000000000000000000000000000000007A
S315000030500000000000000000000002080000000060
S3150000306003480188034808237F2200F005B800BF03
S315000030702CAA02001C78002030B504467F2A08BF1F
S3150000308000224BF23460814283B041F2F01518D130
S3150000309008237F2241F202016846FFF7EDFF08226E
S315000030A04949684606F024FC28B908237F222946A8
S315000030B06846FFF7E1FF08226946204606F0CEFB88
S315000030C037BDA94211D141480168406821700A0AFA
S315000030D0627020710A0C090EE170A270010A61711A
S315000030E0010C000EA171E07137BD12FB03F001F473
S315000030F07042B2F5805FC1F30B0503D11A4645F065
S315000031007E610CE0B2F5005F1CBF01F47041B1F5C1
S31500003110405F08D145F07C611A4641F4011141181F
S31500003120204606F09BFB37BD2DE9F84307460024F1
S31500003130F807884615466FF00F06DFF8949002D51B
S31500003140502100F049F8E80702D5512100F044F873
S3150000315007F47041B1F5805FC7F30B000CD140F066
S315000031607E64B4F17E6F264604D32819401E1949A1
S31500003170884210D356210CE0B1F5005F18BFB1F5B7
S31500003180405F05D140F07C6444F40114264602E019
S315000031905D2100F021F8002706E0F05DFF2802D04F
S315000031A0672100F019F87F1CAF42F6D36A08414642
S315000031B0204607F031FA28B14846BDE8F4437021AD
S315000031C0FDF7AABABDE8F18364A10200F081E00F21
S315000031D058A102000008E00F4846FDF79DBA70B5F9
S315000031E00D4682B00446287858B90021204603F0DF
S315000031F078FD0021204603F0EBFD0021204603F078
S31500003200EFFD2878002814BF0420287900F027F85D
S3150000321014BF287968798DF801002046FFF78FFAE8
S3150000322006001AD12878002814BF0220A87900F0D9
S3150000323016F814BFA879E8798DF801002046FFF743
S315000032405CFA060009D1287838B16988204603F06F
S3150000325075FD0121204603F044FD304676BD8DF80C
S31500003260000069462878002870470C3003F0B0BD8E
S315000032700C3003F0BFBD084604F0AEB8002070471E
S3150000328001207047002070472DE9F047DFF8C0465F
S31500003290DFF8C0562068DFF8C0A6DFF8C086DFF882
S315000032A0C096E8612862002627E02068F6B2482129
S315000032B011FB06F1471848220021384606F011FB9B
S315000032C098F800003870761C0020387378730B204D
S315000032D0B8731420F8734FF6FE7038824FF6FF70FD
S315000032E0788207F0D7F9387607F0D4F9787607F0C0
S315000032F0D1F9B8769AF80000F876F0B299F800108D
S315000033008842D2D3281DBDE8F0470222FF2106F0ED
S31500003310E8BA2DE9F041DFF84C560FF2686804462A
S3150000332095F9000010F1010F03DA5B214046FDF725
S31500003330F3F9DFF82C7639788C42264605D3FE2E33
S3150000334003D05D214046FDF7E7F92878DFF804163B
S31500003350401C287040B20844047438788442DFF870
S31500003360F005006828BF0E78482212FB06F21044CA
S31500003370C861BDE8F08110B5DFF8E84594F90000B2
S31500003380002802D56E2100F0A6F82078DFF8C415D3
S31500003390401E207040B2DFF8C8450A78247800281D
S315000033A04EBF10460818007CA04238BF0246DFF820
S315000033B0A005006848235A431044C86110BD10B5E3
S315000033C00020DFF8901500E0401C00F07EF808D2DF
S315000033D0DFF87C35C0B21B68CA6900F070F8F3D11B
S315000033E010BD892167E0DFF87C0590F9000010F137
S315000033F0010F01D10120704700207047FE2088E7A9
S31500003400DFF850050078704738B50446FFF7EBFF44
S31500003410DFF8405550B9DFF84C0590F90000284414
S31500003420007CFE2802D0A52100F055F8DFF8301503
S3150000343009788C4201D3B12032BDDFF814052C7017
S315000034404821006811FB04F10844E861002032BD00
S3150000345038B5DFF81005DFF8FC5490F9004028195C
S31500003460007CFE2807D0FFF7BEFF20B9C22100F07E
S3150000347032F8FF2032BD611E00E0491E49B2080045
S3150000348004D46818007CFE28F7D032BD287832BDF7
S3150000349010B50020DFF8BC1400E0401C00F015F861
S315000034A008D2DFF8AC34C0B21B680A6A00F007F82D
S315000034B0F3D110BDE12100F00EF8FF2010BD482425
S315000034C014FB00F423449A427047DFF894341B78C7
S315000034D0C2B29A4270470FF2AC40FDF71DB910B563
S315000034E0FDF74BFBDFF86C44216A897B884203D0E9
S315000034F00846FDF7F1FA50B9FDF743FB0146206A8D
S3150000350090F90F00814204D0FDF74AFB08B1012073
S3150000351010BD206A008AFDF795FF206A408AFDF7F4
S31500003520AFFF206A007B012818BF0020FDF776FF59
S31500003530002010BDDFF8281410B50978884204462B
S3150000354003D340F20511FFF7C6FFDFF81C0400782D
S3150000355008B9702010BDDFF8F80300F06BF8DFF84B
S31500003560F4130862BDE81040B9E7DFF8FC130870F1
S31500003570704710B5DFF8F4430020207005F018FFFF
S3150000358020B92046BDE8104005F064B900F058F8AF
S31500003590DFF8CC130978884206D3FFF710FF0446FC
S315000035A000F010F818B12046BDE81040C2E710BD83
S315000035B0DFF8A003006A008A7047DFF89803006A04
S315000035C0408A7047DFF88813096848225043084448
S315000035D0407B02281CBF1128432801D101207047D7
S315000035E000207047DFF868130968482250430844F2
S315000035F0007B01281CBF0228032801D10120704747
S315000036000020704710B5002400E0641C00F02CF880
S315000036100ED2FFF7D7FF0028F7D0CD48E4B200F06E
S3150000362009F8007B012818BF0228EED1204610BDFC
S31500003630FF2010BD0068482111FB04F108447047C3
S3150000364010B5002400E0641C00F00EF80AD2FFF763
S31500003650C9FF0028F7D0E0B2FFF7B4FF0028F2D088
S31500003660E0B210BDFF2010BDBD490978E0B2884226
S31500003670704770B500240025B94E08E0FFF749FEF3
S3150000368002F0C7FB00B10124FFF775FE6D1C31780F
S31500003690E8B28842F2D3204670BD80B5FFF7D0FF6E
S315000036A0FF2801D0012002BD002002BD38B5B04C74
S315000036B0054620680321A94088432060FFF77FFE66
S315000036C02168A8400843206031BDA9490968C14066
S315000036D001F00300704738B504460D46FE20FFF79B
S315000036E018FE2946204607F05AF9BDE8314042E661
S315000036F010B50446FE20FFF70CFE204607F096FAAA
S31500003700BDE8104037E682B08DF80010DDE90023F1
S3150000371011461A4602B007F0E3BA30B585B0044642
S315000037208DF8042002F090FA0546204602F09AFA37
S3150000373080F001010D4204D002F086FBCDF808D0DE
S315000037400AE0294308BF0DF1020004D0054203D068
S3150000375002F07AFB03A80290FE20FFF7DAFDDDE90E
S3150000376001010A460146204607F0BAFAFFF703FEB2
S3150000377005B030BDF8B57A4E764D0446307868709F
S3150000378000270DE0FFF7C5FDE8694169FFB244F87F
S31500003790371004EBC701C07E08717F1CFFF7EBFDF5
S315000037A03178F8B28842EDD3F1BDF8B5044600256C
S315000037B0684E0DE02846FFF7ACFDF06954F8371067
S315000037C041616D1C04EBC7010979C176FFF7D3FD92
S315000037D06349707809788142EDB238BF08462F46B2
S315000037E08742E7DBF1BD38B5FFF7E9FD5C4A594B87
S315000037F01278002100E0491CCCB294420ED29C788B
S31500003800C9B20C1994FBF2F502FB1544E4B21C4450
S315000038102579854202D0FF2DEDD1207131BD70B5DD
S315000038204C4C4F4EA0783178204405798D4203D315
S3150000383040F22121FFF74FFEA0782218FF211171D7
S31500003840401C317890FBF1F201FB1200A070284673
S3150000385070BD4048817808440079FF2801D00120D6
S3150000386070470020704710B5FFF717FF78B1394C45
S31500003870E069007B001F022809D21420FFF716FF1B
S3150000388004F10800BDE81040642104F0EDBFBDE876
S31500003890104005F057BB80B52E4900200872142051
S315000038A0FFF713FFFFF735FD05F04CFBBDE80140C0
S315000038B061E500002DE9F8438146FFF780FDB9F187
S315000038C0050F0FF2C0082B4C224F2B4D2B4E35D82F
S315000038D0DFE809F0030A0A1B1B1BF86900F128013F
S315000038E000200860886030E0FFF7D7FE20B14FF473
S315000038F016714046FCF710FFF869316840F8281F3A
S3150000390021688160297801711FE02A783568F96994
S315000039100E2313FB02F6354413FB00F32B4441F848
S31500003920283F236803EB8202154B1B7802EB8302C8
S3150000393002EB800088600120087106E04046BDE881
S31500003940F44340F26A21FCF7E7BEBDE8F1830000CC
S31500003950D4680020EC770020CA6B0020A17E0020EE
S31500003960C06B0020EA6B0020E96B00201078002075
S3150000397018780020DC680020C16B0020D868002081
S31500003980BB6B0020656D6265722D6D756C74692D5B
S315000039906E6574776F726B2E63000000F8B50F4D7D
S315000039A02E68040001D1FF20F2BDFEF797FF0C4FF1
S315000039B029683A7821F8124036F8021BA142FBD159
S315000039C0FFF703F829683A78B01E401A4010C1B2D2
S315000039D0914208BFFF20C0B2F2BD00BFAC68002014
S315000039E0BB6B0020DFF87C1500200870FF21DFF894
S315000039F07805017001717047F8B50446FEF774FF4B
S31500003A000546DFF86805DFF860750688204605F08C
S31500003A108BFEB0F5006F16D1204605F0A9FEFFF724
S31500003A20BDFFFF280DD000F025FA2146381D01F014
S31500003A30D5FCDFF83005017881B10089A9190E1A85
S31500003A4010E09320F2BDFF21384601F0F2FC052874
S31500003A5002DA21463846EAE73920F2BD05813146C9
S31500003A6004F002FFB2B20321204605F0D4FD032282
S31500003A700521204605F0DAFD204601F0E5F9002093
S31500003A80F2BDF8B50446DFF8E0040078FF2813D04D
S31500003A90DFF8DC5429680E5C3746384605F059FED7
S31500003AA001460822204605F023FF08B90120F2BD91
S31500003AB02868C75DB742F0D10020F2BD2DE9F84372
S31500003AC0044605F0DAFD000B00F00106204605F07D
S31500003AD064FE0546204605F04FFEB0F5404F14D172
S31500003AE0002E62D02946002000F07FF90446FF2C04
S31500003AF05BD0002105F034F9002856D000F09BF980
S31500003B0040F080020521204646E0284604F00FFAE0
S31500003B100546FFF743FF0446FF2C08BF002045D0AB
S31500003B2001200021224607F0D7F9DFF84824D2E920
S31500003B30008948EA000349EA0107C2E90037A6B34B
S31500003B40DFF83464336833F814704FF4E4631F42CB
S31500003B502BD0BB0623D5280A8DF801008DF800501E
S31500003B606946012000F041F90546FF2D08D130686D
S31500003B7030F814104FF6DF72114020F8141014E0DC
S31500003B80002105F0EDF880B10521284605F055FD28
S31500003B9040F080020521284605F048FD05E0D2E9FF
S31500003BA0024520432943C2E902010120BDE8F28310
S31500003BB038B5044605F0B8FDB0F5006F0CBF012519
S31500003BC00025204605F0C5FD04462146284600F09E
S31500003BD00CF9FF2810D18DB1204604F0A8F9FFF7A3
S31500003BE0DDFEFF280AD0DFF89013096831F81000CF
S31500003BF04FF4E061084201D0012032BD002032BD01
S31500003C002DE9F04107460C4605F08EFDD64DB0F580
S31500003C10006F0CBF281D28460078FF2845D0D449E0
S31500003C200968085C0646B7423CD1FEF757FE804657
S31500003C300521304605F001FD00F07F00471EFAB26F
S31500003C400521304605F0F2FC200018BF312C01D0CA
S31500003C50FFB207BBFEF742FE0746304605F064FD9D
S31500003C60B0F5006F314605D1281D01F0E2FB00F0EA
S31500003C70E6F802E0284601F0DCFB3846FEF7A5FE32
S31500003C804046FEF7A2FE2146304608F0C5F830460B
S31500003C9001F0E8F804E000F0D2F84046FEF795FEA1
S31500003CA0012003E08E5D8642BDD10020BDE8F08193
S31500003CB010B5FEF719FEAB4C21892081411A88B256
S31500003CC000F0E1F84FF6FF71884202D10020207023
S31500003CD010BD01462046BDE8104004F0C5BD4FF6B4
S31500003CE0FF70D0E02DE9F84F00F079F808BF904258
S31500003CF073D00024012793469046FEF7EFFD8246D7
S31500003D009C480025D0E900010BEA010207EA0006FB
S31500003D10AA4208BFAE421DD0FE436FEA0B09954A80
S31500003D20304001EA0901C2E900010125D2E9020198
S31500003D300BEA010307EA0002434508BF424509D0E2
S31500003D408C488C4AD0E90201304001EA0901C2E9F7
S31500003D500201A8465046FEF738FE8DB38648006835
S31500003D6010F8140080072BD58448006830F81450EA
S31500003D7083480078C0070AD582490968002041F8BF
S31500003D80240081480068015D41F0F0010155B8F159
S31500003D90000F09D07848006830F8141041F400612B
S31500003DA020F8141005F02EF8002000902B461A2259
S31500003DB06BA1032001F0C9FB0021284608F05CFC3A
S31500003DC04FEA4B0040EAD77B641C7F00402C04DAA4
S31500003DD000F005F808BF90428ED1BDE8F18F654826
S31500003DE00022D0E90001914270472DE9F041884652
S31500003DF05D4900281ABF091D022508250878FF28F5
S31500003E0016D05B4E31680F5C3C4600F014F8000695
S31500003E100AD4204605F09DFC01462A46404605F098
S31500003E2067FD08B9204604E03068045DBC42ECD169
S31500003E30FF20BDE8F0810521204605F0FEBB70B5E8
S31500003E400021202004F03AF947480079FF2810D0D5
S31500003E50474C21680D5C2E46304605F089FCFFF77D
S31500003E609DFDFF2801D000F005F82068865DAE4272
S31500003E70F2D170BD4049096831F8102042F02002A5
S31500003E8021F8102070472DE9F84F80460FF2FC000C
S31500003E90354E0068364F00904FF6FF7A344600E004
S31500003EA0341DFEF71BFD814606E0204601F0ABFA05
S31500003EB02946684601F092FA204601F0EFFA40B929
S31500003EC038682178455C0321284605F09BFB804530
S31500003ED0EBD2301D844208BFFFF7B1FF4846FEF71C
S31500003EE074FD2078FF2819D0396811F800904D46E6
S31500003EF00321284605F086FBA0EB080B1FFA8BF280
S31500003F000321284605F087FB3868455D51461FFAB0
S31500003F108BFA8A4588BF8A464D45E9D1301D8442D1
S31500003F20BED1684601F0BAFAA8B9684601F06BFA44
S31500003F30044605F0ACFBFFF7ECF9FFF77CFF000643
S31500003F4003D44221204607F067FF204600F08AFF8F
S31500003F50FFF711FAE5E71FFA8AF0BDE8F28F0000D5
S31500003F6042574200247800203C6B0020946B0020CE
S31500003F70A8680020906D0020B0680020AC68002082
S31500003F80B8790020B4680020F8680020FF0000001F
S31500003F900020704770477047019870477047704718
S31500003FA0702008F0B6BB70B5044643381E4D08D0E5
S31500003FB0401E012809D9801E01280ED9C01F32D003
S31500003FC02AE0BDE8704009F0D7BE09F006FF20B12F
S31500003FD009F0D2FE0028FBD170BD144E307810BB1C
S31500003FE001203070002009F033FF442C11D00CD38F
S31500003FF0462C05D00DD3472C07D140F6010001E031
S3150000400040F60200FEF70CF803E0EE212846FCF726
S3150000401083FB0020307070BD2846BDE870404FF429
S315000040208071FCF779BB70BD34A20200A57E00202A
S3150000403070470020704770477047002070477047F0
S31500004040FCF709BD09F056BF890001EB401000F1ED
S31500004050844002607047890001EB401000F1844003
S315000040600068704710B5DFF8544712212046FFF765
S31500004070F2FF0028F9D12068000C00F0030010BD03
S315000040800122DFF89C1610B5884232BF0022DFF805
S315000040909416884201D2144600E002241021DFF86B
S315000040A08806FFF7D1FFDFF81807016821F0807155
S315000040B041EA0461016010BD70B5DFF87026D36B6C
S315000040C003B1012341F67134D463DFF8F85614685E
S315000040D0002405EBC40636798E4203D155F83460C8
S315000040E0864202D2641C052CF3D3052C0EBF032096
S315000040F005EBC4004079116821F0407141EA006087
S315000041001060DBB20BB10020D06370BD80B509F042
S3150000411036FFBDE804400021CEE7CDE7C01C0F28DE
S3150000412001D2000770474FF0704070470000000052
S3150000413038B50446002500F049F9DFF88C26DFF88B
S315000041407016944208D0DFF88426944206D0DFF831
S315000041508026944204D006E0086802E0486800E041
S31500004160886800F00700401E04281CD8DFE800F02D
S3150000417009030D06090009F039FF04E009F033FFD1
S3150000418001E009F02DFF05460DE009F0EBFEDFF832
S3150000419030160968090E01F001010122491C02FAD4
S315000041A001F1B0FBF1F5284632BDDFF85C174A682D
S315000041B0D20702D40A680242FCD1704780B500F0EB
S315000041C0C9F8401C02BD000070B502120C4602F090
S315000041D00F020021521E092ADFF83C5814D8DFE8E6
S315000041E002F005141313071619131C20DFF83855AF
S315000041F0C0F3043611B10846FFF7D7FF2246314611
S315000042002846BDE870401FE770BD1035F0E7303531
S315000042100121EDE738351021EAE740354FF48031CA
S31500004220E6E7DFF81C58E3E770B5DFF8A815DFF816
S315000042309C250E68DFF89015DFF88445012510F4FB
S31500004240781069D0B0F5003F2DD0B0F5802F24D07E
S31500004250B0F5002F60D0B0F5202F2AD0B0F5402F52
S3150000426052D0B0F5602F72D0B0F5901F47D0B0F5A0
S31500004270A01F27D0B0F5B01F36D0B0F5D01F1FD085
S31500004280B0F5E01F2ED0B0F5001F38D0B0F5281FCE
S315000042901FD0B0F5381F42D058E009F072FEE16831
S315000042A0C1F308210AE009F06CFEA168C1F30821F8
S315000042B004E009F066FE6169C1F30421491C1BE0B4
S315000042C008461EE00846FFF733FF216A01F00F019A
S315000042D010E00846FFF72CFF0646206AC0F30110DF
S315000042E0C64034E010460CE01046FFF721FFA16AF5
S315000042F0C1F3011105FA01F1B0FBF1F627E0DFF891
S31500004300D004FFF715FF1FE0DFF8380700F05EF86E
S3150000431007281CD0092819D109F033FE14E0DFF86C
S31500004320280700F053F804280CD007280FD00828D7
S315000043300CD109F026FE2168C1F30421491C01FBBA
S3150000434000F604E009F038FE064600E00026304696
S3150000435070BD0000031103F00F0301225B1E082B42
S31500004360DFF85C1430D8DFE803F005070B0F1115F2
S31500004370242F2F00086800E04869C0F30420704726
S315000043800868C0F300607047C86800E08868C0F33A
S3150000439008207047DFF8B436984204D0DFF8B0360C
S315000043A0984204D010E0086A00F00F0008E0086A9E
S315000043B004E0DFF8A036984206D1886AC0F30110FF
S315000043C002FA00F0401E704700207047014601F0D7
S315000043D00F010120491E0729DFF880264ED8DFE8A5
S315000043E001F0040F134D21334D3B506A00F00700D6
S315000043F002283FD002D3042804D01FD305207047DB
S31500004400116910E002207047516901F00701491E49
S31500004410042934D8DFE801F0120304141600F1E78A
S3150000442006207047916901F00701012906D002298B
S31500004430E8D0042904D0052904D07047032070472A
S315000044400A2070470B207047116811F001010FD048
S31500004450012914D109207047DFF80416096801F014
S315000044603001102904D0202904D0302904D0704707
S3150000447007207047042070470820704700207047C7
S315000044802DE9F843804600260324B8F1110F0F46A4
S31500004490A14612D1042F02D109F08EFD08E0052FA6
S315000044A00BD1DFF8C005DFF8C0150068884204DBD1
S315000044B006001CBF002105F07EFC08F00F00401E20
S315000044C00728DFF898550FD8DFE800F0043E44953A
S315000044D041799583022FDFF8480206D0032F29D0B1
S315000044E0042F2AD0052F2DD085E004244FF0000993
S315000044F001220121484600F083F9FFF707FE36B195
S315000045001221DFF8B802FFF7A6FD0028F8D16C608B
S3150000451000F083F8FFF7B4FD09F024FD0446FFF729
S31500004520A1FD01462046FFF7F8FD002E63D1BDE848
S31500004530F443FDE04FF00109DAE70224A146FFF754
S315000045409FFDD5E70124FAE705F1100404E005F123
S31500004550180401E005F11404012F0AD0022F0BD034
S31500004560032F10D0062F15D00A2F1FD00B2F1FD0C8
S3150000457041E0002020603EE001220121002000F001
S315000045803FF90220F6E701220121012000F038F967
S315000045900120EFE709F0E6FCFFF772FD012200219A
S315000045A0DFF87404FFF750FD0320E3E70420E1E79A
S315000045B001220121062000F023F90520DAE7072F62
S315000045C002D0092F02D016E0002000E0012028606A
S315000045D011E0012F06D0042F16D0072F0DD0082F7B
S315000045E019D008E00020DFF878140A6822F03002BB
S315000045F042EA00100860BDE8F1830122012104208F
S3150000460000F0FEF80120EEE701220121022000F071
S31500004610F7F80220E7E70320E5E7DFF83C0403E6C6
S315000046206D4ADFF8501490421FBF6C4A90426C4AA4
S31500004630904215D06B4A904214D06B4A904213D0E8
S315000046406A4A904212D06A4A904211D0694A904210
S3150000465010D0694A90420FD0684A90420ED00FE0BF
S3150000466008687047C868704788697047C8697047A6
S31500004670086A7047886A7047C86A7047086B70474F
S315000046800020704770B50446FFF7CAFF0646DFF8FC
S31500004690D4030568046000F08EF8052808BFFFF70C
S315000046A035FD18219848FFF7D6FC0028F9D14A496C
S315000046B08C4208D049498C4207D049498C4208BFF0
S315000046C026F0C06604E0022000E0012060F35A668E
S315000046D000F071F8052804BF2046FFF7D1FCA5427B
S315000046E003D20121204605F066FBDFF88003066051
S315000046F000F061F8052808D109F034FC0646FFF7FA
S31500004700B1FC01463046FFF708FDFFF786FFFFF7CD
S31500004710B7FCA54202D3BDE8704009E070BD0000B9
S315000047200148E8010190D00300400E4004000E400D
S315000047300121002005F03FBB70B500F03BF80122D7
S315000047400021022000F05CF8217CDFF82C530020C9
S315000047500229296808BF0120490840EA410028606B
S31500004760082122782846FFF76FFCA088617A41EA83
S31500004770C020A860EE68207AFFF7D0FCE28806F039
S315000047807F6141EAC221A27A1143227A41EAC2112B
S315000047900843E860A17B607B090141EA0030E17BC8
S315000047A00843217B40EA0140286170BD00000000FB
S315000047B080400E400446112008E6000004300E40FA
S315000047C000410E4034A0020002001A0003001C0043
S315000047D0050020009468002040420F0080841E00DF
S315000047E000093D00C0CF6A00405DC6000024F40009
S315000047F0C0EA210180BA8C010048E80180D5430255
S315000048002DE9F84F06288246904633D8DFE800F0B7
S315000048104E493F0444795500012602200127002411
S315000048200029DFF81892944D66D0BAF1020F04BF42
S31500004830286810F0300F4FF0000B0CD18F4800683D
S315000048402868C0074FF0010B05D5286820F0300016
S3150000485040F001002860EE6300F058F80028FBD015
S31500004860B8F1000F4DD0394600F051F80028FAD0C3
S31500004870BAF1020F45D1BBF1000F42D02868C0073C
S3150000488022D501222021022000F0C8F820E00426CB
S31500004890082003270224C3E7102620200527042426
S315000048A0BEE74026802007270624B9E74FF4807626
S315000048B04FF4007009270824B2E74FF480464FF4FE
S315000048C000400F270E24ABE70021022000F084F8F9
S315000048D0022000F01FF80446012200210220FFF703
S315000048E08FFF2146022000F02FF8EE63394600F0D4
S315000048F00EF80028FAD004E0E86300F007F8002874
S31500004900FBD1BDE8F18F000040410E4021464846EC
S31500004910FFF7A1BB401E0328544912D8DFE800F078
S31500004920020C06080869C0F308007047086800E032
S31500004930886800F07F00704751480068C0F30A009D
S31500004940704700207047000070B5401E0D460328D2
S3150000495005F07F01454C464E3DD8DFE800F0022ABF
S31500004960101DC5F308051A213046FFF774FB002811
S31500004970F9D12069400A45EA4020206170BD0D4604
S3150000498018213046FFF767FB0028F9D12068C009D7
S3150000499045EAC010206070BD0D4619213046FFF76C
S315000049A05AFB0028F9D1A068C00945EAC010A060EA
S315000049B070BD22480068606920F0300040F01000A9
S315000049C06061C5F3C310FFF7A9FB216A2D4A1140A8
S315000049D029430843206270BD2748026812F0300F51
S315000049E018BF002907D0202902D0302903D005E0BE
S315000049F04FF4000103E04FF4400100E02249C26E8B
S31500004A000A408A42FBD1490204D5C06F800A00F0F1
S31500004A100100704701207047B0400E4010B50228D3
S31500004A200AD10B0004D0194B4FF480645C64196002
S31500004A3012B1BDE81040CFE7012010BD90400E40F6
S31500004A4050410E4006000C0098002E00600614002F
S31500004A5060162A00701716000005080070400E4008
S31500004A605C410E4084690020012D310110400E404A
S31500004A7040410E403082E00F24400E403C300E4054
S31500004A809C400E4000F8FF0FFFF3E17F64400E40AC
S31500004A9010B51B4B1C6890FAA0F2B2FA82F224EA17
S31500004AA0000091400843186010BD164901200860B7
S31500004AB0704770B51448154B01680020002203EBBF
S31500004AC0C20453F832506468114E366876070DD426
S31500004AD0B5F5007F18BFB5F5806F05D0B5F5006F49
S31500004AE018BFB5F5803F01D144F48074294202D045
S31500004AF0214208BF2843521C092AE0D370BD00009A
S31500004B0000500E4008500E4004500E405CA00200BB
S31500004B10E841E00F0168C90707D58168890704D411
S31500004B208168C907FCD401214160704780B5012125
S31500004B307E48FFF749FB7E4901200860002009F006
S31500004B408BFA012304220221052009F0CCFA012068
S31500004B5000F0BEFC00F00EF800F0EBFC09F0B4FB30
S31500004B60012340227349744809F07CFB73490860AD
S31500004B70C00F02BD10B5012201210420FFF740FE3F
S31500004B806F48704C016841F0010101600022C16864
S31500004B9041F08071C16000236B496C4808606C4825
S31500004BA002606C4A13600223236015236A4C23605B
S31500004BB000230364694B0B65694911604FF48071EA
S31500004BC0684A1160016841F48071016010BD80B5CA
S31500004BD060480168C9070ED563490A6822F4406235
S31500004BE00A60016849084900016001680902FCD4AD
S31500004BF06420FDF71EFE002200210420FFF700FEC0
S31500004C00504900200860574908604D49086001BDB9
S31500004C104B48006800B10120C0B27047D122027033
S31500004C204170090A817051490A78C270501C087097
S31500004C30042070472DE9F84FDFF834A1DFF83481FE
S31500004C400446DAF80000005D461DFDF74DFEF6B29B
S31500004C50002500904FF6FF7B18E0A91EC9B220463A
S31500004C6000F098FA0746594609F03AFB83464D4646
S31500004C7038480068C00709D535480068C00505D51D
S31500004C80D8F800000028FBD088F80070FFF7C0FFB6
S31500004C90EDB228B3B54223DAFDF726FE0099401A95
S31500004CA080B2B0F5FA7F1BDC15B95B270125DFE77B
S31500004CB0012D05F1010903D1DAF80000075DD6E7F9
S31500004CC0F01E854208BF5F46D1D0B01E854208BFA0
S31500004CD04FEA1B27CBD0701E8542BED15D27C6E7A3
S31500004CE0B5420CBF00200120BDE8F28F20490968BB
S31500004CF0095C0429A8BFFFF79DBF0120704710B5C6
S31500004D000E48006890B04022694609F096FA58B1FC
S31500004D10C1B2684600F029F9044621461220FDF783
S31500004D20B2F8204600F09EF810B010BD002508002D
S31500004D301088144238700020F09F0200906800200E
S31500004D40F0ED00E0F00004E0B00F00E055CEACC599
S31500004D50000E00E0800E00E0100004E0FF030040BB
S31500004D600D000100040304E0001000E0977E00201F
S31500004D709C680020200000E0DFF80017096801EBBE
S31500004D8040107047DFF8F8261268115470472DE975
S31500004D90F041040035D0FDF7A1FDDFF8E816DFF895
S31500004DA0E8360E78FF228046FE2EDFF8E0061BD19D
S31500004DB000260E70DFF8D8C6DFF8D86637781F7081
S31500004DC0002708E007F1010E05F807E0DCF80050BF
S31500004DD0EA555FFA8EF796F800E005687745F1DB4D
S31500004DE005EB0E0606F8012C1E78A6420BD24046AD
S31500004DF0FDF7EBFD052000F0A1FB00211B20FEF7CF
S31500004E0082FCFF201EE0361B1E70DFF88C360E7803
S31500004E100F78D3F800E001250EF80750641E0568E8
S31500004E2015F807E081F800E05FFA84FEBEF1000F96
S31500004E30EED1EA5500213046FFF7A4FF4046FDF7C4
S31500004E40C4FD3046BDE8F08110B50446FDF746FDC9
S31500004E50DFF8441609680A5D521C0A55BDE8104081
S31500004E60FDF7B3BD2DE9F041054600F031F80446E3
S31500004E70FDF734FDDFF80C26DFF80C36DFF80C669C
S31500004E80DFF81486FF2D1FD0D8F800104F5D7F1E67
S31500004E904F557F27D8F800E01EF80510394213D188
S31500004EA03168495D00270EF805701F787F1C1F705A
S31500004EB0FF29376892F800E007F805E0157006BF8D
S31500004EC02546FF240D46DDE7BDE8F041FDF77DBD33
S31500004ED080B5DFF8C4150968095C090603D5FFF734
S31500004EE04BFF007802BDFF2002BDB0B504460D465B
S31500004EF0FFF7EEFFFF2818BFFFF7B4FFFF2DDFF81F
S31500004F00987504D13868015D01F07F0106E02846F6
S31500004F10FFF79AFF3868015D41F080010155204690
S31500004F20FFF72AFF0570B0BD0EB478B50446012020
S31500004F30FFF72DFF0546FFF71FFF0646FF2D08BFAB
S31500004F40FF200FD0E1B22846FFF71CFF05A800217D
S31500004F5004E050F8042B06F8012B491CC9B2A14203
S31500004F60F7D3284672BC5DF810FB70B504460D46B3
S31500004F7005F11F000004400D82B0C0B2FFF707FF25
S31500004F800646FF2E0CD02946FFF7FCFE3CB1012059
S31500004F9000902B4600223146204600F002F83046AB
S31500004FA076BD73B500F0C1F8405C15461E46711912
S31500004FB0884203DA4FF4B07100F0DCF830000CD010
S31500004FC0294601A800F0DAF8024606989DF8041072
S31500004FD000903346204600F001F873BD2DE9F843F2
S31500004FE0089CDFF8A8840546894616461F460BE04E
S31500004FF06A5C4254491CB142FADBD8F80000BF1B78
S31500005000AD1910F809900026F8B2D0B14846FFF75E
S31500005010B3FE801956FA87F12029B9BFFFB23E4682
S31500005020C6F12006F6B22100324604D101462846D2
S3150000503004F014FCE1E7012C08BF2946F8D0002152
S31500005040D9E7BDE8F1832DE9F04100F06EF882B0B2
S31500005050055D884616467119C9B2A9421F4605DB89
S3150000506030000CD0204600F04EF808B1182007E0BA
S31500005070009733462A4621464046FFF792FF002016
S31500005080BDE8F6810123DEE70A4600E0521C1378EC
S31500005090002BFBD1521A0223D2B2D4E7F8B504464C
S315000050A001F11F00C50402F11F00C0042D0E000E01
S315000050B005B9012500B90120854222D0DFF8CC636D
S315000050C010DA401BC0B2FFF762FE0746FF2F01D180
S315000050D00020F2BD691EC9B2204600F02BF83168E7
S315000050E00F540EE08A420CD2411EC9B2204600F08F
S315000050F021F804463068005DFFF7B4FE3168FF20F2
S3150000510008550120F2BD38B500F00FF80D46015DD7
S315000051102A462046FFF7C2FF28B129462046FFF758
S3150000512031FE002032BD182032BD0446DFF85003A0
S315000051300068704704E0DFF854231268105C491ECB
S31500005140CAB2002AF7D1704711B50C46DFF8301302
S31500005150096881B0095C8C4203D34FF4FB7100F0FF
S3150000516009F8214601A800F009F8044600F033F9D1
S31500005170204416BD0FF24830FBF7CEBA38B50446C8
S315000051800D46E9042078090EFFF7D4FF207005F0DC
S315000051901F0032BD80B5FFF7D7FF007802BD10B5FE
S315000051A01446FFF7D1FF047010BDB0B5FFF7BDFF81
S315000051B082B0055DFF2C03D140F21621FFF7DAFF1E
S315000051C005F11F000004400DC0B2FFF7E0FD0746E1
S315000051D0FF2F0AD02946FFF7D5FD0095002322466A
S315000051E00021384600F0C6F83846B6BDF8B5044684
S315000051F00D4616460120FFF7CAFD0746FFF7BCFD20
S31500005200FF2F01D1FF20F2BD33462A46202120443C
S3150000521000F020F82118C9B23846FFF7B3FD38462A
S31500005220F2BD10B582B004AC009400F001F816BDD2
S3150000523010B514461A46029B2044091BBDE81040CF
S31500005240C9B207E00CB480B502AAFFF7CFFF02BCD3
S315000052505DF80CFB2DE9F047814615469A464F4608
S31500005260002488460AE03246384604F0F7FA301938
S31500005270BF19441EE4B2641CE4B26D1C44453BDA1B
S315000052802878010038D0312818BF32280ED15AF8B4
S31500005290041B07F8011B3228EDD1641CE4B2A045BB
S315000052A0A4BF081207F8010BE5DA25E034280ED171
S315000052B0211D5AF8040B88451EDB3870010A7970E7
S315000052C0E41C010C000EB970F8703F1DD2E7A0F186
S315000052D033025AF8041B072A38BFA0F1300607D359
S315000052E0A0F14102072A34BFA0F137065AF8046B31
S315000052F0F6B230194045B6DBA7EB0900C0B2BDE8EF
S31500005300F0876049FE200870704770B500F027F8F6
S3150000531000F003F8301880B270BD06022946204618
S3150000532038E700B583B002238DF80420120A8DF801
S3150000533005200122009217E0F8B500F010F8FFF7FB
S31500005340ECFF8619E91CC9B2FFF7E9FF0702A91CA1
S31500005350C9B2FFF7E4FFC01906EB0040F2BD0D46E7
S31500005360691C0446C9B215E70A46014601A8FFF7BB
S3150000537018FE07BD2DE9FC4405B40A9C20001F4613
S3150000538027D089B26846FFF7F9FE0646B9B201A8EA
S31500005390FFF7F4FE0746BE42A8BF3046A4B2C0F1EE
S315000053A020002546C0B2A842B8BF054600F013F853
S315000053B082469DF80000FFF7DFFC2A460AEB07014C
S315000053C0304404F04BFA641BA919EF19A0B2002867
S315000053D0D7D1BDE8FF849DF80400CDE470B504463E
S315000053E00D46FDF77BFA2A4B21781B68FF2908BF7B
S315000053F05D5503D019440E785E550D702570BDE8D5
S315000054007040FDF7E2BA38B50446FDF767FA217831
S31500005410FF22FF2908BFFF2507D01D4B1B685D5CD7
S315000054208D420EBF22705A5D5A54FDF7CEFA2846B9
S3150000543032BDF8B504460D46FDF750FA2178002630
S31500005440FF2915D0124B1B680A46012602E0761C7E
S315000054503A46F6B29F5CAF4208D1DF5D9F54A9423F
S3150000546006D18A4208BFFF22227001E08F42EED1A8
S31500005470FDF7ABFA3046F2BD000000009868002048
S315000054809C680020D66B0020B96B0020A468002021
S31500005490A8680020B86B0020A06800200078FF28CC
S315000054A001D1012070470020704710B5044602E084
S315000054B0FFF7D8FC2046FFF7A6FFFF28F8D110BD5E
S315000054C07061636B65742D6275666665722E630026
S315000054D02F49087070470EB430B504462C48007842
S315000054E020B3FFF795FB08B3FCF798FD0120FFF703
S315000054F04EFC0546FF2D19D0FFF73EFC0221FFF7B3
S315000055008DFB01462846FFF73DFC03AB22462946A4
S31500005510204800F0F6FC30B12846FFF7E7FB10B153
S31500005520042000F00BF82846FFF79CFC30BC5DF821
S3150000553010FB0C220021184804F0D3B9164931F8A3
S315000055401020521C21F8102070470CB480B502AA16
S31500005550FCF7EEFB01BC5DF80CFB0D490978A1B91F
S31500005560010018BF012810D0042818BF05280CD048
S31500005570312818BF332808D037281EBF3B284FF6DE
S31500005580FF71884201D0012070470020704700005B
S31500005590B07E00208550000058760020302818BFC5
S315000055A0322806D034281CBF3628382801D00020DF
S315000055B07047012070470000012100F01F02914052
S315000055C0DFF8C42505E0012100F01F029140DFF855
S315000055D0BC25400942F820107047012100F01F0247
S315000055E09140DFF8AC25F4E710B5DFF8A84530B1F7
S315000055F0012807D0102802D0202803D004E000207C
S31500005600204410BD1C20FBE740F27D11DFF8880521
S31500005610FBF782F8204610BD70B500F08FFAFDF753
S315000056205DF9E188A9420CD22288521A521992FBDE
S31500005630F6F306FB13222280A288AA18511AA1802B
S31500005640E58000F0E6BA70B505460E46FFF7CCFFDA
S31500005650012D18BF202D044640D1A069016890F89D
