S0100000656D3236302D7573622E73333703
S31508004000F0EA0020594802087D4102088141020869
S31508004010A70A0A0100410008041203AC0060D40094
S315080040200000000000000000000000000000000082
S315080040300000000000000000000000000000000072
S315080040400000000000000000FFFFFFFFFFFFFFFF6A
S31508004050FFFFFFFF007007080000000000000000D7
S31508004060FFFFFFFFFFFFFFFFFF000000000000004B
S315080040700000000000000000000000000000000032
S31508004080F0FF002000000000EBFF0020EBFF0020FF
S31508004090F0EA002020540208E84B020890E10020CC
S311080040A03C0F002000000808000001206A
S31508004100F0EA0020594802087D4102088141020868
S3150800411089410208854102088D41020804420208C5
S315080041200442020804420208044202080442020841
S31508004130914102080442020804420208FFB6010837
S315080041404541020804420208D7CA01080442020887
S315080041504F230208044202080442020804420208E5
S3150800416069D4010825B60008F9DD00089936020861
S3150800417004420208234002086B4002088DB000087A
S315080041800FDC010804420208044202086D420208D4
S3150800419010B58C0801EB5474E408A1EBC40103685C
S315080041A0012409E010B54C0801EB9474A408A1EBAE
S315080041B08401036889000F2400F062F8016010BDCD
S315080041C070B500F0E7F8044600F0E4F8054600F09C
S315080041D0E1F800F00106182C05F00F05A8BF3620F7
S315080041E03CDA00F0A9F84FF4F051084218BF38201D
S315080041F034D1E00803D0022809D004D30CE03246B3
S315080042002146554806E032462146544802E03246E1
S3150800421021465348FFF7BCFFA00805281DD8DFE84C
S3150800422000F003070B0F13172A4621464D4812E0E4
S315080042302A4621464C480EE02A4621464B480AE0C3
S315080042402A4621464A4806E02A462146494802E0C7
S315080042502A4621464848FFF7A5FF0020BDE87040DA
S3150800426000F0B1B84B0810B501EB93739B08A1EBAE
S315080042708301890003880F2400F002F8018010BD2D
S315080042808C40A34302FA01F1194370478B0810B515
S3150800429001EB5373DB08A1EBC30103780124FFF795
S315080042A0EFFF017010BD2DE9F84300F073F80446DE
S315080042B000F070F8054600F06DF8064600F06AF85A
S315080042C0074600F067F805F00F0806F0010500F04C
S315080042D00109182C07F00F06A8BF362024DA00F0CB
S315080042E02BF84FF4F051084218BF38201CD160084B
S315080042F004EB907087082148424600F019F82048D8
S31508004300324600F015F8A00804EB5070C6081D48A0
S315080043102A4621463044FFF7B9FF1B484A4621463C
S315080043203044FFF7B3FF0020BDE8F24300F04BB876
S31508004330214600EB470095E701200021224600F0C0
S315080043405FBA80B500F062F81049114A08400021AA
S31508004350C2E9000101BD00000CB000400CB20040EB
S315080043600CB4004000B0004004B0004000B2004069
S3150800437004B2004000B4004004B4004000EB002042
S3150800438014EB0020F0EA0020F8EA0020FFE1FF0025
S3150800439028EB00202A480168491C016011F8010D24
S315080043A0704738B50446264D08462968224600F067
S315080043B038FA28682044286031BD214A1168084423
S315080043C01060084670471F491F4B0A681B68D31AB6
S315080043D0DC2BB8BF10700868401C0860704710B521
S315080043E00446C0B2FFF7EFFF200A48E010B5FFF712
S315080043F0D1FF00F042F904EB002080B210BD10B5E1
S31508004400044680B2FFF7EBFF200CB7E010B5FFF7C4
S31508004410EDFF00F05EF804EB004010BD38B5094C1E
S31508004420094A2368126805469A1AAA18DD2A03DA81
S315080044300246184600F0F5F920682844206031BD88
S3150800444048F900204CF90020DCFA002010B500F0ED
S3150800445042F8FFF7CBFF2081FFF79CFFA072FFF71A
S3150800446099FFE072FFF796FF2073FFF7BFFFE08121
S31508004470FFF790FF2074FFF7C9FF606110BDBDE824
S315080044801040A0E710B500F024F82080FFF7AEFF33
S315080044906080FFF77FFF2071FFF77CFF6071FFF7F1
S315080044A0A5FFE080FFF7A2FF2081FFF773FFA07248
S315080044B010BD10B500F00AF8A078E0E710B500F0D6
S315080044C008F82080FFF766FFA07010BD0446208814
S315080044D085E704468AE704462146082061E710B5C1
S315080044E000F0CBF8A070FFF781FF2080211D00F0B7
S315080044F0C2F8FFF74FFF00B10120E070FFF74AFF4F
S315080045002073FFF747FF607310BD10B504462146B8
S3150800451000F07FF82069BDE8104070E710B5044642
S31508004520214600F078F8FFF771FF206110BD10B53D
S31508004530FFF7CFFF208010BD207944E710B5044669
S31508004540FFF7CDFF04F1100000F01BF804F11C0181
S3150800455000F091F8FFF74AFF24F8240FFFF746FF0B
S315080045606080FFF717FF2071FFF714FF6071FFF7F0
S3150800457011FFA071FFF70EFFE07110BDBDE81040F6
S315080045802DE710B50446FFF741FF2060FFF73EFF11
S315080045906060FFF72BFF208110BD10B500F010F802
S315080045A000F08CF8E088FFF71AFF2089FFF717FF5D
S315080045B06089FFF714FFA089FFF711FFA07B5EE76C
S315080045C0044620681BE710B50446FFF71FFF206066
S315080045D0FFF70CFFA080FFF709FFE080FFF706FF53
S315080045E02081FFF703FF6081FFF700FFA081FFF737
S315080045F0D1FEA07310BD10B5FFF7E2FFFFF79CFFD1
S31508004600611D00F006F804F11501BDE81040102000
S3150800461004E7102002E71020C3E610B50446207A06
S31508004620FFF7D1FE207A010006D12068FFF7E7FEE2
S315080046302068FFF7E4FE04E0022802D1214600F0D4
S3150800464002F8607A1BE70820E8E610B500F015F8CE
S315080046500100207206D1FFF7D9FE2060FFF7D6FECB
S31508004660206004E0022802D1214600F004F8FFF792
S3150800467091FE607210BD082093E604468AE638B5B6
S31508004680044602252078FFF79EFE2078401E012862
S3150800469006D96089FFF7A3FEA11CFFF7D4FF09E03E
S315080046A000F00CF800F00CF800F008F800F008F834
S315080046B000F004F80C346D1EE4D131BDA0888EE6F6
S315080046C060888CE610B504462078FFF77CFE6068A3
S315080046D0FFF795FE04F10800FFF79FFFA08AFFF792
S315080046E07EFEA07DFFF76FFEA069FFF788FE04F146
S315080046F01C01FFF78EFF04F12C00FFF7C0FF14F82A
S31508004700440FFFF760FE6078B9E610B5FFF7DEFEE6
S31508004710FFF7D6FFA08831E710B5FFF7DAFE20804D
S31508004720FFF764FE6080FFF761FEA08010BD30B51C
S3150800473002F8010B002312E031F8234002F8014B7E
S3150800474031F82340240A02F8014B01EB83045B1C71
S31508004750658802F8015B6488240A02F8014B8342E3
S31508004760EADB30BD0CB4F8B505460C4606AE08E0E3
S3150800477056F8040B290003D00078FFF71EFE3860B0
S31508004780641C2078010037D056F8047B622827D0AD
S315080047907028EDD0732818BF752804D076280CD059
S315080047A0772814D0ECE7280003D0FFF7F3FD38701C
S315080047B0E6E73878FFF707FEE2E7280003D0FFF7B9
S315080047C015FE3880DCE73888FFF709FED8E72800A9
S315080047D002D0FFF71BFED2E73868FFF710FECFE7D7
S315080047E056F8040B00782900394602D0FFF7D9FDA0
S315080047F0C6E7FFF713FEC3E7F1BC5DF80CFB000044
S31508004800D2B2203A22BF00FA02F100207047524283
S31508004810D041D2F1200291404140D04090404140E1
S315080048207047814233D210441144401E491E10E09D
S3150800483011F8013900F80139121F11F8013900F889
S31508004840013911F8013900F8013911F8013900F870
S31508004850013992B2042AEBDA93B2002B1EBF11F883
S31508004860013900F80139521EF6D1704711F8013B9B
S3150800487000F8013B121F11F8013B00F8013B11F843
S31508004880013B00F8013B11F8013B00F8013B92B2ED
S31508004890042AEBDA93B2002B1EBF11F8013B00F88D
S315080048A0013B521EF6D17047130003D00A4619463B
S315080048B000F020B8704710B500E0521E93B223B13D
S315080048C000F012F8F9D0181B10BD002010BD10B565
S315080048D000E0521E93B22BB100F006F8F9D0181B6F
S315080048E040B210BD002010BD10F8013B11F8014B75
S315080048F0A342704762F30F2262F31F42401810F07A
S31508004900030308D0C91A1FD3DB0748BF00F8012DD7
S3150800491028BF20F8022D130030B414461546103966
S3150800492028BF20E93C00FAD8490728BF20E90C002F
S3150800493048BF40F8042D890028BF20F8022D48BF3B
S3150800494000F8012D30BC7047C91818BF00F8012DB2
S31508004950CB0728BF00F8012D7047000010B50446A4
S3150800496000F098FD204601F08AFD204602F058FA2C
S315080049702046BDE8104002F009BC01F0C8BD10B5DC
S31508004980044600F0D4FD204601F0F3FD204602F06F
S315080049906FFA204602F05FFC2046BDE8104002F0A0
S315080049A0F7BB10B500E010B5044600F030FE20460F
S315080049B001F0C3FE204602F077FA204602F0B5FC65
S315080049C02046BDE8104002F0F4BE10B5044600F0DB
S315080049D04BFE204601F0DFFE204602F094FA09E07D
S315080049E010B5044600F065FE204601F016FF204685
S315080049F002F0A6FA204602F0B0FC204602F0F1FECC
S31508004A002046BDE8104002F05ABC80B503F04CF9C8
S31508004A10BDE8014002F088B910B5044602F08AFDE7
S31508004A202046BDE8104002F05EBC0198704703F0CE
S31508004A30AAB970472DE9F04701241028A4B00FF64B
S31508004A40C015DFF83479D9A3D9A60FF26839DAA1E7
S31508004A500FF268380FF2683A00F02C8118281CBF4C
S31508004A601D2820286FD0212800F0FF8022286AD030
S31508004A70282800F0A280292800F0C5802A2862D0BC
S31508004A802B2800F044812D2800F062812E285AD068
S31508004A90302826D0332800F06081342800F0608161
S31508004AA0352800F0E382362800F08C81372800F09C
S31508004AB01782382800F0B181392800F045823A2853
S31508004AC000F0D781422800F053824A2800F0AF80D0
S31508004AD04C2800F0D5825A2800F05C825B2832D038
S31508004AE05D2800F0C783632800F0A082642800F0E0
S31508004AF0AA826A2803D06F2800F00A83712800F07A
S31508004B00D782732818BF772800F0C2837A281AD06C
S31508004B10822800F05982832800F08783842818BFEA
S31508004B20852810D086281CBF872888280BD0892876
S31508004B3000F082838A281CBF8B288D2803D09028F2
S31508004B4000F0EA83952800F08383962800F0868291
S31508004B509A281CBFA128A428F5D0A62800F05483BB
S31508004B60A82800F0F182A92800F00A83AF2800F0EF
S31508004B702383B128E7D0B22800F09883B92800F03B
S31508004B80B183BA2800F0B383BC2800F0B383BD28EC
S31508004B9000F0BB83C12874D0C22800F08880C328DF
S31508004BA000F08280CE2800F01483E828CBD0ED28C8
S31508004BB000F03783EE28C6D0CDE301A9684601F098
S31508004BC011FC00F006FC31460020FFF7CBFD00F093
S31508004BD0F0FBBDF80C00FFF702FC9DF80E00FFF78E
S31508004BE0F2FB9DF80F00FFF7EEFB9DF81000FFF7AC
S31508004BF0EAFBBDF81200FFF7F2FB9DF81400FFF779
S31508004C00E2FB0698FDE208208DF809000DF10A017D
S31508004C1003A801F00DFC8DF8080003AB0DF10A009E
S31508004C20019002AA0DF109000090E3A13CE200F010
S31508004C30DDFB9DF8010001A901F00BFC00F0CFFB9C
S31508004C4000F0B7FB9DF80C00FFF7BDFBBDF80E00A2
S31508004C50FFF7C5FB9DF81000FFF7B5FB9DF811009F
S31508004C60FFF7B1FB9DF8120072E301AB0DF10102EB
S31508004C70D2A100F0ABFB01999DF8010001F0EBFB16
S31508004C8025E30DF1060200F07DFB9DF8060001AA5A
S31508004C9002A901F056FB8DF8050002AB01A80090A9
S31508004CA00DF10502C6A1FFE101F04DFB50E301F04D
S31508004CB04CFB4DE30DF1150004900DF11E030DF1AB
S31508004CC01600039006AA0DF1170002900DF11A00BE
S31508004CD0019007A8009001200FF21C71FFF742FD12
S31508004CE09DF81500BDF81A30BDF81C20BDF81E1039
S31508004CF002909DF8160001909DF8170000909DF807
S31508004D00180003F0BBF88DF8140005AAE2E2FFF7D5
S31508004D1041FB0546FFF73EFB8DF80000FFF73AFB1F
S31508004D208DF80100FFF762FBADF80200FFF732FBD2
S31508004D308DF804000DF105010820FFF732FBFFF797
S31508004D4029FB8DF80D006946284602F02FFDFFE283
S31508004D50FFF720FB02F02BFDFAE203F0FAFCB6E2BD
S31508004D600DF1120304AA97A100F030FB06A8FFF77D
S31508004D7089FB03A8019003AB05A800900DF10F026B
S31508004D80494600F005FB0DF10D00029006AA0598AC
S31508004D909DF80F30BDF8121001909DF80C00009098
S31508004DA09DF8100001F015FA30E000BF760000000B
S31508004DB0757500007575700062000000757000005A
S31508004DC0750000000DF1120219460120FFF7CAFC12
S31508004DD006A8FFF757FB03A802900DF10F0305A8D5
S31508004DE0019004AA03A800F0D1FA0DF10D00029073
S31508004DF006A905989DF80F309DF8102001909DF89A
S31508004E000C000090BDF8120001F0ECF98DF80E00C8
S31508004E100DF10D030DF10E022DE107A8FFF732FB88
S31508004E2004A8039005AB06A802900DF1150204A884
S31508004E3001900DF11300009001200FF2CC51FFF7FD
S31508004E4091FC0DF11100029006989DF813309DF81B
S31508004E5014209DF8151001909DF81000009007A8E1
S31508004E6001F0CCF98DF812000DF111030DF11202C3
S31508004E7001E10AA8FFF706FB06A805900DF11D0338
S31508004E8009A804900DF11E0206A803900DF11B0057
S31508004E90029007A8019008A8009001200FF270510F
S31508004EA0FFF760FC0DF1190004900998BDF8203051
S31508004EB09DF81D209DF81E1003909DF8180002907D
S31508004EC09DF81B0001909DF81C0000900AA801F0AF
S31508004ED0B0F98DF81A000DF119030DF11A02CAE09E
S31508004EE00DF1190000900DF11A0307AAB1A100F0FF
S31508004EF04FFA09A8FFF7C6FA05A802900DF117039D
S31508004F0008A8019006AA05A800F040FA0DF11500B8
S31508004F10049009AB08989DF81920BDF81A1003905B
S31508004F209DF8140002909DF8170001909DF818004E
S31508004F300090BDF81C0001F0A1F98DF816000DF1DE
S31508004F4015030DF1160296E00DF106021946012029
S31508004F50FFF708FC03A8FFF795FA00F01CFA029B76
S31508004F609DF80420BDF8060003A901F0BCF96AE122
S31508004F700DF1050000900DF1060302AAD7A100F075
S31508004F8007FA9DF805209DF80610BDF8080003F0FD
S31508004F9017FD0BE100F011FAD1A100F0F9F9039A17
S31508004FA09DF80810BDF80A0003F085FE8DF8090083
S31508004FB00DF109028EE100BF756276007577000073
S31508004FC0757675007576000008208DF811008DF845
S31508004FD010000DF10E00029005A801900DF11100C8
S31508004FE0009008AB0FF230450DF10F0200F0CFF933
S31508004FF003A802900DF11200019006A800909DF8F2
S315080050000E30BDF814209DF80F0008A901F09FF98D
S315080050108DF80D0006AB03A802900DF10D020DF1F7
S3150800502012000190294604A800903DE000F0DEF940
S315080050309DF8010001A901F0AFF900F0D0F901A827
S31508005040FFF737FA8AE100F0D1F901A8FFF736FA37
S315080050509DF8010001A901F0B2F938E100F09BF9C9
S3150800506002999DF8040001F0D9F8ECE0684603F0CF
S315080050706BFE00F0AEF931460020FFF773FB6DE1D9
S3150800508086208DF806000DF1050200F07BF99DF8E3
S31508005090050002A901F0E2F98DF8040002AB0DF152
S315080050A00600009001AAAFA10020FFF75BFB55E1BF
S315080050B06A4600F067F938786A289DF8000001A961
S315080050C002D103F04BFE01E004F0A5F98DF80100CA
S315080050D00DF1010200F086F9BDF80400FFF77FF92B
S315080050E09DF80600FFF76FF90DF107011020FFF78D
S315080050F095F90698FFF783F90798FFF780F99DF861
S315080051002000FFF760F90DF1210100F053F925E1C0
S3150800511009A8FFF703FA00F050F9494600F038F9F4
S3150800512004A80090039B9DF808209DF80A1009A87A
S3150800513001F04CFE8DF809000DF1090200F052F954
S3150800514004A8FFF7E2F909E108208DF80E008DF8AA
S315080051500D0007AB0DF10D00029004AA05A80190F9
S3150800516081A10DF10E00009000F012F9BDF81000B3
S3150800517005AA07A904F034FB8DF80C0003AAA9E0D8
S3150800518008208DF8050002AB0DF1050000900DF121
S31508005190060276A100F0FCF804A91020FFF701F931
S315080051A0BDF8060004AA02A904F05AFB8DF804000B
S315080051B001AA8FE07676750000F0F5F800F005F99B
S315080051C003A91020FFF7EDF803A901A801F018FEBE
S315080051D07DE000F0E8F802208DF8000000F0F5F810
S315080051E003A901A801F014FE00F0F9F803A900F0DC
S315080051F0E1F805A91020FFF711F90998FFF7FFF85C
S315080052000A98FFF7FCF8A9E000F0C5F802999DF89E
S31508005210040001F0BFFF8DF805000DF1050200F04E
S31508005220E1F801F0D2FFFFF7CEF8FFF7B3F800B1C7
S31508005230012001F076FF8BE000F0ADF802999DF8A9
S31508005240040001F077FF8DF805000DF1050241E035
S315080052503A780FF2CC10002500E06D1CEDB2415DE6
S315080052609142FAD1FFF796F80FF2CC1151F82510B2
S3150800527088476DE0FFF78EF80546FFF7B7F8014651
S31508005280387830280CBF3D4A3D4A2846904765E0A5
S3150800529069461020FFF785F838787728684602D1DE
S315080052A004F0AEFD54E004F0D2FA51E001A8FFF78D
S315080052B045F90DF101030DF102022DA100F086F862
S315080052C09DF901209DF8021001A802F023F88DF837
S315080052D000006A4600F086F840E000BF7675750063
S315080052E076757000FFF756F805F029FA30E005F0F4
S315080052F02BFA2DE004A9684605F0F8F96846FFF789
S315080053004CF904A8FFF777F928E06846FFF75BF938
S31508005310684605F0F3F921E008208DF8120006AB7F
S3150800532004A803900DF1110205A8029011A104A882
S3150800533001900DF11200009000F02AF89DF8110076
S3150800534000B10120059B9DF8102006A901F0E7FA97
S31508005350FFF739F802E005F031FA0446204624B092
S31508005360BDE8F0877562000076626200766200002A
S315080053707573000075627000B2FF0020CB790008D3
S31508005380C915010851460120FFF7ECB900902946D6
S315080053900120FFF7E7B901A8009002AB01AA414630
S315080053A00120FFF7DFB908208DF801000DF1010390
S315080053B0704701A90820FFF731B802A8019002AB8F
S315080053C003A800900DF10A02704701AA0120FFF711
S315080053D0C9B98DF801006B460DF1010270478DF8C9
S315080053E000006A4651460020FFF7BCB90DF10102DC
S315080053F051460120FFF7B6B975767676757575004C
S31508005400757575700000000075757575700000007B
S31508005410757576757575700075627675000000008D
S31508005420181D207A2A84858687888B8A8D959A2ED8
S315080054305BB1A4A122E8EE00B30301084D9E010862
S315080054406534010819A90108F17C00087D7701086F
S31508005450FD770108137801082778010843780108C1
S31508005460DB780108C57801080979010879D30008AD
S31508005470EB000108798201087D8201085F96000821
S31508005480EFAF0108FDAF01085DED00087579010869
S315080054908379010838B504462078002846D160701B
S315080054A0012020722070A078032832D0072834D033
S315080054B0112808D0152833D0302818D0312819D00B
S315080054C032281AD030E00720DFF89C5B207204F1FE
S315080054D00900298805F0E2FCA878E072E8782073CC
S315080054E0287960736879A073A879E07331BD05F0EF
S315080054F0FBFC17E005F0C2FD14E00420207205F05D
S3150800550002FD04F10901BDE838400246012005F014
S31508005510C9BCDFF8580B007804E005F061FF01E02C
S3150800552006F092FB607231BD0020207031BD38B59F
S3150800553004462078002869D101202070A078042824
S3150800554014D007281FD00E2825D0112859D0152881
S3150800555041D0172844D018284CD019284DD03028C7
S3150800556033D031281FD0322823D04DE0207A0128A5
S315080055702FD1607A00B10120DFF8F41A08700020F4
S3150800558006F0BEFC3BE0607A10B105F0F7FE39E0A4
S3150800559005F006FF36E0607A00B1012005F084FDCB
S315080055A000282FD015E0607A00B1012005F04EFDE5
S315080055B00EE0207A04280CD104F10901012005F037
S315080055C07FFC05F0A4FCE8B103E0607A05F08EFCE8
S315080055D0C0B1362016E094F9090006F00DFB0EE07E
S315080055E0657A04F10A0005F052FC0146284606F0E1
S315080055F0B2FD04E006F0AAFD01E006F09AFD0020DF
S3150800560000E03720607031BD0020207031BD10B534
S315080056100446DFF8600A0079217856280CBF012075
S31508005620002001BBA1706178072910D130B106F0BE
S31508005630E9FD012814BF632062200EE0E0786228A5
S315080056400CBF0120002006F0E0FDA07009E0042947
S3150800565009D1DFF8241A10B10878E07001E0E07883
S3150800566008700120207010BD017809BB81700121E6
S315080056700170417801290ED00C2909D017290DD0BF
S315080056802D2902D034290CD010E0DFF8F0190AE0F1
S31508005690DFF8EC1907E0DFF8EC1904E0DFF8E819A1
S315080056A001E0DFF8E8190978818070470021017068
S315080056B0704738B50446207800285AD10120207052
S315080056C00020A0706078012815D00C280FD0172864
S315080056D03DD02D2802D0342844D048E0A18803299B
S315080056E03DDAC9B2DFF8940906F0FEFE38E0A08874
S315080056F0DFF88C1939E0DFF89809008828BBA088FC
S3150800570018B3DFF89059287807F00CF906F0F9FB7A
S3150800571080B1A188DFF86C09C9B206F0E5FEA07071
S3150800572006F0F2FADFF87009DFF870190068401D14
S31508005730086001E03820A070012007F088F828707A
S315080057400020DFF85C19088031BD382008E0A08801
S3150800575007F05FFC18B9A088DFF82C1905E0362099
S31508005760A07031BDA088DFF82419087031BD00206B
S31508005770207031BD80B501208DF800006846FFF71E
S315080057804BF99DF8000002BD2DE9F04FA7B006F0D1
S3150800579081FB06F09DFBDFF800890446D8F8000077
S315080057A0817800270225FF294FF003092DD1C178FA
S315080057B00679042511F03F004FF0050918BF49275F
S315080057C023D108060AD507F0CFFE28B107F0D0FE88
S315080057D0123C0746E4B218E0482716E007F0CBFE6D
S315080057E0002818BFCB2E0AD0CA2E18BFCC2E06D03A
S315080057F0CD2E18BF002E02D0AA2E18BF482707F0B4
S31508005800B3FE00281CBFCC2E4A27D8F80000465DF8
S3150800581090F801A0DFF85C580AF003018DF808102B
S315080058202E71017869704844DFF878180860DFF847
S315080058306C1808604FEA5A1000F00300687107F008
S3150800584038FF380018BF582604D15FEA0A6002D527
S315080058505826322082E2A87820B9287910B158262D
S3150800586030207BE207F0DAFF10B95826422075E2AD
S31508005870FFF780FF002800F073822879A978DFF8FF
S3150800588028B8020095A70FF2582A4FF6FF7974D068
S31508005890012800F0F281022800F0AC80032800F00D
S315080058A0FE80052834D0062800F04581092818BF4F
S315080058B00A2800F048810B2818BF0C2800F04A81F6
S315080058C00E2800F05E81122800F0A381132800F04C
S315080058D0D981172800F0E981262800F0D9812728E0
S315080058E000F0DE81472800F0D081492800F0398190
S315080058F04E2800F06D81522854D0532869D0552877
S3150800590000F09080562800F0A48065282AD08128C7
S3150800591000F006818F2800F0F581912800F00D82AD
S31508005920942800F0FC819D2800F0A281AA2800F0A6
S31508005930AC80AB2800F0D680AC2800F0E880AD2813
S3150800594000F0E880AE2800F0E880CA2800F0B781A9
S31508005950CB2800F0BD81CC2800F0C881CD2800F006
S31508005960C881F12800F07181F5281AD0F62800F0D0
S315080059700681FC2800F0A081EBE1FEF70BFD04464A
S315080059800620FEF720FD0220FEF71DFD4FF4C0405D
S31508005990FEF725FDA878002808BF062C01D10120AE
S315080059A0A870DDE100F00CFAFEF7F4FC8DF80100B2
S315080059B06846FFF70AF89DF8000028B937208DF8E1
S315080059C002000020ADF8040001AB0DF10202B3A1FC
S315080059D057E0012918BF382023D100F0F1F901ABAF
S315080059E00DF10102ADA10120FEF7BCFE6846FEF7E7
S315080059F0F7FF25E03827012912D1611FC9B2052012
S31508005A0006F052FA0446FF2C08BF352708D007F0DF
S31508005A1017FF002814BF00273627204606F082FF06
S31508005A2038469BE1042200F0CCF90DF103030DF191
S31508005A30010239460120FEF795FE6846FEF7B3FFD8
S31508005A409DF8000010B937208DF802009DF8020075
S31508005A5084E1042200F0B5F9FEF79CFC8DF80100FC
S31508005A606846FEF79EFF9DF8000028B937208DF896
S31508005A70020000208DF803000DF103030DF1020268
S31508005A8039460020FEF76EFE6AE100F094F9FEF74B
S31508005A9081FC8DF80E0003A8FEF760FF0BE000F00E
S31508005AA08AF904AB0DF10E02BCA10120FEF75AFEDD
S31508005AB003A8FEF762FF9DF80C0028B937208DF879
S31508005AC00D0000208DF8140000F06EF90DF10D029E
S31508005AD051460020FEF746FE42E100BF75750000FC
S31508005AE07575620000F067F900F05EF90DF10E02B7
S31508005AF051460120FEF736FE03A8FEF740FF9DF843
S31508005B000C0000280CBF37209DF80D0026E1FEF793
S31508005B1057FB25E1FEF7C7FB22E1FEF712FC1FE162
S31508005B20062CFCDBDFF87405DFF870150068001931
S31508005B30401F086014E1012000F047F9002840F0F2
S31508005B402A8107260CE109280CBF0120002002F053
S31508005B50F3F805E10C280CBF0120002000F0EAF953
S31508005B60FEE00121684608F00EFA28B10020FEF78B
S31508005B702AFCBDF8000095E03620FEF724FC00203C
S31508005B8090E0FEF707FC8246FEF730FC8146FEF7FA
S31508005B9001FC0746FEF7FEFB0446B9F5004FB4BF05
S31508005BA0042F702011DABAF1020F0FDA0BEBCA0ACA
S31508005BB03A46DAF80000494608F0B8FAAAF8049016
S31508005BC004B900278AF806700020C7E07020C5E0EF
S31508005BD0FEF7E0FB814600240020B9F1020FADF87C
S31508005BE002008DF800000BDA5BF839006A460DF101
S31508005BF0020108F0ABFA0BEBC900807900B1012469
S31508005C00BDF80200FEF7EBFB9DF80000FEF7DBFB94
S31508005C1083E0FEF7BFFB040018BF0124002008F04C
S31508005C20C7FA07463A46FF2A08BF182029D0002C8B
S31508005C3014BF48460220BEA108F008FB0020FEF764
S31508005C40C2FB384606F06EFE8AE04FF00009DFF820
S31508005C505C4434F81900FEF7C2FB09F10109B9F1F1
S31508005C60280FF6DB287965287AD106F062FA77E0FC
S31508005C70FEF7BCFB06F017F972E0FEF78BFB08F09F
S31508005C803FFC6BE007F0D9FD6AE007F0CDFD67E061
S31508005C90DFF81C140820FEF7C1FB61E075760000EA
S31508005CA008F00DFEFEF79BFB5AE06846FEF73FFC40
S31508005CB0684609F064F951E00AF004FC4EE000F089
S31508005CC06FF8FEF7A3FB014603A80AF005FC45E0BA
S31508005CD0FEF760FB044607A900F063F803AA07A9C4
S31508005CE020460AF0FBFBFEF76EFB21E00AF0F8FB04
S31508005CF034E068460AF0F6FBFEF765FB0098FEF707
S31508005D007EFB2DE00AF01CFC0124484505D0FEF771
S31508005D1041FBDFF8A0130024087020461EE000F0BF
S31508005D203FF807A900F03DF807A903A80AF04EFCBA
S31508005D3003A91020FEF772FB12E00AF001FCFEF739
S31508005D404EFB0420FEF73FFB1220FEF73CFB032028
S31508005D5004E0FEF76FFE18B958263120FEF733FB2C
S31508005D60D8F8001068780870D8F8000081780029FB
S31508005D7002BF29780029867004D0FF218170D8F8DF
S31508005D8000000671072E0CBF012200229DF80800AC
S31508005D90012100F030F827B0BDE8F08F75770000D4
S31508005DA003A91020FEF7FDBA05A8019005AB0DF171
S31508005DB01500009070478C22002103A8FEF774BDD9
S31508005DC0062200216846FEF76FBD38B5B04D044679
S31508005DD0288810B105F0BDFF08B9002032BD288813
S31508005DE008B906F08DF8B44800780122214600F07B
S31508005DF002F8012032BD2DE9F84FA74F044638684E
S31508005E0088468178934602254FF00309FF29A3495E
S31508005E10096804BF04254FF005090E1A07F0A4FB0C
S31508005E200028B6B21EBF3868405DCC281CBF1236A3
S31508005E30B6B25FEA0B0004D038684078C0F3411A5E
S31508005E4002E007F034FC82468C4909788A4505D376
S31508005E5040F229410FF26C200AF0C4FB4FEA4A10BF
S31508005E6040F08000DD2E5FFA80FA05DBDC2006F0C4
S31508005E7072F84AF0020A02E0F0B206F06CF87D48C1
S31508005E80C17819B100214AF0020AC1708B490A7813
S31508005E901AB100224AF0010A0A707D4E318809B10A
S31508005EA04AF0040ABBF1000F06D05FEA080114BFE6
S31508005EB04AF0080A4AF0100A396881F801A03968D8
S31508005EC0897811B9012101700FE007F04DFB002810
S31508005ED01EBF3868415DCC2904D08021C17007F007
S31508005EE045FB02E039680020C87007F044FB48B15A
S31508005EF03868415DCB2901BF10F809000028022047
S31508005F0007F038FB012C30886B4A18BF022C05D1E4
S31508005F1008B9147004E00020107004E0147010B979
S31508005F20002005F0EDFF4046BDE8F24F06F006B842
S31508005F30620000002DE9F0419AB00446FEF72AFAFD
S31508005F400546062D13D1002C39D12820FEF73BFA39
S31508005F505B4801880223224601A80AF077FCBDF8AF
S31508005F600400FEF73CFA641C142CF1DB79E0082DDA
S31508005F701DD124BB4020FEF726FA042322460D2114
S31508005F8068460AF063FC9DF80000FEF71CFA9DF8C7
S31508005F900100FEF718FA9DF80200FEF714FA9DF8BC
S31508005FA00300FEF710FA641C102CE6DB59E00B2DF3
S31508005FB001D124B952E0200003D0092D01D1702067
S31508005FC04DE000260FF2101000EBC6073878854220
S31508005FD030D197F80180200004BF4046FEF7F3F958
S31508005FE0786801884346002202A80AF02FFC2000A0
S31508005FF027D0FEF7CFF997F80180404501D0022057
S315080060002DE0002000E0401CC1B2414502A905D29E
S31508006010C0B2095CFF29F6D0462020E04046FEF7CC
S31508006020C0F978680088424602A90AF09EFC00205A
S31508006030FEF7C9F9761CF6B20A2EC3D374B1B1209D
S315080060400DE0092D05D1152200210DF14E00FEF7B0
S315080060502BFC787802A9FEF7E1F902E00020FEF7AA
S31508006060B2F91AB0BDE8F0811451020871ED0020AA
S31508006070B5FF0020AEFF00208BED002078ED002054
S31508006080AAFF002070ED0020B4FF00207AED002062
S315080060908EFF0020A0ED0020DCFA00204CF900203D
S315080060A0DEF9002048F90020E8EC0020F8FA002084
S315080060B0E4FA00209FED0020D4FF00208CFF00208A
S315080060C046510208636F6D6D616E642D68616E647A
S315080060D06C6572732E630000011000003A510208C5
S315080060E0021000003C510208030200003E5102085B
S315080060F00510000042510208070800004451020832
S31508006100000200003651020804020000405102084D
S31508006110095C0000485102080A1400004A510208A6
S315080061200C080000385102082DE9F84F80460D4644
S31508006130DFF8840B0A99067801247E2991469A4647
S31508006140A8BF742043DA080003D00B9806F06DFC4C
S3150800615001E000F0C5F883460C9FBBF1FF0F03D1A1
S3150800616000201824387031E0342E06D0362E0ED092
S31508006170382E13D0962E18D01AE05B464A46294682
S31508006180404602F00DF8044602F04AFD10E05B4670
S3150800619042464946284602F063F808E05B46EAB2FA
S315080061A04146484602F0D7F801E00BF07AF8044673
S315080061B0962E1CBF99F80A00387024B9DFF8FC0A35
S315080061C0006800F80BA0584606F0ACFB2046BDE870
S315080061D0F28F10B584B0089C0294079C0194069C23
S315080061E0009407E010B584B00446104600F00FF896
S315080061F00A462146FFF798FF04B010BD10B50446BD
S3150800620084B00846114600F002F82246F2E7089ADA
S315080062100292079A0192069A00927047E0B5002208
S31508006220019100900292002300210020FFF77CFFD5
S315080062300EBD2DE9F04683B00D460C9907460800B9
S3150800624091469A4603D00D9806F0EFFB01E000F060
S3150800625047F804460E9EFF2C03D1002018253070FF
S315080062600BE00A980190CDF800A023464A46294635
S31508006270384602F055F800F027F822E02DE9F046F6
S3150800628083B089460C990546080092461F4603D0F6
S315080062900D9806F0CAFB01E000F022F804460E9EAF
S315080062A0FF2C03D10020182530700AE00A980090C8
S315080062B001943B4652464946284601F0F3FF00F052
S315080062C003F82846BDE8FE860500B87A307004D182
S315080062D0DFF8E81909680B980855204606F022BB2E
S315080062E0002006F081BB38B5DFF8D4492080C8887D
S315080062F0440606D5DFF8CC492478202C03D10004BF
S3150800630001D4702032BDDFF8C0491000216004D0E6
S315080063101146184606F089FB01E0FFF7E1FF05463E
S31508006320FF2D08BF18240AD020684088294602F0A5
S3150800633017FA044602F074FC284606F0F3FA2046DB
S3150800634032BD02F0EDBB0BF0E9B80BF0E3B82DE96E
S31508006350F041069F0D4604461646984639460BF008
S315080063605FF920460BF074F90799088038460BF058
S315080063707EFA08990870294620460BF0E7F8074682
S3150800638038B9314620460BF01FF9414628460BF02E
S315080063908CFA3846BDE8F081DFF830391B78984228
S315080063A001D370207047DFF82829126832F82030A8
S315080063B00B8002EB80008078887000207047DFF839
S315080063C00C391B78984201D370207047DFF80029F2
S315080063D012680B8822F8203002EB800089788170D9
S315080063E00020704730B585B00C4609F09FFE05467B
S315080063F000202073102307226946012004F045FF78
S31508006400082202A92046FEF70CFABDF800002081F2
S3150800641004F114019DF80200A0729DF80300E072D1
S3150800642004F110000BF09AFAE08105B0284630BD59
S3150800643038B504460D4609F07BFF0146082220467A
S31508006440FEF7EFF909F070FF2880DFF88808007872
S3150800645032BD0BF04EBEFF2208F001BE70B588B003
S315080064600D460446694602F075FC060004D12A4624
S3150800647069462046FEF75BF9304608B070BD10B590
S3150800648004462078002841D1012020722070A07887
S31508006490401E0BD0401E07D0801F07D0401F05D0D6
S315080064A0401F022802D903E00220207200206070F3
S315080064B0A07801280CD0022814D008280CD00D2862
S315080064C00DD0122817D0132817D0142818D01BE07F
S315080064D0DFF80408007815E008F038FB12E00CF045
S315080064E069FC0FE0DFF8F407018804F10900BDE84C
S315080064F0104004F0D3BCFF2004E008F0AAFD01E038
S315080065000CF0DCFD607210BD0020207010BD10B5C7
S31508006510044682B0207858BB0120207000206070A5
S31508006520A07818B1022819D00BD31FE061686A4613
S31508006530C9B207F0EBF960700220207204F1090075
S3150800654007E00320207268460CF083FF607204F1AE
S315080065500A00BDF8001004F0A1FC13BD012020724A
S31508006560606880B202F0ECFA607213BD00202070F9
S3150800657013BDF0B5044685B02078002840F0D780D2
S3150800658001202070A078010023D0012845D00228D8
S315080065904BD0052818BF062850D0082800F0C08020
S315080065A0092859D00A287CD00B2800F07F800C28AF
S315080065B000F088800F2800F08A80232818BF242836
S315080065C000F09280252800F0A080292800F0AA80F3
S315080065D0ABE0207A102862D100F0ABF8ADF80400E1
S315080065E0082294F90B008DF8060004F11001207BAF
S315080065F08DF80700607B8DF80800A07B8DF80900F0
S31508006600E07BADF80A0003A8FEF70BF91023072272
S3150800661001A9002004F039FE80E0207A01283ED145
S31508006620607ADFF8B416087078E0207A022836D146
S3150800663000F07FF8DFF8A41608806FE0207A0228B9
S315080066402DD100F076F8A17805290CBFDFF8901651
S31508006650DFF89016088061E0DFF88C060568207A76
S3150800666046080DB9DEB959E0DFF880060078B04271
S3150800667015DB002707E004EB4700093004F007FCA8
S3150800668025F817007F1CB742F5DB4FF4004725F8BD
S31508006690167028460DF01BF9002844D02F803620A6
S315080066A041E000F046F80DF0FAFA37E0DFF8400668
S315080066B00068407B20B900F03CF808F004F92DE0AA
S315080066C0382030E0607ADFF82C16087026E0657A04
S315080066D004F10A0004F0DBFBADF800006A4629461F
S315080066E0012007F013F91EE0217A042912D1232884
S315080066F00CBF0325012504F10901012004F0E0FB84
S31508006700014628460EF04AF90DE0607A032818BFBC
S31508006710042801D0022006E009F0DDFB002002E093
S31508006720372000E07020607001E00020207005B07E
S31508006730F0BD04F1090004F0AABB10B50446DFF861
S3150800674078050078217856280CBF0120002009BB5F
S31508006750A170DFF870256178032905D108B1507852
S315080067600FE0E078507013E0022905D108B11078DF
S3150800677007E0E07810700BE009290BD118B109F091
S315080067807AFDE07004E0E07800B1012009F067FDC9
S315080067900120207010BD017801B1704730B58170B5
S315080067A0012101704178052908D0122915D0182928
S315080067B00CD01F2914D0382915D018E0DFF8381561
S315080067C0DFF8382509781278891A24E0DFF83015B9
S315080067D00A78511E8941C90F1DE0DFF8281504E023
S315080067E0DFF8241501E0DFF82415098813E00022F4
S315080067F00FF2545300E0521CD2B214461D5DFF2D11
S3150800680002D10021017030BD8D42F4D10FF25451EE
S3150800681051F824100978818030BD70B50446207877
S3150800682000287BD10120207000206278A070052AFC
S315080068300AD0122A2CD0182A1FD0192A04D01F2AA7
S3150800684022D0382A2FD033E0DFF8B0040578DFF8F5
S31508006850A80401784E1BA188052A0CBF0E460D46D2
S31508006860A919C9B205F040FE0028A07056D1E9B2B0
S31508006870F0B2BDE870400EF0F9BAA188481E804112
S31508006880C00FDFF87C143FE0A088DFF87C140DE029
S31508006890A18847F231508142A8BF36203BDADFF89B
S315080068A06404018070BDA088DFF86014088070BD9C
S315080068B00FF2944100E0401CC0B20346CD5CFF2DA8
S315080068C002D10020207070BD9542F4D1A188022B18
S315080068D008DADFF83C0450F823000078884238BF0D
S315080068E0362018D30FF27C4050F82300092B0DDA16
S315080068F0C9B205F0F9FDA070002804BF6078112818
S315080069000CD1A088DFF80C14087070BD342A04D1A5
S31508006910C9B205F0E9FDA07070BD017070BDF8B58B
S3150800692004460D461146184606F07FF8182607460F
S31508006930FF2F08D03A46294620460EF0B3FD0646F4
S31508006940384605F0EFFF3046F2BD38B504460D4629
S315080069502188284604F0A2FA6188A81C04F09EFA49
S315080069602079287160796871A81DE18804F096FA83
S31508006970218905F1080004F091FAA07AA87231BDC0
S3150800698010B586B004461B208DF80000A0788DF857
S3150800699001000DF10200218804F080FA0822211D69
S315080069A001A8FDF73EFFE1788DF80C10217B8DF8E4
S315080069B00D10607B8DF80E000DF10F0000F0BBF98D
S315080069C0112100F01FF906B010BD80B51C228DF804
S315080069D001008DF802108DF80020D9E02DE9F04766
S315080069E088B007460D4614460EF0D1FD824622466B
S315080069F02946384606F016FF002863D10DF109002E
S31508006A000EF0CDFD30B962208DF80800092102A8E4
S31508006A100EF02DFEFF2C0FBF0026BF4909680E5D3C
S31508006A2045208DF808008DF809700DF10A012846F1
S31508006A30FFF78BFF0DF1150000F07DF951460DF1BA
S31508006A40170004F02BFA01F0B0FE8DF819000027A4
S31508006A50B248DFF8A8820568DFF89C9201E07F1C3F
S31508006A600C3599F8000098F80010FFB2401A8742D2
S31508006A700ADA28885045F2D106F01DFEA97AC1F334
S31508006A8042018142EBD100E0FF278DF81A708DF89C
S31508006A901B60504602F054F88DF8040000B101203E
S31508006AA0009001AB2246142102A80EF0E8FD00284A
S31508006AB01EBF84480078212804D19948017841F0FE
S31508006AC00401017008B0BDE8F0872DE9F0430746D8
S31508006AD0914800681D4687B0465D0E9C88469146DB
S31508006AE02146384601F0B7F93F208DF804008DF8A5
S31508006AF0057041460DF1060004F0D0F902A9484692
S31508006B00FFF723FF6D480068405D8DF813008DF888
S31508006B10144084480078402804BF0026FF2500203A
S31508006B2000908DF8156000232A46122101A80EF060
S31508006B30A6FD07B0BDE8F08330B589B00D4604461A
S31508006B4004A90BF0D6FA23208DF800008DF8014031
S31508006B508DF802500DF10300BDF81A1004F09EF9E5
S31508006B60082204A90DF10500FDF75BFE9DF8180043
S31508006B708DF80D000E2100F045F809B030BD80B53E
S31508006B807C218DF8001001460DF1010004F086F90C
S31508006B90032168460EF06BFD01BD70B586B004464C
S31508006BA07D208DF800000D46164621460DF10100A0
S31508006BB004F074F9082229460DF10300FDF731FEA9
S31508006BC08DF80B600C2100F01DF803A80EF0E7FC09
S31508006BD018B903A920460EF04FF906B070BD38B5AE
S31508006BE004460D4601F01CF980208DF800008DF84A
S31508006BF0014029460DF1020004F050F9042100F085
S31508006C0001F831BD68460EF032BD10B584B00446B1
S31508006C1046208DF8040001A82178417061788170BA
S31508006C200DF1070000F087F83B48A1780068405C42
S31508006C308DF809000023002000900621A27801A8FB
S31508006C400EF01DFD1FBD80B598208DF800008DF84B
S31508006C500110684602219DE71FB50C4692218DF862
S31508006C600410082201460DF10500FDF7DAFD0DF1C5
S31508006C700D0000F060F828480068005D8DF80F00E8
S31508006C8000230020009022460C21D8E7224A00B5AE
S31508006C90126883B0125C8DF8051093238DF80620D0
S31508006CA000218DF80430009102460023032101A833
S31508006CB00EF0E5FC07BD0000B2FF00207CFC0020BA
S31508006CC026FD002094ED002028FD002076ED00200A
S31508006CD02CEC002090FF0020DEFF002064ED002051
S31508006CE04AED00204CED002008FD002078FC00202D
S31508006CF070FC002070FE00207CED0020E5FF0020DF
S31508006D0072ED002038ED002034ED002044ED00201F
S31508006D1078EC002081ED0020FCEB00205CEC0020E4
S31508006D2024FD00208BED002080B50AF003FCBDE8A9
S31508006D3001400EF0DBBD10B504460EF021FC601CC8
S31508006D40BDE810400EF01EBC1102030607081A2BF8
S31508006D502C1910131B14151C1D2021222A2E33341E
S31508006D603537FF0073ED002079ED00207DED00201A
S31508006D7076ED002074ED002075ED0020A3FF0020BD
S31508006D8077ED002078FC0020E5FF002082ED00204A
S31508006D9084ED002085ED002083ED0020ABFF002068
S31508006DA07EED0020A5FF0020D9EC002086ED00200E
S31508006DB087ED0020A9FF0020ADFF0020A8ED0020E8
S31508006DC07AED002017FD0020A7ED002038B504460F
S31508006DD00029104601461A46204602D010F04FF9FF
S31508006DE001E010F01DF90546002C1EBF0498002886
S31508006DF0A04203D02146142210F0AEF9284632BD2F
S31508006E000246022000291CBF104610F0D1B970476F
S31508006E100246022000291CBF104610F050BA7047DF
S31508006E201CB504460020ADF800002078F8B9022009
S31508006E302072A0780A280AD0102810D101A810F0CC
S31508006E4026FC6070BDF80400ADF8000004E00020E0
S31508006E50607068460CF03CFF0120207001E0207845
S31508006E6028B1BDF8001004F1090004F017F813BDA5
S31508006E7038B504462078002804BFA078102812D117
S31508006E8004F10901012004F01BF8054604F10D0080
S31508006E9003F0FDFFADF800006946284610F0CCFB6C
S31508006EA060700120207031BD74490978027856292E
S31508006EB00CBF012100212ABB827001220270427890
S31508006EC0130006D16E4A09B1117811E0C078107026
S31508006ED07047052A05D16B4A61B1117841F0500116
S31508006EE006E0062A0CD1684A21B1117841F0600102
S31508006EF0C1707047C17801F00F01C17011707047F9
S31508006F0000210170704710B504462078B8B900F022
S31508006F1045F806D01E2807D0242807D0362808D0DA
S31508006F200BE009F009FA06E0584800E058480078EE
S31508006F3001E058480088A08010BD0020207010BDD0
S31508006F4010B50446207840BB00F028F806D01E2865
S31508006F500AD0242812D0362819D01CE0A088BDE80B
S31508006F601040C0B209F0ECB94B48A18800788842B5
S31508006F700AD3C9B2454805F0B7FA06E0A1880B2935
S31508006F8002DA4348017010BD3620A07010BDA088F3
S31508006F904049088010BD0020207010BD01202070D7
S31508006FA00020A07060780D28704700002DE9F04F8A
S31508006FB01646012E89B0804689469A4612D1012482
S31508006FC0002506A80CF08EFE022755EA0401DFF814
S31508006FD0B0B005D058B9BDF81800800707D535B147
S31508006FE0032715E00024032EEAD10125E9E79BF8DB
S31508006FF0000005280AD8DFE800F003060509083D61
S31508007000012705E065B1002702E02746022F07D0D1
S3150800701007F055FC824503D0514640460AF051FA1E
S31508007020019753469BF80000009032464946404671
S31508007030FDF7FBFC044624208DF8080041460DF1B7
S31508007040090003F02BFF082249460DF10B00FDF756
S31508007050E8FB8DF813608DF8144051460DF11500C4
S3150800706003F01CFF0F2102A80EF001FB204609B011
S31508007070BDE8F08F002DC6D0B2E70000B2FF0020B1
S3150800708091ED0020A7FF00207FED0020A6FF00203D
S31508007090ACFF002036ED00205A51020880B56E215B
S315080070A08DF800108DF80100022168460EF0DFFA0F
S315080070B001BD10B584B00C469B218DF8001008223E
S315080070C001460DF10100FDF7ACFB8DF809400A21D8
S315080070D068460EF0CCFA1FBDF0B583B010F8014B28
S315080070E00E461746214605F0A0FC0546FF2D03D19E
S315080070F00E4901200870F7BD8E208DF804008DF822
S315080071000560002000908DF806708DF80740002372
S315080071102A46042101A80EF0B2FA284605F002FC18
S31508007120F7BD00B1024810F0F3BA00008CFF00204A
S31508007130D970000800B58028A1B0A8BF02200ADAD5
S315080071408DF8000002460DF10100FDF76AFB0021EB
S31508007150684610F083FB21B000BD10B504462078C0
S31508007160002804BFA07833280FD10120207009B168
S31508007170002004E0607A10F0C9FB00B13620607088
S315080071800120207210F0D2FB607210BD0121E4E7E5
S315080071900021E2E730B58BB004460D462A22FF21CE
S315080071A06846FDF781FB2146284605F03EFC044665
S315080071B0FF2C08BF182505D010F0D4FB054620463D
S315080071C005F0B0FB28460BB030BD10B54E4C217803
S315080071D0FF29A8B008BF702020D0002000904A23BD
S315080071E000220AA805F03DFC0020009025232178FE
S315080071F04A221DA805F035FC00200090242321789A
S315080072006F2201A805F02DFC207805F08BFBFF20E6
S31508007210207001AA0AA91DA810F0B1FB28B010BD5C
S31508007220F8B5394F04463878FF280D46164608D172
S315080072309321002005F0F9FBFF28387001D135208D
S31508007240F2BD01200090334639782A46204605F0DB
S3150800725008FC0020F2BD10B50446A6B0207860BB35
S3150800726001202070A0781A2804D024D31C2815D011
S315080072700AD320E04A2204F1090113A8FDF7D1FA3E
S315080072804A22002113A812E0252204F1090109A8BF
S31508007290FDF7C7FA25224A2109A808E0242204F1A5
S315080072A009016846FDF7BDFA24226F216846FFF7F3
S315080072B0B7FF607001E00020207026B010BD01788D
S315080072C0002904BF417829290CD110490978522987
S315080072D004D10F4909788180002100E038218170A6
S315080072E001210170704710B5074C2078FF281FBF91
S315080072F006490978AB29ED2903D005F013FBFF20D1
S31508007300207010BD0000000093ED0020B2FF0020A1
S31508007310A8FF002011B1012903D004E0114602F0AC
S31508007320F3BD02F03CBE0220704710B50446207833
S31508007330002804BF607808280ED11448007856281B
S3150800734003D103F011FAE07002E0E07803F012FAD4
S315080073500020A0700120207010BD0178A1B94178E5
S315080073602F2908BF0A4902D030290DD1094959B138
S31508007370064A1278522A07BF0978818082880A70DD
S31508007380002181700121017070470000B2FF0020C2
S3150800739089ED00208AED0020002070470020704704
S315080073A030B58FB005460C463B2200216846FDF7EE
S315080073B07BFAB6208DF800000DF10101284600F091
S315080073C076F8DCB100218DF82910082221460DF146
S315080073D02A00FDF726FA0DF12905207A68720DF1C3
S315080073E03300618903F05AFDA1890DF1350003F0D8
S315080073F055FDA07BA873E07BE87302E001218DF8B8
S3150800740029100DF13900FFF796FC3B2100F00CF826
S315080074100FB030BD80B5B7218DF800108DF801008A
S31508007420022100F001F801BD68460EF020B910B53A
S3150800743086B00446B8208DF800000DF101002188B9
S3150800744003F02CFD61880DF1030003F027FDA188E8
S315080074500DF1050003F022FDE1880DF1070003F0A8
S315080074601DFD21890DF1090003F018FD61890DF153
S315080074700B0003F013FDA1890DF10D0003F00EFDBD
S315080074800DF10F00FFF757FC1121FFF7CDFF06B0EE
S3150800749010BD00B58BB0BB218DF800100DF10101B0
S315080074A000F005F82921FFF7BFFF0BB000BD38B57E
S315080074B004460D46A0782870681C218803F0EEFC67
S315080074C00822211DE81CFDF7ACF9E078E87205F101
S315080074D00E01207B2873607B68730120226903F004
S315080074E0E1FC626905F11201012003F0DBFC218B46
S315080074F005F1160003F0D2FC082204F11C0105F17F
S315080075001800FDF78EF9A18C05F1200003F0C6FCE2
S31508007510E18C05F1220003F0C1FC04F1280105F114
S3150800752024000A7802704A7842708A788270C9788C
S31508007530C17031BDF8B5BA4D0446286800792B38B4
S31508007540022801D90D382ED1FCF724FF06462868F3
S31508007550B449401D0860002131200EF050F9054657
S315080075604FF6FF770BE005F10D0080B20EF074F8C8
S31508007570B04213D0294631200EF041F90546BD42E6
S31508007580F1D1002100E0294632200EF038F90546EF
S31508007590BD4208D00EF060F8B042F4D1A420FCF742
S315080075A012FF00202070F1BD38B50446002100E026
S315080075B029463F200EF023F905464FF6FF7085420F
S315080075C00CD028460EF048F80228F1D1681C80B283
S315080075D00EF042F8A042EBD1012032BD002032BDA8
S315080075E02DE9F8438046002145200EF008F94FF0B2
S315080075F0000904468C4D4FF6FF7609E0FF21B8B224
S315080076000EF02FF8A1B245200EF0F9F8A14604466F
S31508007610B44224D004F11007B8B20EF01DF8404564
S31508007620F0D120460EF018F8022818BF0328E5D135
S31508007630A41FA0B20EF010F801462888401A321886
S315080076407A482A800919121B92B2007800924B1CBC
S315080076509BB20246A1B205F0EEFB4C46D2E7BDE866
S31508007660F183F0B5724F3D788BB0064606F023F8E5
S3150800767006F01FF800F079F806D012282FD1718885
S31508007680707806F086F950B3707804A906F020F9E8
S3150800769088B1BDF8100040F20911884204BF70880D
S315080076A0B0F5006F07D1701D10F074F9B52802D037
S315080076B0A8B9002413E00124002500E06D1C3978E0
S315080076C0E8B288420BD206A900F097F99DF818008F
S315080076D00028F3D13146E8B200F09AF90446312081
S315080076E08DF8000030788DF8010070788DF802006A
S315080076F00DF10300718803F0D1FB30798DF8050090
S315080077000822711D0DF10600FDF78BF88DF80E5055
S315080077108DF80F40102168460DF0A9FF20460BB0E2
S31508007720F0BD38B5054605F0C6FF05F0C2FF00F006
S315080077301CF80DD12846FFF737FF08B1752407E076
S31508007740284600F0B0F9040004BF2846FFF748FFB2
S3150800775032208DF800008DF801508DF80240032183
S3150800776068460DF084FF204632BD324800786C2406
S315080077701128704738B504460D46FFF715FF08B1BE
S31508007780752511E03DB105F092FF6873294620463C
S3150800779000F03EF902E0204600F085F9054628008B
S315080077A004BF2046FFF71CFF284632BDE2E700214A
S315080077B0E0E721490978027856290CBF0121002102
S315080077C0002A04BF4278012A0AD11A4A002919BF99
S315080077D01178C170C1781170002181700121017082
S315080077E0704710B504462078002804BF607804283E
S315080077F014D111490E480978522903D10078A0807E
S31508007800002008E00D4AA18812788A4232BF362045
S31508007810C9B204F069FEA0700120207010BD0000F6
S31508007820DCFA002048F900208EFF0020A0ED002099
S31508007830A4FF002092ED0020B2FF00205851020854
S315080078401FB50C4602460D231621684608F0FEFFB2
S315080078500D2269462046FCF7E4FF2078400960734C
S31508007860207800F01F0020701FBD30B585B0044693
S315080078700D460D226846FCF7D4FF9DF80000697B8B
S3150800788040EA41108DF800000D236A46214616206D
S3150800789009F003F805B030BD2DE9FF41044600F0B4
S315080078A05FF814E03068EDB2A84630F81800A04238
S315080078B00CD16946284600F0A0F89DF80000022879
S315080078C004D031684FF6FD7021F818006D1CE8B237
S315080078D039788842E6D3BDE8FF812DE9F045884628
S315080078E04FF6FF7AD04585B0044605D100F0D8F9A1
S315080078F010B906F0E4FF30E000F032F80CE0D045AD
S3150800790008D0306830F81510414504BF4FF6FD71B0
S3150800791020F815106D1CEDB2387885421CDA3068EF
S3150800792030F8150000F018F9F4DA69462846FFF72A
S3150800793087FF082221460DF10500FCF7BCFF002849
S31508007940DDD13068D04502D130F8150005E020F8C1
S31508007950158010F05CF8DDE7504605B0BDE8F08507
S315080079600025DFF8C463DFF8C47370472DE9FF47C5
S31508007970804689460026DFF8B873DFF8AC43DFF89F
S31508007980AC5316E02068F6B2B24630F81A0000F09A
S31508007990E3F80DDA69463046FFF752FF08224146FA
S315080079A00DF10500FCF787FF10B9386800F80A9052
S315080079B0761CF0B229788842E4D3BDE8FF87DFF861
S315080079C06813096831F8100070471FB5DFF85C23A3
S315080079D0127890420C460FD2D349096831F8101034
S315080079E04FF6FE72914207DA694600F006F821461C
S315080079F00DF10500FFF771FF1FBD80B5CB4B1B7856
S31508007A00984201D3692002BDFFF71AFF002002BD84
S31508007A1070B504460D4623460022B4A1032010F093
S31508007A2079FC28780028204602D1BDE870403AE063
S31508007A30BE490978884201D3692070BD10F01CFC44
S31508007A4008B1752070BD05F041FE6873681D09F020
S31508007A500EFF06464FF6FF71681DFFF73EFF02460A
S31508007A6029783346204600F006F829462046FFF7CF
S31508007A70FCFE002070BD30B54FF6FF740D0008BF40
S31508007A80224608D0032908BF4FF6FE7203D0A24249
S31508007A9008BF4FF6FD72A449096821F81020A449C9
S31508007AA009680B5430BD30B505462C4685B02346CB
S31508007AB001228EA1032010F02DFC9C490978284646
S31508007AC0884228BF692019D210F0D6FB08B1752064
S31508007AD014E069462846FFF7B3FE9DF8000030B16A
S31508007AE000208DF8000069462846FFF7BEFE8E493D
S31508007AF009684FF6FF7021F81400002005B030BD64
S31508007B00F0B585B007460C46874D884E00E07F1CC9
S31508007B103178F8B288421CD22868FFB230F81700CC
S31508007B2000F01AF8F3D169463846FFF789FE9DF842
S31508007B300500E1B2884204BF9DF80610B1EB142F88
S31508007B40E5D105F0C3FD9DF80D108142DFD1384619
S31508007B5000E0FF2005B0F0BD4FF6FE718842704781
S31508007B602DE9F14F84B00D460E9C6F4FDFF8BCA18E
S31508007B7090469946002607E03868BDF8101030F898
S31508007B801B0088422CD0761C9AF80010F0B2884266
S31508007B9028D23868F6B2B34630F81B00FFF7DCFF88
S31508007BA0F1DA69463046FFF74BFE5FEA080007D16F
S31508007BB09DF80100484504BF9DF80400A042E2D1A3
S31508007BC005F084FD9DF80D108142DCD1002DD3D03F
S31508007BD008220DF105012846FCF76DFE0028D2D1D2
S31508007BE0304600E0FF2005B0BDE8F08F10B514461A
S31508007BF0FFF726FE2046BDE8104008224D49FCF74F
S31508007C0010BE2DE9FF470446084615461E4600F0F5
S31508007C1047F808B1002040E00027DFF80C81DFF8BC
S31508007C200C9100E07F1C99F80010F8B2884223D224
S31508007C30D8F80000FFB2BA4630F81A004FF6FF71BE
S31508007C408842EFD069463846FFF7FAFD0C220DF157
S31508007C500101601CFCF72FFE0028E3D1BAF1FF0FE3
S31508007C600CD10020307005F030FD307855B138B9A8
S31508007C702046FFF7F6FC09E0FF27F2E70120F1E7C7
S31508007C80012006E028B13846FFF74BFD401E80412B
S31508007C90C00F307005F01FFD012004B0BDE8F08765
S31508007CA008222449FCF707BE30B585B000241F4DCD
S31508007CB016E06946FFF7C4FD9DF80000042806DBB8
S31508007CC000208DF800006946E0B2FFF7CEFD9DF86A
S31508007CD0001000234FF6FF72E0B2FFF7CCFE641CDB
S31508007CE02978E0B28842E4D305B030BD42420000AC
S31508007CF030B585B002220BA1032010F00BFB002043
S31508007D008DF800000024094D03E06946FFF7ADFD34
S31508007D10641C2978E0B28842F7D3FFF7C5FF002034
S31508007D2005B030BD4200000050EC0020A4FF002042
S31508007D3054EC0020E4FA002030B583B00446FCF782
S31508007D4029FB0546202D1ADA5CB169460820FCF79E
S31508007D5028FB08236A462946202008F09EFD0020B5
S31508007D600EE008232A462021684608F06FFD002009
S31508007D70FCF729FB69460820FCF750FB37BD702045
S31508007D80FCF721FB37BD704770B5514D6E8A044626
S31508007D9005F1080010F0EDFA012C08BFAE8A02D0F2
S31508007DA0022C08BF022618B1FA217143884206D36D
S31508007DB0310205F10800BDE8704010F0CDBA70BD7B
S31508007DC07CB5434C0020E07020714FF6F972208A8A
S31508007DD090421CBF4FF6F872904216D161793D4E1B
S31508007DE04FF6FD7591B14FF6FC7001900023002007
S31508007DF000900022308800210AF0D8FD002060712A
S31508007E0035800120BDE87640BEE773BDA1780DF048
S31508007E1033FF3088A842F4D0012060710220F1E7D0
S31508007E2010B5A92818BFAA2814D12948C2780378FA
S31508007E30521CC270D2B29A420CD3264A13884FF605
S31508007E40FD74A34202D11180002141710020BDE8D2
S31508007E50104099E710BD02001CBF012802280CD16A
S31508007E6066290AD11A480179491C0171C9B24078B4
S31508007E70814224BF0020FFF787BF704710B5144C16
S31508007E8021829200029921709B0003996282A38243
S31508007E9061709BB20499A17092B2934208D3218A69
S31508007EA04FF6F87291421CBF4FF6F972914201D013
S31508007EB0702010BD002161714FF6FD71054A1180D1
S31508007EC018B10120FFF760FF00E02072002010BD06
S31508007ED0C8F9002040ED00202DE9F54F8BB08B4600
S31508007EE00C98169C1799ADF804B00026C0889A46D7
S31508007EF00746B046B14649B9F90607D50C9A9DF822
S31508007F002C00009459460FF02FFD16E1790548BF5D
S31508007F104FF48058390548BF48F40068B90548BF8A
S31508007F2048F0800803D4F90548BF48F040089DF892
S31508007F302C1002915D469DF82C1003910A2966D8EB
S31508007F40DFE801F0082F1B3C65653C06083C180075
S31508007F504FF00209BDF80420CDF800A0334648F4D6
S31508007F60027120460BF000F88246BAF1FF0F50D195
S31508007F701820E2E04FF00309ECE706A95FFA8BF058
S31508007F80FFF73BFD08220DF11D0104A8FCF749FC8B
S31508007F90DFF81009006830F8150004AEADF80400E3
S31508007FA0D8E704A95FFA8BF009F03AFBDFF8F8087E
S31508007FB000680C21694304AE405AEFE74FF6F871A2
S31508007FC08D4224DB4FF40261084220D100F042F9C9
S31508007FD018BF91201CD1FF2C0FD000F0BAFB0299D4
S31508007FE003290CBF01210021401ADFF8C0180968CF
S31508007FF0095D8842B8BF74200ADB029803280CBFC3
S315080080004FF00C094FF0080928F4C078A2E70120C0
S3150800801093E0DFF89C5828884FF6FF71884218D0FD
S31508008020504610F0C8FA0090001D298802F036FF65
S31508008030DFF8800800990078C8714FF6FF7028802D
S315080080405FEAC84005D500980822291D0830FCF7C4
S31508008050E8FB0C9A494650460BF05AF908B9182617
S3150800806067E0DFF854080068C07E70B1B8060CD522
S31508008070F8074CBF2020002040F0010332460021BB
S3150800808050460CF025FE060053D1FF2C15D050465D
S3150800809010F087FADFF820180968C97E01B11221A5
S315080080A0DFF808281268135D12F80A20D21874300F
S315080080B089188842B8BF74263BDBB80407D55046F2
S315080080C010F089FA40F48061504610F086FA02985A
S315080080D0082812BF0928504610F08CFA179848B19C
S315080080E0BDF80410504610F09EFA179880F800A0C4
S315080080F0002022E00398C01E05D0C01E012884BFB8
S31508008100C01E012807D850460DF03DFC00280CBFBC
S31508008110A12600260DE0B80444BF4FF6BF700740FD
S315080081209DF82C103B465FFA8BF250460FF080FC08
S315080081300646504604F0F6FB30460DB0BDE8F08F13
S31508008140F0B587B00E4604460C991746184604F053
S315080081506CFC0546FF2D21D0FF208DF810008DF808
S315080081601100ADF80E704CF20E00ADF80C00ADF82B
S3150800817012600020ADF81400009502A80190FF23B4
S3150800818003AA21460020FFF7A7FE0446284604F066
S31508008190C9FB002C0CBF9DF80800FF2007B0F0BDF6
S315080081A02DE9F043164685B00446F08804900D463E
S315080081B070790FF2407103901F4630790290A846F5
S315080081C070880190434630880090082200F099F89C
S315080081D000F040F818BF91201AD1FF2F09D000F0FF
S315080081E0B8FADFF8C8160968C95D884238BF74202E
S315080081F00ED320000FD14FF6F870804528DA0020FC
S3150800820001900097FF23324629462046FFF764FE71
S3150800821005B0BDE8F083022C4FF6FE790CD1DFF8E5
S315080082209C1609788D4213D2DFF87806006830F874
S3150800823018004845E3DB0BE0012C09D1DFF880166E
S3150800824009788D4204D2E8B209F002FA4845D6DB2D
S315080082500120DDE7DFF860060068407B02287047EA
S31508008260F0B587B00D461646044605961F46E888BB
S315080082700FF28861049023466879039009222879C9
S315080082800290688801902888009000F03AF800204B
S315080082900190009733462A4621460620FFF71CFE22
S315080082A007B0F0BD2DE9F04188B01E460E9C079434
S315080082B08046F08806901746707905900D46307905
S315080082C00FF2446104904346708803900A2230886E
S315080082D002900197009500F014F8DFF8D405A0F88D
S315080082E000802346DFF8CC0507700020019032464F
S315080082F00F98009029460620FFF7EEFD08B0BDE866
S31508008300F081032010F006B880B538B1014608227E
S31508008310DFF8B005FCF785FA002002BD022002BD91
S3150800832070B588B000F02EF80C98DFF88415009622
S3150800833008802B460D98DFF87C1508702246DFF872
S3150800834088050078002814BF4FF6FF714FF6FD71B7
S315080083500020019011E070B588B000F013F8DFF83E
S31508008360680500780096002814BF4FF6FF714FF68F
S31508008370FD71002001902B4622460320FFF7ACFD35
S3150800838008B070BD04460D46069205951E46E0885F
S315080083900FF28051049006226079039020790290AA
S315080083A06088019020880090032023890FF0B2BFCF
S315080083B010B5DFF8180504F087FD0446FF2C0DD02C
S315080083C02146042004F033F818B10121204600F0B4
S315080083D006F82046BDE8104004F0A4BA10BD2DE901
S315080083E0F04F89B082468B4610F0E5F80646B01C79
S315080083F002F04DFDDFF8D844DFF8D854074650465A
S315080084000AF063FE0146504604F023FC80465046B7
S3150800841010F0EBF805F05EF9301D02F038FD20800B
S31508008420009706F04CFA009989B2814208F00309D0
S3150800843012D04FF6F87087420EDA7078C0070BD460
S31508008440384609F092FE002805D0208801235246B6
S31508008450394600F0B2F97AE005A950460AF0C4FE9A
S3150800846005A8286030460AF04DFEDFF86C1408604F
S315080084700321504610F08FF8DFF8601408700421C5
S31508008480504610F088F8DFF8581408705FEA0B00B9
S315080084902BD09DF81A00800627D506F010FADFF8CB
S315080084A0186440B13068007D800704D4B9F1010F23
S315080084B008BF182300D008230022002150460CF0DC
S315080084C007FC90B108F00300012802BF3068407B22
S315080084D0112805D100F02BFE10B9AF2006F0BFFA1F
S315080084E005F0F9F80020286048E018F0030003D0EA
S315080084F0022806D00AD32AE05946504600F041F829
S3150800850025E0514640460FF0C1FA20E006F0D7F9BB
S31508008510218881421BD05146052003F088FFB0B15F
S315080085202968887940060DD50C2202A8FCF779F946
S3150800853000200190FF23FF20009002AA21880A202C
S31508008540FFF7CAFC21885A4650460BF00BFC06F08A
S31508008550B6F9218881420DD150460AF0B6FD01468A
S31508008560504604F076FB0C21084203D10021504600
S315080085700FF0BDFC0020286005F0ADF809B0BDE895
S31508008580F08F2DE9FE4F804610F015F80546404657
S315080085900AF09BFD0146404604F05BFB814668787D
S315080085A0DFF83073DFF8284300F001000290A81CBA
S315080085B002F06DFC4FF6F8718842ACBF4FF0010A25
S315080085C04FF0000A06F07BF9218881423868B0F836
S315080085D002B00CBF01260026404610F077F8014687
S315080085E0029840EA0A008DF804009DF80400002865
S315080085F014BF06200820002205F0DFF83868018835
S31508008600002904BF407900281DD1694640460AF072
S315080086101AF93B689DF80010421ED2B2042010F0E9
S31508008620CEF83868408848F20201884203D120888B
S31508008630414600F04FFE2088BBF5004F19DB5A462D
S3150800864041460AF014F9386801884CF20E02914244
S315080086503CD144F2010AD34518BFBBF5804F35D14A
S3150800866040460AF0B5FD0146D3450CBF012000205F
S3150800867023E09C4A0221117053460022414609F024
S3150800868065FF38688079400603D5FF21584600F013
S3150800869067F8BBF1130FD6D03868C0884004D2D427
S315080086A09149904809780078CA0701D50228CAD0A6
S315080086B0890740D50128C6D03DE0491EC9B20091B8
S315080086C02B464246012106F0C8FD34E0029919B945
S315080086D009F00C010C290DD1008909F0F7F850B3FF
S315080086E038680189002E14BF032502250020FFF7EC
S315080086F007FA11E0017900910022437920880021C8
S31508008700FFF72EFA09F00C01082904D1002E0CBF38
S315080087100425052500E00025744908709DF8040025
S3150800872010B9BBF1380F01D1012200E00022294619
S3150800873040460CF0CDFEBDE8F78F10B5044600F0B4
S3150800874008F8610548BF0838210548BF0838C0B28F
S3150800875010BD59490968C97E642001B15220704785
S3150800876070B55C4E0C4686B0054631680C2202A8E8
S31508008770FCF757F8306801798DF80D10FF23417919
S315080087808DF80C10ADF80A504FF6BF71C0880094EA
S315080087900840ADF80E0002AA002001904C48018856
S315080087A00720FFF799FB06B070BD5148007808B955
S315080087B0FF2070474D48007870472DE9FB479146E2
S315080087C085B01C4648460AF080FC0146484604F037
S315080087D040FA032108428DF800005ED13D4805683D
S315080087E03B48068801A948460AF0FEFC394901A813
S315080087F008604FF0000ABDF81400354908809DF856
S315080088000900002804BFBDF8040000283FD14846E7
S315080088100FF0D1FE801C02F03AFB4FF6F871884241
S31508008820ACBF4FF00108D046002C14BF0224012427
S31508008830012729E0BDF8140043463A46494609F09F
S3150800884085FE5FEA000A1ED0022C08BF012F1AD146
S31508008850BDF818001649088017480068417E491C6B
S315080088604176A1F18000134908700C219DF800009B
S31508008870084208D19DF80A00400604D5BDF806004E
S31508008880FF21FFF76DFF7F1CFFB2BC42D2DA114809
S3150800889005600F480680504600E0002008B0BDE895
S315080088A0F087000050EC00205CEC0020FCEB002078
S315080088B0B0EC0020BDFF002070FC0020A4FF0020C3
S315080088C07CED0020B4EC0020ADFF0020E4EC002095
S315080088D026FD002028FD00202CFD00206DFD00202F
S315080088E06EFD0020BCFF0020A9FF0020E2FF00204B
S315080088F024FD0020425757574242570042575757C0
S3150800890042425742000000004257574257574242D8
S31508008910574200004257574242425742420000001F
S3150800892010B5044604F0C5FE0DF046FF010018BF59
S3150800893000F013F80C212F48614308448279818896
S315080089400068BDE8104005F0F1BB0020E8E701200B
S31508008950E6E70220E4E70320E2E710B582B0044622
S3150800896004F0A9FE0C21484322490844210017BFF8
S31508008970312C0021017A491C0172C279017A91428F
S315080089800AD30021017243208DF800008DF80140BA
S31508008990022168460CF06BFE13BD17490978312988
S315080089A000D0704780B544218DF8001001460DF1BE
S315080089B0010002F073FA032168460CF058FE01BD67
S315080089C038B50E4C0B4B24780C256C43B0F5004F8C
S315080089D0B8BF0429234401DB702032BDDA719880C0
S315080089E099719A799988186805F0A0FBBDE8314015
S315080089F00DF0E2BE80EC002095ED0020B3FF0020CC
S31508008A0070B5160004460D4602D108F05AFD02E07C
S31508008A10FF2108F005FD324629462046BDE870408C
S31508008A20A1E02DE9F04782B005468A4617469846E2
S31508008A300CF022FAC0480A9C0078B0B10C2F14DA60
S31508008A40FF21284608F0ECFC814600260AE004EBE4
S31508008A504601C9B2404604F0B7F9494608F0E0FCB9
S31508008A608146761CF0B2B842F1D3009443463A46A2
S31508008A705146284600F08FF8BDE8F3872DE9F04700
S31508008A8004468A4600F0D6F8012847D1204608F061
S31508008A90B1FCAA4A126812F80A700025FF281AD0F3
S31508008AA081464C46DFF8988200E06D1CD8F8000035
S31508008AB000EB84008478FF2CF7D1EDB20C2D0ADA8E
S31508008AC06800861CBAF1FF0F27D0F119C9B25046C3
S31508008AD004F078F808B1002020E02A4639465046C6
S31508008AE004F0BCF87C1C002D14BF6A1E0022D2B20A
S31508008AF0E1B2504604F0B2F8671C4C4606E030F87E
S31508008B002420F9B2504604F06CF9BF1CD8F80000CE
S31508008B1000EB84018C78FF2CF1D1F0B2BDE8F08728
S31508008B2010B5FF280AD0864B1B6833F820400C8006
S31508008B3003EB800080781070002010BD032010BD64
S31508008B4010B508F057FC0024FF280AD0022401E0DB
S31508008B50A41CE4B27A49096801EB80008078FF28F2
S31508008B60F6D1204610BD30B583B00C46C4218DF829
S31508008B700010154601460DF1010002F08FF9214655
S31508008B800DF1030002F08AF98DF8055006216846B2
S31508008B900CF06DFD37BD2DE9F04186B007468846D5
S31508008BA01D460DF1050014460CF0EAFC01A80CF070
S31508008BB0E9FC59208DF8080039460DF1090002F044
S31508008BC06DF9082241460DF10B00FBF72AFE9DF8C8
S31508008BD005000C9B8DF8130066009DF804008DF8BF
S31508008BE01400F6B28DF8154000962A46002128464C
S31508008BF004F021F93146284603F0E4FF00200090EE
S31508008C0000232A460E2102A80CF039FD06B0BDE85D
S31508008C10F08110B5044600F003F84A48047010BD08
S31508008C2010B5484C2078FF2803D003F07BFEFF20C0
S31508008C30207010BD2DE9F041DFF80881074698F845
S31508008C400000FF2882B00C4619D03C4D2A68115CFA
S31508008C508E1EF6B2314604F0B7F8B8420FD128682E
S31508008C60075DF5052D0EFF2C02D1A81CC0B220E029
S31508008C70F019811CC9B2204603F0A4FF08B10120EF
S31508008C8017E02A463946204603F0E8FF6A1E791C93
S31508008C90D2B2C9B2204603F0E1FF98F80020009648
S31508008CA0B91C002389B2204604F0C5F8FFF7B8FFBF
S31508008CB00020BDE8F6812DE9F04180461E4800787F
S31508008CC0002688420F46154638BF742032D3012045
S31508008CD003F0BDFD0446380010D07900C9B220461D
S31508008CE003F070FF50B907E035F816207100C9B2D5
S31508008CF0204604F076F8761CBE42F5DB2046FF28AF
S31508008D0011D00E4909680D5CA91CC9B203F05AFFB7
S31508008D1028B942462946204604F063F803E020466F
S31508008D2003F000FEFF242046FFF773FFFF2C0CBF5D
S31508008D3018200020BDE8F081A3FF0020FCEB0020EE
S31508008D404CEC002096ED002070207047702070478C
S31508008D5070207047702070477047000030B5054690
S31508008D600C4683B0282200212046FBF79DFD681E8D
S31508008D70A5701ED0801E01284FD8032D0CBF0125D3
S31508008D8000252A4604F11C01E01C0BF06DFB35B1E9
S31508008D90208840F0020020800FF03CFD60612088AA
S31508008DA040F0010020801021E01C00F0A0F8B0BBC4
S31508008DB006E0DFF8B8552868007D10F0300F01D1BD
S31508008DC0B2203EBD208840F0020020800BF0C7FD8F
S31508008DD06061E01C00F0ABF8684600F0BCF848B1EA
S31508008DE00822694604F11D00FBF71BFD208840F0A8
S31508008DF00800208028684069C00303D4208840F012
S31508008E001000208005F05BFD0028CCD02868406A59
S31508008E10A061208840F00400C4E770203EBDE01C35
S31508008E200EF05CFC00203EBDF0B587B004460D464A
S31508008E3016461F46684600F088F83EB108223146B5
S31508008E400DF10200FBF7EDFC45F040052FB11022AD
S31508008E5039460DF10A00FBF7E4FCDFF81005006857
S31508008E604169A1432943416148040CD5BDF8000076
S31508008E700A0A00F40E4002F4E242104301F0FF0130
S31508008E800843ADF800001A2308226946002002F0BC
S31508008E90FCF907B0F0BD00230022C5E7DFF8CC04D3
S31508008EA00068416941F48041416147F2FF10014081
S31508008EB0F1E700B587B00FF0C0FC684600F045F84A
S31508008EC0DFF8A8040068BDF800204169090A120AFB
S31508008ED0090202F0710241EA0241BDF8002002F0DF
S31508008EE0FF02114341F48041416107B000BD38B526
S31508008EF004460D46002207F0A5FA40B9FF22294686
S31508008F00204607F09FFA401E8041C00F32BD002060
S31508008F1032BDDFF858040068007D00F030001028E4
S31508008F2018BF202801D1012070470020704710B5CE
S31508008F3088B00446684600F008F810220DF10A01C8
S31508008F402046FBF76EFC08B010BD01461A2308221E
S31508008F50012002F09AB910B50446DFF8100400683B
S31508008F6088B04069810705D50822FF212046FBF70E
S31508008F709BFC0AE040060AD56846FFF7E6FF08228A
S31508008F800DF102012046FBF74CFC012000E0002011
S31508008F9008B010BD80B539B9DFF8D0130968097D66
S31508008FA0490601D5002002BD024600230021002003
S31508008FB0FFF73AFF012002BD0021EBE70121E9E7AF
S31508008FC01CB504466846FFF7C6FF40B1082221468D
S31508008FD06846FBF770FC401E8041C00F16BDFF2295
S31508008FE00821204607F02EFA20B106210020FFF7B7
S31508008FF052FF04E0002322460021FFF715FF012057
S3150800900016BD2DE9F0470D4692B081461646012158
S3150800901000241F4600F024FA8046B80707F0010A24
S315080090200BD507A948460EF08BF920B100F06FF86A
S3150800903006B134601BE0A6201AE0B8F1FF0F1AD07B
S3150800904007A9404600F0A4F9010011D10DB100F0BE
S315080090505EF82EB1DFF81803006800EB8800306070
S31508009060BAF1000F03D0BDF81C00C00647D5002092
S3150800907012B0BDE8F087DFF8F47256B105F01FFCB0
S3150800908018B13868017D890701D5346001E02430BC
S315080090903060FFF73EFF0028CDD06846FFF755FF42
S315080090A008220DF102014846FBF705FC28B138688D
S315080090B0007D00F044004028BDD0BAF1000F04D06E
S315080090C038684069C00348BF0124B5B105F0F7FB0D
S315080090D0002801BF3868007D00F08400842807D185
S315080090E02B46082249460DF10A000FF03EFE04E021
S315080090F010220DF10A0100F00DF8002CB7D04246F7
S315080091004FF6FF71182004F058FBBB20B0E7102279
S315080091100DF11F012846FBF784BB80B5002300220A
S315080091200021FFF76EFF401E8041C00F02BD00B54B
S3150800913083B06846FFF70FFF10B16846FFF7EDFFEB
S315080091400EBDF0B585B0074605F0B9FB002400252D
S31508009150A8B107F0F1F890B103A8FFF7FCFE70B1CB
S315080091602FB1082283493846FBF7A5FB38B17F4E55
S315080091703068017D890705D5417B112901D070200A
S3150800918046E044889FB10822394603A8FBF793FBBB
S3150800919068B108208DF80000082202208DF8010029
S315080091A039460DF10200FBF73CFB0A2107E00820CF
S315080091B08DF80000012504208DF80100022168467B
S315080091C003F033FC0746FF2F21D0FFF7A2FE00B1BC
S315080091D002203168097D89074CBF04210021084314
S315080091E040F001033A46002120460AF01BFF04001E
S315080091F007D00021012000F00DF815B15E490120C5
S315080092000870384603F08EFB0CB1002000E01820E9
S3150800921005B0F0BD594A11B141F2883105E0584907
S3150800922009784EF66023594304D000281CBF10461F
S315080092300FF092B800201070704730B583B008223E
S3150800924000216846FBF730FB05F039FB4D4C18B991
S3150800925000F086FD0D250FE0607860B14A49207858
S315080092600978884207D200F011F820B901210120B7
S31508009270FFF7D0FF37BD0425002060700021FFF7F7
S31508009280C9FF2946684604F08AFA37BD3D4900B544
S315080092900A78521C0A7070204978012983B002D1D5
S315080092A000F012F80EBD022909D16946002005F022
S315080092B0D1FA010007D16846FFF743FF0EBD03291F
S315080092C008BF0BF07EFA0EBD00224FF4A0710020F5
S315080092D009F059BB70B598B005460E4604A850214A
S315080092E00FF074FD274C6078012808BF002D31D196
S315080092F001A9304609F0A7FA24499DF8042009680F
S31508009300895C0D1A0021009102469DF80410EBB203
S3150800931004A803F0A6FBEDB2E5B19DF81100C8B9A3
S315080093209DF81C00000200F47E40B0F5285F0FD1BE
S3150800933002A9002005F08EFA60B90120207002A863
S31508009340FFF7FFFE01210120FFF764FF022000E07E
S315080093500020607018B070BD0A4908707047094847
S3150800936040787047074948707047000070FC002035
S3150800937064EC0020E4FA0020C2FF0020E0F9002097
S31508009380ACFF0020BAFF002097ED0020FCEB002080
S3150800939030B500F026F987B028BFB12039D200F0E1
S315080093A026F918216846FFF7A2FD08B9B62030E06D
S315080093B0282200212846FBF777FA102202A9E81C82
S315080093C0FBF72FFA0822694605F11D00FBF729FA73
S315080093D0082028809DF8180081075CBF182129807D
S315080093E0410703D5298841F020012980C0070FD5F8
S315080093F00520A870AC48006850F82400A8610BF056
S31508009400AEFA6861288840F006002880002000E04F
S31508009410B22007B030BD38B50C46FFF7B9FF054690
S31508009420E01C0EF05BF9284632BD38B504461546F1
S3150800943009B9702032BD012100F012F8FF2803D1C6
S315080094400121002000F00CF8FF2807D02B46224601
S3150800945001B0BDE830400146002045E0B42032BDE9
S315080094602DE9F04188B0044609B9702039E02CB1DD
S315080094700022082106F0E6FF074600E0012700263D
S31508009480884D04E00821FFF732FD38B3761C2978A9
S31508009490F0B2884224D201A800901923F2B218210A
S315080094A0684607F0E4F9009890F81880002FE9D18B
S315080094B008222146FBF7FFF90028E7D10098083073
S315080094C00BF0B5F908F0010181F001010843DDD17F
S315080094D004F0FCF8C8F3C2018142D7D1F0B200E02B
S315080094E0FF2008B0BDE8F0812DE9F04116466D4A27
S315080094F0127891428AB00C46984628BFB1204DD2C0
S31508009500254630B910214046FFF7F1FC38B9B2209C
S3150800951044E01922002102A8FBF7C6F932E001212E
S315080095203046FFF79DFF0746082260493046FBF79D
S31508009530C2F968B1FF2F18BFAF4209D16846FFF7D5
S315080095400AFD38B1082269463046FBF7B4F908B96E
S31508009550B32023E00822314602A8FBF762F910225D
